:100000000C94A5020C94EC020C94EC020C94520E8D
:100010000C94EC020C94EC020C94EC020C94EC02A8
:100020000C94EC020C94EC020C94DE220C94B2239F
:100030000C9461190C94EC020C94EC020C94EC02FC
:100040000C94EC020C94EC020C94EC020C94EC0278
:100050000C94EC020C94B8190C94EC020C94EC0285
:100060000C94EC020C94EC020C94EC020C94EC0258
:100070000C94EC020C94EC020C94EC020C94EC0248
:100080000C94EC020C94EC020C94EC020C94EC0238
:100090000C94EC020C94EC020C94EC020C94EC0228
:1000A0000C94EC020C94EC020C94EC023D5C435C6E
:1000B000455C485C4C5C5B5C00003F5C445C4E5CB7
:1000C0004A5C585C515C405C495C505C535C575CDA
:1000D000475C425C01534B5C4F5C525C555C595C25
:1000E000545C415C465C5A5C5C5C565C4D5C3E5CBE
:1000F0003B5C000000000000000000000000000069
:100100004F5C505C525C535C545C765C0153515CB8
:10011000585C575C555C745C735C0151565C5D5C6B
:10012000605C5A5C715C725CA844645C5B5C595CAA
:10013000695C6F5C705C665C625C5E5C5C5C6B5CAA
:100140006E5C6A5C6C5C655C615C5F5C6D5C635C96
:10015000675C685C3F5C435C455C4A5C565C5A5C2F
:1001600000003D5C495C515C535C485C475C415C11
:10017000425C4E5C525C555C585C4D5C0153445C87
:100180004B5C505C545C575C4F5C465C4B5C595C10
:100190005B5C5E5C4C5C3C5C405C00000000000012
:1001A00000000000000000004F5C505C525C555C99
:1001B000535C745C0153515C585C595C545C725CD8
:1001C000735C0151565C575C655C5B5C695C715C9F
:1001D000A844645C5C5C5A5C5D5C6B5C705C625CFB
:1001E000635C605C5E5C5F5C6E5C6C5C6F5C675CFF
:1001F000635C615C6D5C665C685C6A5CE0001E0070
:100200001F002000210022000000165C2B001400BB
:100210001A00080015001700390004001600070036
:1002200009000A000B00E1001D001B000600190078
:10023000050011003500E300E20091432C002C0082
:100240004600000000000000000000000000000068
:100250004A004E000A001C0023002F004B004D00F6
:1002600005000B0018002400300003512C00110081
:100270000D000C00250031000100904310000E001D
:100280001200260027004F00E60036000F00130082
:100290002A00E50052005000370033004C002800CF
:1002A0003800510001003A003B003C003D003E0098
:1002B0000000010001000100010001000100010037
:1002C0000100010001000100010001000100010026
:1002D0000100010001000100010001000100010016
:1002E0000100010001000100010000000000000009
:1002F00000000000000000000100010001000100FA
:100300003F00010001000100010001000100400068
:100310000100010001000100010001004100010095
:100320000100010001000100010042004300010042
:1003300001000100010001000100010001000100B5
:100340000100340001000100010001000000005222
:100350000000000000000000000000000252000049
:10036000000000000000000000000000000000008D
:10037000000000000100000000000000000000007C
:10038000000000000000135C0A5C00000000000098
:10039000000000000000000000000000000000005D
:1003A00000000000000000000000815C010000006F
:1003B0000000000000000000825C0100000000005E
:1003C0000000000000009D5C010000000000000033
:1003D000000000009E5C0000000000000000000023
:1003E000000000000000000000000000000000000D
:1003F000000000001C03620061006E0064006F00DA
:100400006D0069006E00650064006F006E00690099
:1004100000000E0333006100720061006800740088
:1004200000000403090409029F00040100A0FA0966
:100430000400000103010100092111010001224013
:10044000000705810308000A0904010001030000F8
:10045000000921110100012232000705820320005A
:100460000A080B0202010100000904020000010158
:10047000000009240100010900010309040300022E
:1004800001030000072401000141000624020101CC
:1004900000062402020200092403010301020100F4
:1004A00009240302040101010009050402400005BA
:1004B0000000052501010109058302400005000037
:1004C00005250101031201100100000008EDFEB531
:1004D000F401000102000105010980A10185031951
:1004E000012AB700150126B700950175108100C0DB
:1004F000050C0901A101850419012AA00215012694
:10050000A002950175108100C005010906A1010531
:100510000719E029E7150025019508750181029565
:1005200001750881010507190029FF150026FF0044
:1005300095067508810005081901290595057501BD
:100540009102950175039101C00011241FBECFEFE8
:10055000DAE0DEBFCDBF04B603FE27C08091F4030E
:100560009091F503A091F603B091F7038730904B7B
:10057000A740B04BD1F41092F4031092F5031092FF
:10058000F6031092F70314BE84B7877F84BF0FB6BB
:10059000F894A89580916000886180936000109223
:1005A00060000FBEE0E0F8E3099511E0A0E0B1E0E3
:1005B000E4EFFBE402C005900D92A83BB107D9F728
:1005C00023E0A8EBB1E001C01D92A43FB207E1F720
:1005D0000E94C31F0C94D4250C9400009091BA0182
:1005E000911108C00E942C0792E0811101C091E096
:1005F0009093BA0181E0913009F080E00895ECEE2B
:10060000F2E08081807F82608083EDEEF2E0808185
:100610008078856780830895813031F489EA61119B
:1006200001C08AEA0E94E91081E0089581E00895FE
:1006300081E008950C94180308950C941C031F93F3
:10064000CF93DF9300D000D00F92CDB7DEB74983B0
:100650005A836B833091430289819A8131111DC085
:100660006623B9F02223A9F00E945817182F682F8B
:1006700089819A810E94041769817A81812F0F9064
:100680000F900F900F900F90DF91CF911F910C94CE
:10069000D1030E943017182FEFCF0E94581769819D
:1006A0007A81EDCFFC01262F4081518162817381D7
:1006B00084810C941F03CF93DF93EC0160E00E94D0
:1006C0005203BE01DF91CF910C941D030E942318A9
:1006D000811102C00E94C7180C9493050C949605D2
:1006E00008950E94E6120E9470032FEF84E39CE0BD
:1006F000215080409040E1F700C000000C941D1A8A
:100700000F931F93CF93DF93EC0161E00E9452039C
:100710008C01BE010E941A03882359F1BE01C80151
:100720000E948507882329F1BE01C8010E94AB0BF6
:100730008823F9F0BE01C8010E94FD0B8823C9F08F
:10074000BE01C8010E94200D882399F08A81882368
:1007500039F001158CE5180751F00F3D1C4579F073
:10076000CE01DF91CF911F910F910C9416030E943F
:10077000710380E0DF91CF911F910F9108950E9446
:10078000C718F7CF08950C94C20381E008950C9424
:10079000C503CF93C82F0E94C3038C2FCF910C9415
:1007A000C703972F70E027E0929F600D711D112401
:1007B000FB0194E5899FE00DF11D1124EE0FFF1F51
:1007C000E455FF4F859194910895CF93DF930E9454
:1007D000D1030E94B804EC01811521E5920778F558
:1007E000811530E5930708F076C08F3B910580F4C2
:1007F000883A910508F064C0853A910508F058C020
:100800008430910588F4019779F0D0E0C0E00CC005
:100810008115904268F4C11581E0D80728F4CE0113
:10082000805E9109089788F7CE01DF91CF910895F6
:10083000C11590E4D90748F3DF70D06AF5CF811570
:1008400024E5920778F4811533E5930708F06FC02B
:10085000811542E5940708F05AC0D82FCC27C16F04
:10086000D06AE2CFC1158AE5D80770F4C11599E5C1
:10087000D90708F06FC0C11528E5D20730F2DC2F88
:10088000CC27C06FD06AD0CFCE0190568115904250
:1008900008F0BBCF8D2F8F710E944F0590E0982FED
:1008A000882788279F719C012C2BE901D062BCCF3F
:1008B000C55AD0E0CE5ADE4FC881D0E0D064B4CF64
:1008C000C85AD0E0CC0FDD1FCC5DDE4F0990D88137
:1008D000C02DD464A9CF64E0969587956A95E1F719
:1008E00083702C2F26952695237040E2249F90013B
:1008F0001124382B8C2F8370C1E0D0E002C0CC0FC4
:10090000DD1F8A95E2F7C22BD32BDC688DCF837075
:10091000992721E030E002C0220F331F8A95E2F7C9
:10092000C695C69580E2C89FE0011124ECCF837084
:10093000992721E030E002C0220F331F8A95E2F7A9
:10094000C695C69590E2C99FE0011124C22BD32B16
:10095000DA686ACF8C2F8F700E944F0534E0D695ED
:10096000C7953A95E1F7CF709C2FEC01D0695CCF29
:1009700082389105B1F1B0F48133910509F475C065
:1009800048F48932910509F469C08A32910509F465
:1009900073C008958533910509F459C089339105D1
:1009A00001F10895833E9105A9F138F4803E910547
:1009B000F9F0823E910549F10895863E9105A9F12D
:1009C000873E9105C9F1843E910519F52091F90200
:1009D00021FF1FC08091F80284FD14C087EE90E0D3
:1009E00008952091F8022370A1F080EE90E0089520
:1009F0002091F80220FD47C03091F90230FF09C074
:100A000024FF44C090E080E004C02091F80222FD61
:100A1000F7CF08952091F80222FD3BC03091F902F2
:100A200030FDE3CF24FFF5CFEDCF2091F80223FF77
:100A3000F0CF24FDE7CFD2CF2091F80223FD2CC0C8
:100A40003091F90231FFEECF84EE90E008952091CD
:100A5000F80225FFDECF89E290E008952091F802A8
:100A600025FFD7CF85E390E008952091F80226FF77
:100A7000D0CF8AE290E008952091F80226FFC9CFF6
:100A800081E390E0089589E390E0089583EE90E09B
:100A9000089582EE90E0089586EE90E0089590919A
:100AA000F80292FF06C0282F28712830F9F4877FBA
:100AB000846093FF06C0282F28712831F1F4877EC7
:100AC00084612091F90220FF06C0382F3871383038
:100AD000D9F4877F816021FF06C0282F2871283133
:100AE000D1F4877E816194FD877E0895282F24713B
:100AF0002430F9F68B7F8860DCCF282F24712431D5
:100B000001F78B7E8861DDCF382F3171313019F7D5
:100B10008E7F8860E0CF282F2171213121F78E7ED2
:100B20008861E1CF08950C94920508950C94950581
:100B3000E82FF0E0E252FD4F80810895089580EAA9
:100B40008A95F1F7089500C008950C949F05F894D4
:100B5000E82FE295EF70F0E031A1282F2F7081E0AF
:100B600090E001C0880F2A95EAF7982F909593237B
:100B700091A392A1892B82A37894089508950F934D
:100B80001F93CF93DF930E944807809100018091CB
:100B9000000196E0811190E09093EB0286E0891BC2
:100BA0008093EA0285E30E94A70584E30E94A705DB
:100BB00087E90E94A70586EF0E94A70586E60E94A6
:100BC000A70584E90E94A705C5E5D1E00CE511E081
:100BD00089910E94A7050C171D07D1F7E2EDF2E0FD
:100BE000AEEDB2E011921D9282E0EE3DF807D1F732
:100BF00086E00E94F5060E946603DF91CF911F9167
:100C00000F910C945207FF920F931F93CF93DF9392
:100C100000D000D000D0CDB7DEB70E942C07F82E50
:100C20006091EB02882309F451C08E010F5F1F4FC2
:100C300086E0F80111928A95E9F7862F90E0B801D5
:100C400082529D4F0E94560D811123C08091BB019D
:100C50008F5F8093BB018630B8F1E091EA02F0E04B
:100C6000E252FD4FD801CE01079611921D92A817AE
:100C7000B907D9F70E946E038F2D26960FB6F89408
:100C8000DEBF0FBECDBFDF91CF911F910F91FF90BF
:100C900008951092BB01A091EA02B0E0A252BD4FAC
:100CA0009E01295F3F4FF12C4D91F80191918F01E9
:100CB000491731F0AD0141505109FA019083F82EE6
:100CC0000217130789F7D6CFF12CD4CF70E0625208
:100CD0007D4F8091EA0290E082529D4F0E94810DEB
:100CE0000E94BE05C9CFCF92DF92EF92FF920F9381
:100CF0001F93CF93DF930CE511E082EDE82E82E0A5
:100D0000F82EC0E0CC24C394D12CF80181918F013E
:100D1000F894E82FE295EF70F0E021A18F70A60122
:100D200002C0440F551F8A95E2F7CA01922F982BF3
:100D300091A392A18095892382A378940E94A30510
:100D4000E5E5F1E030E020E0D0E04191A42FA2956C
:100D5000AF70B0E090968C9190E04F7002C0959586
:100D600087954A95E2F780FD3CC08C2D022E01C08C
:100D7000880F0A94EAF7D82B2F5F3F4F27303105B1
:100D800021F7F801319780810E94A7050E94A505EF
:100D9000F7018081D81739F1D08381E0C82BFFEFAC
:100DA000EF1AFF0A41E00236140709F0AECF609156
:100DB000EB0270E062527D4F2C2F46E082ED92E014
:100DC0000E94F6060E940306C11101C0C82F8C2F95
:100DD000DF91CF911F910F91FF90EF90DF90CF9017
:100DE000089580E0C8CF80E0D9CF0895FF920F9397
:100DF0001F93CF93DF93F82E092F162FD72FC42FD1
:100E0000222349F081E08093BE010E9491199093C2
:100E1000BD018093BC018091BE018823A1F0809127
:100E2000BC019091BD010E94A919069760F0EF2DB9
:100E3000F02FA12FBD2FCE0FDF2FD11DEC17FD07F7
:100E400041F41092BE01DF91CF911F910F91FF905D
:100E5000089581918D93F2CF8091BF01811111C0CE
:100E60008091D80080618093D8008AE18A95F1F75B
:100E700000C09091D900892F817090FF82E080930B
:100E8000BF0181E09091BF01913009F080E00895A9
:100E90000E94EE02809300010E942C0781110C94A5
:100EA0004A0D08950E942C07811102C00C94500D28
:100EB000089584E08093EC028FE78093ED028091A7
:100EC000EE02807880648093EE02E4ECF1E08FEF34
:100ED000819392E0EC30F907D9F71092C301109298
:100EE000C2011092C1011092C00108959091EC02CC
:100EF000292F2F7095959595959595959F523CE046
:100F0000239F900D1124890F0895FF920F931F9333
:100F1000CF93DF93FB018F3A2CE5920708F085C051
:100F20008F394CE5940708F08DC180392CE5920784
:100F300050F583384CE5940708F040C181382CE522
:100F4000920760F487374CE5940708F01FC18F3291
:100F50002CE5920708F0DFC0C1E011C181384CE5F3
:100F6000940709F420C182389C45B1F78281882317
:100F700009F4EBC08091EC02982F9F70993008F033
:100F8000E4C09F5F19C18D394CE59407A0F5823903
:100F90002CE5920708F02FC180394CE5940709F43D
:100FA00018C181399C45C1F68281882309F4CDC0DE
:100FB0002091EC02822F85958595859585958630C3
:100FC0000CF0C3C091E0980F9295907F9595959500
:100FD00095959595392F3295307F2F70232B20933F
:100FE000EC0218160CF0B1C097FFAFC08295807F5D
:100FF000922F9F70D4C08D394CE5940709F409C134
:101000008E399C4509F0A8CF8281882309F49DC0C0
:101010008091ED02982F9F779F3709F496C0933700
:1010200008F00EC1935F9F77F2C0853B4CE59407B3
:1010300009F466C1C8F5813B4CE5940709F432C157
:10104000D8F48F3A4CE5940709F40EC1803B9C45D7
:1010500009F082CF8281882309F477C02091ED02C4
:10106000322F331F3327331F9091EE02892F877061
:10107000880F832B8F5F09C16091ED023091EE02E2
:101080002281833B4CE5940709F42EC108F420C16A
:1010900021112FE7862F881F8827881F632F6770ED
:1010A000660F682B42E40FC1883B2CE5920709F4D8
:1010B0003AC180F4863B2CE5920709F421C1873BB5
:1010C0009C4509F049CF828181112BC18FEF80931C
:1010D000C2013BC08A3B2CE5920709F45AC108F4CF
:1010E00043C18B3B9C4509F037CFC2816091ED0233
:1010F000862F881F8827881F6091EE026770660F11
:10110000682BCC2309F455C14FEF5FE18AEF92E0E1
:101110000E94B21A1AC02091ED02322F331F3327DA
:10112000331FD091EE02D770DD0FD32BF22EE8944F
:10113000F7F8C28101ED080F10E00C531E4FF801C3
:101140004081CC2389F04F3F11F0C0E018C00E94CD
:101150007607C82F2F2D482F6D2F8AEF92E00E941F
:10116000921AF801C083F1CF4F3F31F02F2D6D2F30
:101170008AEF92E00E94A21A8FEFF80180838C2FF1
:10118000DF91CF911F910F91FF900895228122232B
:10119000E1F28757982F9F708091EC02807F892B16
:1011A0008093EC02D2CF8281882379F28091EC0285
:1011B000982F9F7051F2915F9F70F0CF2281222370
:1011C00021F28958982F9295907F8091EC028F7030
:1011D000E6CF8281882309F4B8CF8091EC02982F62
:1011E00095959595959595959B3F0CF4AECF915F10
:1011F0009295907FECCF2281222309F4A6CF8259C9
:101200009CE0899F902D11249F778091ED0280783A
:1012100015C08281882309F498CF8091ED02982F20
:101220009F7709F492CF80789F3721F48567809368
:10123000ED028BCF9D30D8F39D509F77892BF7CF50
:101240008F67F5CF2281222309F47FCF8F599091A8
:10125000ED0280FB97F99093ED028695877090914F
:10126000EE02987F892B7DC08281882309F46DCF9F
:101270002091ED02322F331F3327331F9091EE025E
:10128000892F8770880F832B815F382F3F7080FBF9
:1012900027F92093ED02832F8695987F982B9093C2
:1012A000EE0253CF8281882309F44FCF6091ED0283
:1012B000862F881F8827881F6091EE026770660F4F
:1012C000682B20E04BE78AEF92E00E94821A3DCF24
:1012D00021112FE7862F881F8827881F632F6770AB
:1012E000660F682B40E4EFCF21112FE7862F881F70
:1012F0008827881F632F6770660F682B41E4E3CF50
:10130000828120E081112FE76091ED02862F881FF6
:101310008827881F6091EE026770660F682B43E490
:10132000D2CF81E0D4CE8281882309F40ECF909170
:10133000EE02292F2695269526952F7081E0820FA3
:101340008F70880F880F880F9778892B8093EE0213
:10135000982F987709F0F9CE220F220F220F877865
:10136000822B8093EE02F1CE8281882309F4EDCEA8
:101370008091EE02982F987709F4E7CE982F9695F2
:1013800096959695915F9F70990F990F990F877811
:1013900069CFC2816091ED02862F881F8827881F40
:1013A0006091EE026770660F682B40E050EEC1114D
:1013B000ADCE50E040E08AEF92E00E94B21ADFCE5C
:1013C0008AEF92E00E94B41C8091C0019091C1010B
:1013D0000E94A9192091EE022695269526952F7038
:1013E0002817190609F0A0F50E9491199093C101E0
:1013F0008093C0018091C201882351F16091ED0278
:10140000862F881F8827881F6091EE026770660FFD
:10141000682B2091C30141E08AEF92E00E94821A7A
:101420008091C2019091C30187FF0DC0482F5527BD
:1014300041950CF45095941715062CF41092C301A5
:101440001092C2010895890F87FD03C08093C301E4
:1014500008958FE7FBCF0C940C038091000181115C
:1014600006C085EF8093020184EF809301012091F3
:101470000201A22FA295AF70B0E091963C91919796
:101480002F7081E090E0BC01022E01C0660F0A942B
:10149000EAF7462F4095432391964C939197929665
:1014A0003C919297362B92963C93929740910101F2
:1014B000E42FE295EF70F0E031A14F70042E01C0EF
:1014C000880F0A94EAF7982F9095932391A392A1FD
:1014D000892B82A390968C9190E002C09595879578
:1014E0002A95E2F7817020A130E002C0359527955A
:1014F0004A95E2F792E020FF90E0892B8093110259
:101500009091000181E0982790930D02891B8093B0
:101510000C020895CF93E0911102EE0FEE0F20918F
:101520000201A22FA295AF70B0E090968C9190E04E
:101530002F7002C0959587952A95E2F781709927BB
:1015400040910101A42FA295AF70B0E090962C912C
:1015500030E04F7002C0359527954A95E2F7A90112
:101560004170552720FF02C042E050E0842BE82B59
:10157000E0931102C0910D02EF70F0E0E859FE4FC8
:10158000808190911002890F8093100220E08430B6
:1015900074F0EC2F0C2E000CFF0BE25FFD4F8081EE
:1015A0008F5F808360E08C2F0E942B0A21E0809166
:1015B00010028D3F74F4EC2F0C2E000CFF0BE25F39
:1015C000FD4F80818150808361E08C2F0E942B0A27
:1015D00021E080911002082E000C990B64E070E06D
:1015E0000E94782580931002822FCF910895E09178
:1015F0000D02F0E0E25FFD4F2081FC0120830895A1
:10160000FF920F931F93CF93DF93D0910C020D2F76
:1016100010E0025F1D4FFC01C081F8018081C81BF2
:10162000FC2E80E01F147CF09C2FC7FD90E0C91BAE
:10163000C11114C08823E9F0DF91CF911F910F9160
:10164000FF900C944C0FFA94F80180818F5F808397
:1016500060E08D2F0E942B0A81E0E4CFCF5FF8017C
:1016600080818150808361E08D2F0E942B0A81E070
:10167000DFCFDF91CF911F910F91FF9008950F93CE
:101680001F93CF93DF93C42FD22FFC018281882335
:10169000C9F0409314020E94911990931302809311
:1016A000120280E28C0F883008F050C0C77081E0D1
:1016B00001C0880FCA95EAF7DF91CF911F910F9172
:1016C0000C94F11010911402141335C08091120281
:1016D000909113020E94A919883C910560F5C0E21F
:1016E000CD0F1D17B9F080E2810F883040F41770DC
:1016F00081E001C0880F1A95EAF70E94F810C830FF
:1017000048F481E09D2F977001C0880F9A95EAF701
:101710000E94F110802F0E94E910C830B8F4D770F1
:1017200081E001C0880FDA95EAF7DF91CF911F9130
:101730000F910C94F81080E28C0F883038F4C77049
:1017400081E001C0880FCA95EAF7EFCFDF91CF9112
:101750001F910F9108950F939C01CB01243F4CE5FD
:10176000340759F1A8F4293DFCE53F0701F12A3D72
:101770004CE53407D1F1283D3C4591F406E221EED9
:1017800041EE68ED7CE50E943F0B80E00F910895EB
:10179000263FFCE53F07E9F0B0F0273F3C45F9F074
:1017A000FC018281882339F110921402EFCF07E205
:1017B00025EE45EE69ED7CE5E6CF06E221EE40EE52
:1017C00064EF7CE5E0CF07E225EE44EE65EF7CE5D3
:1017D000DACF06E221EE42EE66EF7CE5D4CF07E2F7
:1017E00025EE46EE67EF7CE5CECF08E221E045EE40
:1017F0006AED7CE5C8CF81E0C9CFCF93DF93EC01E0
:10180000FB018281882309F419C1C230FCE5DF079E
:10181000C0F1C6319CE5D90730F09E012B5F3C45F5
:101820002930310570F50E9436189093F9028093A3
:10183000F802C031ECE5DE0709F4CFC008F05BC068
:10184000C8308CE5D80709F4B6C088F5C430ECE59B
:10185000DE0709F4A8C0C0F4C2308CE5D80709F44B
:101860009CC08091F8028260C330DC4509F498C0C6
:101870008091F8029091F9020E9444180E94E612A9
:1018800080E0DF91CF9108958091F8028061C630A9
:10189000ECE5DE0709F484C08091F8028860C73067
:1018A000DC4508F47DC08091F802806279C0CC30BC
:1018B0008CE5D80709F489C070F48091F8028C6037
:1018C000CA30ECE5DE0709F46BC008F478C08091FB
:1018D000F8028E7F65C0CE308CE5D80709F479C058
:1018E0008091F8028B7FCF30DC4508F459C080919D
:1018F000F8028F7E55C0CC3FECE5DE0709F457C0F7
:1019000030F5C3318CE5D80709F46FC078F4C131E4
:10191000ECE5DE0709F465C0C231DC4509F0A8CF6B
:101920000E94E6128091F8028F773AC0C5318CE5AB
:10193000D80709F462C008F476C08091F90281608A
:10194000CB3FDC4509F094CF8093F90291CFC115CC
:10195000FDE5DF0709F44DC088F48091F9028D7F21
:10196000CE3F9CE5D90781F38091F9028E7FCF3F6E
:10197000DC4550F38091F9028360E6CFC230FDE58B
:10198000DF0709F459C008F444C080E0C330DD45E6
:1019900009F06ECF0E94C9186BCF8091F802816068
:1019A0008093F80265CF8091F8028460F9CF80912E
:1019B000F9028260C9CF8091F8028064F1CF0E9461
:1019C000E6128091F8028068EBCF8091F8028D7F5B
:1019D000E7CF8091F802877FE3CF8091F8028F7D77
:1019E000DFCF8091F8028F7BDBCF8091F802837F7D
:1019F000D7CF8091F9028C7FA7CF8091F80282FB2C
:101A0000992790F921E0922790FB82F990FB83F9C6
:101A1000C7CF8091F902982F909591708E7F892B76
:101A200090FB81F991CF0E94E6129091F802892FE4
:101A300097FB87F98058B4CF81E0ACCF81E021CF0C
:101A4000CF93DF93EB0186319C4511F50E94FB1784
:101A50009A81992399F08A7A91E009F490E0909321
:101A60001502811109C089E20E94C8170E94DC1783
:101A700080E0DF91CF91089585E3F6CF8091150244
:101A8000811104C089E20E94CF17F0CF85E3FBCF1C
:101A900081E0EFCF61E070E083E091E00C94030E11
:101AA00061E070E083E091E00C940A0ECF93DF9345
:101AB000D62FC72F0E94A40E009709F5ED2FFC2FFB
:101AC000DC01A55EBD4F2C912193019686309105D6
:101AD000B9F781E292E00E94000B0E94021A6E5F49
:101AE0007F4F8F4F9F4F6093170270931802809320
:101AF000190290931A0281E0DF91CF91089580E05E
:101B0000FBCFCF93DF93D62FC72F60911702709131
:101B100018028091190290911A020E94E519ED2F86
:101B2000FC2F90E080E02191DC01A55EBD4F2C935D
:101B3000019686309105B9F781E292E0DF91CF916D
:101B40000C94F70A8EE14A9B02C08150E1F74A9B50
:101B5000FECF08955A9880E28A95F1F75A9A08952F
:101B6000FC013BE03A95F1F798E020E080E031E0BD
:101B700040E14A95F1F7880F4A9B02C08160232714
:101B800042E04A95F1F7000040E14A95F1F79150A3
:101B900079F790E19A95F1F799B132E03A95F1F73A
:101BA000000040E14A95F1F792FB992790F99227BE
:101BB0002081920F90830895EF92FF920F931F93CD
:101BC000CF93DF930F92CDB7DEB719828C017C01E2
:101BD000E60EF11C0E151F0561F481E0998191114B
:101BE00080E00F90DF91CF911F910F91FF90EF90C8
:101BF00008950E94A20DCE0101960E94B00DF80139
:101C000081938F01E7CF9093230280932202529A0F
:101C10005A9A0895909323028093220252985A9AD6
:101C2000EA9AE9E6F0E080818F7C80830895615034
:101C3000770B91E001C0990F6A95EAF720E031E057
:101C4000911108C0222391F05A9A80E28A95F1F707
:101C50005A980895492F482339F05A9A232740E289
:101C60004A95F1F79695ECCF5A98F9CF5A98EDCF5F
:101C7000FF920F931F93CF93DF93EC018C01060F1C
:101C8000111DC017D10731F4DF91CF911F910F9132
:101C9000FF900895F9900E94AA0D68E08F2D0E9490
:101CA000170EEFCF1F920F920FB60F9211242F93A2
:101CB0003F934F935F936F937F938F939F93AF93D4
:101CC000BF93CF93DF93EF93FF935A98529AC091AB
:101CD0002202D09123026D81662321F08E819F81A3
:101CE0000E94380E0E94AA0D80E18A95F1F75A9859
:101CF00052985A9A80E18A95F1F76A81662309F130
:101D00008B819C810E94DC0DE881F981882311F090
:101D100088E001C082E080830E94A20DFF91EF91D4
:101D2000DF91CF91BF91AF919F918F917F916F91F3
:101D30005F914F913F912F910F900FBE0F901F9089
:101D40001895E881F981E4CFCF93DF93C091220207
:101D5000D0912302F894529A5A9885E08A95F1F727
:101D6000000052985A9A80E28A95F1F74A9B0CC07B
:101D7000529A5A9AE881F98181E08083789481E0CF
:101D800090E0DF91CF9108956D81662381F08E817F
:101D90009F810E94DC0D81110AC0529A5A9AE881F3
:101DA000F98182E08083789482E090E0EACF0E941B
:101DB000A20D80E28A95F1F75A98529A80E18A95AD
:101DC000F1F76A81662321F08B819C810E94380E95
:101DD0000E94AA0DE881F9811082789490E080E059
:101DE000D0CF90932902809328020895E091280291
:101DF000F0912902309721F00190F081E02D0994B3
:101E000080E00895E0912802F0912902309721F0B6
:101E10000280F381E02D09940895209126023091EB
:101E200027022817390771F0909327028093260222
:101E3000E0912802F0912902309721F00680F78185
:101E4000E02D09940895209124023091250228174D
:101E5000390771F09093250280932402E0912802C3
:101E6000F0912902309721F00084F185E02D09944A
:101E700008950E949D1960933F02709340028093E1
:101E800041029093420260933B0270933C02809324
:101E90003D0290933E0208950E949D1960933F0277
:101EA0007093400280934102909342026093370204
:101EB000709338028093390290933A02089585B75F
:101EC000806885BF85B7806885BF089508950895A7
:101ED0000C94660F0C94FF020E945F0F81E298E160
:101EE0000E942E1A0E94670F0C94680F0C942C0706
:101EF000089508950E9488190E94DC190E94BF0568
:101F00000E94331A0E942D0A0C946A0FAF92BF925E
:101F1000CF92DF92EF92FF920F931F93CF93DF93B5
:101F2000CDB7DEB72A970FB6F894DEBF0FBECDBF90
:101F30000E94780F0E94790F0E94730681110E94FF
:101F4000390F8BE2A82E82E0B82E10E000E0C02E00
:101F5000802F0E949805E82EF501F1905F01F81698
:101F600009F453C08091C60281FD0E949E058F2D09
:101F70008E25D12CFF24F394982F9F2109F440C083
:101F80000E94760F882399F0DE82CF82EF2081E0D5
:101F900009F480E088870E9491198160782F9A87E0
:101FA00089874E815F8168858A850E942D10F8019E
:101FB000E55DFD4F8081F826F0820E948A0A81113A
:101FC0000E944C0F0E94E0090E94F60E90912A0296
:101FD000891791F10E94F60E80932A022A960FB675
:101FE000F894DEBF0FBECDBFDF91CF911F910F914F
:101FF000FF90EF90DF90CF90BF90AF900C94C9030B
:10200000D394FF0CF7E0DF12B7CF0F5F1F4F0C30F8
:10201000110509F09CCF8FEF89838A831B820E9470
:1020200091198160782F9D838C8349815A816B81BE
:102030008D810E942D10C1CF2A960FB6F894DEBF75
:102040000FBECDBFDF91CF911F910F91FF90EF9009
:10205000DF90CF90BF90AF900895DF92EF92FF9204
:102060000F931F93CF93DF93CDB7DEB72B970FB6A8
:10207000F894DEBF0FBECDBF7A878B87F42E052F75
:10208000162FE72ED82E61110E941B181E821D826A
:102090007E2DEC82DD824F2D502F612F8D2D9E8164
:1020A0002B960FB6F894DEBF0FBECDBFDF91CF9158
:1020B0001F910F91FF90EF90DF900C945C15FC0145
:1020C000808191810C949A17CF93C82F882309F4AB
:1020D0003FC08CEF8C0F813AA0F46C2F80910B01E4
:1020E00090910C010E94CE18882329F08C2F0E9419
:1020F000CF170E94DC178C2F0E94C817CF910C9429
:10210000DC1780E28C0F883048F4C77081E001C092
:10211000880FCA95EAF70E94FE17F0CFEBE5EC0FA7
:10212000E33040F4F0E0EA55FE4F808190E0CF913B
:102130000C940D0FC85AC73158F4EC2FF0E0EE0F95
:10214000FF1FE858FE4F80819181CF910C94230F9F
:10215000CF910895882329F19CEF980F913A20F4AC
:102160000E94CF170C94DC1790E2980F983050F42F
:10217000877091E001C0990F8A95EAF7892F0E9434
:102180000418F0CF9BE5980F933020F490E080E0A6
:102190000C940D0F885A873120F490E080E00C9465
:1021A000230F08951F93CF93DF93182FEB010E9405
:1021B0006410209731F4812FDF91CF911F910C94FF
:1021C000AA108FE99FE00197F1F700C00000219766
:1021D000F0CF6AE070E0893311F460E570E00C94B0
:1021E000D210882321F00E94FE170C94DC1708956A
:1021F000882321F00E9404180C94DC170895CF92D4
:10220000DF92EF92FF920F931F93CF93DF93DC0146
:10221000C62F972F12962C91129715964C911597C1
:10222000342F32953F70872F82958F70082F10E0E2
:102230008C3090F5F801EA52FA4D0C948C25D72F8A
:10224000DF70907F11F0D295D07F2223A9F0DD239B
:1022500059F080E28C0F883010F0C11109C08D2F29
:102260000E94FE170E94DC178C2F0E94641014C07D
:102270008D2F0E940E18F6CF8C2F0E94AA10DD23FE
:1022800059F080E28C0F883010F0C11117C08D2FEB
:102290000E9404180E94DC1708501109043011052F
:1022A00008F046C10E94F60EDF91CF911F910F9169
:1022B000FF90EF90DF90CF900C94C9038D2F0E9478
:1022C0001418E8CF872F8F70907F903211F082958D
:1022D000807FC13061F4222329F03630E8F60E9475
:1022E000F110DACF3530C0F60E94F810D5CF222396
:1022F00041F03323A1F340FFB7CF4F7015964C93B5
:10230000EECF332389F3C93309F00AC12FEF87EEEB
:1023100093E0215080409040E1F700C000008C2FF6
:102320000E94AA10B9CF872F86958695837061F099
:10233000813009F0B1CF862F9370211102C090E057
:1023400080E00E94230FA8CF862F9370211102C036
:1023500090E080E00E940D0F9FCF872F837009F0DF
:1023600044C0211199CF862F829586958770880F5A
:10237000880F6F70C62ED12CF12CE12C082E04C0D2
:10238000CC0CDD1CEE1CFF1C0A94D2F740E050E0A0
:10239000BA01C4FF0FC04FE050E060E070E004C03D
:1023A000440F551F661F771F8A95D2F740955095A9
:1023B00060957095292F269526952370CB01BA013B
:1023C0006C297D298E299F29223049F058F421302B
:1023D00019F00E941A1660CF0E9408165DCF0E9465
:1023E0002C165ACF0E94061657CF8695222311F03D
:1023F000872F8170882309F44FCF8C2F8295869583
:102400008770880F880F6C2F6F70C62ED12CF12C1F
:10241000E12C082E04C0CC0CDD1CEE1CFF1C0A9421
:10242000D2F740E050E0BA01C4FF0FC04FE050E0E7
:1024300060E070E004C0440F551F661F771F8A9547
:10244000D2F74095509560957095292F2695269541
:102450002370CB01BA016C297D298E299F29223056
:1024600049F058F4213019F00E94DF1615CF0E9470
:10247000CD1612CF0E94F1160FCF0E9442160CCF3C
:10248000D72FDF70222329F08D2F0E9468168C2F02
:1024900026CF862F0E94F8108D2F0E948916FCCE21
:1024A000613F19F148F4603F91F0222369F1311145
:1024B000DBCE892F8F711DC0623FF1F0633FA9F71A
:1024C0002223F9F0872F8F710E945316E5CE222325
:1024D00041F0353008F0E0CE892F8F710E94AC16A4
:1024E000DBCE363008F0D8CEF7CF872F8F7122237E
:1024F000A1F20E946816D0CE872F8F712223C9F3D4
:10250000CCCF0E944E16C8CE332379F0C93341F4A4
:102510009FEF27EE83E0915020408040E1F7FDCE11
:102520008FE39CE90197F1F7F8CE892F8F71B5CF32
:10253000DF91CF911F910F91FF90EF90DF90CF909F
:1025400008950F931F93CF93DF93EC0168817981F6
:102550008A810E94A4178C010E9403170E9405160D
:10256000B801CE01DF91CF911F910F910C94FF1014
:10257000CF93DF93EC018B819C81892B29F088819B
:10258000998189238F3F19F4DF91CF910895CE016E
:102590000E9480038823C1F3CE010E94A112CE01C4
:1025A000DF91CF910C945B0390E080E00E940D0FCF
:1025B00090E080E00E94230F0E941B180E941E18CA
:1025C0000C94DC170E94D6170C94D4120E940B189E
:1025D0000C94E212E92FE295EF70E250EE3070F4C5
:1025E000F0E0EE51FA4D0C948C25803F19F020F468
:1025F000883E20F481E00895843FE1F380E008956F
:10260000883EC0F3813FD1F7F5CF93FB882780F94F
:1026100008950E949A170C94EA12CF93DF9300D08A
:1026200000D00F92CDB7DEB70F900F900F900F90A4
:102630000F90DF91CF910895CF93DF9300D000D01A
:1026400000D0CDB7DEB726960FB6F894DEBF0FBE2A
:10265000CDBFDF91CF9108951F93CF93DF93C091AA
:10266000440216E0809145028C1304C0DF91CF91A3
:102670001F910895D0E01C9FF0011D9FF00D1124C3
:10268000EA5BFD4F40815181628173818481958134
:102690000E941C132196C770E5CF4091760250919D
:1026A0007702609178027091790280917A0290911C
:1026B0007B020C941C131F93CF93DF9380917B02BA
:1026C000807FA9F480917802882389F08091440268
:1026D000C09145026091760270917702A0917902D3
:1026E000B0917A02D62FD72316E0C81304C0DF9129
:1026F000CF911F91089590E0109711F0DF3F19F4EA
:1027000001968770F2CF189F9001199F300D112408
:10271000F901EA5BFD4F41814713F2CF4081461337
:10272000EFCF42814111ECCF438154814A1B5B0BB7
:10273000483C510528F780917B028F70806180931F
:102740007B02F901E55BFD4F80818F7080618083A2
:1027500086E792E00E94B812DF91CF911F910C940E
:102760002C13AF92BF92CF92DF92EF92FF920F9312
:102770001F93CF93DF93CDB7DEB761970FB6F89471
:10278000DEBF0FBECDBF8C0185E0F801DE011D96D6
:1027900001900D928A95E1F7F80140815181E28024
:1027A00086E7C82E82E0D82E6091790270917A0275
:1027B0006115710509F461C190917602209177024B
:1027C000892F82238F3F09F458C1A380B480F090F1
:1027D0007802F501E61BF70BFF2009F4FCC080919D
:1027E0007B02382F307FE83CF10508F0B2C0311190
:1027F00079C0FE2C251323C0941321C0E1101FC003
:102800008F70806180937B020E944D13C6010E94ED
:10281000B81280917B02F80185838F2D61960FB6E7
:10282000F894DEBF0FBECDBFDF91CF911F910F9106
:10283000FF90EF90DF90CF90BF90AF900895AB28BE
:1028400029F0842F85238F3F09F033C180E0F82FD2
:10285000F170DF2E80FF3CC0809144022091450240
:1028600036E0821315C04D875E878D859E850E9458
:102870009A17292F22952F702230F0F0243018F566
:102880009F70F1F0F8019581907FD1F4D12C1EC09A
:1028900090E0389FF001399FF00D1124EA5BFD4F65
:1028A0006181651306C06081641303C062816E118B
:1028B0000FC001968770D5CF9F7011F0882331F338
:1028C000805E883018F3C8010E94B812FD2CA5CF95
:1028D000EE2009F4A2CF80917B02816080937B027D
:1028E000F12C9BCF251306C0941304C0F801EE20F1
:1028F00009F48DC04D875E878D859E850E940913E2
:10290000882319F1EE2009F180917B02803270F06A
:10291000209176023091770238872F831986BB8603
:10292000AA868C87CE0107960E94B81286E0F8012D
:10293000A6E7B2E001900D928A95E1F70E945B1341
:102940000E944D13FF24F39468CFC8010E94B8126F
:10295000F9CF311113C07A2DB98AA88A6E2D8989D1
:102960000E940D1386E792E00E94B81286E0F601FD
:1029700011928A95E9F70E944D13B2CF25130FC02B
:1029800094130DC0E1100BC0F8018583C8010E94AB
:10299000B81286E0F60111928A95E9F73ECF4D878D
:1029A0005E878D859E850E940913882371F2EE2033
:1029B00061F280917B02803208F4B8CF20917602D8
:1029C000309177023A8329831B82BD82AC828E8349
:1029D000CE010196A9CFE83CF10508F041C0FE2CDC
:1029E000EE2009F4B2CF25132AC0941328C0809199
:1029F0007B0280FD1BC0982F907FC1F0F80185837A
:102A0000903F31F0982F907F905F8F70892B858356
:102A1000C8010E94B81286E0F801A6E7B2E0019072
:102A20000D928A95E1F70E944D13F7CE86E0F801EA
:102A3000A6E7B2E001900D928A95E1F7EECE4D87C0
:102A40005E878D859E850E94091381116FCF8091CD
:102A50007B02816080937B02C8010E94B812DDCEA8
:102A60007A2DB98AA88A6E2D89890E940D1386E075
:102A7000F60111928A95E9F7D6CFEE2009F465CFD9
:102A80004D875E878D859E850E940913F82E8823C9
:102A900009F45BCF86E0F801A6E7B2E001900D9261
:102AA0008A95E1F786E792E00E945F100E945B132F
:102AB000BACF81E08E25CBCE1F93CF93DF93CDB7D6
:102AC000DEB72C970FB6F894DEBF0FBECDBF4F8395
:102AD000588769877A878B879C87CE0107960E94E3
:102AE000B113882369F08A859B85892B39F04F8142
:102AF0005885842F85238F3F09F071C016E05FC091
:102B000086E0FE013796DE01119601900D928A95BE
:102B1000E1F78A859B85892B89F38F8198858923A5
:102B20008F3F61F32091450230E0C9010196877023
:102B30009927409144024817190671F40E94E61241
:102B4000109245021092440286E0E6E7F2E0DF01CF
:102B50001D928A95E9F7D2CF96E0929FD001939F7C
:102B6000B00D1124AA5BBD4FFE01319601900D926C
:102B70009A95E1F7809345020E942C13BFCF819F65
:102B8000C00111248A5B9D4F0E94B1138823E9F094
:102B9000E09144021E9FF0011124EA5BFD4F408149
:102BA000518162817381848195810E941C1380917F
:102BB000440290E0019687709927809344028091A7
:102BC0004402909145028913DACF2C960FB6F894FF
:102BD000DEBF0FBECDBFDF91CF911F9108956985F4
:102BE0007A858B859C850E941C1388CF08950C9450
:102BF000F6150E94F7156093B7027093B8028093A0
:102C0000B9029093BA020C94D41208950C94F91559
:102C10000F931F930091B7021091B8022091B9024F
:102C20003091BA02602B712B822B932B1F910F9145
:102C30000C94F9150F931F930091B7021091B802ED
:102C40002091B9023091BA02602371238223932329
:102C50001F910F910C94F9150F931F930091B702D8
:102C60001091B8022091B9023091BA026027712701
:102C7000822793271F910F910C94F9150C94F61548
:102C80000C943E160E9440166093B3027093B402F7
:102C90008093B5029093B6020C94D41260E070E079
:102CA000CB010C9442160F931F9341E050E060E07B
:102CB00070E08A019B0104C0000F111F221F331F07
:102CC0008A95D2F7C901B8011F910F910C94421651
:102CD0000F931F9341E050E060E070E004C0440FA8
:102CE000551F661F771F8A95D2F78091B302909186
:102CF000B402A091B502B091B6028A019B01082BE3
:102D0000192B2A2B3B2BC901B8011F910F910C9451
:102D100042160F931F9341E050E060E070E004C062
:102D2000440F551F661F771F8A95D2F7CB01BA0152
:102D300060957095809590950091B3021091B402C2
:102D40002091B5023091B602602371238223932330
:102D50001F910F910C9442160F931F9341E050E086
:102D600060E070E004C0440F551F661F771F8A950E
:102D7000D2F78091B3029091B402A091B502B091C4
:102D8000B6028A019B01082719272A273B27C90178
:102D9000B8011F910F910C9442160F931F9300914D
:102DA000B3021091B4022091B5023091B602602BAB
:102DB000712B822B932B1F910F910C9442160F9322
:102DC0001F930091B3021091B4022091B50230918B
:102DD000B60260237123822393231F910F910C94D9
:102DE00042160F931F930091B3021091B4022091E9
:102DF000B5023091B60260277127822793271F9171
:102E00000F910C944216089527E0929F800D112493
:102E1000982F977041E001C0440F9A95EAF7869584
:102E20008695869595E0899FF0011124E458FD4F21
:102E300090E080E070E05191DF0111979B01082E36
:102E400002C0369527950A94E2F72170219525272F
:102E5000242325272C9301968530910561F7089549
:102E600027E0929F800D1124982F97708695869564
:102E7000869525E0829FF0011124E458FD4F50E033
:102E800040E080E0219130E0092E02C03695279580
:102E90000A94E2F721703327042E01C0220F0A940E
:102EA000EAF7822B4F5F5F4F4530510559F7089580
:102EB000BF92CF92DF92EF92FF920F931F93CF9327
:102EC000DF938C01C090B302D090B402E090B502C1
:102ED000F090B6028091B7029091B802A091B90229
:102EE000B091BA02C82AD92AEA2AFB2ACFE1D0E057
:102EF000BC2ED701C6010C2E04C0B695A795979598
:102F000087950A94D2F780FD0EC0219788F7B12CDF
:102F10008B2DDF91CF911F910F91FF90EF90DF905C
:102F2000CF90BF900895B8018C2F0E94E5030197C0
:102F300061F3EECFCF93DF93EC010E945817BE01EF
:102F4000DF91CF910C94E5031F93CF93DF93EB01B7
:102F500090914302992331F0CB01DF91CF911F91E2
:102F60000C949A17882379F0CB010E945817182FD8
:102F7000682FCE010E940417BE01812FDF91CF91EF
:102F80001F910C94E503CB010E943017182FF4CF4A
:102F9000682F80910B0190910C010C940419682FFB
:102FA00080910B0190910C010C94061980910B01FA
:102FB00090910C010C940819E0910B01F0910C0117
:102FC0008091C5028083E0910B01F0910C0180811A
:102FD0009091C402892B8083E0910B01F0910C0148
:102FE00080819091C302892B808380910B01909105
:102FF0000C010C94020F8091C50208959091C502B6
:10300000892B8093C502089580959091C5029823DD
:103010009093C50208951092C50208959091C4023C
:10302000892B8093C402089580959091C4029823BF
:103030009093C40208951092C40208951092C3029E
:10304000089580E0089590E080E00E949A2521E0B4
:103050008B3E9E4F09F020E0822F089582E090E0A1
:103060000C94922583E090E00C949225CF9384E019
:1030700090E00E949225C82F81E290E00E94922564
:10308000982F8C2FCF910895CF93C92F682F84E06C
:1030900090E00E94A0256C2F81E290E0CF910C94EB
:1030A000A025AB01BC018FE090E00C94B225AB01F0
:1030B000BC0183E190E00C94B22560E070E0CB01AC
:1030C0000C94571860E070E0CB010E9451180C94EA
:1030D0005D186BEE7EEF90E080E00E94BE2560E020
:1030E00082E090E00E94A02560E083E090E00E94F2
:1030F000A0251092B7021092B8021092B902109255
:10310000BA0260E084E090E00E94A02560E081E2E5
:1031100090E00E94A02560E085E090E00E94A0255C
:1031200060E086E090E00E94A0256FEF87E090E0ED
:103130000E94A02540E050E0BA0188E090E00E94A3
:10314000B22560E08DE090E00E94A02540E050E0D4
:10315000BA0188E190E00E94B22560E087E190E04A
:103160000E94A02540E050E0BA018CE190E00E946E
:10317000B22560E080E290E00E94A02540E050E0AF
:10318000BA0188E190E00E94B2250C9462180C9478
:103190006918682F8EE090E00C94A025662349F012
:1031A000FC01329608962191261729F0E817F907B5
:1031B000D1F780E0089581E008959C01FC013296EA
:1031C0009FEF80E04191461751F09F3F19F4411164
:1031D00001C0982F8F5F8630A9F79F3F09F40895AB
:1031E000290F311D97FD3A95F90162830895FC017D
:1031F000329608962191261303C0DF0111971C9285
:10320000E817F907B9F708950C94DD180C94F7182E
:10321000029626E0FC0111922A95E9F70895089597
:1032200008950C9410198091EB03843049F10E94A9
:10323000111980E00E94C9031092C70288E190E052
:1032400020E40FB6F894A895809360000FBE2093F9
:10325000600083B7817F846083BF83B7816083BF51
:103260007894889583B78E7F83BF0FB6F894A8951E
:1032700080916000886180936000109260000FBEB2
:1032800008950895CF930E940F190E9473060E941B
:103290004119C0E08C2F0E949805811105C0CF5FB5
:1032A000CC30C1F7CF91089581E0FCCF08950C9404
:1032B00056190E94E6120E94F60E0E94C9030C9451
:1032C00057191F921FB61F9211248F939F93AF938C
:1032D000BF938091C702811113C08091F002909139
:1032E000F102A091F202B091F3024196A11DB11D2D
:1032F0008093F0029093F102A093F202B093F30254
:10330000BF91AF919F918F911F901FBE1F901895F5
:1033100082E084BD93E095BD9AEF97BD80936E00E7
:1033200008952FB7F8948091F0029091F102A09146
:10333000F202B091F3022FBF08952FB7F894609175
:10334000F0027091F1028091F2029091F3022FBF8E
:1033500008959C014FB7F8948091F0029091F1028A
:10336000A091F202B091F3024FBF821B930B08951C
:1033700078941F921FB61F9211248F939F93AF933F
:10338000BF938091F0029091F102A091F202B0916E
:10339000F3020196A11DB11D8093F0029093F102FA
:1033A000A093F202B093F302BF91AF919F918F91DE
:1033B0001F901FBE1F9018951092F4021092F502F4
:1033C0001092F6021092F7020895CF92DF92EF92D8
:1033D000FF926B017C010E942C0781110EC00E949C
:1033E0009D19C61AD70AE80AF90AC092F402D092C7
:1033F000F502E092F602F092F702FF90EF90DF9074
:10340000CF9008950F931F930E942C07882321F0DB
:103410001F910F910C949D190E949D190091F40227
:103420001091F5022091F6023091F702600F711FA2
:10343000821F931F1F910F91089587E797E790933D
:1034400001088093000888E19AE00FB6F894A895E7
:10345000809360000FBE90936000FFCF9093B901FE
:103460008093B80108950E942318811102C00E9420
:10347000C7180E942E188093C6020E943618909397
:10348000F9028093F8020E943218682F70E090E0F1
:1034900080E00E9406166091B3027091B4028091A0
:1034A000B5029091B6020C944016881F8827881F99
:1034B000089591E0883F08F490E0892F0895982FAF
:1034C000907F903BE9F040F49039D1F0903AC1F010
:1034D0009038B1F080E00895903D19F020F4903CD0
:1034E000C9F782E00895903E59F0903F99F7815FC7
:1034F0008F3080F7E82FF0E0E755FE4F8081089588
:1035000083E008950F93022F0F77242F2F776F708A
:10351000462F406BDC01ED91FC9163E070E0099572
:103520000F9108950F93022F0F77242F2F776F702D
:10353000462F4069DC01ED91FC9163E070E0099554
:103540000F9108950F93022F0F77242F2F776F700D
:10355000462F4068DC01ED91FC9163E070E0099535
:103560000F9108950F931F93411520E2520744F4E1
:103570009A01305E4115504E2CF430E020E002C03C
:103580002FEF3FE38901000F012F001F110B119551
:103590002F776F70462F406EDC01ED91FC9163E058
:1035A00070E009951F910F910895FC017383628368
:1035B0000895FC01758F648F0895CF93DF93EC011C
:1035C0001DA21FA21EA2BC01685D7F4F40EC885166
:1035D0009F4F0E94E81C1B821A821D821C821F8240
:1035E0001E82198618861B861A861D861C861F86D3
:1035F0001E86198A188A1B8A1A8A1D8A1C8A1F8AA3
:103600001E8A198E188E1B8E1A8E1D8E1C8E1F8E72
:103610001E8E19A218A2DF91CF910895EF92FF920A
:103620000F931F93CF93DF93EA018A01060F111DB9
:1036300088519F4F7C01C017D10739F4DF91CF919A
:103640001F910F91FF90EF9008956991C7010E941B
:10365000EF1CF1CFFC01718360830895FC0171A31D
:1036600060A30895AF92BF92CF92DF92EF92FF9244
:103670000F931F93CF93DF9300D00F92CDB7DEB798
:103680007C016B01142FB22EA02EDC0195968C913B
:1036900095978430A9F55A96ED91FC913097E9F110
:1036A000CB01019763E070E00E946425CB01880F95
:1036B000991F860F971F4983BA820B834C2D481B95
:1036C0009E012F5F3F4FBC01C7010995D7015E9650
:1036D000ED91FC91309731F00A2D2B2D412FB60141
:1036E000C70109950F900F900F90DF91CF911F9117
:1036F0000F91FF90EF90DF90CF90BF90AF90089523
:103700006230710509F455C06330710599F061307C
:10371000710509F481C0D12CC12CD7015C96ED91C3
:10372000FC91309799F20A2D2B2D412FB601C7013C
:103730000995CCCF842F807F803A11F148F48038EE
:10374000D1F0803951F7D7011496ED91FC910AC060
:10375000803ED9F0803FF1F0803BF9F6D701129618
:10376000ED91FC913097C9F2123FE9F02A2D4B2DD3
:10377000612F6F701BC0D7011696ED91FC91F2CFAF
:10378000D7011896ED91FC91EDCFD7011A96ED91E6
:10379000FC91E8CF423F09F6D7011C96ED91FC91D0
:1037A000309709F4BACF2A2D4B2D62EFC701099546
:1037B0008DCF842F807F803DB1F0803FC9F0803C69
:1037C00009F0ABCFD7011E96ED91FC91309709F42B
:1037D000A4CF812F8D7F4B2D612F6F70813F89F09A
:1037E000C701099573CFD7015096ED91FC91EECFAB
:1037F000433F51F4D7015296ED91FC91309709F473
:103800008CCF4B2D612FECCF413F09F086CFD701F4
:103810005496ED91FC91F2CF842F0E94591A88237F
:1038200059F0D7015696ED91FC91309709F475CF78
:10383000612FC70109954ACF163F09F06ECFD70116
:103840005896ED91FC91F1CFFF920F931F93CF9378
:10385000DF93EC01162F862F0E94591A882391F0CE
:10386000FDA081E08DA300E020E0412F61E070E049
:10387000CE010E94321BFDA2DF91CF911F910F91CB
:10388000FF900895812F0E94551A4DA1882309F4B5
:1038900043C0443029F01AA381E090E09FA38EA397
:1038A000812F0E945F1A813051F08823A9F0823065
:1038B00089F0833079F01DA21FA21EA2DDCF8DA357
:1038C00000E020E0412F61E070E0CE010E94321B59
:1038D0001DA2D2CF8DA3D0CF103FB1F0173F59F723
:1038E0002EA13FA1C90163E070E00E946425FE01A2
:1038F000E80FF91F12A3B9016F5F7F4F7FA36EA37B
:103900000CA12BA14AA1E1CF84E08DA31AA381E0F1
:1039100090E09FA38EA3B0CF442309F4ADCF2EA196
:103920003FA1C90163E070E00E946425FE01E80F39
:10393000F91F12A3B9016F5F7F4F7FA36EA3813080
:10394000910569F0029709F097CF0CA12BA14AA12C
:10395000CE010E94321B8DA18430C9F68DCF00E0CC
:10396000423009F089CFF2CFCF92DF92EF92FF92EF
:103970000F931F93CF93DF93EC01E8A1F9A1309748
:1039800009F009956E0188EEC80ED11CC6010E948F
:103990001E1D10E000E0E82EF12C0E151F0548F06A
:1039A000DF91CF911F910F91FF90EF90DF90CF901B
:1039B000089560E0C6010E94321D682FCE010E946A
:1039C000241C61E0C6010E94421D0F5F1F4FE5CF1E
:1039D000FC014283748363831182108208951F93D4
:1039E000CF93DF93EC01162F0E94591D482F298198
:1039F00030E0C90101966A8170E00E947825588103
:103A00005817190641F4842F0E945C1D80E0DF9155
:103A1000CF911F9108958B819C81280F391FF90147
:103A20001083898190E001966A8170E00E94782578
:103A30008983842F0E945C1D81E0E9CFCF93DF93BF
:103A4000EC010E94591D99812881921740F0C92FDD
:103A5000C21B0E945C1D8C2FDF91CF910895CA81FB
:103A60009C0FF5CFFC018081860F9927991F6281F9
:103A700070E00E94782523813481280F391FF901D5
:103A8000808108951F93CF93DF93EC01162F0E943E
:103A9000591D282F8881810F9927991F6A8170E00D
:103AA0000E9478258883822FDF91CF911F910C94FB
:103AB0005C1D8FB7F89408958FBF089508950895F9
:103AC0000F931F93CF93DF9300D000D000D00F92BD
:103AD000CDB7DEB78C01CE0101960E94BE1F8111C9
:103AE0000BC027960FB6F894DEBF0FBECDBFDF9197
:103AF000CF911F910F9108958A810E945F1A9A8138
:103B00009D839B819E839C819F8381110AC08981B3
:103B1000843079F0873069F0863069F08530D9F6E5
:103B200081E0AE014B5F5F4F682FC8010E940E1B02
:103B3000D2CF83E0F6CF82E0F4CFDF92EF92FF9214
:103B40000F931F93CF93DF9300D000D0CDB7DEB794
:103B50007B01142FD22E4A832B830C83842F0E9447
:103B60005F1A811129C082E0E816F10401F183E0B7
:103B7000E816F10439F0EA94EF2869F485E0173F7C
:103B800021F404C087E0073F09F084E08983CE0177
:103B900001960E94B91F0F900F900F900F90DF9128
:103BA000CF911F910F91FF90EF90DF90089587EFD5
:103BB000D812EBCF86E0EACF12951F701983E7CFBA
:103BC0000E9459078AEF92E00E94DD1A6DE97DE1BB
:103BD0008AEF92E00E942A1B60E67DE18AEF92E084
:103BE0000E942E1B6EE57DE18AEF92E00E94D91AB9
:103BF0006FE57DE18AEF92E00C94D51A9B0140912C
:103C0000EB034430C1F4FC0191819F709093E90073
:103C100050E040E064E070E0C9010E94842081111E
:103C20000BC09091E80095FD07C09091E8009E7749
:103C30009093E800089582E008952091EB032430EA
:103C400091F4FC0181818F708093E9009091F300E1
:103C50008091F200892B49F08091E8008E77809363
:103C6000E8000C94322282E0089580E00895FC017F
:103C70008091EB03843059F491819F709093E90017
:103C80008091E80080FF03C0CF010C941D1E0895B1
:103C90009B014091EB03443011F080E00895FC015A
:103CA00096819F709093E9008091E80082FFF5CFA4
:103CB0008091E80085FFF1CF50E040E064E070E0E3
:103CC000C9010E94D3208091E80085FD05C0809144
:103CD000E8008B778093E80081E008958091D0021E
:103CE00008950895CF93DF9300D00F92CDB7DEB73C
:103CF0009091EB03943019F589837B836A8382E08A
:103D00008093E9008FEF9091E800815095FD06C007
:103D100095ED9A95F1F700008111F5CF8091E800BB
:103D200085FF0DC050E040E063E070E0CE010196F9
:103D30000E9484208091E8008E778093E8000F90A5
:103D40000F900F90DF91CF910895BC0184E00C9407
:103D5000721EBC0183E00C94721ECF93DF93EC01C2
:103D600081E08093E9008FEF9091E800815095FD0C
:103D700006C095ED9A95F1F700008111F5CF80917D
:103D8000E80085FF14C050E040E068E070E0CE013C
:103D90000E9484208091E8008E778093E80088E07C
:103DA000FE01A8ECB2E001900D928A95E1F7DF9157
:103DB000CF9108958091EA03811109C00E94632286
:103DC0000E94C0228091E20084608093E200089506
:103DD0001092EA03089508950895089542E061EC71
:103DE00081E00E94DF2142E261EC82E00E94DF215B
:103DF00042E361E883E00E94DF2142E361E884E07E
:103E00000C94DF218091ED03833009F45FC030F41E
:103E10008130C1F1823009F49BC008958A3009F4E1
:103E200087C08B3009F46DC0893009F04EC0809195
:103E3000EC03813209F049C08091F0039091F103C5
:103E4000029708F042C08091E800877F8093E800E5
:103E50008091E80082FF35C09091F3008091F200DC
:103E6000029729F48091F1008B7F813021F48091B9
:103E7000F1008093D0028091E8008B778093E80076
:103E80000C9413228091EC03813AF9F48091E800BC
:103E9000877F8093E8008091F0039091F103892B54
:103EA00061F468E088EC92E070E00E942221809149
:103EB000E8008B778093E800089560E090E080E070
:103EC000F3CF8091EB038111C3CF08958091EC0370
:103ED000813AD9F78091F0039091F103892BA9F7EA
:103EE0008091E800877F8093E8008091E80080FF60
:103EF000FCCF809123018093F1008091E8008E77C0
:103F0000BDCF8091EC03813201F78091F003909155
:103F1000F103892BD1F68091E800877F8093E80038
:103F20000E9413228091EE03809323010C94E612E9
:103F30008091EC03813249F68091E800877F80937D
:103F4000E8000E9413228091EF038093D10208952C
:103F50008091EC03813A09F0B8CF8091E800877F27
:103F60008093E8008091E80080FFFCCF8091D1022F
:103F7000C2CFBC018DE091E00C94FE1DBC018DE030
:103F800091E00C94481E0E94E01D84B7877F84BF97
:103F90000FB6F894A89580916000886180936000C6
:103FA000109260000FBE80E890E00FB6F894809306
:103FB0006100909361000FBE0E946C0F0E9463220B
:103FC0000E94C0228091E20084608093E200789495
:103FD0000E9449250E947A0F89E191E00E94F10E2A
:103FE0008091EB038530C9F00E94860F8DE091E04F
:103FF0000E94371E0E94780F0E94790FF1CF0E9415
:1040000013198091E903882341F00E944219882303
:1040100021F00E946E200E94E6128091EB03853011
:1040200071F30E945919E0CF0C941620292F3327E1
:104030002330310519F168F42130310509F444C009
:104040002230310509F445C090E080E030E020E006
:1040500025C02132310549F122323105A9F780E42A
:1040600090E029E035E061157105C1F082E390E050
:1040700027ED34E06130710589F0E6CF9927813072
:10408000910581F0009729F00297F1F6E4EFF3E053
:1040900002C0E2E2F4E0849190E09F01FA013183F2
:1040A00020830895E2E1F4E0F6CF89E090E028E390
:1040B00034E06115710591F389E090E021E534E089
:1040C0006130710559F3C0CF82E190E025EC34E016
:1040D000E5CF8FE990E026E234E0E0CF80E189BDD2
:1040E00082E189BD09B400FEFDCF8091D8008F7DAB
:1040F0008093D8008091E00082608093E0008091FE
:10410000E00081FDFCCF0895AF92BF92CF92DF9285
:10411000FF920F931F93CF93DF936C01EB018A0102
:104120000E943222F82E811123C00115110539F0A9
:10413000F80180819181C81BD90BC80ED91EB12C02
:10414000A12C2097A9F08091E80085FD22C08091E4
:10415000E8008E778093E80001151105A1F0F801C1
:1041600080819181A80EB91EB182A08285E0F82ECF
:104170008F2DDF91CF911F910F91FF90DF90CF9006
:10418000BF90AF9008950E9432228823D1F2F82E7A
:10419000EFCFF60181916F018093F1002197FFEF3E
:1041A000AF1ABF0ACECFAF92BF92CF92DF92FF92EB
:1041B0000F931F93CF93DF936C01EB018A010E9451
:1041C0003222F82E811123C00115110539F0F801B2
:1041D00080819181C81BD90BC80ED91EB12CA12C8E
:1041E0002097A9F08091E80085FD22C08091E80029
:1041F0008B778093E80001151105A1F0F80180810B
:104200009181A80EB91EB182A08285E0F82E8F2D73
:10421000DF91CF911F910F91FF90DF90CF90BF90D2
:10422000AF9008950E9432228823D1F2F82EEFCF6A
:104230008091F100F60181936F012197FFEFAF1A92
:10424000BF0ACECFFC018091F2039091F303861751
:104250009707A0F06115710529F49091E8009E7709
:104260009093E80090E06115710551F4911108C038
:104270008091E80082FF34C080E00895BC01F2CF55
:104280008091EB038823C1F18530C1F18091E80072
:1042900083FD30C08091E80082FDEACF8091E80084
:1042A00080FFE1CF8091F3002091F200382F61155B
:1042B000710519F02830310558F091E028303105AA
:1042C00009F090E02091E8002E772093E800CBCF12
:1042D00081918093F100615071092F5F3F4FE7CFCB
:1042E0008091EB03882341F0853041F08091E80014
:1042F00083FFBECF81E0089582E0089583E00895B2
:10430000FC018091F2039091F30386179707A0F0C8
:104310006115710529F48091E8008E778093E8009B
:1043200090E06115710551F4911108C08091E80089
:1043300082FF35C080E00895BC01F2CF8091EB038D
:104340008823C9F18530C9F18091E80083FD31C02F
:104350008091E80082FDEACF8091E80080FFE1CF04
:104360008091F3002091F200382F6115710519F04A
:104370002830310558F091E02830310509F090E0FF
:104380008091E8008E778093E800CBCF8491809372
:10439000F1003196615071092F5F3F4FE6CF809158
:1043A000EB03882341F0853041F08091E80083FFE2
:1043B000BDCF81E0089582E0089583E00895982FAD
:1043C000973028F08F708093E90081E008959093F2
:1043D000E900242F762F50E0981731F07091EC000F
:1043E0002091ED005091F00021FD02C09F5FE8CFC9
:1043F0003091EB003E7F3093EB003091ED003D7F3C
:104400003093ED003091EB0031603093EB0070930E
:10441000EC002093ED005093F0002091EE0027FD7A
:10442000E5CF80E008958091EC0387FF13C0809171
:10443000E80082FF06C08091E8008B778093E80057
:1044400004C08091EB038111F2CF08958091EB03BA
:104450008823D9F38091E80080FFF8CF8091E800AD
:104460008E77ECCF2091E4003091E50095E6A9012C
:104470002091EC00822F817020FF06C08091E8001F
:1044800080FF06C080E008952091E80022FD1AC058
:104490008091EB03882389F0853089F08091EB00CF
:1044A00085FD0FC02091E4003091E50042175307CD
:1044B000F9F29150E1F684E0089582E0089583E0F6
:1044C000089581E008950E94D1220E94D922E0EE51
:1044D000F0E0808181608083E8EDF0E080818F777B
:1044E000808319BCA7EDB0E08C918E7F8C93808186
:1044F0008F7E80831092EA0308950F931F93CF93CA
:10450000DF930E94D1220E94D922C8EDD0E0888199
:104510008F77888388818068888388818F7D88836E
:1045200019BC1092EB031092E7031092E90310926A
:10453000E80300EE10E0F80180818B7F80838881A2
:104540008160888342E060E080E00E94DF21E1EE4C
:10455000F0E080818E7F8083E2EEF0E080818160F8
:104560008083808188608083F80180818E7F808352
:10457000888180618883DF91CF911F910F91089589
:10458000E8EDF0E080818F7E8083E7EDF0E08081D0
:104590008160808384E082BF81E08093EA030C9491
:1045A0007D22E8EDF0E080818E7F80831092E20032
:1045B00008951092DA001092E10008951F920F9270
:1045C0000FB60F9211242F933F934F935F936F93E6
:1045D0007F938F939F93AF93BF93EF93FF938091BC
:1045E000E10082FF0BC08091E20082FF07C0809152
:1045F000E1008B7F8093E1000E9448258091DA00E2
:1046000080FF19C08091D80080FF15C08091DA002A
:104610008E7F8093DA008091D90080FF96C080E180
:1046200089BD82E189BD09B400FEFDCF81E08093A0
:10463000EB030E94DA1E8091E10080FF19C0809197
:10464000E20080FF15C08091E2008E7F8093E2003F
:104650008091E20080618093E2008091D8008062C6
:104660008093D80019BC85E08093EB030E94EC1E78
:104670008091E10084FF2BC08091E20084FF27C07D
:1046800080E189BD82E189BD89B5982F917080FF55
:10469000FBCF8091D8008F7D8093D8008091E1007E
:1046A0008F7E8093E1008091E2008F7E8093E20014
:1046B0008091E20081608093E2008091E70388238B
:1046C00009F449C084E08093EB030E94ED1E8091C1
:1046D000E10083FF29C08091E20083FF25C0809123
:1046E000E100877F8093E10082E08093EB031092EA
:1046F000E7038091E1008E7F8093E1008091E200EA
:104700008E7F8093E2008091E20080618093E200DE
:1047100042E060E080E00E94DF218091F00088604C
:104720008093F0000E94EB1EFF91EF91BF91AF913B
:104730009F918F917F916F915F914F913F912F91B9
:104740000F900FBE0F901F90189519BC1092EB039D
:104750000E94E81E70CF8091E30087FD93E0909364
:10476000EB03B3CF1F920F920FB60F9211242F932A
:104770003F934F935F936F937F938F939F93AF93E9
:10478000BF93CF93DF93EF93FF93D091E900DF7056
:104790008091EC00C82FC17080FDC0E81092E90044
:1047A0008091F000877F8093F00078940E94F62338
:1047B0001092E9008091F00088608093F000CD2B8A
:1047C000CF70C093E900FF91EF91DF91CF91BF913E
:1047D000AF919F918F917F916F915F914F913F9199
:1047E0002F910F900FBE0F901F9018951F93CF938E
:1047F000DF93CDB7DEB7AA970FB6F894DEBF0FBE32
:10480000CDBF8CEE93E02091F100FC012193CF010C
:10481000F3E0843F9F07B9F70E94021F8091E800F0
:1048200083FF1EC18091EC039091ED039A3008F054
:1048300017C1E92FF0E0E051FA4D0C948C25803837
:1048400099F0823809F00CC18091F0038F708730A5
:1048500008F006C18093E9008091EB0085FB882772
:1048600080F91092E90006C08091E8039091E90375
:10487000911182609091E800977F9093E800809377
:10488000F1001092F1008091E8008E77E5C0882356
:1048900009F4D3C0823009F0E3C08091EE038111A6
:1048A000D6C08091F0038F702FEF280F263008F0CC
:1048B000D7C08093E9002091EB0020FFC8C093305F
:1048C00031F48091EB0080628093EB00C0C0909146
:1048D000EB0090619093EB0021E030E001C0220FEB
:1048E0008A95EAF72093EA001092EA008091EB00A3
:1048F0008860EACF8111B4C01091EE031F778091D8
:10490000E3008078812B8093E3008091E800877F2B
:104910008093E8000E9413228091E80080FFFCCF82
:104920008091E30080688093E30082E0111183E0CE
:104930008093EB0395C08058823008F091C080913D
:10494000EE039091EF038C3D23E09207A1F583E005
:104950008A838AE289834FB7F894DE01139620E0B8
:104960003EE051E2E32FF0E050935700E49120FF46
:1049700003C0E295EF703F5FEF708E2F90E0EA305A
:10498000C0F0C7968D939D932F5F243159F74FBF89
:104990008091E800877F8093E8006AE270E0CE01B2
:1049A00001960E9422218091E8008B778093E80095
:1049B00057C0C096E7CF6091F0037091F103AE014C
:1049C0004F5F5F4F0E941420BC01892B09F448C03F
:1049D0009091E800977F9093E80089819A810E94E6
:1049E0008021E1CF8038E1F58091E800877F8093D6
:1049F000E8008091E7038093F10045CF811130C03A
:104A00009091EE03923060F58091E800877F80936B
:104A1000E8009093E7030E9413228091E703882324
:104A200011F084E005C08091E30087FDFACF81E0BA
:104A30008093EB030E94EE1E13C08091EE03813041
:104A400079F481E0933009F080E08093E9031092DB
:104A5000E9008091E800877F8093E8000E9413229C
:104A60008091E80083FF0AC08091E800877F8093EF
:104A7000E8008091EB0080628093EB00AA960FB66D
:104A8000F894DEBF0FBECDBFDF91CF911F91089587
:104A90000895CF938091EB038823A1F0C091E900A2
:104AA000CF709091EC00892F817090FD80E8C82B29
:104AB0001092E9008091E80083FD0E94F623CF70F8
:104AC000C093E900CF910895AA1BBB1B51E107C019
:104AD000AA1FBB1FA617B70710F0A61BB70B881F8E
:104AE000991F5A95A9F780959095BC01CD0108951D
:104AF00097FB072E16F4009407D077FD09D00E948B
:104B0000642507FC05D03EF4909581959F4F08954C
:104B1000709561957F4F0895EE0FFF1F0590F491FA
:104B2000E02D0994F999FECF92BD81BDF89A99279D
:104B300080B50895A8E1B0E042E050E00C94C625AD
:104B4000262FF999FECF92BD81BDF89A019700B446
:104B5000021639F01FBA20BD0FB6F894FA9AF99AE6
:104B60000FBE08950396272F0E94A1250E94A0251D
:104B7000252F0E94A125242F0C94A1250196272FD3
:104B80000E94A1250C94A025DC01CB01FC01F99920
:104B9000FECF06C0F2BDE1BDF89A319600B40D9289
:104BA00041505040B8F70895F894FFCF1F111F11DE
:104BB0006211621193114C114C114C11AD11401244
:104BC00050125012F512F512FE12FE120013FE12D0
:104BD000FE12FE12F512F5120513FE12FE12051357
:104BE0001F2447243025472430257A249B24302550
:044BF000F224FE2489
:104BF4000137671602041702071B02BB0203834036
:104C04000000010440000001006E1EAD1E711EA9CB
:104C14001EA51E01E200E900EA00B500B600B700D7
:104C2400CD008301CC008A01920194012102230268
:104C340024022502260227022A02B300B4006F00D0
:104C4400700081828391C6F731333290353497F600
:104C5400669400000000000000FF0100010000FF56
:104C6400FF0000010001FF00E200E900EA00B500D6
:104C7400B600B700CD008301CC008A0192019401F3
:104C84002102230224022502260227022A02B3005B
:104C9400B4006F00700081828302030200000100EF
:084CA400010101010100010101
:00000001FF
