:100000000C9408040C9425040C9425040C94CB3215
:100010000C9425040C9425040C9425040C942504BC
:100020000C9425040C9425040C94CA2B0C94862B58
:100030000C94C72C0C9425040C9425040C942504D2
:100040000C9425040C9425040C9425040C9425048C
:100050000C9425040C94A32C0C9425040C942504D6
:100060000C9425040C9425040C9425040C9425046C
:100070000C9425040C9425040C9425040C9425045C
:100080000C9425040C9425040C9425040C9425044C
:100090000C9425040C9425040C9425040C9425043C
:1000A0000C9425040C9425040C94250400000000F5
:1000B0000000000000000000000000000000000040
:1000C0000000000000000000000000000000000030
:1000D0007E0F00D4FFFFFFC7000000780000000083
:1000E000000000002A2B2800000000000000000093
:1000F0000000000000000029000000002C1E342039
:10010000212224342627252E362D3738271E1F205E
:100110002122232425263333362E37381F040506A3
:100120000708090A0B0C0D0E0F10111213141516E7
:100130001718191A1B1C1D2F3130232D35040506E5
:100140000708090A0B0C0D0E0F10111213141516C7
:100150001718191A1B1C1D2F3130354C62616E6443
:100160006F6D696E65646F6E693A636F6E63657219
:1001700074696E61204020302E32302E352D33369A
:10018000362D676664356231302D6469727479206A
:10019000666435623130373864342A207C2032304E
:1001A00032332D30352D30372D30373A35353A341E
:1001B000300000000000000000000000000000000F
:1001C0006A7E657E6D7E6C7E717E797E7C7E697EC8
:1001D000647E687E6B7E707E747E000000006E7EA2
:1001E0002E716F7E727E777E7B7E61520000677E0D
:1001F0000000667E0000000000000000000000001B
:1002000000000000000000001A710F71137100005F
:100210000000000000001D71167118710000000040
:10022000027E00005F7E1B711C7100000000A8456B
:10023000000026711F712471000000000000000002
:10024000297122712371000000000000000020715C
:100250002571217100000000587E000000000000A0
:100260000000000000000000657E677E6B7E6E7EF1
:10027000737E757E727E5F7E637E667E697E6D7E36
:100280006F7E000000006C7E6A7E3071707E747E2E
:10029000767E61520000617E0000687E00000000F2
:1002A000000000000000000000000000000000004E
:1002B0001871167114710000000000000000217117
:1002C0001A71197100000000027E000024711D7176
:1002D0001E7100000000A8450000647E207122719C
:1002E00000000000000000002B7124712571000047
:1002F000000000000000237127711C710000000045
:10030000587EE0001E001F00200021002200000097
:10031000167C2B0014001A00080015001700390085
:1003200004001600070009000A000B00E1001D0090
:100330001B0006001900050011003500E300E20073
:1003400091442C002C00460000000000000000003A
:100350000000000000004A004E000A001C002300BC
:100360002F004B004D0005000B001800240030004A
:1003700024522C0011000D000C002500310001005A
:10038000904410000E001200260027004F00E600E7
:1003900036000F0013002A00E5005200500037001D
:1003A00033004C0028003800510039001E001F00A7
:1003B0002000210022000000167C2B0014001A00EF
:1003C000090013000A00E0000400150016001700E1
:1003D00007002800E1001D001B00060019000500B1
:1003E00010003500E300E20091442C002C00460090
:1003F00000000000000000000000000000004A00B3
:100400004E0007000D0023002F004B004D0005009B
:100410000B000F002400300024522C000E001100AD
:1004200018002500310001009044100008001C0055
:10043000260027004F00E60036000C0033002A009B
:10044000E50052005000370012004C002800380030
:10045000510001003A003B003C003D003E0000001E
:100460000100010001000100010001000100010084
:100470000100010001000100010001000100010074
:100480000100010001000100010001000100010064
:100490000100010001000100000000000000000058
:1004A00000000000000001000100010001003F0009
:1004B00001000100010001000100010040000100F5
:1004C00001000100010001000100410001000100E4
:1004D0000100010001000100420043000100010091
:1004E0000100010001000100010001000100010004
:1004F0003400010001000100010000004052000032
:100500000000000000000000000042520000000057
:100510000000000000004352000000000000000046
:1005200000000100000000000000000000000000CA
:1005300000000000157014700000000000000000B2
:1005400000000000000000000000000000000000AB
:1005500026780000017E000055710100000025781A
:100560000000000000005671010000002478000027
:1005700000000000717101000000237800000000FD
:1005800000007271207800002A780000000000004E
:100590002778037C227829780000007E00002878E4
:1005A0002178A900AA00A900AA0001000100010009
:1005B0000100010001002178227800010101010100
:1005C000010101010202020202020202020303030C
:1005D00003030303030404040404040405050505DC
:1005E000050606060606070707070708080808099C
:1005F0000909090A0A0A0B0B0B0C0C0C0D0D0D0E48
:100600000E0E0F0F0F1010111111121213131414DC
:10061000151516161717181819191A1A1B1B1C1D51
:100620001D1E1E1F202021222223242425262627AA
:100630002829292A2B2C2D2D2E2F303132323334DC
:1006400035363738393A3B3C3D3E3F4041424344E2
:1006500045464748494A4C4D4E4F505153545556C4
:1006600058595A5B5D5E5F616264656668696B6C70
:100670006D6F7072737577787A7B7D7E80828385EB
:1006800087888A8C8E8F91939596989A9C9EA0A22B
:10069000A3A5A7A9ABADAFB1B3B5B7BABCBEC0C235
:1006A000C4C6C9CBCDCFD1D4D6D8DBDDDFE2E4E7F9
:1006B000E9EBEEF0F3F5F8FAFDFF05010980A10181
:1006C000850319012AB700150126B7009501751099
:1006D0008100C0050C0901A101850419012AA002AD
:1006E000150126A002950175108100C005010906BB
:1006F000A101050719E029E71500250195087501F5
:1007000081029501750881010507190029FF15006F
:1007100026FF009506750881000508190129059531
:100720000575019102950175039101C009029F00B1
:10073000040100A0FA0904000001030101000921DD
:10074000110100012240000705810308000109048E
:100750000100010300000009211101000122320003
:1007600007058203200001080B02020101000009B5
:100770000402000001010000092401000109000138
:1007800003090403000201030000072401000141E2
:1007900000062402010100062402020200092403CB
:1007A00001030102010009240302040101010009FF
:1007B000050402400005000005250101010905832B
:1007C000024000050000052501010312010002009E
:1007D000000008EDFEB5F40100010200011C0362F7
:1007E0000061006E0064006F006D0069006E0065BE
:1007F0000064006F006E00690000000E03330061AA
:100800000072006100680074000000040309040025
:1008100011241FBECFEFDAE0DEBFCDBF26E0A2EF8E
:10082000B2E001C01D92A83EB207E1F712E0A0E0DD
:10083000B1E0EEEDFBE602C005900D92A23FB107DC
:10084000D9F70E94EE2C0C9473350C940000EF92B3
:10085000FF920F93CF930091E5060F7720EC260FC0
:1008600030E0F901E255FA4F7F012081442329F15C
:100870002F3FF1F49091E406C92FC595C595C59514
:10088000C595C0549F70FCE09F9FC00D1124C60FFA
:100890002C2F2F778F70482F4069E091F705F0914A
:1008A000F80563E070E087EF95E00995F701C083F4
:1008B000CF910F91FF90EF9008952F3F69F02F7720
:1008C0008F70482F4068E091F705F091F80563E0DC
:1008D00070E087EF95E009958FEFF7018083E8CF0F
:1008E0000F931F939B01305E8901000F012F001FA2
:1008F000110B11952F77482F406EE091F705F0917D
:10090000F80563E070E087EF95E009951F910F917E
:1009100008950F93262F042F0F77482F406BE091F7
:10092000F705F091F80563E070E087EF95E0099531
:100930000F9108959091A805937061F081110BC0FB
:1009400094609093A805109247018091A70581605B
:100950008093A7050895863210F09469F2CF880F2E
:10096000880F982BEECF9091A805937071F080932B
:10097000A9056093AA05433308F042E34093AB0511
:100980008091A70581608093A7050895482F209145
:100990006C059091330557E0291302C080E008955B
:1009A00030E0529FF001539FF00D1124EC5CFA4FA0
:1009B0008181681306C08081481303C0858181113D
:1009C000EECF2F5F3F4F2770E7CFA3E0B0E0EBEE15
:1009D000F4E00C94F1337C01162FD42EC22E8091BA
:1009E0001C06843071F5E0911106F09112063097E3
:1009F000C1F1C701019763E070E00E941E34CB0192
:100A0000880F991F860F971F19834A83CB824E2D1B
:100A1000481B9E012F5F3F4FBC0187EF95E0099572
:100A2000E0911506F0911606309739F00C2D2D2D1A
:100A3000412FB70187EF95E009952396E8E00C94E4
:100A40000D3482E0E816F10409F45AC083E0E81698
:100A5000F104A9F081E0E816F10409F484C0F12C56
:100A6000E12CE0911306F09114063097C9F20C2D99
:100A70002D2D412FB70187EF95E00995D1CF862F16
:100A8000807F803A11F188F48038D1F0E091FB0545
:100A9000F091FC05803929F7309719F3123F49F19D
:100AA0002C2D4D2D612F6F7027C0803E99F0803F17
:100AB000B1F0E091F905F091FA05803B91F6ECCFA9
:100AC000E091FD05F091FE05E7CFE091FF05F09183
:100AD0000006E2CFE0910106F0910206DDCF623F11
:100AE00009F0BFCFE0910306F0910406309709F4B6
:100AF000B8CF2C2D4D2D62EF87EF95E0099590CF63
:100B0000862F807F803DB9F0803FD1F0E0910506CF
:100B1000F0910606803C09F0A4CF309709F4A1CFEC
:100B2000812F8D7F4D2D612F6F70813FC9F087EF31
:100B300095E0099575CFE0910706F0910806EDCF95
:100B4000E0910906F0910A06633F39F0613F09F030
:100B500088CFE0910B06F0910C06309709F481CF15
:100B60004D2D612FE4CFE0910D06F0910E06683F08
:100B700038F4663F09F075CFE0910F06F09110064A
:100B8000309709F46ECF612F87EF95E0099548CF34
:100B9000E8EDF0E080818E7F80831092E200109279
:100BA000DA001092E100A0EEB0E08C9181608C93AD
:100BB00080818F77808319BCA7EDB0E08C918E7F08
:100BC0008C9380818F7E808310921C0508952091E4
:100BD000E4003091E50095E6A9012091EC00822F18
:100BE000817020FF06C08091E80080FF06C080E091
:100BF00008952091E80022FD1AC0809129058823DC
:100C000089F0853089F08091EB0085FD0FC020913F
:100C1000E4003091E50042175307F9F29150E1F6F4
:100C200084E0089582E0089583E0089581E00895C6
:100C3000EF92FF920F931F93CF937C018B010E9441
:100C4000E705C82F811117C08091E80085FD0BC012
:100C50008091E8008E778093E8000E94E705882362
:100C600099F3C82F08C0F70181917F018093F100AB
:100C70000150110949F78C2FCF911F910F91FF90CF
:100C8000EF90089580912B0587FF13C08091E800B5
:100C900082FF06C08091E8008B778093E80004C053
:100CA000809129058111F2CF08958091290588232B
:100CB000D9F38091E80080FFF8CF8091E8008E772B
:100CC000ECCF982F9093E900242F762F50E08917CE
:100CD00031F07091EC002091ED005091F00021FD79
:100CE00007C09F5F973071F78093E90081E0089516
:100CF0003091EB003E7F3093EB003091ED003D7F73
:100D00003093ED003091EB0031603093EB00709345
:100D1000EC002093ED005093F0002091EE0027FDB1
:100D2000E0CF80E00895B0E0A0E0E9E9F6E00C94BF
:100D3000F133C8EDD0E088818F7E8883E7EDF0E065
:100D400080818160808384E082BF81E080931C0584
:100D500088818E7F888302EE10E0F8011082109265
:100D6000DA0081EEC82ED12CF601108288818F77AF
:100D7000888388818068888388818F7D888319BC77
:100D80001092290510922A05109228051092270525
:100D900090EEE92EF12CF70180818B7F8083888192
:100DA0008160888342E060E080E00E946106F60195
:100DB00080818E7F8083F801808181608083808143
:100DC00088608083F70180818E7F80838881806145
:100DD0008883CDB7DEB7E8E00C940D34FC01809138
:100DE00031059091320586179707A0F061157105BE
:100DF00029F49091E8009E779093E80090E06115C7
:100E0000710551F4911108C08091E80082FF34C04F
:100E100080E00895BC01F2CF809129058823C1F1BB
:100E20008530C1F18091E80083FD30C08091E800F9
:100E300082FDEACF8091E80080FFE1CF8091F3004E
:100E40002091F200382F6115710519F02830310515
:100E500058F091E02830310509F090E02091E80049
:100E60002E772093E800CBCF81918093F1006150E1
:100E700071092F5F3F4FE7CF80912905882341F00B
:100E8000853041F08091E80083FFBECF81E0089576
:100E900082E0089583E00895089580911E050895E5
:100EA0009C014FB7F8948091180590911905A09175
:100EB0001A05B0911B054FBF821B930B08952FB7E6
:100EC000F894609118057091190580911A05909118
:100ED0001B052FBF08952FB7F894809118059091A6
:100EE0001905A0911A05B0911B052FBF08959C010B
:100EF000FC0132969FEF80E04191461751F09F3FF1
:100F000019F4411101C0982F8F5F8630A9F79F3FD8
:100F100009F40895290F311D97FD3A95F90162836F
:100F20000895A3E0B0E0E7E9F7E00C94F7332091EF
:100F300015053091160528173907A1F0909316056D
:100F400080931505E0911305F0911405309751F049
:100F500024E029839B838A830680F781E02DCE01DC
:100F6000019609952396E2E00C941334A3E0B0E0D7
:100F7000ECEBF7E00C94F73320911105309112055A
:100F800028173907A1F09093120580931105E0917D
:100F90001305F0911405309751F023E029839B83CA
:100FA0008A830680F781E02DCE010196099523966C
:100FB000E2E00C941334FC01680F791F8FEF91E38A
:100FC0002191822728E030E087FF09C0880F892718
:100FD00021503109C9F7E617F70791F70895880FEF
:100FE000F7CFFA01811101C0FB0109950895EDE2E7
:100FF000F4E0818360834283339695E0E131F90721
:10100000C1F70895FC01EE0FFF1FE80FF91FE35D24
:10101000FB4F6183408322830895E8EAF5E0248151
:1010200030E1231B08F420E024838091A705816030
:101030008093A7050895E8EAF5E0248130E1230FC5
:1010400008F42FEF24838091A70581608093A70582
:101050000895E8EAF5E0438120E1421B08F440E00E
:101060008181628190E00E94B3040895E8EAF5E08E
:10107000438120E1420F08F44FEF8181628190E0CB
:101080000E94B3040895E8EAF5E0628120E1621B62
:1010900008F460E08181438190E00E94B3040895E8
:1010A000E8EAF5E0628120E1620F08F46FEF8181E8
:1010B000438190E00E94B3040895E8EAF5E081815D
:1010C000438162818850990B0E94B3040895E8EA35
:1010D000F5E0818190E04381628108960E94B3042B
:1010E00008958091A80586958695815009F485E23A
:1010F0000E949A0408958091A805869586958F5F31
:10110000863208F081E00E949A040895EF92FF92DF
:101110000F939701201B31092F3F310519F010F073
:101120002FEF30E02095382F320F08F43FEF832F58
:101130000F91FF90EF900895EF92FF920F93970118
:10114000201B31092F3F310519F010F02FEF30E04F
:10115000322F3095482F430F08F44FEF842F620F42
:101160000F91FF90EF900895EF92FF920F93972FBA
:10117000093438F4B701601B71096F3F710519F02C
:1011800010F06FEF70E0485F5F4F4131510540F064
:10119000A901485F5F4F4131510510F06FEF70E0DA
:1011A0006095482F460F08F44FEF842F37FF02C099
:1011B0002D5F3F4F35952795359527956091A9056A
:1011C000620F792F0F91FF90EF900895EF92FF92A9
:1011D0000F931F930E0D1F2D111DF90137FF03C033
:1011E000F195E195F10924E0EE0FFF1F2A95E1F753
:1011F000EF3FF10519F014F0EFEFF0E09A0157FF1F
:1012000003C031952195310994E0220F331F9A953F
:10121000E1F72E173F070CF4F901E00FF11FEF3F44
:10122000F10519F010F0EFEFF0E0E095282F3E2FD8
:10123000230F08F42FEF822F1F910F91FF90EF9053
:101240000895EF92FF920F93970195E0099F200D6B
:10125000311D11242F3F310519F010F02FEF30E030
:101260002095382F320F08F43FEF832F0F91FF9016
:10127000EF90089522E8241B08F420E0620F0895FF
:101280004095282F429F412D1124842F0895E42F4B
:10129000F0E0EE0FFF1FE25FFD4F9081921B97FD84
:1012A0009195292F38E1239F212D1124620F089554
:1012B0000F931F9310E0F801EE0FFF1FE25FFD4F49
:1012C0009081905797FD9195000F111FF801E15FF4
:1012D000FD4F00810052110B2003F001219FF00D02
:1012E000112408E310E0091B110997FD1395400331
:1012F0009001419F300D1124E20FF31F9F01220F37
:10130000331F2E0F3F1F37FF02C021583F4F220FC0
:10131000232F221F330B620F1F910F9108950F93FC
:101320001F93522F10E0F801EE0FFF1FE15FFD4FFA
:10133000A081A052BB0B9D015203F001539FF00D01
:101340001124000F111FD801A25FBD4F0C9100574F
:10135000110B40039001419F300D11242E0F3F1FB0
:1013600037FF02C0215C3F4F96E0359527959A954F
:10137000E1F7620F1F910F9108950F931F93522F62
:1013800010E0F801EE0FFF1FE15FFD4FA081A052BA
:10139000BB0B9D015203F001539FF00D1124000F70
:1013A000111FD801A25FBD4F0C910057110B4003D4
:1013B0009001419F300D11242E0F3F1F37FF02C0B7
:1013C00021583F4F220F232F221F330B620F1F91F3
:1013D0000F910895EF920F93972F23E0029FB00192
:1013E0001124759567956E0D792F0F91EF900895E3
:1013F000322F50E0FA01EE0FFF1FE15FFD4F9081A9
:10140000905297FD9195440F551FFA01E25FFD4FF1
:101410002081231B330B290F311D97FD3A95620F55
:101420000895E42FF0E0EE0FFF1FE15FFD4F6081B4
:10143000621B0895E42FF0E0EE0FFF1FE25FFD4F07
:101440006081621B0895622F0895E42FF0E0EE0F93
:10145000FF1FE25FFD4F408134EE439F412D112479
:10146000E82FF0E050E0445E5F4FDA01A21BB109C3
:101470009D01B7FF03C031952195310993E0220FFB
:10148000331F9A95E1F7AF01421B530B9A0157FDA9
:1014900020E0582F259F212D1124822F0895E42F1D
:1014A000F0E0EE0FFF1FE25FFD4F408134EE439FFF
:1014B000412D1124E72FF0E050E0445E5F4FDA0148
:1014C000A21BB1099D01B7FF03C0319521953109D8
:1014D00093E0220F331F9A95E1F7AF01421B530BA4
:1014E0009A0157FD20E0279F212D1124722F089586
:1014F0000E94F70708950E9402080895FC019B01CD
:10150000009729F480E077FF2BC080E80895AC01B4
:1015100097FF04C044275527481B590BB901640F96
:10152000751F37FD10C0241B350BC901A5E0880FBE
:10153000991FAA95E1F70E94323480E2861BF7FFDB
:101540000FC081950895CB0165E0880F991F6A95BA
:10155000E1F7BA01621B730B0E94323480E6EECFD2
:101560000895EF920F93CF93DF93D72FC82FC90120
:101570000E19BA010E947E0A602F681B7D2F8C2FE6
:10158000DF91CF910F91EF9008950F93CF93DF9359
:10159000D72FC82FC901BA010E947E0A682F600F99
:1015A0007D2F8C2FDF91CF910F910895EF920F93A4
:1015B0001F93CF93DF93D62FC72F182FC9010E1972
:1015C000010FBA010E947E0A081B202F219F212DA6
:1015D0001124822F6D2F7C2FDF91CF911F910F91BE
:1015E000EF900895EF920F931F93CF93DF93D62F31
:1015F000172FC82FC9010E19070FBA010E947E0AC2
:10160000702F781B719F712D11246D2F8C2FDF91FE
:10161000CF911F910F91EF9008950F931F93CF9348
:10162000DF93D62FC72F182FC901212F201B022F80
:10163000BA010E947E0A982F990F990F891B800F7B
:10164000282F219F212D1124822F6D2F7C2FDF9198
:10165000CF911F910F9108950F931F93CF93DF9315
:10166000D62F172FC82FC901272F201B022FBA01F1
:101670000E947E0A982F990F990F782F791B700F6F
:10168000719F712D11246D2F8C2FDF91CF911F91A0
:101690000F910895E82F86FDE0952E2F2F7086FD7F
:1016A0002F5FE695E695E695E670F0E0EE54FE4F86
:1016B0009181929F902D212D112492959F702295BA
:1016C000207F922B2081920F87FD919580E8890FD2
:1016D00008950F931F93CF93DF938B01D82FC42FBF
:1016E000822F0E944A0BEC2FF0E0EE0FFF1FE25F0B
:1016F000FD4F90819058890F87FD8195880F682F45
:101700002CE0629F612D1124600F712F8D2FDF91CE
:10171000CF911F910F910895AC018230910508F48B
:1017200008959FEF413E8EE1580740F49A0195E0FD
:10173000369527959A95E1F798E0920F61E0E62FAC
:10174000E90FFF27FF1F9F0135952795822F229FC5
:10175000F001239FF00DF00D11244E175F0738F4B0
:101760009FEF920F961758F78FEF860F08952F3F30
:10177000E9F361E0620FF6CF0F93CF93DF93D72F9A
:10178000C82F47FD419588E390E0841B910947FDF0
:101790009395889FB001899F700D700D1124229F31
:1017A000C001239F900D900D1124860F971F0E945A
:1017B0008C0B982F990F890F682F600F7D2F8C2F1E
:1017C000DF91CF910F91089530E020E0869F212D89
:1017D000969F200D311D1124C9010895AF92BF922B
:1017E000CF92DF92FF920F931F93CF93DF93362F09
:1017F000472FE82FF0E0E654FA4F71110FC0E49143
:101800008E2F2E2F6E2F722FDF91CF911F910F9160
:10181000FF90DF90CF90BF90AF900895C72FD0E09A
:101820002491F22E022F10E056E0659FC001112492
:10183000EFEFF0E0BF010E941E34832F90E0880F8D
:10184000991F35E5369FD001379FB00D11248A1BB3
:101850009B0B982F990F980F6F01CC1ADD0AC09E31
:10186000D001C19EB00DD09EB00D11248B2F499F89
:10187000A0011124452F55276F01C41AD50AC09E17
:10188000A001C19E500DD09E500D11245F01A91AD8
:10189000B108AC9E6001AD9ED00CBC9ED00C112452
:1018A000CD2CDD24EC19FD09E09FE001E19FD00D76
:1018B000F09FD00D1124ED2F62307105A1F050F48E
:1018C0006115710509F49ECF6130710581F0EB2F30
:1018D000852F98CF6430710569F080F0663071050E
:1018E00009F490CFF4CFE22F2B2F8D2F8BCFE22F47
:1018F000252F88CFEB2F822F2D2F84CF2B2F8F2DAD
:10190000E52F80CF2F923F925F926F927F928F92BE
:101910009F92AF92BF92CF92DF92EF92FF920F937E
:101920001F93CF93DF93CDB7DEB72A970FB6F89406
:10193000DEBF0FBECDBF8B837E836D8320914401BC
:101940002295207F2F83205F29832A832D3410F056
:101950003CE43A83809171058C83FF81EF2FF0E0A6
:10196000FA87E987CF01880F991F9C01225F3D4FBD
:1019700069013B81832F90E0FC013196F887EF836A
:101980008A8199859817E8F081E0E981EC3408F0C4
:1019900080E02A960FB6F894DEBF0FBECDBFDF9170
:1019A000CF911F910F91FF90EF90DF90CF90BF905C
:1019B000AF909F908F907F906F905F903F902F900F
:1019C0000895E985FA85EA55FD4F8081909145019A
:1019D0008923F1F02090A9053090AA052F81388540
:1019E0002F583A4F39015B8010E0FC815F16D0F030
:1019F0002091AB05129F112D1124B101812F0E945E
:101A0000EE0B462F282F672F89859A850E947B0A27
:101A100029853A852F5F3F4F3A87298732E0C30EE9
:101A2000D11CAECFF30181913F01F601A080A81A2D
:101A3000BB088180F3018185881A9908AA9C9001CE
:101A4000AB9C300D300D1124889CC001899C900DF9
:101A5000900D1124820F931F0E948C0B082F609110
:101A6000AC0521E0620F08F46FEFF301EE0FFF1FEA
:101A7000E157F540838D948D0E94E40B7C01940125
:101A8000A501B101812FED81FE8109951B015394C0
:101A9000182FABCFB0E0A0E0E0E5FDE00C94F1330F
:101AA0008C01C0914401C295C07F20E1D22EDC0E92
:101AB000CD2C2CE42D1510F49CE4C92E2091AC05FE
:101AC00031E0230F08F42FEF30E050E040E06FEFFB
:101AD0007FEF80E090E00E9410357901D0E02C2F5C
:101AE000CC1550F081E0FBE4FD1508F480E0CDB7A3
:101AF000DEB7E8E00C940D34FE01EA55FD4F80811D
:101B000090914501892311F1409171054150042EB6
:101B1000000C550B47FF1CC0C7016091AC0521E0CC
:101B2000620F08F46FEF0E94E40BAC016091A9050D
:101B30007091AA058091AB05F80109950E94EE0B02
:101B4000462F282F672FCE010E947B0A2196C7CFF0
:101B5000FA01EF58FA4F858982130AC0FA01EE0F95
:101B6000FF1FEF58FA4F878D90A18E159F05A8F2A1
:101B700041505109CFCFB0E0A0E0E1ECFDE00C9482
:101B8000F2337C01C0914401C295C07F10E11C0F6B
:101B9000012F1D3408F00CE46091AC056695669544
:101BA00021E0620F08F46FEF80916D0590916E0552
:101BB0000E94E40BD82ED0E0C01748F081E01C341E
:101BC00008F080E0CDB7DEB7E7E00C940E34FE01FC
:101BD000EA55FD4F808190914501892391F06091F4
:101BE000A9057091AA058091AB052D2D4C2FF70109
:101BF00009950E94EE0B462F282F672FCE010E94D9
:101C00007B0A2196D9CFB0E0A0E0E9E0FEE00C9499
:101C1000EE336C01C0914401C295C07F10E11C0FEE
:101C2000B12E1D3410F03CE4B32E6091AC056695E6
:101C3000669580916D0590916E050E94E40BF82EDB
:101C400080E48F0D0E944A0B90E8A92EA80E8F2DDC
:101C50000E944A0B20E8922E980ED0E0CB1548F057
:101C600081E01C3408F080E0CDB7DEB7EBE00C94E7
:101C70000A34FE01EA55FD4F808190914501892388
:101C8000A1F06091A9057091AA058091AB05EF2C98
:101C90000C2F292D4A2DF60109950E94EE0B462F97
:101CA000282F672FCE010E947B0A2196D7CFB0E064
:101CB000A0E0EDE5FEE00C94EC335C01C091440142
:101CC000C295C07F10E11C0FF12E1D3410F03CE4D2
:101CD000F32E6091AC05669580916D0590916E052F
:101CE0000E94E40B782ED0E0CF1548F081E01C3440
:101CF00008F080E0CDB7DEB7EDE00C940834FE01CB
:101D0000EA55FD4F8081909145018923C9F1CE01AB
:101D1000880F991F86549E4FFC01EC5AFF4F20817B
:101D2000422F4057550B6A018B5A9F4FFC0180810F
:101D3000282F2052330B4901449F9001459F300DBD
:101D4000300D1124889CC001899C900D900D1124A8
:101D5000820F931F0E948C0B082F6091A905709130
:101D6000AA058091AB05E72C9401A601F501099520
:101D70000E94EE0B462F282F672FCE010E947B0A70
:101D80002196B2CFB0E0A0E0E8ECFEE00C94F13395
:101D90007C01C0914401C295C07F10E11C0FD12E7F
:101DA0001D3410F03CE4D32E6091AC056695809113
:101DB0006D0590916E050E94E40BC82ED0E0CD1504
:101DC00048F081E01C3408F080E0CDB7DEB7E8E0F1
:101DD0000C940D34FE01EA55FD4F80819091450130
:101DE000892311F1CE01880F991F86549E4FFC0163
:101DF000EB5AFF4F20812052330B8C5A9F4FFC012E
:101E000040814057550B6091A9057091AA058091BA
:101E1000AB050C2DF70109950E94EE0B462F282FDC
:101E2000672FCE010E947B0A2196C9CFEF92FF92C5
:101E30000F93CF93FB01833821E7920708F084C00A
:101E4000833751E7950708F09FC1843661E796070D
:101E500050F5873571E7970708F051C1853521E7BF
:101E6000920760F48B3451E7950708F02EC1833058
:101E700061E7960708F0DAC0C1E021C1853571E756
:101E8000970709F42FC186359147B1F785818823DB
:101E900009F4E6C08091E406982F9F70993008F00D
:101EA000DFC09F5F2AC1813751E79507A0F58636CD
:101EB00061E7960708F041C1843671E7970709F496
:101EC0002AC185369147C1F68581882309F4C8C0A7
:101ED0002091E406822F8595859585958595863098
:101EE0000CF0BEC091E0980F9295907F95959595D6
:101EF00095959595392F3295307F2F70232B209310
:101F0000E40618160CF0ACC097FFAAC08295807F3B
:101F1000922F9F70E3C08137980709F41CC1823764
:101F2000914709F0A9CF8581882309F499C0809150
:101F3000E506982F9F779F3709F492C0933708F0F2
:101F400021C1935F9F7705C1893871E7970709F42D
:101F500073C1B8F5853851E7950709F445C1D8F440
:101F6000833871E7970709F421C18438914709F054
:101F700083CF8581882309F473C02091E506322F31
:101F8000331F3327331F9091E606892F8770880F00
:101F9000832B8F5F1CC13091E5062091E6064581B9
:101FA000873851E7950709F43DC108F42EC1411166
:101FB0004FE7832F881F8827881F2770220F62E42E
:101FC0002DC18C3871E7970709F456C180F48A381F
:101FD00051E7950709F43FC18B38914709F04CCF81
:101FE0008581811147C18FEF8093AA0339C08E3854
:101FF00071E7970709F476C108F45FC18F389147FC
:1020000009F03ACFC5818091E506982F991F99274D
:10201000991F8091E6068770880F892BCC2309F4DD
:1020200071C16FEF7FE10E9470041AC00091E50654
:10203000202F221F2227221F4091E6064770440FBF
:10204000422B0F77C5812DEF280F30E0B901655580
:102050007C4F7B01FB012081CC2309F12F3F11F044
:10206000C0E02DC09091E406C92FC595C595C595D2
:10207000C595C3509F70FCE09F9FC00D1124C80FF1
:102080002C2F2F774069E091F705F091F80563E078
:1020900070E087EF95E00995F701C083E1CF2F3F0E
:1020A00059F02F774068E091F705F091F80563E06B
:1020B00070E087EF95E009958FEFF70180838C2F13
:1020C000CF910F91FF90EF9008952581222341F247
:1020D0008B54982F9F708091E406807F892B80938A
:1020E000E406BECF8581882309F4BACF8091E40647
:1020F000982F9F7009F4B4CF915F9F70EECF258128
:10210000222309F4ADCF8D55982F9295907F809121
:10211000E4068F70E3CF8581882309F4A1CF8091F5
:10212000E406982F95959595959595959B3F0CF47C
:1021300097CF915F9295907FECCF2581222309F470
:102140008FCF86569CE0899F902D11249F77809198
:10215000E506807815C08581882309F481CF8091B8
:10216000E506982F9F7709F47BCF80789F3721F47D
:1021700085678093E50674CF9D30D8F39D509F7797
:10218000892BF7CF8F67F5CF2581222309F468CFFC
:1021900083579091E50680FB97F99093E506869525
:1021A00087709091E606987F892B84C0858188236B
:1021B00009F456CF2091E506322F331F3327331F02
:1021C0009091E606892F8770880F832B815F382FC7
:1021D0003F7080FB27F92093E506832F8695987F33
:1021E000982B9093E6063CCF8581882309F438CF5D
:1021F0009091E506991F9927991F8091E6068770AF
:10220000880F40E06BE7892B0AC041114FE7832F0D
:10221000881F8827881F2770220F60E4822B0E9466
:1022200089041ECF41114FE7832F881F8827881FFD
:102230002770220F61E4F2CF858140E081114FE7E2
:102240009091E506991F9927991F8091E60687705E
:10225000880F63E4D8CF858140E081114FE79091EA
:10226000E506991F9927991F8091E6068770880FC8
:1022700064E4C9CF81E0B8CE8581882309F4F0CE2B
:102280009091E606292F2695269526952F7081E0B8
:10229000820F8F70880F880F880F9778892B809313
:1022A000E606982F987709F0DBCE220F220F220F37
:1022B0008778822B8093E606D3CE8581882309F424
:1022C000CFCE8091E606982F987709F4C9CE982F43
:1022D000969596959695915F9F70990F990F990F86
:1022E000877862CFC5818091E506982F991F99273D
:1022F000991F8091E6068770880F892B60E070EE49
:10230000C11191CE70E060E00E947004D8CE84E0EC
:102310008093E4068FE78093E5068091E606807857
:1023200080648093E606EBEAF3E08FEF819393E01D
:10233000E33FF907D9F71092A9031092AA0310926C
:10234000A8031092A703089508950895982F907FE9
:10235000903BE9F040F49039D1F0903AC1F09038D8
:10236000B1F080E00895903D19F020F4903CC9F759
:1023700082E00895903E59F0903F99F7815F8F3049
:1023800080F7E82FF0E0ED55FE4F8081089583E05F
:102390000895A7E0B0E0EFECF1E10C94F1338C018B
:1023A00008511F4F80912905843009F087C0809122
:1023B0003B018F708093E9008091E80082FF7EC02E
:1023C0008091E80085FF7AC00E94E705811113C063
:1023D00084E0E82EF12CCE0101966C018091E8009A
:1023E00085FD61C08091E8008B778093E8000E94B2
:1023F000E705882399F38091E80085FD05C0809169
:10240000E8008B778093E800FA808F2D0E94A61158
:10241000282FFD828B818E838C818F8321110BC0AD
:102420008981843041F1873031F1863031F121E00A
:10243000853009F0B7CF30E0E5E0F0E0EC0FFD1FAC
:10244000E30FF11DF0804FB7F894D8011196EC918D
:102450001197F0E0CF01019612966C9170E00E9406
:102460003234D8015C915817190649F44FBF3F5FC9
:10247000321710F397CF23E0DECF22E0DCCF1396A4
:102480008D919C911497E80FF91FF08211968C9111
:10249000119790E0019612966C9170E00E94323490
:1024A000F8018183E3CF8091F100D6018D936D0116
:1024B000B1E0EB1AF10809F091CF9DCF2796E8E043
:1024C0000C940D34A4E0B0E0E8E6F2E10C94F233B1
:1024D0007B01142FD22E4A832B830C83842F0E94DE
:1024E000A61181113AC082E0E816F10489F183E077
:1024F000E816F10441F081E0E816F10429F5173FF0
:1025000029F485E004C087E0073F09F084E089836F
:10251000809129058430C1F4809136018F708093B9
:10252000E90050E040E064E070E0CE0101960E94D6
:102530001806811109C08091E80085FD05C08091D1
:10254000E8008E778093E8002496E7E00C940E3440
:1025500087EFD812DBCF86E0DACF12951F70198390
:10256000D7CF80E00895F894E82FE295EF70F0E07F
:1025700031A1282F2F7081E090E001C0880F2A95AB
:10258000EAF7982F9095932391A392A1892B82A388
:10259000789408959091840392FF06C0282F2871A3
:1025A0002830F9F4877F846093FF06C0282F2871B4
:1025B0002831F1F4877E84612091850320FF06C0D5
:1025C000382F38713830D9F4877F816021FF06C0F9
:1025D000282F28712831D1F4877E816194FD877E70
:1025E0000895282F24712430F9F68B7F8860DCCF82
:1025F000282F2471243101F78B7E8861DDCF382F9D
:102600003171313019F78E7F8860E0CF282F21712A
:10261000213121F78E7E8861E1CF82389105B9F1B1
:10262000B0F48133910509F47DC048F489329105F5
:1026300009F46DC08A32910509F47BC00895853391
:10264000910509F45FC08933910509F10895833E2E
:102650009105D9F138F4803E910529F1823E91052A
:1026600079F10895863E9105D9F1873E910509F4E7
:102670003EC0843E910541F52091850321FF24C091
:102680008091840384FD19C087EE90E00895209125
:102690008403237009F05AC02091850323FF14C0DE
:1026A00089E290E008952091840320FD38C03091A4
:1026B000850330FF09C024FF43C090E080E0089507
:1026C0002091840322FDF7CF08952091840322FDF9
:1026D0003AC03091850330FD39C024FFF5CFEDCFEE
:1026E0002091840323FFF0CF24FDE7CFCDCF2091AD
:1026F000840323FD2EC03091850331FFEECF84EE9D
:1027000090E008952091840325FFDECFC9CF20916A
:10271000840325FD21C02091850323FFD5CF89E3C4
:1027200090E0D2CF2091840326FFCECF8AE290E0C2
:1027300008952091840326FFC7CF81E390E0089598
:1027400083EE90E0089582EE90E0089580EE90E0B0
:10275000089586EE90E0089585E390E00895972F20
:102760007C30B8F4673078F5863080F570E027E08B
:10277000929F600D711D1124FB0194E5899FE00D6E
:10278000F11D1124EE0FFF1FEE54FE4F8591949121
:1027900008957D3F59F4611116C08630B8F424E0E5
:1027A000829FF0011124EE55FA4FF0CF7C3F59F48F
:1027B000611109C0863050F494E0899FF001112422
:1027C000EC55FA4FE3CF80E090E0089581E0FCCF34
:1027D0001F93CF93DF930E940D13EC01C11580E589
:1027E000D807F0F5C11580E4D80708F0AAC0C03EAC
:1027F000D10520F5CD3CD10508F090C0C83AD105EF
:1028000078F4C53AD10508F081C0C130D10519F17D
:10281000209709F1C430D105F0F4D0E0C0E01BC02E
:10282000C33CD105D0F7C85AD0E0CC0FDD1FC25B46
:10283000DE4F0990D881C02DD4640DC0C11580E24F
:10284000D80708F0C9C0C11581E0D80708F068C0F2
:10285000C83ED10510F7CE01DF91CF911F910895A9
:10286000C03682E5D80718F5C03482E5D80708F0ED
:1028700079C0C03282E5D80708F06DC0C11582E585
:10288000D80708F48FC02C2F2695269580E2289F24
:10289000900111248C2F8370C1E0D0E002C0CC0FD6
:1028A000DD1F8A95E2F7C22BD32BDD68D4CFC03C65
:1028B00082E5D807F8F4C03A82E5D80708F067C087
:1028C000C03882E5D80708F0A8CF2C2F269526958A
:1028D000277080E2289F900111248C2F8370C1E023
:1028E000D0E002C0CC0FDD1F8A95E2F7C22BD32BBC
:1028F000DA68B1CFC03E82E5D80708F08ECFDC2F72
:10290000CC27CC27DF71C06FD06AA5CFC55AD0E0E5
:10291000C55BDE4FC881D0E0D0649DCFD0659BCF32
:102920008D2F0E94CA12182FCE0199270E940D13D5
:10293000C12FD0E0DC2FCC27CC27DF71C82BD92BBF
:102940008ACFCE0199270E940D13CC27DF70C82BA8
:10295000D92BD06A80CFCF71D0E0DC2FCC27C16FCC
:10296000D06A79CF2C2F26952695277080E2289F54
:10297000900111248C2F8370C1E0D0E002C0CC0FF5
:10298000DD1F8A95E2F7C22BD32BDC6864CF8C2F36
:102990008F710E94CA12C82FD0E0DC2FCC27CC2721
:1029A000DF7159CF8C2F8F710E94CA1255E0D695D6
:1029B000C7955A95E1F7CF70D0E0DC2FCC27282FB0
:1029C00030E084FF05C044E0220F331F4A95E1F751
:1029D000C22BD32BD0693FCF8D2F8F710E94CA128B
:1029E000182FCE0199270E940D13C12FD0E0DC2FA4
:1029F000CC27CC27DF71C82BD92BD0622CCF80916C
:102A00006C0590913305981301C008958F5F87700E
:102A1000FACFB0E0A0E0EFE0F5E10C94F0337C01F8
:102A200000912A0410912B0480914003909141035E
:102A3000082B192BCFE0D0E0CC24C394D12CBC2E92
:102A4000C6010C2E02C0880F991F0A94E2F780235A
:102A50009123892B49F4219790F7B12C8B2DCDB779
:102A6000DEB7E9E00C940C34B7018C2F0E94AF1351
:102A70000E94E813019779F3F1CFCF93DF93EC0134
:102A80000E940915BE010E94AF130E94E813DF9156
:102A9000CF910895A82FA77023E0969587952A9542
:102AA000E1F7880F991F880F991FFB01E80FF91FA5
:102AB00050E040E080E0219130E00A2E02C03695DF
:102AC00027950A94E2F721703327042E01C0220FC4
:102AD0000A94EAF7822B4F5F5F4F4430510559F754
:102AE0000895292F9C3068F4873090F490E063E0DB
:102AF00073E037E0239F800D911D11240E944A1539
:102B000008952C5F223020F46FEF72E090E0F6CF52
:102B100080E00895262F277091E001C0990F2A9533
:102B2000EAF723E0769567952A95E1F7660F771F18
:102B3000660F771FFA01E60FF71F50E040E0682F9D
:102B400070E08191DF0111979B01042E02C0369540
:102B500027950A94E2F72170219528272923282711
:102B60002C934F5F5F4F4430510559F70895282F3C
:102B7000862F9C3070F4273058F4622F70E027E0E5
:102B8000929F600D711D112443E053E00E948A154D
:102B900008959C5F9230E0F7622F70E04FEF52E0B3
:102BA000F5CF90932B0480932A04089521E030E020
:102BB00002C0220F331F8A95E2F72095309580914D
:102BC0002A0490912B04822393230E94D115089507
:102BD00021E030E002C0220F331F8A95E2F7809196
:102BE0002A0490912B04822B932B0E94D1150895D7
:102BF00090934103809340030895FC012481222394
:102C0000C1F0808191810E943D1592959F70963010
:102C100091F058F4925F9F70923058F4803F19F011
:102C200030F4883E30F481E008959A5FF4CF843F19
:102C3000D1F380E00895883EB0F3813FD1F7F3CF20
:102C4000A6E0B0E0E6E2F6E10C94F63349835A835D
:102C500049815A819923A1F0222391F0CA010E944F
:102C60000915182F682F89819A810E94B7156981EB
:102C70007A81812F0E94AF132696E3E00C941234E0
:102C8000CA010E947115182FF2CFEEEAF5E08FEF1E
:102C9000819395E0E73FF907D9F78091E406807FBB
:102CA00082608093E4068091E50680788567809352
:102CB000E5060895A7E0B0E0E0E6F6E10C94EA331B
:102CC000E82E86E8A82E83E0B82E10E095E0692E65
:102CD0004E0183E0880E911C55245394F5017190A8
:102CE0005F01772091F100E0FF24F394872D8F217D
:102CF00041F1F401862D11928A95E9F709831A832F
:102D00000E946B07682F8B839C835D82EE8221E09B
:102D100049815A81792F81E09E2D0E9420166C01F5
:102D200080549E478934910530F44E81B6018091DC
:102D3000FC020E942704BE016F5F7F4FC6010E9404
:102D4000160F0F5FFF0C073089F61F5F1C3031F63E
:102D50002796EFE00C9406349B01BA019091290567
:102D60009430E1F48093E9009FEF8091E800915066
:102D700085FD06C085ED8A95F1F700009111F5CF2C
:102D80008091E80085FF0AC050E040E0C9010E9440
:102D900018068091E8008E778093E800089543E05C
:102DA00050E0BC0182E00E94AC160895CF93DF93FF
:102DB000EC0148E050E0BC0181E00E94AC1688E0E4
:102DC000FE01AFE1B5E001900D928A95E1F7DF9148
:102DD000CF910895539A3BB1377F2BB128604FB7FD
:102DE000F8948DE294E0FC015191CF0168E02BB999
:102DF000000000C057FF3BB9550F000000C000C0E5
:102E000000C03BB900C06A9591F7F5E081319F079A
:102E100051F74FBF8FE594E00197F1F700C0000034
:102E20000895B0E0A0E0E7E1F7E10C94EF337C0116
:102E30005B016A0180916E0301E010E08A3010F4BA
:102E40000AE010E0C1E0D0E0B501C701F601099544
:102E5000811104C021960C171D072CF4CDB7DEB7E5
:102E6000EAE00C940B34CC9F9001CD9F300D300DD7
:102E7000112490E080E045E34A95F1F700000196C7
:102E800082179307C1F7E0CF80914E03811119C0DB
:102E900088EC90E02091E30027FD10C0EFE3FCE90F
:102EA0003197F1F700C000000197A1F782E080930D
:102EB0004E030E94C8051092290503C081E080934B
:102EC0004E0381E090914E03913011F080E008951F
:102ED00008950E944417882359F0E0911305F0915A
:102EE0001405309729F00190F081E02D099508959F
:102EF00080E008950F931F930E944417882329F0C0
:102F00000E945F071F910F9108950E945F07009133
:102F10006F03109170032091710330917203600F61
:102F2000711F821F931FEECFCF92DF92EF92FF921D
:102F30006B017C010E9444178823A1F02FB7F894FD
:102F4000609118057091190580911A0590911B05E3
:102F50002FBF6C197D098E099F09FF90EF90DF90BC
:102F6000CF9008950E947A17F4CF0E947A1708959F
:102F7000E8EAF5E081E3808380914801909149017E
:102F8000A0914A0181839283A3838FE784838FEF8B
:102F9000858346E050E06CE170E0CF010E94DC34B4
:102FA0001092A7050895B0E0A0E0E9EDF7E10C94D8
:102FB000F133182F80914201811323C09091A8050D
:102FC00093702091410130E081E09217130609F4DB
:102FD00080E08170809346018091AD05909145011C
:102FE000981739F08093450140E060E080E00E944E
:102FF000780A163290F4E12FF0E0EB58FA4C0C947A
:10300000463481E0E6CF80914601882309F4F9C077
:1030100040E060E080E00E94780A80E0F2C0C09169
:103020004401C295C07F00E10C0FF02E0D3410F06A
:10303000FCE4FF2E6091A9057091AA058091AB0573
:103040000E94EE0BE62ED72EC82ED0E0CF1528F02A
:1030500081E00C3408F4D5C0E0CFFE01EA55FD4F05
:10306000808190914501892331F02C2D4E2D6D2DBD
:10307000CE010E947B0A2196E9CFC0914401C295FE
:10308000C07F00E10C0FE02E0D3410F0ECE4EE2ECA
:10309000D090AA05C090AB052091AC0570E4F72E46
:1030A0003F2D329F312D1124F32ED0E0CE1580F626
:1030B000FE01EA55FD4F8081909145018923B9F0C9
:1030C000FE01EE0FFF1FE15FFD4F808182958F7043
:1030D0006091A9058F9D600D11247D2D8C2D0E947E
:1030E000EE0B462F282F672FCE010E947B0A2196D8
:1030F000DDCFC0914401C295C07F00E10C0FE02EEE
:103100000D3410F05CE4E52ED090AA05C090AB051C
:103110002091AC0540E4F42E3F2D329F312D112437
:10312000F32ED0E0CE1508F093CFFE01EA55FD4F07
:103130008081909145018923D9F0FE01EE0FFF1F98
:10314000E25FFD4F6081F69EB001112435E0759578
:1031500067953A95E1F78091A905680F7D2D8C2D33
:103160000E94EE0B462F282F672FCE010E947B0A6C
:103170002196D8CFC0914401C295C07F00E10C0FC9
:10318000F02E0D3410F09CE4F92EE090A905D091BA
:10319000AA05D090AB056091AC05669566956695DD
:1031A00080916D0590916E050E94E40B0E944A0B80
:1031B000805887FD8195880F282F3D2D239F212D35
:1031C0001124822F6E2D7D2F0E94EE0BE62ED72E1E
:1031D000C82ED0E0CF1508F03BCFFE01EA55FD4FD9
:1031E000808190914501892331F02C2D4E2D6D2D3C
:1031F000CE010E947B0A2196EDCF8FE49AE00E94D7
:10320000BB0D909144019F5F9093440181110CC0CC
:1032100082E08093470180914601811105C0111120
:1032200003C083E080934701CDB7DEB7E8E00C949C
:103230000D3485E29AE0E3CF8CE29BE00E94C20E5F
:10324000E0CF8DE09BE0FACF82EF9AE00E94570E2C
:10325000D8CF86ED9AE0FACF83E29AE0D0CF8AE128
:103260009AE0CDCF81E19AE0CACF88EF99E0C7CF4D
:103270008AEE99E0EBCF8CEB9BE0E0CF85EC9AE017
:10328000DDCF81EB9AE0E2CF8DEB99E00E94030E57
:10329000B8CF8FE899E0FACF88E599E0F7CFC091F1
:1032A0004401C295C07F00E10C0FF02E0D3410F0E8
:1032B0008CE4F82ED090AA05E090AB05D091A9053A
:1032C0006091AC0566956695669580916D059091C7
:1032D0006E050E94E40B0E944A0B805887FD819581
:1032E000880F682F2CE0629F612D11246D0F7D2DBA
:1032F0008E2D0E94EE0BE62ED72EC82ED0E0CF15D5
:1033000008F0A6CEFE01EA55FD4F8081909145015F
:10331000892331F02C2D4E2D6D2DCE010E947B0A7C
:103320002196EDCF89E69BE06ACF87E499E067CFED
:1033300080E499E00E944A0D64CF8AE399E0FACFD5
:103340008091710521E0382F321B08F430E0832F83
:1033500061E279E00E94820C54CF61E279E080E082
:10336000F9CF8091710521E0382F321B08F430E04D
:10337000832F66EE78E0EECF66EE78E0F0CF8091B6
:10338000710521E0382F321B08F430E0832F64EB05
:1033900078E0E0CF64EB78E0E2CF8091710521E046
:1033A000382F321B08F430E0832F6CE978E0D2CF5D
:1033B0006CE978E0D4CF8091710521E0382F321B81
:1033C00008F430E0832F66E878E0C4CF66E878E060
:1033D000C6CFC0914401CF5FC295C07F0E94983490
:1033E000D82F0E9498346D2F782F8091AB050E94C2
:1033F000EE0B482F872F0E94780A81E0CC3408F426
:1034000000CF0BCE4F925F926F927F928F929F92DE
:10341000AF92BF92CF92DF92EF92FF92CF936091E3
:1034200026047091270480912804909129040E9419
:1034300094176B017C010E947A174B015C0180920A
:10344000260490922704A0922804B0922904A09107
:10345000F303E3EFF3E08A2F90E04FEF5FEF60E0DC
:1034600070E04C195D096E097F09A9132AC0809389
:10347000F30380912C04C0E0811108C08091A8055D
:10348000C82FC37019F0C82FC695C6958091470103
:10349000813009F440C0882339F1823009F432C206
:1034A000833009F43AC2CF91FF90EF90DF90CF9034
:1034B000BF90AF909F908F907F906F905F904F9054
:1034C0000895278D30A12901712C612C44155505D3
:1034D0006605770520F481509F5F3296C6CF2C0D8C
:1034E0003D1D30A3278FF8CF1092440180926D05C7
:1034F00090926E05A0926F05B092700583E3E3EFA2
:10350000F3E0A1E7B5E001900D928A95E1F781E043
:1035100080934701C8CF8C2F0E94D317CC2319F278
:103520008091A805837009F4BECF20912A043091C0
:103530002B04832F9927009709F4C2C09C0188E0CF
:10354000A90174E0569547957A95E1F74115510523
:1035500011F08C5F9A01A9015695479556954795AC
:103560004115510511F08E5F9A0136952795232B51
:1035700009F08F5F882309F4A5C0853009F093CF47
:1035800020E049E163E38EE290E00E947B0A23E3BE
:1035900043E363E380E390E00E947B0A23E343E399
:1035A00063E38CE390E00E947B0A20E043E363E363
:1035B00089E490E00E947B0A20E043E363E388E42F
:1035C00090E00E947B0A20E043E363E381E090E027
:1035D0000E947B0A20E043E360E08DE090E00E94DF
:1035E0007B0A20E043E363E38EE090E00E947B0AE5
:1035F00020E043E360E089E190E00E947B0A29E15A
:1036000043E360E083E090E00E947B0A23E340E034
:1036100060E086E090E00E947B0A23E340E060E007
:1036200089E090E00E947B0A23E340E060E082E1D1
:1036300090E00E947B0A23E340E060E085E190E0B7
:103640000E947B0A23E340E060E08DE190E00E946D
:103650007B0A23E340E060E080E290E00E947B0A86
:1036600023E340E060E084E290E00E947B0A23E3F1
:1036700040E060E087E290E00E947B0A23E340E0C4
:1036800060E08FE190E00E947B0A23E340E060E08D
:1036900085E290E00E947B0A26E249E163E386E24C
:1036A00090E00E947B0A20E040E063E388E290E043
:1036B0000E947B0A20E049E163E389E290E01FC1B8
:1036C00080E03ECF23E343E363E390E080E00E94A9
:1036D0007B0A20E043E06DE083E090E00E947B0AFB
:1036E00021E04DE060E08BE090E00E947B0A24E066
:1036F00044E06DE080E190E00E947B0A21E04DE033
:1037000060E087E190E00E947B0A2CE04DE060E001
:103710008BE190E00E947B0A2DE043E067E082E2CB
:1037200090E00E947B0A21E040E06DE084E090E0C0
:103730000E947B0A2DE040E060E08AE090E00E9479
:103740007B0A21E040E06DE081E190E00E947B0A8D
:1037500020E043E06DE086E190E00E947B0A2DE0EE
:1037600040E060E08CE190E00E947B0A22E04DE0C6
:1037700067E081E290E00E947B0A2DE04DE06DE081
:1037800086E090E00E947B0A20E04DE06DE089E059
:1037900090E00E947B0A2DE040E060E082E190E052
:1037A0000E947B0A2DE04DE06DE085E190E00E94F3
:1037B0007B0A20E04DE06DE08DE190E00E947B0A05
:1037C0002DE040E067E080E290E00E947B0A21E08B
:1037D00040E06DE085E290E00E947B0A2DE043E04E
:1037E00067E08FE290E00E947B0A24E044E06DE015
:1037F00080E390E00E947B0A21E04DE060E081E3FD
:1038000090E00E947B0A2CE04DE060E082E390E0D3
:103810000E947B0A24E044E06DE083E390E00E9494
:103820007B0A21E04DE060E084E390E00E947B0AA7
:1038300021E040E06DE085E390E00E947B0A20E01B
:1038400043E06DE087E390E00E947B0A21E040E0E6
:103850006DE088E390E00E947B0A2DE040E060E0AC
:1038600089E390E00E947B0A20E043E06DE08AE378
:1038700090E00E947B0A21E040E06DE08BE390E065
:103880000E947B0A2DE040E067E08CE390E00E941C
:103890007B0A22E04DE067E08EE390E00E947B0A25
:1038A0002DE040E060E08FE390E00E947B0A2DE095
:1038B0004DE06DE080E490E00E947B0A20E04DE066
:1038C0006DE081E490E00E947B0A2DE040E060E042
:1038D00082E490E00E947B0A2DE04DE06DE083E4FD
:1038E00090E00E947B0A20E04DE06DE086E490E0ED
:1038F0000E947B0A21E048E06DE088E490E00E94AD
:103900007B0AD1CDC09342018091A805837080933A
:1039100041010E94EA1683E0FBCD8091A705882330
:1039200051F046E050E06CE170E088EA95E00E94DA
:10393000DC341092A70560916D0570916E05809141
:103940006F05909170050E94941760317105810593
:10395000910508F4A8CD10924701A5CDA4E0B0E0F0
:10396000E4EBFCE10C94F63340916A0350916B0355
:1039700060916C0370916D032FB7F89480911805D6
:1039800090911905A0911A05B0911B052FBF841BBA
:10399000950BA60BB70B11E084369105A105B10577
:1039A00070F10E947A176E5F7F4F8F4F9F4F698330
:1039B0007A838B839C838091250190912601835A81
:1039C0009C4F4091240150E04530510510F044E0F7
:1039D00050E0BE016F5F7F4F0E94B53484E090E0FD
:1039E0000E947133182F882351F00E945F07609363
:1039F0006A0370936B0380936C0390936D03812F24
:103A00002496E3E00C9412344F925F927F928F924F
:103A10009F92AF92BF92CF92DF92EF92FF920F935D
:103A20001F93CF93DF930F92CDB7DEB7C62E4A0117
:103A30005901482E880F5508C2010E947133782E13
:103A4000882309F480C0C20133E0880F991F3A959A
:103A5000E1F7FC01EC5FFE4F438150E04115510559
:103A600011F041E050E08C5F9E4FFC016481758154
:103A7000635A7C4FCE0101960E94B534F401408117
:103A80005181628173812FB7F894809118059091CC
:103A90001905A0911A05B0911B052FBF841B950B2A
:103AA000A60BB70B84369105A105B10540F4B7010B
:103AB000C8010E94DB079981891709F444C00C2CC6
:103AC000000CDD08C6010E947133782E811113C0ED
:103AD000712C872D0F90DF91CF911F910F91FF9047
:103AE000EF90DF90CF90BF90AF909F908F907F909E
:103AF0005F904F900895C60123E0880F991F2A9583
:103B0000E1F7FC01EC5FFE4F438150E0E416F5065F
:103B100008F4A7018C5F9E4FFC0164817581635A94
:103B20007C4FC5010E94B534B701C8010E94DB0774
:103B300099818913CDCF0E945F07F401608371835F
:103B400082839383C6CFA701B801C5010E94B53413
:103B5000C0CFA6E0B0E0EFEAFDE10C94F1336B01D9
:103B600086E0E82EF12C0EE513E09E012F5F3F4F1B
:103B700045E553E061E080E00E94041D882349F0A0
:103B800096E0FE013196AFE4B3E001900D929A9574
:103B9000E1F796E0EFE4F3E0D60101900D929A95FB
:103BA000E1F72696E8E00C940D34A2E1B0E0EBEDED
:103BB000FDE10C94EC338E010F5F1F4F8CE0D801B8
:103BC0001D928A95E9F786E8C82E81E0D82EF12C5F
:103BD000E12CAA24A394B12C23E9822E21E0922E79
:103BE000F60181916F018F3F09F442C0F894E82FEC
:103BF000E295EF70F0E021A18F70A50102C0440FA3
:103C0000551F8A95E2F7CA01922F982B91A392A192
:103C10008095892382A3789400C0ECE8F1E0712CB0
:103C200031E021912F3F09F46BC0A22FA295AF7014
:103C3000B0E090968C9190E02F7002C0959587959A
:103C40002A95E2F780FD5CC0832F782A330F8E1609
:103C50009F0639F7F601319780818F3F11F00E945E
:103C6000B31250EA5A95F1F7F801EE0DFF1D70827C
:103C70008FEFE81AF80A96E0E916F10409F0B0CFE0
:103C80004CE050E0B80186E793E00E94A83400972A
:103C900041F02CE0F801A6E7B3E001900D922A95DF
:103CA000E1F700918303892B69F181E0809346035A
:103CB0000E946B07909345038093440380914403D3
:103CC000909145030E945007059700F110E00A57B4
:103CD0001C4F46E050E066E773E0C8010E94A8343C
:103CE000C12C892B51F086E0E6E7F3E0D801019082
:103CF0000D928A95E1F7CC24C3941092460307C035
:103D000080E0A3CF809146038111D8CFC12C0E94BF
:103D10004417D82EE0918303DE011D967D01882390
:103D200009F470C086E01D928A95E9F70E2F10E025
:103D30000A571C4F80916E038A3068F549EA5DE1AD
:103D4000B701C8010E941117882309F44AC049E04D
:103D50005BE2B701C8010E941117882309F441C032
:103D60004EEA5CE1B701C8010E9411178823C9F12E
:103D700010926E038091820390E046E050E0B7011C
:103D80008A579C4F0E94A83421E020934D03892B31
:103D9000B1F4D12C20C080914703909148030E9438
:103DA0005007843F914050F680914D03882389F35A
:103DB00086E0F70111928A95E9F710924D03A091E0
:103DC0008203B0E0AA57BC4F86E0FE013D96019009
:103DD0000D928A95E1F78D2D8C296296EDE00C9479
:103DE000083480916E038F3F31F08F5F80936E03B4
:103DF0008A3008F4BFCF0E946B07909348038093EA
:103E00004703D2CFF0E0EA57FC4F86E0AEE5B3E0DF
:103E100001900D928A95E1F766E070E08EE593E0FF
:103E20000E94DB0780935D034091A20350E0609104
:103E3000A10370E061567C4FC7010E94B5348D85A7
:103E40008093650361E070E0C7010E94DB07809307
:103E500064038090660390906703A0906803B0901D
:103E600069038091490390914A03A0914B03B0915B
:103E70004C0388169906AA06BB0609F48ACF8092DD
:103E8000490390924A03A0924B03B0924C030E94C4
:103E90004417D82E81117DCF0E945F07861A970A9A
:103EA000A80AB90A80926F0390927003A0927103DE
:103EB000B092720390CF80913F0390913E03892B83
:103EC0008093F40248E050E066E373E084EF92E010
:103ED0000E94A834892BA9F088E0E4EFF2E0A6E381
:103EE000B3E001900D928A95E1F7E0911305F0910E
:103EF0001405309731F00280F381E02D84EF92E0D9
:103F00000995089510923F03E6EFF2E086E0DF01A5
:103F10001D928A95E9F790E080E00E94B60790E054
:103F200080E00E94910710923E030E945B1F08955B
:103F3000AAE2B0E0EEE9FFE10C94F6338BE295E003
:103F40002091F100FC012193CF01F5E083339F071D
:103F5000B9F780912C05833009F470C0B8F4813032
:103F600009F447C0823009F4B1C08091E80083FFB2
:103F700088C280912B0590912C059A3008F081C25F
:103F8000E92FF0E0E556FA4C0C9446348A3009F4F7
:103F90008CC08B3009F46FC0893039F780912B05C4
:103FA000813219F780912F05909130050297E8F63C
:103FB0008091E800877F8093E8008091E80082FF8D
:103FC00038C09091F3008091F200029731F4809113
:103FD000F100813011F0863021F48091F10080935E
:103FE0001E058091E8008B778093E8000E944206CE
:103FF000BCCF80912B05813A09F0B7CF8091E800C2
:10400000877F8093E80080912F0590913005892B60
:1040100061F468E08FE195E070E00E94EE06809127
:10402000E8008B778093E800A0CF60E090E080E02C
:10403000F3CF809129058111C0CF97CF80912B05B7
:10404000813A09F092CF80912F0590913005892B0C
:1040500009F08BCF8091E800877F8093E800809102
:10406000E80080FFFCCF809143018093F1008091B4
:10407000E8008E77B9CF80912B05813209F075CF9A
:1040800080912F0590913005892B09F06ECF80919A
:10409000E800877F8093E8000E94420680912D050A
:1040A000809343010E94821F60CF80912B05813253
:1040B00009F05BCF8091E800877F8093E8000E9441
:1040C000420680912E0580931D054FCF80912B05D0
:1040D000813A09F04ACF8091E800877F8093E80019
:1040E0008091E80080FFFCCF80911D05BECF803815
:1040F00099F0823809F0C5C180912F058F70873003
:1041000008F0BFC18093E9008091EB0085FB882710
:1041100080F91092E90006C080912705909128054A
:10412000911182609091E800977F9093E8008093CE
:10413000F1001092F1008091E8008E779EC18823F3
:1041400009F48CC1823009F09CC180912D05811148
:104150008FC180912F058F702FEF280F263008F028
:1041600090C18093E9002091EB0020FF81C1933042
:1041700031F48091EB0080628093EB0079C19091E3
:10418000EB0090619093EB0021E030E001C0220F42
:104190008A95EAF72093EA001092EA008091EB00FA
:1041A0008860EACF81116DC110912D051F77809134
:1041B000E3008078812B8093E3008091E800877F83
:1041C0008093E8000E9442068091E80080FFFCCFC7
:1041D0008091E30080688093E30082E0111183E026
:1041E000809329054EC18058823008F04AC18091E1
:1041F0002D0590912E058C3D23E09207A1F583E0DB
:104200008A838AE289834FB7F894DE01139620E00F
:104210003EE051E2E32FF0E050935700E49120FF9D
:1042200003C0E295EF703F5FEF708E2F90E0EA30B1
:10423000C0F0C7968D939D932F5F243159F74FBFE0
:104240008091E800877F8093E8006AE270E0CE0109
:1042500001960E94EE068091E8008B778093E8003B
:1042600010C1C096E7CF40912F0550913005292FFE
:1042700033272330310509F444C078F52130310566
:1042800009F46FC08FE990E0ECE2F7E022303105ED
:1042900009F0F7C02091E800277F2093E8002091E3
:1042A0003105309132058217930708F49C0140E0F4
:1042B0002115310509F064C0411162C08091E80008
:1042C00082FDC9CF80912905882329F2853019F212
:1042D0008091E80083FFF2CFBECF21323105A9F1F2
:1042E0002232310509F0CDC04115510509F443C012
:1042F0004130510509F0C5C082E390E0EAEBF6E0F9
:10430000C9CF992781309105C1F0009759F00297E4
:1043100009F0B7C0EDEDF7E0E4918E2F90E0EDED00
:10432000F7E007C0EBE0F8E0E4918E2F90E0EBE0DF
:10433000F8E0009709F4A5C0ADCFEBEFF7E0E4910A
:104340008E2F90E0EBEFF7E0F4CF4115510571F0BF
:104350004130510509F095C089E090E0E7E5F7E0CC
:1043600099CF82E190E0EBECF7E094CF89E090E028
:10437000EEE3F7E08FCF80E490E0ECEEF6E08ACF5A
:1043800080912905882309F466CF853009F463CF2D
:104390008091E80083FD5FCF8091E80082FD8ECFA1
:1043A0008091E80080FF84CF9091F3008091F2002B
:1043B0002115310519F08830910550F041E008973A
:1043C00009F040E08091E8008E778093E80070CF9C
:1043D00044914093F1003196215031090196E8CF84
:1043E000803809F04EC08091E800877F8093E80014
:1043F00080912A058093F1009ECE811142C01091D8
:104400002D051230F0F58091E800877F8093E80059
:1044100010932A050E944206112311F084E005C082
:104420008091E30087FDFACF81E08093290542E087
:1044300061EC81E00E94610642E261EC82E00E9450
:10444000610642E361E883E00E94610642E360E8BE
:1044500084E00E9461068091290513C080912D059A
:10446000813079F481E0933009F080E08093280571
:104470001092E9008091E800877F8093E8000E9415
:1044800042068091E80083FF0AC08091E800877FA0
:104490008093E8008091EB0080628093EB00AA9605
:1044A000E3E00C9412340E94821F2FEF84E39CE01F
:1044B000215080409040E1F700C0000088E19AE080
:1044C0000FB6F894A895809360000FBE909360009B
:1044D000FFCF882341F0809590913F0389238093FB
:1044E0003F030E945B1F0895882339F090913F039A
:1044F000982B90933F030E945B1F08958823C1F17E
:104500009CEF980F913A78F4E6EFF2E091918913DD
:1045100003C0DF0111971C9242E0EC3FF407B1F7B2
:104520000E945B1F089590E2980F983088F487707E
:1045300021E030E0A90102C0440F551F8A95E2F73F
:10454000CA01809590913F03892380933F03E8CF70
:104550009BE5980F933028F490E080E00E94B60726
:104560000895885A8B3120F490E080E00E949107F2
:104570000895CF93C82F8823B1F08CEF8C0F813A28
:1045800000F5E6EFF2E08CEF92E0DF012D91C2172B
:1045900061F08A179B07D1F76C2F84EF92E00E949D
:1045A00077070E945B1FCF9108952191C21303C02A
:1045B000DF0111971C928E179F07B9F70E945B1FAE
:1045C000EBCF80E28C0F883068F4C77021E030E0D8
:1045D00001C0220FCA95EAF780913F03822B809396
:1045E0003F03DFCFEBE5EC0FE33040F4F0E0E55BB9
:1045F000FE4F808190E00E94B607D5CFC85ACB31DC
:1046000090F6EC2FF0E0EE0FFF1FE25BFE4F808193
:1046100091810E949107C7CF1F93CF93DF93182FEB
:10462000CAE0D0E0893311F4C0E5D0E0812F0E94C8
:10463000B9228FE99FE00197F1F700C000002197B0
:10464000C1F7812F0E947E22DF91CF911F910895A3
:104650000F931F93CF93DF93C62FD42F022FFC010C
:1046600085818823A9F06093A6050E946B0790932B
:10467000A5058093A405C77081E001C0880FCA9585
:10468000EAF70E947422DF91CF911F910F91089554
:104690008091A605681332C08091A4059091A5056C
:1046A0000E945007883C910548F510E21D0FCD1778
:1046B000B9F080E28C0F883040F4C77081E001C00F
:1046C000880FCA95EAF70E946922183048F481E001
:1046D0009D2F977001C0880F9A95EAF70E94742267
:1046E000802F0E940C23183070F6D77081E001C033
:1046F000880FDA95EAF70E946922C5CFC77081E07A
:1047000001C0880FCA95EAF7F6CF67EE7EEF90E01A
:1047100080E00E940A3560E082E090E00E94EC3484
:1047200060E083E090E00E94EC341092410310922C
:10473000400360E074E184E090E00E940A3560E0AC
:1047400086E090E00E94EC346FEF87E090E00E94FA
:10475000EC3440E050E0BA0188E090E00E94FE3482
:1047600060E08DE090E00E94EC3440E050E0BA015F
:1047700088E190E00E94FE3460E087E190E00E94D2
:10478000EC3440E050E0BA018CE190E00E94FE344D
:1047900070E060E080E290E00E940A3540E050E086
:1047A000BA0188E190E00E94FE340E9487110E94C5
:1047B00045168091A805837011F4109247018091ED
:1047C000A8058C7F81608093A8058091A7058160F2
:1047D0008093A7058FE78093AC054FEF6FEF8AEAD0
:1047E00090E00E94B3048AE10E949A0440E050E005
:1047F000BA0183E190E00E94FE340895B0E0A0E0A9
:10480000E4E0F4E20C94EF338C01FC018481882312
:1048100009F442C021E04081518162817381958118
:104820000E942016EC018230FEE79F0739F18130AB
:104830002EE7920709F4DEC0A0F481159E47B9F176
:10484000B801CE010E94160F882331F1FE01E85114
:10485000FC47E730F10508F0FEC0EB55FA4C0C942C
:10486000463480549E478934910550F7F8014581BC
:10487000BE018091FC020E9427040EC0F8018581D0
:10488000882379F080E00E945A1682E090E00E942E
:10489000D11581E00E945A16CDB7DEB7EAE00C943C
:1048A0000B3480E00E945A1681E090E0F0CFF801CE
:1048B0008581882389F3CCE5D1E08AE0A82EFE012A
:1048C0002491222349F3213009F03EC0319684918E
:1048D000813031F42296FE0184910E940C2307C09E
:1048E000823039F42296FE0184910E94B9222196E9
:1048F000E6CF833031F42296FE0184910E947E221D
:10490000F6CF843009F074C02296FE01249190E025
:1049100080E0FE0131962053330B2A30310548F0F8
:10492000019728F3EFE9FFE03197F1F700C00000AD
:10493000F7CFA89EA001A99E500D1124C901840F94
:10494000951F2491EF01E5CFE22FF0E0E452FF4FF5
:10495000B490822F86958695869590E0FC01E4536D
:10496000FF4FE4902770F12C022E02C0F594E794DB
:104970000A94E2F731E0E322FF24FC01E454FF4F04
:10498000C490D12C022E02C0D594C7940A94E2F7A9
:1049900041E0C422DD24FC01E455FF4F049110E006
:1049A00002C0159507952A95E2F701701127E114C9
:1049B000F10419F081EE0E94B922C114D10419F05A
:1049C00086EE0E94B9228B2D0E940C23C114D104C3
:1049D00019F086EE0E947E22E114F10419F081EEB6
:1049E0000E947E220115110509F481CF8CE275CF5A
:1049F000EF017DCFF8018581882309F44DCF8091A7
:104A0000FD0291E089278093FD02882319F090939D
:104A1000FC0242CF1092FC023FCF26E241EE61EE53
:104A2000C8010E94282338CF27E245EE65EEF8CF73
:104A300026E241EE60EEF4CF27E245EE64EEF0CFE1
:104A400026E241EE62EEECCF27E245EE66EEE8CFDD
:104A500028E241E0EBCFF8019581992309F40BC3DB
:104A60001092A6059E0130572332310508F0EDC2A1
:104A700084E090E00E94D634909385038093840371
:104A8000FE01E150F047E232F10520F4E455FA4C22
:104A90000C9446348091840381608093840395C094
:104AA000809185038860809385038FC08091840303
:104AB0008260F3CF809184038460EFCF8091840380
:104AC0008860EBCF809185038160EDCF8091850375
:104AD0008260E9CF809184038061DFCF809184037D
:104AE0008062DBCF809184038064D7CF0E94821FD5
:104AF000809184038068D1CF809184038C60CDCF76
:104B0000809185038360CFCF809184038E7FC5CF52
:104B100080918503877FC7CF809184038D7FBDCF30
:104B2000809184038B7FB9CF80918403877FB5CF39
:104B3000809185038E7FB7CF809185038D7FB3CF22
:104B4000809184038F7EA9CF809184038F7DA5CF30
:104B5000809184038F7BA1CF0E94821F8091840368
:104B60008F779BCF80918403837F97CF809185033C
:104B70008C7F99CF8091840382FB992790F921E063
:104B8000922790FB82F990FB83F987CF8091850370
:104B9000982F909591708E7F892B90FB81F983CF10
:104BA00090918403892F8F7B96FF806476CF0E943B
:104BB000821F90918403892F97FB87F980586DCFCE
:104BC00061E08EE090E00E94EC346091840370918B
:104BD000850384E090E00E940A350E94821F5CCE2B
:104BE00060E0EFCF90918403892F8F7E94FF8061E6
:104BF00054CF90918403892F8E7F90FF81604DCF99
:104C000090918503892F877F93FF88604CCF809197
:104C1000FE0281110EC089E2E6EFF2E09191891364
:104C200003C0DF0111971C9222E0EC3FF207B1F7BD
:104C30001FC285E3F1CF8091A80591E08927809379
:104C4000A805109247018091A70581608093A70570
:104C500023CE41E758E06BE778E00E94F1071CCED5
:104C60004BE758E061E778E0F8CF4DE558E067E6BC
:104C700078E0F3CF47E658E06DE578E0EECF43E427
:104C800058E060E578E0E9CF40E558E063E478E09B
:104C9000E4CF49E258E066E378E0DFCF46E358E04E
:104CA00069E278E0DACF4DE058E06BE178E0D5CF0B
:104CB0004BE158E06DE078E0D0CF81E00E949A04AB
:104CC000EBCD84E0FBCF8CE0F9CF81E1F7CF6FEF44
:104CD0007FEF90E080E00E940A350E945322F801A5
:104CE000C081D181992309F1CE010E940915F82EC6
:104CF000682FCE010E94B715BE018F2D0E94AF1301
:104D00000E94E813C82FD82EF801258136813295EC
:104D10003F70892F82958F70E82EF12C8C30E8F54A
:104D2000F701E253FA4C0C944634CE010E947115FF
:104D3000F82EE2CFD92FDF70907F11F0D295D07F7F
:104D40008C2F2223C9F0DD2369F090E29C0F98306C
:104D500010F0C1110BC080913F03D82BD0933F03BB
:104D60000E945B1F8C2F0E94B92217C080913E03C6
:104D7000D82BD0933E03F4CF0E947E22DD2369F02E
:104D8000D095C05EC83010F0D1101BC080913F0399
:104D9000D823D0933F030E945B1F98E0E91AF108E3
:104DA000E4E0EE16F10410F40E94691720E0F80127
:104DB0004081518162817381848195810E94201696
:104DC0006BCD80913E03D823D0933E03E4CF892F4F
:104DD0008F70907F903211F08295807FF1E0DF122A
:104DE0000CC0222329F03630C0F60E947422D5CFA1
:104DF000353098F60E946922D0CF222319F0332350
:104E0000A1F3B0CF3323B1F3C93309F016C12FEFAB
:104E100037EE43E0215030404040E1F700C0000051
:104E20008C2F0E947E22B9CF892F8695869583701C
:104E300061F0813009F0B1CF8C2F9370211102C045
:104E400080E090E00E949107A8CF8C2F93702111F1
:104E500002C080E090E00E94B6079FCF892F837048
:104E600009F042C0211199CF8C2F829586958770C9
:104E7000880F880F2C2F2F7030E0082E02C0220FD1
:104E8000331F0A94E2F750E040E0C4FF09C04FE04E
:104E900050E002C0440F551F8A95E2F740955095A7
:104EA0009695969593709230A9F080F460914003A6
:104EB00070914103913041F0C901842B952B8623D9
:104EC00097230E94F81569CF262B372BC901842B15
:104ED000952BF7CFC901842B952B2091400330915E
:104EE000410382279327EDCF8695222311F0892F46
:104EF0008170882309F451CF8C2F82958695877015
:104F0000880F880F2C2F2F7030E0082E02C0220F40
:104F1000331F0A94E2F750E040E0C4FF09C04FE0BD
:104F200050E002C0440F551F8A95E2F74095509516
:104F30009695969593709230A9F080F460912A042A
:104F400070912B04913041F0C901842B952B86235D
:104F500097230E94D11521CF262B372BC901842BF3
:104F6000952BF7CFC901842B952B20912A043091E2
:104F70002B0482279327EDCFD92FDF70222329F02E
:104F80008D2F0E94E8158C2F30CF8C2F0E94692224
:104F90008D2F0E94D61501CF8C2FE1EFCE1791F106
:104FA000EC1750F0F0EFCF17D1F02223D1F13111EF
:104FB000D9CE892F8F712AC042EFC41751F153EF18
:104FC000C513F3CF222351F19F7121E030E0F901A5
:104FD00002C0EE0FFF1F9A95E2F7CF01BACF22234E
:104FE00069F0353008F0D9CE292F2F7181E090E09B
:104FF00002C0880F991F2A95E2F7B7CF363008F024
:10500000CCCEF2CF892F8F71222319F20E94E8159E
:10501000C4CE892F8F712223C9F3BBCF90E080E0EB
:1050200098CF332379F0893341F4FFEF27EE33E053
:10503000F15020403040E1F7F1CE8FE39CE9019739
:10504000F1F7ECCE892F8F71A4CFC631FCE7DF07D3
:1050500029F580913F038A7A91E009F490E09093DA
:10506000FE0269E2811165E384EF92E00E94770716
:105070000E945B1F11CCC6312CE7D20709F4C7CDC3
:1050800080913F038272FE01E052F847E531F1055D
:1050900008F025CEE652FA4C0C944634C1303CE779
:1050A000D30709F41ACEC3304CE7D40709F40FCE66
:1050B000C115DC4709F013CE0E94821F3FEF44E385
:1050C0005CE0315040405040E1F700C0000087E70D
:1050D00097E7909301088093000888E19AE00FB663
:1050E000F894A895809360000FBE90936000FFCF66
:1050F000CF93DF9380913503807F09F04DC080917D
:105100003403882309F448C0E0916C0550913305BD
:10511000C0913003D0912F0360913103709132031D
:1051200047E05E17C9F18E2F90E0E49FF001112453
:10513000EC5CFA4F2481222391F1489FF001499FB2
:10514000F00D1124DF01AC5CBA4F11962C91119730
:105150002C1325C02C912D1322C015962C91159738
:1051600021111DC012962D913C91261B370B283C16
:105170003105A8F4809135038F70806180933503E9
:10518000E65CFA4F80818F70806180838FE293E0CC
:105190000E94FE230E94FF14DF91CF910895FC012D
:1051A0003196E770BECFA4E1B0E0E9EDF8E20C94EF
:1051B000ED338C0186E0F801DE011F9601900D921F
:1051C0008A95E1F7F8018481E5809091330391118C
:1051D00025C0882319F1EE20D9F0C8010E94FD15E1
:1051E000F82E8823A9F087E0F801AFE2B3E0019040
:1051F0000D928A95E1F780912F03909130030E94E0
:105200003D150E9478288F2D6496ECE00C940934AB
:10521000C8010E94FE23FF24F394F5CFF801D0804B
:10522000C180828093809FE2A92E93E0B92EF090F6
:1052300034032091310330913203A401421B530BFC
:10524000FF2009F4D8C0483C510508F091C08823DC
:10525000D1F29091300380913503282F207F09F0FF
:1052600055C0C91213C090912F039D110FC0E110BA
:1052700047C08F70806180933503C5010E94FE2373
:1052800080913503F8018683F12CBDCFE11038C041
:105290006C2D8D2D0E94C6046C2D8D2D0E94C60490
:1052A000E82E8111F1CFDF86C88A8F8598890E9408
:1052B0003D15292F22952F70243058F49F702230ED
:1052C00088F0992399F0F8019681907F79F4FE2C6B
:1052D0009ACF2A5F2F70223068F0C8010E94FE2307
:1052E000EF2CF5CF992311F0882389F3805E883065
:1052F00070F3F3CF803F58F3815F833070F7E7CFCF
:1053000080913503816080933503BECFC91207C0F9
:1053100090912F039D1103C0EE2009F48DC0C801A8
:105320000E94FD15882309F473CFEE2009F470CF95
:1053300080913503803288F020912F033091300323
:10534000398728879B868A86909133039C871D86A0
:105350008E87CE0108960E94FE2387E0F801AFE217
:10536000B3E001900D928A95E1F70E94782853CF1F
:1053700090913503292F207F51F48FE293E00E9412
:10538000FE2387E0F50111928A95E9F77DCF882306
:1053900009F439CF809130038C1110C080912F0314
:1053A0008D110CC0E1100AC09683C8010E94FE2333
:1053B00087E0F50111928A95E9F725CFC8010E948F
:1053C000FD15882309F424CFEE2009F421CF809124
:1053D0003503803210F220912F03309130033A834D
:1053E00029839C828B82909133039D831E828F83BD
:1053F000CE010196B0CF483C5105D0F6882309F480
:105400000ACFFE2CEE2009F403CF809130038C11DB
:1054100020C080912F038D111CC08091350380FD29
:105420000FC0982F907F61F08683903F31F0982FC6
:10543000907F905F8F70892B8683C8010E94FE2326
:1054400087E0F801AFE2B3E001900D928A95E1F7B1
:10545000DACEC8010E94FD1581117FCF80913503FE
:10546000816080933503C8010E94FE23CCCEABE15E
:10547000B0E0EDE3FAE20C94F6334E8B5F8B688F6D
:10548000798F8A8F9B8F911110923E031D8A86E03F
:10549000FE017696DE011F9601900D928A95E1F746
:1054A0009C8B87E0FE013F96DE01189601900D92DD
:1054B0008A95E1F7CE0108960E94D32881110CC08D
:1054C00087E0FE013896DE01119601900D928A95D3
:1054D000E1F78C8581110BC017E080916C059091EC
:1054E0003305891331C06B96E3E00C94123420919C
:1054F000330530E0C90101968770992740916C050A
:105500004817190699F097E0929FD001939FB00D2C
:105510001124AC5CBA4FFE01319601900D929A9520
:10552000E1F7809333050E94FF14D6CF0E94821FBB
:105530001092330510926C0587E0EFE2F3E0DF0193
:105540001D928A95E9F7C8CF819FC00111248C5C18
:105550009A4F0E94D328882331F280916C0590E005
:1055600001968770992780936C05B7CFACE0B0E0C7
:10557000ECEBFAE20C94F533182F062F6623B9F101
:105580000E946B071F832DEF28879A87898782E007
:105590008B8781E08C874F81588569857A858B85DB
:1055A0009C850E94372A8FE39CE90197F1F700C0A0
:1055B0000000002329F10E946B0719832DEF2A8335
:1055C0009C838B8382E08D831E8249815A816B810B
:1055D0007C818D819E810E94372A8FE39CE901970F
:1055E000F1F700C000002C96E4E00C9411340E9406
:1055F0006B071F832CEF28879A87898783E0C8CFA2
:105600000E946B0719832CEF2A839C838B8383E092
:10561000DACFA1E0B0E0EFE0FBE20C94F033EE244F
:10562000E394F12C05E613E09E012F5F3F4F49E51F
:1056300053E063E082E00E94041DC82E882339F104
:1056400000E080E01DC0D0907503D00E2D2D30E01D
:10565000A90141565C4F7A01E1E0F0E0EC0FFD1F3B
:10566000E00FF11D1081FA019081191BB12E1B145E
:105670009CF0912F17FD90E0191B111118C00F5FBE
:10568000909174030917F8F281110E94B5178C2DBF
:105690002196E9E00C940C34BA94F70180818F5F75
:1056A000808360E08D2D0E94B62A8C2DE0CF1F5F95
:1056B000F70180818150808361E08D2D0E94B62AA0
:1056C0008C2DDBCFA6E0B0E0E8E6FBE20C94F533EE
:1056D0000E946B078C0180914203909143038017D5
:1056E000910781F019821A820E946B07682F498105
:1056F0005A81792F80E090E00E94372A109343036B
:10570000009342032696E4E00C9411341F920F920A
:105710000FB60F9211242F933F934F935F936F9384
:105720007F938F939F93AF93BF93CF93DF93EF9329
:10573000FF93D091E900DF708091EC00C82FC17019
:1057400080FDC0E81092E9008091F000877F80938F
:10575000F00078940E94981F1092E9008091F00068
:1057600088608093F000CD2BCF70C093E900FF914B
:10577000EF91DF91CF91BF91AF919F918F917F91E9
:105780006F915F914F913F912F910F900FBE0F90AE
:105790001F9018951F920F920FB60F9211242F93FE
:1057A0003F934F935F936F937F938F939F93AF93A9
:1057B000BF93EF93FF938091E10082FF09C0809136
:1057C000E20082FF05C08091E1008B7F8093E100C1
:1057D0008091DA0080FF24C08091D80080FF20C033
:1057E0008091DA008E7F8093DA008091D90080FF6B
:1057F0009DC080E189BD82E189BD09B400FEFDCF75
:1058000081E08093290580911C05811109C00E94C7
:10581000C8050E9493068091E20084608093E200B4
:105820008091E10080FF17C08091E20080FF13C0EB
:105830008091E2008E7F8093E2008091E20080619F
:105840008093E2008091D80080628093D80019BCD8
:1058500085E0809329058091E10084FF2BC0809131
:10586000E20084FF27C080E189BD82E189BD89B55E
:10587000982F917080FFFBCF8091D8008F7D80930F
:10588000D8008091E1008F7E8093E1008091E2005A
:105890008F7E8093E2008091E20081608093E2003D
:1058A00080912A05882309F447C084E08093290564
:1058B000809129058091E10083FF27C08091E2005B
:1058C00083FF23C08091E100877F8093E10082E025
:1058D0008093290510922A058091E1008E7F8093A4
:1058E000E1008091E2008E7F8093E2008091E200EF
:1058F00080618093E20042E060E080E00E94610607
:105900008091F00088608093F000FF91EF91BF914B
:10591000AF919F918F917F916F915F914F913F9147
:105920002F910F900FBE0F901F90189519BC1092D9
:10593000290510921C0574CF8091E30087FD93E048
:1059400090932905B5CF78941F921FB61F9211240A
:105950008F939F93AF93BF938091180590911905F2
:10596000A0911A05B0911B050196A11DB11D809350
:10597000180590931905A0931A05B0931B05BF91C4
:10598000AF919F918F911F901FBE1F9018951F92EE
:105990001FB61F9211248F939F93AF93BF93809153
:1059A0001705811113C08091180590911905A091D8
:1059B0001A05B0911B054196A11DB11D80931805D4
:1059C00090931905A0931A05B0931B05BF91AF9151
:1059D0009F918F911F901FBE1F901895CDB7DEB776
:1059E0002C970FB6F894DEBF0FBECDBF85B7806889
:1059F00085BF85B7806885BF0E94871110921C06FD
:105A000010921E0610921D0680EC8093E1068FE135
:105A100096E09093E3068093E2061092E0061092DF
:105A2000DF061092FC051092FB051092FE05109205
:105A3000FD05109200061092FF05109202061092CA
:105A400001061092040610920306109206061092A8
:105A50000506109208061092070610920A06109288
:105A6000090610920C0610920B0610920E06109268
:105A70000D061092100610920F0610921206109248
:105A80001106109216061092150682E692E1909386
:105A9000F8058093F70589EC91E1909318068093BF
:105AA000170685EA91E1909314068093130684EA21
:105AB00091E19093FA058093F90584B7877F84BFBD
:105AC0000FB6F894A895809160008861809360007B
:105AD000109260000FBE80E890E00FB6F8948093BB
