:100000000C9478020C9495020C9495020C94DA22CC
:100010000C9495020C9495020C9495020C94950204
:100020000C9495020C9495020C94B41C0C94701CC6
:100030000C94B11D0C9495020C9495020C949502AD
:100040000C9495020C9495020C9495020C949502D4
:100050000C9495020C948D1D0C9495020C949502B1
:100060000C9495020C9495020C9495020C949502B4
:100070000C9495020C9495020C9495020C949502A4
:100080000C9495020C9495020C9495020C94950294
:100090000C9495020C9495020C9495020C94950284
:1000A0000C9495020C9495020C94950200000000AB
:1000B0000000000000000000000000000000000040
:1000C0000000000000000000000000000000000030
:1000D0007E0F00D4FFFFFFC7000000780000000083
:1000E000000000002A2B2800000000000000000093
:1000F0000000000000000029000000002C1E342039
:10010000212224342627252E362D3738271E1F205E
:100110002122232425263333362E37381F040506A3
:100120000708090A0B0C0D0E0F10111213141516E7
:100130001718191A1B1C1D2F3130232D35040506E5
:100140000708090A0B0C0D0E0F10111213141516C7
:100150001718191A1B1C1D2F3130354C62616E6443
:100160006F6D696E65646F6E693A64656661756C22
:1001700074204020302E31372E362D35332D673602
:1001800038626431622D6469727479207C20323067
:1001900032322D30382D30382D31383A35373A3427
:1001A00035003D5C435C455C485C4C5C5B5C00003E
:1001B0003F5C445C4E5C4A5C585C515C405C495C12
:1001C000505C535C575C475C425C01534B5C4F5C3A
:1001D000525C555C595C545C415C465C5A5C5C5CAE
:1001E000565C4D5C3E5C3B5C000000000000000083
:1001F0000000AA00A9004F5C505C525C535C545C48
:10020000765C0153515C585C575C555C745C735C64
:100210000151565C5D5C605C5A5C715C725CA8422A
:10022000645C5B5C595C695C6F5C705C665C625CC6
:100230005E5C5C5C6B5C6E5C6A5C6C5C655C615CAF
:100240005F5C6D5C635C675C685C3F5C435C455C09
:100250004A5C565C5A5C00003D5C495C515C535CF6
:10026000485C475C415C425C4E5C525C555C585C4F
:100270004D5C0153445C4B5C505C545C575C4F5C80
:10028000465C4B5C595C5B5C5E5C4C5C3C5C405C23
:1002900000000000000000000000AA00A9004F5C60
:1002A000505C525C555C535C745C0153515C585C0F
:1002B000595C545C725C735C0151565C575C655CC4
:1002C0005B5C695C715CA842645C5C5C5A5C5D5C14
:1002D0006B5C705C625C635C605C5E5C5F5C6E5C13
:1002E0006C5C6F5C675C635C615C6D5C665C685CED
:1002F0006A5C0000005200000000000000000000E6
:1003000000000000000000000000000000000000ED
:1003100000000000000000000000010000000000DC
:1003200000000000000000000000000000000000CD
:1003300000000000000000000000000000000000BD
:1003400000000000000000000000000000000000AD
:10035000815C010000000000000000000000825CE1
:100360000100000000000000000000009D5C010092
:10037000000000000000000000009E5C0000000083
:10038000000000000000000000000000000000006D
:100390000000AE5D00000000000005010980A10121
:1003A000850319012AB700150126B70095017510BC
:1003B0008100C0050C0901A101850419012AA002D0
:1003C000150126A002950175108100C005010906DE
:1003D000A101050719E029E7150025019508750118
:1003E00081029501750881010507190029FF150093
:1003F00026FF009506750881000508190129059555
:100400000575019102950175039101C009029F00D4
:10041000040100A0FA090400000103010100092100
:1004200011010001224000070581030800010904B1
:100430000100010300000009211101000122320026
:1004400007058203200001080B02020101000009D8
:10045000040200000101000009240100010900015B
:100460000309040300020103000007240100014105
:1004700000062402010100062402020200092403EE
:100480000103010201000924030204010101000922
:10049000050402400005000005250101010905834E
:1004A00002400005000005250101031201000200C1
:1004B000000008EDFEB5F40100010200011C03621A
:1004C0000061006E0064006F006D0069006E0065E1
:1004D0000064006F006E00690000000E03330061CD
:1004E0000072006100680074000000040309040049
:1004F00011241FBECFEFDAE0DEBFCDBF11E0A0E0D8
:10050000B1E0E6E9F9E402C005900D92AC3AB1071A
:10051000D9F724E0ACEAB1E001C01D92A330B207E4
:10052000E1F70E94D81D0C94B3240C9400000F93A3
:100530001F939B01305E8901000F012F001F110BDB
:1005400011952F77482F406EE0911303F09114031B
:1005500063E070E083E193E009951F910F910895A6
:100560000F93262F042F0F77482F406BE091130332
:10057000F091140363E070E083E193E009950F913B
:100580000895A3E0B0E0E7ECF2E00C9400247C01D5
:10059000162FD42EC22E80913803843071F5E0914D
:1005A0002D03F0912E033097C1F1C701019763E04D
:1005B00070E00E942D24CB01880F991F860F971F92
:1005C00019834A83CB824E2D481B9E012F5F3F4FDC
:1005D000BC0183E193E00995E0913103F09132038E
:1005E000309739F00C2D2D2D412FB70183E193E089
:1005F00009952396E8E00C941C2482E0E816F104A7
:1006000009F45AC083E0E816F104A9F081E0E81685
:10061000F10409F484C0F12CE12CE0912F03F09156
:1006200030033097C9F20C2D2D2D412FB70183E1F6
:1006300093E00995D1CF862F807F803A11F188F41D
:100640008038D1F0E0911703F0911803803929F731
:10065000309719F3123F49F12C2D4D2D612F6F70FA
:1006600027C0803E99F0803FB1F0E0911503F091F2
:100670001603803B91F6ECCFE0911903F0911A0339
:10068000E7CFE0911B03F0911C03E2CFE0911D0343
:10069000F0911E03DDCF623F09F0BFCFE0911F0351
:1006A000F0912003309709F4B8CF2C2D4D2D62EF37
:1006B00083E193E0099590CF862F807F803DB9F04C
:1006C000803FD1F0E0912103F0912203803C09F0BA
:1006D000A4CF309709F4A1CF812F8D7F4D2D612FAD
:1006E0006F70813FC9F083E193E0099575CFE09188
:1006F0002303F0912403EDCFE0912503F09126032D
:10070000633F39F0613F09F088CFE0912703F09112
:100710002803309709F481CF4D2D612FE4CFE0916C
:100720002903F0912A03683F38F4663F09F075CF3A
:10073000E0912B03F0912C03309709F46ECF612FD9
:1007400083E193E0099548CFE8EDF0E080818E7F6A
:1007500080831092E2001092DA001092E100A0EE85
:10076000B0E08C9181608C9380818F77808319BCFD
:10077000A7EDB0E08C918E7F8C9380818F7E8083FB
:100780001092FC0208952091E4003091E50095E676
:10079000A9012091EC00822F817020FF06C080917A
:1007A000E80080FF06C080E008952091E80022FD67
:1007B0001AC080910903882389F0853089F08091DF
:1007C000EB0085FD0FC02091E4003091E500421759
:1007D0005307F9F29150E1F684E0089582E008951C
:1007E00083E0089581E00895EF92FF920F931F93A5
:1007F000CF937C018B010E94C303C82F811117C0C6
:100800008091E80085FD0BC08091E8008E77809391
:10081000E8000E94C303882399F3C82F08C0F7019A
:1008200081917F018093F1000150110949F78C2FCC
:10083000CF911F910F91FF90EF90089580910B033E
:1008400087FF13C08091E80082FF06C08091E80016
:100850008B778093E80004C0809109038111F2CF67
:100860000895809109038823D9F38091E80080FFDF
:10087000F8CF8091E8008E77ECCF982F9093E90025
:10088000242F762F50E0891731F07091EC002091E1
:10089000ED005091F00021FD07C09F5F973071F788
:1008A0008093E90081E008953091EB003E7F309322
:1008B000EB003091ED003D7F3093ED003091EB0087
:1008C00031603093EB007093EC002093ED00509377
:1008D000F0002091EE0027FDE0CF80E00895B0E029
:1008E000A0E0E5E7F4E00C940024C8EDD0E08881B6
:1008F0008F7E8883E7EDF0E080818160808384E0F3
:1009000082BF81E08093FC0288818E7F888302EE23
:1009100010E0F80110821092DA0081EEC82ED12C7E
:10092000F601108288818F77888388818068888328
:1009300088818F7D888319BC1092090310920A0365
:10094000109208031092070390EEE92EF12CF701A4
:1009500080818B7F808388818160888342E060E032
:1009600080E00E943D04F60180818E7F8083F80143
:10097000808181608083808188608083F7018081AD
:100980008E7F8083888180618883CDB7DEB7E8E081
:100990000C941C24FC018091110390911203861782
:1009A0009707A0F06115710529F49091E8009E77F2
:1009B0009093E80090E06115710551F4911108C021
:1009C0008091E80082FF34C080E00895BC01F2CF3E
:1009D000809109038823C1F18530C1F18091E8003D
:1009E00083FD30C08091E80082FDEACF8091E8006D
:1009F00080FFE1CF8091F3002091F200382F611544
:100A0000710519F02830310558F091E02830310592
:100A100009F090E02091E8002E772093E800CBCFFA
:100A200081918093F100615071092F5F3F4FE7CFB3
:100A300080910903882341F0853041F08091E800DE
:100A400083FFBECF81E0089582E0089583E008959A
:100A5000089508958091FE02089508950895982FAD
:100A6000907F903BE9F040F49039D1F0903AC1F09A
:100A70009038B1F080E00895903D19F020F4903C5A
:100A8000C9F782E00895903E59F0903F99F7815F51
:100A90008F3080F7E82FF0E0E456FE4F8081089514
:100AA00083E00895A7E0B0E0E8E5F5E00C940024C9
:100AB0008C0108511F4F80910903843009F087C0D1
:100AC00080913D018F708093E9008091E80082FF62
:100AD0007EC08091E80085FF7AC00E94C303811127
:100AE00013C084E0E82EF12CCE0101966C018091B8
:100AF000E80085FD61C08091E8008B778093E80075
:100B00000E94C303882399F38091E80085FD05C006
:100B10008091E8008B778093E800FA808F2D0E9407
:100B20002F05282FFD828B818E838C818F8321114D
:100B30000BC08981843041F1873031F1863031F149
:100B400021E0853009F0B7CF30E0E5E0F0E0EC0FD0
:100B5000FD1FE30FF11DF0804FB7F894D8011196F7
:100B6000EC911197F0E0CF01019612966C9170E034
:100B70000E944124D8015C915817190649F44FBFCF
:100B80003F5F321710F397CF23E0DECF22E0DCCFB8
:100B900013968D919C911497E80FF91FF08211968E
:100BA0008C91119790E0019612966C9170E00E94E2
:100BB0004124F8018183E3CF8091F100D6018D9328
:100BC0006D01B1E0EB1AF10809F091CF9DCF2796A6
:100BD000E8E00C941C24A4E0B0E0E1EFF5E00C9414
:100BE00001247B01142FD22E4A832B830C83842F64
:100BF0000E942F0581113AC082E0E816F10489F1C4
:100C000083E0E816F10441F081E0E816F10429F5EB
:100C1000173F29F485E004C087E0073F09F084E02E
:100C20008983809109038430C1F4809138018F70E9
:100C30008093E90050E040E064E070E0CE0101966E
:100C40000E94F403811109C08091E80085FD05C070
:100C50008091E8008E778093E8002496E7E00C947A
:100C60001D2487EFD812DBCF86E0DACF12951F70F4
:100C70001983D7CF9C014FB7F8948091F5029091DA
:100C8000F602A091F702B091F8024FBF821B930BBE
:100C900008952FB7F8946091F5027091F602809153
:100CA000F7029091F8022FBF08952FB7F894809122
:100CB000F5029091F602A091F702B091F8022FBFD1
:100CC00008959C01FC0132969FEF80E04191461708
:100CD00051F09F3F19F4411101C0982F8F5F86306A
:100CE000A9F79F3F09F40895290F311D97FD3A9503
:100CF000F901628308952091F2023091F3022817DE
:100D0000390771F09093F3028093F202E091F002C0
:100D1000F091F102309721F00084F185E02D0995E2
:100D200008952091EE023091EF022817390771F0F3
:100D30009093EF028093EE02E091F002F091F102C5
:100D4000309721F00680F781E02D09950895FC0188
:100D5000680F791F8FEF91E32191822728E030E01F
:100D600087FF09C0880F892721503109C9F7E61785
:100D7000F70791F70895880FF7CF80E00895F8946A
:100D8000E82FE295EF70F0E031A1282F2F7081E07D
:100D900090E001C0880F2A95EAF7982F9095932349
:100DA00091A392A1892B82A3789408959091C00277
:100DB00092FF06C0282F28712830F9F4877F8460BD
:100DC00093FF06C0282F28712831F1F4877E8461B3
:100DD0002091C10220FF06C0382F38713830D9F475
:100DE000877F816021FF06C0282F28712831D1F428
:100DF000877E816194FD877E0895282F2471243099
:100E0000F9F68B7F8860DCCF282F2471243101F71D
:100E10008B7E8861DDCF382F3171313019F78E7FAD
:100E20008860E0CF282F2171213121F78E7E8861E3
:100E3000E1CF972F7C30A8F4673098F470E027E07A
:100E4000929F600D711D1124FB0194E5899FE00DB7
:100E5000F11D1124EE0FFF1FEE55FE4F8591949169
:100E6000089580E090E00895CF93DF93EC018238FD
:100E7000910581F1B0F58133910509F491C020F518
:100E80008932910509F485C08A9709F490C0C1158B
:100E900021E5D20708F0AAC0C11530E5D30708F054
:100EA000F2C0CF3BD10508F089C0C83AD10508F09F
:100EB000DFC0C53AD10508F0D3C0C430D105F8F47D
:100EC000C130D105E1F040C08533910509F45AC025
:100ED000C997E9F68091C002837089F0C0EED0E036
:100EE0000EC0833E910599F170F4803E910501F1A9
:100EF000823E910561F68091C00282FD21C0CE0143
:100F0000DF91CF910895863E910561F1873E91056D
:100F100071F1843E910509F0BACF8091C10281FF41
:100F2000EECF8091C002C7EED0E084FD0DC0E7CFC8
:100F30008091C00280FDF7C09091C10290FFDFCF89
:100F4000C3EED0E084FFDBCFD0E0C0E0D8CF80910B
:100F5000C00282FDEBC09091C10290FDBFCF84FF23
:100F6000CECFF2CF8091C00283FDDDCFC8CF80917C
:100F7000C00283FDDEC09091C10291FFF0CFC4EEAC
:100F8000D0E0BDCF8091C00285FFB9CFC9E2D0E0EB
:100F9000B6CF8091C00285FFB2CFC5E3D0E0AFCF1E
:100FA0008091C00286FFABCFCAE2D0E0A8CF80918B
:100FB000C00286FFA4CFC1E3D0E0A1CFC11540E2BB
:100FC000D40760F4C11581E0D80708F098CFCE01AE
:100FD000805E9109089708F492CFB6CFC11590E4CE
:100FE000D90708F4B1CFDF70D06A89CFC11524E5E5
:100FF000D20778F4C11533E5D30708F072C0C115E4
:1010000042E5D40708F05CC0DC2FCC27C16FD06A62
:1010100076CFC1158AE5D80778F4C11599E5D907C7
:1010200008F073C0C11528E5D20708F48DCFDC2F76
:10103000CC27C06FD06A63CFCE0190568115904205
:1010400008F082CF8D2F8F710E94D60690E0982FE6
:10105000882788279F719C012C2BE901D0624FCFF4
:10106000C55AD0E0CC5BDE4FC881D0E0D06447CF1A
:10107000C85AD0E0CC0FDD1FC95BDE4F0990D88184
:10108000C02DD4643CCFCE0164E0969587956A95D7
:10109000E1F783702C2F26952695237040E2249F3C
:1010A00090011124382B8C2F8370C1E0D0E002C056
:1010B000CC0FDD1F8A95E2F7C22BD32BDC681FCF44
:1010C000CE018370992721E030E002C0220F331F48
:1010D0008A95E2F7C695C69580E2C89FE001112483
:1010E000EBCFCE018370992721E030E002C0220FC0
:1010F000331F8A95E2F7C695C69590E2C99FE00135
:101100001124C22BD32BDA68FACE8C2F8F700E9459
:10111000D60634E0D695C7953A95E1F7CF709C2F67
:10112000EC01D069ECCEC9E3D0E0E9CEC2EED0E06C
:10113000E6CEC6EED0E0E3CE0E9449060895809147
:1011400025029091F401981301C008958F5F877074
:10115000FACFB0E0A0E0EFEAF8E00C94FF238C01B6
:10116000C090BC02D090BD02E090BE02F090BF02E1
:101170008091300290913102A0913202B0913302FD
:10118000C82AD92AEA2AFB2ACFE1D0E0BC2ED7010F
:10119000C6010C2E04C0B695A795979587950A941D
:1011A000D2F780FD09C0219788F7B12C8B2DCDB7E0
:1011B000DEB7E9E00C941B24B8018C2F0E941907BC
:1011C0000E943407019779F3F1CFCF93DF93EC01BD
:1011D0000E94A908BE010E9419070E943407DF91EE
:1011E000CF910895292F9C3080F5873070F590E0DD
:1011F00037E0239F800D911D1124682F677023E035
:10120000969587952A95E1F725E0289FF001299F7B
:10121000F00D1124E954FE4F50E040E080E02191B0
:1012200030E0062E02C0369527950A94E2F7217029
:101230003327042E01C0220F0A94EAF7822B4F5F56
:101240005F4F4530510559F7089580E00895292FE3
:101250009C30A0F5873090F590E037E0239F800D1B
:10126000911D1124282F277041E001C0440F2A95B9
:10127000EAF723E0969587952A95E1F725E0289FE0
:10128000F001299FF00D1124E954FE4F30E020E0D9
:1012900070E05191DF011197CB01022E02C09695AB
:1012A00087950A94E2F781708195852784238527A5
:1012B0008C932F5F3F4F2530310559F70895FC017E
:1012C000808191810E94E50892959F70963091F0FF
:1012D00058F4925F9F70923058F4803F19F030F4C8
:1012E000883E30F481E008959A5FF4CF843FD1F3D3
:1012F00080E00895883EB0F3813FD1F7F3CF80932B
:10130000F9027093FB026093FA0280910903843022
:1013100001F582E08093E9008FEF9091E800815021
:1013200095FD06C095ED9A95F1F700008111F5CF76
:101330008091E80085FF0DC050E040E063E070E080
:1013400089EF92E00E94F4038091E8008E77809309
:10135000E8000895BC0184E00E947F090895BC0163
:1013600083E00E947F090895CF93DF93EC0181E031
:101370008093E9008FEF9091E800815095FD06C0C1
:1013800095ED9A95F1F700008111F5CF8091E80075
:1013900085FF14C050E040E068E070E0CE010E949C
:1013A000F4038091E8008E778093E80088E0FE01E6
:1013B000AFEFB2E001900D928A95E1F7DF91CF9106
:1013C0000895B0E0A0E0E7EEF9E00C94FE237C0184
:1013D0005B016A018091600201E010E08A3010F444
:1013E0000AE010E0C1E0D0E0B501C701F6010995BF
:1013F000811104C021960C171D072CF4CDB7DEB760
:10140000EAE00C941A24CC9F9001CD9F300D300D52
:10141000112490E080E045E34A95F1F70000019641
:1014200082179307C1F7E0CF80914002811110C06D
:101430008091D80080618093D8008AE18A95F1F785
:1014400000C08091D90080FF0AC081E080934002F3
:1014500081E090914002913009F080E0089582E0AF
:10146000809340020E94A40310920903F1CF0E94CE
:10147000140A882359F0E091F002F091F1023097BC
:1014800029F00190F081E02D0995089580E00895FC
:10149000CF9384E090E00E947124C82F82E290E014
:1014A0000E947124982F8C2FCF910895A4E0B0E072
:1014B000ECE5FAE00C94042440915C0250915D024A
:1014C00060915E0270915F022FB7F8948091F502EF
:1014D0009091F602A091F702B091F8022FBF841B01
:1014E000950BA60BB70B11E084369105A105B1054C
:1014F00090F10E94140A882399F10E9449066E5FB8
:101500007F4F8F4F9F4F69837A838B839C8380911A
:10151000210190912201815B9D4F4091200150E07B
:101520004530510510F044E050E0BE016F5F7F4F41
:101530000E94682484E090E00E948023182F882372
:1015400051F00E94490660935C0270935D028093A3
:101550005E0290935F02812F2496E4E00C94202495
:101560000E9449060091A9021091AA022091AB02A3
:101570003091AC02600F711F821F931FC0CF4F923A
:101580005F927F928F929F92AF92BF92CF92DF92A3
:10159000EF92FF920F931F93CF93DF930F92CDB7EC
:1015A000DEB7C62E4A015901482E880F5508C201E0
:1015B0000E948023782E882309F480C0C20133E082
:1015C000880F991F3A95E1F7FC01E050FF4F4381E6
:1015D00050E04115510511F041E050E080509F4F1F
:1015E000FC0164817581615B7D4FCE0101960E9493
:1015F0006824F40140815181628173812FB7F8948E
:101600008091F5029091F602A091F702B091F80254
:101610002FBF841B950BA60BB70B84369105A10534
:10162000B10540F4B701C8010E94A7069981891746
:1016300009F444C00C2C000CDD08C6010E94802374
:10164000782E811113C0712C872D0F90DF91CF91CF
:101650001F910F91FF90EF90DF90CF90BF90AF90D0
:101660009F908F907F905F904F900895C60123E0E8
:10167000880F991F2A95E1F7FC01E050FF4F438145
:1016800050E0E416F50608F4A70180509F4FFC01D6
:1016900064817581615B7D4FC5010E946824B7013B
:1016A000C8010E94A70699818913CDCF0E944906DF
:1016B000F4016083718382839383C6CFA701B8014D
:1016C000C5010E946824C0CFA6E0B0E0EAE6FBE0D6
:1016D0000C9400246B0186E0E82EF12C00E512E06A
:1016E0009E012F5F3F4F47E452E061E080E00E949F
:1016F000BF0A882349F096E0FE013196A1E4B2E0EA
:1017000001900D929A95E1F796E0E1E4F2E0D601BE
:1017100001900D929A95E1F72696E8E00C941C242E
:1017200080912F0290912E02892B8093AE0148E088
:1017300050E066E272E08EEA91E00E945B24892B21
:10174000A9F088E0EEEAF1E0A6E2B2E001900D92A5
:101750008A95E1F7E091F002F091F102309731F0D3
:101760000280F381E02D8EEA91E00995089590E0E2
:1017700080E00E94910690E080E00E947B0610923B
:101780002E020E94900B08956093BC027093BD02DC
:101790008093BE029093BF020E94B70B08950F93EF
:1017A0001F9341E050E060E070E004C0440F551F1B
:1017B000661F771F8A95D2F7CB01BA0160957095A5
:1017C000809590950091BC021091BD022091BE02BF
:1017D0003091BF0260237123822393230E94C40BA4
:1017E0001F910F9108950F931F9341E050E060E027
:1017F00070E004C0440F551F661F771F8A95D2F70B
:101800008091BC029091BD02A091BE02B091BF0236
:101810008A019B01082B192B2A2B3B2BC901B801EC
:101820000E94C40B1F910F91089560933002709332
:10183000310280933202909333020E94B70B0895D5
:1018400010922F02E0EBF1E086E0DF011D928A9515
:10185000E9F70E94B70B0895AAE2B0E0E2E3FCE0EA
:101860000C9405248BE093E02091F100FC0121937E
:10187000CF01F3E083319F07B9F780910C038330E8
:1018800009F470C0B8F4813009F447C0823009F41B
:10189000B1C08091E80083FF88C280910B039091D2
:1018A0000C039A3008F081C2E92FF0E0EB54FB4DB5
:1018B0000C9455248A3009F48CC08B3009F46FC025
:1018C000893039F780910B03813219F780910F032A
:1018D000909110030297E8F68091E800877F80934B
:1018E000E8008091E80082FF38C09091F300809179
:1018F000F200029731F48091F100813011F08630CE
:1019000021F48091F1008093FE028091E8008B77B2
:101910008093E8000E941E04BCCF80910B03813AA3
:1019200009F0B7CF8091E800877F8093E80080912D
:101930000F0390911003892B61F468E08FEF92E020
:1019400070E00E94CA048091E8008B778093E800E1
:10195000A0CF60E090E080E0F3CF80910903811197
:10196000C0CF97CF80910B03813A09F092CF80913D
:101970000F0390911003892B09F08BCF8091E80021
:10198000877F8093E8008091E80080FFFCCF809102
:1019900043018093F1008091E8008E77B9CF809168
:1019A0000B03813209F075CF80910F0390911003E2
:1019B000892B09F06ECF8091E800877F8093E80043
:1019C0000E941E0480910D03809343010E94200C0D
:1019D00060CF80910B03813209F05BCF8091E800EA
:1019E000877F8093E8000E941E0480910E038093FD
:1019F000FD024FCF80910B03813A09F04ACF8091CD
:101A0000E800877F8093E8008091E80080FFFCCFAA
:101A10008091FD02BECF803899F0823809F0C5C1AF
:101A200080910F038F70873008F0BFC18093E90069
:101A30008091EB0085FB882780F91092E90006C0B1
:101A40008091070390910803911182609091E800C2
:101A5000977F9093E8008093F1001092F1008091BD
:101A6000E8008E779EC1882309F48CC1823009F08A
:101A70009CC180910D0381118FC180910F038F70E4
:101A80002FEF280F263008F090C18093E9002091B5
:101A9000EB0020FF81C1933031F48091EB00806234
:101AA0008093EB0079C19091EB0090619093EB00F3
:101AB00021E030E001C0220F8A95EAF72093EA0086
:101AC0001092EA008091EB008860EACF81116DC12D
:101AD00010910D031F778091E3008078812B809314
:101AE000E3008091E800877F8093E8000E941E0455
:101AF0008091E80080FFFCCF8091E30080688093B4
:101B0000E30082E0111183E0809309034EC1805805
:101B1000823008F04AC180910D0390910E038C3DF4
:101B200023E09207A1F583E08A838AE289834FB795
:101B3000F894DE01139620E03EE051E2E32FF0E05E
:101B400050935700E49120FF03C0E295EF703F5F90
:101B5000EF708E2F90E0EA30C0F0C7968D939D9382
:101B60002F5F243159F74FBF8091E800877F809322
:101B7000E8006AE270E0CE0101960E94CA048091FA
:101B8000E8008B778093E80010C1C096E7CF4091C2
:101B90000F0350911003292F33272330310509F407
:101BA00044C078F52130310509F46FC08FE990E029
:101BB000ECE0F4E02230310509F0F7C02091E800B4
:101BC000277F2093E80020911103309112038217A0
:101BD000930708F49C0140E02115310509F064C029
:101BE000411162C08091E80082FDC9CF8091090354
:101BF000882329F2853019F28091E80083FFF2CF23
:101C0000BECF21323105A9F12232310509F0CDC014
:101C10004115510509F443C04130510509F0C5C0D3
:101C200082E390E0EAE9F3E0C9CF9927813091059A
:101C3000C1F0009759F0029709F0B7C0EDEBF4E05E
:101C4000E4918E2F90E0EDEBF4E007C0EBEEF4E0D2
:101C5000E4918E2F90E0EBEEF4E0009709F4A5C03C
:101C6000ADCFEBEDF4E0E4918E2F90E0EBEDF4E0FE
:101C7000F4CF4115510571F04130510509F095C07F
:101C800089E090E0E7E3F4E099CF82E190E0EBEACD
:101C9000F4E094CF89E090E0EEE1F4E08FCF80E4CF
:101CA00090E0ECECF3E08ACF80910903882309F4FB
:101CB00066CF853009F463CF8091E80083FD5FCF64
:101CC0008091E80082FD8ECF8091E80080FF84CF74
:101CD0009091F3008091F2002115310519F08830C0
:101CE000910550F041E0089709F040E08091E8004C
:101CF0008E778093E80070CF44914093F100319645
:101D0000215031090196E8CF803809F04EC080910A
:101D1000E800877F8093E80080910A038093F100B8
:101D20009ECE811142C010910D031230F0F58091CA
:101D3000E800877F8093E80010930A030E941E0446
:101D4000112311F084E005C08091E30087FDFACFF4
:101D500081E08093090342E061EC81E00E943D0450
:101D600042E261EC82E00E943D0442E361E883E0EC
:101D70000E943D0442E361E884E00E943D048091BA
:101D8000090313C080910D03813079F481E0933011
:101D900009F080E0809308031092E9008091E80048
:101DA000877F8093E8000E941E048091E80083FFF3
:101DB0000AC08091E800877F8093E8008091EB0063
:101DC00080628093EB00AA96E3E00C9421240E94A9
:101DD000200C2FEF84E39CE0215080409040E1F7FD
:101DE00000C0000088E19AE00FB6F894A8958093AF
:101DF00060000FBE90936000FFCF882341F0809574
:101E000090912F02892380932F020E94900B0895B6
:101E1000882339F090912F02982B90932F020E94E3
:101E2000900B08958823C1F19CEF980F913A78F4B4
:101E3000E0EBF1E09191891303C0DF0111971C924F
:101E400041E0E63BF407B1F70E94900B089590E261
:101E5000980F983088F4877021E030E0A90102C023
:101E6000440F551F8A95E2F7CA01809590912F0281
:101E7000892380932F02E8CF9BE5980F933028F4B5
:101E800090E080E00E9491060895885A873120F4FE
:101E900090E080E00E947B060895CF93C82F8823AE
:101EA000B1F08CEF8C0F813A00F5E0EBF1E086EBBE
:101EB00091E0DF012D91C21761F08A179B07D1F7DE
:101EC0006C2F8EEA91E00E9461060E94900BCF91E8
:101ED00008952191C21303C0DF0111971C928E1740
:101EE0009F07B9F70E94900BEBCF80E28C0F8830F0
:101EF00068F4C77021E030E001C0220FCA95EAF70C
:101F000080912F02822B80932F02DFCFEBE5EC0F25
:101F1000E33040F4F0E0EC5BFE4F808190E00E9403
:101F20009106D5CFC85AC73190F6EC2FF0E0EE0FEE
:101F3000FF1FE95BFE4F808191810E947B06C7CF26
:101F40001F93CF93DF93182FCAE0D0E0893311F4A9
:101F5000C0E5D0E0812F0E944D0F8FE99FE00197EF
:101F6000F1F700C000002197C1F7812F0E94120FE6
:101F7000DF91CF911F9108950F931F93CF93DF931C
:101F8000C62FD42F022FFC0182818823A9F06093F1
:101F900002040E9455069093010480930004C770C8
:101FA00081E001C0880FCA95EAF70E94080FDF910F
:101FB000CF911F910F91089580910204681332C050
:101FC00080910004909101040E943A06883C91059A
:101FD00048F510E21D0FCD17B9F080E28C0F883064
:101FE00040F4C77081E001C0880FCA95EAF70E94EB
:101FF000FD0E183048F481E09D2F977001C0880FC6
:102000009A95EAF70E94080F802F0E94A00F1830BF
:1020100070F6D77081E001C0880FDA95EAF70E9468
:10202000FD0EC5CFC77081E001C0880FCA95EAF7E1
:10203000F6CF68EE7EEF90E080E00E949D2460E0A5
:1020400082E090E00E947F2460E083E090E00E94C4
:102050007F241092300210923102109232021092BC
:10206000330260E084E090E00E947F2464E082E23A
:1020700090E00E947F2460E085E090E00E947F2451
:1020800060E086E090E00E947F246FEF87E090E0C0
:102090000E947F2440E050E0BA0188E090E00E9476
:1020A000912460E08DE090E00E947F2440E050E0C9
:1020B000BA0188E190E00E94912460E087E190E01D
:1020C0000E947F2440E050E0BA018CE190E00E9441
:1020D000912470E060E080E290E00E949D2440E066
:1020E00050E0BA0188E190E00E94912440E050E085
:1020F000BA018FE090E00E94912440E050E0BA01E4
:1021000083E190E00E9491240895A5E0B0E0EBE81F
:10211000F0E10C94F8237C01FC0183819481892BEC
:1021200031F08081918189238F3F09F00FC7259677
:10213000E0E10C9414240E94A908182F682F8981CB
:102140009A810E94270969817A81812F0E9419074B
:102150008C018E3AFDE59F0709F0B2C0F70182813C
:10216000882309F4E6C08CE5C82E81E0D82E9AE0D9
:10217000492EF6012491222309F4DBC0213009F015
:1021800048C031968491813041F4F2E0CF0ED11CE9
:10219000F60184910E94A00F09C0823059F4F2E048
:1021A000CF0ED11CF60184910E944D0F6FEFC61A1D
:1021B000D60ADFCF833041F4F2E0CF0ED11CF60116
:1021C00084910E94120FF2CF843009F077C0F2E0C0
:1021D000CF0ED11CF601249190E080E0F6013196FB
:1021E0002053330B2A30310548F00197F8F2EFE91C
:1021F000FFE03197F1F700C00000F7CF489EA00143
:10220000499E500D1124C901840F951F24916F011F
:10221000E5CFE22FF0E0E452FF4F5490822F8695F5
:102220008695869590E0FC01E453FF4F64902770FB
:10223000712C022E02C0759467940A94E2F731E083
:1022400063227724FC01E454FF4F8490912C022EEA
:1022500002C0959487940A94E2F741E0842299247D
:10226000FC01E455FF4FA490B12C02C0B594A79493
:102270002A95E2F751E0A522BB246114710419F0FC
:1022800081EE0E944D0F8114910419F086EE0E9498
:102290004D0F852D0E94A00F8114910419F086EE38
:1022A0000E94120F6114710419F081EE0E94120F46
:1022B000A114B10409F47ACF8CE26CCF6F0176CF10
:1022C0008F3A7CE5970708F0F3C00F398CE51807C3
:1022D00008F034C200399CE5190708F096C00338AD
:1022E000ECE51E0708F0DAC10138FCE51F0708F02D
:1022F00071C007372CE5120708F0AFC10F323CE57B
:10230000130708F05FC1043FFCE51F0709F4D9C2B9
:1023100008F045C1093D3CE5130709F4CEC20A3D6A
:102320004CE5140709F4D9C2083D5CE5150709F42A
:10233000C0C2F7018281882309F419C610920204F1
:102340000430FDE51F0708F0CBC20B3F2CE5120758
:1023500038F4980122503C452431310508F0CAC2B6
:102360000E94480A9093C1028093C00201315CE54B
:10237000150709F49CC308F016C309307CE517075C
:1023800009F483C308F0E1C205309CE5190709F49C
:1023900074C308F0C6C20330FCE51F0709F463C329
:1023A00008F067C38091C002816002303CE51307EA
:1023B00009F45CC36091C0021091C10284E090E016
:1023C0000E947F24612F82E290E00E947F240E947D
:1023D000200CADCE01384CE5140709F44DC102388C
:1023E0005CE5150709F08FCFF7018281882309F496
:1023F0009ECE8091E7028F70893008F098CE8F5F73
:102400008F709091E702907F45C10D396CE51607FA
:10241000A0F502397CE5170708F061C100398CE5A9
:10242000180709F448C101399CE5190709F06BCF79
:10243000F7018281882309F47ACE9091E70295957D
:1024400095959595959596300CF071CE21E0290FD4
:102450002295207F2595259525952595322F329516
:10246000307F8091E7028F70832B8093E7021916EB
:102470000CF05DCE27FF5BCE2EC10D39ECE51E07BB
:1024800009F43FC10E39FCE51F0709F03CCFF70105
:102490008281882309F44BCE8091E802982F9F77A0
:1024A0009F3709F444CE933708F046C1935F3EC18D
:1024B000853B2CE5920709F49DC1C8F5813B4CE5AD
:1024C000940709F46FC1E0F48F3A6CE5960709F4BC
:1024D0004AC1803B9C4509F016CFF70182818823D1
:1024E00009F425CE2091E802322F331F3327331F02
:1024F0009091E902892F8770880F832B8F5F45C1E8
:10250000F70122818091E8029091E902033BFCE50A
:102510001F0709F45BC108F063C140E021114FE7D8
:10252000881F8827881F9770990F60E44BC1883BEC
:102530004CE5940709F470C188F4863B6CE5960776
:1025400009F458C1873B9C4509F0DDCEF701828133
:10255000811160C18FEF8093E602E9CD0A3B8CE5E3
:10256000180709F492C108F479C10B3BECE51E078A
:1025700009F0C9CE8091E802982F991F9927991FD9
:102580008091E9028770880F892BF70192816FEFA4
:102590007FE1992309F48AC10E949702C8CD063FC2
:1025A0006CE5160709F495C108F48FC127E245EEE2
:1025B00066EE073F8CE5180709F0BBCEC7010E9405
:1025C000BC0FB5CD8091E802982F991F9927991FCC
:1025D0004091E9024770440F492B8F7721ED200F7E
:1025E00030E0F901EF59FD4F6F012081F701928131
:1025F000992309F12F3F09F09ACD1091E702912F0D
:102600009F7015951595159515951F52FCE09F9F88
:10261000100D1124100F212F2F774069E091130323
:10262000F0911403082F63E070E083E193E00995D3
:10263000F60110837CCD2F3F61F02F774068E09149
:102640001303F0911403082F63E070E083E193E03B
:1026500009958FEFF60180836ACDF7018281882387
:1026600009F465CD0757802F8F700091E702007F36
:10267000082B0093E7025BCDF7018281882309F4E0
:1026800056CD8091E702982F9F7009F450CD915F4D
:102690009F70807F892B8093E70249CDF70182816B
:1026A000882309F444CD0958802F8295807F0091BA
:1026B000E7020F70DDCFF7018281882309F437CD5F
:1026C0008091E702982F95959595959595959B3FC7
:1026D0000CF42DCD915F9295907F8F70DBCFF70139
:1026E0008281882309F423CD02598CE0089F802D34
:1026F00011248F770091E8020078082B0093E802FC
:1027000016CDF7018281882309F411CD8091E8026A
:10271000982F9F7709F40BCD9F3729F48078856730
:102720008093E80204CD9D3028F09D509F778078FB
:10273000892BF6CF8078F4CF8F67F2CFF7018281B3
:10274000882309F4F4CC0F598091E80200FB87F943
:102750008093E802069507708091E902887F082B34
:102760000093E902E4CCF7018281882309F4DFCCED
:102770002091E802322F331F3327331F9091E90253
:10278000892F8770880F832B815F382F3F7080FBE4
:1027900027F92093E802832F8695987F982B9093B2
:1027A000E902C5CCF7018281882309F4C0CC90915D
:1027B000E802991F9927991F8091E9028770880F75
:1027C00040E06BE7892B0E94B002B1CC40E02111C0
:1027D0004FE7881F8827881F9770990F61E4F2CF11
:1027E00040E021114FE7881F8827881F9770990FB5
:1027F00062E4E8CFF701828140E081114FE79091D8
:10280000E802991F9927991F8091E9028770880F24
:1028100063E4D8CF81E09FCEF7018281882309F459
:1028200086CC9091E902292F2695269526952F7022
:1028300081E0820F8F70880F880F880F9778892B1F
:102840008093E902982F987709F071CC220F220F1C
:10285000220F8778822B8093E90269CCF70182816D
:10286000882309F464CC8091E902982F987709F4C1
:102870005ECC982F969596959695915F9F70990F3F
:10288000990F990F8778892BE6CF8091E802982FCE
:10289000991F9927991F8091E9028770880F892BCA
:1028A000F701928160E070EE911176CE70E060E009
:1028B00073CE26E241EE61EE81CE27E245EE65EE73
:1028C0007DCE26E241EE60EE79CE27E245EE64EE63
:1028D00075CE26E241EE62EE71CE28E241E0EFCF06
:1028E00002363DE5130709F43BCD063A4DE51407E2
:1028F00009F436CD06319CE5190709F050C38091E3
:102900002F028A7A91E009F490E09093B60169E28F
:10291000811165E38EEA91E00E9461060E94900BAE
:1029200006CC8091C002806207304CE5140709F4A0
:102930009DC08091C002806108305CE5150708F4F5
:1029400095C08091C002806491C08091C0028B7F4D
:102950000D306CE5160709F489C088F40B308CE55E
:10296000180709F498C08091C0028C600C309CE577
:10297000190708F47BC08091C0028D7F77C08091D9
:10298000C0028F7E0F30ECE51E0709F46FC0809106
:10299000C002877F0031FCE51F0708F467C0809103
:1029A000C0028F7D63C00E3F2CE5120709F47BC087
:1029B00058F505314CE5140709F483C098F480916B
:1029C000C002837F03316CE5160709F44FC008F499
:1029D00072C00E94200C9091C002892F97FB87F94A
:1029E000805844C00C3F8CE5180709F44AC008F031
:1029F00056C08091C10281600B3FECE51E0709F0D3
:102A0000D9CC8093C102D6CC0230FDE51F0709F472
:102A100064C0C0F48091C1028C7F01153DE51307AD
:102A200081F38091C102836001304DE5140748F3C2
:102A30008091C102982F909591708E7F892B90FB89
:102A400081F9DFCF02365DE5150709F44CC0063A7F
:102A50006DE5160709F44EC003307DE5170709F050
:102A6000A9CC60E03BC08091C00282608093C0022C
:102A7000A1CC8091C0028460F9CF8091C0028860AF
:102A8000F5CF8091C1028260BCCF0E94200C809162
:102A9000C0028068EBCF8091C0028E7FE7CF80912B
:102AA000C1028E7FAECF8091C1028D7FAACF80916F
:102AB000C0028F7BDBCF0E94200C8091C0028F77F9
:102AC000D5CF8091C00282FB992790F921E092270F
:102AD00090FB82F990FB83F9C9CF61E08EE090E032
:102AE0000E947F2467CC9091C002892F8F7E94FF33
:102AF0008061BCCF9091C002892F8E7F90FF816052
:102B0000B5CF85E33EC20E9419100E94E70EF7017F
:102B100000811181882311F1C8010E94A908D82ED3
:102B2000682FC8010E942709B8018D2D0E9419073E
:102B30000E943407182FB82EF70122814581342FC7
:102B400032953F70892F82958F70C82ED12C8C3092
:102B5000E8F5F601E154FB4D0C945524C8010E94A0
:102B6000F208D82EE1CF092F0F70907F11F0029557
:102B7000007F812F2223C9F0002369F090E2910F9A
:102B8000983010F011110BC080912F02082B009388
:102B90002F020E94900B812F0E944D0F17C0809131
:102BA0002E02082B00932E02F4CF0E94120F002356
:102BB00069F00095105E183010F0B11021C08091BE
:102BC0002F02082300932F020E94900BF8E0CF1AE7
:102BD000D10824E0C216D10410F40E94370A85E01F
:102BE000F701DE01119601900D928A95E1F70981B6
:102BF0001A81C8010E94F208B8010E94190797CAF9
:102C000080912E02082300932E02DECF892F8F7031
:102C1000907F903211F08295807FF1E0BF120CC05E
:102C2000222329F0363090F60E94080FCFCF35309E
:102C300068F60E94FD0ECACF222341F03323A1F390
:102C400040FFA9CF4F70F7014583EECF332389F3BF
:102C5000193369F4FFEF27EE33E0F15020403040A4
:102C6000E1F700C00000812F0E94120FAFCF8FE369
:102C70009CE90197F1F7F5CF892F869586958370AA
:102C800061F0813009F0A2CF812F9370211102C031
:102C900090E080E00E947B0699CF812F93702111F4
:102CA00002C090E080E00E94910690CF892F83704F
:102CB00009F065C021118ACF812F82958695877092
:102CC000880F880F612F6F70862E912CB12CA12C4C
:102CD000082E04C0880C991CAA1CBB1C0A94D2F7AD
:102CE00040E050E0BA0114FF0FC04FE050E060E058
:102CF00070E004C0440F551F661F771F8A95D2F7F6
:102D000040955095609570959695969593709230F4
:102D100019F1D8F400913002109131022091320261
:102D200030913302913069F0482959296A297B2969
:102D3000CB01BA0160237123822393230E94150CD7
:102D400045CF802A912AA22AB32ACB01BA01682949
:102D500079298A299B29F2CF482959296A297B296F
:102D600000913002109131022091320230913302F1
:102D7000CB01BA016027712782279327DFCF869581
:102D8000222311F0892F8170882309F41FCF812F0E
:102D9000829586958770880F880F612F6F70862EB9
:102DA000912CB12CA12C082E04C0880C991CAA1CB3
:102DB000BB1C0A94D2F740E050E0BA0114FF0FC0E8
:102DC0004FE050E060E070E004C0440F551F661F04
:102DD000771F8A95D2F74095509560957095969596
:102DE00096959370923019F1D8F40091BC0210912D
:102DF000BD022091BE023091BF02913069F0482996
:102E000059296A297B29CB01BA01602371238223C6
:102E100093230E94C40BDACE802A912AA22AB32AD5
:102E2000CB01BA01682979298A299B29F2CF48293F
:102E300059296A297B290091BC021091BD02209179
:102E4000BE023091BF02CB01BA01602771278227F1
:102E50009327DFCF092F0F70222329F0802F0E94A4
:102E6000F30B812FE1CE812F0E94FD0E802F0E9457
:102E7000CF0BACCE812FE1EF1E1709F442C0E11752
:102E800058F0F0EF1F17F1F0222309F44BC0311175
:102E900082CE892F8F713AC042EF1417D1F153EFD0
:102EA0001513F2CF2223D1F1292F2F7161E070E0A9
:102EB00080E090E004C0660F771F881F991F2A9555
:102EC000D2F7A7CF2223C9F0353008F07FCE292FC3
:102ED0002F7161E070E080E090E004C0660F771F22
:102EE000881F991F2A95D2F70091BC021091BD024C
:102EF0002091BE023091BF02A8CF363008F066CED6
:102F0000E6CF892F8F71222309F4B1CF0E94F30BF2
:102F10005DCE892F8F712223C9F3A9CF60E070E0C5
:102F2000CB0177CF332379F0893341F46FEF77EE1C
:102F300083E0615070408040E1F793CEEFE3FCE91D
:102F40003197F1F78ECE892F8F7191CF85E0DE0119
:102F5000119601900D928A95E1F7F70122818981FE
:102F60009A812111E8C80E94F208182FECC8063196
:102F7000FCE51F0709F0CBCD8091B6018111C1CDD1
:102F800089E2E0EBF1E026EB31E09191891303C097
:102F9000DF0111971C922E173F07B9F7BFCC0F3DE9
:102FA0002CE5120709F4AFCD083A3DE5130709F403
:102FB000ACCD01151C4509F0AACD0E94200CEFEF05
:102FC000F4E32CE0E150F0402040E1F700C00000C5
:102FD00087E797E7909301088093000888E19AE0DB
:102FE0000FB6F894A895809360000FBE9093600090
:102FF000FFCF1F93CF93DF938091F301807F09F080
:1030000049C08091F001882309F444C080912502D1
:10301000D091F4016091EE017091EF01A091F10166
:10302000B091F201C62FC72316E0D81799F190E0AE
:10303000109711F0CF3F19F401968770F6CF189FC3
:103040009001199F300D1124F901EB50FE4F418181
:103050004713F2CF40814613EFCF42814111ECCFAD
:10306000438154814A1B5B0B483C510528F78091F2
:10307000F3018F7080618093F301F901E650FE4FF8
:1030800080818F70806180838EEE91E00E94851038
:103090000E949F08DF91CF911F910895A1E1B0E0B8
:1030A000E4E5F8E10C94FE238C0185E0F801DE01F3
:1030B0001D9601900D928A95E1F7F801E2808EEE5F
:1030C000A82E81E0B82E6091F1017091F201611596
:1030D000710509F426C19091EE014091EF01892F0D
:1030E00084238F3F09F41DC120813181C380D480A6
:1030F000F090F001F601E61BF70BFF2009F4DCC0AD
:103100008091F301582F507FE83CF10508F09FC0F3
:1031100051116BC0FE2C431314C0921312C0E11066
:1031200010C08F7080618093F301C5010E948510EB
:103130008091F301F80185838F2D6196EAE00C946C
:103140001A24C114D10429F0822F83238F3F09F060
:1031500003C180E0F82FF170DF2E80FF3CC080912A
:1031600025024091F40156E0841315C02D873E8757
:103170008D859E850E94E508292F22952F7022308B
:10318000F0F0243018F59F70F1F0F8019581907FF0
:10319000D1F4D12C1EC090E0589FF001599FF00D42
:1031A0001124EB50FE4F6181361306C06081261357
:1031B00003C06281E6120FC001968770D5CF9F7061
:1031C00011F0882331F3805E883018F3C8010E9423
:1031D0008510FD2CB1CFEE2009F4AECF8091F30124
:1031E00081608093F301F12CA7CF431306C09213A3
:1031F00004C0F801EE2009F479C0C8010E945F09FB
:10320000882309F1EE20F9F08091F301803270F00B
:103210002091EE013091EF0138872F831986DB86EC
:10322000CA868C87CE0107960E94851086E0F80139
:10323000AEEEB1E001900D928A95E1F70E94F91788
:10324000FF24F39479CFC8010E948510F9CF511162
:103250000AC08EEE91E00E94851086E0F501119281
:103260008A95E9F7C0CF43130FC092130DC0E11048
:103270000BC0F8018583C8010E94851086E0F50126
:1032800011928A95E9F758CFC8010E945F098823F7
:10329000D1F2EE20C1F28091F301803238F2209118
:1032A000EE013091EF013A8329831B82DD82CC82CB
:1032B0008E83CE010196B8CFE83CF105F8F6FE2CDE
:1032C000EE2009F243131FC092131DC08091F30139
:1032D00080FD10C0982F907F69F0F8018583903FA2
:1032E00031F0982F907F905F8F70892B8583C80174
:1032F0000E94851086E0F801AEEEB1E001900D92DB
:103300008A95E1F719CFC8010E945F0981118ECF1C
:103310008091F30181608093F301C8010E948510C0
:103320000BCFEE2009F48FCFC8010E945F09F82E61
:10333000882309F488CF86E0F801AEEEB1E0019071
:103340000D928A95E1F78091EE019091EF010E9434
:10335000E5080E94F917F0CE81E08E25FBCEA7E1AB
:10336000B0E0E5EBF9E10C9405244B8B5C8B6D8BA5
:103370007E8B8F8B611110922E021A8A198A85E03A
:10338000FE017396DE011D9601900D928A95E1F77C
:1033900086E0FE013D96DE01179601900D928A951A
:1033A000E1F7CE0107960E944E18882359F016E0E7
:1033B000809125029091F401891343C06796E3E060
:1033C0000C94212486E0FE013796DE0111960190CF
:1033D0000D928A95E1F78A859B85892B41F38F8130
:1033E000988589238F3F19F32091F40130E0C901BA
:1033F000019687709927409125024817190671F4A4
:103400000E94200C1092F4011092250286E0EEEE4C
:10341000F1E0DF011D928A95E9F7C9CF96E0929F0E
:10342000D001939FB00D1124AB50BE4FFE013196D9
:1034300001900D929A95E1F78093F4010E949F0804
:10344000B6CF819FC00111248B509E4F0E944E1811
:10345000882309F4B3CF8091250290E0019687700C
:10346000992780932502A4CFA7E1B0E0EAE3FAE12F
:103470000C94FB238E010F5F1F4F8CE0D8011D922F
:103480008A95E9F79FE7C92E91E0D92EF12CE12C1E
:10349000AA24A394B12C3CE8832E31E0932EF601AC
:1034A00081916F018F3F09F442C0F894E82FE295B3
:1034B000EF70F0E021A18F70A50102C0440F551FED
:1034C0008A95E2F7CA01922F982B91A392A1809539
:1034D000892382A3789400C0E5E8F1E0712C31E003
:1034E00021912F3F09F46BC0A22FA295AF70B0E0DD
:1034F00090968C9190E02F7002C0959587952A95B3
:10350000E2F780FD5CC0832F782A330F8E169F066A
:1035100039F7F601319780818F3F11F00E94BF0685
:1035200050EA5A95F1F7F801EE0DFF1D70828FEF0A
:10353000E81AF80A96E0E916F10409F0B0CF4CE079
:1035400050E0B8018EEA92E00E945B247C01892B56
:1035500041F08CE0F801AEEAB2E001900D928A955C
:10356000E1F71091BB02E114F10459F181E080937D
:1035700036020E9455069093350280933402809162
:103580003402909135020E943A06059778F0AEEA2F
:10359000B2E0E12FF0E0EC53FD4F84EB92E02D918F
:1035A00021938A179B07D9F71092360281E090E0A9
:1035B000E114F10451F06796EDE00C94172480E0DB
:1035C000A3CF809136028111DACF0E94140AD82E3F
:1035D000E091BB02DE011D967D01882309F49DC0A8
:1035E00086E01D928A95E9F70E2F10E00C531D4FCF
:1035F000809160028A3008F05AC044E65BE0B7016F
:10360000C8010E94E109882309F473C047E15CE125
:10361000B701C8010E94E109882309F46AC046E5A0
:103620005AE0B701C8010E94E109882309F461C08A
:10363000109260028091BA0290E046E050E0B7013B
:103640008C539D4F0E945B2421E020933F02892BE5
:1036500009F042C0D12C89E3E82E82E0F82E10E078
:1036600000E0D7018D917D018823D1F08695F80186
:1036700009F450C0E758FE4F808191819C8B8B8B61
:103680001D8A0E9455068160782F9F8B8E8BF701D3
:10369000319710824B895C896D898F890E94AF199F
:1036A0000E5F1F4F04301105E1F68D2D84CF809100
:1036B0003702909138020E943A06843F914008F008
:1036C0009CCF80913F02882329F286E0F701119276
:1036D0008A95E9F710923F02A091BA02B0E0AC538C
:1036E000BD4F86E0FE013D9601900D928A95E1F76F
:1036F000B2CF809160028F3F31F08F5F8093600284
:103700008A3008F497CF0E94550690933802809330
:103710003702D7CFEB58FE4FAFCFF0E0EC53FD4F61
:1037200086E0A0E5B2E001900D928A95E1F766E0AF
:1037300070E080E592E00E94A70680934F024091DE
:10374000E20250E06091E10270E063527D4FC701F8
:103750000E9468248D858093570261E070E0C70164
:103760000E94A70680935602C0905802D09059023A
:10377000E0905A02F0905B0280913B0290913C02F3
:10378000A0913D02B0913E02C816D906EA06FB069A
:1037900011F480E010CFC0923B02D0923C02E09244
:1037A0003D02F0923E020E94140A8111F2CF0E9463
:1037B0004906C61AD70AE80AF90AC092A902D092A5
:1037C000AA02E092AB02F092AC02E3CFA5E0B0E037
:1037D000ECEEFBE10C940224162FE82EF12CC7012D
:1037E000880F991F662301F187589E4FFC01808145
:1037F00091819A83898301E00B830E945506816041
:10380000782F9D838C83F701E75CFD4F0127110F13
:10381000102B108349815A816B818D810E94AF19D1
:103820002596E6E00C941E248B589E4FDFCFA1E036
:10383000B0E0EDE1FCE10C94FF23EE24E394F12CE5
:1038400007E512E09E012F5F3F4F4BE452E063E03B
:1038500082E00E94BF0AC82E882339F100E080E090
:103860001DC0D090C302D00E2D2D30E0A9014352CF
:103870005D4F7A01E1E0F0E0EC0FFD1FE00FF11D7C
:103880001081FA019081191BB12E1B149CF0912F0D
:1038900017FD90E0191B111118C00F5F9091C20223
:1038A0000917F8F281110E949C088C2D2196E9E0FD
:1038B0000C941B24BA94F70180818F5F808360E0B1
:1038C0008D2D0E94E61B8C2DE0CF1F5FF7018081BC
:1038D0008150808361E08D2D0E94E61B8C2DDBCF13
:1038E0001F920F920FB60F9211242F933F934F9375
:1038F0005F936F937F938F939F93AF93BF93CF9378
:10390000DF93EF93FF93D091E900DF708091EC009B
:10391000C82FC17080FDC0E81092E9008091F000CE
:10392000877F8093F00078940E942C0C1092E9001D
:103930008091F00088608093F000CD2BCF70C09311
:10394000E900FF91EF91DF91CF91BF91AF919F91EE
:103950008F917F916F915F914F913F912F910F9038
:103960000FBE0F901F9018951F920F920FB60F92D7
:1039700011242F933F934F935F936F937F938F9374
:103980009F93AF93BF93EF93FF938091E10082FFEA
:1039900009C08091E20082FF05C08091E1008B7F29
:1039A0008093E1008091DA0080FF24C08091D800EC
:1039B00080FF20C08091DA008E7F8093DA008091B2
:1039C000D90080FF9DC080E189BD82E189BD09B435
:1039D00000FEFDCF81E0809309038091FC028111FC
:1039E00009C00E94A4030E946F048091E2008460D9
:1039F0008093E2008091E10080FF17C08091E20097
:103A000080FF13C08091E2008E7F8093E20080915E
:103A1000E20080618093E2008091D8008062809310
:103A2000D80019BC85E0809309038091E10084FFF0
:103A30002BC08091E20084FF27C080E189BD82E134
:103A400089BD89B5982F917080FFFBCF8091D800F8
:103A50008F7D8093D8008091E1008F7E8093E1007C
:103A60008091E2008F7E8093E2008091E20081608D
:103A70008093E20080910A03882309F447C084E020
:103A800080930903809109038091E10083FF27C09F
:103A90008091E20083FF23C08091E100877F8093C3
:103AA000E10082E08093090310920A038091E10013
:103AB0008E7F8093E1008091E2008E7F8093E20010
:103AC0008091E20080618093E20042E060E080E06B
:103AD0000E943D048091F00088608093F000FF9187
:103AE000EF91BF91AF919F918F917F916F915F9176
:103AF0004F913F912F910F900FBE0F901F901895EF
:103B000019BC109209031092FC0274CF8091E3005B
:103B100087FD93E090930903B5CF78941F921FB669
:103B20001F9211248F939F93AF93BF938091F502BF
:103B30009091F602A091F702B091F8020196A11DB2
:103B4000B11D8093F5029093F602A093F702B09313
:103B5000F802BF91AF919F918F911F901FBE1F9050
:103B600018951F921FB61F9211248F939F93AF93A6
:103B7000BF938091F402811113C08091F50290915E
:103B8000F602A091F702B091F8024196A11DB11D75
:103B90008093F5029093F602A093F702B093F80297
:103BA000BF91AF919F918F911F901FBE1F9018954D
:103BB000CDB7DEB72A970FB6F894DEBF0FBECDBFE4
:103BC00085B7806885BF85B7806885BF84E08093AE
:103BD000E7028FE78093E8028091E90280788064B1
:103BE0008093E902E1E6F2E08FEF819322E0E93A87
:103BF000F207D9F71092E5021092E6021092EC0259
:103C00001092EB021092380310923A03109239038B
:103C100080EC8093FD038BE393E09093FF0380930C
:103C2000FE031092FC031092FB03109218031092F3
:103C3000170310921A031092190310921C0310928A
:103C40001B0310921E0310921D031092200310926A
:103C50001F0310922203109221031092240310924A
:103C6000230310922603109225031092280310922A
:103C7000270310922A031092290310922C0310920A
:103C80002B0310922E0310922D03109232031092E8
:103C900031038BEE95E0909314038093130382E538
:103CA00095E090933403809333038EE295E09093F4
:103CB000300380932F038DE295E090931603809359
:103CC000150384B7877F84BF0FB6F894A8958091B9
:103CD0006000886180936000109260000FBE80E8F1
:103CE00090E00FB6F89480936100909361000FBE4E
:103CF0008DEB96E09093AD018093AC010E94A403FC
:103D00000E946F048091E20084608093E2007894C6
:103D1000809109038823A1F01091E9001F70909110
:103D2000EC00892F817090FD80E8182B1092E9003B
:103D30008091E80083FD0E942C0C1F701093E90015
:103D400082E084BD93E095BD9AEF97BD80936E00AD
:103D50001092A9021092AA021092AB021092AC0229
:103D60009091AD02911108C00E94140A92E0811155
:103D700001C091E09093AD0281E0913009F080E0C4
:103D8000809328010E94140A81110E94942280913C
:103D900028018091280196E0811190E09093BB0268
:103DA00086E0891B8093BA020FE711E075E8E72EE1
:103DB00071E0F72ED8018D918D018F3F11F00E9497
:103DC000BF06E016F106B1F705E811E06CE8E62E53
:103DD00061E0F62EF80181918F018F3F11F00E9472
:103DE000BF06E016F106B1F78CE0E4ECF2E0DF018B
:103DF000282F1D922A95E9F7EEEAF2E0DF011D92E5
:103E00008A95E9F790E080E00E947924883E9E4FF1
:103E100011F00E94191082E090E00E9471248093BA
:103E2000D0020E94480A9093C1028093C00283E0AE
:103E300090E00E947124682F70E090E080E00E9482
:103E4000150C9091280181E098279093E102E82FCA
:103E5000E91BE093C302909128018093E2029091C4
:103E600028018093C20280912801811106C085EF4C
:103E70008093360184EF8093350120913601E22F43
:103E8000E295EF70F0E061A12F7081E090E0AC016D
:103E900001C0440F2A95EAF7342F3095362331A319
:103EA00022A1242B22A320913501E22FE295EF706D
:103EB000F0E031A12F7001C0880F2A95EAF7982F02
:103EC0009095932391A392A1892B82A38FE891E0EF
:103ED0000197F1F700C000001091E20263EE72E07A
:103EE00046E351E085E3E82E81E0F82EFB0128C08F
:103EF000DA012D91AD01822F82958F7090E0DC0167
:103F000090968C9190E02F7002C0959587952A9598
:103F1000E2F78170D7019D917D01292F22952F70A5
:103F200030E0D90190962C9130E09F7002C0359519
:103F300027959A95E2F790E020FD92E0892B8193F6
:103F40008E2F861B8117A0F20E94140A811102C0D5
:103F50000E9497228091E702807F82608093E7022F
:103F60008091E802807885678093E80289E291E099
:103F70009093F1028093F00238E1432E512C40EDF2
:103F8000642E42E0742E54E0852E912C809109031A
:103F900000E112E1853009F4FEC00E94341A81115B
:103FA0000E944906A4ECB2E0E1EDF2E010E000E08E
:103FB000C02EED9081918E1509F4FCC08E25D12C78
:103FC000FF24F394982F9F2109F4EFC00E94140A54
:103FD000882399F0D982CA82EF2081E009F480E039
:103FE0008B830E9455068160782F9D838C83498145
:103FF0005A816B818D810E94AF19F801EF52FD4FFC
:104000008081F826F0820E94140AE12CD12C809144
:10401000E202E81608F4E5C0D1100E949C08E09185
:104020003303F0913403309719F083E193E009955D
:104030009FB7F8940091FC038091FB03081708F4E4
:1040400040C1081B9FBFF12CE12C10E093E0A92E8A
:10405000B12CCC24C394D12CE016F10608F435C160
:104060008091EB029091EC020E943A062091E902C5
:104070002695269526952F702817190609F060F5C4
:104080000E9455069093EC028093EB028091E60229
:10409000882311F19091E802991F9927991F809127
:1040A000E9028770880F4091E50261E0892B0E9448
:1040B000B0028091E6029091E50287FFBDC1E82F32
:1040C000FF27E1950CF4F0959E171F060CF0B4C184
:1040D0001092E5021092E6020E94370A9091ED02DA
:1040E00089138093ED0280910903843009F04ECF4B
:1040F000809138018F708093E9009091E80090FFE3
:1041000045CF90910903943009F040CF8093E900A6
:104110009091F3008091F200892B09F437CF8091C0
:10412000E8008E778093E8000E94C3032FCF809130
:104130000903843011F11092F402B0E40FB6F89440
:10414000A895409260000FBEB093600083B7817F56
:10415000846083BF83B7816083BF7894889583B779
:104160008E7F83BF0FB6F894A89580916000886118
:1041700080936000109260000FBE80910803882336
:1041800051F00E94341AE4ECF2E0819181115CC19B
:104190006E167F06D1F780910903853009F4C7CFE9
:1041A0000E94200C0E94370AF8CED394FF0C27E01F
:1041B000D21208CF0F5F1F4F0C30110509F0F8CE57
:1041C0008FEF8E838F8318860E9455068160782F2B
:1041D0009A8789874E815F8168858A850E94AF1999
:1041E00012CF0E2D10E0F801EA5CFE4F8081E82F1F
:1041F000E295EF70F0E0E0A1F0E08F7002C0F5957D
:10420000E7958A95E2F7E170D801AB5CBE4F2C913F
:10421000A22FA295AF70B0E090968C9190E02F7095
:1042200002C0959587952A95E2F780FD48C080E009
:104230008E2BD801AD51BD4FEC919E2F93708917F5
:10424000E1F1EE0FEE0FE82BEC93F090E102FE0CA3
:10425000EF70F0E0E457FE4F01521D4F8081D8010E
:104260009C91890F8C9320E0843064F0EF2DF0E076
:10427000E352FD4F80818F5F808360E08F2D0E942D
:10428000E61B21E0F80180818D3F64F4EF2DF0E022
:10429000E352FD4F80818150808361E08F2D0E9429
:1042A000E61B21E0D8018C91082E000C990BB4017B
:1042B0000E944124F8018083D22AE394A8CE82E0B0
:1042C000B7CF2091FD03020FBCCE8091FB0390E09D
:1042D0006091FD0370E00E9441242091FE03309123
:1042E000FF03280F391FD9013C9020903803B7EF06
:1042F000B315F0F4E1E0E093380320E040E0632DF3
:1043000081E090E00E94C102209238032FB7F89418
:104310008091FB0390E001966091FD0370E00E94A4
:1043200041248093FB032FBFBFEFEB1AFB0A94CE0F
:1043300037FE53C0F4E02F1631F030923503D0929F
:104340003A03C0923903832D0E942F05813069F012
:104350008823D1F08230A9F0833099F0109238038D
:1043600010923A0310923903D1CF8093380320E0A2
:1043700040E0632D81E090E00E94C102109238037A
:10438000C5CF80933803C2CF20EF3216E1F047EF5C
:104390003412E4CF2091390330913A03C901B501B9
:1043A0000E942D24FC01ED5EFC4F32A2C901019652
:1043B00090933A0380933903209137034091360359
:1043C00060913503D9CF54E05093380330923503D0
:1043D000D0923A03C092390399CF222009F496CFA4
:1043E0002091390330913A03C901B5010E942D246F
:1043F000AC01FC01ED5EFC4F32A2C9010196909325
:104400003A03809339034130510589F04230510518
:1044100009F07CCF2091370340913603609135033A
:104420000E94C10280913803843091F66FCFA2E0E0
:1044300020E02A126BCFF0CF890F87FD03C0809355
:10444000E5024ACE8FE7FBCF09BD19BD09B400FED6
:10445000FDCF8091D8008F7D8093D8008091E000BF
:1044600082608093E0008091E00081FDFCCF0E949B
:10447000200C91CE8EE14A9B02C08150E1F74A9B0D
:10448000FECF08955A9880E28A95F1F75A9A0895D6
:10449000FC013BE03A95F1F798E020E080E031E064
:1044A00040E14A95F1F7880F4A9B02C081602327BB
:1044B00042E04A95F1F7000040E14A95F1F791504A
:1044C00079F790E19A95F1F799B132E03A95F1F7E1
:1044D000000040E14A95F1F792FB992790F9922765
:1044E0002081920F90830895A1E0B0E0EAE7F2E224
:1044F0000C94022419828C017C01E60EF11C0E152D
:104500001F0541F481E09981911180E02196E6E058
:104510000C941E240E943A22CE0101960E94482249
:10452000F80181938F01EBCF529A5A9A08955298CD
:104530005A9AEA9AE9E6F0E080818F7C80830895B8
:104540006150770B91E001C0990F6A95EAF720E07E
:1045500031E0911108C0222391F05A9A80E28A95A5
:10456000F1F75A980895492F482339F05A9A23278A
:1045700040E24A95F1F79695ECCF5A98F9CF5A98C0
:10458000EDCFFF920F931F93CF93DF93EC018C013C
:10459000060F111DC017D10729F4CDB7DEB7E5E02E
:1045A0000C941F24F9900E94422268E08F2D0E94F3
:1045B000A022F0CF1F920F920FB60F9211240F93EB
:1045C0001F932F933F934F935F936F937F938F939B
:1045D0009F93AF93BF93EF93FF93CF93DF930F928C
:1045E000CDB7DEB719820E943A22CE0101960E9411
:1045F0004822082F069506950695282F22952570A6
:10460000902F9570290F922F937026952695920FD3
:10461000982797708981982B09F05CC0063008F0C4
:1046200059C080E18A95F1F75A9A529A82E08A95A8
:10463000F1F700C05A9888E0089F80011124D80142
:10464000A050BF4F1696ED91FC9117973097A9F0A7
:1046500060917D0170917E0114962D913C9115978A
:10466000260F371F11968D919C911297680F791F15
:1046700013964C9113978C910995F801E050FF4FD8
:104680006381662351F020917D0130917E01848108
:104690009581820F931F0E94C1220E94422280E1D5
:1046A0008A95F1F75A9852985A9A80E18A95F1F7CB
:1046B000F801E050FF4F6081662351F020917D01A9
:1046C00030917E0181819281820F931F0E9474221A
:1046D0000E943A220F90DF91CF91FF91EF91BF910D
:1046E000AF919F918F917F916F915F914F913F918A
:1046F0002F911F910F910F900FBE0F901F90189543
:104700000F931F93CF93DF93EC0106970CF04CC0EF
:10471000F894529A5A9885E08A95F1F700009C2FF8
:10472000969595708C2F8570980F892F837096952C
:10473000969523E0CC0FDD1F2A95E1F7980F8E01A7
:10474000092B0E94422200C068E0802F0E94A02214
:1047500080E18A95F1F752985A9A4A9B1EC087E0E9
:1047600090E04A991CC0FE01E050FF4F6381662330
:10477000F9F020917D0130917E0184819581820F35
:10478000931F0E947422811113C0529A5A9A7894EE
:10479000DF91CF911F910F91089500C0DECF019757
:1047A00029F4529A5A9A789480E0F2CF00C0D9CF77
:1047B0000E943A2280E28A95F1F75A98529A80E153
:1047C0008A95F1F7C050DF4F6881662351F0209140
:1047D0007D0130917E0189819A81820F931F0E9411
:1047E000C1220E944222789481E0D2CF2F923F9240
:1047F0004F925F926F927F928F929F92AF92BF92F1
:10480000CF92DF92EF92FF920F931F93CF93DF939C
:10481000CDB7DEB7CA1BDB0B0FB6F894DEBF0FBEF9
:10482000CDBF09942A88398848885F846E847D8446
:104830008C849B84AA84B984C884DF80EE80FD8048
:104840000C811B81AA81B981CE0FD11D0FB6F894BE
:10485000DEBF0FBECDBFED010895AA1BBB1B51E10A
:1048600007C0AA1FBB1FA617B70710F0A61BB70BE0
:10487000881F991F5A95A9F780959095BC01CD0185
:10488000089597FB072E16F4009407D077FD09D002
:104890000E942D2407FC05D03EF4909581959F4FF2
:1048A0000895709561957F4F0895EE0FFF1F059055
:1048B000F491E02D0994FB01DC0104C08D9101907D
:1048C000801921F441505040C8F7881B990B089576
:1048D000FB01DC0102C001900D9241505040D8F71D
:1048E0000895F999FECF92BD81BDF89A992780B5B8
:1048F0000895A8E1B0E042E050E00C94A524262FF2
:10490000F999FECF92BD81BDF89A019700B40216C5
:1049100039F01FBA20BD0FB6F894FA9AF99A0FBE73
:1049200008950396272F0E9480240E947F24252F1C
:104930000E948024242F0C9480240196272F0E940B
:1049400080240C947F24DC01CB01FC01F999FECF7B
:1049500006C0F2BDE1BDF89A319600B40D92415007
:104960005040B8F70895F894FFCF0B0D330DD50ED6
:10497000330DD50E660D870DD50E840E910EB31531
:10498000B315061606163C16E615E615E615561678
:064990002A173A173A173E
:104996000000000100000000000000060100000009
:1049A60000000001070000000000000108000000F0
:1049B6000409000000000000012A05B4092905AF1A
:1049C60009AA09280537670383400000010440004F
:1049D60000010001818283E200E900EA00B500B629
:1049E60000B700CD008301CC008A01920194012119
:1049F60002230224022502260227022A02B300B459
:104A0600006F00700003050505040506054F023515
:104A16003497F6669491C6F73133329000FF010061
:104A2600010000FFFF0000010001FF000203020079
:0C4A36000001000101010101000101006C
:00000001FF
