:100000000C9406030C9423030C9423030C943E30AD
:100010000C9423030C9423030C9423030C942303C8
:100020000C9423030C9423030C940F290C94CB28D9
:100030000C940C2A0C9423030C9423030C94230398
:100040000C9423030C9423030C9423030C94230398
:100050000C9423030C94E8290C9423030C9423039D
:100060000C9423030C9423030C9423030C94230378
:100070000C9423030C9423030C9423030C94230368
:100080000C9423030C9423030C9423030C94230358
:100090000C9423030C9423030C9423030C94230348
:1000A0000C9423030C9423030C94230300000000FE
:1000B0000000000000000000000000000000000040
:1000C0000000000000000000000000000000000030
:1000D0007E0F00D4FFFFFFC7000000780000000083
:1000E000000000002A2B2800000000000000000093
:1000F0000000000000000029000000002C1E342039
:10010000212224342627252E362D3738271E1F205E
:100110002122232425263333362E37381F040506A3
:100120000708090A0B0C0D0E0F10111213141516E7
:100130001718191A1B1C1D2F3130232D35040506E5
:100140000708090A0B0C0D0E0F10111213141516C7
:100150001718191A1B1C1D2F3130354C62616E6443
:100160006F6D696E65646F6E693A64656661756C22
:1001700074204020302E32342E372D33332D6766D5
:1001800033386133322D6469727479206633386193
:100190003332373665622A207C20323032342D30BB
:1001A000342D30372D30393A32373A333300117E1F
:1001B000177E197E1C7E207E2F7E0000137E187E07
:1001C000227E1E7E2C7E257E147E1D7E247E277E32
:1001D0002B7E1B7E167E61521F7E237E267E297E0D
:1001E0002D7E287E157E1A7E2E7E307E2A7E217EF2
:1001F000127E0F7E000000000000000000000000E2
:100200000000237124712671277128714A7161528F
:1002100025712C712B7129714871477121522A71F6
:10022000317134712E7145714671A84238712F7148
:100230002D713D71437144713A7136713271307173
:100240003F7142713E714071397135713371417145
:1002500037713B713C71137E177E197E1E7E2A7E9C
:100260002E7E0000117E1D7E257E277E1C7E1B7E3D
:10027000157E167E227E267E297E2C7E217E615270
:10028000187E1F7E247E287E2B7E237E1A7E1F7E74
:100290002D7E2F7E327E207E107E147E0000000098
:1002A000000000000000000000002371247126718E
:1002B000297127714871615225712C712D71287136
:1002C0004671477121522A712B7139712F713D711D
:1002D0004571A842387130712E7131713F7144718E
:1002E00036713771347132713371427140714371BB
:1002F0003B713771357141713A713C713E7100004B
:10030000405200000000000000000000000000005B
:1003100000000000000000000000000000000000DD
:1003200000000000000001000000000000000000CC
:1003300000000000000000000000000000000000BD
:1003400000000000000000000000000000000000AD
:100350000000000000000000017E00005571010057
:1003600000000000000000000000567101000000C5
:10037000000000000000000071710100000000009A
:10038000000000000000727100000000000000008A
:100390000000000000000000000000000000007EDF
:1003A000000000000000A900AA00A900AA000100A6
:1003B000010000010101010101010101020202022B
:1003C00002020202020303030303030303040404FF
:1003D00004040404050505050506060606060707C8
:1003E00007070708080808090909090A0A0A0B0B80
:1003F0000B0C0C0C0D0D0D0E0E0E0F0F0F1010111F
:1004000011111212131314141515161617171818A4
:1004100019191A1A1B1B1C1D1D1E1E1F202021220C
:1004200022232424252626272829292A2B2C2D2D52
:100430002E2F30313232333435363738393A3B3C6F
:100440003D3E3F404142434445464748494A4C4D62
:100450004E4F50515354555658595A5B5D5E5F612B
:100460006264656668696B6C6D6F707273757778BE
:100470007A7B7D7E8082838587888A8C8E8F91931C
:100480009596989A9C9EA0A2A3A5A7A9ABADAFB143
:10049000B3B5B7BABCBEC0C2C4C6C9CBCDCFD1D428
:1004A000D6D8DBDDDFE2E4E7E9EBEEF0F3F5F8FACE
:1004B000FDFF05010980A101850319012AB7001577
:1004C0000126B700950175108100C0050C0901A136
:1004D00001850419012AA002150126A002950175C3
:1004E000108100C005010906A101050719E029E7EF
:1004F0001500250195087501810295017508810196
:100500000507190029FF150026FF009506750881CB
:1005100000050819012905150025019505750191AA
:1005200002950175039101C009029F00040100A01A
:10053000FA09040000010301010009211101000171
:10054000224400070581030800010904010001039A
:100550000000000921110100012232000705820379
:10056000200001080B020201010000090402000042
:10057000010100000924010001090001030904032D
:1005800000020103000007240100014100062402CB
:1005900001010006240202020009240301030102F2
:1005A00001000924030204010101000905040240BD
:1005B0000005000005250101010905830240000531
:1005C000000005250101031201000200000008EDF2
:1005D000FEB5F40100010200011C03620061006E1F
:1005E0000064006F006D0069006E00650064006FBC
:1005F000006E00690000000E0333006100720061AC
:1006000000680074000000040309040011241FBEE8
:10061000CFEFDAE0DEBFCDBF27E0ACEFB2E001C044
:100620001D92AA35B207E1F712E0A0E0B1E0E6ECD6
:10063000F6E602C005900D92AC3FB107D9F70E94D3
:10064000332A0C94E6320C94000090915207937078
:1006500061F081110BC09460909352071092510188
:10066000809151078160809351070895873210F07F
:100670009869F2CF880F880F982BEECF9091520790
:10068000937071F08093530760935407433308F0DD
:1006900042E3409355078091510781608093510751
:1006A00008950F931F939B01305E8901000F012F66
:1006B000001F110B11952F77482F406EE0916106B6
:1006C000F091620663E070E081E696E009951F9183
:1006D0000F9108950F93262F042F0F77482F406B0B
:1006E000E0916106F091620663E070E081E696E0D9
:1006F00009950F910895482F209129069091F005B2
:1007000057E0291302C080E0089530E0529FF001C5
:10071000539FF00D1124EF50FA4F8181681306C0EA
:100720008081481303C085818111EECF2F5F3F4F39
:100730002770E7CFA3E0B0E0E0EAF3E00C94643187
:100740007C01162FD42EC22E80918606843071F53E
:10075000E0917B06F0917C063097C1F1C7010197CB
:1007600063E070E00E949131CB01880F991F860FE2
:10077000971F19834A83CB824E2D481B9E012F5F02
:100780003F4FBC0181E696E00995E0917F06F0912C
:100790008006309739F00C2D2D2D412FB70181E6C1
:1007A00096E009952396E8E00C94803182E0E81603
:1007B000F10409F45AC083E0E816F104A9F081E0DD
:1007C000E816F10409F484C0F12CE12CE0917D06D7
:1007D000F0917E063097C9F20C2D2D2D412FB701D7
:1007E00081E696E00995D1CF862F807F803A11F17E
:1007F00088F48038D1F0E0916506F0916606803982
:1008000029F7309719F3123F49F12C2D4D2D612F07
:100810006F7027C0803E99F0803FB1F0E091630691
:10082000F0916406803B91F6ECCFE0916706F09181
:100830006806E7CFE0916906F0916A06E2CFE091A1
:100840006B06F0916C06DDCF623F09F0BFCFE091FF
:100850006D06F0916E06309709F4B8CF2C2D4D2D12
:1008600062EF81E696E0099590CF862F807F803DEC
:10087000B9F0803FD1F0E0916F06F0917006803CB6
:1008800009F0A4CF309709F4A1CF812F8D7F4D2D92
:10089000612F6F70813FC9F081E696E0099575CFB1
:1008A000E0917106F0917206EDCFE0917306F09140
:1008B0007406633F39F0613F09F088CFE091750617
:1008C000F0917606309709F481CF4D2D612FE4CF5A
:1008D000E0917706F0917806683F38F4663F09F0BA
:1008E00075CFE0917906F0917A06309709F46ECFD2
:1008F000612F81E696E0099548CFE8EDF0E0808130
:100900008E7F80831092E2001092DA001092E10054
:10091000A0EEB0E08C9181608C9380818F77808392
:1009200019BCA7EDB0E08C918E7F8C9380818F7E77
:1009300080831092D90508952091E4003091E5005C
:1009400095E6A9012091EC00822F817020FF06C05E
:100950008091E80080FF06C080E008952091E800C3
:1009600022FD1AC08091E605882389F0853089F040
:100970008091EB0085FD0FC02091E4003091E500EF
:1009800042175307F9F29150E1F684E0089582E0AE
:10099000089583E0089581E00895EF92FF920F9308
:1009A0001F93CF937C018B010E949C04C82F81115F
:1009B00017C08091E80085FD0BC08091E8008E771C
:1009C0008093E8000E949C04882399F3C82F08C0F4
:1009D000F70181917F018093F1000150110949F7DE
:1009E0008C2FCF911F910F91FF90EF9008958091E0
:1009F000E80587FF13C08091E80082FF06C0809160
:100A0000E8008B778093E80004C08091E6058111AF
:100A1000F2CF08958091E6058823D9F38091E8000C
:100A200080FFF8CF8091E8008E77ECCF982F9093DD
:100A3000E900242F762F50E0891731F07091EC00F7
:100A40002091ED005091F00021FD07C09F5F97308D
:100A500071F78093E90081E008953091EB003E7FCB
:100A60003093EB003091ED003D7F3093ED003091FD
:100A7000EB0031603093EB007093EC002093ED00BD
:100A80005093F0002091EE0027FDE0CF80E0089524
:100A9000B0E0A0E0EEE4F5E00C946431C8EDD0E005
:100AA00088818F7E8883E7EDF0E08081816080839C
:100AB00084E082BF81E08093D90588818E7F88831E
:100AC00002EE10E0F80110821092DA0081EEC82EDA
:100AD000D12CF601108288818F7788838881806885
:100AE000888388818F7D888319BC1092E6051092D7
:100AF000E7051092E5051092E40590EEE92EF12C41
:100B0000F70180818B7F808388818160888342E0C8
:100B100060E080E00E941605F60180818E7F808370
:100B2000F801808181608083808188608083F70103
:100B300080818E7F8083888180618883CDB7DEB796
:100B4000E8E00C948031FC018091EE059091EF0576
:100B500086179707A0F06115710529F49091E800B8
:100B60009E779093E80090E06115710551F4911122
:100B700008C08091E80082FF34C080E00895BC0185
:100B8000F2CF8091E6058823C1F18530C1F18091D3
:100B9000E80083FD30C08091E80082FDEACF8091BB
:100BA000E80080FFE1CF8091F3002091F200382F20
:100BB0006115710519F02830310558F091E02830A1
:100BC000310509F090E02091E8002E772093E800AD
:100BD000CBCF81918093F100615071092F5F3F4F1E
:100BE000E7CF8091E605882341F0853041F0809180
:100BF000E80083FFBECF81E0089582E0089583E09E
:100C00000895089508958091DB0508959C014FB7DC
:100C1000F8948091D5059091D605A091D705B09113
:100C2000D8054FBF821B930B08952FB7F89460919E
:100C3000D5057091D6058091D7059091D8052FBF25
:100C400008952FB7F8948091D5059091D605A0917D
:100C5000D705B091D8052FBF08959C01FC013296AD
:100C60009FEF80E04191461751F09F3F19F44111E9
:100C700001C0982F8F5F8630A9F79F3F09F4089530
:100C8000290F311D97FD3A95F90162830895A3E07C
:100C9000B0E0EDE4F6E00C946A312091D205309199
:100CA000D30528173907A1F09093D3058093D20577
:100CB000E091D005F091D105309751F024E02983DF
:100CC0009B838A830084F185E02DCE0101960995EE
:100CD0002396E2E00C948631A3E0B0E0E2E7F6E090
:100CE0000C946A312091CE053091CF052817390731
:100CF000A1F09093CF058093CE05E091D005F091BF
:100D0000D105309751F023E029839B838A830084A7
:100D1000F185E02DCE01019609952396E2E00C9431
:100D200086318091CC05882359F0E091D005F0916F
:100D3000D105309729F00190F081E02D09950895B3
:100D400080E00895FC01680F791F8FEF91E32191F6
:100D5000822728E030E087FF09C0880F89272150CB
:100D60003109C9F7E617F70791F70895880FF7CF0C
:100D700090E06623A1F085539A4FFC0120812F3F1C
:100D800089F0E22FE295EF70F0E080A190E02F7003
:100D900002C0959587952A95E2F78170089586534C
:100DA0009A4FEBCF80E0089590E06623E9F08553F9
:100DB0009A4FFC0180818F3FB1F0E82FE295EF70F0
:100DC000F0E041A18F7021E030E0B90102C0660F70
:100DD000771F8A95E2F7CB01962F9095942391A3E4
:100DE00092A1892B82A3089586539A4FE2CF9091C6
:100DF000C405E92FF0E02091C5052150330B237085
:100E00003327E217F307A9F0EA53FA4F282F2F7779
:100E100080818078822B60FB87F980839F5F93704D
:100E20009093C4058091C2058F5F8093C20581E0D5
:100E3000089580E00895FA01811101C0FB01099530
:100E40000895FC01EE0FFF1FDF01A80FB91FA2528A
:100E5000BB4F11963C911197361307C03C91341348
:100E600004C012963C91321751F031E03093DD040A
:100E7000E80FF91FE252FB4F6183408322830895FC
:100E8000FF920F931F93CF93DF93182F062FF42E0B
:100E9000D0E0C0E02F2D402F612FCE010E9421070E
:100EA0002196CC34D105B1F7CDB7DEB7E5E00C948F
:100EB00083311092DD040895E2E5F7E0248130E10A
:100EC000231B08F420E024838091510781608093E4
:100ED00051070895E2E5F7E0248130E1230F08F49B
:100EE0002FEF2483809151078160809351070895EB
:100EF000E2E5F7E0438120E1421B08F440E0818114
:100F0000628190E00E943E030895E2E5F7E04381AC
:100F100020E1420F08F44FEF8181628190E00E944E
:100F20003E030895E2E5F7E0628120E1621B08F4E8
:100F300060E08181438190E00E943E030895E2E5F4
:100F4000F7E0628120E1620F08F46FEF8181438155
:100F500090E00E943E030895E2E5F7E0818143813D
:100F600062818850990B0E943E030895E2E5F7E004
:100F7000818190E04381628108960E943E0308953A
:100F80008091520786958695815009F486E20E94E9
:100F90002503089580915207869586958F5F873245
:100FA00008F081E00E94250308958295807F90E1FA
:100FB000980F9D3408F09CE40895EF92FF920F93F0
:100FC0009701201B31092F3F310519F010F02FEF49
:100FD00030E02095382F320F08F43FEF832F0F9128
:100FE000FF90EF900895EF92FF920F939701201BCF
:100FF00031092F3F310519F010F02FEF30E0322F7B
:101000003095482F430F08F44FEF842F620F0F9154
:10101000FF90EF900895EF92FF920F93972F09346E
:1010200038F4B701601B71096F3F710519F010F0BA
:101030006FEF70E0485F5F4F4131510540F0A9010B
:10104000485F5F4F4131510510F06FEF70E06095E0
:10105000482F460F08F44FEF842F37FF02C02D5F53
:101060003F4F359527953595279560915307620F2A
:10107000792F0F91FF90EF900895EF92FF920F93C9
:101080001F930E0D1F2D111DF90137FF03C0F195A0
:10109000E195F10924E0EE0FFF1F2A95E1F7EF3FFC
:1010A000F10519F014F0EFEFF0E09A0157FF03C0DB
:1010B00031952195310994E0220F331F9A95E1F77C
:1010C0002E173F070CF4F901E00FF11FEF3FF10578
:1010D00019F010F0EFEFF0E0E095282F3E2F230FEE
:1010E00008F42FEF822F1F910F91FF90EF9008953A
:1010F000EF92FF920F93970195E0099F200D311D0C
:1011000011242F3F310519F010F02FEF30E020951A
:10111000382F320F08F43FEF832F0F91FF90EF909D
:101120000895409520E4429F412D1124640F0895B5
:101130004095282F429F412D1124842F0895E42F9C
:10114000F0E0EE0FFF1FE85EFD4F9081921B97FDD0
:101150009195292F38E1239F212D1124620F0895A5
:101160000F931F9310E0F801EE0FFF1FE85EFD4F95
:101170009081905797FD9195000F111FF801E75E40
:10118000FD4F00810052110B2003F001219FF00D53
:10119000112408E310E0091B110997FD1395400382
:1011A0009001419F300D1124E20FF31F9F01220F88
:1011B000331F2E0F3F1F37FF02C021583F4F220F12
:1011C000232F221F330B620F1F910F9108950F934E
:1011D0001F93522F10E0F801EE0FFF1FE75EFD4F47
:1011E000A081A052BB0B9D015203F001539FF00D53
:1011F0001124000F111FD801A85EBD4F0C9100579C
:10120000110B40039001419F300D11242E0F3F1F01
:1012100037FF02C0215C3F4F96E0359527959A95A0
:10122000E1F7620F1F910F9108950F931F93522FB3
:1012300010E0F801EE0FFF1FE75EFD4FA081A05206
:10124000BB0B9D015203F001539FF00D1124000FC1
:10125000111FD801A85EBD4F0C910057110B400320
:101260009001419F300D11242E0F3F1F37FF02C008
:1012700021583F4F220F232F221F330B620F1F9144
:101280000F910895EF920F93972F23E0029FB001E3
:101290001124759567956E0D792F0F91EF90089534
:1012A000322F50E0FA01EE0FFF1FE75EFD4F9081F5
:1012B000905297FD9195440F551FFA01E85EFD4F3E
:1012C0002081231B330B290F311D97FD3A95620FA7
:1012D0000895E42FF0E0EE0FFF1FE75EFD4F608101
:1012E000621B0895E42FF0E0EE0FFF1FE85EFD4F54
:1012F0006081621B0895622F0895E42FF0E0EE0FE5
:10130000FF1FE85EFD4F408134EE439F412D1124C5
:10131000E82FF0E050E0445E5F4FDA01A21BB10914
:101320009D01B7FF03C031952195310993E0220F4C
:10133000331F9A95E1F7AF01421B530B9A0157FDFA
:1013400020E0582F259F212D1124822F0895E42F6E
:10135000F0E0EE0FFF1FE85EFD4F408134EE439F4B
:10136000412D1124E72FF0E050E0445E5F4FDA0199
:10137000A21BB1099D01B7FF03C031952195310929
:1013800093E0220F331F9A95E1F7AF01421B530BF5
:101390009A0157FD20E0279F212D1124722F0895D7
:1013A0000E94400708950E9421070895FC019B01B7
:1013B000009729F480E077FF2BC080E80895AC0106
:1013C00097FF04C044275527481B590BB901640FE8
:1013D000751F37FD10C0241B350BC901A5E0880F10
:1013E000991FAA95E1F70E94A53180E2861BF7FFBD
:1013F0000FC081950895CB0165E0880F991F6A950C
:10140000E1F7BA01621B730B0E94A53180E6EECFB3
:101410000895EF920F93CF93DF93D72FC82FC90171
:101420000E19BA010E94D609602F681B7D2F8C2FE0
:10143000DF91CF910F91EF9008950F93CF93DF93AA
:10144000D72FC82FC901BA010E94D609682F600F93
:101450007D2F8C2FDF91CF910F910895EF920F93F5
:101460001F93CF93DF93D62FC72F182FC9010E19C3
:10147000010FBA010E94D609081B202F219F212DA0
:101480001124822F6D2F7C2FDF91CF911F910F910F
:10149000EF900895EF920F931F93CF93DF93D62F82
:1014A000172FC82FC9010E19070FBA010E94D609BC
:1014B000702F781B719F712D11246D2F8C2FDF9150
:1014C000CF911F910F91EF9008950F931F93CF939A
:1014D000DF93D62FC72F182FC901212F201B022FD2
:1014E000BA010E94D609982F990F990F891B800F76
:1014F000282F219F212D1124822F6D2F7C2FDF91EA
:10150000CF911F910F9108950F931F93CF93DF9366
:10151000D62F172FC82FC901272F201B022FBA0142
:101520000E94D609982F990F990F782F791B700F69
:10153000719F712D11246D2F8C2FDF91CF911F91F1
:101540000F910895E82F86FDE0952E2F2F7086FDD0
:101550002F5FE695E695E695E670F0E0E454FE4FE1
:101560009181929F902D212D112492959F7022950B
:10157000207F922B2081920F87FD919580E8890F23
:1015800008950F931F93CF93DF938B01D82FC42F10
:10159000822F0E94A20AEC2FF0E0EE0FFF1FE85E00
:1015A000FD4F90819058890F87FD8195880F682F96
:1015B0002CE0629F612D1124600F712F8D2FDF9120
:1015C000CF911F910F910895AC018230910508F4DD
:1015D00008959FEF413E8EE1580740F49A0195E04F
:1015E000369527959A95E1F798E0920F61E0E62FFE
:1015F000E90FFF27FF1F9F0135952795822F229F17
:10160000F001239FF00DF00D11244E175F0738F401
:101610009FEF920F961758F78FEF860F08952F3F81
:10162000E9F361E0620FF6CF0F93CF93DF93D72FEB
:10163000C82F47FD419588E390E0841B910947FD41
:101640009395889FB001899F700D700D1124229F82
:10165000C001239F900D900D1124860F971F0E94AB
:10166000E40A982F990F890F682F600F7D2F8C2F18
:10167000DF91CF910F91089530E020E0869F212DDA
:10168000969F200D311D1124C9010895AF92BF927C
:10169000CF92DF92FF920F931F93CF93DF93362F5A
:1016A000472FE82FF0E0EE54FC4F71110FC0E4918A
:1016B0008E2F2E2F6E2F722FDF91CF911F910F91B2
:1016C000FF90DF90CF90BF90AF900895C72FD0E0EC
:1016D0002491F22E022F10E056E0659FC0011124E4
:1016E000EFEFF0E0BF010E949131832F90E0880F6F
:1016F000991F35E5369FD001379FB00D11248A1B05
:101700009B0B982F990F980F6F01CC1ADD0AC09E82
:10171000D001C19EB00DD09EB00D11248B2F499FDA
:10172000A0011124452F55276F01C41AD50AC09E68
:10173000A001C19E500DD09E500D11245F01A91A29
:10174000B108AC9E6001AD9ED00CBC9ED00C1124A3
:10175000CD2CDD24EC19FD09E09FE001E19FD00DC7
:10176000F09FD00D1124ED2F62307105A1F050F4DF
:101770006115710509F49ECF6130710581F0EB2F81
:10178000852F98CF6430710569F080F0663071055F
:1017900009F490CFF4CFE22F2B2F8D2F8BCFE22F98
:1017A000252F88CFEB2F822F2D2F84CF2B2F8F2DFE
:1017B000E52F80CF2F923F925F926F927F928F9210
:1017C0009F92AF92BF92CF92DF92EF92FF920F93D0
:1017D0001F93CF93DF93CDB7DEB729970FB6F89459
:1017E000DEBF0FBECDBF8A837D836C8380914E01A7
:1017F0000E94D507998320912E062B83E82FF0E0D5
:10180000F987E887CF01880F991F9C01285E3D4F1B
:1018100069013A81832F90E0FC013196FF83EE83CA
:10182000898198859817E8F081E0E981EC3408F027
:1018300080E029960FB6F894DEBF0FBECDBFDF91D2
:10184000CF911F910F91FF90EF90DF90CF90BF90BD
:10185000AF909F908F907F906F905F903F902F9070
:101860000895E885F985E055FD4F808190914F01FD
:101870008923F1F020905307309054072E813F8147
:10188000225D394F39015A8010E0FB815F16D0F09C
:1018900020915507129F112D1124B101812F0E9413
:1018A000460B462F282F672F888599850E94D309DC
:1018B000288539852F5F3F4F3987288732E0C30E4F
:1018C000D11CAECFF30181913F01F601A080A81A8F
:1018D000BB088180F3018185881A9908AA9C900130
:1018E000AB9C300D300D1124889CC001899C900D5B
:1018F000900D1124820F931F0E94E40A082F60911B
:10190000560721E0620F08F46FEFF301EE0FFF1F9F
:10191000EE52F640838D948D0E943C0B7C01940125
:10192000A501B101812FEC81FD8109951B01539423
:10193000182FABCFB0E0A0E0E0EAFCE00C946531FA
:101940008C0180914E010E94D507C82FD92E20917D
:10195000560731E0230F08F42FEF30E050E040E06D
:101960006FEF7FEF80E090E00E9483327901D0E05A
:101970002C2FCD1550F081E0FBE4FD1508F480E03C
:10198000CDB7DEB7E7E00C948131FE01E055FD4FA5
:10199000808190914F01892311F140912E06415091
:1019A000042E000C550B47FF1CC0C7016091560761
:1019B00021E0620F08F46FEF0E943C0BAC016091D4
:1019C00053077091540780915507F80109950E94BB
:1019D000460B462F282F672FCE010E94D309219650
:1019E000C7CFFA01E25DF94F858982130AC0FA0177
:1019F000EE0FFF1FE25DF94F878D90A18E159F05B9
:101A0000A8F241505109CFCFEF92FF920F931F934D
:101A1000CF93DF937C0180914E010E94D507C82FA0
:101A2000192F609156076695669521E0620F08F4BC
:101A30006FEF80912A0690912B060E943C0B082F95
:101A4000D0E0C11748F081E01C3408F080E0CDB749
:101A5000DEB7E6E00C948231FE01E055FD4F808157
:101A600090914F01892391F0609153077091540731
:101A700080915507202F4C2FF70109950E94460BA6
:101A8000462F282F672FCE010E94D3092196D9CF48
:101A9000B0E0A0E0EEE4FDE00C9462316C018091D6
:101AA0004E010E94D507C82FF92E60915607669502
:101AB000669580912A0690912B060E943C0B182F68
:101AC00080E4810F0E94A20A90E8B92EB80E812FFF
:101AD0000E94A20A20E8A22EA80ED0E0CF1550F056
:101AE00081E09BE49F1508F480E0CDB7DEB7EAE023
:101AF0000C947E31FE01E055FD4F808190914F01A5
:101B00008923A1F060915307709154078091550784
:101B1000E12E0C2F2A2D4B2DF60109950E94460B24
:101B2000462F282F672FCE010E94D3092196D6CFAA
:101B3000B0E0A0E0EEE9FDE00C9460316C01809132
:101B40004E010E94D507C82F192F60915607669540
:101B500080912A0690912B060E943C0BF82ED0E033
:101B6000C11748F081E01C3408F080E0CDB7DEB743
:101B7000ECE00C947C31FE01E055FD4F80819091AA
:101B80004F018923C9F1CE01880F991F8C539E4FB5
:101B9000FC01EC5AFF4F2081422F4057550B5A0150
:101BA0008B5A9F4FFC018081282F2052330B490113
:101BB000449F9001459F300D300D1124889CC00139
:101BC000899C900D900D1124820F931F0E94E40AAE
:101BD000082F609153077091540780915507EF2C9F
:101BE0009401A501F60109950E94460B462F282F66
:101BF000672FCE010E94D3092196B2CFB0E0A0E0BA
:101C0000E4E0FEE00C9465317C0180914E010E947D
:101C1000D507C82F192F60915607669580912A061F
:101C200090912B060E943C0BD82ED0E0C11748F0B3
:101C300081E01C3408F080E0CDB7DEB7E7E00C941B
:101C40008131FE01E055FD4F808190914F01892344
:101C500011F1CE01880F991F8C539E4FFC01EB5A56
:101C6000FF4F20812052330B8C5A9F4FFC01408143
:101C70004057550B60915307709154078091550759
:101C80000D2DF70109950E94460B462F282F672F2F
:101C9000CE010E94D3092196C9CF84E080934B04E2
:101CA0008FE780934C0480914D048078806480930A
:101CB0004D04E3E0F4E08FEF819394E0EB34F90717
:101CC000D9F71092020410920104109200041092AD
:101CD000FF03089508950895982F907F903BE9F0B1
:101CE00040F49039D1F0903AC1F09038B1F080E0F2
:101CF0000895903D19F020F4903CC9F782E00895D2
:101D0000903E59F0903F99F7815F8F3080F7E82F30
:101D1000F0E0E355FE4F8081089583E00895A7E049
:101D2000B0E0E5E9FEE00C9464318C0108511F4FEE
:101D30008091E605843009F087C0809145018F705D
:101D40008093E9008091E80082FF7EC08091E800E6
:101D500085FF7AC00E949C04811113C084E0E82EA4
:101D6000F12CCE0101966C018091E80085FD61C0E7
:101D70008091E8008B778093E8000E949C04882380
:101D800099F38091E80085FD05C08091E8008B778C
:101D90008093E800FA808F2D0E946C0E282FFD8220
:101DA0008B818E838C818F8321110BC0898184303C
:101DB00041F1873031F1863031F121E0853009F091
:101DC000B7CF30E0E5E0F0E0EC0FFD1FE30FF11DD1
:101DD000F0804FB7F894D8011196EC911197F0E08C
:101DE000CF01019612966C9170E00E94A531D80146
:101DF0005C915817190649F44FBF3F5F321710F333
:101E000097CF23E0DECF22E0DCCF13968D919C911B
:101E10001497E80FF91FF08211968C91119790E0BA
:101E2000019612966C9170E00E94A531F8018183B1
:101E3000E3CF8091F100D6018D936D01B1E0EB1AF3
:101E4000F10809F091CF9DCF2796E8E00C948031FE
:101E5000A4E0B0E0EEE2FFE00C9465317B01142FCA
:101E6000D22E4A832B830C83842F0E946C0E811107
:101E70003AC082E0E816F10489F183E0E816F10443
:101E800041F081E0E816F10429F5173F29F485E0D7
:101E900004C087E0073F09F084E089838091E6056C
:101EA0008430C1F4809140018F708093E90050E04C
:101EB00040E064E070E0CE0101960E94CD04811103
:101EC00009C08091E80085FD05C08091E8008E770B
:101ED0008093E8002496E7E00C94813187EFD812D4
:101EE000DBCF86E0DACF12951F701983D7CF80E061
:101EF000089581E08093FD030895F894E82FE2951A
:101F0000EF70F0E031A1282F2F7081E090E001C048
:101F1000880F2A95EAF7982F9095932391A392A181
:101F2000892B82A3789408950F931F938091CC05F9
:101F3000882329F00E9415061F910F9108950E9491
:101F400015060091C7031091C8032091C903309171
:101F5000CA03600F711F821F931FEECFCF92DF92D3
:101F6000EF92FF926B017C018091CC058823A1F058
:101F70002FB7F8946091D5057091D6058091D7055B
:101F80009091D8052FBF6C197D098E099F09FF908C
:101F9000EF90DF90CF9008950E94940FF4CF90912E
:101FA000DE0392FF10C041E0282F2471243009F095
:101FB00040E031E0282F2871283009F030E0431745
:101FC00011F02CE0822793FF10C041E0282F2471EC
:101FD000243109F040E031E0282F2871283109F040
:101FE00030E0431711F02CE082273091DF0330FFFF
:101FF00010C051E0282F2171213009F050E041E05C
:10200000282F2871283009F040E0541711F029E0FA
:10201000822731FF10C041E0282F2171213109F0C2
:1020200040E031E0282F2871283109F030E04317D3
:1020300011F029E0822794FD877E0895823891056A
:10204000B9F1B0F48133910509F47DC048F48932C7
:10205000910509F46DC08A32910509F47BC0089599
:102060008533910509F45FC08933910509F108951D
:10207000833E9105D9F138F4803E910529F1823EE5
:10208000910579F10895863E9105D9F1873E910534
:1020900009F43EC0843E910541F52091DF0321FF04
:1020A00024C08091DE0384FD19C087EE90E008957E
:1020B0002091DE03237009F05AC02091DF0323FF33
:1020C00014C089E290E008952091DE0320FD38C01D
:1020D0003091DF0330FF09C024FF43C090E080E06F
:1020E00008952091DE0322FDF7CF08952091DE03AD
:1020F00022FD3AC03091DF0330FD39C024FFF5CF17
:10210000EDCF2091DE0323FFF0CF24FDE7CFCDCF2D
:102110002091DE0323FD2EC03091DF0331FFEECF8F
:1021200084EE90E008952091DE0325FFDECFC9CF35
:102130002091DE0325FD21C02091DF0323FFD5CFB1
:1021400089E390E0D2CF2091DE0326FFCECF8AE252
:1021500090E008952091DE0326FFC7CF81E390E051
:10216000089583EE90E0089582EE90E0089580EE69
:1021700090E0089586EE90E0089585E390E008955C
:10218000972F7C30B8F4673078F5833080F570E0B5
:1021900027E0929F600D711D1124FB0194E5899F3A
:1021A000E00DF11D1124EE0FFF1FE255FE4F85914A
:1021B000949108957D3F59F4611116C08330B8F4AD
:1021C00024E0829FF0011124EA55FC4FF0CF7C3FC0
:1021D00059F4611109C0833050F494E0899FF001F3
:1021E0001124E855FC4FE3CF80E090E0089581E0B2
:1021F000FCCF1F93CF93DF930E941E10EC01C115FB
:1022000080E5D807F0F5C11580E4D80708F0AAC02A
:10221000C03ED10520F5CD3CD10508F090C0C83AAC
:10222000D10578F4C53AD10508F081C0C130D10597
:1022300019F1209709F1C430D105F0F4D0E0C0E0E5
:102240001BC0C33CD105D0F7C85AD0E0CC0FDD1F6E
:10225000C85ADE4F0990D881C02DD4640DC0C11575
:1022600080E2D80708F0C9C0C11581E0D80708F09E
:1022700068C0C83ED10510F7CE01DF91CF911F9104
:102280000895C03682E5D80718F5C03482E5D8072E
:1022900008F079C0C03282E5D80708F06DC0C115DA
:1022A00082E5D80708F48FC02C2F2695269580E26A
:1022B000289F900111248C2F8370C1E0D0E002C0D0
:1022C000CC0FDD1F8A95E2F7C22BD32BDD68D4CF6C
:1022D000C03C82E5D807F8F4C03A82E5D80708F098
:1022E00067C0C03882E5D80708F0A8CF2C2F269504
:1022F0002695277080E2289F900111248C2F8370EF
:10230000C1E0D0E002C0CC0FDD1F8A95E2F7C22BFE
:10231000D32BDA68B1CFC03E82E5D80708F08ECF64
:10232000DC2FCC27CC27DF71C06FD06AA5CFC55A70
:10233000D0E0CB5ADE4FC881D0E0D0649DCFD065CD
:102340009BCF8D2F0E94CF0F182FCE0199270E946F
:102350001E10C12FD0E0DC2FCC27CC27DF71C82B7B
:10236000D92B8ACFCE0199270E941E10CC27DF706F
:10237000C82BD92BD06A80CFCF71D0E0DC2FCC27EF
:10238000C16FD06A79CF2C2F26952695277080E2D1
:10239000289F900111248C2F8370C1E0D0E002C0EF
:1023A000CC0FDD1F8A95E2F7C22BD32BDC6864CFFC
:1023B0008C2F8F710E94CF0FC82FD0E0DC2FCC273D
:1023C000CC27DF7159CF8C2F8F710E94CF0F55E032
:1023D000D695C7955A95E1F7CF70D0E0DC2FCC2782
:1023E000282F30E084FF05C044E0220F331F4A95B8
:1023F000E1F7C22BD32BD0693FCF8D2F8F710E9475
:10240000CF0F182FCE0199270E941E10C12FD0E0A8
:10241000DC2FCC27CC27DF71C82BD92BD0622CCF57
:10242000809129069091F005981301C008958F5F5F
:102430008770FACFB0E0A0E0E0E2F2E10C94633103
:102440007C010091DC031091DD038091DA0390910F
:10245000DB03082B192BCFE0D0E0CC24C394D12C84
:10246000BC2EC6010C2E02C0880F991F0A94E2F7F9
:1024700080239123892B49F4219790F7B12C8B2D40
:10248000CDB7DEB7E9E00C947F31B7018C2F0E9405
:10249000C0100E94F910019779F3F1CFCF93DF9329
:1024A000EC010E941A12BE010E94C0100E94F91095
:1024B000DF91CF910895A82FA77023E09695879577
:1024C0002A95E1F7880F991F880F991FFB01E80FE4
:1024D000F91F50E040E080E0219130E00A2E02C078
:1024E000369527950A94E2F721703327042E01C010
:1024F000220F0A94EAF7822B4F5F5F4F4430510559
:1025000059F70895292F9C3068F4873090F490E0B3
:1025100066E573E037E0239F800D911D11240E9432
:102520005B1208952C5F223020F462E573E090E0A6
:10253000F6CF80E00895262F277091E001C0990F13
:102540002A95EAF723E0769567952A95E1F7660FD5
:10255000771F660F771FFA01E60FF71F50E040E084
:10256000682F70E08191DF0111979B01042E02C05A
:10257000369527950A94E2F721702195282729237B
:1025800028272C934F5F5F4F4430510559F708952A
:10259000282F862F9C3070F4273058F4622F70E07B
:1025A00027E0929F600D711D112446E553E00E94C3
:1025B0009B1208959C5F9230E0F7622F70E042E535
:1025C00053E0F5CF9093DD038093DC03089521E081
:1025D00030E002C0220F331F8A95E2F72095309534
:1025E0008091DC039091DD03822393230E94E21209
:1025F000089521E030E002C0220F331F8A95E2F7F0
:102600008091DC039091DD03822B932B0E94E212D8
:1026100008959093DB038093DA030895FC012481ED
:102620002223C1F0808191810E944E1292959F7069
:10263000963091F058F4925F9F70923058F4803F3A
:1026400019F030F4883E30F481E008959A5FF4CFB9
:10265000843FD1F380E00895883EB0F3813FD1F705
:10266000F3CFA6E0B0E0E7E3F3E10C9469314983EE
:102670005A8349815A819923A1F0222391F0CA01FA
:102680000E941A12182F682F89819A810E94C812FD
:1026900069817A81812F0E94C0102696E3E00C9414
:1026A0008531CA010E948212182FF2CFE6E0F3E0D2
:1026B0008FEF819393E0EF34F907D9F780914B04C2
:1026C000807F826080934B0480914C048078856782
:1026D00080934C0408959B01BA019091E6059430D3
:1026E000E1F48093E9009FEF8091E800915085FD2F
:1026F00006C085ED8A95F1F700009111F5CF809124
:10270000E80085FF0AC050E040E0C9010E94CD0406
:102710008091E8008E778093E800089543E050E0D0
:10272000BC0182E00E946B130895CF93DF93EC010C
:1027300048E050E0BC0181E00E946B1388E0FE019C
:10274000ACEDB5E001900D928A95E1F7DF91CF9164
:1027500008958091DD04882341F1539A3BB1377F7E
:102760002BB128604FB7F8948EED94E0FC015191A5
:10277000CF0168E02BB9000000C057FF3BB9550FEF
:10278000000000C000C000C03BB900C06A9591F7CE
:10279000F5E0823C9F0751F74FBF8FE594E001972A
:1027A000F1F700C000001092DD040895B0E0A0E051
:1027B000ECEDF3E10C9462317C015B016A018091E4
:1027C000C60301E010E08A3010F40AE010E0C1E036
:1027D000D0E0B501C701F6010995811104C0219629
:1027E0000C171D072CF4CDB7DEB7EAE00C947E3150
:1027F000CC9F9001CD9F300D300D112490E080E0F2
:1028000045E34A95F1F70000019682179307C1F757
:10281000E0CFB0E0A0E0EFE0F4E10C945D31D82E21
:1028200080914C018D1124C090915207937020919A
:102830004B0130E081E09217130609F480E08170CB
:10284000809350018091570790914F01981739F06C
:1028500080934F0140E060E080E00E94D00926E2D2
:102860002D1560F0ED2DF0E0E851FD4C0C94B931E0
:1028700081E0E5CF80915001811102C080E045C028
:1028800040E060E080E00E94D009F8CF80914E01E6
:102890000E94D507C82F192F6091530770915407D4
:1028A000809155070E94460B062FF72EE82ED0E0A8
:1028B000C11720F081E01C3440F1E0CFFE01E0556B
:1028C000FD4F808190914F01892331F02E2D402FB3
:1028D0006F2DCE010E94D3092196EACF80914E013F
:1028E0000E94D507092FF0905407E09055072091DA
:1028F000560710E4129F112D1124C82FD0E0C017E5
:10290000E0F081E00C3408F0B9CF90914E019F5F68
:1029100090934E0181110CC082E08093510180910F
:102920005001811105C0D11003C083E08093510193
:10293000CDB7DEB7EFE00C947931FE01E055FD4FE5
:10294000808190914F018923B9F0FE01EE0FFF1FA6
:10295000E75EFD4F808182958F7060915307819F64
:10296000600D11247F2D8E2D0E94460B462F282F9F
:10297000672FCE010E94D3092196C1CF80914E01CD
:102980000E94D507092FF0905407E0905507209139
:10299000560710E4129F112D1124C82FD0E0C01744
:1029A00008F0AFCFFE01E055FD4F808190914F01BF
:1029B0008923D9F0FE01EE0FFF1FE85EFD4F608115
:1029C000169FB001112425E0759567952A95E1F7CA
:1029D00080915307680F7F2D8E2D0E94460B462F46
:1029E000282F672FCE010E94D3092196D8CF80913E
:1029F0004E010E94D507C82F192F00915307D0917F
:102A00005407F09055076091560766956695669550
:102A100080912A0690912B060E943C0B0E94A20AEC
:102A2000805887FD8195880F282F3F2D239F212DCA
:102A30001124822F602F7D2F0E94460B062FF72E28
:102A4000E82ED0E0C11708F035CFFE01E055FD4F6C
:102A5000808190914F01892331F02E2D402F6F2DD1
:102A6000CE010E94D3092196EDCF87EA99E00E941A
:102A7000040D4BCF8DE799E0FACF84E89AE00E94ED
:102A8000FE0D43CF85E69AE0FACF8AE49AE00E94F1
:102A9000980D3BCF8EE29AE0FACF8BE799E0E7CF33
:102AA00082E799E0E4CF89E699E0E1CF80E599E01B
:102AB000DECF82E499E0EBCF84E19BE0E0CF8DE1D3
:102AC0009AE0DDCF89E09AE0E2CF85E199E00E94CB
:102AD000480D1BCF87EE98E0FACF80EB98E0F7CF58
:102AE00080914E010E94D507C82F192FF0905407EE
:102AF00000915507D09153076091560766956695EA
:102B0000669580912A0690912B060E943C0B0E94AC
:102B1000A20A805887FD8195880F682F2CE0629F5C
:102B2000612D11246D0F7F2D802F0E94460B062FE3
:102B3000F72EE82ED0E0C11708F0BCCEFE01E0551C
:102B4000FD4F808190914F01892331F02E2D402F30
:102B50006F2DCE010E94D3092196EDCF81EC9AE032
:102B600086CF8FE998E083CFC0905507A3E0CA9E37
:102B7000E0011124D695C795D695C7955C2EAC2C4F
:102B8000B12C8FEF90E0B5010E94A531762E809197
:102B90005001882371F040E060E080E00E94D0099D
:102BA000E1E5F4E084E5DF011D928A95E9F71092F2
:102BB000500480914F048F5F80934F0410E000E039
:102BC000AC1ABD0A7801612CC8018F5A9B4F4C0189
:102BD00080915004862909F040C00E940B3285354F
:102BE0009540DCF5F401C082F701EC53FE4FE08123
:102BF000EF3FC9F0D701AF5ABB4F2C91F0E052160E
:102C0000E0F530E02C1B3D0B2C9FC0012D9F900D5B
:102C10003C9F900D1124B5010E949131262F4C2D1F
:102C2000CF010E94D3096394F7E0EF0EF11C2CE072
:102C30006212CECF0F5F1F4F0730110519F680913A
:102C40004F04781202C010924F04809150048F5F9D
:102C50008D31E8F48093500411CEF701EF5AFB4F09
:102C60008081882309F28C1508F0BECF90914F0423
:102C70007912BACF81508083B7CFC29EC001112490
:102C8000BE010E949131462F20E060E0C9CF109232
:102C9000500447E954E02BE068E574E03FEF3C0D59
:102CA00081E594E0FA012B3039F4DC01A35BBF4FDE
:102CB000CC91CC1201C03C93A081AC1510F03083B4
:102CC000C782019631966817790769F721504750F6
:102CD00051092111E5CFD2CD88E998E00E949A0CE4
:102CE00014CE81E998E0FACF80912E0621E0382FAA
:102CF000321B08F430E0832F68E778E00E94DA0B9B
:102D000004CE68E778E080E0F9CF80912E0621E0DC
:102D1000382F321B08F430E0832F6DE378E0EECFDC
:102D20006DE378E0F0CF80912E0621E0382F321B42
:102D300008F430E0832F6BE078E0E0CF6BE078E0E0
:102D4000E2CF80912E0621E0382F321B08F430E0CC
:102D5000832F63EF77E0D2CF63EF77E0D4CF80911A
:102D60002E0621E0382F321B08F430E0832F6DED62
:102D700077E0C4CF6DED77E0C6CF80914E010E9421
:102D8000D507C92F0E940B32D82F0E940B326D2F0E
:102D9000782F809155070E94460B482F872F0E945D
:102DA000D00981E0CC3408F4B0CD68CD4F925F9269
:102DB0006F927F928F929F92AF92BF92CF92DF924B
:102DC000EF92FF92CF936091D8047091D9048091D3
:102DD000DA049091DB040E94AE0F6B017C010E942B
:102DE000940F4B015C018092D8049092D904A09278
:102DF000DA04B092DB04A091A504E5EAF4E08A2F9E
:102E000090E04FEF5FEF60E070E04C195D096E09F4
:102E10007F09A9132AC08093A5048091DC04C0E037
:102E2000811108C080915207C82FC37019F0C82FB4
:102E3000C695C69580915101813009F440C0882320
:102E400039F1823009F446C0833009F44EC0CF9185
:102E5000FF90EF90DF90CF90BF90AF909F908F90BA
:102E60007F906F905F904F900895278D30A129013A
:102E7000712C612C441555056605770520F48150A9
:102E80009F5F3296C6CF2C0D3D1D30A3278FF8CF04
:102E900010924E0180922A0690922B06A0922C0648
:102EA000B0922D0683E3E5EAF4E0AEE2B6E00190ED
:102EB0000D928A95E1F781E080935101C8CF8C2F64
:102EC0000E940914CC2319F280914E0181500E9476
:102ED000D507BDCFC0934C0180915207837080937A
:102EE0004B010E94A91383E0E7CF8091510788230B
:102EF00051F048E050E068E170E082E597E00E9420
:102F00004F321092510760912A0670912B068091E2
:102F10002C0690912D060E94AE0F6031710581053F
:102F2000910508F494CF1092510191CFA4E0B0E044
:102F3000ECE9F7E10C9469314091C2035091C3036D
:102F40006091C4037091C5032FB7F8948091D505A3
:102F50009091D605A091D705B091D8052FBF841BBD
:102F6000950BA60BB70B11E084369105A105B105B1
:102F700070F10E94940F6E5F7F4F8F4F9F4F698358
:102F80007A838B839C8380912D0190912E018255B1
:102F90009C4F40912C0150E04530510510F044E029
:102FA00050E0BE016F5F7F4F0E94283285E090E0C5
:102FB0000E94E430182F882351F00E941506609378
:102FC000C2037093C3038093C4039093C503812FFE
:102FD0002496E3E00C9485314F925F927F928F921A
:102FE0009F92AF92BF92CF92DF92EF92FF920F9398
:102FF0001F93CF93DF930F92CDB7DEB7C62E4A0152
:103000005901482E880F5508C2010E94E430782EDD
:10301000882309F480C0C20133E0880F991F3A95D4
:10302000E1F7FC01EC5FFE4F438150E04115510593
:1030300011F041E050E08C5F9E4FFC01648175818E
:1030400062557C4FCE0101960E942832F4014081E6
:103050005181628173812FB7F8948091D505909149
:10306000D605A091D705B091D8052FBF841B950B2D
:10307000A60BB70B84369105A105B10540F4B70145
:10308000C8010E94A2069981891709F444C00C2C3A
:10309000000CDD08C6010E94E430782E811113C0B7
:1030A000712C872D0F90DF91CF911F910F91FF9081
:1030B000EF90DF90CF90BF90AF909F908F907F90D8
:1030C0005F904F900895C60123E0880F991F2A95BD
:1030D000E1F7FC01EC5FFE4F438150E0E416F5069A
:1030E00008F4A7018C5F9E4FFC01648175816255D5
:1030F0007C4FC5010E942832B701C8010E94A20678
:1031000099818913CDCF0E941506F40160837183E4
:1031100082839383C6CFA701B801C5010E942832DC
:10312000C0CFA8E0B0E0E7E9F8E10C94663188E0B0
:10313000E82EF12C06EB13E09E012F5F3F4F4AEA89
:1031400053E063E082E00E94EC17082F882389F1A6
:103150009091B5038091A903981759F110E09091CF
:10316000B9038091B8038917F1F0E92FF0E0EE542C
:10317000FC4F808587FB662760F99F5F9370909373
:10318000B9039091B7039F5F9093B7038F770E9425
:10319000F706182F8111E3CF84E090E00E94E4301D
:1031A000012F082302C01111F7CF8091B50380933E
:1031B000A903802F2896E6E00C948231A6E0B0E0C7
:1031C000E4EEF8E10C9464316B0186E0E82EF12C1A
:1031D0000FEA13E09E012F5F3F4F45EA53E061E0A5
:1031E00080E00E94EC17882349F096E0FE013196BA
:1031F000AFE9B3E001900D929A95E1F796E0EFE91F
:10320000F3E0D60101900D929A95E1F72696E8E059
:103210000C948031A2E1B0E0E0E1F9E10C945F317F
:103220008E010F5F1F4F8CE0F80111928A95E9F72C
:1032300080E9C82E81E0D82EF12CE12CAA24A39499
:10324000B12C2DE9822E21E0922EF60181916F01A1
:103250008F3F09F442C0F894E82FE295EF70F0E058
:1032600021A18F70A50102C0440F551F8A95E2F776
:10327000CA01922F982B91A392A18095892382A3B2
:10328000789400C0E6E9F1E0712C31E021912F3F04
:1032900009F495C0A22FA295AF70B0E090968C91E2
:1032A00090E02F7002C0959587952A95E2F780FDF2
:1032B00086C0832F782A330F8E169F0639F7F601C2
:1032C000319780818F3F11F00E947D0F50EA5A950F
:1032D000F1F7F801EE0DFF1D70828FEFE81AF80A82
:1032E000E6E0EE16F10409F0B0CF4CE050E0B80192
:1032F0008CEC93E00E941B32009741F02CE0F80127
:10330000ACECB3E001900D922A95E1F70091D9035E
:1033100010E000521C4F892B09F453C081E08093C8
:1033200097030E9421069093960380939503D12CD6
:10333000C090CC05CC2009F49BC07E01FDE0EF0ECF
:10334000F11C86E0F70111928A95E9F78091C60396
:103350008A3008F05AC04EED58E1B701C8010E940A
:10336000D613882309F473C041E958E1B701C801B5
:103370000E94D613882309F46AC046E957E1B701D1
:10338000C8010E94D613882309F461C01092C603B5
:103390008091D80390E046E050E0B70180529C4F06
:1033A0000E941B3221E020939E03892B09F042C02A
:1033B000C12C8C2D8D296296EDE00C947B3180E040
:1033C00079CFD0909703DD2009F4B1CF8091950398
:1033D000909196030E940606059708F4A8CF46E050
:1033E00050E06CEC73E0C8010E941B32892B59F04D
:1033F00086E0ECECF3E0D80101900D928A95E1F7BC
:103400001092970395CFD12CFBCF80919803909188
:1034100099030E940606843F914008F09CCF80915A
:103420009E03882329F286E0F70111928A95E9F735
:1034300010929E03A091D803B0E0A052BC4F86E04A
:10344000FE013D9601900D928A95E1F7B2CF8091F1
:10345000C6038F3F31F08F5F8093C6038A3008F434
:1034600097CF0E9421069093990380939803D7CF1A
:1034700086E0F801AFEAB3E001900D928A95E1F79A
:1034800066E070E08FEA93E00E94A2068093AE03AC
:1034900088E0E2ECF5E0A6EBB3E001900D928A95AE
:1034A000E1F768E070E086EB93E00E94A20680936B
:1034B000B5038090BE039090BF03A090C003B0906E
:1034C000C10380919A0390919B03A0919C03B091BA
:1034D0009D0388169906AA06BB0609F46ACF809256
:1034E0009A0390929B03A0929C03B0929D030E942A
:1034F0001506861A970AA80AB90A8092C7039092FD
:10350000C803A092C903B092CA0353CF80918A0323
:1035100090918903892B8093FE0248E050E06BE88C
:1035200073E08EEF92E00E941B32892BA9F088E0B5
:10353000EEEFF2E0ABE8B3E001900D928A95E1F78F
:10354000E091D005F091D105309731F00280F38100
:10355000E02D8EEF92E00995089510928A03E0E045
:10356000F3E086E0DF011D928A95E9F790E080E0C4
:103570000E946C0690E080E00E944706109289034A
:103580000E94861A0895AAE2B0E0E9ECFAE10C94F0
:10359000693188EE95E02091F100FC012193CF0183
:1035A000F5E0803F9F07B9F78091E905833009F482
:1035B00070C0B8F4813009F447C0823009F4B1C05A
:1035C0008091E80083FF88C28091E8059091E90529
:1035D0009A3008F081C2E92FF0E0E15FFC4C0C94D6
:1035E000B9318A3009F48CC08B3009F46FC089304E
:1035F00039F78091E805813219F78091EC059091B7
:10360000ED050297E8F68091E800877F8093E80057
:103610008091E80082FF38C09091F3008091F20021
:10362000029731F48091F100813011F0863021F45D
:103630008091F1008093DB058091E8008B77809387
:10364000E8000E94F704BCCF8091E805813A09F0B8
:10365000B7CF8091E800877F8093E8008091EC05E8
:103660009091ED05892B61F468E08CED95E070E0B8
:103670000E94A3058091E8008B778093E800A0CF9B
:1036800060E090E080E0F3CF8091E6058111C0CF4B
:1036900097CF8091E805813A09F092CF8091EC05AF
:1036A0009091ED05892B09F08BCF8091E800877F01
:1036B0008093E8008091E80080FFFCCF80914D016D
:1036C0008093F1008091E8008E77B9CF8091E80572
:1036D000813209F075CF8091EC059091ED05892B31
:1036E00009F06ECF8091E800877F8093E8000E9408
:1036F000F7048091EA0580934D010E94AD1A60CFD6
:103700008091E805813209F05BCF8091E800877FE6
:103710008093E8000E94F7048091EB058093DA051E
:103720004FCF8091E805813A09F04ACF8091E800B7
:10373000877F8093E8008091E80080FFFCCF809134
:10374000DA05BECF803899F0823809F0C5C1809182
:10375000EC058F70873008F0BFC18093E90080913D
:10376000EB0085FB882780F91092E90006C0809164
:10377000E4059091E505911182609091E800977FB2
:103780009093E8008093F1001092F1008091E8009E
:103790008E779EC1882309F48CC1823009F09CC1C8
:1037A0008091EA0581118FC18091EC058F702FEF18
:1037B000280F263008F090C18093E9002091EB009B
:1037C00020FF81C1933031F48091EB0080628093BF
:1037D000EB0079C19091EB0090619093EB0021E0B8
:1037E00030E001C0220F8A95EAF72093EA00109298
:1037F000EA008091EB008860EACF81116DC11091E1
:10380000EA051F778091E3008078812B8093E300A5
:103810008091E800877F8093E8000E94F704809100
:10382000E80080FFFCCF8091E30080688093E30094
:1038300082E0111183E08093E6054EC1805882300A
:1038400008F04AC18091EA059091EB058C3D23E098
:103850009207A1F583E08A838AE289834FB7F894BF
:10386000DE01139620E03EE051E2E32FF0E05093BA
:103870005700E49120FF03C0E295EF703F5FEF70C7
:103880008E2F90E0EA30C0F0C7968D939D932F5F06
:10389000243159F74FBF8091E800877F8093E8007B
:1038A0006AE270E0CE0101960E94A3058091E800D3
:1038B0008B778093E80010C1C096E7CF4091EC056C
:1038C0005091ED05292F33272330310509F444C0E9
:1038D00078F52130310509F46FC08FE990E0E8E216
:1038E000F5E02230310509F0F7C02091E800277F8C
:1038F0002093E8002091EE053091EF0582179307A1
:1039000008F49C0140E02115310509F064C0411123
:1039100062C08091E80082FDC9CF8091E6058823CE
:1039200029F2853019F28091E80083FFF2CFBECFF3
:1039300021323105A9F12232310509F0CDC04115FE
:10394000510509F443C04130510509F0C5C082E377
:1039500090E0E2EBF4E0C9CF992781309105C1F006
:10396000009759F0029709F0B7C0E9EDF5E0E4914E
:103970008E2F90E0E9EDF5E007C0E7E0F6E0E49196
:103980008E2F90E0E7E0F6E0009709F4A5C0ADCFF8
:10399000E7EFF5E0E4918E2F90E0E7EFF5E0F4CF6C
:1039A0004115510571F04130510509F095C089E08C
:1039B00090E0E3E5F5E099CF82E190E0E7ECF5E017
:1039C00094CF89E090E0EAE3F5E08FCF84E490E0E3
:1039D000E4EEF4E08ACF8091E605882309F466CF0F
:1039E000853009F463CF8091E80083FD5FCF80913B
:1039F000E80082FD8ECF8091E80080FF84CF909117
:103A0000F3008091F2002115310519F088309105FD
:103A100050F041E0089709F040E08091E8008E778F
:103A20008093E80070CF44914093F100319621508B
:103A300031090196E8CF803809F04EC08091E80046
:103A4000877F8093E8008091E7058093F1009ECE08
:103A5000811142C01091EA051230F0F58091E80022
:103A6000877F8093E8001093E7050E94F7041123F5
:103A700011F084E005C08091E30087FDFACF81E07A
:103A80008093E60542E061EC81E00E94160542E287
:103A900061EC82E00E94160542E361E883E00E9447
:103AA000160542E360E884E00E9416058091E60571
:103AB00013C08091EA05813079F481E0933009F0F8
:103AC00080E08093E5051092E9008091E800877F0F
:103AD0008093E8000E94F7048091E80083FF0AC009
:103AE0008091E800877F8093E8008091EB008062FE
:103AF0008093EB00AA96E3E00C9485310E94AD1A06
:103B00002FEF84E39CE0215080409040E1F700C01B
:103B1000000088E19AE00FB6F894A89580936000C1
:103B20000FBE90936000FFCF882341F08095909165
:103B30008A03892380938A030E94861A0895882322
:103B400039F090918A03982B90938A030E94861AE9
:103B500008958823C1F19CEF980F913A78F4E0E042
:103B6000F3E09191891303C0DF0111971C9243E0A8
:103B7000E630F407B1F70E94861A089590E2980F94
:103B8000983088F4877021E030E0A90102C0440F2A
:103B9000551F8A95E2F7CA01809590918A0389237F
:103BA00080938A03E8CF9BE5980F933028F490E048
:103BB00080E00E946C060895885A8B3120F490E0D2
:103BC00080E00E9447060895CF93C82F8823B1F064
:103BD0008CEF8C0F813A00F5E0E0F3E086E093E0B3
:103BE000DF012D91C21761F08A179B07D1F76C2F67
:103BF0008EEF92E00E942D060E94861ACF910895C2
:103C00002191C21303C0DF0111971C928E179F07E9
:103C1000B9F70E94861AEBCF80E28C0F883068F4E7
:103C2000C77021E030E001C0220FCA95EAF7809109
:103C30008A03822B80938A03DFCFEBE5EC0FE3301E
:103C400040F4F0E0EB5AFE4F808190E00E946C0659
:103C5000D5CFC85ACB3190F6EC2FF0E0EE0FFF1F16
:103C6000E85AFE4F808191810E944706C7CF1F937B
:103C7000CF93DF93182FEB010E94E41D209739F4B6
:103C8000812F0E94A91DDF91CF911F9108958FE987
:103C90009FE00197F1F700C000002197EFCF0F934D
:103CA0001F93CF93DF93C62FD42F022FFC01858162
:103CB0008823A9F0609350070E94210690934F0734
:103CC00080934E07C77081E001C0880FCA95EAF75C
:103CD0000E949F1DDF91CF911F910F9108958091B8
:103CE0005007681334C080914E0790914F070E948F
:103CF0000606883C910558F510E21D0FCD17B9F066
:103D000080E28C0F883040F4C77081E001C0880FDA
:103D1000CA95EAF70E94941D183048F481E09D2F5F
:103D2000977001C0880F9A95EAF70E949F1D6AE07C
:103D300070E0802F0E94371E183060F6D77081E047
:103D400001C0880FDA95EAF70E94941DC3CFC770AF
:103D500081E001C0880FCA95EAF7F6CFB0E0A0E095
:103D6000E4EBFEE10C9462317C01FC018481882348
:103D700009F45DC121E040815181628173819581A7
:103D80000E943113EC018130FEE79F0709F441C125
:103D900090F581159E4709F467C0C338F1E7DF0746
:103DA00008F0CCC1C33721E7D20708F0DFC2C43620
:103DB00031E7D30708F06BC1C73541E7D40708F0F6
:103DC00088C2C53551E7D50708F04BC1CB3481E730
:103DD000D80708F05DC2C33091E7D90708F027C2C1
:103DE000FE01E851FC47E730F10508F0A8C3E75EA3
:103DF000FC4C0C94B93183509E478934910568F688
:103E000040914F0300914C040F778C2F835090E02A
:103E10009C012A5F3C4F6901F9012081F7018581EE
:103E2000882309F40CC12F3F09F001C180914B0494
:103E3000982F9F7085958595859585958350FCE095
:103E40009F9F800D1124C80F2C2F2F774F70406932
:103E5000E0916106F091620663E070E081E696E031
:103E60000995F601C083E3C0F7018581882309F431
:103E7000DEC0CCE5D1E08AE0A82EFE012491222309
:103E800009F4D5C0213009F044C0319684918130C5
:103E900069F42296FE0184916AE070E0893311F49E
:103EA00060E570E00E94371E2196E7CF823031F442
:103EB0002296FE0184910E94E41DF6CF833031F4F6
:103EC0002296FE0184910E94A91DEECF843009F054
:103ED0009EC02296FE01249190E080E0FE01319682
:103EE0002053330B2A30310548F00197E8F2EFE90F
:103EF000FFE03197F1F700C00000F7CFA89EA001C6
:103F0000A99E500D1124C901840F951F2491EF0122
:103F1000E5CFE22FF0E0E452FF4FB490822F869578
:103F20008695869590E0FC01E453FF4FE49027705E
:103F3000F12C022E02C0F594E7940A94E2F731E0E6
:103F4000E322FF24FC01E454FF4FC490D12C022E45
:103F500002C0D594C7940A94E2F741E0C422DD245C
:103F6000FC01E455FF4F049110E002C01595079540
:103F70002A95E2F701701127E114F10449F081EE6E
:103F80000E94E41D8FE39CE90197F1F700C0000057
:103F9000C114D10449F086EE0E94E41DEFE3FCE970
:103FA0003197F1F700C000006AE070E08B2D0E94AD
:103FB000371E8FE39CE90197F1F700C00000C114A0
:103FC000D10449F086EE0E94A91DEFE3FCE9319788
:103FD000F1F700C00000E114F10449F081EE0E9405
:103FE000A91D8FE39CE90197F1F700C000000115BE
:103FF000110509F459CF6AE070E08CE20E94371E87
:10400000EFE3FCE93197F1F700C000004DCFEF017D
:104010004BCFF7018581882351F08091500391E0C7
:10402000892780935003882339F090934F03CDB7AD
:10403000DEB7EAE00C947E3110924F03F8CF2F3FA9
:1040400061F02F774F704068E0916106F091620651
:1040500063E070E081E696E009958FEFF6018083DA
:10406000E6CFC535E1E7DE0709F421C1C635F1E742
:10407000DF0709F0B5CEF70185818823C1F2809171
:104080004B04982F9F70993090F69F5F1CC1C137E9
:1040900021E7D207B8F5C63631E7D30708F03AC1B1
:1040A000C43641E7D40709F421C1C53651E7D50725
:1040B00009F096CEF7018581882309F4B8CF2091C5
:1040C0004B04822F859585958595859586300CF0D6
:1040D000AECF91E0980F9295907F95959595959597
:1040E0009595392F3295307F2F70232B20934B04D9
:1040F00018160CF09CCF97FF9ACF8295807F922F55
:104100009F70E3C0C137DC0709F416C1C23791E7DD
:10411000D90709F065CEF7018581882309F487CF97
:1041200080914C04982F9F779F3709F480CF933765
:1041300008F01AC1935F9F77807814C1C938E1E70E
:10414000DE0709F46FC1D0F5C53821E7D20709F4BD
:1041500041C1E8F4C33841E7D40709F41CC1C438AD
:1041600051E7D50709F03CCEF7018581882309F492
:104170005ECF20914C04322F331F3327331F909191
:104180004D04892F8770880F832B8F5F16C1F7012D
:10419000258180914C0490914D04C738F1E7DF07E9
:1041A00009F42CC108F034C140E021114FE7881F09
:1041B0008827881F9770990F60E41CC1CC3841E7AD
:1041C000D40709F451C190F4CA3881E7D80709F43B
:1041D00039C1CB3891E7D90709F002CEF7018581C3
:1041E000811140C18FEF8093010421CFCE38E1E7E8
:1041F000DE0709F472C108F459C1CF3821E7D207AC
:1042000009F0EECD80914C04982F991F9927991FA2
:1042100080914D048770880F892BF70195816FEF8E
:104220007FE1992309F46AC10E94510300CF0091F4
:104230004C04802F881F8827881F40914D044770A9
:10424000440F482B0F778C2F835090E0FC01ED5FDB
:10425000FB4F6F012081F70185818823A1F02F3F5B
:1042600009F0E5CE80914B04E82FE595E595E595BD
:10427000E595E3508F70FCE08F9FE00D1124CE0F89
:104280002C2F2F77E4CD2F3F09F4E7CE2F77DBCE0D
:10429000F7018581882309F4CACECB54EC2FEF7047
:1042A000C0914B04C07FCE2BC0934B04C0CEF7010E
:1042B0008581882309F4BBCE80914B04982F9F7091
:1042C00009F4B5CE915F9F70807F892B80934B045A
:1042D000AECEF7018581882309F4A9CECD55EC2F08
:1042E000E295E07FC0914B04CF70DDCFF70185816F
:1042F000882309F49CCE80914B04982F9595959531
:10430000959595959B3F0CF492CE915F9295907FF9
:104310008F70DBCFF7018581882309F488CEC656DC
:10432000ECE0CE9FE02D1124EF77C0914C04C078D3
:10433000CE2BC0934C047BCEF7018581882309F4F2
:1043400076CE80914C04982F9F7709F470CE8078B8
:104350009F3721F4856780934C0469CE9D30D8F354
:104360009D509F77892BF7CF8F67F5CFF701858118
:10437000882309F45CCEC35780914C04C0FB87F9B5
:1043800080934C04C695C77080914D04887FC82BDC
:10439000C0934D044CCEF7018581882309F447CEA4
:1043A00020914C04322F331F3327331F90914D043B
:1043B000892F8770880F832B815F382F3F7080FB98
:1043C00027F920934C04832F8695987F982B909300
:1043D0004D042DCEF7018581882309F428CE9091D4
:1043E0004C04991F9927991F80914D048770880F5D
:1043F00040E06BE7892B0E946A0319CE40E021114F
:104400004FE7881F8827881F9770990F61E4F2CFC4
:1044100040E021114FE7881F8827881F9770990F68
:1044200062E4E8CFF701858140E081114FE7909188
:104430004C04991F9927991F80914D048770880F0C
:1044400063E4D8CFF701858140E081114FE7909177
:104450004C04991F9927991F80914D048770880FEC
:1044600064E4C8CF81E0BFCEF7018581882309F4D9
:10447000DECD90914D04292F2695269526952F70F7
:1044800081E0820F8F70880F880F880F9778892BB3
:1044900080934D04982F987709F0C9CD220F220FF1
:1044A000220F8778822B80934D04C1CDF70185813F
:1044B000882309F4BCCD80914D04982F987709F496
:1044C000B6CD982F969596959695915F9F70990F7A
:1044D000990F990F8778892BE6CF80914C04982FFC
:1044E000991F9927991F80914D048770880F892BF8
:1044F000F701958160E070EE911196CE70E060E07A
:1045000093CE26E241EE61EEC7010E944F1E8FCD91
:1045100027E245EE65EEF8CF26E241EE60EEF4CFFD
:1045200027E245EE64EEF0CF26E241EE62EEECCFFC
:1045300027E245EE66EEE8CF28E241E0EBCFF70157
:104540009581992309F4F7C2109250079E013057C4
:104550002332310508F0D9C284E090E00E9449324C
:104560009093DF038093DE03FE01E150F047E232D7
:10457000F10520F4E05EFC4C0C94B9318091DE032F
:1045800081608093DE0395C08091DF038860809313
:10459000DF038FC08091DE038260F3CF8091DE0362
:1045A0008460EFCF8091DE038860EBCF8091DF03E2
:1045B0008160EDCF8091DF038260E9CF8091DE03DF
:1045C0008061DFCF8091DE038062DBCF8091DE03EC
:1045D0008064D7CF0E94AD1A8091DE038068D1CF6E
:1045E0008091DE038C60CDCF8091DF038360CFCFDD
:1045F0008091DE038E7FC5CF8091DF03877FC7CF99
:104600008091DE038D7FBDCF8091DE038B7FB9CF9C
:104610008091DE03877FB5CF8091DF038E7FB7CF98
:104620008091DF038D7FB3CF8091DE038F7EA9CF92
:104630008091DE038F7DA5CF8091DE038F7BA1CF9C
:104640000E94AD1A8091DE038F779BCF8091DE03AD
:10465000837F97CF8091DF038C7F99CF8091DE039A
:1046600082FB992790F921E0922790FB82F990FB39
:1046700083F987CF8091DF03982F909591708E7F7B
:10468000892B90FB81F983CF9091DE03892F8F7B5B
:1046900096FF806476CF0E94AD1A9091DE03892F39
:1046A00097FB87F980586DCF61E08EE090E00E9423
:1046B0005F326091DE037091DF0384E090E00E943E
:1046C0007D320E94AD1AB3CC60E0EFCF9091DE0353
:1046D000892F8F7E94FF806154CF9091DE03892FC4
:1046E0008E7F90FF81604DCF9091DF03892F877F70
:1046F00093FF88604CCF85E328C28091520791E0F8
:10470000892780935207109251018091510781604F
:10471000809351078CCC40EC57E06AEC77E00E9424
:104720001B0785CC4AEC57E060EC77E0F8CF4CEA09
:1047300057E066EB77E0F3CF46EB57E06CEA77E0C3
:10474000EECF42E957E06FE977E0E9CF4FE957E074
:1047500062E977E0E4CF48E757E065E877E0DFCF4C
:1047600045E857E068E777E0DACF4CE557E06AE6DE
:1047700077E0D5CF4AE657E06CE577E0D0CF81E02F
:104780000E94250354CC84E0FBCF8CE0F9CF81E17B
:10479000F7CF6FEF7FEF90E080E00E947D320E94C4
:1047A0007E1DF701C081D181992309F1CE010E94BC
:1047B0001A12182F682FCE010E94C812BE01812F35
:1047C0000E94C0100E94F910C82FD82EF701258131
:1047D000368132953F70892F82958F70082F10E0B7
:1047E0008C30E8F5F801EE5BFC4C0C94B931CE014D
:1047F0000E948212182FE2CFD92FDF70907F11F024
:10480000D295D07F8C2F2223C9F0DD2369F090E26E
:104810009C0F983010F0C1110BC080918A03D82BE7
:10482000D0938A030E94861A8C2F0E94E41D17C021
:1048300080918903D82BD0938903F4CF0E94A91DBE
:10484000DD2369F0D095C05EC83010F0D11019C0DA
:1048500080918A03D823D0938A030E94861A085035
:1048600011090430110510F40E94910620E0F701AF
:104870004081518162817381848195810E943113CD
:10488000D6CB80918903D823D0938903E6CF892F93
:104890008F70907F903211F08295807FF1E0DF126F
:1048A0000CC0222329F03630D0F60E949F1DD7CFAE
:1048B0003530A8F60E94941DD2CF222319F033235D
:1048C000A1F3B2CF3323B1F3C93309F016C12FEFEF
:1048D00037EE43E0215030404040E1F700C0000097
:1048E0008C2F0E94A91DBBCF892F8695869583703A
:1048F00061F0813009F0B3CF8C2F9370211102C089
:1049000080E090E00E944706AACF8C2F937021117F
:1049100002C080E090E00E946C06A1CF892F8370D6
:1049200009F042C021119BCF8C2F8295869587700C
:10493000880F880F2C2F2F7030E0082E02C0220F16
:10494000331F0A94E2F750E040E0C4FF09C04FE093
:1049500050E002C0440F551F8A95E2F740955095EC
:104960009695969593709230A9F080F46091DA0351
:104970007091DB03913041F0C901842B952B862384
:1049800097230E9409136BCF262B372BC901842B49
:10499000952BF7CFC901842B952B2091DA03309109
:1049A000DB0382279327EDCF8695222311F0892FF1
:1049B0008170882309F453CF8C2F82958695877058
:1049C000880F880F2C2F2F7030E0082E02C0220F86
:1049D000331F0A94E2F750E040E0C4FF09C04FE003
:1049E00050E002C0440F551F8A95E2F7409550955C
:1049F0009695969593709230A9F080F46091DC03BF
:104A00007091DD03913041F0C901842B952B8623F1
:104A100097230E94E21223CF262B372BC901842B28
:104A2000952BF7CFC901842B952B2091DC03309176
:104A3000DD0382279327EDCFD92FDF70222329F0C2
:104A40008D2F0E94F9128C2F30CF8C2F0E94941D35
:104A50008D2F0E94E71203CF8C2FE1EFCE1791F13B
:104A6000EC1750F0F0EFCF17D1F02223D1F1311134
:104A7000DBCE892F8F712AC042EFC41751F153EF5B
:104A8000C513F3CF222351F19F7121E030E0F901EA
:104A900002C0EE0FFF1F9A95E2F7CF01BACF222393
:104AA00069F0353008F0DBCE292F2F7181E090E0DE
:104AB00002C0880F991F2A95E2F7B7CF363008F069
:104AC000CECEF2CF892F8F71222319F20E94F912D4
:104AD000C6CE892F8F712223C9F3BBCF90E080E02F
:104AE00098CF332379F0893341F4FFEF27EE33E099
:104AF000F15020403040E1F7F1CE8FE39CE901977F
:104B0000F1F7ECCE892F8F71A4CFC631FCE7DF0718
:104B100049F580918A038A7A91E009F490E09093B4
:104B2000510369E2811165E38EEF92E00E942D0648
:104B30000E94861A7CCAC6312CE7D20709F03CC015
:104B4000809151038111D7CD89E2E0E0F3E09191AA
:104B5000891303C0DF0111971C9223E0E630F207AE
:104B6000B1F7E6CFC1303CE7D30709F418CEC33024
:104B70004CE7D40709F40DCEC115DC4709F011CE7E
:104B80000E94AD1A3FEF44E35CE03150404050409A
:104B9000E1F700C0000087E797E790930108809352
:104BA000000888E19AE00FB6F894A8958093600019
:104BB0000FBE90936000FFCF80918A038272FE0146
:104BC000E052F847E531F10508F0EBCDE25BFC4C33
:104BD0000C94B931CF93DF9380918803807F09F0E3
:104BE0004DC080918703882309F448C0E0912906CD
:104BF0005091F005C0918303D091820360918403AA
:104C00007091850347E05E17C9F18E2F90E0E49F15
:104C1000F0011124EF50FA4F2481222391F1489F93
:104C2000F001499FF00D1124DF01AF50BA4F1196EA
:104C30002C9111972C1325C02C912D1322C0159661
:104C40002C91159721111DC012962D913C91261B78
:104C5000370B283C3105A8F4809188038F70806160
:104C600080938803E950FA4F80818F708061808340
:104C700082E893E00E94AE1E0E941012DF91CF9155
:104C80000895FC013196E770BECFA4E1B0E0EBE4FB
:104C9000F6E20C9460318C0186E0F801DE011F968B
:104CA00001900D928A95E1F7F8018481E58092E800
:104CB000A92E93E0B92E90918603911128C08823E4
:104CC00019F1EE20F1F0C8010E940E13F82E88238E
:104CD000C1F087E0F801D50101900D928A95E1F7C6
:104CE00080918603813031F4809182039091830317
:104CF0000E944E120E94EA258F2D6496ECE00C94DF
:104D00007C31C8010E94AE1EFF24F394F5CFD08001
:104D1000C18082809380F09087032091840330913A
:104D20008503A401421B530BFF2009F4D9C0483C62
:104D3000510508F092C08823F9F290918303809185
:104D40008803282F207F09F056C0C91214C0909103
:104D50008203D91210C0E11048C08F708061809327
:104D6000880382E893E00E94AE1E80918803F801D8
:104D70008683F12CC1CFE11038C06C2D8D2D0E949F
:104D80007B036C2D8D2D0E947B03E82E8111F1CFCA
:104D9000DF86C88A8F8598890E944E12292F229516
:104DA0002F70243058F49F70223088F0992399F0A6
:104DB000F8019681907F79F4FE2C9ECF2A5F2F70A8
:104DC000223068F0C8010E94AE1EEF2CF5CF992367
:104DD00011F0882389F3805E883070F3F3CF803F31
:104DE00058F3815F833070F7E7CF8091880381604B
:104DF00080938803BECFC91207C090918203D91255
:104E000003C0EE2009F48DC0C8010E940E13882350
:104E100009F477CFEE2009F474CF809188038032B3
:104E200088F02091820330918303398728879B86FD
:104E30008A86909186039C871D868E87CE01089670
:104E40000E94AE1E87E0F801A2E8B3E001900D9247
:104E50008A95E1F70E94EA2557CF90918803292F80
:104E6000207F51F482E893E00E94AE1E87E0F501B6
:104E700011928A95E9F77DCF882309F43DCF80917F
:104E800083038C1110C080918203D8120CC0E110F2
:104E90000AC09683C8010E94AE1E87E0F5011192F8
:104EA0008A95E9F729CFC8010E940E13882309F4D7
:104EB00028CFEE2009F425CF80918803803210F2AC
:104EC00020918203309183033A8329839C828B82D1
:104ED000909186039D831E828F83CE010196B0CF71
:104EE000483C5105D0F6882309F40ECFFE2CEE2065
:104EF00009F407CF809183038C1120C08091820335
:104F0000D8121CC08091880380FD0FC0982F907F1D
:104F100061F08683903F31F0982F907F905F8F7083
:104F2000892B8683C8010E94AE1E87E0F801A2E8A3
:104F3000B3E001900D928A95E1F7DECEC8010E94A0
:104F40000E1381117FCF8091880381608093880345
:104F5000C8010E94AE1ED0CEABE1B0E0E2EBF7E2BA
:104F60000C9468314E8B5F8B688F798F8A8F9B8F03
:104F7000192F9111109289031D8A86E0FE01769601
:104F8000DE011F9601900D928A95E1F70A8D0023AC
:104F900041F021E04F85588969897A89C8010E94CA
:104FA00031130B8B1C8B87E0FE013F96DE011896B8
:104FB00001900D928A95E1F7CE0108960E94452650
:104FC00081110CC087E0FE013896DE011196019038
:104FD0000D928A95E1F78C8581110BC017E08091C5
:104FE00029069091F005891331C06B96E4E00C948A
:104FF00084312091F00530E0C9010196877099272E
:10500000409129064817190699F097E0929FD00120
:10501000939FB00D1124AF50BA4FFE01319601900D
:105020000D929A95E1F78093F0050E941012D6CF69
:105030000E94AD1A1092F0051092290687E0E2E86E
:10504000F3E0DF011D928A95E9F7C8CF819FC00187
:1050500011248F509A4F0E944526882331F2809167
:10506000290690E001968770992780932906B7CF8B
:10507000ACE0B0E0EEE3F8E20C94633180E00CEFDA
:1050800093E0F92EEE24E3942DEFD22E32E0C32EDE
:105090009091C5052091C405291709F454C0E92F42
:1050A000F0E0EA53FA4F108117FBBB24B0F81F77EA
:1050B0009F5F93709093C5058091C3058F5F809328
:1050C000C305B11008C00E9421061F8308879A8774
:1050D0008987FB8607C00E9421061F83D8869A878E
:1050E0008987CB86EC864F81588569857A858B8543
:1050F0009C850E94AC278FE39CE90197F1F700C0E3
:105100000000BB20C1F00E9421061983DA829C8333
:105110008B83CD821E8249815A816B817C818D81F6
:105120009E810E94AC278FE39CE90197F1F700C0B4
:10513000000081E0ADCF0E94210619830A839C8381
:105140008B83FD82E7CF2C96E9E00C947F31A6E0BB
:10515000B0E0EDEAF8E20C9468310E9421068C017F
:1051600080919303909194038017910781F01982A5
:105170001A820E942106682F49815A81792F80E086
:1051800090E00E94AC27109394030093930326961B
:10519000E4E00C9484311F920F920FB60F92112409
:1051A0002F933F934F935F936F937F938F939F932F
:1051B000AF93BF93CF93DF93EF93FF93D091E90029
:1051C000DF708091EC00C82FC17080FDC0E81092A4
:1051D000E9008091F000877F8093F00078940E942E
:1051E000C31A1092E9008091F00088608093F0006B
:1051F000CD2BCF70C093E900FF91EF91DF91CF915C
:10520000BF91AF919F918F917F916F915F914F91DE
:105210003F912F910F900FBE0F901F9018951F92E6
:105220000F920FB60F9211242F933F934F935F93DA
:105230006F937F938F939F93AF93BF93EF93FF935E
:105240008091E10082FF09C08091E20082FF05C0E9
:105250008091E1008B7F8093E1008091DA0080FFF4
:1052600024C08091D80080FF20C08091DA008E7F1A
:105270008093DA008091D90080FF9DC080E189BDD4
:1052800082E189BD09B400FEFDCF81E08093E6058F
:105290008091D905811109C00E947D040E944805B2
:1052A0008091E20084608093E2008091E10080FFC1
:1052B00017C08091E20080FF13C08091E2008E7FD2
:1052C0008093E2008091E20080618093E20080910F
:1052D000D80080628093D80019BC85E08093E605F1
:1052E0008091E10084FF2BC08091E20084FF27C001
:1052F00080E189BD82E189BD89B5982F917080FFD9
:10530000FBCF8091D8008F7D8093D8008091E10001
:105310008F7E8093E1008091E2008F7E8093E20097
:105320008091E20081608093E2008091E70588230C
:1053300009F447C084E08093E6058091E6058091FA
:10534000E10083FF27C08091E20083FF23C08091AA
:10535000E100877F8093E10082E08093E605109270
:10536000E7058091E1008E7F8093E1008091E2006B
:105370008E7F8093E2008091E20080618093E20062
:1053800042E060E080E00E9416058091F0008860B5
:105390008093F000FF91EF91BF91AF919F918F911A
:1053A0007F916F915F914F913F912F910F900FBE21
:1053B0000F901F90189519BC1092E6051092D90510
:1053C00074CF8091E30087FD93E09093E605B5CF1D
:1053D00078941F921FB61F9211248F939F93AF93BF
:1053E000BF938091D5059091D605A091D705B09136
:1053F000D8050196A11DB11D8093D5059093D605C2
:10540000A093D705B093D805BF91AF919F918F918D
:105410001F901FBE1F9018951F921FB61F92112438
:105420008F939F93AF93BF938091D405811113C045
:105430008091D5059091D605A091D705B091D8055A
:105440004196A11DB11D8093D5059093D605A093DB
:10545000D705B093D805BF91AF919F918F911F90C1
:105460001FBE1F901895CDB7DEB72C970FB6F894D6
:10547000DEBF0FBECDBF85B7806885BF85B78068AA
:1054800085BF0E944D0E10928606109288061092DB
:10549000870680EC80934B0789E896E090934D0750
:1054A00080934C0710924A071092490710926606A3
:1054B00010926506109268061092670610926A06AE
:1054C0001092690610926C0610926B0610926E068E
:1054D00010926D061092700610926F06109272066E
:1054E000109271061092740610927306109276064E
:1054F00010927506109278061092770610927A062E
:105500001092790610927C0610927B06109280060B
:1055100010927F0688E29FE0909362068093610676
:105520008FE89EE090938206809381068BE69EE052
:1055300090937E0680937D068AE69EE090936406B3
:105540008093630684B7877F84BF0FB6F894A895CD
:1055500080916000886180936000109260000FBEAF
:1055600080E890E00FB6F89480936100909361001A
:105570000FBE87E79FE09093FD028093FC020E949C
:105580007D040E9448058091E20084608093E200DF
:1055900078948091E6058823A1F01091E9001F70AE
:1055A0009091EC00892F817090FD80E8182B10926B
:1055B000E9008091E80083FD0E94C31A1F701093D8
:1055C000E90082E084BD93E095BD9AEF97BD80939A
:1055D0006E001092C7031092C8031092C903109274
:1055E000CA0388EC90E01091E300111F1127111FEE
:1055F00061F4AFE3BCE91197F1F700C00000019737
:1056000091F70E947D041092E6051093CC0581E08D
:1056100081278093CD059091CB03911106C092E034
:10562000111101C091E09093CB0381E0913009F01A
:1056300080E08093340111110E94F82FE2ECF5E034
:1056400088E0DF011D928A95E9F78091340110927C
:10565000FA031091340181E018271093FC03809124
:10566000340180913401811117C211110FC2EFE88A
:10567000F1E03197F1F700C0000010E08091FC03E9
:10568000181708F417C2809134018091340196E014
:10569000811190E09093D90386E0891B8093D80311
:1056A00000E911E096E9E92E91E0F92ED8018D91FB
:1056B0008D018F3F11F00E947D0FE016F106B1F7CA
:1056C00006E911E0F80181918F018F3F11F00E94EE
:1056D0007D0FF1E00D391F07A9F78CE0E0EEF3E054
:1056E000DF01282F1D922A95E9F7ECECF3E0DF01AA
:1056F0001D928A95E9F790E080E00E944932863E4B
:105700009E4F09F480C066EE7EEF90E080E00E943C
:105710007D3260E082E090E00E945F3281E090E0C4
:105720009093DB038093DA0361E083E090E00E94D2
:105730005F3260E074E184E090E00E947D3260E0DE
:1057400086E090E00E945F3260E087E090E00E9497
:105750005F3240E050E0BA0188E090E00E94713290
:1057600060E084E290E00E945F3260E087E190E0D8
:105770000E945F3260E08CE090E00E945F3260E067
:105780008DE090E00E945F3219821A821B821C8297
:105790001D821E821F82188648E050E068E170E09A
:1057A000CE0101960E944F3240E050E0BA0180E203
:1057B00090E00E9471320E944D0E0E94561380911B
:1057C0005207837011F410925101809152078C7F1F
:1057D00081608093520780915107816080935107C7
:1057E0008FE7809356074FEF6FEF8AEA90E00E94B1
:1057F0003E038BE10E94250340E050E0BA0183E1C3
:1058000090E00E94713282E090E00E9441328093E9
:10581000EC0384E090E00E9449329093DF03809390
:10582000DE0383E090E00E94413290E00E94091381
:105830000E94590710922E06EDE4F6E081E696E00C
:105840002FEF3FEF219331938E179F07D9F71092D7
:10585000A504E4ECF4E088ED94E02FEF3FEF219312
:1058600031938E179F07D9F781E08093510748E065
:1058700050E068E170E082E597E00E9431321092DA
:105880005107809152078C7FF9F481E3809352078E
:105890008091520190915301A0915401809353073C
:1058A00090935407A09355078FE7809356078FEF87
:1058B0008093570748E050E068E170E082E597E0A8
:1058C0000E944F32109251078091CC05811102C085
:1058D0000E94FB2F0E9456138EE00E94250385E351
:1058E00091E09093D1058093D0058091E6058530B5
:1058F00089F400E4F02E83E0E82E00E112E18091CB
:10590000E605853009F4E8C00E94AD1A0E949106B0
:105910001092DC040E940A191DEE212E13E0312E94
:1059200080EE93E09B878A8729EF33E0DC01F10169
:1059300091918D912E173F0709F41DC19817C1F35E
:105940009091CC059C87B4EC8B2EB1E09B2EE12C82
:10595000AA85BB85DD90BB87AA87F10161901F01F5
:105960006D1409F489C06D242401C12C772473942B
:10597000862D872109F475C0FD2CF720FC85FF23B7
:10598000A1F0C982EA820E9421069C838B8321E0D8
:105990002D8391E0F11001C090E09E8349815A81EE
:1059A0006B817C818D810E94AC278091CC058823FE
:1059B00009F457C0FF2041F0D2018C91F12C8F3FA8
:1059C00019F08987FF24F3940F2D10E08091A5042E
:1059D000800F912F911D0B976CF1EAE0AE2EB12C48
:1059E000A01AB10AB8016A557B4FA50186EA94E076
:1059F0000E942832B80160557B4FA50180EB94E0EE
:105A00000E942832A501440F551FB801660F771F69
:105A10006C537B4F84EC94E00E942832B8016654AA
:105A20007B4FA5018AEB94E00E9428328AE08F190F
:105A30008093A5048091A50490E0E985AE2FB0E0A5
:105A40009D01220F331F285E3D4FAA0FBB1FBD01D2
:105A5000675E7D4F41E0480F9F1508F444C1809375
:105A6000A504C394770CEFEF4E1A5E0AF7E0CF124D
:105A70007FCFF1013197D082E39427E0820E911C11
:105A80004CE0E41265CF0E94940F79C085EF8093BB
:105A9000CA0584EF8093CB0580E0811708F0E7CD3D
:105AA00060E080E00E94D40661E080E00E94D406BD
:105AB00081E0F3CF60E0812F0E94B806082F61E0FB
:105AC000812F0E94B806E12FF0E0E550FC4F880FCF
:105AD000802B80831F5FD2CD8091E605843009F44E
