:100000000C9406040C9423040C9423040C94AE3238
:100010000C9423040C9423040C9423040C942304C4
:100020000C9423040C9423040C94AB2B0C94672B9A
:100030000C94A82C0C9423040C9423040C942304F7
:100040000C9423040C9423040C9423040C94230494
:100050000C9423040C94842C0C9423040C942304FB
:100060000C9423040C9423040C9423040C94230474
:100070000C9423040C9423040C9423040C94230464
:100080000C9423040C9423040C9423040C94230454
:100090000C9423040C9423040C9423040C94230444
:1000A0000C9423040C9423040C94230400000000FB
:1000B0000000000000000000000000000000000040
:1000C0000000000000000000000000000000000030
:1000D0007E0F00D4FFFFFFC7000000780000000083
:1000E000000000002A2B2800000000000000000093
:1000F0000000000000000029000000002C1E342039
:10010000212224342627252E362D3738271E1F205E
:100110002122232425263333362E37381F040506A3
:100120000708090A0B0C0D0E0F10111213141516E7
:100130001718191A1B1C1D2F3130232D35040506E5
:100140000708090A0B0C0D0E0F10111213141516C7
:100150001718191A1B1C1D2F3130354C62616E6443
:100160006F6D696E65646F6E693A6C6564204020DE
:10017000302E32322E322D34372D676532333465CE
:10018000372D6469727479206532333465373331C1
:1001900036642A207C20323032332D30392D3232F1
:1001A0002D32333A34333A333200117E177E197EC2
:1001B0001C7E207E2F7E0000137E187E227E1E7EF7
:1001C0002C7E257E147E1D7E247E277E2B7E1B7E2C
:1001D000167E61521F7E237E267E297E2D7E287EFE
:1001E000157E1A7E2E7E307E2A7E217E127E0F7E26
:1001F000000000000000000000000000000023716B
:1002000024712671277128714A71615225712C71F0
:100210002B71297148714771027E2A7131713471D5
:100220002E7145714671A84538712F712D713D7140
:10023000437144713A713671327130713F7142715C
:100240003E714071397135713371417137713B7154
:100250003C71137E177E197E1E7E2A7E2E7E000044
:10026000117E1D7E257E277E1C7E1B7E157E167EC2
:10027000227E267E297E2C7E217E6152187E1F7E64
:10028000247E287E2B7E237E1A7E1F712D7E2F7E5C
:10029000327E207E107E147E0000000000000000F0
:1002A000000000000000237124712671297127715C
:1002B0004871615225712C712D71287146714771F9
:1002C000027E2A712B7139712F713D714571A845DC
:1002D000387130712E7131713F71447136713771DF
:1002E0003471327133714271407143713B71377EA9
:1002F000357141713A713C713E71E0001E001F0082
:100300002000210022000000167C2B0014001A009F
:100310000800150017003900040016000700090046
:100320000A000B00E1001D001B000600190005007B
:1003300011003500E300E20091442C002C0046003F
:1003400000000000000000000000000000004A0063
:100350004E000A001C0023002F004B004D0005003A
:100360000B0018002400300024522C0011000D0056
:100370000C00250031000100904410000E00120016
:10038000260027004F00E60036000F0013002A0069
:10039000E50052005000370033004C0028003800C0
:1003A000510039001E001F00200021002200000023
:1003B000167C2B0014001A00090013000A00E0004C
:1003C000040015001600170007002800E1001D00BA
:1003D0001B0006001900050010003500E300E200D4
:1003E00091442C002C00460000000000000000009A
:1003F0000000000000004A004E0007000D0023002E
:100400002F004B004D0005000B000F0024003000B2
:1004100024522C000E0011001800250031000100AC
:100420009044100008001C00260027004F00E60042
:1004300036000C0033002A00E5005200500037005F
:1004400012004C0028003800510001003A003B0027
:100450003C003D003E0000000100010001000100E1
:100460000100010001000100010001000100010084
:100470000100010001000100010001000100010074
:100480000100010001000100010001000100010064
:10049000000000000000000000000000000001005B
:1004A0000100010001003F00010001000100010006
:1004B00001000100400001000100010001000100F5
:1004C00001004100010001000100010001000100E4
:1004D0004200430001000100010001000100010091
:1004E00001000100010001003400010001000100D1
:1004F0000100000040520000000000000000000069
:1005000000004252000000000000000000004352C2
:1005100000000000000000000000010000000000DA
:1005200000000000000000000000000015701470C2
:1005300000000000000000000000000000000000BB
:10054000000000000000000026780000017E00008E
:100550005571010000002578000000000000567170
:10056000010000002478000000000000717101000B
:100570000000237800000000000072712078000065
:100580002A780000000000002778037C2278297870
:100590000000007E000028782178A900AA00A900A8
:1005A000AA00010001000100010001000100217802
:1005B0002278000101010101010101010202020290
:1005C00002020202020303030303030303040404FD
:1005D00004040404050505050506060606060707C6
:1005E00007070708080808090909090A0A0A0B0B7E
:1005F0000B0C0C0C0D0D0D0E0E0E0F0F0F1010111D
:1006000011111212131314141515161617171818A2
:1006100019191A1A1B1B1C1D1D1E1E1F202021220A
:1006200022232424252626272829292A2B2C2D2D50
:100630002E2F30313232333435363738393A3B3C6D
:100640003D3E3F404142434445464748494A4C4D60
:100650004E4F50515354555658595A5B5D5E5F6129
:100660006264656668696B6C6D6F707273757778BC
:100670007A7B7D7E8082838587888A8C8E8F91931A
:100680009596989A9C9EA0A2A3A5A7A9ABADAFB141
:10069000B3B5B7BABCBEC0C2C4C6C9CBCDCFD1D426
:1006A000D6D8DBDDDFE2E4E7E9EBEEF0F3F5F8FACC
:1006B000FDFF05010980A101850319012AB7001575
:1006C0000126B700950175108100C0050C0901A134
:1006D00001850419012AA002150126A002950175C1
:1006E000108100C005010906A101050719E029E7ED
:1006F0001500250195087501810295017508810194
:100700000507190029FF150026FF009506750881C9
:1007100000050819012905150025019505750191A8
:1007200002950175039101C009029F00040100A018
:10073000FA0904000001030101000921110100016F
:100740002244000705810308000109040100010398
:100750000000000921110100012232000705820377
:10076000200001080B020201010000090402000040
:10077000010100000924010001090001030904032B
:1007800000020103000007240100014100062402C9
:1007900001010006240202020009240301030102F0
:1007A00001000924030204010101000905040240BB
:1007B000000500000525010101090583024000052F
:1007C000000005250101031201000200000008EDF0
:1007D000FEB5F40100010200011C03620061006E1D
:1007E0000064006F006D0069006E00650064006FBA
:1007F000006E00690000000E0333006100720061AA
:1008000000680074000000040309040011241FBEE6
:10081000CFEFDAE0DEBFCDBF27E0A2EFB2E001C04C
:100820001D92A134B207E1F712E0A0E0B1E0E6EAE0
:10083000FBE602C005900D92A23FB107D9F70E94D6
:10084000CF2C0C9456350C940000EF92FF920F932E
:10085000CF9300913E070F772DEF260F30E0F9017F
:10086000E95FF94F7F012081442329F12F3FF1F403
:1008700090913D07C92FC595C595C595C595C350A0
:100880009F70FCE09F9FC00D1124C60F2C2F2F7767
:100890008F70482F4069E0915006F091510663E057
:1008A00070E080E596E00995F701C083CF910F9144
:1008B000FF90EF9008952F3F69F02F778F70482FAA
:1008C0004068E0915006F091510663E070E080E5E9
:1008D00096E009958FEFF7018083E8CF0F931F9380
:1008E0009B01305E8901000F012F001F110B119534
:1008F0002F77482F406EE0915006F091510663E04B
:1009000070E080E596E009951F910F9108950F938F
:10091000262F042F0F77482F406BE0915006F0915F
:10092000510663E070E080E596E009950F91089527
:100930009091FF05937061F081110BC094609093CA
:10094000FF05109247018091FE0581608093FE05AE
:100950000895873210F09869F2CF880F880F982B8E
:10096000EECF9091FF05937071F080930006609335
:100970000106433308F042E3409302068091FE05EE
:1009800081608093FE050895482F2091C3059091C2
:100990008A0557E0291302C080E0089530E0529F95
:1009A000F001539FF00D1124E557FA4F8181681330
:1009B00006C08081481303C085818111EECF2F5F6F
:1009C0003F4F2770E7CFA3E0B0E0E9EEF4E00C94EE
:1009D000D4337C01162FD42EC22E8091750684301C
:1009E00071F5E0916A06F0916B063097C1F1C7018D
:1009F000019763E070E00E940134CB01880F991FDA
:100A0000860F971F19834A83CB824E2D481B9E0168
:100A10002F5F3F4FBC0180E596E00995E0916E069F
:100A2000F0916F06309739F00C2D2D2D412FB70125
:100A300080E596E009952396E8E00C94F03382E097
:100A4000E816F10409F45AC083E0E816F104A9F0AD
:100A500081E0E816F10409F484C0F12CE12CE09166
:100A60006C06F0916D063097C9F20C2D2D2D412F9B
:100A7000B70180E596E00995D1CF862F807F803A37
:100A800011F188F48038D1F0E0915406F0915506C8
:100A9000803929F7309719F3123F49F12C2D4D2D4C
:100AA000612F6F7027C0803E99F0803FB1F0E091D8
:100AB0005206F0915306803B91F6ECCFE09156063A
:100AC000F0915706E7CFE0915806F0915906E2CF32
:100AD000E0915A06F0915B06DDCF623F09F0BFCF8F
:100AE000E0915C06F0915D06309709F4B8CF2C2DAB
:100AF0004D2D62EF80E596E0099590CF862F807F9F
:100B0000803DB9F0803FD1F0E0915E06F0915F0644
:100B1000803C09F0A4CF309709F4A1CF812F8D7FBD
:100B20004D2D612F6F70813FC9F080E596E00995EA
:100B300075CFE0916006F0916106EDCFE09162061D
:100B4000F0916306633F39F0613F09F088CFE0918F
:100B50006406F0916506309709F481CF4D2D612F21
:100B6000E4CFE0916606F0916706683F38F4663F8F
:100B700009F075CFE0916806F0916906309709F4A5
:100B80006ECF612F80E596E0099548CFE8EDF0E063
:100B900080818E7F80831092E2001092DA001092A2
:100BA000E100A0EEB0E08C9181608C9380818F7722
:100BB000808319BCA7EDB0E08C918E7F8C938081EF
:100BC0008F7E80831092730508952091E400309108
:100BD000E50095E6A9012091EC00822F817020FFAD
:100BE00006C08091E80080FF06C080E00895209153
:100BF000E80022FD1AC080918005882389F08530A5
:100C000089F08091EB0085FD0FC02091E4003091C8
:100C1000E50042175307F9F29150E1F684E0089598
:100C200082E0089583E0089581E00895EF92FF92B5
:100C30000F931F93CF937C018B010E94E505C82F72
:100C4000811117C08091E80085FD0BC08091E800FC
:100C50008E778093E8000E94E505882399F3C82FDA
:100C600008C0F70181917F018093F10001501109C3
:100C700049F78C2FCF911F910F91FF90EF9008951E
:100C80008091820587FF13C08091E80082FF06C033
:100C90008091E8008B778093E80004C08091800504
:100CA0008111F2CF0895809180058823D9F3809136
:100CB000E80080FFF8CF8091E8008E77ECCF982F86
:100CC0009093E900242F762F50E0891731F070912E
:100CD000EC002091ED005091F00021FD07C09F5FD6
:100CE000973071F78093E90081E008953091EB002F
:100CF0003E7F3093EB003091ED003D7F3093ED006F
:100D00003091EB0031603093EB007093EC00209356
:100D1000ED005093F0002091EE0027FDE0CF80E041
:100D20000895B0E0A0E0E7E9F6E00C94D433C8ED14
:100D3000D0E088818F7E8883E7EDF0E0808181605C
:100D4000808384E082BF81E08093730588818E7FF9
:100D5000888302EE10E0F80110821092DA0081EE32
:100D6000C82ED12CF601108288818F7788838881E4
:100D70008068888388818F7D888319BC1092800564
:100D80001092810510927F0510927E0590EEE92E5B
:100D9000F12CF70180818B7F80838881816088833B
:100DA00042E060E080E00E945F06F60180818E7F75
:100DB0008083F80180818160808380818860808366
:100DC000F70180818E7F8083888180618883CDB7A1
:100DD000DEB7E8E00C94F033FC0180918805909137
:100DE000890586179707A0F06115710529F4909180
:100DF000E8009E779093E80090E06115710551F44A
:100E0000911108C08091E80082FF34C080E008950D
:100E1000BC01F2CF809180058823C1F18530C1F1FA
:100E20008091E80083FD30C08091E80082FDEACF28
:100E30008091E80080FFE1CF8091F3002091F200E3
:100E4000382F6115710519F02830310558F091E0FF
:100E50002830310509F090E02091E8002E772093AA
:100E6000E800CBCF81918093F100615071092F5F31
:100E70003F4FE7CF80918005882341F0853041F0D6
:100E80008091E80083FFBECF81E0089582E008955D
:100E900083E0089508958091750508959C014FB7EA
:100EA000F89480916F0590917005A0917105B091B3
:100EB00072054FBF821B930B08952FB7F894609172
:100EC0006F057091700580917105909172052FBF2B
:100ED00008952FB7F89480916F0590917005A091B7
:100EE0007105B09172052FBF08959C01FC013296E7
:100EF0009FEF80E04191461751F09F3F19F4411157
:100F000001C0982F8F5F8630A9F79F3F09F408959D
:100F1000290F311D97FD3A95F90162830895A3E0E9
:100F2000B0E0E5E9F7E00C94DA3320916C053091FC
:100F30006D0528173907A1F090936D0580936C0516
:100F4000E0916A05F0916B05309751F024E0298318
:100F50009B838A830680F781E02DCE010196099557
:100F60002396E2E00C94F633A3E0B0E0EAEBF7E07E
:100F70000C94DA33209168053091690528173907F8
:100F8000A1F09093690580936805E0916A05F0915E
:100F90006B05309751F023E029839B838A83068079
:100FA000F781E02DCE01019609952396E2E00C949D
:100FB000F633FC01680F791F8FEF91E321918227AF
:100FC00028E030E087FF09C0880F892721503109C8
:100FD000C9F7E617F70791F70895880FF7CFFA01D9
:100FE000811101C0FB0109950895FC01EE0FFF1F5F
:100FF000DF01A80FB91FAC57BB4F11963C91119759
:10100000361307C03C91341304C012963C9132173A
:1010100051F031E030938304E80FF91FEC57FB4F98
:101020006183408322830895FF920F931F93CF9390
:10103000DF93182F062FF42ED0E0C0E02F2D402F85
:10104000612FCE010E94F5072196CC34D105B1F76E
:10105000CDB7DEB7E5E00C94F33310928304089526
:10106000EFEFF5E0248130E1231B08F420E0248336
:101070008091FE0581608093FE050895EFEFF5E015
:10108000248130E1230F08F42FEF24838091FE05A3
:1010900081608093FE050895EFEFF5E0438120E144
:1010A000421B08F440E08181628190E00E94B1041B
:1010B0000895EFEFF5E0438120E1420F08F44FEF90
:1010C0008181628190E00E94B1040895EFEFF5E024
:1010D000628120E1621B08F460E08181438190E03D
:1010E0000E94B1040895EFEFF5E0628120E1620F04
:1010F00008F46FEF8181438190E00E94B10408956C
:10110000EFEFF5E08181438162818850990B0E9465
:10111000B1040895EFEFF5E0818190E043816281B1
:1011200008960E94B10408958091FF0586958695E2
:10113000815009F486E20E94980408958091FF0589
:10114000869586958F5F873208F081E00E9498042B
:101150000895EF92FF920F939701201B31092F3FC3
:10116000310519F010F02FEF30E02095382F320FB5
:1011700008F43FEF832F0F91FF90EF900895EF92C7
:10118000FF920F939701201B31092F3F310519F072
:1011900010F02FEF30E0322F3095482F430F08F436
:1011A0004FEF842F620F0F91FF90EF900895EF9211
:1011B000FF920F93972F093438F4B701601B710920
:1011C0006F3F710519F010F06FEF70E0485F5F4FEF
:1011D0004131510540F0A901485F5F4F4131510550
:1011E00010F06FEF70E06095482F460F08F44FEF56
:1011F000842F37FF02C02D5F3F4F359527953595DA
:10120000279560910006620F792F0F91FF90EF9064
:101210000895EF92FF920F931F930E0D1F2D111D36
:10122000F90137FF03C0F195E195F10924E0EE0FD4
:10123000FF1F2A95E1F7EF3FF10519F014F0EFEFEA
:10124000F0E09A0157FF03C031952195310994E0F0
:10125000220F331F9A95E1F72E173F070CF4F9017F
:10126000E00FF11FEF3FF10519F010F0EFEFF0E0A4
:10127000E095282F3E2F230F08F42FEF822F1F9188
:101280000F91FF90EF900895EF92FF920F939701C7
:1012900095E0099F200D311D11242F3F310519F0D4
:1012A00010F02FEF30E02095382F320F08F43FEF89
:1012B000832F0F91FF90EF90089522E8241B08F4EC
:1012C00020E0620F08954095282F429F412D112460
:1012D000842F0895E42FF0E0EE0FFF1FE25FFD4F33
:1012E0009081921B97FD9195292F38E1239F212D05
:1012F0001124620F08950F931F9310E0F801EE0F71
:10130000FF1FE25FFD4F9081905797FD9195000F71
:10131000111FF801E15FFD4F00810052110B200306
:10132000F001219FF00D112408E310E0091B1109C1
:1013300097FD139540039001419F300D1124E20F5A
:10134000F31F9F01220F331F2E0F3F1F37FF02C0D5
:1013500021583F4F220F232F221F330B620F1F9163
:101360000F9108950F931F93522F10E0F801EE0F85
:10137000FF1FE15FFD4FA081A052BB0B9D015203F7
:10138000F001539FF00D1124000F111FD801A25F2F
:10139000BD4F0C910057110B40039001419F300D40
:1013A00011242E0F3F1F37FF02C0215C3F4F96E0F4
:1013B000359527959A95E1F7620F1F910F91089542
:1013C0000F931F93522F10E0F801EE0FFF1FE15F04
:1013D000FD4FA081A052BB0B9D015203F001539F12
:1013E000F00D1124000F111FD801A25FBD4F0C9109
:1013F0000057110B40039001419F300D11242E0F17
:101400003F1F37FF02C021583F4F220F232F221FBB
:10141000330B620F1F910F910895EF920F93972F47
:1014200023E0029FB0011124759567956E0D792F09
:101430000F91EF900895322F50E0FA01EE0FFF1F49
:10144000E15FFD4F9081905297FD9195440F551F9C
:10145000FA01E25FFD4F2081231B330B290F311D61
:1014600097FD3A95620F0895E42FF0E0EE0FFF1F0D
:10147000E15FFD4F6081621B0895E42FF0E0EE0F05
:10148000FF1FE25FFD4F6081621B0895622F089588
:10149000E42FF0E0EE0FFF1FE25FFD4F408134EEDE
:1014A000439F412D1124E82FF0E050E0445E5F4F50
:1014B000DA01A21BB1099D01B7FF03C03195219547
:1014C000310993E0220F331F9A95E1F7AF01421BD8
:1014D000530B9A0157FD20E0582F259F212D1124F1
:1014E000822F0895E42FF0E0EE0FFF1FE25FFD4F23
:1014F000408134EE439F412D1124E72FF0E050E06E
:10150000445E5F4FDA01A21BB1099D01B7FF03C022
:1015100031952195310993E0220F331F9A95E1F718
:10152000AF01421B530B9A0157FD20E0279F212D4D
:101530001124722F08950E94140808950E94F5073F
:101540000895FC019B01009729F480E077FF2BC0F0
:1015500080E80895AC0197FF04C044275527481B35
:10156000590BB901640F751F37FD10C0241B350BD3
:10157000C901A5E0880F991FAA95E1F70E941534CB
:1015800080E2861BF7FF0FC081950895CB0165E0CF
:10159000880F991F6A95E1F7BA01621B730B0E94CD
:1015A000153480E6EECF0895EF920F93CF93DF933B
:1015B000D72FC82FC9010E19BA010E94A10A602FA6
:1015C000681B7D2F8C2FDF91CF910F91EF900895A5
:1015D0000F93CF93DF93D72FC82FC901BA010E9471
:1015E000A10A682F600F7D2F8C2FDF91CF910F9173
:1015F0000895EF920F931F93CF93DF93D62FC72FAA
:10160000182FC9010E19010FBA010E94A10A081B67
:10161000202F219F212D1124822F6D2F7C2FDF91D0
:10162000CF911F910F91EF900895EF920F931F9319
:10163000CF93DF93D62F172FC82FC9010E19070F8D
:10164000BA010E94A10A702F781B719F712D11247D
:101650006D2F8C2FDF91CF911F910F91EF900895F7
:101660000F931F93CF93DF93D62FC72F182FC90146
:10167000212F201B022FBA010E94A10A982F990F37
:10168000990F891B800F282F219F212D1124822F34
:101690006D2F7C2FDF91CF911F910F9108950F93A4
:1016A0001F93CF93DF93D62F172FC82FC901272F52
:1016B000201B022FBA010E94A10A982F990F990F9F
:1016C000782F791B700F719F712D11246D2F8C2F26
:1016D000DF91CF911F910F910895E82F86FDE0953E
:1016E0002E2F2F7086FD2F5FE695E695E695E67026
:1016F000F0E0EE54FE4F9181929F902D212D112408
:1017000092959F702295207F922B2081920F87FDCA
:10171000919580E8890F08950F931F93CF93DF93DE
:101720008B01D82FC42F822F0E946D0BEC2FF0E07D
:10173000EE0FFF1FE25FFD4F90819058890F87FDEC
:101740008195880F682F2CE0629F612D1124600F16
:10175000712F8D2FDF91CF911F910F910895AC01C3
:101760008230910508F408959FEF413E8EE15807BD
:1017700040F49A0195E0369527959A95E1F798E01F
:10178000920F61E0E62FE90FFF27FF1F9F013595BC
:101790002795822F229FF001239FF00DF00D112439
:1017A0004E175F0738F49FEF920F961758F78FEF99
:1017B000860F08952F3FE9F361E0620FF6CF0F9394
:1017C000CF93DF93D72FC82F47FD419588E390E053
:1017D000841B910947FD9395889FB001899F700DE7
:1017E000700D1124229FC001239F900D900D112494
:1017F000860F971F0E94AF0B982F990F890F682FA4
:10180000600F7D2F8C2FDF91CF910F91089530E0E5
:1018100020E0869F212D969F200D311D1124C901A6
:101820000895AF92BF92CF92DF92FF920F931F93D2
:10183000CF93DF93362F472FE82FF0E0EE54FA4F87
:1018400071110FC0E4918E2F2E2F6E2F722FDF910A
:10185000CF911F910F91FF90DF90CF90BF90AF90ED
:101860000895C72FD0E02491F22E022F10E056E009
:10187000659FC0011124EFEFF0E0BF010E94013429
:10188000832F90E0880F991F35E5369FD001379F51
:10189000B00D11248A1B9B0B982F990F980F6F0185
:1018A000CC1ADD0AC09ED001C19EB00DD09EB00DF5
:1018B00011248B2F499FA0011124452F55276F011B
:1018C000C41AD50AC09EA001C19E500DD09E500DD5
:1018D00011245F01A91AB108AC9E6001AD9ED00C25
:1018E000BC9ED00C1124CD2CDD24EC19FD09E09F09
:1018F000E001E19FD00DF09FD00D1124ED2F62305B
:101900007105A1F050F46115710509F49ECF6130A5
:10191000710581F0EB2F852F98CF6430710569F048
:1019200080F06630710509F490CFF4CFE22F2B2FB1
:101930008D2F8BCFE22F252F88CFEB2F822F2D2FAE
:1019400084CF2B2F8F2DE52F80CF2F923F925F9248
:101950006F927F928F929F92AF92BF92CF92DF92BF
:10196000EF92FF920F931F93CF93DF93CDB7DEB724
:101970002A970FB6F894DEBF0FBECDBF8B837E8350
:101980006D83209144012295207F2F83205F29833E
:101990002A832D3410F03CE43A838091C8058C836F
:1019A000FF81EF2FF0E0FA87E987CF01880F991FB9
:1019B0009C01225F3D4F69013B81832F90E0FC0138
:1019C0003196F887EF838A8199859817E8F081E04E
:1019D000E981EC3408F080E02A960FB6F894DEBF77
:1019E0000FBECDBFDF91CF911F910F91FF90EF9070
:1019F000DF90CF90BF90AF909F908F907F906F902F
:101A00005F903F902F900895E985FA85EA55FD4F44
:101A10008081909145018923F1F02090000630905B
:101A200001062F81388528533A4F39015B8010E039
:101A3000FC815F16D0F020910206129F112D112417
:101A4000B101812F0E94110C462F282F672F898505
:101A50009A850E949E0A29853A852F5F3F4F3A87D3
:101A6000298732E0C30ED11CAECFF30181913F0133
:101A7000F601A080A81ABB088180F3018185881A2D
:101A80009908AA9C9001AB9C300D300D1124889CC4
:101A9000C001899C900D900D1124820F931F0E940C
:101AA000AF0B082F6091030621E0620F08F46FEF7F
:101AB000F301EE0FFF1FE85CF540838D948D0E94CB
:101AC000070C7C019401A501B101812FED81FE81FC
:101AD00009951B015394182FABCFB0E0A0E0E3E7CA
:101AE000FDE00C94D4338C01C0914401C295C07FB9
:101AF00020E1D22EDC0ECD2C2CE42D1510F49CE42C
:101B0000C92E2091030631E0230F08F42FEF30E0B7
:101B100050E040E06FEF7FEF80E090E00E94F33410
:101B20007901D0E02C2FCC1550F081E0FBE4FD15BD
:101B300008F480E0CDB7DEB7E8E00C94F033FE01A6
:101B4000EA55FD4F808190914501892311F1409123
:101B5000C8054150042E000C550B47FF1CC0C7019F
:101B60006091030621E0620F08F46FEF0E94070CFA
:101B7000AC01609100067091010680910206F801A7
:101B800009950E94110C462F282F672FCE010E9425
:101B90009E0A2196C7CFFA01E853FA4F858982132E
:101BA0000AC0FA01EE0FFF1FE853FA4F878D90A18C
:101BB0008E159F05A8F241505109CFCFB0E0A0E0AB
:101BC000E4EEFDE00C94D5337C01C0914401C29554
:101BD000C07F10E11C0F012F1D3408F00CE4609150
:101BE00003066695669521E0620F08F46FEF809119
:101BF000C4059091C5050E94070CD82ED0E0C017EF
:101C000048F081E01C3408F080E0CDB7DEB7E7E0B3
:101C10000C94F133FE01EA55FD4F8081909145010E
:101C2000892391F06091000670910106809102066F
:101C30002D2D4C2FF70109950E94110C462F282FAE
:101C4000672FCE010E949E0A2196D9CFB0E0A0E076
:101C5000ECE2FEE00C94D1336C01C0914401C295DA
:101C6000C07F10E11C0FB12E1D3410F03CE4B32EE8
:101C700060910306669566958091C4059091C505AF
:101C80000E94070CF82E80E48F0D0E946D0B90E8E7
:101C9000A92EA80E8F2D0E946D0B20E8922E980E73
:101CA000D0E0CB1548F081E01C3408F080E0CDB7DF
:101CB000DEB7EBE00C94ED33FE01EA55FD4F808179
:101CC000909145018923A1F0609100067091010671
:101CD00080910206EF2C0C2F292D4A2DF601099533
:101CE0000E94110C462F282F672FCE010E949E0ABA
:101CF0002196D7CFB0E0A0E0E0E8FEE00C94CF332F
:101D00005C01C0914401C295C07F10E11C0FF12E0F
:101D10001D3410F03CE4F32E60910306669580912B
:101D2000C4059091C5050E94070C782ED0E0CF1510
:101D300048F081E01C3408F080E0CDB7DEB7EDE07C
:101D40000C94EB33FE01EA55FD4F808190914501E3
:101D50008923C9F1CE01880F991F86549E4FFC013B
:101D6000EC5AFF4F2081422F4057550B6A018B5A86
:101D70009F4FFC018081282F2052330B4901449F43
:101D80009001459F300D300D1124889CC001899C25
:101D9000900D900D1124820F931F0E94AF0B082FFE
:101DA000609100067091010680910206E72C940173
:101DB000A601F50109950E94110C462F282F672FC7
:101DC000CE010E949E0A2196B2CFB0E0A0E0EBEED9
:101DD000FEE00C94D4337C01C0914401C295C07FD5
:101DE00010E11C0FD12E1D3410F03CE4D32E609175
:101DF000030666958091C4059091C5050E94070C65
:101E0000C82ED0E0CD1548F081E01C3408F080E009
:101E1000CDB7DEB7E8E00C94F033FE01EA55FD4F94
:101E2000808190914501892311F1CE01880F991F7E
:101E300086549E4FFC01EB5AFF4F20812052330BFA
:101E40008C5A9F4FFC0140814057550B6091000612
:101E500070910106809102060C2DF70109950E94F0
:101E6000110C462F282F672FCE010E949E0A219623
:101E7000C9CFEF92FF920F93CF93FB01833821E7F5
:101E8000920708F084C0833751E7950708F09FC197
:101E9000843661E7960750F5873571E7970708F0B4
:101EA00051C1853521E7920760F48B3451E79507DE
:101EB00008F02EC1833061E7960708F0DAC0C1E070
:101EC00021C1853571E7970709F42FC18635914700
:101ED000B1F78581882309F4E6C080913D07982FEA
:101EE0009F70993008F0DFC09F5F2AC1813751E7AA
:101EF0009507A0F5863661E7960708F041C184365C
:101F000071E7970709F42AC185369147C1F68581A3
:101F1000882309F4C8C020913D07822F85958595B7
:101F20008595859586300CF0BEC091E0980F92950E
:101F3000907F9595959595959595392F3295307F0C
:101F40002F70232B20933D0718160CF0ACC097FF81
:101F5000AAC08295807F922F9F70E3C08137980737
:101F600009F41CC18237914709F0A9CF85818823E4
:101F700009F499C080913E07982F9F779F3709F405
:101F800092C0933708F021C1935F9F7705C18938CC
:101F900071E7970709F473C1B8F5853851E79507DC
:101FA00009F445C1D8F4833871E7970709F421C1D2
:101FB0008438914709F083CF8581882309F473C061
:101FC00020913E07322F331F3327331F90913F0755
:101FD000892F8770880F832B8F5F1CC130913E073C
:101FE00020913F074581873851E7950709F43DC1A6
:101FF00008F42EC141114FE7832F881F8827881FBF
:102000002770220F62E42DC18C3871E7970709F41D
:1020100056C180F48A3851E7950709F43FC18B38DF
:10202000914709F04CCF8581811147C18FEF809393
:10203000AA0339C08E3871E7970709F476C108F40E
:102040005FC18F38914709F03ACFC58180913E0733
:10205000982F991F9927991F80913F078770880FA4
:10206000892BCC2309F471C16FEF7FE10E946E04CC
:102070001AC000913E07202F221F2227221F4091C5
:102080003F074770440F422B0F77C5812DEF280F74
:1020900030E0B90165557C4F7B01FB012081CC23E9
:1020A00009F12F3F11F0C0E02DC090913D07C92FDD
:1020B000C595C595C595C595C3509F70FCE09F9F7C
:1020C000C00D1124C80F2C2F2F774069E0915006C6
:1020D000F091510663E070E080E596E00995F70124
:1020E000C083E1CF2F3F59F02F774068E091500631
:1020F000F091510663E070E080E596E009958FEF7E
:10210000F70180838C2FCF910F91FF90EF9008956E
:102110002581222341F28B54982F9F7080913D0797
:10212000807F892B80933D07BECF8581882309F46A
:10213000BACF80913D07982F9F7009F4B4CF915F7B
:102140009F70EECF2581222309F4ADCF8D55982FB6
:102150009295907F80913D078F70E3CF8581882392
:1021600009F4A1CF80913D07982F95959595959568
:1021700095959B3F0CF497CF915F9295907FECCF14
:102180002581222309F48FCF86569CE0899F902DCC
:1021900011249F7780913E07807815C08581882320
:1021A00009F481CF80913E07982F9F7709F47BCF68
:1021B00080789F3721F4856780933E0774CF9D30E8
:1021C000D8F39D509F77892BF7CF8F67F5CF258167
:1021D000222309F468CF835790913E0780FB97F93B
:1021E00090933E078695877090913F07987F892B43
:1021F00084C08581882309F456CF20913E07322F71
:10220000331F3327331F90913F07892F8770880F23
:10221000832B815F382F3F7080FB27F920933E0787
:10222000832F8695987F982B90933F073CCF85818D
:10223000882309F438CF90913E07991F9927991F59
:1022400080913F078770880F40E06BE7892B0AC0B9
:1022500041114FE7832F881F8827881F2770220F7F
:1022600060E4822B0E9487041ECF41114FE7832F29
:10227000881F8827881F2770220F61E4F2CF85818D
:1022800040E081114FE790913E07991F9927991FD0
:1022900080913F078770880F63E4D8CF858140E045
:1022A00081114FE790913E07991F9927991F8091BF
:1022B0003F078770880F64E4C9CF81E0B8CE85817D
:1022C000882309F4F0CE90913F07292F2695269573
:1022D00026952F7081E0820F8F70880F880F880FEE
:1022E0009778892B80933F07982F987709F0DBCE5A
:1022F000220F220F220F8778822B80933F07D3CEA5
:102300008581882309F4CFCE80913F07982F987755
:1023100009F4C9CE982F969596959695915F9F70E2
:10232000990F990F990F877862CFC58180913E07E9
:10233000982F991F9927991F80913F078770880FC1
:10234000892B60E070EEC11191CE70E060E00E94D8
:102350006E04D8CE84E080933D078FE780933E07DC
:1023600080913F078078806480933F07EBEAF3E039
:102370008FEF819393E0E33FF907D9F71092A90318
:102380001092AA031092A8031092A703089508952B
:102390000895982F907F903BE9F040F49039D1F068
:1023A000903AC1F09038B1F080E00895903D19F076
:1023B00020F4903CC9F782E00895903E59F0903F98
:1023C00099F7815F8F3080F7E82FF0E0ED55FE4FF1
:1023D0008081089583E00895A7E0B0E0E2EFF1E1A5
:1023E0000C94D4338C0108511F4F809180058430A8
:1023F00009F087C080913B018F708093E900809144
:10240000E80082FF7EC08091E80085FF7AC00E94CC
:10241000E505811113C084E0E82EF12CCE01019670
:102420006C018091E80085FD61C08091E8008B77A8
:102430008093E8000E94E505882399F38091E800E5
:1024400085FD05C08091E8008B778093E800FA80D5
:102450008F2D0E94C911282FFD828B818E838C8144
:102460008F8321110BC08981843041F1873031F194
:10247000863031F121E0853009F0B7CF30E0E5E07A
:10248000F0E0EC0FFD1FE30FF11DF0804FB7F89463
:10249000D8011196EC911197F0E0CF0101961296B8
:1024A0006C9170E00E941534D8015C9158171906A0
:1024B00049F44FBF3F5F321710F397CF23E0DECFD1
:1024C00022E0DCCF13968D919C911497E80FF91FB1
:1024D000F08211968C91119790E0019612966C9172
:1024E00070E00E941534F8018183E3CF8091F10000
:1024F000D6018D936D01B1E0EB1AF10809F091CF8F
:102500009DCF2796E8E00C94F033A4E0B0E0EBE830
:10251000F2E10C94D5337B01142FD22E4A832B8306
:102520000C83842F0E94C91181113AC082E0E81601
:10253000F10489F183E0E816F10441F081E0E81646
:10254000F10429F5173F29F485E004C087E0073F2F
:1025500009F084E08983809180058430C1F4809102
:1025600036018F708093E90050E040E064E070E055
:10257000CE0101960E941606811109C08091E800E3
:1025800085FD05C08091E8008E778093E800249651
:10259000E7E00C94F13387EFD812DBCF86E0DACF97
:1025A00012951F701983D7CF80E00895F894E82F13
:1025B000E295EF70F0E031A1282F2F7081E090E0DC
:1025C00001C0880F2A95EAF7982F9095932391A33D
:1025D00092A1892B82A3789408959091840392FF0D
:1025E00010C041E0282F2471243009F040E031E090
:1025F000282F2871283009F030E0431711F02CE023
:10260000822793FF10C041E0282F2471243109F064
:1026100040E031E0282F2871283109F030E04317DD
:1026200011F02CE082273091850330FF10C051E07B
:10263000282F2171213009F050E041E0282F287126
:10264000283009F040E0541711F029E0822731FFCB
:1026500010C041E0282F2171213109F040E031E024
:10266000282F2871283109F030E0431711F029E0B4
:10267000822794FD877E089582389105B9F1B0F4E0
:102680008133910509F47DC048F48932910509F43C
:102690006DC08A32910509F47BC008958533910598
:1026A00009F45FC08933910509F10895833E9105CE
:1026B000D9F138F4803E910529F1823E910579F1F6
:1026C0000895863E9105D9F1873E910509F43EC0F3
:1026D000843E910541F52091850321FF24C080911E
:1026E000840384FD19C087EE90E00895209184034F
:1026F000237009F05AC02091850323FF14C089E29A
:1027000090E008952091840320FD38C03091850326
:1027100030FF09C024FF43C090E080E0089520917D
:10272000840322FDF7CF08952091840322FD3AC04F
:102730003091850330FD39C024FFF5CFEDCF2091D6
:10274000840323FFF0CF24FDE7CFCDCF2091840376
:1027500023FD2EC03091850331FFEECF84EE90E053
:1027600008952091840325FFDECFC9CF20918403F3
:1027700025FD21C02091850323FFD5CF89E390E07B
:10278000D2CF2091840326FFCECF8AE290E0089535
:102790002091840326FFC7CF81E390E0089583EE64
:1027A00090E0089582EE90E0089580EE90E0089524
:1027B00086EE90E0089585E390E00895972F7C30B1
:1027C000B8F4673078F5863080F570E027E0929FA6
:1027D000600D711D1124FB0194E5899FE00DF11D31
:1027E0001124EE0FFF1FE655FE4F85919491089539
:1027F0007D3F59F4611116C08630B8F424E0829F01
:10280000F0011124E656FA4FF0CF7C3F59F46111E4
:1028100009C0863050F494E0899FF0011124E456F9
:10282000FA4FE3CF80E090E0089581E0FCCF1F9362
:10283000CF93DF930E943C13EC01C11580E5D807CC
:10284000F0F5C11580E4D80708F0AAC0C03ED10554
:1028500020F5CD3CD10508F090C0C83AD10578F4F8
:10286000C53AD10508F081C0C130D10519F12097D2
:1028700009F1C430D105F0F4D0E0C0E01BC0C33C86
:10288000D105D0F7C85AD0E0CC0FDD1FC25BDE4FB8
:102890000990D881C02DD4640DC0C11580E2D8073D
:1028A00008F0C9C0C11581E0D80708F068C0C83E6B
:1028B000D10510F7CE01DF91CF911F910895C03659
:1028C00082E5D80718F5C03482E5D80708F079C04A
:1028D000C03282E5D80708F06DC0C11582E5D8077F
:1028E00008F48FC02C2F2695269580E2289F900112
:1028F00011248C2F8370C1E0D0E002C0CC0FDD1F0B
:102900008A95E2F7C22BD32BDD68D4CFC03C82E599
:10291000D807F8F4C03A82E5D80708F067C0C03895
:1029200082E5D80708F0A8CF2C2F2695269527708A
:1029300080E2289F900111248C2F8370C1E0D0E0A9
:1029400002C0CC0FDD1F8A95E2F7C22BD32BDA68C9
:10295000B1CFC03E82E5D80708F08ECFDC2FCC2760
:10296000CC27DF71C06FD06AA5CFC55AD0E0C55B58
:10297000DE4FC881D0E0D0649DCFD0659BCF8D2F36
:102980000E94ED12182FCE0199270E943C13C12FEF
:10299000D0E0DC2FCC27CC27DF71C82BD92B8ACFF6
:1029A000CE0199270E943C13CC27DF70C82BD92B6E
:1029B000D06A80CFCF71D0E0DC2FCC27C16FD06A36
:1029C00079CF2C2F26952695277080E2289F90019D
:1029D00011248C2F8370C1E0D0E002C0CC0FDD1F2A
:1029E0008A95E2F7C22BD32BDC6864CF8C2F8F71D2
:1029F0000E94ED12C82FD0E0DC2FCC27CC27DF714E
:102A000059CF8C2F8F710E94ED1255E0D695C79546
:102A10005A95E1F7CF70D0E0DC2FCC27282F30E09B
:102A200084FF05C044E0220F331F4A95E1F7C22B13
:102A3000D32BD0693FCF8D2F8F710E94ED12182FAD
:102A4000CE0199270E943C13C12FD0E0DC2FCC2768
:102A5000CC27DF71C82BD92BD0622CCF8091C30536
:102A600090918A05981301C008958F5F8770FACFFF
:102A7000B0E0A0E0EEE3F5E10C94D3337C010091EB
:102A80008004109181048091400390914103082BB0
:102A9000192BCFE0D0E0CC24C394D12CBC2EC6019E
:102AA0000C2E02C0880F991F0A94E2F7802391230D
:102AB000892B49F4219790F7B12C8B2DCDB7DEB738
:102AC000E9E00C94EF33B7018C2F0E94DE130E94D3
:102AD0001714019779F3F1CFCF93DF93EC010E94A4
:102AE0003815BE010E94DE130E941714DF91CF91AA
:102AF0000895A82FA77023E0969587952A95E1F76A
:102B0000880F991F880F991FFB01E80FF91F50E0EC
:102B100040E080E0219130E00A2E02C036952795F2
:102B20000A94E2F721703327042E01C0220F0A9481
:102B3000EAF7822B4F5F5F4F4430510559F70895F4
:102B4000292F9C3068F4873090F490E063E073E0C4
:102B500037E0239F800D911D11240E94791508955F
:102B60002C5F223020F46FEF72E090E0F6CF80E02F
:102B70000895262F277091E001C0990F2A95EAF752
:102B800023E0769567952A95E1F7660F771F660F24
:102B9000771FFA01E60FF71F50E040E0682F70E062
:102BA0008191DF0111979B01042E02C03695279574
:102BB0000A94E2F7217021952827292328272C93AE
:102BC0004F5F5F4F4430510559F70895282F862FE6
:102BD0009C3070F4273058F4622F70E027E0929F09
:102BE000600D711D112443E053E00E94B915089552
:102BF0009C5F9230E0F7622F70E04FEF52E0F5CF2C
:102C00009093810480938004089521E030E002C015
:102C1000220F331F8A95E2F720953095809180042A
:102C200090918104822393230E940016089521E04D
:102C300030E002C0220F331F8A95E2F780918004B2
:102C400090918104822B932B0E94001608959093FB
:102C50004103809340030895FC0124812223C1F0A5
:102C6000808191810E946C1592959F70963091F0B1
:102C700058F4925F9F70923058F4803F19F030F40E
:102C8000883E30F481E008959A5FF4CF843FD1F319
:102C900080E00895883EB0F3813FD1F7F3CFA6E0FE
:102CA000B0E0E5E5F6E10C94D93326E0FC01DE0165
:102CB000119601900D922A95E1F7FC0125818981F9
:102CC0009A81222399F0662389F00E943815182FE3
:102CD000682F89819A810E94E61569817A81812F06
:102CE0000E94DE132696E3E00C94F5330E94A015B3
:102CF000182FF3CFE7E0F6E08FEF819396E0E03511
:102D0000F907D9F780913D07807F826080933D0766
:102D100080913E078078856780933E070895A7E0FD
:102D2000B0E0E5E9F6E10C94CD33782E86E8A82EE4
:102D300083E0B82E10E095E0692E4E0183E0880E06
:102D4000911C55245394F501E1905F01EE2071F13F
:102D500000E0FF24F3948E2D8F2121F1F401862DC4
:102D600011928A95E9F709831A830E9469079C8367
:102D70008B835D827E8261E0CE0101960E944F16B8
:102D80006C0183509E478934910530F44E81B60121
:102D90008091FC020E942504BE016F5F7F4FC60137
:102DA0000E94390F0F5FFF0C0730A9F61F5F1C3020
:102DB00051F62796EFE00C94E9339B01BA0190910C
:102DC00080059430E1F48093E9009FEF8091E80062
:102DD000915085FD06C085ED8A95F1F700009111AF
:102DE000F5CF8091E80085FF0AC050E040E0C901BE
:102DF0000E9416068091E8008E778093E80008957F
:102E000043E050E0BC0182E00E94DD160895CF93BC
:102E1000DF93EC0148E050E0BC0181E00E94DD1648
:102E200088E0FE01A6E7B5E001900D928A95E1F7F2
:102E3000DF91CF91089580918304882341F1539AC3
:102E40003BB1377F2BB128604FB7F89484E894E00A
:102E5000FC015191CF0168E02BB9000000C057FF81
:102E60003BB9550F000000C000C000C03BB900C016
:102E70006A9591F7F5E088369F0751F74FBF8FE5C8
:102E800094E00197F1F700C00000109283040895C8
:102E9000B0E0A0E0EEE4F7E10C94D2337C015B01FA
:102EA0006A0180916E0301E010E08A3010F40AE0BC
:102EB00010E0C1E0D0E0B501C701F601099581112C
:102EC00004C021960C171D072CF4CDB7DEB7EAE03D
:102ED0000C94EE33CC9F9001CD9F300D300D11241A
:102EE00090E080E045E34A95F1F7000001968217F3
:102EF0009307C1F7E0CF80914E03811119C088EC90
:102F000090E02091E30027FD10C0EFE3FCE931974A
:102F1000F1F700C000000197A1F782E080934E0313
:102F20000E94C6051092800503C081E080934E0385
:102F300081E090914E03913011F080E00895089562
:102F40000E947B17882359F0E0916A05F0916B0588
:102F5000309729F00190F081E02D0995089580E0E7
:102F600008950F931F930E947B17882329F00E94D6
:102F70005D071F910F9108950E945D0700916F03F7
:102F8000109170032091710330917203600F711FD3
:102F9000821F931FEECFCF92DF92EF92FF926B01D1
:102FA0007C010E947B178823A1F02FB7F8946091D1
:102FB0006F057091700580917105909172052FBF1A
:102FC0006C197D098E099F09FF90EF90DF90CF90DB
:102FD00008950E94B117F4CF0E94B1170895EFEF42
:102FE000F5E081E380838091480190914901A091AF
:102FF0004A0181839283A3838FE784838FEF858344
:1030000048E050E068E170E0CF010E94BF341092C8
:10301000FE050895B0E0A0E0E0E1F8E10C94CD33C6
:10302000F82E809142018F1124C09091FF0593707A
:103030002091410130E081E09217130609F480E00D
:103040008170809346018091040690914501981704
:1030500039F08093450140E060E080E00E949B0AE7
:1030600026E22F1560F0EF2DF0E0E85AFA4C0C94B0
:10307000293481E0E5CF80914601811102C080E0D2
:10308000F8C040E060E080E00E949B0AF8CFC09169
:103090004401C295C07F10E11C0F012F1D3408F0C0
:1030A0000CE46091000670910106809102060E9476
:1030B000110CE62ED72EC82ED0E0C01728F081E0E4
:1030C0001C3408F4D6C0DBCFFE01EA55FD4F8081E9
:1030D00090914501892331F02C2D4E2D6D2DCE017F
:1030E0000E949E0A2196E9CFC0914401C295C07FFB
:1030F00010E11C0FE12E1D3410F05CE4E52ED090A1
:103100000106C09002062091030600E4029F012DF3
:103110001124D0E0CE1598F6FE01EA55FD4F8081CE
:10312000909145018923B9F0FE01EE0FFF1FE15F89
:10313000FD4F808182958F7060910006809F600DA9
:1031400011247D2D8C2D0E94110C462F282F672FC6
:10315000CE010E949E0A2196DDCFC0914401C29506
:10316000C07F10E11C0FE12E1D3410F03CE4E32E73
:10317000D0900106C09002062091030600E4029F51
:10318000012D1124D0E0CE1508F099CFFE01EA55AB
:10319000FD4F8081909145018923D9F0FE01EE0F0A
:1031A000FF1FE25FFD4F6081069FB001112425E003
:1031B000759567952A95E1F780910006680F7D2D3A
:1031C0008C2D0E94110C462F282F672FCE010E94B4
:1031D0009E0A2196D8CFC0914401C295C07F10E1CC
:1031E0001C0F012F1D3408F00CE4E0900006D09174
:1031F0000106D09002066091030666956695669575
:103200008091C4059091C5050E94070C0E946D0B2A
:10321000805887FD8195880F282F3D2D239F212DD4
:103220001124822F6E2D7D2F0E94110CE62ED72E99
:10323000C82ED0E0C01708F042CFFE01EA55FD4F7E
:10324000808190914501892331F02C2D4E2D6D2DDB
:10325000CE010E949E0A2196EDCF82E79AE00E945D
:10326000DE0D07C088E49AE0FACF8FE49BE00E946D
:10327000E50E909144019F5F9093440181110CC031
:1032800082E08093470180914601811105C0F110D1
:1032900003C083E080934701CDB7DEB7EFE00C9425
:1032A000E93380E39BE0E3CF85E19BE00E947A0E67
:1032B000E0CF89EF9AE0FACF86E49AE0D0CF8DE3B1
:1032C0009AE0CDCF84E39AE0CACF8BE19AE0C7CFF2
:1032D0008DE09AE0EBCF8FED9BE0C9CF88EE9AE0CE
:1032E000C6CF84ED9AE0E2CF80EE99E00E94260EF0
:1032F000C0CF82EB99E0FACF8BE799E0F7CFC0918E
:103300004401C295C07F10E11C0F012F1D3408F04D
:103310000CE4D0900106E0900206D0910006609186
:1033200003066695669566958091C4059091C505DE
:103330000E94070C0E946D0B805887FD8195880FB5
:10334000682F2CE0629F612D11246D0F7D2D8E2D35
:103350000E94110CE62ED72EC82ED0E0C01708F020
:10336000AECEFE01EA55FD4F808190914501892343
:1033700031F02C2D4E2D6D2DCE010E949E0A2196EE
:10338000EDCF8CE89BE06BCF8AE699E068CFE090C8
:10339000020693E0E99EE0011124D695C795D695E3
:1033A000C7955C2EAE2CB12C8FEF90E0B5010E943A
:1033B0001534762E80914601882371F040E060E05C
:1033C00080E00E949B0AE5EFF3E084E5DF011D92B7
:1033D0008A95E9F71092F4038091F3038F5F80934D
:1033E000F30310E000E0AC1ABD0A6801612CC801CB
:1033F0008B509C4F4C018091F403862909F040C00A
:103400000E947B3485359540DCF5F401E082F601BD
:10341000E654FE4FE081EF3FC9F0D601AB50BC4F00
:103420002C91F0E05216E0F530E02C1B3D0B2C9F68
:10343000C0012D9F900D3C9F900D1124B5010E945D
:103440000134262F4E2DCF010E949E0A6394F7E08F
:10345000CF0ED11C2CE06212CECF0F5F1F4F073072
:10346000110519F68091F303781202C01092F3034C
:103470008091F4038F5F8D31E8F48093F403FFCDE6
:10348000F601EB50FC4F8081882309F28E1508F07D
:10349000BECF9091F3037912BACF81508083B7CF1A
:1034A000E29EC0011124BE010E940134462F20E09B
:1034B00060E0C9CF1092F4034BE354E02BE03FEF00
:1034C0003E0D85EF93E0FA012B3039F4DC01A35B6C
:1034D000BF4F6C91E61201C03C9360816E1510F0F5
:1034E0003083E78201963196A3E08C3F9A0761F71B
:1034F0002150475051092111E4CFC1CD83E699E015
:103500000E946D0DB6CE8DE599E0FACF8091C80589
:1035100021E0382F321B08F430E0832F64E479E097
:103520000E94A50CA6CE64E479E080E0F9CF8091FA
:10353000C80521E0682F621B08F460E0862F69E06F
:1035400079E0EECF69E079E0F0CF8091C80521E025
:10355000382F321B08F430E0832F67ED78E0E0CF9E
:1035600067ED78E0E2CF8091C80521E0682F621B0B
:1035700008F460E0862F6FEB78E0D2CF6FEB78E055
:10358000D4CF8091C80521E0382F321B08F430E0F9
:10359000832F69EA78E0C4CF69EA78E0C6CFC091AA
:1035A0004401CF5FC295C07F0E947B34D82F0E9418
:1035B0007B346D2F782F809102060E94110C482FCA
:1035C000872F0E949B0A81E0CC3408F452CE57CD5D
:1035D0004F925F926F927F928F929F92AF92BF9223
:1035E000CF92DF92EF92FF92CF9360917C04709123
:1035F0007D0480917E0490917F040E94CB176B0123
:103600007C010E94B1174B015C0180927C04909276
:103610007D04A0927E04B0927F04A0914904E9E465
:10362000F4E08A2F90E04FEF5FEF60E070E04C191C
:103630005D096E097F09A9132AC08093490480910E
:103640008204C0E0811108C08091FF05C82FC370BB
:1036500019F0C82FC695C69580914701813009F4AD
:1036600040C0882339F1823009F41FC1833009F446
:1036700027C1CF91FF90EF90DF90CF90BF90AF9098
:103680009F908F907F906F905F904F900895278DBF
:1036900030A12901712C612C44155505660577056B
:1036A00020F481509F5F3296C6CF2C0D3D1D30A374
:1036B000278FF8CF109244018092C4059092C505DF
:1036C000A092C605B092C70583E3E9E4F4E0A8EC54
:1036D000B5E001900D928A95E1F781E08093470172
:1036E000C8CF8C2F0E940A18CC2319F28091440174
:1036F000853009F0BECF8091FF05837009F4B9CF02
:103700002091800430918104832F9927009709F438
:10371000C2C09C0188E0A90174E0569547957A954E
:10372000E1F74115510511F08C5F9A01A9015695F9
:103730004795569547954115510511F08E5F9A01B1
:1037400036952795232B09F08F5F813009F4A5C0AA
:10375000853009F08ECF20E049E163E38EE290E00E
:103760000E949E0A23E343E363E380E390E00E9428
:103770009E0A23E343E363E38CE390E00E949E0A06
:1037800020E043E363E389E490E00E949E0A20E0A6
:1037900043E363E388E490E00E949E0A20E043E371
:1037A00063E381E090E00E949E0A20E043E360E052
:1037B0008DE090E00E949E0A20E043E363E38EE008
:1037C00090E00E949E0A20E043E360E089E190E0FF
:1037D0000E949E0A29E143E360E083E090E00E94BA
:1037E0009E0A23E340E060E086E090E00E949E0AAB
:1037F00023E340E060E089E090E00E949E0A23E33A
:1038000040E060E082E190E00E949E0A23E340E015
:1038100060E085E190E00E949E0A23E340E060E0E2
:103820008DE190E00E949E0A23E340E060E080E2A8
:1038300090E00E949E0A23E340E060E084E290E092
:103840000E949E0A23E340E060E087E290E00E944D
:103850009E0A23E340E060E08FE190E00E949E0A30
:1038600023E340E060E085E290E00E949E0A26E2C9
:1038700049E163E386E290E00E949E0A20E040E096
:1038800063E388E290E00E949E0A20E049E163E35E
:1038900089E290E007C080E03ECF23E343E363E3A7
:1038A00090E080E00E949E0AE4CEC09342018091A5
:1038B000FF058370809341010E941B1783E00ECFA8
:1038C0008091FE05882351F048E050E068E170E007
:1038D0008FEF95E00E94BF341092FE056091C40501
:1038E0007091C5058091C6059091C7050E94CB17C0
:1038F000603171058105910508F4BBCE1092470136
:10390000B8CEA4E0B0E0E7E8FCE10C94D9334091F4
:103910006A0350916B0360916C0370916D032FB734
:10392000F89480916F0590917005A0917105B09108
:1039300072052FBF841B950BA60BB70B11E08436C5
:103940009105A105B10570F10E94B1176E5F7F4F1F
:103950008F4F9F4F69837A838B839C83809125014E
:1039600090912601835A9C4F4091240150E04530AC
:10397000510510F044E050E0BE016F5F7F4F0E94A0
:10398000983484E090E00E945433182F882351F03B
:103990000E945D0760936A0370936B0380936C03CE
:1039A00090936D03812F2496E3E00C94F5334F92AE
:1039B0005F927F928F929F92AF92BF92CF92DF924F
:1039C000EF92FF920F931F93CF93DF930F92CDB798
:1039D000DEB7C62E4A015901482E880F5508C2018C
:1039E0000E945433782E882309F480C0C20133E04A
:1039F000880F991F3A95E1F7FC01EC5FFE4F438178
:103A000050E04115510511F041E050E08C5F9E4FB0
:103A1000FC0164817581635A7C4FCE0101960E943E
:103A20009834F40140815181628173812FB7F894F9
:103A300080916F0590917005A0917105B09172050C
:103A40002FBF841B950BA60BB70B84369105A105E0
:103A5000B10540F4B701C8010E94D90799818917BF
:103A600009F444C00C2C000CDD08C6010E9454333C
:103A7000782E811113C0712C872D0F90DF91CF917B
:103A80001F910F91FF90EF90DF90CF90BF90AF907C
:103A90009F908F907F905F904F900895C60123E094
:103AA000880F991F2A95E1F7FC01EC5FFE4F4381D7
:103AB00050E0E416F50608F4A7018C5F9E4FFC0168
:103AC00064817581635A7C4FC5010E949834B701A7
:103AD000C8010E94D90799818913CDCF0E945D0743
:103AE000F4016083718382839383C6CFA701B801F9
:103AF000C5010E949834C0CFA6E0B0E0E2E8FDE145
:103B00000C94D4336B0186E0E82EF12C0EE513E023
:103B10009E012F5F3F4F45E553E061E080E00E944A
:103B2000D71C882349F096E0FE013196AFE4B3E05C
:103B300001900D929A95E1F796E0EFE4F3E0D6015B
:103B400001900D929A95E1F72696E8E00C94F033F7
:103B5000A2E1B0E0EEEAFDE10C94CF338E010F5FFD
:103B60001F4F8CE0D8011D928A95E9F786E8C82E90
:103B700081E0D82EF12CE12CAA24A394B12C23E9C6
:103B8000822E21E0922EF60181916F018F3F09F480
:103B900042C0F894E82FE295EF70F0E021A18F7019
:103BA000A50102C0440F551F8A95E2F7CA01922F62
:103BB000982B91A392A18095892382A3789400C029
:103BC000ECE8F1E0712C31E021912F3F09F46BC05A
:103BD000A22FA295AF70B0E090968C9190E02F70DC
:103BE00002C0959587952A95E2F780FD5CC0832FEA
:103BF000782A330F8E169F0639F7F60131978081A8
:103C00008F3F11F00E94D61250EA5A95F1F7F80151
:103C1000EE0DFF1D70828FEFE81AF80A96E0E916A4
:103C2000F10409F0B0CF4CE050E0B80186E793E032
:103C30000E948B34009741F02CE0F801A6E7B3E036
:103C400001900D922A95E1F700918303892B69F188
:103C500081E0809346030E94690790934503809317
:103C6000440380914403909145030E944E070597B9
:103C700000F110E00A571C4F46E050E066E773E0A1
:103C8000C8010E948B34C12C892B51F086E0E6E7F5
:103C9000F3E0D80101900D928A95E1F7CC24C3940A
:103CA0001092460307C080E0A3CF809146038111A4
:103CB000D8CFC12C0E947B17D82EE0918303DE0160
:103CC0001D967D01882309F470C086E01D928A95B7
:103CD000E9F70E2F10E00A571C4F80916E038A30CF
:103CE00068F54CE75DE1B701C8010E9448178823D9
:103CF00009F44AC04AEE5AE2B701C8010E944817C7
:103D0000882309F441C041E85CE1B701C8010E9481
:103D100048178823C9F110926E038091820390E0C6
:103D200046E050E0B7018A579C4F0E948B3421E057
:103D300020934D03892BB1F4D12C20C080914703EF
:103D4000909148030E944E07843F914050F6809125
:103D50004D03882389F386E0F70111928A95E9F7EC
:103D600010924D03A0918203B0E0AA57BC4F86E0A9
:103D7000FE013D9601900D928A95E1F78D2D8C29DB
:103D80006296EDE00C94EB3380916E038F3F31F03F
:103D90008F5F80936E038A3008F4BFCF0E9469075B
:103DA0009093480380934703D2CFF0E0EA57FC4F4B
:103DB00086E0AEE5B3E001900D928A95E1F766E00A
:103DC00070E08EE593E00E94D90780935D034091F7
:103DD000A20350E06091A10370E061567C4FC701DF
:103DE0000E9498348D858093650361E070E0C7017F
:103DF0000E94D907809364038090660390906703C4
:103E0000A0906803B09069038091490390914A03A0
:103E1000A0914B03B0914C0388169906AA06BB06E5
:103E200009F48ACF8092490390924A03A0924B03EF
:103E3000B0924C030E947B17D82E81117DCF0E9437
:103E40005D07861A970AA80AB90A80926F039092B2
:103E50007003A0927103B092720390CF80913F03E0
:103E600090913E03892B8093F40248E050E066E392
:103E700073E084EF92E00E948B34892BA9F088E0F4
:103E8000E4EFF2E0A6E3B3E001900D928A95E1F74A
:103E9000E0916A05F0916B05309731F00280F38173
:103EA000E02D84EF92E00995089510923F03E6EF2C
:103EB000F2E086E0DF011D928A95E9F790E080E06C
:103EC0000E94B40790E080E00E948F0710923E03AA
:103ED0000E942E1F0895AAE2B0E0E1E7FFE10C94F2
:103EE000D93382E895E02091F100FC012193CF01C4
:103EF000F5E08A389F07B9F780918305833009F48C
:103F000070C0B8F4813009F447C0823009F4B1C000
:103F10008091E80083FF88C280918205909183059B
:103F20009A3008F081C2E92FF0E0E158FA4C0C9485
:103F300029348A3009F48CC08B3009F46FC0893081
:103F400039F780918205813219F780918605909129
:103F500087050297E8F68091E800877F8093E80064
:103F60008091E80082FF38C09091F3008091F200C8
:103F7000029731F48091F100813011F0863021F404
:103F80008091F100809375058091E8008B77809394
:103F9000E8000E944006BCCF80918205813A09F07A
:103FA000B7CF8091E800877F8093E80080918605F5
:103FB00090918705892B61F468E086E795E070E0D1
:103FC0000E94EC068091E8008B778093E800A0CFF8
:103FD00060E090E080E0F3CF809180058111C0CF58
:103FE00097CF80918205813A09F092CF8091860522
:103FF00090918705892B09F08BCF8091E800877F0E
:104000008093E8008091E80080FFFCCF809143011D
:104010008093F1008091E8008E77B9CF809182057E
:10402000813209F075CF8091860590918705892BA3
:1040300009F06ECF8091E800877F8093E8000E94AE
:10404000400680918405809343010E94551F60CFF4
:1040500080918205813209F05BCF8091E800877FF3
:104060008093E8000E944006809185058093740546
:104070004FCF80918205813A09F04ACF8091E800C4
:10408000877F8093E8008091E80080FFFCCF8091DB
:104090007405BECF803899F0823809F0C5C180918F
:1040A00086058F70873008F0BFC18093E90080914A
:1040B000EB0085FB882780F91092E90006C080910B
:1040C0007E0590917F05911182609091E800977F25
:1040D0009093E8008093F1001092F1008091E80045
:1040E0008E779EC1882309F48CC1823009F09CC16F
:1040F0008091840581118FC1809186058F702FEF8B
:10410000280F263008F090C18093E9002091EB0041
:1041100020FF81C1933031F48091EB008062809365
:10412000EB0079C19091EB0090619093EB0021E05E
:1041300030E001C0220F8A95EAF72093EA0010923E
:10414000EA008091EB008860EACF81116DC1109187
:1041500084051F778091E3008078812B8093E300B2
:104160008091E800877F8093E8000E94400680915C
:10417000E80080FFFCCF8091E30080688093E3003B
:1041800082E0111183E0809380054EC18058823017
:1041900008F04AC180918405909185058C3D23E00B
:1041A0009207A1F583E08A838AE289834FB7F89466
:1041B000DE01139620E03EE051E2E32FF0E0509361
:1041C0005700E49120FF03C0E295EF703F5FEF706E
:1041D0008E2F90E0EA30C0F0C7968D939D932F5FAD
:1041E000243159F74FBF8091E800877F8093E80022
:1041F0006AE270E0CE0101960E94EC068091E80030
:104200008B778093E80010C1C096E7CF4091860578
:1042100050918705292F33272330310509F444C0F5
:1042200078F52130310509F46FC08FE990E0E8E2BC
:10423000F7E02230310509F0F7C02091E800277F30
:104240002093E80020918805309189058217930713
:1042500008F49C0140E02115310509F064C04111CA
:1042600062C08091E80082FDC9CF809180058823DB
:1042700029F2853019F28091E80083FFF2CFBECF9A
:1042800021323105A9F12232310509F0CDC04115A5
:10429000510509F443C04130510509F0C5C082E31E
:1042A00090E0E2EBF6E0C9CF992781309105C1F0AB
:1042B000009759F0029709F0B7C0E9EDF7E0E491F3
:1042C0008E2F90E0E9EDF7E007C0E7E0F8E0E49139
:1042D0008E2F90E0E7E0F8E0009709F4A5C0ADCF9D
:1042E000E7EFF7E0E4918E2F90E0E7EFF7E0F4CF0F
:1042F0004115510571F04130510509F095C089E033
:1043000090E0E3E5F7E099CF82E190E0E7ECF7E0B9
:1043100094CF89E090E0EAE3F7E08FCF84E490E087
:10432000E4EEF6E08ACF80918005882309F466CF19
:10433000853009F463CF8091E80083FD5FCF8091E1
:10434000E80082FD8ECF8091E80080FF84CF9091BD
:10435000F3008091F2002115310519F088309105A4
:1043600050F041E0089709F040E08091E8008E7736
:104370008093E80070CF44914093F1003196215032
:1043800031090196E8CF803809F04EC08091E800ED
:10439000877F8093E800809181058093F1009ECE15
:1043A000811142C0109184051230F0F58091E8002F
:1043B000877F8093E800109381050E9440061123B7
:1043C00011F084E005C08091E30087FDFACF81E021
:1043D0008093800542E061EC81E00E945F0642E24A
:1043E00061EC82E00E945F0642E361E883E00E94A4
:1043F0005F0642E360E884E00E945F0680918005EA
:1044000013C080918405813079F481E0933009F004
:1044100080E080937F051092E9008091E800877F1B
:104420008093E8000E9440068091E80083FF0AC064
:104430008091E800877F8093E8008091EB008062A4
:104440008093EB00AA96E3E00C94F5330E94551F8D
:104450002FEF84E39CE0215080409040E1F700C0C2
:10446000000088E19AE00FB6F894A8958093600068
:104470000FBE90936000FFCF882341F0809590910C
:104480003F03892380933F030E942E1F08958823B2
:1044900039F090913F03982B90933F030E942E1F79
:1044A00008958823C1F19CEF980F913A78F4E6EFD4
:1044B000F2E09191891303C0DF0111971C9242E051
:1044C000EC3FF407B1F70E942E1F089590E2980F79
:1044D000983088F4877021E030E0A90102C0440FD1
:1044E000551F8A95E2F7CA01809590913F03892371
:1044F00080933F03E8CF9BE5980F933028F490E03A
:1045000080E00E94B4070895885A8B3120F490E02F
:1045100080E00E948F070895CF93C82F8823B1F0C1
:104520008CEF8C0F813A00F5E6EFF2E08CEF92E031
:10453000DF012D91C21761F08A179B07D1F76C2F0D
:1045400084EF92E00E9475070E942E1FCF9108957C
:104550002191C21303C0DF0111971C928E179F0790
:10456000B9F70E942E1FEBCF80E28C0F883068F4E1
:10457000C77021E030E001C0220FCA95EAF78091B0
:104580003F03822B80933F03DFCFEBE5EC0FE3305B
:1045900040F4F0E0E55BFE4F808190E00E94B407BC
:1045A000D5CFC85ACB3190F6EC2FF0E0EE0FFF1FBD
:1045B000E25BFE4F808191810E948F07C7CF1F93DE
:1045C000CF93DF93182FCAE0D0E0893311F4C0E510
:1045D000D0E0812F0E948C228FE99FE00197F1F7B4
:1045E00000C000002197C1F7812F0E945122DF9166
:1045F000CF911F9108950F931F93CF93DF93C62FF1
:10460000D42F022FFC0185818823A9F06093FD053A
:104610000E9469079093FC058093FB05C77081E0B9
:1046200001C0880FCA95EAF70E944722DF91CF9117
:104630001F910F9108958091FD05681332C08091FC
:10464000FB059091FC050E944E07883C910548F5BA
:1046500010E21D0FCD17B9F080E28C0F883040F4C6
:10466000C77081E001C0880FCA95EAF70E943C221A
:10467000183048F481E09D2F977001C0880F9A95FB
:10468000EAF70E944722802F0E94DF22183070F63E
:10469000D77081E001C0880FDA95EAF70E943C22CA
:1046A000C5CFC77081E001C0880FCA95EAF7F6CF81
:1046B000A8E0B0E0EEE5F3E20C94DA3366EE7EEFCC
:1046C00090E080E00E94ED3460E082E090E00E94A3
:1046D000CF3460E083E090E00E94CF341092410339
:1046E0001092400360E074E184E090E00E94ED34B9
:1046F00060E086E090E00E94CF346FEF87E090E0CA
:104700000E94CF3440E050E0BA0188E090E00E947F
:10471000E13460E084E290E00E94CF3460E087E121
:1047200090E00E94CF3460E08CE090E00E94CF34B3
:1047300060E08DE090E00E94CF3419821A821B82E3
:104740001C821D821E821F82188648E050E068E1AC
:1047500070E0CE0101960E94BF3440E050E0BA0103
:1047600080E290E00E94E1340E94AA110E947A1631
:104770008091FF05837011F4109247018091FF052D
:104780008C7F81608093FF058091FE05816080931E
:10479000FE058FE7809303064FEF6FEF8AEA90E004
:1047A0000E94B1048BE10E94980440E050E0BA01FD
:1047B00083E190E00E94E1342896E2E00C94F63325
:1047C000B0E0A0E0E6EEF3E20C94D2338C01FC0101
:1047D00084818823F1F161E0C8010E944F16EC0149
:1047E0008230FEE79F0739F181302EE7920709F406
:1047F000DEC0A0F481159E47B9F1B801CE010E9438
:10480000390F882331F1FE01E851FC47E730F1050B
:1048100008F0FEC0E757FA4C0C94293483509E47A9
:104820008934910550F7F8014581BE018091FC0261
:104830000E9425040EC0F8018581882379F080E06C
:104840000E948F1682E090E00E94001681E00E9494
:104850008F16CDB7DEB7EAE00C94EE3380E00E940D
:104860008F1681E090E0F0CFF8018581882389F3ED
:10487000CCE5D1E08AE0A82EFE012491222349F361
:10488000213009F03EC031968491813031F4229676
:10489000FE0184910E94DF2207C0823039F4229603
:1048A000FE0184910E948C222196E6CF833031F460
:1048B0002296FE0184910E945122F6CF843009F0A5
:1048C00074C02296FE01249190E080E0FE013196B2
:1048D0002053330B2A30310548F0019728F3EFE9D4
:1048E000FFE03197F1F700C00000F7CFA89EA001CC
:1048F000A99E500D1124C901840F951F2491EF0129
:10490000E5CFE22FF0E0E452FF4FB490822F86957E
:104910008695869590E0FC01E453FF4FE490277064
:10492000F12C022E02C0F594E7940A94E2F731E0EC
:10493000E322FF24FC01E454FF4FC490D12C022E4B
:1049400002C0D594C7940A94E2F741E0C422DD2462
:10495000FC01E455FF4F049110E002C01595079546
:104960002A95E2F701701127E114F10419F081EEA4
:104970000E948C22C114D10419F086EE0E948C2270
:104980008B2D0E94DF22C114D10419F086EE0E9403
:104990005122E114F10419F081EE0E945122011517
:1049A000110509F481CF8CE275CFEF017DCFF801BD
:1049B0008581882309F44DCF8091FD0291E08927FC
:1049C0008093FD02882319F09093FC0242CF10924D
:1049D000FC023FCF26E241EE61EEC8010E94FB22BD
:1049E00038CF27E245EE65EEF8CF26E241EE60EEE5
:1049F000F4CF27E245EE64EEF0CF26E241EE62EE20
:104A0000ECCF27E245EE66EEE8CF28E241E0EBCFBF
:104A1000F8019581992309F405C31092FD059E01C3
:104A200030572332310508F0E7C284E090E00E945D
:104A3000B9349093850380938403FE01E150F047DD
:104A4000E232F10520F4E057FA4C0C9429348091BD
:104A5000840381608093840395C08091850388607E
:104A6000809385038FC0809184038260F3CF80910F
:104A700084038460EFCF809184038860EBCF8091C2
:104A800085038160EDCF809185038260E9CF8091BD
:104A900084038061DFCF809184038062DBCF8091CB
:104AA00084038064D7CF0E94551F8091840380685F
:104AB000D1CF809184038C60CDCF809185038360BA
:104AC000CFCF809184038E7FC5CF80918503877F70
:104AD000C7CF809184038D7FBDCF809184038B7F6E
:104AE000B9CF80918403877FB5CF809185038E7F76
:104AF000B7CF809185038D7FB3CF809184038F7E64
:104B0000A9CF809184038F7DA5CF809184038F7B73
:104B1000A1CF0E94551F809184038F779BCF8091F6
:104B20008403837F97CF809185038C7F99CF809179
:104B3000840382FB992790F921E0922790FB82F968
:104B400090FB83F987CF80918503982F9095917082
:104B50008E7F892B90FB81F983CF90918403892FDD
:104B60008F7B96FF806476CF0E94551F90918403BF
:104B7000892F97FB87F980586DCF61E08EE090E038
:104B80000E94CF34609184037091850384E090E0AB
:104B90000E94ED340E94551F5CCE60E0EFCF9091F3
:104BA0008403892F8F7E94FF806154CF909184037A
:104BB000892F8E7F90FF81604DCF90918503892F43
:104BC000877F93FF88604CCF8091FE0281110EC0D9
:104BD00089E2E6EFF2E09191891303C0DF011197BA
:104BE0001C9222E0EC3FF207B1F719C285E3F1CF46
:104BF0008091FF0591E089278093FF05109247017E
:104C00008091FE0581608093FE0523CE44E958E043
:104C10006EE978E00E94EF071CCE4EE958E064E9A7
:104C200078E0F8CF40E858E06AE878E0F3CF4AE867
:104C300058E060E878E0EECF46E658E063E778E0D9
:104C4000E9CF43E758E066E678E0E4CF4CE458E08B
:104C500069E578E0DFCF49E558E06CE478E0DACF49
:104C600040E358E06EE378E0D5CF4EE358E060E3F0
:104C700078E0D0CF81E00E949804EBCD84E0FBCFB8
:104C80008CE0F9CF81E1F7CF6FEF7FEF90E080E02C
:104C90000E94ED340E942622F801C081D18199231F
:104CA00009F1CE010E943815F82E682FCE010E941E
:104CB000E615BE018F2D0E94DE130E941714C82F27
:104CC000D82EF8012581368132953F70892F829543
:104CD0008F70E82EF12C8C30E8F5F701EE54FA4C89
:104CE0000C942934CE010E94A015F82EE2CFD92FC2
:104CF000DF70907F11F0D295D07F8C2F2223C9F0E6
:104D0000DD2369F090E29C0F983010F0C1110BC0C8
:104D100080913F03D82BD0933F030E942E1F8C2FEE
:104D20000E948C2217C080913E03D82BD0933E0363
:104D3000F4CF0E945122DD2369F0D095C05EC830C7
:104D400010F0D11015C080913F03D823D0933F03BA
:104D50000E942E1F98E0E91AF108E4E0EE16F10433
:104D600010F40E94A01760E0C8010E944F1671CD98
:104D700080913E03D823D0933E03EACF892F8F70D2
:104D8000907F903211F08295807FF1E0DF120CC0AD
:104D9000222329F03630F0F60E944722DBCF35304F
:104DA000C8F60E943C22D6CF222319F03323A1F368
:104DB000B6CF3323B1F3C93309F016C12FEF37EE65
:104DC00043E0215030404040E1F700C000008C2F0C
:104DD0000E945122BFCF892F86958695837061F0FE
:104DE000813009F0B7CF8C2F9370211102C080E081
:104DF00090E00E948F07AECF8C2F9370211102C0DC
:104E000080E090E00E94B407A5CF892F837009F05D
:104E100042C021119FCF8C2F829586958770880F75
:104E2000880F2C2F2F7030E0082E02C0220F331F66
:104E30000A94E2F750E040E0C4FF09C04FE050E0C0
:104E400002C0440F551F8A95E2F7409550959695FC
:104E5000969593709230A9F080F460914003709120
:104E60004103913041F0C901842B952B8623972370
:104E70000E9427166FCF262B372BC901842B952B29
:104E8000F7CFC901842B952B20914003309141032A
:104E900082279327EDCF8695222311F0892F8170E9
:104EA000882309F457CF8C2F829586958770880FB9
:104EB000880F2C2F2F7030E0082E02C0220F331FD6
:104EC0000A94E2F750E040E0C4FF09C04FE050E030
:104ED00002C0440F551F8A95E2F74095509596956C
:104EE000969593709230A9F080F46091800470914F
:104EF0008104913041F0C901842B952B862397239F
:104F00000E94001627CF262B372BC901842B952B07
:104F1000F7CFC901842B952B209180043091810417
:104F200082279327EDCFD92FDF70222329F08D2FF1
:104F30000E9417168C2F30CF8C2F0E943C228D2F71
:104F40000E94051607CF8C2FE1EFCE1791F1EC17D9
:104F500050F0F0EFCF17D1F02223D1F13111DFCE95
:104F6000892F8F712AC042EFC41751F153EFC51337
:104F7000F3CF222351F19F7121E030E0F90102C00B
:104F8000EE0FFF1F9A95E2F7CF01BACF222369F007
:104F9000353008F0DFCE292F2F7181E090E002C07C
:104FA000880F991F2A95E2F7B7CF363008F0D2CE96
:104FB000F2CF892F8F71222319F20E941716CACEC1
:104FC000892F8F712223C9F3BBCF90E080E098CF67
:104FD000332379F0893341F4FFEF27EE33E0F150CA
:104FE00020403040E1F7F1CE8FE39CE90197F1F7E3
:104FF000ECCE892F8F71A4CFC631FCE7DF0729F5EE
:1050000080913F038A7A91E009F490E09093FE0248
:1050100069E2811165E384EF92E00E9475070E94C6
:105020002E1F17CCC6312CE7D20709F4CDCD8091C5
:105030003F038272FE01E052F847E531F10508F0C6
:105040002BCEE254FA4C0C942934C1303CE7D30700
:1050500009F420CEC3304CE7D40709F415CEC115AE
:10506000DC4709F019CE0E94551F3FEF44E35CE096
:10507000315040405040E1F700C0000087E797E71B
:10508000909301088093000888E19AE00FB6F894A5
:10509000A895809360000FBE90936000FFCFCF93E0
:1050A000DF9380913503807F09F04DC080913403F8
:1050B000882309F448C0E091C30550918A05C09146
:1050C0003003D0912F03609131037091320347E098
:1050D0005E17C9F18E2F90E0E49FF0011124E5578F
:1050E000FA4F2481222391F1489FF001499FF00D4E
:1050F0001124DF01A557BA4F11962C9111972C134B
:1051000025C02C912D1322C015962C911597211195
:105110001DC012962D913C91261B370B283C310562
:10512000A8F4809135038F70806180933503EF562A
:10513000FA4F80818F70806180838FE293E00E94BC
:10514000E0230E942E15DF91CF910895FC01319646
:10515000E770BECFA4E1B0E0E0EBF8E20C94D0330E
:105160008C0186E0F801DE011F9601900D928A9570
:10517000E1F7F8018481E5809FE2A92E93E0B92E42
:1051800090913303911128C0882319F1EE20F1F09A
:10519000C8010E942C16F82E8823C1F087E0F80180
:1051A000D50101900D928A95E1F78091330381300A
:1051B00031F480912F03909130030E946C150E946E
:1051C0004F288F2D6496ECE00C94EC33C8010E94BC
:1051D000E023FF24F394F5CFD080C18082809380B8
:1051E000F09034032091310330913203A401421B2B
:1051F000530BFF2009F4D9C0483C510508F092C078
:105200008823F9F29091300380913503282F207F75
:1052100009F056C0C91214C090912F03D91210C0C2
:10522000E11048C08F708061809335038FE293E076
:105230000E94E02380913503F8018683F12CC1CFD1
:10524000E11038C06C2D8D2D0E94C4046C2D8D2D65
:105250000E94C404E82E8111F1CFDF86C88A8F85B1
:1052600098890E946C15292F22952F70243058F4AC
:105270009F70223088F0992399F0F8019681907FF1
:1052800079F4FE2C9ECF2A5F2F70223068F0C8017F
:105290000E94E023EF2CF5CF992311F0882389F3A6
:1052A000805E883070F3F3CF803F58F3815F8330A6
:1052B00070F7E7CF80913503816080933503BECFCF
:1052C000C91207C090912F03D91203C0EE2009F430
:1052D0008DC0C8010E942C16882309F477CFEE20D8
:1052E00009F474CF80913503803288F020912F0328
:1052F00030913003398728879B868A8690913303C3
:105300009C871D868E87CE0108960E94E02387E049
:10531000F801AFE2B3E001900D928A95E1F70E94A7
:105320004F2857CF90913503292F207F51F48FE2DA
:1053300093E00E94E02387E0F50111928A95E9F756
:105340007DCF882309F43DCF809130038C1110C0AC
:1053500080912F03D8120CC0E1100AC09683C801B7
:105360000E94E02387E0F50111928A95E9F729CFA1
:10537000C8010E942C16882309F428CFEE2009F4D6
:1053800025CF80913503803210F220912F03309188
:1053900030033A8329839C828B82909133039D83CF
:1053A0001E828F83CE010196B0CF483C5105D0F6C6
:1053B000882309F40ECFFE2CEE2009F407CF80914C
:1053C00030038C1120C080912F03D8121CC0809113
:1053D000350380FD0FC0982F907F61F08683903F4A
:1053E00031F0982F907F905F8F70892B8683C80152
:1053F0000E94E02387E0F801AFE2B3E001900D9254
:105400008A95E1F7DECEC8010E942C1681117FCF6C
:1054100080913503816080933503C8010E94E023A9
:10542000D0CEABE1B0E0E7E1FAE20C94D9334E8B99
:105430005F8B688F798F8A8F9B8F911110923E03BB
:105440001D8A86E0FE017696DE011F9601900D9280
:105450008A95E1F78B89882329F061E0CE010F96C8
:105460000E944F1687E0FE013F96DE0118960190DC
:105470000D928A95E1F7CE0108960E94AA28811123
:105480000CC087E0FE013896DE01119601900D9266
:105490008A95E1F78C8581110BC017E08091C305D7
:1054A00090918A05891331C06B96E3E00C94F53333
:1054B00020918A0530E0C9010196877099274091B3
:1054C000C3054817190699F097E0929FD001939F62
:1054D000B00D1124A557BA4FFE01319601900D92DF
:1054E0009A95E1F780938A050E942E15D6CF0E94E7
:1054F000551F10928A051092C30587E0EFE2F3E092
:10550000DF011D928A95E9F7C8CF819FC001112460
:1055100085579A4F0E94AA28882331F28091C305AB
:1055200090E00196877099278093C305B7CFACE0D0
:10553000B0E0EDE9FAE20C94D833182F062F662379
:10554000B9F10E9469071F832DEF28879A87898701
:1055500082E08B8781E08C874F81588569857A85C9
:105560008B859C850E94112A8FE39CE90197F1F7B6
:1055700000C00000002329F10E94690719832DEF64
:105580002A839C838B8382E08D831E8249815A818A
:105590006B817C818D819E810E94112A8FE39CE921
:1055A0000197F1F700C000002C96E4E00C94F4336E
:1055B0000E9469071F832CEF28879A87898783E0D9
:1055C000C8CF0E94690719832CEF2A839C838B83A1
:1055D00083E0DACFA1E0B0E0E0EFFAE20C94D3335D
:1055E000EE24E394F12C05E613E09E012F5F3F4F7C
:1055F00049E553E063E082E00E94D71CC82E88236F
:1056000039F100E080E01DC0D0907503D00E2D2D43
:1056100030E0A90141565C4F7A01E1E0F0E0EC0F87
:10562000FD1FE00FF11D1081FA019081191BB12EB1
:105630001B149CF0912F17FD90E0191B111118C03D
:105640000F5F909174030917F8F281110E94EC1713
:105650008C2D2196E9E00C94EF33BA94F701808108
:105660008F5F808360E08D2D0E94972A8C2DE0CF84
:105670001F5FF70180818150808361E08D2D0E9442
:10568000972A8C2DDBCFA6E0B0E0E9E4FBE20C9496
:10569000D8330E9469078C018091420390914303A3
:1056A0008017910781F019821A820E946907682F7A
:1056B00049815A81792F80E090E00E94112A10934D
:1056C0004303009342032696E4E00C94F4331F92C4
:1056D0000F920FB60F9211242F933F934F935F9326
:1056E0006F937F938F939F93AF93BF93CF93DF93EA
:1056F000EF93FF93D091E900DF708091EC00C82F09
:10570000C17080FDC0E81092E9008091F000877FB1
:105710008093F00078940E946B1F1092E9008091B2
:10572000F00088608093F000CD2BCF70C093E9002B
:10573000FF91EF91DF91CF91BF91AF919F918F91A9
:105740007F916F915F914F913F912F910F900FBE7D
:105750000F901F9018951F920F920FB60F92112461
:105760002F933F934F935F936F937F938F939F9369
:10577000AF93BF93EF93FF938091E10082FF09C045
:105780008091E20082FF05C08091E1008B7F8093D1
:10579000E1008091DA0080FF24C08091D80080FF72
:1057A00020C08091DA008E7F8093DA008091D9004A
:1057B00080FF9DC080E189BD82E189BD09B400FE02
:1057C000FDCF81E08093800580917305811109C030
:1057D0000E94C6050E9491068091E2008460809339
:1057E000E2008091E10080FF17C08091E20080FF1D
:1057F00013C08091E2008E7F8093E2008091E200EE
:1058000080618093E2008091D80080628093D8000C
:1058100019BC85E0809380058091E10084FF2BC056
:105820008091E20084FF27C080E189BD82E189BDCB
:1058300089B5982F917080FFFBCF8091D8008F7D24
:105840008093D8008091E1008F7E8093E100809169
:10585000E2008F7E8093E2008091E200816080937D
:10586000E20080918105882309F447C084E0809399
:105870008005809180058091E10083FF27C08091A1
:10588000E20083FF23C08091E100877F8093E100E5
:1058900082E080938005109281058091E1008E7FE7
:1058A0008093E1008091E2008E7F8093E2008091FE
:1058B000E20080618093E20042E060E080E00E94CC
:1058C0005F068091F00088608093F000FF91EF9177
:1058D000BF91AF919F918F917F916F915F914F9108
:1058E0003F912F910F900FBE0F901F90189519BCEC
:1058F000109280051092730574CF8091E30087FDAC
:1059000093E090938005B5CF78941F921FB61F92B5
:1059100011248F939F93AF93BF9380916F059091C4
:105920007005A0917105B09172050196A11DB11D80
:1059300080936F0590937005A0937105B0937205E5
:10594000BF91AF919F918F911F901FBE1F9018958F
:105950001F921FB61F9211248F939F93AF93BF93F3
:1059600080916E05811113C080916F059091700533
:10597000A0917105B09172054196A11DB11D809352
:105980006F0590937005A0937105B0937205BF9158
:10599000AF919F918F911F901FBE1F901895CDB70B
:1059A000DEB72C970FB6F894DEBF0FBECDBF85B71C
:1059B000806885BF85B7806885BF0E94AA11109254
:1059C0007506109277061092760680EC80933A075F
:1059D00088E796E090933C0780933B071092390745
:1059E00010923807109255061092540610925706DE
:1059F00010925606109259061092580610925B06A5
:105A000010925A0610925D0610925C0610925F0684
:105A100010925E0610926106109260061092630664
:105A20001092620610926506109264061092670644
:105A300010926606109269061092680610926B0624
:105A400010926A0610926F0610926E0685E892E137
:105A500090935106809350068CEE91E190937106DD
:105A60008093700688EC91E190936D0680936C06AC
:105A700087EC91E1909353068093520684B7877F19
:105A800084BF0FB6F894A8958091600088618093D8
:105A90006000109260000FBE80E890E00FB6F894AE
:105AA00080936100909361000FBE84ED92E190932A
:105AB000F3028093F2020E94C6050E949106809133
:105AC000E20084608093E2007894809180058823CE
:105AD000A1F01091E9001F709091EC00892F817066
