:100000000C9484020C94A1020C94A1020C9425235C
:100010000C94A1020C94A1020C94A1020C94A102D4
:100020000C94A1020C94A1020C947A1C0C94361C22
:100030000C94771D0C94A1020C94A1020C94A102C3
:100040000C94A1020C94A1020C94A1020C94A102A4
:100050000C94A1020C94531D0C94A1020C94A102C7
:100060000C94A1020C94A1020C94A1020C94A10284
:100070000C94A1020C94A1020C94A1020C94A10274
:100080000C94A1020C94A1020C94A1020C94A10264
:100090000C94A1020C94A1020C94A1020C94A10254
:1000A0000C94A1020C94A1020C94A1020000000087
:1000B0000000000000000000000000000000000040
:1000C0000000000000000000000000000000000030
:1000D0007E0F00D4FFFFFFC7000000780000000083
:1000E000000000002A2B2800000000000000000093
:1000F0000000000000000029000000002C1E342039
:10010000212224342627252E362D3738271E1F205E
:100110002122232425263333362E37381F040506A3
:100120000708090A0B0C0D0E0F10111213141516E7
:100130001718191A1B1C1D2F3130232D35040506E5
:100140000708090A0B0C0D0E0F10111213141516C7
:100150001718191A1B1C1D2F3130354C62616E6443
:100160006F6D696E65646F6E693A64656661756C22
:1001700074204020302E32302E342D31362D67350C
:1001800065616166372D64697274792035656161D6
:100190006637393463612A207C20323032332D3087
:1001A000342D30352D30313A31353A353200507EEC
:1001B000567E587E5B7E5F7E6E7E0000527E577E4E
:1001C000617E5D7E6B7E647E537E5C7E637E667E3A
:1001D0006A7E5A7E557E61525E7E627E657E687E54
:1001E0006C7E677E547E597E6D7E6F7E697E607EFA
:1001F000517E4E7E00000000000000000000000064
:100200000000237124712671277128714A7161528F
:1002100025712C712B7129714871477121522A71F6
:10022000317134712E7145714671A84238712F7148
:100230002D713D71437144713A7136713271307173
:100240003F7142713E714071397135713371417145
:1002500037713B713C71527E567E587E5D7E697E61
:100260006D7E0000507E5C7E647E667E5B7E5A7E84
:10027000547E557E617E657E687E6B7E607E6152B7
:10028000577E5E7E637E677E6A7E627E597E1F71C8
:100290006C7E6E7E717E5F7E4F7E537E000000001E
:1002A000000000000000000000002371247126718E
:1002B000297127714871615225712C712D71287136
:1002C0004671477121522A712B7139712F713D711D
:1002D0004571A842387130712E7131713F7144718E
:1002E00036713771347132713371427140714371BB
:1002F0003B71767E357141713A713C713E710000FF
:10030000405200000000000000000000000000005B
:1003100000000000000000000000000000000000DD
:1003200000000000000001000000000000000000CC
:1003300000000000000000000000000000000000BD
:1003400000000000000000000000000000000000AD
:100350000000000000000000417E00005571010017
:1003600000000000000000000000567101000000C5
:10037000000000000000000071710100000000009A
:10038000000000000000727100000000000000008A
:100390000000000000000000000000000000407E9F
:1003A000000000000000A900AA00A900AA000100A6
:1003B000010005010980A101850319012AB7001573
:1003C0000126B700950175108100C0050C0901A137
:1003D00001850419012AA002150126A002950175C4
:1003E000108100C005010906A101050719E029E7F0
:1003F0001500250195087501810295017508810197
:100400000507190029FF150026FF009506750881CC
:1004100000050819012905950575019102950175D9
:10042000039101C009029F00040100A0FA09040021
:100430000001030101000921110100012240000710
:1004400005810308000109040100010300000009FF
:10045000211101000122320007058203200001085A
:100460000B0202010100000904020000010100006A
:10047000092401000109000103090403000201032A
:1004800000000724010001410006240201010006CA
:1004900024020202000924030103010201000924CD
:1004A00003020401010100090504024000050000E7
:1004B000052501010109058302400005000005250D
:1004C0000101031201000200000008EDFEB5F40175
:1004D00000010200011C03620061006E0064006FF5
:1004E000006D0069006E00650064006F006E0069B9
:1004F0000000000E033300610072006100680074A8
:10050000000000040309040011241FBECFEFDAE04D
:10051000DEBFCDBF11E0A0E0B1E0EEE7FAE402C03B
:1005200005900D92A63AB107D9F724E0A6EAB1E00A
:1005300001C01D92A933B207E1F70E949E1D0C94E1
:10054000FE240C9400000F931F939B01305E8901E1
:10055000000F012F001F110B11952F77482F406EB0
:10056000E0914903F0914A0363E070E089E493E08D
:1005700009951F910F9108950F93262F042F0F7740
:10058000482F406BE0914903F0914A0363E070E02B
:1005900089E493E009950F910895A3E0B0E0E3EDBD
:1005A000F2E00C944B247C01162FD42EC22E8091A5
:1005B0006E03843071F5E0916303F091640330972A
:1005C000C1F1C701019763E070E00E947824CB017C
:1005D000880F991F860F971F19834A83CB824E2D50
:1005E000481B9E012F5F3F4FBC0189E493E00995B2
:1005F000E0916703F0916803309739F00C2D2D2DB1
:10060000412FB70189E493E009952396E8E00C9423
:10061000672482E0E816F10409F45AC083E0E81682
:10062000F104A9F081E0E816F10409F484C0F12C8A
:10063000E12CE0916503F09166033097C9F20C2D2F
:100640002D2D412FB70189E493E00995D1CF862F55
:10065000807F803A11F188F48038D1F0E0914D0329
:10066000F0914E03803929F7309719F3123F49F181
:100670002C2D4D2D612F6F7027C0803E99F0803F4B
:10068000B1F0E0914B03F0914C03803B91F6ECCF3D
:10069000E0914F03F0915003E7CFE0915103F091C7
:1006A0005203E2CFE0915303F0915403DDCF623F58
:1006B00009F0BFCFE0915503F0915603309709F44C
:1006C000B8CF2C2D4D2D62EF89E493E0099590CFA2
:1006D000862F807F803DB9F0803FD1F0E0915703B5
:1006E000F0915803803C09F0A4CF309709F4A1CFD2
:1006F000812F8D7F4D2D612F6F70813FC9F089E46F
:1007000093E0099575CFE0915903F0915A03EDCF2D
:10071000E0915B03F0915C03633F39F0613F09F0C6
:1007200088CFE0915D03F0915E03309709F481CFAB
:100730004D2D612FE4CFE0915F03F0916003683F9E
:1007400038F4663F09F075CFE0916103F0916203E0
:10075000309709F46ECF612F89E493E0099548CF73
:10076000E8EDF0E080818E7F80831092E2001092AD
:10077000DA001092E100A0EEB0E08C9181608C93E1
:1007800080818F77808319BCA7EDB0E08C918E7F3C
:100790008C9380818F7E8083109232030895209104
:1007A000E4003091E50095E6A9012091EC00822F4C
:1007B000817020FF06C08091E80080FF06C080E0C5
:1007C00008952091E80022FD1AC080913F038823FC
:1007D00089F0853089F08091EB0085FD0FC0209174
:1007E000E4003091E50042175307F9F29150E1F629
:1007F00084E0089582E0089583E0089581E00895FB
:10080000EF92FF920F931F93CF937C018B010E9475
:10081000CF03C82F811117C08091E80085FD0BC060
:100820008091E8008E778093E8000E94CF038823B0
:1008300099F3C82F08C0F70181917F018093F100DF
:100840000150110949F78C2FCF911F910F91FF9003
:10085000EF9008958091410387FF13C08091E800D5
:1008600082FF06C08091E8008B778093E80004C087
:1008700080913F038111F2CF089580913F03882337
:10088000D9F38091E80080FFF8CF8091E8008E775F
:10089000ECCF982F9093E900242F762F50E0891702
:1008A00031F07091EC002091ED005091F00021FDAD
:1008B00007C09F5F973071F78093E90081E008954A
:1008C0003091EB003E7F3093EB003091ED003D7FA7
:1008D0003093ED003091EB0031603093EB0070937A
:1008E000EC002093ED005093F0002091EE0027FDE6
:1008F000E0CF80E00895B0E0A0E0E1E8F4E00C94FF
:100900004B24C8EDD0E088818F7E8883E7EDF0E04E
:1009100080818160808384E082BF81E080933203A4
:1009200088818E7F888302EE10E0F8011082109299
:10093000DA0081EEC82ED12CF601108288818F77E3
:10094000888388818068888388818F7D888319BCAB
:1009500010923F031092400310923E0310923D0309
:1009600090EEE92EF12CF70180818B7F80838881C6
:100970008160888342E060E080E00E944904F601E3
:1009800080818E7F8083F801808181608083808177
:1009900088608083F70180818E7F80838881806179
:1009A0008883CDB7DEB7E8E00C946724FC01809122
:1009B00047039091480386179707A0F061157105CA
:1009C00029F49091E8009E779093E80090E06115FB
:1009D000710551F4911108C08091E80082FF34C084
:1009E00080E00895BC01F2CF80913F038823C1F1DC
:1009F0008530C1F18091E80083FD30C08091E8002E
:100A000082FDEACF8091E80080FFE1CF8091F30082
:100A10002091F200382F6115710519F02830310549
:100A200058F091E02830310509F090E02091E8007D
:100A30002E772093E800CBCF81918093F100615015
:100A400071092F5F3F4FE7CF80913F03882341F02B
:100A5000853041F08091E80083FFBECF81E00895AA
:100A600082E0089583E00895089580913403089505
:100A70009C014FB7F89480912E0390912F03A09181
:100A80003003B09131034FBF821B930B08952FB7F2
:100A9000F89460912E0370912F0380913003909110
:100AA00031032FBF08952FB7F89480912E039091B2
:100AB0002F03A0913003B09131032FBF08959C0103
:100AC000FC0132969FEF80E04191461751F09F3F25
:100AD00019F4411101C0982F8F5F8630A9F79F3F0D
:100AE00009F40895290F311D97FD3A95F9016283A4
:100AF0000895A3E0B0E0EFE7F5E00C9451242091D5
:100B00002B0330912C0328173907A1F090932C0365
:100B100080932B03E0912903F0912A03309751F041
:100B200024E029839B838A830680F781E02DCE0110
:100B3000019609952396E2E00C946D24A3E0B0E0C1
:100B4000E4EAF5E00C945124209127033091280326
:100B500028173907A1F09093280380932703E09189
:100B60002903F0912A03309751F023E029839B83D6
:100B70008A830680F781E02DCE01019609952396A0
:100B8000E2E00C946D24FC01680F791F8FEF91E374
:100B90002191822728E030E087FF09C0880F89274C
:100BA00021503109C9F7E617F70791F70895880F23
:100BB000F7CF08950895982F907F903BE9F040F487
:100BC0009039D1F0903AC1F09038B1F080E00895BA
:100BD000903D19F020F4903CC9F782E00895903ED2
:100BE00059F0903F99F7815F8F3080F7E82FF0E060
:100BF000EA56FE4F8081089583E00895A7E0B0E0B3
:100C0000E4E0F6E00C944B248C0108511F4F8091D6
:100C10003F03843009F087C0809137018F70809343
:100C2000E9008091E80082FF7EC08091E80085FFA6
:100C30007AC00E94CF03811113C084E0E82EF12C0A
:100C4000CE0101966C018091E80085FD61C0809124
:100C5000E8008B778093E8000E94CF03882399F304
:100C60008091E80085FD05C08091E8008B77809336
:100C7000E800FA808F2D0E94DB05282FFD828B81F2
:100C80008E838C818F8321110BC08981843041F147
:100C9000873031F1863031F121E0853009F0B7CF6E
:100CA00030E0E5E0F0E0EC0FFD1FE30FF11DF08018
:100CB0004FB7F894D8011196EC911197F0E0CF015D
:100CC000019612966C9170E00E948C24D8015C9180
:100CD0005817190649F44FBF3F5F321710F397CFEB
:100CE00023E0DECF22E0DCCF13968D919C91149708
:100CF000E80FF91FF08211968C91119790E0019600
:100D000012966C9170E00E948C24F8018183E3CFED
:100D10008091F100D6018D936D01B1E0EB1AF108DD
:100D200009F091CF9DCF2796E8E00C946724A4E0CA
:100D3000B0E0EDE9F6E00C944C247B01142FD22EA8
:100D40004A832B830C83842F0E94DB0581113AC0D8
:100D500082E0E816F10489F183E0E816F10441F03D
:100D600081E0E816F10429F5173F29F485E004C075
:100D700087E0073F09F084E0898380913F03843056
:100D8000C1F4809132018F708093E90050E040E01F
:100D900064E070E0CE0101960E940004811109C058
:100DA0008091E80085FD05C08091E8008E778093F2
:100DB000E8002496E7E00C94682487EFD812DBCF94
:100DC00086E0DACF12951F701983D7CF80E008959F
:100DD000F894E82FE295EF70F0E031A1282F2F7002
:100DE00081E090E001C0880F2A95EAF7982F90954E
:100DF000932391A392A1892B82A378940895909133
:100E0000B30292FF06C0282F28712830F9F4877F9B
:100E1000846093FF06C0282F28712831F1F4877E63
:100E200084612091B40220FF06C0382F3871383019
:100E3000D9F4877F816021FF06C0282F28712831CF
:100E4000D1F4877E816194FD877E0895282F2471D7
:100E50002430F9F68B7F8860DCCF282F2471243171
:100E600001F78B7E8861DDCF382F3171313019F772
:100E70008E7F8860E0CF282F2171213121F78E7E6F
:100E80008861E1CF82389105B9F1B0F481339105E1
:100E900009F47DC048F48932910509F46DC08A32A5
:100EA000910509F47BC008958533910509F45FC06D
:100EB0008933910509F10895833E9105D9F138F4FC
:100EC000803E910529F1823E910579F10895863E93
:100ED0009105D9F1873E910509F43EC0843E910504
:100EE00041F52091B40221FF24C08091B30284FD1A
:100EF00019C087EE90E008952091B302237009F0A5
:100F00005AC02091B40223FF14C089E290E00895F2
:100F10002091B30220FD38C03091B40230FF09C0E7
:100F200024FF43C090E080E008952091B30222FDA9
:100F3000F7CF08952091B30222FD3AC03091B40258
:100F400030FD39C024FFF5CFEDCF2091B30223FF50
:100F5000F0CF24FDE7CFCDCF2091B30223FD2EC0EB
:100F60003091B40231FFEECF84EE90E008952091ED
:100F7000B30225FFDECFC9CF2091B30225FD21C0EA
:100F80002091B40223FFD5CF89E390E0D2CF209106
:100F9000B30226FFCECF8AE290E008952091B302FB
:100FA00026FFC7CF81E390E0089583EE90E0089597
:100FB00082EE90E0089580EE90E0089586EE90E055
:100FC000089585E390E00895972F7C30B8F467305A
:100FD00078F5833080F570E027E0929F600D711DF9
:100FE0001124FB0194E5899FE00DF11D1124EE0F02
:100FF000FF1FE255FE4F8591949108957D3F59F46E
:10100000611116C08330B8F424E0829FF0011124EE
:10101000EA55FC4FF0CF7C3F59F4611109C0833091
:1010200050F494E0899FF0011124E855FC4FE3CF80
:1010300080E090E0089581E0FCCF1F93CF93DF9391
:101040000E944207EC01C11580E5D807F0F5C115F3
:1010500080E4D80708F0AAC0C03ED10520F5CD3CF9
:10106000D10508F090C0C83AD10578F4C53AD10549
:1010700008F081C0C130D10519F1209709F1C430C1
:10108000D105F0F4D0E0C0E01BC0C33CD105D0F7DF
:10109000C85AD0E0CC0FDD1FCF5BDE4F0990D8815E
:1010A000C02DD4640DC0C11580E2D80708F0C9C0B6
:1010B000C11581E0D80708F068C0C83ED10510F717
:1010C000CE01DF91CF911F910895C03682E5D807F8
:1010D00018F5C03482E5D80708F079C0C03282E53F
:1010E000D80708F06DC0C11582E5D80708F48FC095
:1010F0002C2F2695269580E2289F900111248C2F75
:101100008370C1E0D0E002C0CC0FDD1F8A95E2F70A
:10111000C22BD32BDD68D4CFC03C82E5D807F8F4CE
:10112000C03A82E5D80708F067C0C03882E5D80722
:1011300008F0A8CF2C2F26952695277080E2289FAF
:10114000900111248C2F8370C1E0D0E002C0CC0F3D
:10115000DD1F8A95E2F7C22BD32BDA68B1CFC03EF0
:1011600082E5D80708F08ECFDC2FCC27CC27DF71A3
:10117000C06FD06AA5CFC55AD0E0C25CDE4FC8812F
:10118000D0E0D0649DCFD0659BCF8D2F0E94FF060D
:10119000182FCE0199270E944207C12FD0E0DC2FE3
:1011A000CC27CC27DF71C82BD92B8ACFCE0199272A
:1011B0000E944207CC27DF70C82BD92BD06A80CF82
:1011C000CF71D0E0DC2FCC27C16FD06A79CF2C2F24
:1011D00026952695277080E2289F900111248C2F58
:1011E0008370C1E0D0E002C0CC0FDD1F8A95E2F72A
:1011F000C22BD32BDC6864CF8C2F8F710E94FF062B
:10120000C82FD0E0DC2FCC27CC27DF7159CF8C2F13
:101210008F710E94FF0655E0D695C7955A95E1F764
:10122000CF70D0E0DC2FCC27282F30E084FF05C022
:1012300044E0220F331F4A95E1F7C22BD32BD0692C
:101240003FCF8D2F8F710E94FF06182FCE01992757
:101250000E944207C12FD0E0DC2FCC27CC27DF71C2
:10126000C82BD92BD0622CCF0E944705089520911E
:101270001A029091E90156E0291302C080E0089516
:1012800030E0529FF001539FF00D1124E651FE4FC4
:101290007181761306C07081781303C07281741354
:1012A00004C02F5F3F4F2770E7CF81E00895809102
:1012B0001A029091E901981301C008958F5F877019
:1012C000FACFB0E0A0E0E7E6F9E00C944A247C0114
:1012D0000091B1021091B2028091AF029091B002E0
:1012E000082B192BCFE0D0E0CC24C394D12CBC2EFA
:1012F000C6010C2E02C0880F991F0A94E2F78023C2
:101300009123892B49F4219790F7B12C8B2DCDB7E0
:10131000DEB7E9E00C946624B7018C2F0E94E40745
:101320000E941D08019779F3F1CFCF93DF93EC0171
:101330000E946109BE010E94E4070E941D08DF911E
:10134000CF910895A82FA77023E0969587952A95A9
:10135000E1F7880F991F880F991FFB01E80FF91F0C
:1013600050E040E080E0219130E00A2E02C0369546
:1013700027950A94E2F721703327042E01C0220F2B
:101380000A94EAF7822B4F5F5F4F4430510559F7BB
:101390000895292F9C3068F4873090F490E067EB33
:1013A00071E037E0239F800D911D11240E94A20956
:1013B00008952C5F223020F463EB71E090E0F6CFCB
:1013C00080E00895262F277091E001C0990F2A959B
:1013D000EAF723E0769567952A95E1F7660F771F80
:1013E000660F771FFA01E60FF71F50E040E0682F05
:1013F00070E08191DF0111979B01042E02C03695A8
:1014000027950A94E2F72170219528272923282778
:101410002C934F5F5F4F4430510559F70895282FA3
:10142000862F9C3070F4273058F4622F70E027E04C
:10143000929F600D711D112447EB51E00E94E2095B
:1014400008959C5F9230E0F7622F70E043EB51E02B
:10145000F5CF9093B2028093B102089521E030E07D
:1014600002C0220F331F8A95E2F7209530958091B4
:10147000B1029091B202822393230E94290A089517
:1014800021E030E002C0220F331F8A95E2F78091FD
:10149000B1029091B202822B932B0E94290A0895E7
:1014A0009093B0028093AF020895FC0183819481F0
:1014B000892B29F08081918189238F3F51F480E02D
:1014C0000895843FE1F717C0883EA8F0813FB9F73F
:1014D00012C0808191810E94950992959F709630EB
:1014E00099F358F4925F9F70923048F7803F19F05B
:1014F00040F7883E20F781E008959A5FF4CF9B0182
:10150000BA0190913F039430E1F48093E9009FEF9A
:101510008091E800915085FD06C085ED8A95F1F730
:1015200000009111F5CF8091E80085FF0AC050E0DE
:1015300040E0C9010E9400048091E8008E7780930A
:10154000E800089543E050E0BC0182E00E947F0A79
:101550000895CF93DF93EC0148E050E0BC0181E0B7
:101560000E947F0A88E0FE01A5E3B3E001900D929E
:101570008A95E1F7DF91CF910895B0E0A0E0E3EC28
:10158000FAE00C9449247C015B016A0180915102CC
:1015900001E010E08A3010F40AE010E0C1E0D0E091
:1015A000B501C701F6010995811104C021960C17F8
:1015B0001D072CF4CDB7DEB7EAE00C946524CC9F70
:1015C0009001CD9F300D300D112490E080E045E377
:1015D0004A95F1F70000019682179307C1F7E0CF13
:1015E00080913102811119C088EC90E02091E300D4
:1015F00027FD10C0EFE3FCE93197F1F700C00000D0
:101600000197A1F782E0809331020E94B00310920B
:101610003F0303C081E08093310281E09091310269
:10162000913011F080E0089508950E94F00A882317
:1016300059F0E0912903F0912A03309729F00190A5
:10164000F081E02D0995089580E00895A4E0B0E0D0
:10165000ECE2FBE00C944F2440914D0250914E027D
:1016600060914F02709150022FB7F89480912E0331
:1016700090912F03A0913003B09131032FBF841BB1
:10168000950BA60BB70B11E084369105A105B105AA
:1016900090F10E94F00A882399F10E9447056E5F3D
:1016A0007F4F8F4F9F4F69837A838B839C83809179
:1016B000210190912201805C9D4F4091200150E0DA
:1016C0004530510510F044E050E0BE016F5F7F4FA0
:1016D0000E94F52484E090E00E94CB23182F8823F9
:1016E00051F00E94470560934D0270934E02809323
:1016F0004F0290935002812F2496E4E00C946B24C7
:101700000E94470500919A0210919B0220919C0231
:1017100030919D02600F711F821F931FC0CF4F92A7
:101720005F927F928F929F92AF92BF92CF92DF9201
:10173000EF92FF920F931F93CF93DF930F92CDB74A
:10174000DEB7C62E4A015901482E880F5508C2013E
:101750000E94CB23782E882309F480C0C20133E095
:10176000880F991F3A95E1F7FC01E050FF4F438144
:1017700050E04115510511F041E050E080509F4F7D
:10178000FC0164817581605C7D4FCE0101960E94F1
:10179000F524F40140815181628173812FB7F8945F
:1017A00080912E0390912F03A0913003B0913103CB
:1017B0002FBF841B950BA60BB70B84369105A10593
:1017C000B10540F4B701C8010E94C305998189178A
:1017D00009F444C00C2C000CDD08C6010E94CB2388
:1017E000782E811113C0712C872D0F90DF91CF912E
:1017F0001F910F91FF90EF90DF90CF90BF90AF902F
:101800009F908F907F905F904F900895C60123E046
:10181000880F991F2A95E1F7FC01E050FF4F4381A3
:1018200050E0E416F50608F4A70180509F4FFC0134
:1018300064817581605C7D4FC5010E94F524B7010C
:10184000C8010E94C30599818913CDCF0E94470525
:10185000F4016083718382839383C6CFA701B801AB
:10186000C5010E94F524C0CFA6E0B0E0EAE3FCE0A9
:101870000C944B246B0186E0E82EF12C01E412E07D
:101880009E012F5F3F4F48E352E061E080E00E94FD
:101890008F0B882349F096E0FE013196A2E3B2E077
:1018A00001900D929A95E1F796E0E2E3F2E0D6011D
:1018B00001900D929A95E1F72696E8E00C94672442
:1018C000A2E1B0E0E6E6FCE00C9446248E010F5F56
:1018D0001F4F8CE0D8011D928A95E9F789E7C82E41
:1018E00081E0D82EF12CE12CAA24A394B12C26E877
:1018F000822E21E0922EF60181916F018F3F09F433
:1019000042C0F894E82FE295EF70F0E021A18F70CB
:10191000A50102C0440F551F8A95E2F7CA01922F14
:10192000982B91A392A18095892382A3789400C0DB
:10193000EFE7F1E0712C31E021912F3F09F46BC00A
:10194000A22FA295AF70B0E090968C9190E02F708E
:1019500002C0959587952A95E2F780FD5CC0832F9C
:10196000782A330F8E169F0639F7F601319780815A
:101970008F3F11F00E94E80650EA5A95F1F7F801FE
:10198000EE0DFF1D70828FEFE81AF80A96E0E91657
:10199000F10409F0B0CF4CE050E0B80181EA92E0E8
:1019A0000E94E824009741F02CE0F801A1EAB2E09F
:1019B00001900D922A95E1F70091AE02892B69F111
:1019C00081E0809329020E9453059093280280931E
:1019D000270280912702909128020E9438050597DE
:1019E00000F110E002501D4F46E050E061EA72E065
:1019F000C8010E94E824C12C892B51F086E0E1EA5D
:101A0000F2E0D80101900D928A95E1F7CC24C394BD
:101A10001092290207C080E0A3CF80912902811192
:101A2000D8CFC12C0E94F00AD82EE091AE02DE0180
:101A30001D967D01882309F470C086E01D928A9569
:101A4000E9F70E2F10E002501D4F809151028A30AD
:101A500068F544E35CE0B701C8010E94BD0A882331
:101A600009F44AC045EB5BE1B701C8010E94BD0A19
:101A7000882309F441C046E25BE0B701C8010E9437
:101A8000BD0A8823C9F1109251028091AD0290E005
:101A900046E050E0B70182509D4F0E94E82421E0CB
:101AA00020933002892BB1F4D12C20C080912A02DE
:101AB00090912B020E943805843F914050F680910E
:101AC0003002882389F386E0F70111928A95E9F7BD
:101AD00010923002A091AD02B0E0A250BD4F86E05E
:101AE000FE013D9601900D928A95E1F78D2D8C298E
:101AF0006296EDE00C946224809151028F3F31F0A8
:101B00008F5F809351028A3008F4BFCF0E94530543
:101B100090932B0280932A02D2CFF0E0E250FD4F47
:101B200086E0A1E4B2E001900D928A95E1F766E0CB
:101B300070E081E492E00E94C305809340024091EE
:101B40001A0350E06091190370E0695E7C4FC70191
:101B50000E94F5248D858093480261E070E0C70102
:101B60000E94C305809347028090490290904A02E8
:101B7000A0904B02B0904C0280912C0290912D02CB
:101B8000A0912E02B0912F0288169906AA06BB06D4
:101B900009F48ACF80922C0290922D02A0922E02FC
:101BA000B0922F020E94F00AD82E81117DCF0E94A0
:101BB0004705861A970AA80AB90A80929A02909253
:101BC0009B02A0929C02B0929D0290CF8091240231
:101BD00090912302892B8093A80148E050E06BE1AB
:101BE00072E088EA91E00E94E824892BA9F088E05D
:101BF000E8EAF1E0ABE1B2E001900D928A95E1F7FD
:101C0000E0912903F0912A03309731F00280F381AB
:101C1000E02D88EA91E00995089510922402EAEAFD
:101C2000F1E086E0DF011D928A95E9F790E080E01F
:101C30000E949E0590E080E00E94790510922302A8
:101C40000E94E60D0895AAE2B0E0E9E2FEE00C94FD
:101C5000502481E493E02091F100FC012193CF0115
:101C6000F3E089349F07B9F780914203833009F488
:101C700070C0B8F4813009F447C0823009F4B1C0B3
:101C80008091E80083FF88C28091410390914203D4
:101C90009A3008F081C2E92FF0E0E050FB4D0C943F
:101CA000A0248A3009F48CC08B3009F46FC08930CD
:101CB00039F780914103813219F780914503909162
:101CC00046030297E8F68091E800877F8093E8005A
:101CD0008091E80082FF38C09091F3008091F2007B
:101CE000029731F48091F100813011F0863021F4B7
:101CF0008091F100809334038091E8008B7780938A
:101D0000E8000E942A04BCCF80914103813A09F087
:101D1000B7CF8091E800877F8093E80080914503EA
:101D200090914603892B61F468E085E393E070E0CD
:101D30000E94D6048091E8008B778093E800A0CFC2
:101D400060E090E080E0F3CF80913F038111C0CF4D
:101D500097CF80914103813A09F092CF809145035A
:101D600090914603892B09F08BCF8091E800877F03
:101D70008093E8008091E80080FFFCCF80913D01D6
:101D80008093F1008091E8008E77B9CF8091410374
:101D9000813209F075CF8091450390914603892BDC
:101DA00009F06ECF8091E800877F8093E8000E9461
:101DB0002A048091430380933D010E940D0E60CF61
:101DC00080914103813209F05BCF8091E800877FE9
:101DD0008093E8000E942A04809144038093330397
:101DE0004FCF80914103813A09F04ACF8091E800BA
:101DF000877F8093E8008091E80080FFFCCF80918E
:101E00003303BECF803899F0823809F0C5C1809184
:101E100045038F70873008F0BFC18093E90080913F
:101E2000EB0085FB882780F91092E90006C08091BD
:101E30003D0390913E03911182609091E800977F5D
:101E40009093E8008093F1001092F1008091E800F7
:101E50008E779EC1882309F48CC1823009F09CC121
:101E60008091430381118FC1809145038F702FEFC3
:101E7000280F263008F090C18093E9002091EB00F4
:101E800020FF81C1933031F48091EB008062809318
:101E9000EB0079C19091EB0090619093EB0021E011
:101EA00030E001C0220F8A95EAF72093EA001092F1
:101EB000EA008091EB008860EACF81116DC110913A
:101EC00043031F778091E3008078812B8093E300A8
:101ED0008091E800877F8093E8000E942A04809127
:101EE000E80080FFFCCF8091E30080688093E300EE
:101EF00082E0111183E080933F034EC1805882300D
:101F000008F04AC180914303909144038C3D23E043
:101F10009207A1F583E08A838AE289834FB7F89418
:101F2000DE01139620E03EE051E2E32FF0E0509313
:101F30005700E49120FF03C0E295EF703F5FEF7020
:101F40008E2F90E0EA30C0F0C7968D939D932F5F5F
:101F5000243159F74FBF8091E800877F8093E800D4
:101F60006AE270E0CE0101960E94D6048091E800FA
:101F70008B778093E80010C1C096E7CF409145036E
:101F800050914603292F33272330310509F444C0EB
:101F900078F52130310509F46FC08FE990E0E4E273
:101FA000F4E02230310509F0F7C02091E800277FE6
:101FB0002093E8002091470330914803821793074C
:101FC00008F49C0140E02115310509F064C041117D
:101FD00062C08091E80082FDC9CF80913F038823D1
:101FE00029F2853019F28091E80083FFF2CFBECF4D
:101FF00021323105A9F12232310509F0CDC0411558
:10200000510509F443C04130510509F0C5C082E3D0
:1020100090E0E2EBF3E0C9CF992781309105C1F060
:10202000009759F0029709F0B7C0E5EDF4E0E491AC
:102030008E2F90E0E5EDF4E007C0E3E0F5E0E491F9
:102040008E2F90E0E3E0F5E0009709F4A5C0ADCF56
:10205000E3EFF4E0E4918E2F90E0E3EFF4E0F4CFCF
:102060004115510571F04130510509F095C089E0E5
:1020700090E0EFE4F4E099CF82E190E0E3ECF4E06B
:1020800094CF89E090E0E6E3F4E08FCF80E490E045
:10209000E4EEF3E08ACF80913F03882309F466CF12
:1020A000853009F463CF8091E80083FD5FCF809194
:1020B000E80082FD8ECF8091E80080FF84CF909170
:1020C000F3008091F2002115310519F08830910557
:1020D00050F041E0089709F040E08091E8008E77E9
:1020E0008093E80070CF44914093F10031962150E5
:1020F00031090196E8CF803809F04EC08091E800A0
:10210000877F8093E800809140038093F1009ECE0A
:10211000811142C0109143031230F0F58091E80024
:10212000877F8093E800109340030E942A041123C4
:1021300011F084E005C08091E30087FDFACF81E0D3
:1021400080933F0342E061EC81E00E94490442E257
:1021500061EC82E00E94490442E361E883E00E946E
:10216000490442E360E884E00E94490480913F030F
:1021700013C080914303813079F481E0933009F0FA
:1021800080E080933E031092E9008091E800877F11
:102190008093E8000E942A048091E80083FF0AC02F
:1021A0008091E800877F8093E8008091EB00806257
:1021B0008093EB00AA96E3E00C946C240E940D0E31
:1021C0002FEF84E39CE0215080409040E1F700C075
:1021D000000088E19AE00FB6F894A895809360001B
:1021E0000FBE90936000FFCF882341F080959091BF
:1021F00024028923809324020E94E60D08958823F7
:1022000039F090912402982B909324020E94E60DBD
:1022100008958823C1F19CEF980F913A78F4EAEA87
:10222000F1E09191891303C0DF0111971C9241E005
:10223000E03BF407B1F70E94E60D089590E2980F95
:10224000983088F4877021E030E0A90102C0440F83
:10225000551F8A95E2F7CA0180959091240289233F
:1022600080932402E8CF9BE5980F933028F490E008
:1022700080E00E949E050895885A8B3120F490E0FA
:1022800080E00E9479050895CF93C82F8823B1F08C
:102290008CEF8C0F813A00F5EAEAF1E080EB91E0F7
:1022A000DF012D91C21761F08A179B07D1F76C2FC0
:1022B00088EA91E00E945F050E94E60DCF910895A3
:1022C0002191C21303C0DF0111971C928E179F0743
:1022D000B9F70E94E60DEBCF80E28C0F883068F4EE
:1022E000C77021E030E001C0220FCA95EAF7809163
:1022F0002402822B80932402DFCFEBE5EC0FE33046
:1023000040F4F0E0E25CFE4F808190E00E949E0588
:10231000D5CFC85ACB3190F6EC2FF0E0EE0FFF1F6F
:10232000EF5BFE4F808191810E947905C7CF1F939B
:10233000CF93DF93182FCAE0D0E0893311F4C0E5C2
:10234000D0E0812F0E9444118FE99FE00197F1F7BF
:1023500000C000002197C1F7812F0E940911DF9171
:10236000CF911F9108950F931F93CF93DF93C62FA3
:10237000D42F022FFC0182818823A9F060933804B6
:102380000E9453059093370480933604C77081E010
:1023900001C0880FCA95EAF70E94FF10DF91CF9124
:1023A0001F910F91089580913804681332C0809175
:1023B0003604909137040E943805883C910548F511
:1023C00010E21D0FCD17B9F080E28C0F883040F479
:1023D000C77081E001C0880FCA95EAF70E94F41027
:1023E000183048F481E09D2F977001C0880F9A95AE
:1023F000EAF70E94FF10802F0E949711183070F6A4
:10240000D77081E001C0880FDA95EAF70E94F410D6
:10241000C5CFC77081E001C0880FCA95EAF7F6CF33
:10242000A5E0B0E0E6E1F2E10C9443246C01FC018C
:1024300083819481892B31F08081918189238F3F21
:1024400009F098C62596E0E10C945F240E9461098A
:10245000182F682F89819A810E940F0A69817A81D9
:10246000812F0E94E4077C018134FEE79F0709F475
:102470001CC1C8F580349E4709F46CC0F3E8EF1620
:10248000F1E7FF0608F0CAC123E7E21621E7F206EA
:1024900008F004C334E6E31631E7F30608F062C13E
:1024A00047E5E41641E7F40608F0A8C255E5E5164D
:1024B00051E7F50608F03CC18BE4E81681E7F80621
:1024C00008F079C293E0E91691E7F90608F02AC20C
:1024D000F701E851FC47E730F10508F0F4C0E65F8A
:1024E000FA4D0C94A0248B389E4740F64091B001E1
:1024F000009121030F778EEB8E0D90E09C012B5401
:102500003D4F5901F9012081F6018281882309F4A8
:10251000FDC02F3F09F0B2CF10912003812F8F70A3
:1025200015951595159515951254FCE08F9F100D76
:1025300011241E0D212F2F774F704069E091490320
:10254000F0914A0363E070E089E493E00995F501B6
:10255000108394CFF6018281882309F4B4C00CE57E
:1025600011E09AE0492EF8012491222309F4ABC02E
:10257000213009F043C031968491813039F40E5FE7
:102580001F4FF80184910E94971108C0823049F4CE
:102590000E5F1F4FF80184910E9444110F5F1F4F7F
:1025A000E2CF833039F40E5F1F4FF80184910E940F
:1025B0000911F4CF843009F076C00E5F1F4FF80187
:1025C000249190E080E0F80131962053330B2A30BB
:1025D000310548F0019710F3EFE9FFE03197F1F78B
:1025E00000C00000F7CF489EA001499E500D112465
:1025F000C901840F951F24918F01E5CFE22FF0E0F0
:10260000E452FF4F5490822F86958695869590E0F0
:10261000FC01E453FF4F64902770712C022E02C01E
:10262000759467940A94E2F731E063227724FC0101
:10263000E454FF4F8490912C022E02C0959487940D
:102640000A94E2F741E084229924FC01E455FF4F0B
:10265000A490B12C02C0B594A7942A95E2F751E05A
:10266000A522BB246114710419F081EE0E9444116B
:102670008114910419F086EE0E944411852D0E9468
:1026800097118114910419F086EE0E9409116114CA
:10269000710419F081EE0E940911A114B10409F42A
:1026A0007DCF8CE270CF8F0179CFF60182818823B4
:1026B00051F08091B10191E089278093B101882385
:1026C00011F19093B001F6018281882309F47AC553
:1026D00010923804970130572332310508F05BC55A
:1026E00084E090E00E94AE249093B4028093B30201
:1026F000F701E150F047E232F10508F0B9C2EF5EB0
:10270000FA4D0C94A0241092B001DDCF2F3F61F060
:102710002F774F704068E0914903F0914A0363E0DE
:1027200070E089E493E009958FEFF5018083A6CEF0
:10273000E5E5EE16E1E7FE0609F44EC1F6E5EF1613
:10274000F1E7FF0609F0C4CEF6018281882309F47F
:1027500079CE80912003982F9F70993008F072CE27
:102760009F5F46C121E7E216F206D0F536E6E31692
:1027700031E7F30608F064C144E6E41641E7F406E5
:1027800009F44AC155E6E51651E7F50609F0A0CE71
:10279000F6018281882309F455CE20912003822FEF
:1027A000859585958595859586300CF04BCE91E085
:1027B000980F9295907F9595959595959595392F2C
:1027C0003295307F2F70232B2093200318160CF0A6
:1027D00039CE97FF37CE8295807F922F9F700AC1A6
:1027E00081E7E816F80609F43FC192E7E91691E798
:1027F000F90609F06DCEF6018281882309F422CE14
:1028000080912103982F9F779F3709F41BCE933730
:1028100008F042C1935F9F7780783CC1E9E8EE16EB
:10282000E1E7FE0609F497C108F03EC025E8E2168C
:1028300021E7F20609F467C1F8F443E8E41641E73A
:10284000F40609F441C154E8E51651E7F50609F02C
:102850003FCEF6018281882309F4F4CD2091210333
:10286000322F331F3327331F90912203892F877014
:10287000880F832B8F5F3AC1F6012281809121035B
:1028800090912203F7E8EF16F1E7FF0609F44FC134
:1028900008F057C140E021114FE7881F8827881FA3
:1028A0009770990F60E43FC14CE8E41641E7F406E5
:1028B00009F473C1A0F48AE8E81681E7F80609F480
:1028C0005AC19BE8E91691E7F90609F001CEF60135
:1028D0008281811160C18FEF80931F03B3CDEEE839
:1028E000EE16E1E7FE0609F491C108F478C12FE87D
:1028F000E21621E7F20609F0EBCD80912103982F33
:10290000991F9927991F809122038770880F892B1F
:10291000F60192816FEF7FE1992309F488C10E944B
:10292000A30290CD00912103802F881F8827881F44
:10293000409122034770440F482B0F778DEF8E0D87
:1029400090E0FC01EE5AFD4F5F012081F60182818B
:10295000882301F12F3F09F075CD80912003E82FE6
:10296000E595E595E595E595E3508F70FCE08F9F43
:10297000E00D1124EE0E2E2D2F774069E0914903D2
:10298000F0914A0363E070E089E493E00995F50172
:10299000E08258CD2F3F59F02F774068E0914903EE
:1029A000F0914A0363E070E089E493E009958FEFCA
:1029B000F501808347CDF6018281882309F442CD59
:1029C000F5EBEF0E2E2D2F70E22E80912003807FED
:1029D000E82AE092200336CDF6018281882309F4AB
:1029E00031CD80912003982F9F7009F42BCD915FFA
:1029F0009F70807F892B8093200324CDF6018281F4
:102A0000882309F41FCDF3EAEF0EE29480EFE82269
:102A1000809120038F70DCCFF6018281882309F436
:102A200011CD80912003982F959595959595959525
:102A30009B3F0CF407CD915F9295907F8F70DACF1A
:102A4000F6018281882309F4FDCCFAE9EF0E8CE0CF
:102A5000E89EE02C1124E894E7F880912103807827
:102A6000E82AE0922103EECCF6018281882309F462
:102A7000E9CC80912103982F9F7709F4E3CC8078EB
:102A80009F3721F4856780932103DCCC9D30D8F3F8
:102A90009D509F77892BF7CF8F67F5CFF601828105
:102AA000882309F4CFCCEDE8EE0D80912103E0FB03
:102AB00087F980932103E695E77080912203887F50
:102AC000E82BE0932203BECCF6018281882309F42F
:102AD000B9CC20912103322F331F3327331F90911C
:102AE0002203892F8770880F832B815F382F3F70D7
:102AF00080FB27F920932103832F8695987F982BBD
:102B0000909322039FCCF6018281882309F49ACC0A
:102B100090912103991F9927991F80912203877013
:102B2000880F40E06BE7892B0E94BC028BCC40E011
:102B300021114FE7881F8827881F9770990F61E43C
:102B4000F2CF40E021114FE7881F8827881F977038
:102B5000990F62E4E8CFF601828140E081114FE7EE
:102B600090912103991F9927991F809122038770C3
:102B7000880F63E4D8CFF601828140E081114FE7EE
:102B800090912103991F9927991F809122038770A3
:102B9000880F64E4C8CF81E09FCEF601828188234C
:102BA00009F450CC90912203292F2695269526953D
:102BB0002F7081E0820F8F70880F880F880F9778B1
:102BC000892B80932203982F987709F03BCC220F12
:102BD000220F220F8778822B8093220333CCF601B9
:102BE0008281882309F42ECC80912203982F987734
:102BF00009F428CC982F969596959695915F9F709D
:102C0000990F990F990F8778892BE6CF809121032F
:102C1000982F991F9927991F809122038770880FF9
:102C2000892BF601928160E070EE911178CE70E010
:102C300060E075CE26E241EE61EEC6010E94B3115E
:102C400001CC27E245EE65EEF8CF26E241EE60EEDC
:102C5000F4CF27E245EE64EEF0CF26E241EE62EEDD
:102C6000ECCF27E245EE66EEE8CF28E241E0EBCF7D
:102C70008091B30281608093B30295C08091B402C9
:102C800088608093B4028FC08091B3028260F3CFDA
:102C90008091B3028460EFCF8091B3028860EBCF64
:102CA0008091B4028160EDCF8091B4028260E9CF5F
:102CB0008091B3028061DFCF8091B3028062DBCF6D
:102CC0008091B3028064D7CF0E940D0E8091B30231
:102CD0008068D1CF8091B3028C60CDCF8091B40257
:102CE0008360CFCF8091B3028E7FC5CF8091B40235
:102CF000877FC7CF8091B3028D7FBDCF8091B30214
:102D00008B7FB9CF8091B302877FB5CF8091B4021A
:102D10008E7FB7CF8091B4028D7FB3CF8091B30205
:102D20008F7EA9CF8091B3028F7DA5CF8091B30212
:102D30008F7BA1CF0E940D0E8091B3028F779BCF26
:102D40008091B302837F97CF8091B4028C7F99CF1B
:102D50008091B30282FB992790F921E0922790FBA2
:102D600082F990FB83F987CF8091B402982F9095D8
:102D700091708E7F892B90FB81F983CF9091B30264
:102D8000892F8F7B96FF806476CF0E940D0E9091E5
:102D9000B302892F97FB87F980586DCF61E08EE0F1
:102DA00090E00E94B4246091B3027091B40284E078
:102DB00090E00E94D2240E940D0E44CB60E0EFCF41
:102DC0009091B302892F8F7E94FF806154CF9091B0
:102DD000B302892F8E7F90FF81604DCF9091B40216
:102DE000892F877F93FF88604CCF85E3F6C16FEF13
:102DF0007FEF90E080E00E94D2240E94DE10F60176
:102E000000811181882311F1C8010E946109F82E07
:102E1000682FC8010E940F0AB8018F2D0E94E40795
:102E20000E941D08182FB82EF60122814581342FEB
:102E300032953F70892F82958F70E82EF12C8C305F
:102E4000E8F5F701ED5CFA4D0C94A024C8010E944E
:102E5000C909F82EE1CF092F0F70907F11F002956C
:102E6000007F812F2223C9F0002369F090E2910FA7
:102E7000983010F011110BC080912402082B0093A0
:102E800024020E94E60D812F0E94441117C08091F8
:102E90002302082B00932302F4CF0E940911002380
:102EA00069F00095105E183010F0B11021C08091CB
:102EB00024020823009324020E94E60D98E0E91AF8
:102EC000F108E4E0EE16F10410F40E94150B85E021
:102ED000F601DE01119601900D928A95E1F70981C4
:102EE0001A81C8010E94C909B8010E94E407AACA50
:102EF00080912302082300932302DECF892F8F7055
:102F0000907F903211F08295807FF1E0BF120CC06B
:102F1000222329F0363090F60E94FF10CFCF3530B3
:102F200068F60E94F410CACF222341F03323A1F3A4
:102F300040FFA9CF4F70F6014583EECF332389F3CD
:102F4000193309F00FC1FFEF27EE33E0F1502040B5
:102F50003040E1F700C00000812F0E940911AECF80
:102F6000892F86958695837061F0813009F0A6CF10
:102F7000812F9370211102C080E090E00E947905BA
:102F80009DCF812F9370211102C080E090E00E94BC
:102F90009E0594CF892F837009F042C021118ECFF6
:102FA000812F829586958770880F880F212F2F702B
:102FB00030E0082E02C0220F331F0A94E2F750E0DF
:102FC00040E014FF09C04FE050E002C0440F551F1D
:102FD0008A95E2F740955095969596959370923024
:102FE000A9F080F46091AF027091B002913041F08D
:102FF000C901842B952B862397230E94500A5ECF0C
:10300000262B372BC901842B952BF7CFC901842B95
:10301000952B2091AF023091B00282279327EDCFFC
:103020008695222311F0892F8170882309F446CFD9
:10303000812F829586958770880F880F212F2F709A
:1030400030E0082E02C0220F331F0A94E2F750E04E
:1030500040E014FF09C04FE050E002C0440F551F8C
:103060008A95E2F740955095969596959370923093
:10307000A9F080F46091B1027091B202913041F0F8
:10308000C901842B952B862397230E94290A16CFEA
:10309000262B372BC901842B952BF7CFC901842B05
:1030A000952B2091B1023091B20282279327EDCF68
:1030B000092F0F70222329F0802F0E94400A812FB0
:1030C0002BCF812F0E94F410802F0E942E0AF6CE63
:1030D000812FE1EF1E1791F1E11750F0F0EF1F176C
:1030E000D1F02223D1F13111CECE892F8F712AC098
:1030F00042EF141751F153EF1513F3CF222351F17F
:103100009F7121E030E0F90102C0EE0FFF1F9A9598
:10311000E2F7CF01BACF222369F0353008F0CECEE6
:10312000292F2F7181E090E002C0880F991F2A9506
:10313000E2F7B7CF363008F0C1CEF2CF892F8F71CA
:10314000222319F20E94400AB9CE892F8F712223BF
:10315000C9F3BBCF90E080E098CF332341F08933AF
:1031600009F4F1CE8FE39CE90197F1F7F3CE892FB3
:103170008F71ABCF85E0DE01119601900D928A959B
:10318000E1F7F601228189819A8121115FC90E94AC
:10319000C909182F63C9F6E1EF16FCE7FF0651F5E0
:1031A000809124028A7A91E009F490E09093B20130
:1031B00069E2811165E388EA91E00E945F050E945F
:1031C000E60D40C926E1E2162CE7F20609F017CE1B
:1031D0008091B201811109CE89E2EAEAF1E0919190
:1031E000891303C0DF0111971C9221E0E03BF20735
:1031F000B1F7E5CF31E0E3163CE7F30609F4FDCD86
:1032000043E0E4164CE7F40609F4F1CDE1145CE781
:10321000F50609F0F4CD0E940D0E3FEF44E35CE0AB
:10322000315040405040E1F700C0000087E797E789
:10323000909301088093000888E19AE00FB6F89413
:10324000A895809360000FBE90936000FFCF1F93FE
:10325000CF93DF938091E801807F09F04BC080918C
:10326000E501882309F446C080911A02C091E90162
:103270004091E3015091E4016091E6017091E70112
:10328000D42FD52316E0C817A9F190E06115710578
:10329000A9F1DF3F99F1189FF001199FF00D11245A
:1032A000DF01A651BE4F11962C911197251326C010
:1032B0002C91241323C012962C91129721111EC019
:1032C00013962D913C91261B370B283C3105B0F409
:1032D0008091E8018F7080618093E801E151FE4F99
:1032E00080818F708061808383EE91E00E94101254
:1032F0000E945709DF91CF911F9108950196877021
:10330000C2CFA1E1B0E0E7E8F9E10C9447248C01D9
:1033100085E0F801DE011D9601900D928A95E1F796
:10332000F801E28083EE882E81E0982E4091E6013C
:103330005091E7014115510509F430C19091E30125
:103340002091E401892F82238F3F09F427C1D08087
:10335000C180A380B480F090E501B501641B750BBA
:10336000FF2009F4E7C08091E801382F307F683CE6
:10337000710508F0ABC0311178C0FE2C2C1114C0BF
:103380009D1112C0E11010C08F7080618093E80120
:10339000C4010E9410128091E801F80185838F2DED
:1033A0006196ECE00C946324A114B104C9F18D2D55
:1033B0008C218F3FA9F181E08E2580FF05C04E2D25
:1033C0006C2D8D2D0E943709A114B10459F18D2D5A
:1033D0008C218F3F39F181E08E25F82FF170BF2EBF
:1033E00080FF39C04E2D6C2D8D2D0E943709A82EDF
:1033F000811131C0DD86CE868D859E850E9495091E
:10340000292F22952F70243078F49F702230A8F055
:103410009923B9F0F8019581907F99F4FA2CBFCFE8
:1034200080E0CBCF80E0D9CF2A5F2F70223068F0C8
:10343000C8010E941012AB2CF1CF992311F0882300
:1034400069F3805E883050F3F3CF803F38F3815FBB
:10345000833070F7E3CFEE2009F4A1CF8091E8012B
:1034600081608093E801F12C9ACF2C1105C09D1149
:1034700003C0EE2009F477C0C8010E94550A8823D2
:1034800009F1EE20F9F08091E801803270F020918E
:10349000E3013091E40138872F831986BB86AA8621
:1034A0008C87CE0107960E94101286E0F801A3EEE9
:1034B000B1E001900D928A95E1F70E942719FF244F
:1034C000F3946DCFC8010E941012F9CF31110AC0D8
:1034D00083EE91E00E94101286E0F40111928A9529
:1034E000E9F7C1CF2C110EC09D110CC0E1100AC02C
:1034F0008583C8010E94101286E0F40111928A951A
:10350000E9F74DCFC8010E94550A8823D9F2EE2071
:10351000C9F28091E801803240F22091E3013091BC
:10352000E4013A8329831B82BD82AC828E83CE0163
:103530000196B9CF683C7105F8F6FE2CEE2011F229
:103540002C111EC09D111CC08091E80180FD0FC090
:10355000982F907F61F08583903F31F0982F907F76
:10356000905F8F70892B8583C8010E94101286E0BE
:10357000F801A3EEB1E001900D928A95E1F70FCF2B
:10358000C8010E94550A811190CF8091E8018160A5
:103590008093E801C8010E94101201CFEE2009F4C7
:1035A00091CFC8010E94550AF82E882309F48ACFCA
:1035B00086E0F801A3EEB1E001900D928A95E1F763
:1035C0008091E3019091E4010E9495090E942719DE
:1035D000E6CEA7E1B0E0EFEEFAE10C9450244B8B7D
:1035E0005C8B6D8B7E8B8F8B6111109223021A8AFC
:1035F000198A85E0FE017396DE011D9601900D92F9
:103600008A95E1F786E0FE013D96DE01179601906E
:103610000D928A95E1F7CE0107960E9481198823C1
:1036200059F016E080911A029091E901891343C084
:103630006796E3E00C946C2486E0FE013796DE0189
:10364000119601900D928A95E1F78A859B85892BC9
:1036500041F38F81988589238F3F19F32091E901E8
:1036600030E0C90101968770992740911A024817E6
:10367000190671F40E940D0E1092E90110921A02BF
:1036800086E0E3EEF1E0DF011D928A95E9F7C9CF0C
:1036900096E0929FD001939FB00D1124A651BE4F8A
:1036A000FE01319601900D929A95E1F78093E90120
:1036B0000E945709B6CF819FC001112486519E4FA9
:1036C0000E948119882309F4B3CF80911A0290E0F7
:1036D00001968770992780931A02A4CFAAE0B0E0E0
:1036E000E4E7FBE10C944F24182F062F662399F191
:1036F0000E9453051E832DEF2F8321E028878160D0
:103700009A8789874E815F81688579858A850E943D
:10371000E91A8FE39CE90197F1F700C0000000234C
:10372000F9F00E94530519832DEF2A831B828160D3
:103730009D838C8349815A816B817C818D810E941C
:10374000E91A8FE39CE90197F1F700C000002A967F
:10375000E4E00C946B240E9453051E832CEFCCCF25
:103760000E94530519832CEFE0CFA1E0B0E0EBEB12
:10377000FBE10C944A24EE24E394F12C08E412E0DB
:103780009E012F5F3F4F4CE352E063E082E00E94D6
:103790008F0BC82E882339F100E080E01DC0D09047
:1037A000A002D00E2D2D30E0A901495E5C4F7A01B8
:1037B000E1E0F0E0EC0FFD1FE00FF11D1081FA01D8
:1037C0009081191BB12E1B149CF0912F17FD90E0D6
:1037D000191B111118C00F5F90919F020917F8F281
:1037E00081110E9434098C2D2196E9E00C94662405
:1037F000BA94F70180818F5F808360E08D2D0E94F5
:103800006E1B8C2DE0CF1F5FF7018081815080837C
:1038100061E08D2D0E946E1B8C2DDBCFA5E0B0E00A
:10382000E4E1FCE10C944F240E9453058C0180914B
:1038300025029091260280179107A1F08FEF8983CE
:103840008A831B820E9453058160782F9D838C831D
:1038500049815A816B818D810E94E91A1093260259
:10386000009325022596E4E00C946B241F920F929E
:103870000FB60F9211242F933F934F935F936F9343
:103880007F938F939F93AF93BF93CF93DF93EF93E8
:10389000FF93D091E900DF708091EC00C82FC170D8
:1038A00080FDC0E81092E9008091F000877F80934E
:1038B000F00078940E94230E1092E9008091F000AD
:1038C00088608093F000CD2BCF70C093E900FF910A
:1038D000EF91DF91CF91BF91AF919F918F917F91A8
:1038E0006F915F914F913F912F910F900FBE0F906D
:1038F0001F9018951F920F920FB60F9211242F93BD
:103900003F934F935F936F937F938F939F93AF9367
:10391000BF93EF93FF938091E10082FF09C08091F4
:10392000E20082FF05C08091E1008B7F8093E1007F
:103930008091DA0080FF24C08091D80080FF20C0F1
:103940008091DA008E7F8093DA008091D90080FF29
:103950009DC080E189BD82E189BD09B400FEFDCF33
:1039600081E080933F0380913203811109C00E945E
:10397000B0030E947B048091E20084608093E200A7
:103980008091E10080FF17C08091E20080FF13C0AA
:103990008091E2008E7F8093E2008091E20080615E
:1039A0008093E2008091D80080628093D80019BC97
:1039B00085E080933F038091E10084FF2BC08091DC
:1039C000E20084FF27C080E189BD82E189BD89B51D
:1039D000982F917080FFFBCF8091D8008F7D8093CE
:1039E000D8008091E1008F7E8093E1008091E20019
:1039F0008F7E8093E2008091E20081608093E200FC
:103A000080914003882309F447C084E080933F03FA
:103A100080913F038091E10083FF27C08091E20005
:103A200083FF23C08091E100877F8093E10082E0E3
:103A300080933F03109240038091E1008E7F80933A
:103A4000E1008091E2008E7F8093E2008091E200AD
:103A500080618093E20042E060E080E00E944904DF
:103A60008091F00088608093F000FF91EF91BF910A
:103A7000AF919F918F917F916F915F914F913F9106
:103A80002F910F900FBE0F901F90189519BC109298
:103A90003F031092320374CF8091E30087FD93E0DF
:103AA00090933F03B5CF78941F921FB61F921124B5
:103AB0008F939F93AF93BF9380912E0390912F0389
:103AC000A0913003B09131030196A11DB11D8093E7
:103AD0002E0390932F03A0933003B0933103BF9133
:103AE000AF919F918F911F901FBE1F9018951F92AD
:103AF0001FB61F9211248F939F93AF93BF93809112
:103B00002D03811113C080912E0390912F03A0915A
:103B10003003B09131034196A11DB11D80932E0356
:103B200090932F03A0933003B0933103BF91AF91D3
:103B30009F918F911F901FBE1F90189500D000D0AD
:103B40000F92CDB7DEB785B7806885BF85B780682F
:103B500085BF84E0809320038FE7809321038091C9
:103B600022038078806480932203E2E5F2E08AE910
:103B700092E02FEF21938E179F07E1F710921E031B
:103B800010921F03109225031092240310926E03CB
:103B90001092700310926F0380EC8093330481E7DE
:103BA00093E0909335048093340410923204109281
:103BB000310410924E0310924D0310925003109254
:103BC0004F0310925203109251031092540310921B
:103BD00053031092560310925503109258031092FB
:103BE000570310925A031092590310925C031092DB
:103BF0005B0310925E0310925D03109260031092BB
:103C00005F0310926203109261031092640310929A
:103C10006303109268031092670387E996E090931C
:103C20004A03809349038EEF95E090936A03809353
:103C300069038AED95E0909366038093650389EDAF
:103C400095E090934C0380934B0384B7877F84BFA8
:103C50000FB6F894A8958091600088618093600009
:103C6000109260000FBE80E890E00FB6F894809349
:103C70006100909361000FBE86EE96E09093A701DD
:103C80008093A6010E94B0030E947B048091E20011
:103C900084608093E200789480913F038823A1F0B0
:103CA0001091E9001F709091EC00892F817090FDB8
:103CB00080E8182B1092E9008091E80083FD0E94B3
:103CC000230E1F701093E90082E084BD93E095BD40
:103CD0009AEF97BD80936E0010929A0210929B0209
:103CE00010929C0210929D0290919E02911108C028
:103CF0000E94F00A92E0811101C091E090939E022F
:103D000081E0913009F080E0809328010E94F00A60
:103D100081110E94DF2280912801109219031092D4
:103D2000A0023091280181E0382730931A03809156
:103D3000280180939F028091280181114EC1311189
:103D400046C18FE891E00197F1F700C000001091A3
:103D50001A036BE173E0EDE1EE2EE3E0FE2E4CE1A1
:103D600053E0FB018E2F861B811708F474C18091EC
:103D700028018091280196E0811190E09093AE0295
:103D800086E0891B8093AD0209E711E0F80181917B
:103D90008F018F3F11F00E94E806F1E00F371F07F7
:103DA000A9F70FE711E066E8E62E61E0F62ED801EC
:103DB0008D918D018F3F11F00E94E806E016F1060B
:103DC000B1F78CE0EEEFF2E0DF01282F1D922A958B
:103DD000E9F7E1EAF2E0DF011D928A95E9F790E068
:103DE00080E00E94AE24873E9E4F09F45EC067EEDD
:103DF0007EEF90E080E00E94D22460E082E090E0DC
:103E00000E94B42460E083E090E00E94B424109209
:103E1000B0021092AF0260E074E184E090E00E9492
:103E2000D22460E086E090E00E94B4246FEF87E047
:103E300090E00E94B42440E050E0BA0188E090E0B5
:103E40000E94C62460E08DE090E00E94B42440E02F
:103E500050E0BA0188E190E00E94C62460E087E16A
:103E600090E00E94B42440E050E0BA018CE190E080
:103E70000E94C62470E060E080E290E00E94D224BC
:103E800040E050E0BA0188E190E00E94C62440E0A2
:103E900050E0BA018FE090E00E94C62440E050E07C
:103EA000BA0183E190E00E94C62482E090E00E9483
:103EB000A62480930A0384E090E00E94AE249093AD
:103EC000B4028093B30283E090E00E94A62490E0C5
:103ED0000E94500A0E94F00A811102C00E94E22250
:103EE000E5EBF2E08FEF819322E0EE3FF207D9F7A6
:103EF00080912003807F8260809320038091210342
:103F0000807885678093210389E291E090932A036A
:103F10008093290338E1432E512C4AE0642E43E07C
:103F2000742E54E0852E912C80913F0300E112E124
:103F3000853009F4EDC00E94600C0BE013E02EEF19
:103F4000E22E22E0F22E27E133E0D701F801919131
:103F50008D912E173F0709F4E5C09817C1F30E9411
:103F6000F00A282ED12CD701CD907D01F801319097
:103F70008F013C1429F13C24B12CAA24A394832D55
:103F80008A21B1F02220A1F0B982DA8291E08C2D51
:103F90008A2109F490E09B830E9453058160782F69
:103FA0009D838C8349815A816B818D810E94E91A9E
:103FB000B394AA0CF7E0BF12E2CFF8013197C082A8
:103FC000D3942CE0D212CFCF0E944705AFC085EF2B
:103FD00080931D0384EF80931C0320911D03E22F27
:103FE000E295EF70F0E0BF016F5D7F4F2F7081E0D1
:103FF00090E0AC0101C0440F2A95EAF7542F242F1A
:1040000020957F0142E2E40EF11C40911C03A42F95
:10401000A295AF70B0E08D010F5D1F4F4F7001C0D2
:10402000880F4A95EAF7482F8095929690E010C045
:10403000FB01908192239083F7019081952B9083CF
:10404000F8019081982390839C91942B9C9391E00C
:10405000931770F376CED7012D917D01822F829533
:104060008F7090E0DC0190968C9190E02F7002C0F0
:10407000959587952A95E2F78170DA019D91AD01BA
:10408000292F22952F7030E0D90190962C9130E0A5
:104090009F7002C0359527959A95E2F790E020FD34
:1040A00092E0892B81935ECE80913F03843011F1A1
:1040B00010922D0340E40FB6F894A895409260004A
:1040C0000FBE4093600083B7817F846083BF83B756
:1040D000816083BF7894889583B78E7F83BF0FB646
:1040E000F894A89580916000886180936000109298
:1040F00060000FBE80913E03882351F00E94600C47
:10410000EEEFF2E081918111EAC16E167F06D1F7E0
:1041100080913F03853009F4C7CF0E940D0E0E94A5
:10412000150B09CF98131BCF0E940E1C0E94F00A9A
:10413000E12CD12C80911A03E81608F48EC0D1101E
:104140000E943409E0916903F0916A03309719F0F5
:1041500089E493E009959FB7F89400913204809127
:104160003104081708F4F8C0081B9FBFF12CE12C9C
:1041700010E083E0A82EB12CCC24C394D12CE016FF
:10418000F10608F4EDC080912403909125030E946C
:104190003805209122032695269526952F702817FD
:1041A000190609F060F50E9453059093250380934A
:1041B000240380911F03882311F190912103991FFB
:1041C0009927991F809122038770880F40911E03C1
:1041D00061E0892B0E94BC0280911F0390911E0315
:1041E00087FF75C1E82FFF27E1950CF4F0959E1726
:1041F0001F060CF06CC110921E0310921F030E9448
:10420000150B90912603891721F0809326030E94B5
:10421000470580913F03843009F086CE80913201BA
:104220008F708093E9009091E80090FF7DCE90918F
:104230003F03943009F078CE8093E9009091F30029
:104240008091F200892B09F46FCE8091E8008E777F
:104250008093E8000E94CF0367CE0E2D10E0F80196
:10426000E35EFC4F8081E82FE295EF70F0E0E0A183
:10427000F0E08F7002C0F595E7958A95E2F7E1705E
:10428000D801A45EBC4F2C91A22FA295AF70B0E0D4
:1042900090968C9190E02F7002C0959587952A9505
:1042A000E2F780FD51C080E08E2BD801A55EBC4FA7
:1042B000EC919E2F9370891709F444C0EE0FEE0F16
:1042C000E82BEC93F0901903FE0CEF70F0E0EA5746
:1042D000FE4F085E1C4F8081D8019C91890F8C9302
:1042E000C12C843084F0EF2DF0E0E95EFC4F80813A
:1042F0008F5F80830E94F00AC82E882339F160E026
:104300008F2D0E946E1BF80180818D3F84F4EF2D6C
:10431000F0E0E95EFC4F8081815080830E94F00ACA
:10432000C82E8823B1F061E08F2D0E946E1BD8014A
:104330008C91082E000C990BB4010E948C24F8017A
:104340008083DC28E394F6CE82E0AECFCC24C39405
:10435000DACFCC24C394EBCF20913304020F04CFE7
:104360008091310490E06091330470E00E948C24CD
:104370002091340430913504280F391FD9013C9025
:1043800020906E03B7EFB315F0F4E1E0E0936E0315
:1043900020E040E0632D81E090E00E94CD02209279
:1043A0006E032FB7F8948091310490E001966091EC
:1043B000330470E00E948C24809331042FBFBFEF40
:1043C000EB1AFB0ADCCE37FE53C0F4E02F1631F0B7
:1043D00030926B03D0927003C0926F03832D0E94C2
:1043E000DB05813069F08823D1F08230A9F0833079
:1043F00099F010926E031092700310926F03D1CF58
:1044000080936E0320E040E0632D81E090E00E9405
:10441000CD0210926E03C5CF80936E03C2CF20EF02
:104420003216E1F047EF3412E4CF20916F03309160
:104430007003C901B5010E947824FC01E75BFC4FC1
:1044400032A2C90101969093700380936F0320916B
:104450006D0340916C0360916B03D9CF54E050938E
:104460006E0330926B03D0927003C0926F0399CFAA
:10447000222009F496CF20916F0330917003C90177
:10448000B5010E947824AC01FC01E75BFC4F32A22D
:10449000C90101969093700380936F0341305105D9
:1044A00089F04230510509F07CCF20916D03409195
:1044B0006C0360916B030E94CD0280916E03843087
:1044C00091F66FCFA2E020E02A126BCFF0CF890FD8
:1044D00087FD03C080931E0392CE8FE7FBCF09BDFB
:1044E00019BD09B400FEFDCF8091D8008F7D809367
:1044F000D8008091E00082608093E0008091E0002D
:1045000081FDFCCF0E940D0E03CE8EE14A9B02C0BE
:104510008150E1F74A9BFECF08955A9880E28A9530
:10452000F1F75A9A0895FC013BE03A95F1F798E0CB
:1045300020E080E031E040E14A95F1F7880F4A9BA6
:1045400002C08160232742E04A95F1F7000040E174
:104550004A95F1F7915079F790E19A95F1F799B171
:1045600032E03A95F1F7000040E14A95F1F792FB0D
:10457000992790F992272081920F90830895A1E0C6
:10458000B0E0E5ECF2E20C944D2419828C017C0140
:10459000E60EF11C0E151F0541F481E09981911181
:1045A00080E02196E6E00C9469240E948522CE01E9
:1045B00001960E949322F80181938F01EBCF529ACA
:1045C0005A9A089552985A9AEA9AE9E6F0E0808158
:1045D0008F7C808308956150770B91E001C0990F23
:1045E0006A95EAF720E031E0911108C0222391F0AA
:1045F0005A9A80E28A95F1F75A980895492F4823EC
:1046000039F05A9A232740E24A95F1F79695ECCF74
:104610005A98F9CF5A98EDCFFF920F931F93CF93EB
:10462000DF93EC018C01060F111DC017D10729F48F
:10463000CDB7DEB7E5E00C946A24F9900E948D2294
:1046400068E08F2D0E94EB22F0CF1F920F920FB6E1
:104650000F9211240F931F932F933F934F935F93C8
:104660006F937F938F939F93AF93BF93EF93FF933A
:10467000CF93DF930F92CDB7DEB719820E948522C8
:10468000CE0101960E949322082F06950695069565
:10469000282F22952570902F9570290F922F9370B7
:1046A00026952695920F982797708981982B09F067
:1046B0005CC0063008F059C080E18A95F1F75A9A3B
:1046C000529A82E08A95F1F700C05A9888E0089FD4
:1046D00080011124D801A050BF4F1696ED91FC9196
:1046E00017973097A9F0609177017091780114962F
:1046F0002D913C911597260F371F11968D919C9106
:104700001297680F791F13964C9113978C91099506
:10471000F801E050FF4F6381662351F0209177014B
:104720003091780184819581820F931F0E940C2320
:104730000E948D2280E18A95F1F75A9852985A9AF0
:1047400080E18A95F1F7F801E050FF4F6081662320
:1047500051F0209177013091780181819281820F0F
:10476000931F0E94BF220E9485220F90DF91CF915C
:10477000FF91EF91BF91AF919F918F917F916F9139
:104780005F914F913F912F911F910F910F900FBE0D
:104790000F901F9018950F931F93CF93DF93EC0109
:1047A00006970CF04CC0F894529A5A9885E08A9576
:1047B000F1F700009C2F969595708C2F8570980FBF
:1047C000892F83709695969523E0CC0FDD1F2A954F
:1047D000E1F7980F8E01092B0E948D2200C068E03E
:1047E000802F0E94EB2280E18A95F1F752985A9A25
:1047F0004A9B1EC087E090E04A991CC0FE01E05031
:10480000FF4F63816623F9F02091770130917801A1
:1048100084819581820F931F0E94BF22811113C052
:10482000529A5A9A7894DF91CF911F910F910895DF
:1048300000C0DECF019729F4529A5A9A789480E00A
:10484000F2CF00C0D9CF0E94852280E28A95F1F78D
:104850005A98529A80E18A95F1F7C050DF4F6881EB
:10486000662351F0209177013091780189819A81F6
:10487000820F931F0E940C230E948D22789481E066
:10488000D2CF2F923F924F925F926F927F928F92F0
:104890009F92AF92BF92CF92DF92EF92FF920F93CF
:1048A0001F93CF93DF93CDB7DEB7CA1BDB0B0FB6D9
:1048B000F894DEBF0FBECDBF09942A883988488896
:1048C0005F846E847D848C849B84AA84B984C8842C
:1048D000DF80EE80FD800C811B81AA81B981CE0F23
:1048E000D11D0FB6F894DEBF0FBECDBFED01089508
:1048F000AA1BBB1B51E107C0AA1FBB1FA617B70706
:1049000010F0A61BB70B881F991F5A95A9F7809521
:104910009095BC01CD01089597FB072E16F40094E5
:1049200007D077FD09D00E94782407FC05D03EF41B
:10493000909581959F4F0895709561957F4F08954B
:10494000EE0FFF1F0590F491E02D0994F999FECF29
:1049500092BD81BDF89A992780B50895A8E1B0E08D
:1049600042E050E00C94DA24262FF999FECF92BD54
:1049700081BDF89A019700B4021639F01FBA20BD24
:104980000FB6F894FA9AF99A0FBE08950396272F56
:104990000E94B5240E94B424252F0E94B524242F00
:1049A0000C94B5240196272F0E94B5240C94B424AE
:1049B000DC01CB01FC01F999FECF06C0F2BDE1BDDF
:1049C000F89A319600B40D9241505040B8F70895CE
:1049D000FB01DC0104C08D910190801921F441504C
:1049E0005040C8F7881B990B0895FB01DC0102C0F9
:1049F00001900D9241505040D8F70895F894FFCFA0
:104A0000020F2A0FCC102A0FCC105D0F7E0FCC1096
:104A10007B108810251629161A1621162D16311608
:104A200035167216E7167A16441648167E164C1678
:104A300082168E165816E0165C169216601696169A
:104A4000BE1664169A16C5166A16A016A816501633
:104A5000861654168A166E16A416B416CE16DE16D0
:104A60003E167616EE162B172B177E177E17B017ED
:0E4A70005E175E175E17CA1758186818681888
:104A7E000000000100000000000000060100000020
:104A8E000000000107000000000000010800000007
:104A9E000409000000000000013505A90A3405A232
:104AAE000A038340000001044000000100018182DE
:104ABE0083E200E900EA00B500B600B700CD00833E
:104ACE0001CC008A019201940121022302240225C5
:104ADE0002260227022A02B300B4006F0070009F64
:104AEE0001CB019F02A0024002353497F6669491E5
:104AFE00C6F73133329000FF0100010000FFFF00C6
:104B0E0000010001FF00020302000001000101018B
:064B1E000101000101008D
:00000001FF
