:100000000C9409040C9426040C9426040C94863257
:100010000C9426040C9426040C9426040C942604B8
:100020000C9426040C9426040C94572B0C94132B3C
:100030000C94542C0C9426040C9426040C94260442
:100040000C9426040C9426040C9426040C94260488
:100050000C9426040C94302C0C9426040C94260446
:100060000C9426040C9426040C9426040C94260468
:100070000C9426040C9426040C9426040C94260458
:100080000C9426040C9426040C9426040C94260448
:100090000C9426040C9426040C9426040C94260438
:1000A0000C9426040C9426040C94260400000000F2
:1000B0000000000000000000000000000000000040
:1000C0000000000000000000000000000000000030
:1000D0007E0F00D4FFFFFFC7000000780000000083
:1000E000000000002A2B2800000000000000000093
:1000F0000000000000000029000000002C1E342039
:10010000212224342627252E362D3738271E1F205E
:100110002122232425263333362E37381F040506A3
:100120000708090A0B0C0D0E0F10111213141516E7
:100130001718191A1B1C1D2F3130232D35040506E5
:100140000708090A0B0C0D0E0F10111213141516C7
:100150001718191A1B1C1D2F3130354C62616E6443
:100160006F6D696E65646F6E693A636F6E63657219
:1001700074696E61204020302E32342E372D333397
:100180002D676633386133322D6469727479206665
:100190003338613332373665622A207C2032303280
:1001A000342D30342D30372D30393A32373A323819
:1001B0000000000000000000000000000000002817
:1001C0007E2A7E2E7E317E367E387E357E227E26CB
:1001D0007E297E2C7E307E327E000000002F7E2D18
:1001E0007E307E337E377E397E61520000247E0071
:1001F000002B7E0000000000000000000000000056
:100200000000000000000018711671147100000059
:10021000000000000021711A711971000000000235
:100220007E000024711D711E7100000000A84500B1
:100230000027712071227100000000000000002BD7
:100240007124712571000000000000000023712757
:10025000711C71000000001B710000000000000014
:10026000000000000000002D7E287E307E2F7E34AE
:100270007E3C7E3F7E2C7E277E2B7E2E7E337E37FD
:100280007E00000000317E2E7E327E357E3A7E3E3C
:100290007E615200002A7E0000297E0000000000DE
:1002A0000000000000000000000000000000001A34
:1002B000710F71137100000000000000001D711625
:1002C00071187100000000027E000022711B711C79
:1002D0007100000000A845000026711F7124710004
:1002E000000000000000002971227123710000004D
:1002F0000000000000207125712171000000001B2A
:1003000071E0001E001F00200021002200000016E6
:100310007C2B0014001A0008001500170039000497
:10032000001600070009000A000B00E1001D001B79
:100330000006001900050011003500E300E20091FD
:10034000442C002C004600000000000000000000CB
:1003500000000000004A004E000A001C0023002F8D
:10036000004B004D0005000B001800240030002455
:10037000522C0011000D000C0025003100010090EE
:100380004410000E001200260027004F00E6003641
:10039000000F0013002A00E5005200500037003320
:1003A000004C0028003800510039001E001F0020BA
:1003B00000210022000000167C2B0014001A000906
:1003C0000013000A00E000040015001600170007E3
:1003D000002800E1001D001B0006001900050010A8
:1003E000003500E300E20091442C002C00460000A0
:1003F000000000000000000000000000004A004E65
:100400000007000D0023002F004B004D0005000BDE
:10041000000F002400300024522C000E00110018A0
:10042000002500310001009044100008001C002647
:100430000027004F00E60036000C0033002A00E5DC
:100440000052005000370012004C002800380051C4
:100450000001003A003B003C003D003E000000016E
:100460000001000100010001000100010001000184
:100470000001000100010001000100010001000174
:100480000001000100010001000100010001000164
:100490000001000100010000000000000000000059
:1004A000000000000001000100010001003F000108
:1004B00000010001000100010001004000010001F5
:1004C00000010001000100010041000100010001E4
:1004D0000001000100010042004300010001000191
:1004E00000010001000100010001000100010034D1
:1004F0000001000100010001000000405200000066
:100500000000000000000000004252000000000057
:100510000000000000435200000000000000000046
:1005200000010000000000000000000000000000CA
:1005300000000015701470000000000000000000B2
:100540000000000000000000000000000000002685
:10055000780000017E000055710100000025780040
:100560000000000000567101000000247800000027
:1005700000000071710100000023780000000000FD
:10058000007271207800002A780000000000002727
:1005900078037C227829780000007E0000287821EA
:1005A00078A900AA00A900AA000100010001000129
:1005B0000001000100217822780001010101010100
:1005C000010101020202020202020202030303030A
:1005D00003030303040404040404040505050505DA
:1005E0000606060606070707070708080808090998
:1005F00009090A0A0A0B0B0B0C0C0C0D0D0D0E0E43
:100600000E0F0F0F101011111112121313141415D5
:100610001516161717181819191A1A1B1B1C1D1D49
:100620001E1E1F202021222223242425262627289F
:1006300029292A2B2C2D2D2E2F30313232333435CF
:10064000363738393A3B3C3D3E3F404142434445D2
:10065000464748494A4C4D4E4F50515354555658B1
:10066000595A5B5D5E5F616264656668696B6C6D5B
:100670006F7072737577787A7B7D7E8082838587D1
:10068000888A8C8E8F91939596989A9C9EA0A2A30F
:10069000A5A7A9ABADAFB1B3B5B7BABCBEC0C2C414
:1006A000C6C9CBCDCFD1D4D6D8DBDDDFE2E4E7E9D4
:1006B000EBEEF0F3F5F8FAFDFF05010980A10185E5
:1006C0000319012AB700150126B70095017510819D
:1006D00000C0050C0901A101850419012AA0021519
:1006E0000126A002950175108100C005010906A12F
:1006F00001050719E029E715002501950875018115
:10070000029501750881010507190029FF150026CA
:10071000FF009506750881000508190129051500D7
:100720002501950575019102950175039101C00997
:10073000029F00040100A0FA090400000103010166
:10074000000921110100012244000705810308006E
:100750000109040100010300000009211101000149
:1007600022320007058203200001080B020201016A
:100770000000090402000001010000092401000139
:10078000090001030904030002010300000724011A
:1007900000014100062402010100062402020200B9
:1007A00009240301030102010009240302040101D9
:1007B00001000905040240000500000525010101B2
:1007C000090583024000050000052501010312010F
:1007D000000200000008EDFEB5F401000102000176
:1007E0001C03620061006E0064006F006D00690010
:1007F0006E00650064006F006E00690000000E036B
:10080000330061007200610068007400000004039E
:10081000090411241FBECFEFDAE0DEBFCDBF27E011
:10082000ACEFB2E001C01D92AA35B207E1F712E0C9
:10083000A0E0B1E0E6E5FBE602C005900D92AC3F1A
:10084000B107D9F70E947B2C0C942E350C94000034
:10085000EF92FF920F93CF93009157070F772DEFF1
:10086000260F30E0F901E05EF94F7F01208144233B
:1008700029F12F3FF1F490915607C92FC595C595E1
:10088000C595C595C3509F70FCE09F9FC00D112476
:10089000C60F2C2F2F778F70482F4069E091690683
:1008A000F0916A0663E070E089E696E00995F70149
:1008B000C083CF910F91FF90EF9008952F3F69F083
:1008C0002F778F70482F4068E0916906F0916A0693
:1008D00063E070E089E696E009958FEFF701808389
:1008E000E8CF0F931F939B01305E8901000F012F0A
:1008F000001F110B11952F77482F406EE09169066C
:10090000F0916A0663E070E089E696E009951F9130
:100910000F9108950F93262F042F0F77482F406BC8
:10092000E0916906F0916A0663E070E089E696E07E
:1009300009950F91089590911806937061F08111B7
:100940000BC0946090931806109251018091170685
:100950008160809317060895873210F09869F2CF6E
:10096000880F880F982BEECF90911806937071F036
:100970008093190660931A06433308F042E34093CC
:100980001B06809117068160809317060895482FF3
:100990002091DC059091A30557E0291302C080E067
:1009A000089530E0529FF001539FF00D1124EC5553
:1009B000FA4F8181681306C08081481303C0858186
:1009C0008111EECF2F5F3F4F2770E7CFA3E0B0E05C
:1009D000ECEEF4E00C94AC337C01162FD42EC22E36
:1009E00080918E06843071F5E0918306F091840643
:1009F0003097C1F1C701019763E070E00E94D933DD
:100A0000CB01880F991F860F971F19834A83CB82CA
:100A10004E2D481B9E012F5F3F4FBC0189E696E09B
:100A20000995E0918706F0918806309739F00C2DF2
:100A30002D2D412FB70189E696E009952396E8E030
:100A40000C94C83382E0E816F10409F45AC083E03C
:100A5000E816F104A9F081E0E816F10409F484C075
:100A6000F12CE12CE0918506F09186063097C9F2D1
:100A70000C2D2D2D412FB70189E696E00995D1CF98
:100A8000862F807F803A11F188F48038D1F0E09190
:100A90006D06F0916E06803929F7309719F3123FF1
:100AA00049F12C2D4D2D612F6F7027C0803E99F09C
:100AB000803FB1F0E0916B06F0916C06803B91F6BF
:100AC000ECCFE0916F06F0917006E7CFE0917106F0
:100AD000F0917206E2CFE0917306F0917406DDCFDB
:100AE000623F09F0BFCFE0917506F091760630972E
:100AF00009F4B8CF2C2D4D2D62EF89E696E00995CB
:100B000090CF862F807F803DB9F0803FD1F0E0917B
:100B10007706F0917806803C09F0A4CF309709F46D
:100B2000A1CF812F8D7F4D2D612F6F70813FC9F037
:100B300089E696E0099575CFE0917906F0917A06FD
:100B4000EDCFE0917B06F0917C06633F39F0613F89
:100B500009F088CFE0917D06F0917E06309709F488
:100B600081CF4D2D612FE4CFE0917F06F09180067B
:100B7000683F38F4663F09F075CFE0918106F09147
:100B80008206309709F46ECF612F89E696E00995C9
:100B900048CFE8EDF0E080818E7F80831092E20004
:100BA0001092DA001092E100A0EEB0E08C9181602A
:100BB0008C9380818F77808319BCA7EDB0E08C91F6
:100BC0008E7F8C9380818F7E808310928C05089518
:100BD0002091E4003091E50095E6A9012091EC0018
:100BE000822F817020FF06C08091E80080FF06C040
:100BF00080E008952091E80022FD1AC080919905B7
:100C0000882389F0853089F08091EB0085FD0FC045
:100C10002091E4003091E50042175307F9F291501A
:100C2000E1F684E0089582E0089583E0089581E08C
:100C30000895EF92FF920F931F93CF937C018B0146
:100C40000E94E805C82F811117C08091E80085FD3A
:100C50000BC08091E8008E778093E8000E94E80541
:100C6000882399F3C82F08C0F70181917F018093F1
:100C7000F1000150110949F78C2FCF911F910F916D
:100C8000FF90EF90089580919B0587FF13C080919E
:100C9000E80082FF06C08091E8008B778093E8002F
:100CA00004C0809199058111F2CF08958091990532
:100CB0008823D9F38091E80080FFF8CF8091E80085
:100CC0008E77ECCF982F9093E900242F762F50E069
:100CD000891731F07091EC002091ED005091F000F7
:100CE00021FD07C09F5F973071F78093E90081E095
:100CF00008953091EB003E7F3093EB003091ED0092
:100D00003D7F3093ED003091EB0031603093EB008C
:100D10007093EC002093ED005093F0002091EE00D2
:100D200027FDE0CF80E00895B0E0A0E0EAE9F6E03A
:100D30000C94AC33C8EDD0E088818F7E8883E7EDDA
:100D4000F0E080818160808384E082BF81E08093D5
:100D50008C0588818E7F888302EE10E0F801108276
:100D60001092DA0081EEC82ED12CF6011082888113
:100D70008F77888388818068888388818F7D888346
:100D800019BC1092990510929A051092980510922C
:100D9000970590EEE92EF12CF70180818B7F8083FF
:100DA00088818160888342E060E080E00E94620682
:100DB000F60180818E7F8083F8018081816080834D
:100DC000808188608083F70180818E7F8083888125
:100DD00080618883CDB7DEB7E8E00C94C833FC01AE
:100DE0008091A1059091A20586179707A0F0611543
:100DF000710529F49091E8009E779093E80090E0C7
:100E00006115710551F4911108C08091E80082FFCD
:100E100034C080E00895BC01F2CF80919905882309
:100E2000C1F18530C1F18091E80083FD30C080912F
:100E3000E80082FDEACF8091E80080FFE1CF809159
:100E4000F3002091F200382F6115710519F0283058
:100E5000310558F091E02830310509F090E02091FB
:100E6000E8002E772093E800CBCF81918093F100AA
:100E7000615071092F5F3F4FE7CF8091990588231B
:100E800041F0853041F08091E80083FFBECF81E0E2
:100E9000089582E0089583E008950895089580916B
:100EA0008E0508959C014FB7F89480918805909124
:100EB0008905A0918A05B0918B054FBF821B930BCA
:100EC00008952FB7F89460918805709189058091F5
:100ED0008A0590918B052FBF08952FB7F8948091C4
:100EE000880590918905A0918A05B0918B052FBF47
:100EF00008959C01FC0132969FEF80E041914617D6
:100F000051F09F3F19F4411101C0982F8F5F863037
:100F1000A9F79F3F09F40895290F311D97FD3A95D0
:100F2000F90162830895A3E0B0E0E9E9F7E00C94E9
:100F3000B233209185053091860528173907A1F035
:100F40009093860580938505E0918305F091840553
:100F5000309751F024E029839B838A830084F185B4
:100F6000E02DCE01019609952396E2E00C94CE3354
:100F7000A3E0B0E0EEEBF7E00C94B23320918105F2
:100F80003091820528173907A1F09093820580934C
:100F90008105E0918305F0918405309751F023E0BD
:100FA00029839B838A830084F185E02DCE010196FD
:100FB00009952396E2E00C94CE3380917F05882337
:100FC00059F0E0918305F0918405309729F0019064
:100FD000F081E02D0995089580E00895FC01680FE7
:100FE000791F8FEF91E32191822728E030E087FF7E
:100FF00009C0880F892721503109C9F7E617F7077B
:1010000091F70895880FF7CF90E06623A1F08258FA
:101010009A4FFC0120812F3F89F0E22FE295EF707B
:10102000F0E080A190E02F7002C0959587952A95F9
:10103000E2F78170089583589A4FEBCF80E00895CE
:1010400090E06623E9F082589A4FFC0180818F3F3F
:10105000B1F0E82FE295EF70F0E041A18F7021E050
:1010600030E0B90102C0660F771F8A95E2F7CB0125
:10107000962F9095942391A392A1892B82A30895F2
:1010800083589A4FE2CF90917705E92FF0E02091B5
:1010900078052150330B23703327E217F307A9F0AB
:1010A000E758FA4F282F2F7780818078822B60FBBA
:1010B00087F980839F5F9370909377058091750582
:1010C0008F5F8093750581E0089580E00895FA01AF
:1010D000811101C0FB0109950895FC01EE0FFF1F6E
:1010E000DF01A80FB91FAF56BB4F11963C91119766
:1010F000361307C03C91341304C012963C9132174A
:1011000051F031E030939004E80FF91FEF56FB4F98
:101110006183408322830895FF920F931F93CF939F
:10112000DF93182F062FF42ED0E0C0E02F2D402F94
:10113000612FCE010E946D082196CC34D105B1F704
:10114000CDB7DEB7E5E00C94CB3310929004089550
:10115000E8E1F6E0248130E1231B08F420E0248359
:10116000809117068160809317060895E8E1F6E004
:10117000248130E1230F08F42FEF24838091170698
:101180008160809317060895E8E1F6E0438120E14D
:10119000421B08F440E08181628190E00E94B40427
:1011A0000895E8E1F6E0438120E1420F08F44FEFB3
:1011B0008181628190E00E94B4040895E8E1F6E044
:1011C000628120E1621B08F460E08181438190E04C
:1011D0000E94B4040895E8E1F6E0628120E1620F24
:1011E00008F46FEF8181438190E00E94B404089578
:1011F000E8E1F6E08181438162818850990B0E9489
:10120000B4040895E8E1F6E0818190E043816281D1
:1012100008960E94B40408958091180686958695D4
:10122000815009F486E20E949B040895809118067B
:10123000869586958F5F873208F081E00E949B0437
:1012400008958295807F90E1980F9D3408F09CE48A
:101250000895EF92FF920F939701201B31092F3FC2
:10126000310519F010F02FEF30E02095382F320FB4
:1012700008F43FEF832F0F91FF90EF900895EF92C6
:10128000FF920F939701201B31092F3F310519F071
:1012900010F02FEF30E0322F3095482F430F08F435
:1012A0004FEF842F620F0F91FF90EF900895EF9210
:1012B000FF920F93972F093438F4B701601B71091F
:1012C0006F3F710519F010F06FEF70E0485F5F4FEE
:1012D0004131510540F0A901485F5F4F413151054F
:1012E00010F06FEF70E06095482F460F08F44FEF55
:1012F000842F37FF02C02D5F3F4F359527953595D9
:10130000279560911906620F792F0F91FF90EF904A
:101310000895EF92FF920F931F930E0D1F2D111D35
:10132000F90137FF03C0F195E195F10924E0EE0FD3
:10133000FF1F2A95E1F7EF3FF10519F014F0EFEFE9
:10134000F0E09A0157FF03C031952195310994E0EF
:10135000220F331F9A95E1F72E173F070CF4F9017E
:10136000E00FF11FEF3FF10519F010F0EFEFF0E0A3
:10137000E095282F3E2F230F08F42FEF822F1F9187
:101380000F91FF90EF900895EF92FF920F939701C6
:1013900095E0099F200D311D11242F3F310519F0D3
:1013A00010F02FEF30E02095382F320F08F43FEF88
:1013B000832F0F91FF90EF900895409520E4429F76
:1013C000412D1124640F08954095282F429F412DEF
:1013D0001124842F0895E42FF0E0EE0FFF1FE85E44
:1013E000FD4F9081921B97FD9195292F38E1239F06
:1013F000212D1124620F08950F931F9310E0F8011F
:10140000EE0FFF1FE85EFD4F9081905797FD91957D
:10141000000F111FF801E75EFD4F00810052110B14
:101420002003F001219FF00D112408E310E0091BB7
:10143000110997FD139540039001419F300D112430
:10144000E20FF31F9F01220F331F2E0F3F1F37FFA5
:1014500002C021583F4F220F232F221F330B620F50
:101460001F910F9108950F931F93522F10E0F801D1
:10147000EE0FFF1FE75EFD4FA081A052BB0B9D0149
:101480005203F001539FF00D1124000F111FD801DA
:10149000A85EBD4F0C910057110B40039001419F76
:1014A000300D11242E0F3F1F37FF02C0215C3F4F2C
:1014B00096E0359527959A95E1F7620F1F910F9168
:1014C00008950F931F93522F10E0F801EE0FFF1FA6
:1014D000E75EFD4FA081A052BB0B9D015203F001BE
:1014E000539FF00D1124000F111FD801A85EBD4FAE
:1014F0000C910057110B40039001419F300D1124B6
:101500002E0F3F1F37FF02C021583F4F220F232FBE
:10151000221F330B620F1F910F910895EF920F93CB
:10152000972F23E0029FB0011124759567956E0DEA
:10153000792F0F91EF900895322F50E0FA01EE0FBE
:10154000FF1FE75EFD4F9081905297FD9195440FEC
:10155000551FFA01E85EFD4F2081231B330B290F35
:10156000311D97FD3A95620F0895E42FF0E0EE0FDC
:10157000FF1FE75EFD4F6081621B0895E42FF0E0DE
:10158000EE0FFF1FE85EFD4F6081621B0895622F22
:101590000895E42FF0E0EE0FFF1FE85EFD4F40815D
:1015A00034EE439F412D1124E82FF0E050E0445EDB
:1015B0005F4FDA01A21BB1099D01B7FF03C031954E
:1015C0002195310993E0220F331F9A95E1F7AF017E
:1015D000421B530B9A0157FD20E0582F259F212DC8
:1015E0001124822F0895E42FF0E0EE0FFF1FE85E34
:1015F000FD4F408134EE439F412D1124E72FF0E051
:1016000050E0445E5F4FDA01A21BB1099D01B7FFB4
:1016100003C031952195310993E0220F331F9A952C
:10162000E1F7AF01421B530B9A0157FD20E0279FC2
:10163000212D1124722F08950E948C0808950E9474
:101640006D080895FC019B01009729F480E077FF65
:101650002BC080E80895AC0197FF04C044275527AC
:10166000481B590BB901640F751F37FD10C0241BAF
:10167000350BC901A5E0880F991FAA95E1F70E94D3
:10168000ED3380E2861BF7FF0FC081950895CB01F3
:1016900065E0880F991F6A95E1F7BA01621B730B29
:1016A0000E94ED3380E6EECF0895EF920F93CF9333
:1016B000DF93D72FC82FC9010E19BA010E94220B40
:1016C000602F681B7D2F8C2FDF91CF910F91EF90B2
:1016D00008950F93CF93DF93D72FC82FC901BA0175
:1016E0000E94220B682F600F7D2F8C2FDF91CF91EE
:1016F0000F910895EF920F931F93CF93DF93D62FFF
:10170000C72F182FC9010E19010FBA010E94220B11
:10171000081B202F219F212D1124822F6D2F7C2F1C
:10172000DF91CF911F910F91EF900895EF920F935A
:101730001F93CF93DF93D62F172FC82FC9010E19F0
:10174000070FBA010E94220B702F781B719F712D19
:1017500011246D2F8C2FDF91CF911F910F91EF905E
:1017600008950F931F93CF93DF93D62FC72F182F72
:10177000C901212F201B022FBA010E94220B982F92
:10178000990F990F891B800F282F219F212D11243C
:10179000822F6D2F7C2FDF91CF911F910F91089594
:1017A0000F931F93CF93DF93D62F172FC82FC90105
:1017B000272F201B022FBA010E94220B982F990F6E
:1017C000990F782F791B700F719F712D11246D2F38
:1017D0008C2FDF91CF911F910F910895E82F86FDF7
:1017E000E0952E2F2F7086FD2F5FE695E695E69506
:1017F000E670F0E0E454FE4F9181929F902D212DF0
:10180000112492959F702295207F922B2081920F18
:1018100087FD919580E8890F08950F931F93CF93CB
:10182000DF938B01D82FC42F822F0E94EE0BEC2F59
:10183000F0E0EE0FFF1FE85EFD4F90819058890F9A
:1018400087FD8195880F682F2CE0629F612D112400
:10185000600F712F8D2FDF91CF911F910F91089500
:10186000AC018230910508F408959FEF413E8EE16E
:10187000580740F49A0195E0369527959A95E1F737
:1018800098E0920F61E0E62FE90FFF27FF1F9F010D
:1018900035952795822F229FF001239FF00DF00DA3
:1018A00011244E175F0738F49FEF920F961758F7E1
:1018B0008FEF860F08952F3FE9F361E0620FF6CFB7
:1018C0000F93CF93DF93D72FC82F47FD419588E320
:1018D00090E0841B910947FD9395889FB001899FF3
:1018E000700D700D1124229FC001239F900D900D4B
:1018F0001124860F971F0E94300C982F990F890F83
:10190000682F600F7D2F8C2FDF91CF910F9108955D
:1019100030E020E0869F212D969F200D311D11245F
:10192000C9010895AF92BF92CF92DF92FF920F93B9
:101930001F93CF93DF93362F472FE82FF0E0E75424
:10194000FA4F71110FC0E4918E2F2E2F6E2F722F30
:10195000DF91CF911F910F91FF90DF90CF90BF90BB
:10196000AF900895C72FD0E02491F22E022F10E0FF
:1019700056E0659FC0011124EFEFF0E0BF010E9427
:10198000D933832F90E0880F991F35E5369FD0011A
:10199000379FB00D11248A1B9B0B982F990F980F1E
:1019A0006F01CC1ADD0AC09ED001C19EB00DD09E41
:1019B000B00D11248B2F499FA0011124452F5527CD
:1019C0006F01C41AD50AC09EA001C19E500DD09EC1
:1019D000500D11245F01A91AB108AC9E6001AD9EA3
:1019E000D00CBC9ED00C1124CD2CDD24EC19FD09AB
:1019F000E09FE001E19FD00DF09FD00D1124ED2F6D
:101A000062307105A1F050F46115710509F49ECFA3
:101A10006130710581F0EB2F852F98CF643071050F
:101A200069F080F06630710509F490CFF4CFE22FB1
:101A30002B2F8D2F8BCFE22F252F88CFEB2F822FAF
:101A40002D2F84CF2B2F8F2DE52F80CF2F923F92DC
:101A50005F926F927F928F929F92AF92BF92CF923E
:101A6000DF92EF92FF920F931F93CF93DF93CDB747
:101A7000DEB729970FB6F894DEBF0FBECDBF8A83BD
:101A80007D836C8380914E010E942109998320916E
:101A9000E1052B83E82FF0E0F987E887CF01880F75
:101AA000991F9C01285E3D4F69013A81832F90E088
:101AB000FC013196FF83EE83898198859817E8F0C1
:101AC00081E0E981EC3408F080E029960FB6F894C3
:101AD000DEBF0FBECDBFDF91CF911F910F91FF9061
:101AE000EF90DF90CF90BF90AF909F908F907F90BE
:101AF0006F905F903F902F900895E885F985E055AD
:101B0000FD4F808190914F018923F1F020901906BB
:101B100030901A062E813F812F513A4F39015A8059
:101B200010E0FB815F16D0F020911B06129F112D53
:101B30001124B101812F0E94920C462F282F672F6C
:101B4000888599850E941F0B288539852F5F3F4F17
:101B50003987288732E0C30ED11CAECFF3018191C3
:101B60003F01F601A080A81ABB088180F30181859E
:101B7000881A9908AA9C9001AB9C300D300D112455
:101B8000889CC001899C900D900D1124820F931F99
:101B90000E94300C082F60911C0621E0620F08F4AF
:101BA0006FEFF301EE0FFF1FE15EF540838D948D23
:101BB0000E94880C7C019401A501B101812FEC8168
:101BC000FD8109951B015394182FABCFB0E0A0E025
:101BD000ECEEFDE00C94AD338C0180914E010E943F
:101BE0002109C82FD92E20911C0631E0230F08F4BB
:101BF0002FEF30E050E040E06FEF7FEF80E090E0CB
:101C00000E94CB347901D0E02C2FCD1550F081E02B
:101C1000FBE4FD1508F480E0CDB7DEB7E7E00C94F7
:101C2000C933FE01E055FD4F808190914F0189231A
:101C300011F14091E1054150042E000C550B47FF76
:101C40001CC0C70160911C0621E0620F08F46FEF11
:101C50000E94880CAC016091190670911A0680915F
:101C60001B06F80109950E94920C462F282F672F1A
:101C7000CE010E941F0B2196C7CFFA01EF51FA4FF8
:101C8000858982130AC0FA01EE0FFF1FEF51FA4F48
:101C9000878D90A18E159F05A8F241505109CFCF95
:101CA000EF92FF920F931F93CF93DF937C0180916C
:101CB0004E010E942109C82F192F60911C066695BC
:101CC000669521E0620F08F46FEF8091DD05909139
:101CD000DE050E94880C082FD0E0C11748F081E093
:101CE0001C3408F080E0CDB7DEB7E6E00C94CA33D0
:101CF000FE01E055FD4F808190914F01892391F0C5
:101D00006091190670911A0680911B06202F4C2FA6
:101D1000F70109950E94920C462F282F672FCE01BC
:101D20000E941F0B2196D9CFB0E0A0E0EAE9FEE0C7
:101D30000C94AA336C0180914E010E942109C82F96
:101D4000F92E60911C06669566958091DD0590914F
:101D5000DE050E94880C182F80E4810F0E94EE0B94
:101D600090E8B92EB80E812F0E94EE0B20E8A22E2B
:101D7000A80ED0E0CF1550F081E09BE49F1508F449
:101D800080E0CDB7DEB7EAE00C94C633FE01E05543
:101D9000FD4F808190914F018923A1F06091190638
:101DA00070911A0680911B06E12E0C2F2A2D4B2DC7
:101DB000F60109950E94920C462F282F672FCE011D
:101DC0000E941F0B2196D6CFB0E0A0E0EAEEFEE025
:101DD0000C94A8336C0180914E010E942109C82FF8
:101DE000192F60911C0666958091DD059091DE05A6
:101DF0000E94880CF82ED0E0C11748F081E01C3416
:101E000008F080E0CDB7DEB7ECE00C94C433FE01FF
:101E1000E055FD4F808190914F018923C9F1CE019A
:101E2000880F991F8C539E4FFC01EC5AFF4F208165
:101E3000422F4057550B5A018B5A9F4FFC0180810E
:101E4000282F2052330B4901449F9001459F300DAC
:101E5000300D1124889CC001899C900D900D112497
:101E6000820F931F0E94300C082F60911906709109
:101E70001A0680911B06EF2C9401A501F601099525
:101E80000E94920C462F282F672FCE010E941F0B15
:101E90002196B2CFB0E0A0E0E0E5FFE00C94AD33D6
:101EA0007C0180914E010E942109C82F192F609159
:101EB0001C0666958091DD059091DE050E94880CD8
:101EC000D82ED0E0C11748F081E01C3408F080E043
:101ED000CDB7DEB7E7E00C94C933FE01E055FD4F06
:101EE000808190914F01892311F1CE01880F991FB4
:101EF0008C539E4FFC01EB5AFF4F20812052330B35
:101F00008C5A9F4FFC0140814057550B6091190638
:101F100070911A0680911B060D2DF70109950E94FC
:101F2000920C462F282F672FCE010E941F0B21965F
:101F3000C9CFEF92FF920F93CF93FB01833821E734
:101F4000920708F084C0833751E7950708F09FC1D6
:101F5000843661E7960750F5873571E7970708F0F3
:101F600051C1853521E7920760F48B3451E795071D
:101F700008F02EC1833061E7960708F0DAC0C1E0AF
:101F800021C1853571E7970709F42FC1863591473F
:101F9000B1F78581882309F4E6C080915607982F10
:101FA0009F70993008F0DFC09F5F2AC1813751E7E9
:101FB0009507A0F5863661E7960708F041C184369B
:101FC00071E7970709F42AC185369147C1F68581E3
:101FD000882309F4C8C020915607822F85958595DE
:101FE0008595859586300CF0BEC091E0980F92954E
:101FF000907F9595959595959595392F3295307F4C
:102000002F70232B2093560718160CF0ACC097FFA7
:10201000AAC08295807F922F9F70E3C08137980776
:1020200009F41CC18237914709F0A9CF8581882323
:1020300009F499C080915707982F9F779F3709F42B
:1020400092C0933708F021C1935F9F7705C189380B
:1020500071E7970709F473C1B8F5853851E795071B
:1020600009F445C1D8F4833871E7970709F421C111
:102070008438914709F083CF8581882309F473C0A0
:1020800020915707322F331F3327331F9091580762
:10209000892F8770880F832B8F5F1CC13091570762
:1020A000209158074581873851E7950709F43DC1CC
:1020B00008F42EC141114FE7832F881F8827881FFE
:1020C0002770220F62E42DC18C3871E7970709F45D
:1020D00056C180F48A3851E7950709F43FC18B381F
:1020E000914709F04CCF8581811147C18FEF8093D3
:1020F000B70339C08E3871E7970709F476C108F441
:102100005FC18F38914709F03ACFC5818091570759
:10211000982F991F9927991F809158078770880FCA
:10212000892BCC2309F471C16FEF7FE10E94710408
:102130001AC000915707202F221F2227221F4091EB
:1021400058074770440F422B0F77C5812DEF280F9A
:1021500030E0B90168547C4F7B01FB012081CC2326
:1021600009F12F3F11F0C0E02DC090915607C92F03
:10217000C595C595C595C595C3509F70FCE09F9FBB
:10218000C00D1124C80F2C2F2F774069E0916906EC
:10219000F0916A0663E070E089E696E00995F70140
:1021A000C083E1CF2F3F59F02F774068E091690657
:1021B000F0916A0663E070E089E696E009958FEF9A
:1021C000F70180838C2FCF910F91FF90EF900895AE
:1021D0002581222341F28B54982F9F7080915607BE
:1021E000807F892B80935607BECF8581882309F491
:1021F000BACF80915607982F9F7009F4B4CF915FA2
:102200009F70EECF2581222309F4ADCF8D55982FF5
:102210009295907F809156078F70E3CF85818823B8
:1022200009F4A1CF80915607982F9595959595958E
:1022300095959B3F0CF497CF915F9295907FECCF53
:102240002581222309F48FCF86569CE0899F902D0B
:1022500011249F7780915707807815C08581882346
:1022600009F481CF80915707982F9F7709F47BCF8E
:1022700080789F3721F485678093570774CF9D300E
:10228000D8F39D509F77892BF7CF8F67F5CF2581A6
:10229000222309F468CF83579091570780FB97F961
:1022A000909357078695877090915807987F892B50
:1022B00084C08581882309F456CF20915707322F97
:1022C000331F3327331F90915807892F8770880F4A
:1022D000832B815F382F3F7080FB27F920935707AE
:1022E000832F8695987F982B909358073CCF8581B4
:1022F000882309F438CF90915707991F9927991F80
:10230000809158078770880F40E06BE7892B0AC0DF
:1023100041114FE7832F881F8827881F2770220FBE
:1023200060E4822B0E948A041ECF41114FE7832F65
:10233000881F8827881F2770220F61E4F2CF8581CC
:1023400040E081114FE790915707991F9927991FF6
:10235000809158078770880F63E4D8CF858140E06B
:1023600081114FE790915707991F9927991F8091E5
:1023700058078770880F64E4C9CF81E0B8CE8581A3
:10238000882309F4F0CE90915807292F2695269599
:1023900026952F7081E0820F8F70880F880F880F2D
:1023A0009778892B80935807982F987709F0DBCE80
:1023B000220F220F220F8778822B80935807D3CECB
:1023C0008581882309F4CFCE80915807982F98777C
:1023D00009F4C9CE982F969596959695915F9F7022
:1023E000990F990F990F877862CFC5818091570710
:1023F000982F991F9927991F809158078770880FE8
:10240000892B60E070EEC11191CE70E060E00E9417
:102410007104D8CE84E0809356078FE780935707E6
:10242000809158078078806480935807E8EBF3E048
:102430008FEF819394E0E030F907D9F71092B6035B
:102440001092B7031092B5031092B4030895089543
:102450000895982F907F903BE9F040F49039D1F0A7
:10246000903AC1F09038B1F080E00895903D19F0B5
:1024700020F4903CC9F782E00895903E59F0903FD7
:1024800099F7815F8F3080F7E82FF0E0E355FE4F3A
:102490008081089583E00895A7E0B0E0E2E5F2E1ED
:1024A0000C94AC338C0108511F4F809199058430F6
:1024B00009F087C0809145018F708093E900809179
:1024C000E80082FF7EC08091E80085FF7AC00E940C
:1024D000E805811113C084E0E82EF12CCE010196AD
:1024E0006C018091E80085FD61C08091E8008B77E8
:1024F0008093E8000E94E805882399F38091E80022
:1025000085FD05C08091E8008B778093E800FA8014
:102510008F2D0E942912282FFD828B818E838C8122
:102520008F8321110BC08981843041F1873031F1D3
:10253000863031F121E0853009F0B7CF30E0E5E0B9
:10254000F0E0EC0FFD1FE30FF11DF0804FB7F894A2
:10255000D8011196EC911197F0E0CF0101961296F7
:102560006C9170E00E94ED33D8015C915817190608
:1025700049F44FBF3F5F321710F397CF23E0DECF10
:1025800022E0DCCF13968D919C911497E80FF91FF0
:10259000F08211968C91119790E0019612966C91B1
:1025A00070E00E94ED33F8018183E3CF8091F10068
:1025B000D6018D936D01B1E0EB1AF10809F091CFCE
:1025C0009DCF2796E8E00C94C833A4E0B0E0EBEE92
:1025D000F2E10C94AD337B01142FD22E4A832B836E
:1025E0000C83842F0E94291281113AC082E0E816E0
:1025F000F10489F183E0E816F10441F081E0E81686
:10260000F10429F5173F29F485E004C087E0073F6E
:1026100009F084E08983809199058430C1F4809128
:1026200040018F708093E90050E040E064E070E08A
:10263000CE0101960E941906811109C08091E8001F
:1026400085FD05C08091E8008E778093E800249690
:10265000E7E00C94C93387EFD812DBCF86E0DACFFE
:1026600012951F701983D7CF80E0089581E0809381
:10267000B2030895F894E82FE295EF70F0E031A1ED
:10268000282F2F7081E090E001C0880F2A95EAF78B
:10269000982F9095932391A392A1892B82A378944C
:1026A00008950F931F9380917F05882329F00E943E
:1026B00061071F910F9108950E94610700917E03A9
:1026C00010917F032091800330918103600F711F6F
:1026D000821F931FEECFCF92DF92EF92FF926B019A
:1026E0007C0180917F058823A1F02FB7F894609139
:1026F00088057091890580918A0590918B052FBF7F
:102700006C197D098E099F09FF90EF90DF90CF90A3
:1027100008950E945113F4CF9091930392FF10C03B
:1027200041E0282F2471243009F040E031E0282FC7
:102730002871283009F030E0431711F02CE082278F
:1027400093FF10C041E0282F2471243109F040E0AC
:1027500031E0282F2871283109F030E0431711F0BB
:102760002CE082273091940330FF10C051E0282FD5
:102770002171213009F050E041E0282F28712830E4
:1027800009F040E0541711F029E0822731FF10C012
:1027900041E0282F2171213109F040E031E0282F5C
:1027A0002871283109F030E0431711F029E0822721
:1027B00094FD877E089582389105B9F1B0F4813394
:1027C000910509F47DC048F48932910509F46DC082
:1027D0008A32910509F47BC008958533910509F487
:1027E0005FC08933910509F10895833E9105D9F1C0
:1027F00038F4803E910529F1823E910579F10895E2
:10280000863E9105D9F1873E910509F43EC0843E8C
:10281000910541F52091940321FF24C080919303F9
:1028200084FD19C087EE90E00895209193032370F2
:1028300009F05AC02091940323FF14C089E290E06C
:1028400008952091930320FD38C03091940330FF08
:1028500009C024FF43C090E080E0089520919303D5
:1028600022FDF7CF08952091930322FD3AC03091C5
:10287000940330FD39C024FFF5CFEDCF20919303B1
:1028800023FFF0CF24FDE7CFCDCF2091930323FD8D
:102890002EC03091940331FFEECF84EE90E0089586
:1028A0002091930325FFDECFC9CF2091930325FD0F
:1028B00021C02091940323FFD5CF89E390E0D2CFAC
:1028C0002091930326FFCECF8AE290E008952091D5
:1028D000930326FFC7CF81E390E0089583EE90E055
:1028E000089582EE90E0089580EE90E0089586EEDF
:1028F00090E0089585E390E00895972F7C30B8F438
:10290000673078F5863080F570E027E0929F600DA3
:10291000711D1124FB0194E5899FE00DF11D112427
:10292000EE0FFF1FEF54FE4F8591949108957D3F68
:1029300059F4611116C08630B8F424E0829FF0018A
:102940001124EF55FA4FF0CF7C3F59F4611109C0C3
:10295000863050F494E0899FF0011124ED55FA4F30
:10296000E3CF80E090E0089581E0FCCF1F93CF9308
:10297000DF930E94DB13EC01C11580E5D807F0F569
:10298000C11580E4D80708F0AAC0C03ED10520F5E3
:10299000CD3CD10508F090C0C83AD10578F4C53ACD
:1029A000D10508F081C0C130D10519F1209709F196
:1029B000C430D105F0F4D0E0C0E01BC0C33CD10569
:1029C000D0F7C85AD0E0CC0FDD1FC85ADE4F0990AF
:1029D000D881C02DD4640DC0C11580E2D80708F09D
:1029E000C9C0C11581E0D80708F068C0C83ED1054C
:1029F00010F7CE01DF91CF911F910895C03682E587
:102A0000D80718F5C03482E5D80708F079C0C0327D
:102A100082E5D80708F06DC0C11582E5D80708F433
:102A20008FC02C2F2695269580E2289F9001112497
:102A30008C2F8370C1E0D0E002C0CC0FDD1F8A95DF
:102A4000E2F7C22BD32BDD68D4CFC03C82E5D80798
:102A5000F8F4C03A82E5D80708F067C0C03882E5CC
:102A6000D80708F0A8CF2C2F26952695277080E24E
:102A7000289F900111248C2F8370C1E0D0E002C008
:102A8000CC0FDD1F8A95E2F7C22BD32BDA68B1CFCA
:102A9000C03E82E5D80708F08ECFDC2FCC27CC27AC
:102AA000DF71C06FD06AA5CFC55AD0E0CB5ADE4FD8
:102AB000C881D0E0D0649DCFD0659BCF8D2F0E9480
:102AC0008C13182FCE0199270E94DB13C12FD0E061
:102AD000DC2FCC27CC27DF71C82BD92B8ACFCE0196
:102AE00099270E94DB13CC27DF70C82BD92BD06A23
:102AF00080CFCF71D0E0DC2FCC27C16FD06A79CFE7
:102B00002C2F26952695277080E2289F900111246E
:102B10008C2F8370C1E0D0E002C0CC0FDD1F8A95FE
:102B2000E2F7C22BD32BDC6864CF8C2F8F710E940D
:102B30008C13C82FD0E0DC2FCC27CC27DF7159CFE6
:102B40008C2F8F710E948C1355E0D695C7955A959E
:102B5000E1F7CF70D0E0DC2FCC27282F30E084FFC6
:102B600005C044E0220F331F4A95E1F7C22BD32B57
:102B7000D0693FCF8D2F8F710E948C13182FCE01FB
:102B800099270E94DB13C12FD0E0DC2FCC27CC2764
:102B9000DF71C82BD92BD0622CCF8091DC059091AE
:102BA000A305981301C008958F5F8770FACFB0E036
:102BB000A0E0EDEDF5E10C94AB337C0100918D04C8
:102BC00010918E048091910390919203082B192B00
:102BD000CFE0D0E0CC24C394D12CBC2EC6010C2E67
:102BE00002C0880F991F0A94E2F780239123892B52
:102BF00049F4219790F7B12C8B2DCDB7DEB7E9E0E2
:102C00000C94C733B7018C2F0E947D140E94B61418
:102C1000019779F3F1CFCF93DF93EC010E94D715A1
:102C2000BE010E947D140E94B614DF91CF910895D9
:102C3000A82FA77023E0969587952A95E1F7880F2E
:102C4000991F880F991FFB01E80FF91F50E040E022
:102C500080E0219130E00A2E02C0369527950A9433
:102C6000E2F721703327042E01C0220F0A94EAF7FD
:102C7000822B4F5F5F4F4430510559F70895292F3C
:102C80009C3068F4873090F490E06DE073E037E0BA
:102C9000239F800D911D11240E94181608952C5F0A
:102CA000223020F469E073E090E0F6CF80E00895F0
:102CB000262F277091E001C0990F2A95EAF723E0AB
:102CC000769567952A95E1F7660F771F660F771F50
:102CD000FA01E60FF71F50E040E0682F70E08191A5
:102CE000DF0111979B01042E02C0369527950A94A7
:102CF000E2F7217021952827292328272C934F5F5D
:102D00005F4F4430510559F70895282F862F9C3086
:102D100070F4273058F4622F70E027E0929F600D26
:102D2000711D11244DE053E00E94581608959C5FD8
:102D30009230E0F7622F70E049E053E0F5CF9093D6
:102D40008E0480938D04089521E030E002C0220FAC
:102D5000331F8A95E2F72095309580918D049091EC
:102D60008E04822393230E949F16089521E030E071
:102D700002C0220F331F8A95E2F780918D04909153
:102D80008E04822B932B0E949F160895909392039A
:102D9000809391030895FC0124812223C1F0808156
:102DA00091810E940B1692959F70963091F058F485
:102DB000925F9F70923058F4803F19F030F4883E53
:102DC00030F481E008959A5FF4CF843FD1F380E03E
:102DD0000895883EB0F3813FD1F7F3CFA6E0B0E08D
:102DE000E4EFF6E10C94B13326E0FC01DE0111962C
:102DF00001900D922A95E1F7FC01258189819A8144
:102E0000222399F0662389F00E94D715182F682F86
:102E100089819A810E94851669817A81812F0E9419
:102E20007D142696E3E00C94CD330E943F16182FB4
:102E3000F3CFE0E2F6E08FEF819396E0E936F90711
:102E4000D9F780915607807F8260809356078091E2
:102E5000570780788567809357070895A7E0B0E00B
:102E6000E4E3F7E10C94A533782E85E9A82E83E0FE
:102E7000B82E10E095E0692E4E0183E0880E911C7B
:102E800055245394F501E1905F01EE2071F100E0CB
:102E9000FF24F3948E2D8F2121F1F401862D1192C0
:102EA0008A95E9F709831A830E946D079C838B83B7
:102EB0005D827E8261E0CE0101960E94EE166C0179
:102EC00083509E478934910530F44E81B60180913C
:102ED00006030E942804BE016F5F7F4FC6010E9457
:102EE000990F0F5FFF0C0730A9F61F5F1C3051F6DA
:102EF0002796EFE00C94C1339B01BA01909199059C
:102F00009430E1F48093E9009FEF8091E8009150C4
:102F100085FD06C085ED8A95F1F700009111F5CF8A
:102F20008091E80085FF0AC050E040E0C9010E949E
:102F300019068091E8008E778093E800089543E0B9
:102F400050E0BC0182E00E947C170895CF93DF938C
:102F5000EC0148E050E0BC0181E00E947C1788E071
:102F6000FE01AFE8B5E001900D928A95E1F7DF919F
:102F7000CF91089580919004882341F1539A3BB1F9
:102F8000377F2BB128604FB7F89481E994E0FC01BA
:102F90005191CF0168E02BB9000000C057FF3BB949
:102FA000550F000000C000C000C03BB900C06A95CA
:102FB00091F7F5E085379F0751F74FBF8FE594E014
:102FC0000197F1F700C00000109290040895B0E05E
:102FD000A0E0EDEEF7E10C94AA337C015B016A01FD
:102FE00080917D0301E010E08A3010F40AE010E0E7
:102FF000C1E0D0E0B501C701F6010995811104C017
:1030000021960C171D072CF4CDB7DEB7EAE00C941F
:10301000C633CC9F9001CD9F300D300D112490E030
:1030200080E045E34A95F1F7000001968217930787
:10303000C1F7E0CFB0E0A0E0E0E2F8E10C94A53306
:10304000D82E80914C018D1124C090911806937058
:1030500020914B0130E081E09217130609F480E0E3
:1030600081708093500180911D0690914F019817B7
:1030700039F080934F0140E060E080E00E941C0B3B
:1030800026E22D1560F0ED2DF0E0E05DFA4C0C9499
:10309000013481E0E5CF80915001811102C080E0D0
:1030A00045C040E060E080E00E941C0BF8CF8091BA
:1030B0004E010E942109C82F192F609119067091A5
:1030C0001A0680911B060E94920C062FF72EE82EFE
:1030D000D0E0C11720F081E01C3440F1E0CFFE01C8
:1030E000E055FD4F808190914F01892331F02E2DC5
:1030F000402F6F2DCE010E941F0B2196EACF8091A9
:103100004E010E942109092FF0901A06E0901B063B
:1031100020911C0610E4129F112D1124C82FD0E01D
:10312000C017E0F081E00C3408F0B9CF90914E0167
:103130009F5F90934E0181110CC082E080935101FA
:1031400080915001811105C0D11003C083E08093AC
:103150005101CDB7DEB7EFE00C94C133FE01E0556D
:10316000FD4F808190914F018923B9F0FE01EE0F50
:10317000FF1FE75EFD4F808182958F706091190679
:10318000819F600D11247F2D8E2D0E94920C462F61
:10319000282F672FCE010E941F0B2196C1CF80914F
:1031A0004E010E942109092FF0901A06E0901B069B
:1031B00020911C0610E4129F112D1124C82FD0E07D
:1031C000C01708F0AFCFFE01E055FD4F8081909110
:1031D0004F018923D9F0FE01EE0FFF1FE85EFD4F7E
:1031E0006081169FB001112425E0759567952A9599
:1031F000E1F780911906680F7F2D8E2D0E94920CA9
:10320000462F282F672FCE010E941F0B2196D8CF63
:1032100080914E010E942109C82F192F0091190693
:10322000D0911A06F0901B0660911C066695669573
:1032300066958091DD059091DE050E94880C0E94C4
:10324000EE0B805887FD8195880F282F3F2D239FF7
:10325000212D1124822F602F7D2F0E94920C062F8A
:10326000F72EE82ED0E0C11708F035CFFE01E0556B
:10327000FD4F808190914F01892331F02E2D402FF9
:103280006F2DCE010E941F0B2196EDCF83EF9AE0A8
:103290000E94500E4BCF89EC9AE0FACF80ED9BE074
:1032A0000E944A0F43CF81EB9BE0FACF86E99BE077
:1032B0000E94E40E3BCF8AE79BE0FACF87EC9AE0CE
:1032C000E7CF8EEB9AE0E4CF85EB9AE0E1CF8CE993
:1032D0009AE0DECF8EE89AE0EBCF80E69CE0E0CF8C
:1032E00089E69BE0DDCF85E59BE0E2CF81E69AE0D1
:1032F0000E94940E1BCF83E39AE0FACF8CEF99E003
:10330000F7CF80914E010E942109C82F192FF0900C
:103310001A0600911B06D091190660911C0666954D
:10332000669566958091DD059091DE050E94880C7A
:103330000E94EE0B805887FD8195880F682F2CE046
:10334000629F612D11246D0F7F2D802F0E94920CA2
:10335000062FF72EE82ED0E0C11708F0BCCEFE01F4
:10336000E055FD4F808190914F01892331F02E2D42
:10337000402F6F2DCE010E941F0B2196EDCF8DE0C7
:103380009CE086CF8BEE99E083CFC0901B06A3E034
:10339000CA9EE0011124D695C795D695C7955C2E97
:1033A000AC2CB12C8FEF90E0B5010E94ED33762E5E
:1033B00080915001882371F040E060E080E00E943D
:1033C0001C0BE2E0F4E084E5DF011D928A95E9F749
:1033D00010920104809100048F5F8093000410E03C
:1033E00000E0AC1ABD0A7801612CC8018E5F9B4FCA
:1033F0004C0180910104862909F040C00E94533499
:1034000085359540DCF5F401C082F701EC53FE4FA1
:10341000E081EF3FC9F0D701AE5FBB4F2C91F0E0E8
:103420005216E0F530E02C1B3D0B2C9FC0012D9F68
:10343000900D3C9F900D1124B5010E94D933262F89
:103440004C2DCF010E941F0B6394F7E0EF0EF11C8F
:103450002CE06212CECF0F5F1F4F0730110519F617
:1034600080910004781202C010920004809101043F
:103470008F5F8D31E8F48093010411CEF701EE5F88
:10348000FB4F8081882309F28C1508F0BECF909104
:1034900000047912BACF81508083B7CFC29EC00199
:1034A0001124BE010E94D933462F20E060E0C9CF2D
:1034B0001092010448E454E02BE069E074E03FEF2F
:1034C0003C0D82E094E0FA012B3039F4DC01A35B7F
:1034D000BF4FCC91CC1201C03C93A081AC1510F031
:1034E0003083C782019631966817790769F72150B2
:1034F000475051092111E5CFD2CD84EE99E00E94C9
:10350000E60D14CE8DED99E0FACF8091E10521E032
:10351000382F321B08F430E0832F64EC79E00E94EE
:10352000260D04CE64EC79E080E0F9CF8091E105CE
:1035300021E0382F321B08F430E0832F69E879E06E
:10354000EECF69E879E0F0CF8091E10521E0382FF6
:10355000321B08F430E0832F67E579E0E0CF67E5C0
:1035600079E0E2CF8091E10521E0382F321B08F4A9
:1035700030E0832F6FE379E0D2CF6FE379E0D4CFEF
:103580008091E10521E0382F321B08F430E0832FD1
:1035900069E279E0C4CF69E279E0C6CF80914E015B
:1035A0000E942109C92F0E945334D82F0E945334FE
:1035B0006D2F782F80911B060E94920C482F872F29
:1035C0000E941C0B81E0CC3408F4B0CD68CD4F9242
:1035D0005F926F927F928F929F92AF92BF92CF92A3
:1035E000DF92EF92FF92CF936091890470918A04E9
:1035F00080918B0490918C040E946B136B017C0171
:103600000E9451134B015C018092890490928A04BC
:10361000A0928B04B0928C04A0915604E6E5F4E0ED
:103620008A2F90E04FEF5FEF60E070E04C195D098A
:103630006E097F09A9132AC08093560480918F04D4
:10364000C0E0811108C080911806C82FC37019F01E
:10365000C82FC695C69580915101813009F440C0AC
:10366000882339F1823009F420C1833009F428C15C
:10367000CF91FF90EF90DF90CF90BF90AF909F9051
:103680008F907F906F905F904F900895278D30A11D
:103690002901712C612C441555056605770520F428
:1036A00081509F5F3296C6CF2C0D3D1D30A3278FD2
:1036B000F8CF10924E018092DD059092DE05A09227
:1036C000DF05B092E00583E3E6E5F4E0A1EEB5E0C6
:1036D00001900D928A95E1F781E080935101C8CF66
:1036E0008C2F0E941A18CC2319F28091510182303C
:1036F00061F580911806837041F120918D0430911D
:103700008E04832F9927009731F19C0188E0A9014D
:1037100074E0569547957A95E1F74115510511F0FA
:103720008C5F9A01A9015695479556954795411585
:10373000510511F08E5F9A0136952795232B09F0DC
:103740008F5F813051F0853081F080914E01815042
:103750000E9421098DCF80E0DACF23E343E363E3C6
:1037600090E080E00E941F0BF0CF20E049E163E38E
:103770008EE290E00E941F0B23E343E363E380E3C8
:1037800090E00E941F0B23E343E363E38CE390E0AC
:103790000E941F0B20E043E363E389E490E00E9472
:1037A0001F0B20E043E363E388E490E00E941F0BDB
:1037B00020E043E363E381E090E00E941F0B20E000
:1037C00043E360E08DE090E00E941F0B20E043E3C4
:1037D00063E38EE090E00E941F0B20E043E360E093
:1037E00089E190E00E941F0B29E143E360E083E060
:1037F00090E00E941F0B23E340E060E086E090E051
:103800000E941F0B23E340E060E089E090E00E940B
:103810001F0B23E340E060E082E190E00E941F0B79
:1038200023E340E060E085E190E00E941F0B23E38A
:1038300040E060E08DE190E00E941F0B23E340E058
:1038400060E080E290E00E941F0B23E340E060E034
:1038500084E290E00E941F0B23E340E060E087E2F7
:1038600090E00E941F0B23E340E060E08FE190E0D6
:103870000E941F0B23E340E060E085E290E00E949D
:103880001F0B26E249E163E386E290E00E941F0BF2
:1038900020E040E063E388E290E00E941F0B20E01C
:1038A00049E163E389E290E05DCFC0934C018091F0
:1038B0001806837080934B010E94BA1783E00DCFE6
:1038C00080911706882351F048E050E068E170E0ED
:1038D00088E196E00E949734109217066091DD050A
:1038E0007091DE058091DF059091E0050E946B13D9
:1038F000603171058105910508F4BACE109251012D
:10390000B7CEA4E0B0E0E7E8FCE10C94B13340911D
:10391000790350917A0360917B0370917C032FB7F8
:10392000F8948091880590918905A0918A05B091BD
:103930008B052FBF841B950BA60BB70B11E08436AC
:103940009105A105B10570F10E9451136E5F7F4F83
:103950008F4F9F4F69837A838B839C8380912D0146
:1039600090912E018B599C4F40912C0150E0453095
:10397000510510F044E050E0BE016F5F7F4F0E94A0
:10398000703485E090E00E942C33182F882351F08A
:103990000E9461076093790370937A0380937B039D
:1039A00090937C03812F2496E3E00C94CD334F92C7
:1039B0005F927F928F929F92AF92BF92CF92DF924F
:1039C000EF92FF920F931F93CF93DF930F92CDB798
:1039D000DEB7C62E4A015901482E880F5508C2018C
:1039E0000E942C33782E882309F480C0C20133E072
:1039F000880F991F3A95E1F7FC01EC5FFE4F438178
:103A000050E04115510511F041E050E08C5F9E4FB0
:103A1000FC01648175816B597C4FCE0101960E9437
:103A20007034F40140815181628173812FB7F89421
:103A30008091880590918905A0918A05B0918B05A8
:103A40002FBF841B950BA60BB70B84369105A105E0
:103A5000B10540F4B701C8010E94EE0799818917AA
:103A600009F444C00C2C000CDD08C6010E942C3364
:103A7000782E811113C0712C872D0F90DF91CF917B
:103A80001F910F91FF90EF90DF90CF90BF90AF907C
:103A90009F908F907F905F904F900895C60123E094
:103AA000880F991F2A95E1F7FC01EC5FFE4F4381D7
:103AB00050E0E416F50608F4A7018C5F9E4FFC0168
:103AC000648175816B597C4FC5010E947034B701C8
:103AD000C8010E94EE0799818913CDCF0E9461072A
:103AE000F4016083718382839383C6CFA701B801F9
:103AF000C5010E947034C0CFA8E0B0E0E2E8FDE16B
:103B00000C94AE3388E0E82EF12C0DE613E09E0114
:103B10002F5F3F4F41E653E063E082E00E94D71CF5
:103B2000082F882389F190916C0380916003981786
:103B300059F110E09091700380916F038917F1F0B3
:103B4000E92FF0E0E759FC4F808587FB662760F995
:103B50009F5F93709093700390916E039F5F90931B
:103B60006E038F770E944308182F8111E3CF84E002
:103B700090E00E942C33012F082302C01111F7CFCF
:103B800080916C0380936003802F2896E6E00C946C
:103B9000CA33A6E0B0E0EFECFDE10C94AC336B016E
:103BA00086E0E82EF12C06E613E09E012F5F3F4FE2
:103BB0004CE553E061E080E00E94D71C882349F087
:103BC00096E0FE013196A6E5B3E001900D929A953C
:103BD000E1F796E0E6E5F3E0D60101900D929A95C3
:103BE000E1F72696E8E00C94C833A2E1B0E0EBEFF1
:103BF000FDE10C94A7338E010F5F1F4F8CE0F8019D
:103C000011928A95E9F780E9C82E81E0D82EF12C2F
:103C1000E12CAA24A394B12C2DE9822E21E0922E2E
:103C2000F60181916F018F3F09F442C0F894E82FAB
:103C3000E295EF70F0E021A18F70A50102C0440F62
:103C4000551F8A95E2F7CA01922F982B91A392A152
:103C50008095892382A3789400C0E6E9F1E0712C75
:103C600031E021912F3F09F495C0A22FA295AF70AA
:103C7000B0E090968C9190E02F7002C0959587955A
:103C80002A95E2F780FD86C0832F782A330F8E169F
:103C90009F0639F7F601319780818F3F11F00E941E
:103CA0003A1350EA5A95F1F7F801EE0DFF1D7082B4
:103CB0008FEFE81AF80AE6E0EE16F10409F0B0CF4B
:103CC0004CE050E0B80183E893E00E946334009731
:103CD00041F02CE0F801A3E8B3E001900D922A95A1
:103CE000E1F70091900310E00B561C4F892B09F46B
:103CF00053C081E080934E030E946D0790934D0363
:103D000080934C03D12CC0907F05CC2009F49BC03C
:103D10007E01FDE0EF0EF11C86E0F70111928A951D
:103D2000E9F780917D038A3008F05AC049EC5DE1E3
:103D3000B701C8010E94E717882309F473C04CE754
:103D40005DE1B701C8010E94E717882309F46AC042
:103D500041E85CE1B701C8010E94E717882309F434
:103D600061C010927D0380918F0390E046E050E0A7
:103D7000B7018B569C4F0E94633421E0209355037A
:103D8000892B09F042C0C12C8C2D8D296296EDE063
:103D90000C94C33380E079CFD0904E03DD2009F43A
:103DA000B1CF80914C0390914D030E94520705972B
:103DB00008F4A8CF46E050E063E873E0C8010E9431
:103DC0006334892B59F086E0E3E8F3E0D8010190F1
:103DD0000D928A95E1F710924E0395CFD12CFBCF2F
:103DE00080914F03909150030E945207843F91406D
:103DF00008F09CCF80915503882329F286E0F701D3
:103E000011928A95E9F710925503A0918F03B0E0C3
:103E1000AB56BC4F86E0FE013D9601900D928A950F
:103E2000E1F7B2CF80917D038F3F31F08F5F8093B8
:103E30007D038A3008F497CF0E946D07909350035A
:103E400080934F03D7CF86E0F801A6E6B3E0019058
:103E50000D928A95E1F766E070E086E693E00E94B5
:103E6000EE078093650388E0E5E7F5E0ADE6B3E0B3
:103E700001900D928A95E1F768E070E08DE693E09D
:103E80000E94EE0780936C038090750390907603F8
:103E9000A0907703B09078038091510390915203E2
:103EA000A0915303B091540388169906AA06BB0645
:103EB00009F46ACF8092510390925203A092530367
:103EC000B09254030E946107861A970AA80AB90A99
:103ED00080927E0390927F03A0928003B092810330
:103EE00053CF8091410390914003892B8093FE0230
:103EF00048E050E062E473E08EEF92E00E946334A9
:103F0000892BA9F088E0EEEFF2E0A2E4B3E00190A3
:103F10000D928A95E1F7E0918305F0918405309741
:103F200031F00280F381E02D8EEF92E00995089543
:103F300010924103E0E0F3E086E0DF011D928A95F4
:103F4000E9F790E080E00E94B80790E080E00E94EE
:103F50009307109240030E94711F0895AAE2B0E0F7
:103F6000E4EBFFE10C94B1338BE995E02091F10093
:103F7000FC012193CF01F5E0833A9F07B9F78091C7
:103F80009C05833009F470C0B8F4813009F447C04F
:103F9000823009F4B1C08091E80083FF88C280912B
:103FA0009B0590919C059A3008F081C2E92FF0E0C2
:103FB000E95AFA4C0C9401348A3009F48CC08B30E5
:103FC00009F46FC0893039F780919B05813219F768
:103FD00080919F059091A0050297E8F68091E800F6
:103FE000877F8093E8008091E80082FF38C090913D
:103FF000F3008091F200029731F48091F10081305A
:1040000011F0863021F48091F10080938E0580912B
:10401000E8008B778093E8000E944306BCCF809134
:104020009B05813A09F0B7CF8091E800877F8093A4
:10403000E80080919F059091A005892B61F468E0CC
:104040008FE895E070E00E94EF068091E8008B77A2
:104050008093E800A0CF60E090E080E0F3CF809113
:1040600099058111C0CF97CF80919B05813A09F0C6
:1040700092CF80919F059091A005892B09F08BCF5D
:104080008091E800877F8093E8008091E80080FFBE
:10409000FCCF80914D018093F1008091E8008E77F4
:1040A000B9CF80919B05813209F075CF80919F0532
:1040B0009091A005892B09F06ECF8091E800877F51
:1040C0008093E8000E94430680919D0580934D01F6
:1040D0000E94981F60CF80919B05813209F05BCFD1
:1040E0008091E800877F8093E8000E9443068091DA
:1040F0009E0580938D054FCF80919B05813A09F0F5
:104100004ACF8091E800877F8093E8008091E800A3
:1041100080FFFCCF80918D05BECF803899F082382A
:1041200009F0C5C180919F058F70873008F0BFC12D
:104130008093E9008091EB0085FB882780F910923D
:10414000E90006C0809197059091980591118260D1
:104150009091E800977F9093E8008093F10010928F
:10416000F1008091E8008E779EC1882309F48CC10C
:10417000823009F09CC180919D0581118FC1809191
:104180009F058F702FEF280F263008F090C1809385
:10419000E9002091EB0020FF81C1933031F4809140
:1041A000EB0080628093EB0079C19091EB0090610D
:1041B0009093EB0021E030E001C0220F8A95EAF7EE
:1041C0002093EA001092EA008091EB008860EACF29
:1041D00081116DC110919D051F778091E30080785A
:1041E000812B8093E3008091E800877F8093E80033
:1041F0000E9443068091E80080FFFCCF8091E3009D
:1042000080688093E30082E0111183E08093990538
:104210004EC18058823008F04AC180919D0590912E
:104220009E058C3D23E09207A1F583E08A838AE214
:1042300089834FB7F894DE01139620E03EE051E207
:10424000E32FF0E050935700E49120FF03C0E29584
:10425000EF703F5FEF708E2F90E0EA30C0F0C796AE
:104260008D939D932F5F243159F74FBF8091E800C4
:10427000877F8093E8006AE270E0CE0101960E9499
:10428000EF068091E8008B778093E80010C1C0961C
:10429000E7CF40919F055091A005292F3327233068
:1042A000310509F444C078F52130310509F46FC0B7
:1042B0008FE990E0EFE2F7E02230310509F0F7C036
:1042C0002091E800277F2093E8002091A1053091FC
:1042D000A2058217930708F49C0140E021153105DF
:1042E00009F064C0411162C08091E80082FDC9CF2D
:1042F00080919905882329F2853019F28091E80090
:1043000083FFF2CFBECF21323105A9F12232310530
:1043100009F0CDC04115510509F443C041305105A4
:1043200009F0C5C082E390E0E9EBF6E0C9CF992738
:1043300081309105C1F0009759F0029709F0B7C09C
:10434000E0EEF7E0E4918E2F90E0E0EEF7E007C0BA
:10435000EEE0F8E0E4918E2F90E0EEE0F8E00097D8
:1043600009F4A5C0ADCFEEEFF7E0E4918E2F90E019
:10437000EEEFF7E0F4CF4115510571F041305105F2
:1043800009F095C089E090E0EAE5F7E099CF82E195
:1043900090E0EEECF7E094CF89E090E0E1E4F7E024
:1043A0008FCF84E490E0EBEEF6E08ACF8091990520
:1043B000882309F466CF853009F463CF8091E80043
:1043C00083FD5FCF8091E80082FD8ECF8091E80071
:1043D00080FF84CF9091F3008091F2002115310588
:1043E00019F08830910550F041E0089709F040E05D
:1043F0008091E8008E778093E80070CF44914093DD
:10440000F1003196215031090196E8CF803809F04A
:104410004EC08091E800877F8093E80080919A05E4
:104420008093F1009ECE811142C010919D05123003
:10443000F0F58091E800877F8093E80010939A055B
:104440000E944306112311F084E005C08091E3002F
:1044500087FDFACF81E08093990542E061EC81E02D
:104460000E94620642E261EC82E00E94620642E340
:1044700061E883E00E94620642E360E884E00E9413
:1044800062068091990513C080919D05813079F471
:1044900081E0933009F080E0809398051092E90064
:1044A0008091E800877F8093E8000E944306809116
:1044B000E80083FF0AC08091E800877F8093E800CE
:1044C0008091EB0080628093EB00AA96E3E00C946D
:1044D000CD330E94981F2FEF84E39CE02150804051
:1044E0009040E1F700C0000088E19AE00FB6F89430
:1044F000A895809360000FBE90936000FFCF882343
:1045000041F08095909141038923809341030E945B
:10451000711F0895882339F090914103982B90934F
:1045200041030E94711F08958823C1F19CEF980FE9
:10453000913A78F4E0E0F3E09191891303C0DF0150
:1045400011971C9243E0E630F407B1F70E94711F07
:10455000089590E2980F983088F4877021E030E059
:10456000A90102C0440F551F8A95E2F7CA01809540
:1045700090914103892380934103E8CF9BE5980FF5
:10458000933028F490E080E00E94B8070895885A9C
:104590008B3120F490E080E00E9493070895CF9340
:1045A000C82F8823B1F08CEF8C0F813A00F5E0E042
:1045B000F3E086E093E0DF012D91C21761F08A17E6
:1045C0009B07D1F76C2F8EEF92E00E9479070E9433
:1045D000711FCF9108952191C21303C0DF0111977C
:1045E0001C928E179F07B9F70E94711FEBCF80E2D4
:1045F0008C0F883068F4C77021E030E001C0220FD2
:10460000CA95EAF780914103822B80934103DFCF63
:10461000EBE5EC0FE33040F4F0E0EB5AFE4F808125
:1046200090E00E94B807D5CFC85ACB3190F6EC2F56
:10463000F0E0EE0FFF1FE85AFE4F808191810E944B
:104640009307C7CF1F93CF93DF93182FEB010E94DF
:10465000CF22209739F4812F0E949422DF91CF91AD
:104660001F9108958FE99FE00197F1F700C00000C6
:104670002197EFCF0F931F93CF93DF93C62FD42FA4
:10468000022FFC0185818823A9F0609316060E9401
:104690006D079093150680931406C77081E001C0E2
:1046A000880FCA95EAF70E948A22DF91CF911F9165
:1046B0000F91089580911606681334C080911406F6
:1046C000909115060E945207883C910558F510E21A
:1046D0001D0FCD17B9F080E28C0F883040F4C77001
:1046E00081E001C0880FCA95EAF70E947F22183046
:1046F00048F481E09D2F977001C0880F9A95EAF7E2
:104700000E948A226AE070E0802F0E9422231830E3
:1047100060F6D77081E001C0880FDA95EAF70E9451
:104720007F22C3CFC77081E001C0880FCA95EAF726
:10473000F6CFB0E0A0E0EFE9F3E20C94AA338C01ED
:10474000FC0184818823F1F161E0C8010E94EE162A
:10475000EC018230FEE79F0739F181302EE79207A6
:1047600009F40EC1A0F481159E47B9F1B801CE013C
:104770000E94990F882331F1FE01E851FC47E73090
:10478000F10508F02EC1EF59FA4C0C940134835016
:104790009E478934910550F7F8014581BE0180910B
:1047A00006030E9428040EC0F8018581882379F051
:1047B00080E00E942E1782E090E00E949F1681E028
:1047C0000E942E17CDB7DEB7EAE00C94C63380E026
:1047D0000E942E1781E090E0F0CFF80185818823B8
:1047E00089F3CCE5D1E08AE0A82EFE0124912223B2
:1047F00049F3213009F044C031968491813069F445
:104800002296FE0184916AE070E0893311F460E53C
:1048100070E00E9422232196E8CF823031F4229664
:10482000FE0184910E94CF22F6CF833031F422968C
:10483000FE0184910E949422EECF843009F09EC044
:104840002296FE01249190E080E0FE0131962053F3
:10485000330B2A30310548F00197E8F2EFE9FFE029
:104860003197F1F700C00000F7CFA89EA001A99EE4
:10487000500D1124C901840F951F2491EF01E5CF3C
:10488000E22FF0E0E452FF4FB490822F8695869598
:10489000869590E0FC01E453FF4FE4902770F12CE3
:1048A000022E02C0F594E7940A94E2F731E0E32285
:1048B000FF24FC01E454FF4FC490D12C022E02C00F
:1048C000D594C7940A94E2F741E0C422DD24FC01A8
:1048D000E455FF4F049110E002C0159507952A9505
:1048E000E2F701701127E114F10449F081EE0E9412
:1048F000CF228FE39CE90197F1F700C00000C114BB
:10490000D10449F086EE0E94CF22EFE3FCE9319713
:10491000F1F700C000006AE070E08B2D0E942223B6
:104920008FE39CE90197F1F700C00000C114D104A6
:1049300049F086EE0E949422EFE3FCE93197F1F70B
:1049400000C00000E114F10449F081EE0E949422BD
:104950008FE39CE90197F1F700C0000001151105F4
:1049600009F459CF6AE070E08CE20E942223EFE361
:10497000FCE93197F1F700C000004DCFEF014BCFBC
:10498000F8018581882309F41DCF8091070391E008
:10499000892780930703882319F09093060312CF89
:1049A000109206030FCF26E241EE61EEC8010E948D
:1049B0003A2308CF27E245EE65EEF8CF26E241EE36
:1049C00060EEF4CF27E245EE64EEF0CF26E241EE52
:1049D00062EEECCF27E245EE66EEE8CF28E241E05A
:1049E000EBCFF8019581992309F4F3C210921606D2
:1049F0009E0130572332310508F0D5C284E090E0A3
:104A00000E9491349093940380939303FE01E150AC
:104A1000F047E232F10520F4E859FA4C0C940134E5
:104A20008091930381608093930395C08091940358
:104A30008860809394038FC0809193038260F3CF4A
:104A4000809193038460EFCF809193038860EBCFD4
:104A5000809194038160EDCF809194038260E9CFCF
:104A6000809193038061DFCF809193038062DBCFDD
:104A7000809193038064D7CF0E94981F8091930305
:104A80008068D1CF809193038C60CDCF80919403C7
:104A90008360CFCF809193038E7FC5CF80919403A5
:104AA000877FC7CF809193038D7FBDCF8091930384
:104AB0008B7FB9CF80919303877FB5CF809194038B
:104AC0008E7FB7CF809194038D7FB3CF8091930376
:104AD0008F7EA9CF809193038F7DA5CF8091930383
:104AE0008F7BA1CF0E94981F809193038F779BCFDC
:104AF00080919303837F97CF809194038C7F99CF8C
:104B00008091930382FB992790F921E0922790FBF3
:104B100082F990FB83F987CF80919403982F909529
:104B200091708E7F892B90FB81F983CF90919303B5
:104B3000892F8F7B96FF806476CF0E94981F90917B
:104B40009303892F97FB87F980586DCF61E08EE042
:104B500090E00E94A734609193037091940384E0E5
:104B600090E00E94C5340E94981F2CCE60E0EFCFE9
:104B700090919303892F8F7E94FF806154CF909101
:104B80009303892F8E7F90FF81604DCF9091940386
:104B9000892F877F93FF88604CCF85E324C2809163
:104BA000180691E089278093180610925101809190
:104BB000170681608093170605CE4CE059E066E148
:104BC00079E00E946708FECD46E159E06CE079E0AB
:104BD000F8CF48EF58E062E079E0F3CF42E059E0E7
:104BE00068EF78E0EECF4EED58E06BEE78E0E9CF7D
:104BF0004BEE58E06EED78E0E4CF44EC58E061ED28
:104C000078E0DFCF41ED58E064EC78E0DACF48EAB5
:104C100058E066EB78E0D5CF46EB58E068EA78E0FC
:104C2000D0CF81E00E949B04CDCD84E0FBCF8CE00F
:104C3000F9CF81E1F7CF6FEF7FEF90E080E00E9446
:104C4000C5340E946922F801C081D181992309F1FC
:104C5000CE010E94D715F82E682FCE010E9485162E
:104C6000BE018F2D0E947D140E94B614C82FD82E2D
:104C7000F8012581368132953F70892F82958F709A
:104C8000E82EF12C8C30E8F5F701E657FA4C0C943D
:104C90000134CE010E943F16F82EE2CFD92FDF70EB
:104CA000907F11F0D295D07F8C2F2223C9F0DD2385
:104CB00069F090E29C0F983010F0C1110BC0809108
:104CC0004103D82BD09341030E94711F8C2F0E9467
:104CD000CF2217C080914003D82BD0934003F4CF4C
:104CE0000E949422DD2369F0D095C05EC83010F098
:104CF000D11015C080914103D823D09341030E9465
:104D0000711F98E0E91AF108E4E0EE16F10410F4DE
:104D10000E94DD0760E0C8010E94EE1653CD80912D
:104D20004003D823D0934003EACF892F8F70907F20
:104D3000903211F08295807FF1E0DF120CC02223C7
:104D400029F03630F0F60E948A22DBCF3530C8F6E3
:104D50000E947F22D6CF222319F03323A1F3B6CFAE
:104D60003323B1F3C93309F016C12FEF37EE43E017
:104D7000215030404040E1F700C000008C2F0E94DD
:104D80009422BFCF892F86958695837061F08130FC
:104D900009F0B7CF8C2F9370211102C080E090E012
:104DA0000E949307AECF8C2F9370211102C080E038
:104DB00090E00E94B807A5CF892F837009F042C008
:104DC00021119FCF8C2F829586958770880F880F31
:104DD0002C2F2F7030E0082E02C0220F331F0A94B0
:104DE000E2F750E040E0C4FF09C04FE050E002C0ED
:104DF000440F551F8A95E2F74095509596959695E4
:104E000093709230A9F080F46091910370919203B5
:104E1000913041F0C901842B952B862397230E9462
:104E2000C6166FCF262B372BC901842B952BF7CFB6
:104E3000C901842B952B20919103309192038227F5
:104E40009327EDCF8695222311F0892F8170882337
:104E500009F457CF8C2F829586958770880F880F1D
:104E60002C2F2F7030E0082E02C0220F331F0A941F
:104E7000E2F750E040E0C4FF09C04FE050E002C05C
:104E8000440F551F8A95E2F7409550959695969553
:104E900093709230A9F080F460918D0470918E042B
:104EA000913041F0C901842B952B862397230E94D2
:104EB0009F1627CF262B372BC901842B952BF7CF95
:104EC000C901842B952B20918D0430918E0482276B
:104ED0009327EDCFD92FDF70222329F08D2F0E9449
:104EE000B6168C2F30CF8C2F0E947F228D2F0E94E0
:104EF000A41607CF8C2FE1EFCE1791F1EC1750F0ED
:104F0000F0EFCF17D1F02223D1F13111DFCE892F6D
:104F10008F712AC042EFC41751F153EFC513F3CF7D
:104F2000222351F19F7121E030E0F90102C0EE0F20
:104F3000FF1F9A95E2F7CF01BACF222369F03530EF
:104F400008F0DFCE292F2F7181E090E002C0880F9A
:104F5000991F2A95E2F7B7CF363008F0D2CEF2CFBC
:104F6000892F8F71222319F20E94B616CACE892F7B
:104F70008F712223C9F3BBCF90E080E098CF332319
:104F800079F0893341F4FFEF27EE33E0F150204010
:104F90003040E1F7F1CE8FE39CE90197F1F7ECCED9
:104FA000892F8F71A4CFC631FCE7DF0749F58091C7
:104FB00041038A7A91E009F490E09093080369E252
:104FC000811165E38EEF92E00E9479070E94711FC4
:104FD000F9CBC6312CE7D20709F03CC08091080319
:104FE0008111DBCD89E2E0E0F3E09191891303C008
:104FF000DF0111971C9223E0E630F207B1F7E6CF0C
:10500000C1303CE7D30709F41CCEC3304CE7D407CA
:1050100009F411CEC115DC4709F015CE0E94981F86
:105020003FEF44E35CE0315040405040E1F700C0C6
:10503000000087E797E7909301088093000888E1D4
:105040009AE00FB6F894A895809360000FBE9093F5
:105050006000FFCF809141038272FE01E052F84769
:10506000E531F10508F0EFCDEA56FA4C0C94013425
:10507000CF93DF9380913F03807F09F04DC08091F3
:105080003E03882309F448C0E091DC055091A30554
:10509000C0913A03D091390360913B0370913C0376
:1050A00047E05E17C9F18E2F90E0E49FF0011124D4
:1050B000EC55FA4F2481222391F1489FF001499F3A
:1050C000F00D1124DF01AC55BA4F11962C911197B8
:1050D0002C1325C02C912D1322C015962C911597B9
:1050E00021111DC012962D913C91261B370B283C97
:1050F0003105A8F480913F038F70806180933F0356
:10510000E655FA4F80818F708061808389E393E058
:105110000E9499230E94CD15DF91CF910895FC0143
:105120003196E770BECFA4E1B0E0E9E9F8E20C9473
:10513000A8338C0186E0F801DE011F9601900D92E4
:105140008A95E1F7F8018481E58099E3A92E93E03F
:10515000B92E90913D03911128C0882319F1EE20BA
:10516000F1F0C8010E94CB16F82E8823C1F087E029
:10517000F801D50101900D928A95E1F780913D03E8
:10518000813031F48091390390913A030E940B16DB
:105190000E9438288F2D6496ECE00C94C433C8012B
:1051A0000E949923FF24F394F5CFD080C1808280A0
:1051B0009380F0903E0320913B0330913C03A40187
:1051C000421B530BFF2009F4D9C0483C510508F09D
:1051D00092C08823F9F290913A0380913F03282FDF
:1051E000207F09F056C0C91214C090913903D9121A
:1051F00010C0E11048C08F70806180933F0389E345
:1052000093E00E94992380913F03F8018683F12C5B
:10521000C1CFE11038C06C2D8D2D0E94C7046C2DBC
:105220008D2D0E94C704E82E8111F1CFDF86C88A38
:105230008F8598890E940B16292F22952F70243074
:1052400058F49F70223088F0992399F0F8019681E4
:10525000907F79F4FE2C9ECF2A5F2F70223068F069
:10526000C8010E949923EF2CF5CF992311F08823D0
:1052700089F3805E883070F3F3CF803F58F3815F0D
:10528000833070F7E7CF80913F03816080933F03C5
:10529000BECFC91207C090913903D91203C0EE20C6
:1052A00009F48DC0C8010E94CB16882309F477CF7A
:1052B000EE2009F474CF80913F03803288F0209172
:1052C000390330913A03398728879B868A869091E3
:1052D0003D039C871D868E87CE0108960E949923E8
:1052E00087E0F801A9E3B3E001900D928A95E1F718
:1052F0000E94382857CF90913F03292F207F51F4E7
:1053000089E393E00E94992387E0F50111928A9541
:10531000E9F77DCF882309F43DCF80913A038C11C2
:1053200010C080913903D8120CC0E1100AC09683D6
:10533000C8010E94992387E0F50111928A95E9F747
:1053400029CFC8010E94CB16882309F428CFEE206C
:1053500009F425CF80913F03803210F22091390368
:1053600030913A033A8329839C828B8290913D034A
:105370009D831E828F83CE010196B0CF483C51059C
:10538000D0F6882309F40ECFFE2CEE2009F407CFC7
:1053900080913A038C1120C080913903D8121CC02F
:1053A00080913F0380FD0FC0982F907F61F086832E
:1053B000903F31F0982F907F905F8F70892B86837C
:1053C000C8010E94992387E0F801A9E3B3E00190A6
:1053D0000D928A95E1F7DECEC8010E94CB168111AD
:1053E0007FCF80913F03816080933F03C8010E947B
:1053F0009923D0CEABE1B0E0E0E0FAE20C94B13317
:105400004E8B5F8B688F798F8A8F9B8F9111109253
:1054100040031D8A86E0FE017696DE011F9601900C
:105420000D928A95E1F78B89882329F061E0CE01FE
:105430000F960E94EE1687E0FE013F96DE01189659
:1054400001900D928A95E1F7CE0108960E9493286B
:1054500081110CC087E0FE013896DE0111960190A3
:105460000D928A95E1F78C8581110BC017E0809130
:10547000DC059091A305891331C06B96E3E00C9491
:10548000CD332091A30530E0C9010196877099279B
:105490004091DC054817190699F097E0929FD001DA
:1054A000939FB00D1124AC55BA4FFE013196019077
:1054B0000D929A95E1F78093A3050E94CD15D6CF62
:1054C0000E94981F1092A3051092DC0587E0E9E383
:1054D000F3E0DF011D928A95E9F7C8CF819FC001F3
:1054E00011248C559A4F0E949328882331F2809181
:1054F000DC0590E00196877099278093DC05B7CF93
:10550000ACE0B0E0E6E8FAE20C94AB3380E00CEFFC
:1055100093E0F92EEE24E3942DEFD22E32E0C32E49
:105520009091780520917705291709F454C0E92F47
:10553000F0E0E758FA4F108117FBBB24B0F81F7753
:105540009F5F937090937805809176058F5F80932D
:105550007605B11008C00E946D071F8308879A87DF
:105560008987FB8607C00E946D071F83D8869A87AC
:105570008987CB86EC864F81588569857A858B85AE
:105580009C850E94FA298FE39CE90197F1F700C0FE
:105590000000BB20C1F00E946D071983DA829C8352
:1055A0008B83CD821E8249815A816B817C818D8162
:1055B0009E810E94FA298FE39CE90197F1F700C0D0
:1055C000000081E0ADCF0E946D0719830A839C83A0
:1055D0008B83FD82E7CF2C96E9E00C94C733A6E0DD
:1055E000B0E0E5EFFAE20C94B0330E946D078C0155
:1055F00080914A0390914B038017910781F01982A3
:105600001A820E946D07682F49815A81792F80E0A4
:1056100090E00E94FA2910934B0300934A032696C8
:10562000E4E00C94CC331F920F920FB60F9211242A
:105630002F933F934F935F936F937F938F939F939A
:10564000AF93BF93CF93DF93EF93FF93D091E90094
:10565000DF708091EC00C82FC17080FDC0E810920F
:10566000E9008091F000877F8093F00078940E9499
:10567000AE1F1092E9008091F00088608093F000E6
:10568000CD2BCF70C093E900FF91EF91DF91CF91C7
:10569000BF91AF919F918F917F916F915F914F914A
:1056A0003F912F910F900FBE0F901F9018951F9252
:1056B0000F920FB60F9211242F933F934F935F9346
:1056C0006F937F938F939F93AF93BF93EF93FF93CA
:1056D0008091E10082FF09C08091E20082FF05C055
:1056E0008091E1008B7F8093E1008091DA0080FF60
:1056F00024C08091D80080FF20C08091DA008E7F86
:105700008093DA008091D90080FF9DC080E189BD3F
:1057100082E189BD09B400FEFDCF81E08093990547
:1057200080918C05811109C00E94C9050E949406D0
:105730008091E20084608093E2008091E10080FF2C
:1057400017C08091E20080FF13C08091E2008E7F3D
:105750008093E2008091E20080618093E20080917A
:10576000D80080628093D80019BC85E080939905A9
:105770008091E10084FF2BC08091E20084FF27C06C
:1057800080E189BD82E189BD89B5982F917080FF44
:10579000FBCF8091D8008F7D8093D8008091E1006D
:1057A0008F7E8093E1008091E2008F7E8093E20003
:1057B0008091E20081608093E20080919A058823C5
:1057C00009F447C084E08093990580919905809100
:1057D000E10083FF27C08091E20083FF23C0809116
:1057E000E100877F8093E10082E080939905109229
:1057F0009A058091E1008E7F8093E1008091E20024
:105800008E7F8093E2008091E20080618093E200CD
:1058100042E060E080E00E9462068091F0008860D3
:105820008093F000FF91EF91BF91AF919F918F9185
:105830007F916F915F914F913F912F910F900FBE8C
:105840000F901F90189519BC1092990510928C0515
:1058500074CF8091E30087FD93E090939905B5CFD5
:1058600078941F921FB61F9211248F939F93AF932A
:10587000BF938091880590918905A0918A05B09188
:105880008B050196A11DB11D809388059093890514
:10589000A0938A05B0938B05BF91AF919F918F9193
:1058A0001F901FBE1F9018951F921FB61F921124A4
:1058B0008F939F93AF93BF9380918705811113C0FE
:1058C0008091880590918905A0918A05B0918B05FA
:1058D0004196A11DB11D8093880590938905A093E1
:1058E0008A05B0938B05BF91AF919F918F911F90C7
:1058F0001FBE1F901895CDB7DEB72C970FB6F89442
:10590000DEBF0FBECDBF85B7806885BF85B7806815
:1059100085BF0E940A1210928E0610929006109275
:105920008F0680EC8093530781E996E090935507AA
:1059300080935407109252071092510710926E06EE
:1059400010926D061092700610926F0610927206F9
:1059500010927106109274061092730610927606D9
:1059600010927506109278061092770610927A06B9
:105970001092790610927C0610927B0610927E0699
:1059800010927D061092800610927F061092820679
:105990001092810610928406109283061092880657
:1059A0001092870685EE92E190936A0680936906CD
:1059B0008CE492E190938A068093890688E292E1D2
:1059C000909386068093850687E292E190936C0619
:1059D00080936B0684B7877F84BF0FB6F894A89531
:1059E00080916000886180936000109260000FBE1B
:1059F00080E890E00FB6F894809361009093610086
:105A00000FBE84E393E19093FD028093FC020E9419
:105A1000C9050E9494068091E20084608093E200B0
:105A20007894809199058823A1F01091E9001F7066
:105A30009091EC00892F817090FD80E8182B1092D6
:105A4000E9008091E80083FD0E94AE1F1F70109353
:105A5000E90082E084BD93E095BD9AEF97BD809305
:105A60006E0010927E0310927F03109280031092BA
:105A7000810388EC90E01091E300111F1127111FA2
:105A800061F4AFE3BCE91197F1F700C000000197A2
:105A900091F70E94C9051092990510937F0581E046
:105AA00081278093800590918203911106C092E036
:105AB000111101C091E09093820381E0913009F0CF
:105AC00080E08093340111110E944032E5E7F5E057
:105AD00088E0DF011D928A95E9F7809134011092E8
