:100000000C94A5020C94EC020C94EC020C946D0E72
:100010000C94EC020C94EC020C94EC020C94EC02A8
:100020000C94EC020C94EC020C94D4220C94A823B3
:100030000C947B190C94EC020C94EC020C94EC02E2
:100040000C94EC020C94EC020C94EC020C94EC0278
:100050000C94EC020C94D2190C94EC020C94EC026B
:100060000C94EC020C94EC020C94EC020C94EC0258
:100070000C94EC020C94EC020C94EC020C94EC0248
:100080000C94EC020C94EC020C94EC020C94EC0238
:100090000C94EC020C94EC020C94EC020C94EC0228
:1000A0000C94EC020C94EC020C94EC023D5C435C6E
:1000B000455C485C4C5C5B5C00003F5C445C4E5CB7
:1000C0004A5C585C515C405C495C505C535C575CDA
:1000D000475C425C01534B5C4F5C525C555C595C25
:1000E000545C415C465C5A5C5C5C565C4D5C3E5CBE
:1000F0003B5C000000000000000000000000000069
:100100004F5C505C525C535C545C765C0153515CB8
:10011000585C575C555C745C735C0151565C5D5C6B
:10012000605C5A5C715C725CA844645C5B5C595CAA
:10013000695C6F5C705C665C625C5E5C5C5C6B5CAA
:100140006E5C6A5C6C5C655C615C5F5C6D5C635C96
:10015000675C685C3F5C435C455C4A5C565C5A5C2F
:1001600000003D5C495C515C535C485C475C415C11
:10017000425C4E5C525C555C585C4D5C0153445C87
:100180004B5C505C545C575C4F5C465C4B5C595C10
:100190005B5C5E5C4C5C3C5C405C00000000000012
:1001A00000000000000000004F5C505C525C555C99
:1001B000535C745C0153515C585C595C545C725CD8
:1001C000735C0151565C575C655C5B5C695C715C9F
:1001D000A844645C5C5C5A5C5D5C6B5C705C625CFB
:1001E000635C605C5E5C5F5C6E5C6C5C6F5C675CFF
:1001F000635C615C6D5C665C685C6A5CE0001E0070
:100200001F002000210022000000165C2B001400BB
:100210001A00080015001700390004001600070036
:1002200009000A000B00E1001D001B000600190078
:10023000050011003500E300E20091432C002C0082
:100240004600000000000000000000000000000068
:100250004A004E000A001C0023002F004B004D00F6
:1002600005000B0018002400300003512C00110081
:100270000D000C00250031000100904310000E001D
:100280001200260027004F00E60036000F00130082
:100290002A00E50052005000370033004C002800CF
:1002A0003800510001003A003B003C003D003E0098
:1002B0000000010001000100010001000100010037
:1002C0000100010001000100010001000100010026
:1002D0000100010001000100010001000100010016
:1002E0000100010001000100010000000000000009
:1002F00000000000000000000100010001000100FA
:100300003F00010001000100010001000100400068
:100310000100010001000100010001004100010095
:100320000100010001000100010042004300010042
:1003300001000100010001000100010001000100B5
:100340000100340001000100010001000000005222
:100350000000000000000000000000000252000049
:10036000000000000000000000000000000000008D
:10037000000000000100000000000000000000007C
:10038000000000000000135C0A5C00000000000098
:10039000000000000000000000000000000000005D
:1003A00000000000000000000000815C010000006F
:1003B0000000000000000000825C0100000000005E
:1003C0000000000000009D5C010000000000000033
:1003D000000000009E5C0000000000000000000023
:1003E000000000000000000000000000000000000D
:1003F000000000001C03620061006E0064006F00DA
:100400006D0069006E00650064006F006E00690099
:1004100000000E0333006100720061006800740088
:1004200000000403090409029F00040100A0FA0966
:100430000400000103010100092111010001224013
:10044000000705810308000A0904010001030000F8
:10045000000921110100012232000705820320005A
:100460000A080B0202010100000904020000010158
:10047000000009240100010900010309040300022E
:1004800001030000072401000141000624020101CC
:1004900000062402020200092403010301020100F4
:1004A00009240302040101010009050402400005BA
:1004B0000000052501010109058302400005000037
:1004C00005250101031201100100000008EDFEB531
:1004D000F401000102000105010980A10185031951
:1004E000012AB700150126B700950175108100C0DB
:1004F000050C0901A101850419012AA00215012694
:10050000A002950175108100C005010906A1010531
:100510000719E029E7150025019508750181029565
:1005200001750881010507190029FF150026FF0044
:1005300095067508810005081901290595057501BD
:100540009102950175039101C00011241FBECFEFE8
:10055000DAE0DEBFCDBF04B603FE27C08091F4030E
:100560009091F503A091F603B091F7038730904B7B
:10057000A740B04BD1F41092F4031092F5031092FF
:10058000F6031092F70314BE84B7877F84BF0FB6BB
:10059000F894A89580916000886180936000109223
:1005A00060000FBEE0E0F8E3099511E0A0E0B1E0E3
:1005B000E4E0FCE402C005900D92A83BB107D9F736
:1005C00023E0A8EBB1E001C01D92A43FB207E1F720
:1005D0000E94BB1F0C94DC250C9400009091BA0182
:1005E000911108C00E944F0792E0811101C091E073
:1005F0009093BA0181E0913009F080E00895EEEE29
:10060000F2E08081807F82608083EFEEF2E0808183
:100610008078856780830895813031F489EA61119B
:1006200001C08AEA0E94021181E0089581E00895E4
:1006300081E008950C94180308950C941C031F93F3
:10064000CF93DF9300D000D00F92CDB7DEB74983B0
:100650005A836B833091430289819A8131111DC085
:100660006623B9F02223A9F00E947117182F682F72
:1006700089819A810E941D1769817A81812F0F904B
:100680000F900F900F900F90DF91CF911F910C94CE
:10069000CD030E944917182FEFCF0E94711769816F
:1006A0007A81EDCFFC01262F4081518162817381D7
:1006B00084810C941F03CF93DF93EC0160E00E94D0
:1006C0005203BE01DF91CF910C941D030E948F0550
:1006D0000C94B4050C94B70508950E94FF120E9473
:1006E0006C032FEF84E39CE0215080409040E1F7C1
:1006F00000C000000C94371A0F931F93CF93DF9321
:10070000EC0161E00E9452038C01BE010E941A03B9
:10071000882359F1BE01C8010E94A407882329F14A
:10072000BE01C8010E94C60B8823F9F0BE01C801B2
:100730000E94180C8823C9F0BE01C8010E943B0D1D
:10074000882399F08A81882339F001158CE51807F0
:1007500051F00F3D1C4579F0CE01DF91CF911F91F3
:100760000F910C9416030E946D0380E0DF91CF91EE
:100770001F910F9108950E94E118F7CF08950C94EE
:10078000BE0381E008950C94C103CF93C82F0E944B
:10079000BF038C2FCF910C94C303972F70E027E0F9
:1007A000929F600D711D1124FB0194E5899FE00D5E
:1007B000F11D1124EE0FFF1FE455FF4F8591949119
:1007C0000895CF93DF930E94CD030E94B404EC01FF
:1007D000811521E5920778F5811530E5930708F03A
:1007E00076C08F3B910580F4883A910508F064C08B
:1007F000853A910508F058C08430910588F4019736
:1008000079F0D0E0C0E00CC08115904268F4C115C9
:1008100081E0D80728F4CE01805E9109089788F717
:10082000CE01DF91CF910895C11590E4D90748F327
:10083000DF70D06AF5CF811524E5920778F4811531
:1008400033E5930708F06FC0811542E5940708F07F
:100850005AC0D82FCC27C16FD06AE2CFC1158AE524
:10086000D80770F4C11599E5D90708F06FC0C11514
:1008700028E5D20730F2DC2FCC27C06FD06AD0CF6A
:10088000CE0190568115904208F0BBCF8D2F8F710D
:100890000E944B0590E0982F882788279F719C0124
:1008A0002C2BE901D062BCCFC55AD0E0CE5ADE4F26
:1008B000C881D0E0D064B4CFC85AD0E0CC0FDD1FDF
:1008C000CC5DDE4F0990D881C02DD464A9CF64E0FF
:1008D000969587956A95E1F783702C2F2695269536
:1008E000237040E2249F90011124382B8C2F8370B9
:1008F000C1E0D0E002C0CC0FDD1F8A95E2F7C22B29
:10090000D32BDC688DCF8370992721E030E002C0C3
:10091000220F331F8A95E2F7C695C69580E2C89FDD
:10092000E0011124ECCF8370992721E030E002C070
:10093000220F331F8A95E2F7C695C69590E2C99FAC
:10094000E0011124C22BD32BDA686ACF8C2F8F7071
:100950000E944B0534E0D695C7953A95E1F7CF70E4
:100960009C2FEC01D0695CCF82389105B1F1B0F4D5
:100970008133910509F475C048F48932910509F471
:1009800069C08A32910509F473C0089585339105D1
:1009900009F459C08933910501F10895833E910509
:1009A000A9F138F4803E9105F9F0823E910549F1B4
:1009B0000895863E9105A9F1873E9105C9F1843ECF
:1009C000910519F52091D30221FF1FC08091D20219
:1009D00084FD14C087EE90E008952091D202237028
:1009E000A1F080EE90E008952091D20220FD47C052
:1009F0003091D30230FF09C024FF44C090E080E072
:100A000004C02091D20222FDF7CF08952091D20296
:100A100022FD3BC03091D30230FDE3CF24FFF5CF60
:100A2000EDCF2091D20223FFF0CF24FDE7CFD2CF2C
:100A30002091D20223FD2CC03091D30231FFEECFA2
:100A400084EE90E008952091D20225FFDECF89E266
:100A500090E008952091D20225FFD7CF85E390E062
:100A600008952091D20226FFD0CF8AE290E0089527
:100A70002091D20226FFC9CF81E390E0089589E357
:100A800090E0089583EE90E0089582EE90E008955E
:100A900086EE90E008959091D20292FF06C0282F32
:100AA00028712830F9F4877F846093FF06C0282FCF
:100AB00028712831F1F4877E84612091D30220FFD0
:100AC00006C0382F38713830D9F4877F816021FF14
:100AD00006C0282F28712831D1F4877E816194FDCA
:100AE000877E0895282F24712430F9F68B7F886043
:100AF000DCCF282F2471243101F78B7E8861DDCF74
:100B0000382F3171313019F78E7F8860E0CF282F70
:100B10002171213121F78E7E8861E1CF08950E94F5
:100B20003C18811102C00E94E1180E94471880936E
:100B3000C6020E944F189093D3028093D2020E9463
:100B40008E050E944B18682F70E090E080E00E94B4
:100B50001F166091B3027091B4028091B50290911A
:100B6000B6020C94591608950C94B30508950C948C
:100B7000B605E82FF0E0E052FD4F8081089508951A
:100B800080EA8A95F1F7089500C008950C94C00595
:100B9000F894E82FE295EF70F0E031A1282F2F7044
:100BA00081E090E001C0880F2A95EAF7982F909590
:100BB000932391A392A1892B82A3789408950895F9
:100BC0000C94DF050F931F93CF93DF930E94670769
:100BD000809100018091000196E0811190E0909356
:100BE000ED0286E0891B8093EC0285E30E94C80534
:100BF00084E30E94C80587E90E94C80586EF0E9429
:100C0000C80586E60E94C80584E90E94C805C5E5B6
:100C1000D1E00CE511E089910E94C8050C171D0771
:100C2000D1F7E4EDF2E0A0EEB2E011921D9282E085
:100C3000E03EF807D1F786E00E9418070E9466039D
:100C4000DF91CF911F910F910C947107FF920F9339
:100C50001F93CF93DF9300D000D000D0CDB7DEB785
:100C60000E944F07F82E6091ED02882309F451C0CD
:100C70008E010F5F1F4F86E0F80111928A95E9F708
:100C8000862F90E0B80180529D4F0E94710D811116
:100C900023C08091BB018F5F8093BB018630B8F188
:100CA000E091EC02F0E0E052FD4FD801CE01079652
:100CB00011921D92A817B907D9F70E946A038F2DC8
:100CC00026960FB6F894DEBF0FBECDBFDF91CF9151
:100CD0001F910F91FF9008951092BB01A091EC021B
:100CE000B0E0A052BD4F9E01295F3F4FF12C4D91C6
:100CF000F80191918F01491731F0AD01415051092F
:100D0000FA019083F82E0217130789F7D6CFF12C3A
:100D1000D4CF70E060527D4F8091EC0290E0805221
:100D20009D4F0E949C0D0E94E005C9CFCF92DF929B
:100D3000EF92FF920F931F93CF93DF930CE511E097
:100D400084EDE82E82E0F82EC0E0CC24C394D12CB0
:100D5000F80181918F01F894E82FE295EF70F0E0AF
:100D600021A18F70A60102C0440F551F8A95E2F79A
:100D7000CA01922F982B91A392A18095892382A3D7
:100D800078940E94C405E5E5F1E030E020E0D0E091
:100D90004191A42FA295AF70B0E090968C9190E015
:100DA0004F7002C0959587954A95E2F780FD3CC04B
:100DB0008C2D022E01C0880F0A94EAF7D82B2F5FE2
:100DC0003F4F2730310521F7F801319780810E948C
:100DD000C8050E94C605F7018081D81739F1D08374
:100DE00081E0C82BFFEFEF1AFF0A41E0023614073B
:100DF00009F0AECF6091ED0270E060527D4F2C2F74
:100E000046E084ED92E00E9419070E942606C11177
:100E100001C0C82F8C2FDF91CF911F910F91FF90B0
:100E2000EF90DF90CF90089580E0C8CF80E0D9CFD9
:100E30000895FF920F931F93CF93DF93F82E092FFE
:100E4000162FD72FC42F222349F081E08093BE01B3
:100E50000E94AB199093BD018093BC018091BE01AB
:100E60008823A1F08091BC019091BD010E94C3191B
:100E7000069760F0EF2DF02FA12FBD2FCE0FDF2FA3
:100E8000D11DEC17FD0741F41092BE01DF91CF9107
:100E90001F910F91FF90089581918D93F2CF8091D2
:100EA000BF01811107C00E945F25882351F081E0B6
:100EB0008093BF0181E09091BF01913009F080E003
:100EC000089582E08093BF010E945A25F3CF0E94CB
:100ED000EE02809300010E944F0781110C94650D72
:100EE00008950E944F07811102C00C946B0D089564
:100EF00084E08093EE028FE78093EF028091F0020E
:100F0000807880648093F002E4ECF1E08FEF8193CD
:100F100092E0EC30F907D9F71092C3011092C201A8
:100F20001092C1011092C00108959091EE02292FF4
:100F30002F7095959595959595959F523CE0239F9B
:100F4000900D1124890F0895FF920F931F93CF9353
:100F5000DF93FB018F3A2CE5920708F085C08F39AB
:100F60004CE5940708F08DC180392CE5920750F5C7
:100F700083384CE5940708F040C181382CE592078E
:100F800060F487374CE5940708F01FC18F322CE5D9
:100F9000920708F0DFC0C1E011C181384CE5940729
:100FA00009F420C182389C45B1F78281882309F475
:100FB000EBC08091EE02982F9F70993008F0E4C04A
:100FC0009F5F19C18D394CE59407A0F582392CE556
:100FD000920708F02FC180394CE5940709F418C135
:100FE00081399C45C1F68281882309F4CDC02091C6
:100FF000EE02822F859585958595859586300CF036
:10100000C3C091E0980F9295907F95959595959591
:101010009595392F3295307F2F70232B2093EE0238
:1010200018160CF0B1C097FFAFC08295807F922F49
:101030009F70D4C08D394CE5940709F409C18E39ED
:101040009C4509F0A8CF8281882309F49DC0809136
:10105000EF02982F9F779F3709F496C0933708F0D7
:101060000EC1935F9F77F2C0853B4CE5940709F46E
:1010700066C1C8F5813B4CE5940709F432C1D8F448
:101080008F3A4CE5940709F40EC1803B9C4509F06A
:1010900082CF8281882309F477C02091EF02322F1A
:1010A000331F3327331F9091F002892F8770880FE9
:1010B000832B8F5F09C16091EF023091F002228192
:1010C000833B4CE5940709F42EC108F420C121119B
:1010D0002FE7862F881F8827881F632F6770660F6A
:1010E000682B42E40FC1883B2CE5920709F43AC112
:1010F00080F4863B2CE5920709F421C1873B9C458F
:1011000009F049CF828181112BC18FEF8093C201F9
:101110003BC08A3B2CE5920709F45AC108F443C14D
:101120008B3B9C4509F037CFC2816091EF02862F3F
:10113000881F8827881F6091F0026770660F682BF0
:10114000CC2309F455C14FEF5FE18AEF92E00E9492
:10115000AA1A1AC02091EF02322F331F3327331FF0
:10116000D091F002D770DD0FD32BF22EE894F7F870
:10117000C28101ED080F10E00C531E4FF8014081B1
:10118000CC2389F04F3F11F0C0E018C00E949507B2
:10119000C82F2F2D482F6D2F8AEF92E00E948A1AB8
:1011A000F801C083F1CF4F3F31F02F2D6D2F8AEF23
:1011B00092E00E949A1A8FEFF80180838C2FDF91C2
:1011C000CF911F910F91FF90089522812223E1F288
:1011D0008757982F9F708091EE02807F892B809394
:1011E000EE02D2CF8281882379F28091EE02982F8D
:1011F0009F7051F2915F9F70F0CF2281222321F2E4
:101200008958982F9295907F8091EE028F70E6CF4B
:101210008281882309F4B8CF8091EE02982F9595AA
:101220009595959595959B3F0CF4AECF915F9295D2
:10123000907FECCF2281222309F4A6CF82599CE033
:10124000899F902D11249F778091EF02807815C09F
:101250008281882309F498CF8091EF02982F9F779D
:1012600009F492CF80789F3721F485678093EF024D
:101270008BCF9D30D8F39D509F77892BF7CF8F6709
:10128000F5CF2281222309F47FCF8F599091EF026D
:1012900080FB97F99093EF02869587709091F0020A
:1012A000987F892B7DC08281882309F46DCF20919E
:1012B000EF02322F331F3327331F9091F002892F13
:1012C0008770880F832B815F382F3F7080FB27F951
:1012D0002093EF02832F8695987F982B9093F002AE
:1012E00053CF8281882309F44FCF6091EF02862F7C
:1012F000881F8827881F6091F0026770660F682B2F
:1013000020E04BE78AEF92E00E947A1A3DCF21114C
:101310002FE7862F881F8827881F632F6770660F27
:10132000682B40E4EFCF21112FE7862F881F8827F5
:10133000881F632F6770660F682B41E4E3CF8281BB
:1013400020E081112FE76091EF02862F881F882708
:10135000881F6091F0026770660F682B43E4D2CF5C
:1013600081E0D4CE8281882309F40ECF9091F002DF
:10137000292F2695269526952F7081E0820F8F7054
:10138000880F880F880F9778892B8093F002982F09
:10139000987709F0F9CE220F220F220F8778822B3F
:1013A0008093F002F1CE8281882309F4EDCE809102
:1013B000F002982F987709F4E7CE982F9695969596
:1013C0009695915F9F70990F990F990F877869CFC4
:1013D000C2816091EF02862F881F8827881F609145
:1013E000F0026770660F682B40E050EEC111ADCE81
:1013F00050E040E08AEF92E00E94AA1ADFCE8AEF26
:1014000092E00E94AC1C8091C0019091C1010E94A9
:10141000C3192091F0022695269526952F7028173E
:10142000190609F0A0F50E94AB199093C1018093B1
:10143000C0018091C201882351F16091EF02862F93
:10144000881F8827881F6091F0026770660F682BDD
:101450002091C30141E08AEF92E00E947A1A8091C4
:10146000C2019091C30187FF0DC0482F55274195B8
:101470000CF45095941715062CF41092C301109299
:10148000C2010895890F87FD03C08093C3010895A9
:101490008FE7FBCF0C940C0380910001811106C0F3
:1014A00085EF8093020184EF809301012091020176
:1014B000A22FA295AF70B0E091963C9191972F70BA
:1014C00081E090E0BC01022E01C0660F0A94EAF7A9
:1014D000462F4095432391964C93919792963C9139
:1014E0009297362B92963C93929740910101E42F6C
:1014F000E295EF70F0E031A14F70042E01C0880F2B
:101500000A94EAF7982F9095932391A392A1892B9F
:1015100082A390968C9190E002C0959587952A952C
:10152000E2F7817020A130E002C0359527954A95F9
:10153000E2F792E020FF90E0892B809311029091D6
:10154000000181E0982790930D02891B80930C0283
:101550000895CF93E0911102EE0FEE0F209102015A
:10156000A22FA295AF70B0E090968C9190E02F7072
:1015700002C0959587952A95E2F781709927409149
:101580000101A42FA295AF70B0E090962C9130E0AD
:101590004F7002C0359527954A95E2F7A901417031
:1015A000552720FF02C042E050E0842BE82BE09357
:1015B0001102C0910D02EF70F0E0E859FE4F8081FA
:1015C00090911002890F8093100220E0843064F023
:1015D000EC2FF0E0E25FFD4F80818F5F808360E061
:1015E0008C2F0E944A0A21E0809110028D3F64F402
:1015F000EC2FF0E0E25FFD4F80818150808361E05D
:101600008C2F0E944A0A21E080911002082E000CC3
:10161000990B64E070E00E94802580931002822F75
:10162000CF910895E0910D02F0E0E25FFD4F20813F
:10163000FC0120830895FF920F931F93CF93DF93B4
:10164000D0910C020D2F10E0025F1D4FFC01C081F4
:10165000F8018081C81BFC2E80E01F147CF09C2FB9
:10166000C7FD90E0C91BC11114C08823E9F0DF91C8
:10167000CF911F910F91FF900C94670FFA94F8018E
:1016800080818F5F808360E08D2F0E944A0A81E015
:10169000E4CFCF5FF80180818150808361E08D2F9E
:1016A0000E944A0A81E0DFCFDF91CF911F910F9115
:1016B000FF9008950F931F93CF93DF93C42FD22FE2
:1016C000FC0182818823C9F0409314020E94AB1967
:1016D000909313028093120280E28C0F883008F0FE
:1016E00050C0C77081E001C0880FCA95EAF7DF914A
:1016F000CF911F910F910C940A11109114021413A1
:1017000035C080911202909113020E94C319883C47
:10171000910560F5C0E2CD0F1D17B9F080E2810F91
:10172000883040F4177081E001C0880F1A95EAF7FD
:101730000E941111C83048F481E09D2F977001C0BC
:10174000880F9A95EAF70E940A11802F0E940211D1
:10175000C830B8F4D77081E001C0880FDA95EAF795
:10176000DF91CF911F910F910C94111180E28C0F9A
:10177000883038F4C77081E001C0880FCA95EAF755
:10178000EFCFDF91CF911F910F9108950F939C019F
:10179000CB01243F4CE5340759F1A8F4293DFCE581
:1017A0003F0701F12A3D4CE53407D1F1283D3C4586
:1017B00091F406E221EE41EE68ED7CE50E945A0BC1
:1017C00080E00F910895263FFCE53F07E9F0B0F077
:1017D000273F3C45F9F0FC018281882339F11092C2
:1017E0001402EFCF07E225EE45EE69ED7CE5E6CF8A
:1017F00006E221EE40EE64EF7CE5E0CF07E225EE65
:1018000044EE65EF7CE5DACF06E221EE42EE66EFCC
:101810007CE5D4CF07E225EE46EE67EF7CE5CECF40
:1018200008E221E045EE6AED7CE5C8CF81E0C9CF52
:10183000CF93DF93EC01FB018281882309F419C166
:10184000C230FCE5DF07C0F1C6319CE5D90730F0B6
:101850009E012B5F3C452930310570F50E944F18E1
:101860009093D3028093D202C031ECE5DE0709F4F5
:10187000CFC008F05BC0C8308CE5D80709F4B6C00B
:1018800088F5C430ECE5DE0709F4A8C0C0F4C23026
:101890008CE5D80709F49CC08091D2028260C330E5
:1018A000DC4509F498C08091D2029091D3020E9445
:1018B0005D180E94FF1280E0DF91CF910895809122
:1018C000D2028061C630ECE5DE0709F484C0809165
:1018D000D2028860C730DC4508F47DC08091D20216
:1018E000806279C0CC308CE5D80709F489C070F4E7
:1018F0008091D2028C60CA30ECE5DE0709F46BC03F
:1019000008F478C08091D2028E7F65C0CE308CE51D
:10191000D80709F479C08091D2028B7FCF30DC45A3
:1019200008F459C08091D2028F7E55C0CC3FECE5BF
:10193000DE0709F457C030F5C3318CE5D80709F448
:101940006FC078F4C131ECE5DE0709F465C0C2313F
:10195000DC4509F0A8CF0E94FF128091D2028F7758
:101960003AC0C5318CE5D80709F462C008F476C0E6
:101970008091D3028160CB3FDC4509F094CF809306
:10198000D30291CFC115FDE5DF0709F44DC088F4FE
:101990008091D3028D7FCE3F9CE5D90781F3809162
:1019A000D3028E7FCF3FDC4550F38091D30283601A
:1019B000E6CFC230FDE5DF0709F459C008F444C0A2
:1019C00080E0C330DD4509F06ECF0E94E3186BCF95
:1019D0008091D20281608093D20265CF8091D20241
:1019E0008460F9CF8091D3028260C9CF8091D20206
:1019F0008064F1CF0E94FF128091D2028068EBCF09
:101A00008091D2028D7FE7CF8091D202877FE3CF92
:101A10008091D2028F7DDFCF8091D2028F7BDBCF8E
:101A20008091D202837FD7CF8091D3028C7FA7CFC2
:101A30008091D20282FB992790F921E0922790FBB6
:101A400082F990FB83F9C7CF8091D302982F9095AC
:101A500091708E7F892B90FB81F991CF0E94FF12AC
:101A60009091D202892F97FB87F98058B4CF81E0FB
:101A7000ACCF81E021CFCF93DF93EB0186319C4542
:101A800011F50E9414189A81992399F08A7A91E0AD
:101A900009F490E090931502811109C089E20E9437
:101AA000E1170E94F51780E0DF91CF91089585E35B
:101AB000F6CF80911502811104C089E20E94E817D7
:101AC000F0CF85E3FBCF81E0EFCF61E070E083E012
:101AD00091E00C941E0E61E070E083E091E00C94C4
:101AE000250ECF93DF93D62FC72F0E94BF0E0097EE
:101AF00009F5ED2FFC2FDC01A55EBD4F2C91219344
:101B0000019686309105B9F781E292E00E941B0BA5
:101B10000E941C1A6E5F7F4F8F4F9F4F609317027A
:101B2000709318028093190290931A0281E0DF915A
:101B3000CF91089580E0FBCFCF93DF93D62FC72FAF
:101B400060911702709118028091190290911A0207
:101B50000E94FF19ED2FFC2F90E080E02191DC0125
:101B6000A55EBD4F2C93019686309105B9F781E2B1
:101B700092E0DF91CF910C94120B8EE14A9B02C050
:101B80008150E1F74A9BFECF08955A9880E28A95EA
:101B9000F1F75A9A0895FC013BE03A95F1F798E085
:101BA00020E080E031E040E14A95F1F7880F4A9B60
:101BB00002C08160232742E04A95F1F7000040E12E
:101BC0004A95F1F7915079F790E19A95F1F799B12B
:101BD00032E03A95F1F7000040E14A95F1F792FBC7
:101BE000992790F992272081920F90830895EF9280
:101BF000FF920F931F93CF93DF930F92CDB7DEB772
:101C000019828C017C01E60EF11C0E151F0561F492
:101C100081E09981911180E00F90DF91CF911F9128
:101C20000F91FF90EF9008950E94BD0DCE01019697
:101C30000E94CB0DF80181938F01E7CF909323028F
:101C400080932202529A5A9A089590932302809385
:101C5000220252985A9AEA9AE9E6F0E080818F7C53
:101C6000808308956150770B91E001C0990F6A95C8
:101C7000EAF720E031E0911108C0222391F05A9A4E
:101C800080E28A95F1F75A980895492F482339F050
:101C90005A9A232740E24A95F1F79695ECCF5A9845
:101CA000F9CF5A98EDCFFF920F931F93CF93DF9305
:101CB000EC018C01060F111DC017D10731F4DF9123
:101CC000CF911F910F91FF900895F9900E94C50D3B
:101CD00068E08F2D0E94320EEFCF1F920F920FB649
:101CE0000F9211242F933F934F935F936F937F93A2
:101CF0008F939F93AF93BF93CF93DF93EF93FF9314
:101D00005A98529AC0912202D09123026D81662383
:101D100021F08E819F810E94530E0E94C50D80E1AB
:101D20008A95F1F75A9852985A9A80E18A95F1F774
:101D30006A81662309F18B819C810E94F70DE881FD
:101D4000F981882311F088E001C082E080830E943D
:101D5000BD0DFF91EF91DF91CF91BF91AF919F9119
:101D60008F917F916F915F914F913F912F910F9044
:101D70000FBE0F901F901895E881F981E4CFCF93A3
:101D8000DF93C0912202D0912302F894529A5A987C
:101D900085E08A95F1F7000052985A9A80E28A9578
:101DA000F1F74A9B0CC0529A5A9AE881F98181E076
:101DB0008083789481E090E0DF91CF9108956D81E8
:101DC000662381F08E819F810E94F70D81110AC0E8
:101DD000529A5A9AE881F98182E08083789482E06D
:101DE00090E0EACF0E94BD0D80E28A95F1F75A9803
:101DF000529A80E18A95F1F76A81662321F08B81FE
:101E00009C810E94530E0E94C50DE881F9811082C9
:101E1000789490E080E0D0CF9093290280932802BC
:101E20000895E0912802F0912902309721F0019065
:101E3000F081E02D099480E00895E0912802F0916E
:101E40002902309721F00280F381E02D0994089552
:101E500020912602309127022817390771F09093BC
:101E6000270280932602E0912802F0912902309700
:101E700021F00680F781E02D099408952091240235
:101E8000309125022817390771F09093250280932D
:101E90002402E0912802F0912902309721F0008479
:101EA000F185E02D099408950E94B71960933F02CF
:101EB00070934002809341029093420260933B02F0
:101EC00070933C0280933D0290933E0208950E94DD
:101ED000B71960933F027093400280934102909340
:101EE00042026093370270933802809339029093D4
:101EF0003A02089585B7806885BF85B7806885BF39
:101F00000895089508950C94810F0C94FF020E9487
:101F10007A0F8AE398E10E94481A0E94820F0C947B
:101F2000830F0C944F07089508950E94930F0C940B
:101F3000940F0E94A2190E94F6190E94E2050E94C5
:101F40004C0A0C94850FAF92BF92CF92DF92EF9222
:101F5000FF920F931F93CF93DF93CDB7DEB72A97EE
:101F60000FB6F894DEBF0FBECDBF0E94960681115A
:101F70000E94540F8BE2A82E82E0B82E10E000E001
:101F8000C02E802F0E94B905E82EF501F1905F0167
:101F9000F81609F453C08091C60281FD0E94BF0566
:101FA0008F2D8E25D12CFF24F394982F9F2109F497
:101FB00040C00E94910F882399F0DE82CF82EF20EB
:101FC00081E009F480E088870E94AB198160782F56
:101FD0009A8789874E815F8168858A850E9446102D
:101FE000F801E55DFD4F8081F826F0820E94A90A84
:101FF00081110E94670F0E94FF090E94110F9091AA
:102000002A02891791F10E94110F80932A022A96C1
:102010000FB6F894DEBF0FBECDBFDF91CF911F91F9
:102020000F91FF90EF90DF90CF90BF90AF900C9406
:10203000C503D394FF0CF7E0DF12B7CF0F5F1F4F3C
:102040000C30110509F09CCF8FEF89838A831B82A6
:102050000E94AB198160782F9D838C8349815A81BE
:102060006B818D810E944610C1CF2A960FB6F894DD
:10207000DEBF0FBECDBFDF91CF911F910F91FF90BB
:10208000EF90DF90CF90BF90AF900895DF92EF92E6
:10209000FF920F931F93CF93DF93CDB7DEB72B97AC
:1020A0000FB6F894DEBF0FBECDBF7A878B87F42EB4
:1020B000052F162FE72ED82E61110E9434181E828C
:1020C0001D827E2DEC82DD824F2D502F612F8D2DB4
:1020D0009E812B960FB6F894DEBF0FBECDBFDF9169
:1020E000CF911F910F91FF90EF90DF900C94751599
:1020F000FC01808191810C94B317CF93C82F882362
:1021000009F43FC08CEF8C0F813AA0F46C2F8091C2
:102110000B0190910C010E94E818882329F08C2F64
:102120000E94E8170E94F5178C2F0E94E117CF91AB
:102130000C94F51780E28C0F883048F4C77081E06A
:1021400001C0880FCA95EAF70E941718F0CFEBE597
:10215000EC0FE33040F4F0E0EA55FE4F808190E070
:10216000CF910C94280FC85AC73158F4EC2FF0E0E7
:10217000EE0FFF1FE858FE4F80819181CF910C94A4
:102180003E0FCF910895882329F19CEF980F913A43
:1021900020F40E94E8170C94F51790E2980F9830FD
:1021A00050F4877091E001C0990F8A95EAF7892F62
:1021B0000E941D18F0CF9BE5980F933020F490E01B
:1021C00080E00C94280F885A873120F490E080E05A
:1021D0000C943E0F08951F93CF93DF93182FEB01BC
:1021E0000E947D10209731F4812FDF91CF911F91B4
:1021F0000C94C3108FE99FE00197F1F700C0000035
:102200002197F0CF6AE070E0893311F460E570E067
:102210000C94EB10882321F00E9417180C94F517EA
:102220000895882321F00E941D180C94F517089535
:10223000CF92DF92EF92FF920F931F93CF93DF9392
:10224000DC01C62F972F12962C91129715964C9160
:102250001597342F32953F70872F82958F70082FF6
:1022600010E08C3090F5F801E252FA4D0C94942570
:10227000D72FDF70907F11F0D295D07F2223A9F065
:10228000DD2359F080E28C0F883010F0C11109C0B5
:102290008D2F0E9417180E94F5178C2F0E947D1019
:1022A00014C08D2F0E942718F6CF8C2F0E94C310C8
:1022B000DD2359F080E28C0F883010F0C11117C077
:1022C0008D2F0E941D180E94F51708501109043027
:1022D000110508F046C10E94110FDF91CF911F91A7
:1022E0000F91FF90EF90DF90CF900C94C5038D2F4E
:1022F0000E942D18E8CF872F8F70907F903211F0B9
:102300008295807FC13061F4222329F03630E8F6CF
:102310000E940A11DACF3530C0F60E941111D5CFD4
:10232000222341F03323A1F340FFB7CF4F7015961E
:102330004C93EECF332389F3C93309F00AC12FEF51
:1023400087EE93E0215080409040E1F700C000000C
:102350008C2F0E94C310B9CF872F869586958370E6
:1023600061F0813009F0B1CF862F9370211102C046
:1023700090E080E00E943E0FA8CF862F937021113D
:1023800002C090E080E00E94280F9FCF872F8370CB
:1023900009F044C0211199CF862F829586958770C8
:1023A000880F880F6F70C62ED12CF12CE12C082ECF
:1023B00004C0CC0CDD1CEE1CFF1C0A94D2F740E0DC
:1023C00050E0BA01C4FF0FC04FE050E060E070E0A1
:1023D00004C0440F551F661F771F8A95D2F740959A
:1023E000509560957095292F269526952370CB01E1
:1023F000BA016C297D298E299F29223049F058F491
:10240000213019F00E94331660CF0E9421165DCF53
:102410000E9445165ACF0E941F1657CF8695222339
:1024200011F0872F8170882309F44FCF8C2F82956C
:1024300086958770880F880F6C2F6F70C62ED12CF1
:10244000F12CE12C082E04C0CC0CDD1CEE1CFF1C72
:102450000A94D2F740E050E0BA01C4FF0FC04FE049
:1024600050E060E070E004C0440F551F661F771F06
:102470008A95D2F74095509560957095292F2695AD
:1024800026952370CB01BA016C297D298E299F29BD
:10249000223049F058F4213019F00E94F81615CF77
:1024A0000E94E61612CF0E940A170FCF0E945B16F9
:1024B0000CCFD72FDF70222329F08D2F0E94811699
:1024C0008C2F26CF862F0E9411118D2F0E94A216CD
:1024D000FCCE613F19F148F4603F91F0222369F18D
:1024E0003111DBCE892F8F711DC0623FF1F0633F48
:1024F000A9F72223F9F0872F8F710E946C16E5CE81
:10250000222341F0353008F0E0CE892F8F710E94F0
:10251000C516DBCE363008F0D8CEF7CF872F8F71B7
:102520002223A1F20E948116D0CE872F8F71222301
:10253000C9F3CCCF0E946716C8CE332379F0C933D4
:1025400041F49FEF27EE83E0915020408040E1F777
:10255000FDCE8FE39CE90197F1F7F8CE892F8F71BB
:10256000B5CFDF91CF911F910F91FF90EF90DF904A
:10257000CF9008950F931F93CF93DF93EC01688161
:1025800079818A810E94BD178C010E941C170E94CC
:102590001E16B801CE01DF91CF911F910F910C94BF
:1025A0001811CF93DF93EC018B819C81892B29F04B
:1025B0008881998189238F3F19F4DF91CF91089504
:1025C000CE010E947C038823C1F3CE010E94BA127F
:1025D000CE01DF91CF910C945B0390E080E00E94EC
:1025E000280F90E080E00E943E0F0E9434180E9465
:1025F00037180C94F5170E94EF170C94ED120E94F7
:1026000024180C94FB12E92FE295EF70E250EE30A3
:1026100070F4F0E0E651FA4D0C949425803F19F0E7
:1026200020F4883E20F481E00895843FE1F380E0C7
:102630000895883EC0F3813FD1F7F5CF93FB8827FB
:1026400080F908950E94B3170C940313CF93DF937E
:1026500000D000D00F92CDB7DEB70F900F900F9043
:102660000F900F90DF91CF910895CF93DF9300D01B
:1026700000D000D0CDB7DEB726960FB6F894DEBFF7
:102680000FBECDBFDF91CF9108951F93CF93DF93FE
:10269000C091440216E0809145028C1304C0DF9182
:1026A000CF911F910895D0E01C9FF0011D9FF00D68
:1026B0001124EA5BFD4F40815181628173818481E5
:1026C00095810E9435132196C770E5CF409176021F
:1026D00050917702609178027091790280917A022C
:1026E00090917B020C9435131F93CF93DF938091CD
:1026F0007B02807FA9F480917802882389F0809101
:102700004402C09145026091760270917702A091D7
:102710007902B0917A02D62FD72316E0C81304C0ED
:10272000DF91CF911F91089590E0109711F0DF3F56
:1027300019F401968770F2CF189F9001199F300D00
:102740001124F901EA5BFD4F41814713F2CF40812B
:102750004613EFCF42814111ECCF438154814A1B94
:102760005B0B483C510528F780917B028F7080619C
:1027700080937B02F901E55BFD4F80818F70806162
:10278000808386E792E00E94D112DF91CF911F9162
:102790000C944513AF92BF92CF92DF92EF92FF92CB
:1027A0000F931F93CF93DF93CDB7DEB761970FB62B
:1027B000F894DEBF0FBECDBF8C0185E0F801DE01CD
:1027C0001D9601900D928A95E1F7F80140815181A3
:1027D000E28086E7C82E82E0D82E6091790270915F
:1027E0007A026115710509F461C190917602209118
:1027F0007702892F82238F3F09F458C1A380B480C8
:10280000F0907802F501E61BF70BFF2009F4FCC0FD
:1028100080917B02382F307FE83CF10508F0B2C090
:10282000311179C0FE2C251323C0941321C0E1106F
:102830001FC08F70806180937B020E946613C60167
:102840000E94D11280917B02F80185838F2D6196C1
:102850000FB6F894DEBF0FBECDBFDF91CF911F91B1
:102860000F91FF90EF90DF90CF90BF90AF900895C1
:10287000AB2829F0842F85238F3F09F033C180E0F6
:10288000F82FF170DF2E80FF3CC080914402209130
:10289000450236E0821315C04D875E878D859E8583
:1028A0000E94B317292F22952F702230F0F0243088
:1028B00018F59F70F1F0F8019581907FD1F4D12C3B
:1028C0001EC090E0389FF001399FF00D1124EA5BA3
:1028D000FD4F6181651306C06081641303C062818E
:1028E0006E110FC001968770D5CF9F7011F08823AD
:1028F00031F3805E883018F3C8010E94D112FD2C9C
:10290000A5CFEE2009F4A2CF80917B028160809355
:102910007B02F12C9BCF251306C0941304C0F80151
:10292000EE2009F48DC04D875E878D859E850E94BF
:102930002213882319F1EE2009F180917B02803265
:1029400070F0209176023091770238872F831986B4
:10295000BB86AA868C87CE0107960E94D11286E09C
:10296000F801A6E7B2E001900D928A95E1F70E9486
:1029700074130E946613FF24F39468CFC8010E9469
:10298000D112F9CF311113C07A2DB98AA88A6E2DD0
:1029900089890E94261386E792E00E94D11286E080
:1029A000F60111928A95E9F70E946613B2CF2513BA
:1029B0000FC094130DC0E1100BC0F8018583C8014E
:1029C0000E94D11286E0F60111928A95E9F73ECF76
:1029D0004D875E878D859E850E942213882371F224
:1029E000EE2061F280917B02803208F4B8CF209112
:1029F0007602309177023A8329831B82BD82AC82B2
:102A00008E83CE010196A9CFE83CF10508F041C0C4
:102A1000FE2CEE2009F4B2CF25132AC0941328C04F
:102A200080917B0280FD1BC0982F907FC1F0F80140
:102A30008583903F31F0982F907F905F8F70892B26
:102A40008583C8010E94D11286E0F801A6E7B2E0B2
:102A500001900D928A95E1F70E946613F7CE86E009
:102A6000F801A6E7B2E001900D928A95E1F7EECE6B
:102A70004D875E878D859E850E94221381116FCFC1
:102A800080917B02816080937B02C8010E94D112F9
:102A9000DDCE7A2DB98AA88A6E2D89890E942613E7
:102AA00086E0F60111928A95E9F7D6CFEE2009F477
:102AB00065CF4D875E878D859E850E942213F82EF7
:102AC000882309F45BCF86E0F801A6E7B2E0019025
:102AD0000D928A95E1F786E792E00E9478100E94B5
:102AE0007413BACF81E08E25CBCE1F93CF93DF93A3
:102AF000CDB7DEB72C970FB6F894DEBF0FBECDBFB3
:102B00004F83588769877A878B879C87CE01079682
:102B10000E94CA13882369F08A859B85892B39F026
:102B20004F815885842F85238F3F09F071C016E0AF
:102B30005FC086E0FE013796DE01119601900D928E
:102B40008A95E1F78A859B85892B89F38F81988502
:102B500089238F3F61F32091450230E0C90101963E
:102B600087709927409144024817190671F40E9412
:102B7000FF12109245021092440286E0E6E7F2E06E
:102B8000DF011D928A95E9F7D2CF96E0929FD0019E
:102B9000939FB00D1124AA5BBD4FFE0131960190A9
:102BA0000D929A95E1F7809345020E944513BFCF9D
:102BB000819FC00111248A5B9D4F0E94CA13882304
:102BC000E9F0E09144021E9FF0011124EA5BFD4F01
:102BD0004081518162817381848195810E94351386
:102BE0008091440290E00196877099278093440277
:102BF00080914402909145028913DACF2C960FB64A
:102C0000F894DEBF0FBECDBFDF91CF911F91089525
:102C100069857A858B859C850E94351388CF0895B8
:102C20000C940F160E9410166093B7027093B802AE
:102C30008093B9029093BA020C94ED1208950C940B
:102C400012160F931F930091B7021091B8022091B2
:102C5000B9023091BA02602B712B822B932B1F91FA
:102C60000F910C9412160F931F930091B7021091BD
:102C7000B8022091B9023091BA02602371238223F5
:102C800093231F910F910C9412160F931F93009191
:102C9000B7021091B8022091B9023091BA026027B0
:102CA0007127822793271F910F910C9412160C9471
:102CB0000F160C9457160E9459166093B302709326
:102CC000B4028093B5029093B6020C94ED1260E0CA
:102CD00070E0CB010C945B160F931F9341E050E022
:102CE00060E070E08A019B0104C0000F111F221FE9
:102CF000331F8A95D2F7C901B8011F910F910C9427
:102D00005B160F931F9341E050E060E070E004C059
:102D1000440F551F661F771F8A95D2F78091B30223
:102D20009091B402A091B502B091B6028A019B01C4
:102D3000082B192B2A2B3B2BC901B8011F910F918E
:102D40000C945B160F931F9341E050E060E070E03D
:102D500004C0440F551F661F771F8A95D2F7CB0119
:102D6000BA0160957095809590950091B30210918D
:102D7000B4022091B5023091B60260237123822300
:102D800093231F910F910C945B160F931F9341E0B7
:102D900050E060E070E004C0440F551F661F771FCD
:102DA0008A95D2F78091B3029091B402A091B502B6
:102DB000B091B6028A019B01082719272A273B27D1
:102DC000C901B8011F910F910C945B160F931F93CB
:102DD0000091B3021091B4022091B5023091B60275
:102DE000602B712B822B932B1F910F910C945B16F0
:102DF0000F931F930091B3021091B4022091B5027A
:102E00003091B60260237123822393231F910F9187
:102E10000C945B160F931F930091B3021091B402B0
:102E20002091B5023091B60260277127822793273F
:102E30001F910F910C945B16089527E0929F800DCF
:102E40001124982F977041E001C0440F9A95EAF73A
:102E500086958695869595E0899FF0011124E45822
:102E6000FD4F90E080E070E05191DF0111979B01F0
:102E7000082E02C0369527950A94E2F72170219515
:102E80002527242325272C9301968530910561F76A
:102E9000089527E0929F800D1124982F97708695B2
:102EA0008695869525E0829FF0011124E458FD4F18
:102EB00050E040E080E0219130E0092E02C03695DC
:102EC00027950A94E2F721703327042E01C0220FC0
:102ED0000A94EAF7822B4F5F5F4F4530510559F74F
:102EE0000895BF92CF92DF92EF92FF920F931F93BC
:102EF000CF93DF938C01C090B302D090B402E090E6
:102F0000B502F090B6028091B7029091B802A091FC
:102F1000B902B091BA02C82AD92AEA2AFB2ACFE11B
:102F2000D0E0BC2ED701C6010C2E04C0B695A795E3
:102F3000979587950A94D2F780FD0EC0219788F760
:102F4000B12C8B2DDF91CF911F910F91FF90EF90BE
:102F5000DF90CF90BF900895B8018C2F0E94E103BD
:102F6000019761F3EECFCF93DF93EC010E947117CD
:102F7000BE01DF91CF910C94E1031F93CF93DF93B8
:102F8000EB0190914302992331F0CB01DF91CF9176
:102F90001F910C94B317882379F0CB010E9471170D
:102FA000182F682FCE010E941D17BE01812FDF91BF
:102FB000CF911F910C94E103CB010E944917182F68
:102FC000F4CF682F80910B0190910C010C941E1985
:102FD000682F80910B0190910C010C942019809125
:102FE0000B0190910C010C942219E0910B01F091CE
:102FF0000C018091C5028083E0910B01F0910C01DE
:1030000080819091C402892B8083E0910B01F09123
:103010000C0180819091C302892B808380910B01E8
:1030200090910C010C941D0F8091C5020895909110
:10303000C502892B8093C502089580959091C502A1
:1030400098239093C50208951092C5020895909117
:10305000C402892B8093C402089580959091C40284
:1030600098239093C40208951092C4020895109278
:10307000C302089580E0089590E080E00E94A225B8
:1030800021E08A3E9E4F09F020E0822F089582E0E1
:1030900090E00C949A2583E090E00C949A25CF93CD
:1030A00084E090E00E949A25C82F82E290E00E947E
:1030B0009A25982F8C2FCF910895CF93C92F682FE1
:1030C00084E090E00E94A8256C2F82E290E0CF91EE
:1030D0000C94A825AB01BC018FE090E00C94BA25BC
:1030E000AB01BC0183E190E00C94BA2560E070E094
:1030F000CB010C94701860E070E0CB010E946A185C
:103100000C9476186AEE7EEF90E080E00E94C6256F
:1031100060E082E090E00E94A82560E083E090E01B
:103120000E94A8251092B7021092B8021092B9021C
:103130001092BA0260E084E090E00E94A82560E06E
:1031400082E290E00E94A82560E085E090E00E9485
:10315000A82560E086E090E00E94A8256FEF87E058
:1031600090E00E94A82540E050E0BA0188E090E09D
:103170000E94BA2560E08DE090E00E94A82540E022
:1031800050E0BA0188E190E00E94BA2560E087E152
:1031900090E00E94A82540E050E0BA018CE190E068
:1031A0000E94BA2570E060E080E290E00E94C625AF
:1031B00040E050E0BA0188E190E00E94BA250C940A
:1031C0007B180C948218682F8EE090E00C94A82550
:1031D000662349F0FC01329608962191261729F0C2
:1031E000E817F907D1F780E0089581E008959C0180
:1031F000FC0132969FEF80E04191461751F09F3FCE
:1032000019F4411101C0982F8F5F8630A9F79F3FB5
:1032100009F40895290F311D97FD3A95F90162834C
:103220000895FC01329608962191261303C0DF0110
:1032300011971C92E817F907B9F708950C94F7183D
:103240000C941119029626E0FC0111922A95E9F7D7
:103250000895089508950C942A198091EB03843001
:1032600049F10E942B1980E00E94C5031092C70209
:1032700088E190E020E40FB6F894A8958093600070
:103280000FBE2093600083B7817F846083BF83B7C4
:10329000816083BF7894889583B78E7F83BF0FB694
:1032A000F894A895809160008861809360001092E6
:1032B00060000FBE08950895CF930E9429190E94BF
:1032C00096060E945B19C0E08C2F0E94B9058111FF
:1032D00005C0CF5FCC30C1F7CF91089581E0FCCF1E
:1032E00008950C9470190E94FF120E94110F0E9401
:1032F000C5030C9471191F921FB61F9211248F934E
:103300009F93AF93BF938091C702811113C08091A7
:10331000F2029091F302A091F402B091F50241966D
:10332000A11DB11D8093F2029093F302A093F402C9
:10333000B093F502BF91AF919F918F911F901FBEE7
:103340001F90189582E084BD93E095BD9AEF97BDDC
:1033500080936E0008952FB7F8948091F2029091B7
:10336000F302A091F402B091F5022FBF08952FB798
:10337000F8946091F2027091F3028091F4029091BE
:10338000F5022FBF08959C014FB7F8948091F20287
:103390009091F302A091F402B091F5024FBF821B0D
:1033A000930B089578941F921FB61F9211248F9348
:1033B0009F93AF93BF938091F2029091F302A091FB
:1033C000F402B091F5020196A11DB11D8093F202A5
:1033D0009093F302A093F402B093F502BF91AF91E2
:1033E0009F918F911F901FBE1F9018951092F6020B
:1033F0001092F7021092F8021092F9020895CF92FB
:10340000DF92EF92FF926B017C010E944F078111C6
:103410000EC00E94B719C61AD70AE80AF90AC09264
:10342000F602D092F702E092F802F092F902FF90D1
:10343000EF90DF90CF9008950F931F930E944F0756
:10344000882321F01F910F910C94B7190E94B7198E
:103450000091F6021091F7022091F8023091F902E2
:10346000600F711F821F931F1F910F91089587E7AF
:1034700097E7909301088093000888E19AE00FB6DF
:10348000F894A895809360000FBE90936000FFCFE2
:103490009093B9018093B8010895881F8827881FE9
:1034A000089591E0883F08F490E0892F0895982FBF
:1034B000907F903BE9F040F49039D1F0903AC1F020
:1034C0009038B1F080E00895903D19F020F4903CE0
:1034D000C9F782E00895903E59F0903F99F7815FD7
:1034E0008F3080F7E82FF0E0E755FE4F8081089598
:1034F00083E008950F93022F0F77242F2F776F709B
:10350000462F406BDC01ED91FC9163E070E0099582
:103510000F9108950F93022F0F77242F2F776F703D
:10352000462F4069DC01ED91FC9163E070E0099564
:103530000F9108950F93022F0F77242F2F776F701D
:10354000462F4068DC01ED91FC9163E070E0099545
:103550000F9108950F931F93411520E2520744F4F1
:103560009A01305E4115504E2CF430E020E002C04C
:103570002FEF3FE38901000F012F001F110B119561
:103580002F776F70462F406EDC01ED91FC9163E068
:1035900070E009951F910F910895FC017383628378
:1035A0000895FC01758F648F0895CF93DF93EC012C
:1035B0001DA21FA21EA2BC01685D7F4F40EC885176
:1035C0009F4F0E94E01C1B821A821D821C821F8258
:1035D0001E82198618861B861A861D861C861F86E3
:1035E0001E86198A188A1B8A1A8A1D8A1C8A1F8AB3
:1035F0001E8A198E188E1B8E1A8E1D8E1C8E1F8E83
:103600001E8E19A218A2DF91CF910895EF92FF921A
:103610000F931F93CF93DF93EA018A01060F111DC9
:1036200088519F4F7C01C017D10739F4DF91CF91AA
:103630001F910F91FF90EF9008956991C7010E942B
:10364000E71CF1CFFC01718360830895FC0171A335
:1036500060A30895AF92BF92CF92DF92EF92FF9254
:103660000F931F93CF93DF9300D00F92CDB7DEB7A8
:103670007C016B01142FB22EA02EDC0195968C914B
:1036800095978430A9F55A96ED91FC913097E9F120
:10369000CB01019763E070E00E946C25CB01880F9D
:1036A000991F860F971F4983BA820B834C2D481BA5
:1036B0009E012F5F3F4FBC01C7010995D7015E9660
:1036C000ED91FC91309731F00A2D2B2D412FB60151
:1036D000C70109950F900F900F90DF91CF911F9127
:1036E0000F91FF90EF90DF90CF90BF90AF90089533
:1036F0006230710509F455C06330710599F061308D
:10370000710509F481C0D12CC12CD7015C96ED91D3
:10371000FC91309799F20A2D2B2D412FB601C7014C
:103720000995CCCF842F807F803A11F148F48038FE
:10373000D1F0803951F7D7011496ED91FC910AC070
:10374000803ED9F0803FF1F0803BF9F6D701129628
:10375000ED91FC913097C9F2123FE9F02A2D4B2DE3
:10376000612F6F701BC0D7011696ED91FC91F2CFBF
:10377000D7011896ED91FC91EDCFD7011A96ED91F6
:10378000FC91E8CF423F09F6D7011C96ED91FC91E0
:10379000309709F4BACF2A2D4B2D62EFC701099556
:1037A0008DCF842F807F803DB1F0803FC9F0803C79
:1037B00009F0ABCFD7011E96ED91FC91309709F43B
:1037C000A4CF812F8D7F4B2D612F6F70813F89F0AA
:1037D000C701099573CFD7015096ED91FC91EECFBB
:1037E000433F51F4D7015296ED91FC91309709F483
:1037F0008CCF4B2D612FECCF413F09F086CFD70105
:103800005496ED91FC91F2CF842F0E94511A882397
:1038100059F0D7015696ED91FC91309709F475CF88
:10382000612FC70109954ACF163F09F06ECFD70126
:103830005896ED91FC91F1CFFF920F931F93CF9388
:10384000DF93EC01162F862F0E94511A882391F0E6
:10385000FDA081E08DA300E020E0412F61E070E059
:10386000CE010E942A1BFDA2DF91CF911F910F91E3
:10387000FF900895812F0E944D1A4DA1882309F4CD
:1038800043C0443029F01AA381E090E09FA38EA3A7
:10389000812F0E94571A813051F08823A9F082307D
:1038A00089F0833079F01DA21FA21EA2DDCF8DA367
:1038B00000E020E0412F61E070E0CE010E942A1B71
:1038C0001DA2D2CF8DA3D0CF103FB1F0173F59F733
:1038D0002EA13FA1C90163E070E00E946C25FE01AA
:1038E000E80FF91F12A3B9016F5F7F4F7FA36EA38B
:1038F0000CA12BA14AA1E1CF84E08DA31AA381E002
:1039000090E09FA38EA3B0CF442309F4ADCF2EA1A6
:103910003FA1C90163E070E00E946C25FE01E80F41
:10392000F91F12A3B9016F5F7F4F7FA36EA3813090
:10393000910569F0029709F097CF0CA12BA14AA13C
:10394000CE010E942A1B8DA18430C9F68DCF00E0E4
:10395000423009F089CFF2CFCF92DF92EF92FF92FF
:103960000F931F93CF93DF93EC01E8A1F9A1309758
:1039700009F009956E0188EEC80ED11CC6010E949F
:10398000161D10E000E0E82EF12C0E151F0548F082
:10399000DF91CF911F910F91FF90EF90DF90CF902B
:1039A000089560E0C6010E942A1D682FCE010E9482
:1039B0001C1C61E0C6010E943A1D0F5F1F4FE5CF3E
:1039C000FC014283748363831182108208951F93E4
:1039D000CF93DF93EC01162F0E94511D482F2981B0
:1039E00030E0C90101966A8170E00E94802558810B
:1039F0005817190641F4842F0E94541D80E0DF916E
:103A0000CF911F9108958B819C81280F391FF90157
:103A10001083898190E001966A8170E00E94802580
:103A20008983842F0E94541D81E0E9CFCF93DF93D7
:103A3000EC010E94511D99812881921740F0C92FF5
:103A4000C21B0E94541D8C2FDF91CF910895CA8113
:103A50009C0FF5CFFC018081860F9927991F628109
:103A600070E00E94802523813481280F391FF901DD
:103A7000808108951F93CF93DF93EC01162F0E944E
:103A8000511D282F8881810F9927991F6A8170E025
:103A90000E9480258883822FDF91CF911F910C9403
:103AA000541D8FB7F89408958FBF08950895089511
:103AB0000F931F93CF93DF9300D000D000D00F92CD
:103AC000CDB7DEB78C01CE0101960E94B61F8111E1
:103AD0000BC027960FB6F894DEBF0FBECDBFDF91A7
:103AE000CF911F910F9108958A810E94571A9A8150
:103AF0009D839B819E839C819F8381110AC08981C4
:103B0000843079F0873069F0863069F08530D9F6F5
:103B100081E0AE014B5F5F4F682FC8010E94061B1A
:103B2000D2CF83E0F6CF82E0F4CFDF92EF92FF9224
:103B30000F931F93CF93DF9300D000D0CDB7DEB7A4
:103B40007B01142FD22E4A832B830C83842F0E9457
:103B5000571A811129C082E0E816F10401F183E0CF
:103B6000E816F10439F0EA94EF2869F485E0173F8C
:103B700021F404C087E0073F09F084E08983CE0187
:103B800001960E94B11F0F900F900F900F90DF9140
:103B9000CF911F910F91FF90EF90DF90089587EFE5
:103BA000D812EBCF86E0EACF12951F701983E7CFCA
:103BB0000E9478078AEF92E00E94D51A65E97DE1BC
:103BC0008AEF92E00E94221B68E57DE18AEF92E095
:103BD0000E94261B66E57DE18AEF92E00E94D11AE1
:103BE00067E57DE18AEF92E00C94CD1A9B0140914C
:103BF000EB034430C1F4FC0191819F709093E90084
:103C000050E040E064E070E0C9010E947A20811138
:103C10000BC09091E80095FD07C09091E8009E7759
:103C20009093E800089582E008952091EB032430FA
:103C300091F4FC0181818F708093E9009091F300F1
:103C40008091F200892B49F08091E8008E77809373
:103C5000E8000C94282282E0089580E00895FC0199
:103C60008091EB03843059F491819F709093E90027
:103C70008091E80080FF03C0CF010C94151E0895C9
:103C80009B014091EB03443011F080E00895FC016A
:103C900096819F709093E9008091E80082FFF5CFB4
:103CA0008091E80085FFF1CF50E040E064E070E0F3
:103CB000C9010E94C9208091E80085FD05C080915E
:103CC000E8008B778093E80081E008958091D0022E
:103CD00008950895CF93DF9300D00F92CDB7DEB74C
:103CE0009091EB03943019F589837B836A8382E09A
:103CF0008093E9008FEF9091E800815095FD06C018
:103D000095ED9A95F1F700008111F5CF8091E800CB
:103D100085FF0DC050E040E063E070E0CE01019609
:103D20000E947A208091E8008E778093E8000F90BF
:103D30000F900F90DF91CF910895BC0184E00C9417
:103D40006A1EBC0183E00C946A1ECF93DF93EC01E2
:103D500081E08093E9008FEF9091E800815095FD1C
:103D600006C095ED9A95F1F700008111F5CF80918D
:103D7000E80085FF14C050E040E068E070E0CE014C
:103D80000E947A208091E8008E778093E80088E096
:103D9000FE01A8ECB2E001900D928A95E1F7DF9167
:103DA000CF9108958091EA03811109C00E945922A0
:103DB0000E94B6228091E20084608093E200089520
:103DC0001092EA03089508950895089542E061EC81
:103DD00081E00E94D52142E261EC82E00E94D5217F
:103DE00042E361E883E00E94D52142E361E884E098
:103DF0000C94D5218091ED03833009F45FC030F439
:103E00008130C1F1823009F49BC008958A3009F4F1
:103E100087C08B3009F46DC0893009F04EC08091A5
:103E2000EC03813209F049C08091F0039091F103D5
:103E3000029708F042C08091E800877F8093E800F5
:103E40008091E80082FF35C09091F3008091F200EC
:103E5000029729F48091F1008B7F813021F48091C9
:103E6000F1008093D0028091E8008B778093E80086
:103E70000C9409228091EC03813AF9F48091E800D6
:103E8000877F8093E8008091F0039091F103892B64
:103E900061F468E088EC92E070E00E941821809163
:103EA000E8008B778093E800089560E090E080E080
:103EB000F3CF8091EB038111C3CF08958091EC0380
:103EC000813AD9F78091F0039091F103892BA9F7FA
:103ED0008091E800877F8093E8008091E80080FF70
:103EE000FCCF809123018093F1008091E8008E77D0
:103EF000BDCF8091EC03813201F78091F003909166
:103F0000F103892BD1F68091E800877F8093E80048
:103F10000E9409228091EE03809323010C94FF12EA
:103F20008091EC03813249F68091E800877F80938D
:103F3000E8000E9409228091EF038093D102089546
:103F40008091EC03813A09F0B8CF8091E800877F37
:103F50008093E8008091E80080FFFCCF8091D1023F
:103F6000C2CFBC018DE091E00C94F61DBC018DE048
:103F700091E00C94401E0E94D81D84B7877F84BFB7
:103F80000FB6F894A89580916000886180936000D6
:103F9000109260000FBE80E890E00FB6F894809316
:103FA0006100909361000FBE0E94870F0E9459220A
:103FB0000E94B6228091E20084608093E2007894AF
:103FC0000E943F250E94990F89E191E00E940C0F09
:103FD0008091EB038530B9F00E94A30F8DE091E052
:103FE0000E942F1E0E94950FF3CF0E942D198091E1
:103FF000E903882341F00E945C19882321F00E9484
:1040000064200E94FF128091EB03853071F30E94BF
:104010007319E2CF0C940C20292F3327233031055C
:1040200019F168F42130310509F444C0223031051A
:1040300009F445C090E080E030E020E025C0213266
:10404000310549F122323105A9F780E490E029E0F9
:1040500035E061157105C1F082E390E027ED34E0B1
:104060006130710589F0E6CF99278130910581F0A3
:10407000009729F00297F1F6E4EFF3E002C0E2E2E4
:10408000F4E0849190E09F01FA0131832083089548
:10409000E2E1F4E0F6CF89E090E028E334E0611556
:1040A000710591F389E090E021E534E0613071051C
:1040B00059F3C0CF82E190E025EC34E0E5CF8FE901
:1040C00090E026E234E0E0CF80E189BD82E189BD65
:1040D00009B400FEFDCF8091D8008F7D8093D80079
:1040E0008091E00082608093E0008091E00081FD9B
:1040F000FCCF0895AF92BF92CF92DF92FF920F93C1
:104100001F93CF93DF936C01EB018A010E94282259
:10411000F82E811123C00115110539F0F8018081B5
:104120009181C81BD90BC80ED91EB12CA12C209788
:10413000A9F08091E80085FD22C08091E8008E778B
:104140008093E80001151105A1F0F80180819181AB
:10415000A80EB91EB182A08285E0F82E8F2DDF91C6
:10416000CF911F910F91FF90DF90CF90BF90AF90B4
:1041700008950E9428228823D1F2F82EEFCFF6016D
:1041800081916F018093F1002197FFEFAF1ABF0A71
:10419000CECFAF92BF92CF92DF92FF920F931F9339
:1041A000CF93DF936C01EB018A010E942822F82E45
:1041B000811123C00115110539F0F8018081918129
:1041C000C81BD90BC80ED91EB12CA12C2097A9F061
:1041D0008091E80085FD22C08091E8008B77809374
:1041E000E80001151105A1F0F80180819181A80E68
:1041F000B91EB182A08285E0F82E8F2DDF91CF917C
:104200001F910F91FF90DF90CF90BF90AF900895D6
:104210000E9428228823D1F2F82EEFCF8091F1005E
:10422000F60181936F012197FFEFAF1ABF0ACECF3E
:10423000FC018091F2039091F30386179707A0F099
:104240006115710529F49091E8009E779093E8003C
:1042500090E06115710551F4911108C08091E8005A
:1042600082FF34C080E00895BC01F2CF8091EB035F
:104270008823C1F18530C1F18091E80083FD30C011
:104280008091E80082FDEACF8091E80080FFE1CFD5
:104290008091F3002091F200382F6115710519F01B
:1042A0002830310558F091E02830310509F090E0D0
:1042B0002091E8002E772093E800CBCF8191809366
:1042C000F100615071092F5F3F4FE7CF8091EB0301
:1042D000882341F0853041F08091E80083FFBECF14
:1042E00081E0089582E0089583E00895FC018091C3
:1042F000F2039091F30386179707A0F061157105FB
:1043000029F48091E8008E778093E80090E06115B1
:10431000710551F4911108C08091E80082FF35C009
:1043200080E00895BC01F2CF8091EB038823C9F1AE
:104330008530C9F18091E80083FD31C08091E800AB
:1043400082FDEACF8091E80080FFE1CF8091F30009
:104350002091F200382F6115710519F028303105D0
:1043600058F091E02830310509F090E08091E800A4
:104370008E778093E800CBCF84918093F1003196C3
:10438000615071092F5F3F4FE6CF8091EB03882387
:1043900041F0853041F08091E80083FFBDCF81E09E
:1043A000089582E0089583E00895982F973028F0CB
:1043B0008F708093E90081E008959093E900242FA5
:1043C000762F50E0981731F07091EC002091ED00BD
:1043D0005091F00021FD02C09F5FE8CF3091EB00CB
:1043E0003E7F3093EB003091ED003D7F3093ED0048
:1043F0003091EB0031603093EB007093EC00209330
:10440000ED005093F0002091EE0027FDE5CF80E015
:1044100008958091EC0387FF13C08091E80082FF2C
:1044200006C08091E8008B778093E80004C08091FB
:10443000EB038111F2CF08958091EB038823D9F328
:104440008091E80080FFF8CF8091E8008E77ECCF74
:104450002091E4003091E50095E6A9012091EC005F
:10446000822F817020FF06C08091E80080FF06C087
:1044700080E008952091E80022FD1AC08091EB03AE
:10448000882389F0853089F08091EB0085FD0FC08D
:104490002091E4003091E50042175307F9F2915062
:1044A000E1F684E0089582E0089583E0089581E0D4
:1044B00008950E94C7220E94CF22E0EEF0E08081A2
:1044C00081608083E8EDF0E080818F77808319BC84
:1044D000A7EDB0E08C918E7F8C9380818F7E80835E
:1044E0001092EA0308950F931F93CF93DF930E94D6
:1044F000C7220E94CF22C8EDD0E088818F778883C1
:1045000088818068888388818F7D888319BC109218
:10451000EB031092E7031092E9031092E80300EE18
:1045200010E0F80180818B7F80838881816088839F
:1045300042E060E080E00E94D521E1EEF0E0808181
:104540008E7F8083E2EEF0E08081816080838081D5
:1045500088608083F80180818E7F8083888180617C
:104560008883DF91CF911F910F910895E8EDF0E0DE
:1045700080818F7E8083E7EDF0E0808181608083A1
:1045800084E082BF81E08093EA030C947322E8ED1B
:10459000F0E080818E7F80831092E2000895109277
:1045A000DA001092E10008951F920F920FB60F9259
:1045B00011242F933F934F935F936F937F938F9328
:1045C0009F93AF93BF93EF93FF938091E10082FF9E
:1045D0000BC08091E20082FF07C08091E1008B7FD9
:1045E0008093E1000E943E258091DA0080FF19C08F
:1045F0008091D80080FF15C08091DA008E7F809373
:10460000DA008091D90080FF96C080E189BD82E107
:1046100089BD09B400FEFDCF81E08093EB030E94C9
:10462000D21E8091E10080FF19C08091E20080FFDE
:1046300015C08091E2008E7F8093E2008091E200BD
:1046400080618093E2008091D80080628093D800DE
:1046500019BC85E08093EB030E94E41E8091E10089
:1046600084FF2BC08091E20084FF27C080E189BDD8
:1046700082E189BD89B5982F917080FFFBCF809131
:10468000D8008F7D8093D8008091E1008F7E809349
:10469000E1008091E2008F7E8093E2008091E20051
:1046A00081608093E2008091E703882309F449C088
:1046B00084E08093EB030E94E51E8091E10083FF7C
:1046C00029C08091E20083FF25C08091E100877FAF
:1046D0008093E10082E08093EB031092E7038091E6
:1046E000E1008E7F8093E1008091E2008E7F8093D5
:1046F000E2008091E20080618093E20042E060E0AD
:1047000080E00E94D5218091F00088608093F000C5
:104710000E94E31EFF91EF91BF91AF919F918F9106
:104720007F916F915F914F913F912F910F900FBEAD
:104730000F901F90189519BC1092EB030E94E01E79
:1047400070CF8091E30087FD93E09093EB03B3CFAC
:104750001F920F920FB60F9211242F933F934F93F6
:104760005F936F937F938F939F93AF93BF93CF93F9
:10477000DF93EF93FF93D091E900DF708091EC001D
:10478000C82FC17080FDC0E81092E9008091F00050
:10479000877F8093F00078940E94EC231092E900C8
:1047A0008091F00088608093F000CD2BCF70C09393
:1047B000E900FF91EF91DF91CF91BF91AF919F9170
:1047C0008F917F916F915F914F913F912F910F90BA
:1047D0000FBE0F901F9018951F93CF93DF93CDB707
:1047E000DEB7AA970FB6F894DEBF0FBECDBF8CEE32
:1047F00093E02091F100FC012193CF01F3E0843F8D
:104800009F07B9F70E94FA1E8091E80083FF1EC13E
:104810008091EC039091ED039A3008F017C1E92FD5
:10482000F0E0E850FA4D0C949425803899F08238E5
:1048300009F00CC18091F0038F70873008F006C139
:104840008093E9008091EB0085FB882780F9109226
:10485000E90006C08091E8039091E903911182601C
:104860009091E800977F9093E8008093F100109278
:10487000F1008091E8008E77E5C0882309F4D3C069
:10488000823009F0E3C08091EE038111D6C080919F
:10489000F0038F702FEF280F263008F0D7C08093D9
:1048A000E9002091EB0020FFC8C0933031F48091E3
:1048B000EB0080628093EB00C0C09091EB009061B0
:1048C0009093EB0021E030E001C0220F8A95EAF7D7
:1048D0002093EA001092EA008091EB008860EACF12
:1048E0008111B4C01091EE031F778091E3008078AE
:1048F000812B8093E3008091E800877F8093E8001C
:104900000E9409228091E80080FFFCCF8091E300A3
:1049100080688093E30082E0111183E08093EB03D1
:1049200095C08058823008F091C08091EE0390913C
:10493000EF038C3D23E09207A1F583E08A838AE2AE
:1049400089834FB7F894DE01139620E03EE051E2F0
:10495000E32FF0E050935700E49120FF03C0E2956D
:10496000EF703F5FEF708E2F90E0EA30C0F0C79697
:104970008D939D932F5F243159F74FBF8091E800AD
:10498000877F8093E8006AE270E0CE0101960E9482
:1049900018218091E8008B778093E80057C0C0967B
:1049A000E7CF6091F0037091F103AE014F5F5F4F6D
:1049B0000E940A20BC01892B09F448C09091E800AC
:1049C000977F9093E80089819A810E947621E1CFB8
:1049D0008038E1F58091E800877F8093E80080913E
:1049E000E7038093F10045CF811130C09091EE0331
:1049F000923060F58091E800877F8093E800909383
:104A0000E7030E9409228091E703882311F084E0E4
:104A100005C08091E30087FDFACF81E08093EB032E
:104A20000E94E61E13C08091EE03813079F481E08C
:104A3000933009F080E08093E9031092E9008091BF
:104A4000E800877F8093E8000E9409228091E800B7
:104A500083FF0AC08091E800877F8093E8008091FF
:104A6000EB0080628093EB00AA960FB6F894DEBF4D
:104A70000FBECDBFDF91CF911F9108950895CF93C1
:104A80008091EB038823A1F0C091E900CF70909151
:104A9000EC00892F817090FD80E8C82B1092E9000E
:104AA0008091E80083FD0E94EC23CF70C093E90061
:104AB000CF9108950E9459221092EB030895E8EDDA
:104AC000F0E08081806180838AE18A95F1F700C0FF
:104AD0008091D90081700895AA1BBB1B51E107C0CA
:104AE000AA1FBB1FA617B70710F0A61BB70B881F7E
:104AF000991F5A95A9F780959095BC01CD0108950D
:104B000097FB072E16F4009407D077FD09D00E947A
:104B10006C2507FC05D03EF4909581959F4F089534
:104B2000709561957F4F0895EE0FFF1F0590F491EA
:104B3000E02D0994F999FECF92BD81BDF89A99278D
:104B400080B50895A8E1B0E042E050E00C94CE2595
:104B5000262FF999FECF92BD81BDF89A019700B436
:104B6000021639F01FBA20BD0FB6F894FA9AF99AD6
:104B70000FBE08950396272F0E94A9250E94A825FD
:104B8000252F0E94A925242F0C94A9250196272FB3
:104B90000E94A9250C94A825DC01CB01FC01F99900
:104BA000FECF06C0F2BDE1BDF89A319600B40D9279
:104BB00041505040B8F70895F894FFCF381138119C
:104BC0007B117B11AC11651165116511C61159126C
:104BD000691269120E130E131713171319131713F3
:104BE000171317130E130E131E13171317131E1379
:104BF00015243D2426253D24262570249124262590
:044C0000E824F4248C
:104C04000137671602041702071B02BB0203834025
:104C1400000001044000000100661EA51E691EA1DB
:104C24001E9D1E01E200E900EA00B500B600B700CF
:104C3400CD008301CC008A01920194012102230258
:104C440024022502260227022A02B300B4006F00C0
:104C5400700081828391C6F731333290353497F6F0
:104C6400669400000000000000FF0100010000FF46
:104C7400FF0000010001FF00E200E900EA00B500C6
:104C8400B600B700CD008301CC008A0192019401E3
:104C94002102230224022502260227022A02B3004B
:104CA400B4006F00700081828302030200000100DF
:084CB4000101010101000101F1
:00000001FF
