:100000000C946B030C9488030C9488030C940631B5
:100010000C9488030C9488030C9488030C94880334
:100020000C9488030C9488030C9464280C94202866
:100030000C9461290C9488030C9488030C94880315
:100040000C9488030C9488030C9488030C94880304
:100050000C9488030C943D290C9488030C94880319
:100060000C9488030C9488030C9488030C948803E4
:100070000C9488030C9488030C9488030C948803D4
:100080000C9488030C9488030C9488030C948803C4
:100090000C9488030C9488030C9488030C948803B4
:1000A0000C9488030C9488030C9488030501098040
:1000B000A101850319012AB700150126B700950192
:1000C00075108100C0050C0901A101850419012AE0
:1000D000A002150126A002950175108100C00660DE
:1000E000FF0961A1010962150026FF00952075082E
:1000F00081020963150026FF00952075089102C052
:1001000005010906A101050719E029E715002501E8
:10011000950875018102950175088101050719008F
:1001200029FF150026FF00950675088100050819AE
:10013000012905950575019102950175039101C08D
:1001400000000000000000000000000000000000AF
:10015000000000000000000000000000000000009F
:10016000000000007E0F00D4FFFFFFC700000078F2
:1001700000000000000000002A2B28000000000002
:100180000000000000000000000000290000000046
:100190002C1E3420212224342627252E362D3738B4
:1001A000271E1F202122232425263333362E3738BD
:1001B0001F0405060708090A0B0C0D0E0F1011127B
:1001C000131415161718191A1B1C1D2F3130232D47
:1001D000350405060708090A0B0C0D0E0F10111245
:1001E000131415161718191A1B1C1D2F3130354CF6
:1001F00062616E646F6D696E65646F6E693A76698F
:1002000061204020302E31372E362D35332D673684
:1002100038626431622D6469727479207C203230D6
:1002200032322D30382D30382D32313A32323A32A6
:10023000320000010101010101010101020202027B
:100240000202020202030303030303030304040480
:100250000404040405050505050606060606070749
:1002600007070708080808090909090A0A0A0B0B01
:100270000B0C0C0C0D0D0D0E0E0E0F0F0F101011A0
:100280001111121213131414151516161717181826
:1002900019191A1A1B1B1C1D1D1E1E1F202021228E
:1002A00022232424252626272829292A2B2C2D2DD4
:1002B0002E2F30313232333435363738393A3B3CF1
:1002C0003D3E3F404142434445464748494A4C4DE4
:1002D0004E4F50515354555658595A5B5D5E5F61AD
:1002E0006264656668696B6C6D6F70727375777840
:1002F0007A7B7D7E8082838587888A8C8E8F91939E
:100300009596989A9C9EA0A2A3A5A7A9ABADAFB1C4
:10031000B3B5B7BABCBEC0C2C4C6C9CBCDCFD1D4A9
:10032000D6D8DBDDDFE2E4E7E9EBEEF0F3F5F8FA4F
:10033000FDFF3D5C435C455C485C4C5C5B5C0000E5
:100340003F5C445C4E5C4A5C585C515C405C495C80
:10035000505C535C575C475C425C01534B5C4F5CA8
:10036000525C555C595C545C415C465C5A5C5C5C1C
:10037000565C4D5C3E5C3B5C0000000000000000F1
:100380000000AA00A9004F5C505C525C535C545CB6
:10039000765C0153515C585C575C555C745C735CD3
:1003A0000151565C5D5C605C5A5C715C725CA84398
:1003B000645C5B5C595C695C6F5C705C665C625C35
:1003C0005E5C5C5C6B5C6E5C6A5C6C5C655C615C1E
:1003D0005F5C6D5C635C675C685C3F5C435C455C78
:1003E0004A5C565C5A5C00003D5C495C515C535C65
:1003F000485C475C415C425C4E5C525C555C585CBE
:100400004D5C0153445C4B5C505C545C575C4F5CEE
:10041000465C4B5C595C5B5C5E5C4C5C3C5C405C91
:1004200000000000000000000000AA00A9004F5CCE
:10043000505C525C555C535C745C0153515C585C7D
:10044000595C545C725C735C0151565C575C655C32
:100450005B5C695C715CA843645C5C5C5A5C5D5C81
:100460006B5C705C625C635C605C5E5C5F5C6E5C81
:100470006C5C6F5C675C635C615C6D5C665C685C5B
:100480006A5C0100010001000100010001000000A0
:100490000100010001000100010001000100010054
:1004A0000100010001000100010001000100010044
:1004B0000100010001000100010001000100010034
:1004C0000100010001000100000000000000000028
:1004D0000000010001000100010001000100010015
:1004E0000100010001000100010001000100010004
:1004F00001000100010001000100010001000100F4
:1005000001000100010001000100010001000100E3
:1005100001000100010001000100010001000100D3
:100520000100010001000100010000000052000074
:1005300000000000000000000000000000000000BB
:1005400000000000000000000000000000000000AB
:10055000000001000000000000000000000000009A
:10056000000000000000000000000000000000008B
:1005700000000000000000000000C45CC35C00003C
:10058000C85C000000000000815C01000000C75C46
:10059000000000000000825C01000000C65C00005A
:1005A000000000009C5C01000000C55C0000000031
:1005B00000009D5CC25C0000CC5C000000000000FC
:1005C000C95CDE5CC45CCB5C0000AD5D0000CA5C55
:1005D000C35C0902BF00050100A0FA090400000184
:1005E00003010100092111010001224000070581DA
:1005F00003080001090401000203000000092111A1
:1006000001000122220007058203200001070503E3
:100610000320000109040200010300000009211168
:1006200001000122320007058403200001080B03AA
:100630000201010000090403000001010000092477
:100640000100010900010409040400020103000083
:1006500007240100014100062402010100062402D2
:10066000020200092403010301020100092403021C
:1006700004010101000905060240000500000525EE
:100680000101010905850240000500000525010161
:10069000031201000200000008EDFEB5F4010001A4
:1006A0000200011C03620061006E0064006F006DB7
:1006B0000069006E00650064006F006E0069000054
:1006C000000E0333006100720061006800740000D6
:1006D00000040309040011241FBECFEFDAE0DEBFDF
:1006E000CDBF26E0ACE0B3E001C01D92A13AB20755
:1006F000E1F713E0A0E0B1E0E2EEF7E602C005901A
:100700000D92AC30B107D9F70E9488290C94B5330B
:100710000C9400000F931F939B01305E8901000F22
:10072000012F001F110B11952F77482F406EE0917C
:10073000B105F091B20563E070E081EB95E00995B9
:100740001F910F9108950F93262F042F0F77482F95
:10075000406BE091B105F091B20563E070E081EB90
:1007600095E009950F910895A3E0B0E0EAEBF3E07E
:100770000C942C327C01162FD42EC22E8091D605DB
:10078000843071F5E091CB05F091CC053097C1F143
:10079000C701019763E070E00E945932CB01880FD6
:1007A000991F860F971F19834A83CB824E2D481BB2
:1007B0009E012F5F3F4FBC0181EB95E00995E091D1
:1007C000CF05F091D005309739F00C2D2D2D412F0C
:1007D000B70181EB95E009952396E8E00C94483247
:1007E00082E0E816F10409F45AC083E0E816F10447
:1007F000A9F081E0E816F10409F484C0F12CE12CA1
:10080000E091CD05F091CE053097C9F20C2D2D2D3C
:10081000412FB70181EB95E00995D1CF862F807FDD
:10082000803A11F188F48038D1F0E091B505F0916B
:10083000B605803929F7309719F3123F49F12C2D6D
:100840004D2D612F6F7027C0803E99F0803FB1F031
:10085000E091B305F091B405803B91F6ECCFE091C7
:10086000B705F091B805E7CFE091B905F091BA0569
:10087000E2CFE091BB05F091BC05DDCF623F09F00E
:10088000BFCFE091BD05F091BE05309709F4B8CF18
:100890002C2D4D2D62EF81EB95E0099590CF862FA1
:1008A000807F803DB9F0803FD1F0E091BF05F091AD
:1008B000C005803C09F0A4CF309709F4A1CF812F67
:1008C0008D7F4D2D612F6F70813FC9F081EB95E0D9
:1008D000099575CFE091C105F091C205EDCFE0918A
:1008E000C305F091C405633F39F0613F09F088CF3B
:1008F000E091C505F091C605309709F481CF4D2DE3
:10090000612FE4CFE091C705F091C805683F38F446
:10091000663F09F075CFE091C905F091CA0530979F
:1009200009F46ECF612F81EB95E0099548CFE8ED92
:10093000F0E080818E7F80831092E2001092DA00D6
:100940001092E100A0EEB0E08C9181608C938081E8
:100950008F77808319BCA7EDB0E08C918E7F8C934C
:1009600080818F7E808310925C0508952091E40041
:100970003091E50095E6A9012091EC00822F81706D
:1009800020FF06C08091E80080FF06C080E0089547
:100990002091E80022FD1AC080916905882389F022
:1009A000853089F08091EB0085FD0FC02091E40037
:1009B0003091E50042175307F9F29150E1F684E0D7
:1009C000089582E0089583E0089581E00895EF920C
:1009D000FF920F931F93CF937C018B010E94B6046B
:1009E000C82F811117C08091E80085FD0BC0809150
:1009F000E8008E778093E8000E94B604882399F37C
:100A0000C82F08C0F70181917F018093F100015048
:100A1000110949F78C2FCF911F910F91FF90EF9003
:100A20000895EF92FF920F931F93CF937C018B0158
:100A30000E94B604C82F811117C08091E80085FD7F
:100A40000BC08091E8008B778093E8000E94B60489
:100A5000882399F3C82F08C08091F100F701819392
:100A60007F010150110949F78C2FCF911F910F91F0
:100A7000FF90EF90089580916B0587FF13C08091E0
:100A8000E80082FF06C08091E8008B778093E80041
:100A900004C0809169058111F2CF089580916905A4
:100AA0008823D9F38091E80080FFF8CF8091E80097
:100AB0008E77ECCF982F9093E900242F762F50E07B
:100AC000891731F07091EC002091ED005091F00009
:100AD00021FD07C09F5F973071F78093E90081E0A7
:100AE00008953091EB003E7F3093EB003091ED00A4
:100AF0003D7F3093ED003091EB0031603093EB009F
:100B00007093EC002093ED005093F0002091EE00E4
:100B100027FDE0CF80E00895B0E0A0E0E2E9F5E055
:100B20000C942C32C8EDD0E088818F7E8883E7ED6D
:100B3000F0E080818160808384E082BF81E08093E7
:100B40005C0588818E7F888302EE10E0F8011082B8
:100B50001092DA0081EEC82ED12CF6011082888125
:100B60008F77888388818068888388818F7D888358
:100B700019BC1092690510926A05109268051092CE
:100B8000670590EEE92EF12CF70180818B7F808341
:100B900088818160888342E060E080E00E945A059D
:100BA000F60180818E7F8083F8018081816080835F
:100BB000808188608083F70180818E7F8083888137
:100BC00080618883CDB7DEB7E8E00C944832FC0141
:100BD000809171059091720586179707A0F06115B5
:100BE000710529F49091E8009E779093E80090E0D9
:100BF0006115710551F4911108C08091E80082FFE0
:100C000034C080E00895BC01F2CF8091690588234B
:100C1000C1F18530C1F18091E80083FD30C0809141
:100C2000E80082FDEACF8091E80080FFE1CF80916B
:100C3000F3002091F200382F6115710519F028306A
:100C4000310558F091E02830310509F090E020910D
:100C5000E8002E772093E800CBCF81918093F100BC
:100C6000615071092F5F3F4FE7CF8091690588235D
:100C700041F0853041F08091E80083FFBECF81E0F4
:100C8000089582E0089583E008950895089580917D
:100C90005E05089508950895982F907F903BE9F0A0
:100CA00040F49039D1F0903AC1F09038B1F080E042
:100CB0000895903D19F020F4903CC9F782E0089522
:100CC000903E59F0903F99F7815F8F3080F7E82F81
:100CD000F0E0EB54FE4F8081089583E00895A7E093
:100CE000B0E0E5E7F6E00C942F328C0108511F4F7D
:100CF00080916905843009F06CC0809144018F7047
:100D00008093E9008091E80082FF63C08091E80051
:100D100085FF5FC050E040E064E070E0CE010196E6
:100D20000E9411058091E80085FD05C08091E800D2
:100D30008B778093E800FA808F2D0E944C06282F35
:100D4000FD828B818E838C818F8321110AC08981E2
:100D5000843039F1873029F1863029F121E085305E
:100D600039F630E0E5E0F0E0EC0FFD1FE30FF11D98
:100D7000F0804FB7F894D8011196EC911197F0E0FC
:100D8000CF01019612966C9170E00E946D32D801ED
:100D90005C915817190649F44FBF3F5F321710F3A3
:100DA000A7CF23E0DECF22E0DCCF13968D919C917C
:100DB0001497E80FF91FF08211968C91119790E02B
:100DC000019612966C9170E00E946D32F801818359
:100DD000E3CF2796E5E00C944B32A4E0B0E0E3EFDC
:100DE000F6E00C942D327B01142FD22E4A832B83F4
:100DF0000C83842F0E944C0681113AC082E0E816D1
:100E0000F10489F183E0E816F10441F081E0E8168D
:100E1000F10429F5173F29F485E004C087E0073F76
:100E200009F084E08983809169058430C1F4809160
:100E30003F018F708093E90050E040E064E070E093
:100E4000CE0101960E94E704811109C08091E8005B
:100E500085FD05C08091E8008E778093E800249698
:100E6000E7E00C94493287EFD812DBCF86E0DACF87
:100E700012951F701983D7CF87E797E790930108E2
:100E80008093000888E19AE00FB6F894A8958093C3
:100E900060000FBE90936000FFCF9C014FB7F894A5
:100EA0008091550590915605A0915705B091580530
:100EB0004FBF821B930B08952FB7F894609155058F
:100EC0007091560580915705909158052FBF089550
:100ED0002FB7F8948091550590915605A09157052C
:100EE000B09158052FBF08959C01FC0132969FEFE9
:100EF00080E04191461751F09F3F19F4411101C024
:100F0000982F8F5F8630A9F79F3F09F40895290F26
:100F1000311D97FD3A95F90162830895209152059C
:100F2000309153052817390771F09093530580933A
:100F30005205E0915005F0915105309721F0008461
:100F4000F185E02D0995089520914E0530914F05CA
:100F50002817390771F090934F0580934E05E09163
:100F60005005F0915105309721F00680F781E02D72
:100F700009950895FC01680F791F8FEF91E3219186
:100F8000822728E030E087FF09C0880F8927215099
:100F90003109C9F7E617F70791F70895880FF7CFDA
:100FA000FA01811101C0FB0109950895EAE6F4E018
:100FB000818360834283339695E0EE34F907C1F76D
:100FC0000895FC01EE0FFF1FE80FF91FE659FB4FD4
:100FD0006183408322830895FC019B01AC0197FF4C
:100FE00004C044275527481B590BBA01620F731FD1
:100FF00037FD0FC0241B350BC901A5E0880F991FD1
:10100000AA95E1F70E946D3280E2861BF7FD81957B
:101010000895CB0165E0880F991F6A95E1F7BA0141
:10102000621B730B0E946D3280E6EFCFE7E7F5E0BD
:10103000248130E1231B08F420E02483809169049B
:101040008160809369040895E7E7F5E0248130E149
:10105000230F08F42FEF248380916904816080932B
:101060006904089590917705937071F080937805E5
:1010700060937905433308F042E340937A05809109
:101080006904822B809369040895E7E7F5E04381C2
:1010900020E1421B08F440E0818121E0628190E080
:1010A0000E9432080895E7E7F5E0438120E1420F0E
:1010B00008F44FEF818121E0628190E00E943208C4
:1010C0000895E7E7F5E0628120E1621B08F460E043
:1010D000818121E0438190E00E9432080895E7E792
:1010E000F5E0628120E1620F08F46FEF818121E079
:1010F000438190E00E9432080895E7E7F5E081819E
:1011000021E0438162818850990B0E943208089542
:10111000E7E7F5E0818190E021E043816281089674
:101120000E943208089590917705937061F08111C3
:101130000BC094609093770510923D0180916904F3
:10114000862B809369040895813110F09064F2CF6A
:10115000880F880F982BEECF80917705869586951E
:10116000815009F480E161E00E9493080895809124
:101170007705869586958F5F813108F081E061E083
:101180000E949308089580917705837011F410925E
:101190003D01809177058C7F81608093770508956C
:1011A000EF92FF920F939701201B31092F3F3105DA
:1011B00019F010F02FEF30E02095382F320F08F49F
:1011C0003FEF832F0F91FF90EF900895EF92FF92E2
:1011D0000F939701201B31092F3F310519F010F0B3
:1011E0002FEF30E0322F3095482F430F08F44FEFA8
:1011F000842F620F0F91FF90EF900895EF92FF926E
:101200000F93972F093438F4B701601B71096F3FB2
:10121000710519F010F06FEF70E0485F5F4F4131DA
:10122000510540F0A901485F5F4F4131510510F071
:101230006FEF70E06095482F460F08F44FEF842F52
:1012400037FF02C02D5F3F4F359527953595279580
:1012500060917805620F792F0F91FF90EF900895BC
:10126000EF92FF920F931F930E0D1F2D111DF90189
:1012700037FF03C0F195E195F10924E0EE0FFF1F60
:101280002A95E1F7EF3FF10519F014F0EFEFF0E0E8
:101290009A0157FF03C031952195310994E0220F3F
:1012A000331F9A95E1F72E173F070CF4F901E00F71
:1012B000F11FEF3FF10519F010F0EFEFF0E0E095CE
:1012C000282F3E2F230F08F42FEF822F1F910F910D
:1012D000FF90EF900895EF92FF920F93970195E0A2
:1012E000099F200D311D11242F3F310519F010F0F9
:1012F0002FEF30E02095382F320F08F43FEF832F87
:101300000F91FF90EF90089522E8241B08F420E04D
:10131000620F08954095282F429F412D1124842F5C
:101320000895E42FF0E0EE0FFF1FE95DFD4F6081AF
:10133000621B0895E42FF0E0EE0FFF1FE95DFD4F03
:10134000408134EE439F412D1124E72FF0E050E01F
:10135000445E5F4FDA01A21BB1099D01B7FF03C0D4
:1013600031952195310993E0220F331F9A95E1F7CA
:10137000AF01421B530B9A0157FD20E0279F212DFF
:101380001124722F08950E94D60708950E94E10744
:1013900008950F931F9310E0F801EE0FFF1FE95D12
:1013A000FD4F9081905797FD9195000F111FF80107
:1013B000E85DFD4F00810052110B2003F001219FD9
:1013C000F00D112408E310E0091B110997FD139596
:1013D00040039001419F300D1124E20FF31F9F0144
:1013E000220F331F2E0F3F1F37FF02C021583F4FE0
:1013F000220F232F221F330B620F1F910F9108958D
:10140000EF920F931F93CF93DF93D62F172FC82FF1
:10141000C9010E19070F009729F480E857FD05C090
:1014200080E003C0BA010E94EC07702F781B719F07
:10143000712D11246D2F8C2FDF91CF911F910F9162
:10144000EF9008950F931F93CF93DF93D62F172F0D
:10145000C82FC901272F201B022F009729F480E8ED
:1014600057FD05C080E003C0BA010E94EC07982F29
:10147000990F990F782F791B700F719F712D11247F
:101480006D2F8C2FDF91CF911F910F910895E82F31
:1014900086FDE0952E2F2F7086FD2F5FE695E69551
:1014A000E695E670F0E0E355FE4F9181929F902D16
:1014B000212D112492959F702295207F922B2081BF
:1014C000920F87FD919580E8890F0895AC018230D5
:1014D000910508F408959FEF413E8EE1580740F4CE
:1014E0009A0195E0369527959A95E1F798E0920F45
:1014F00061E0E62FE90FFF27FF1F9F013595279534
:10150000822F229FF001239FF00DF00D11244E1722
:101510005F0738F49FEF920F961758F78FEF860FFB
:1015200008952F3FE9F361E0620FF6CF30E020E04D
:10153000869F212D969F200D311D1124C9010895EC
:10154000AF92BF92CF92DF92FF920F931F93CF93F0
:10155000DF93362F472FE82FF0E0EE5CFD4F71113F
:101560000FC0E4918E2F2E2F6E2F722FDF91CF910F
:101570001F910F91FF90DF90CF90BF90AF90089593
:10158000C72FD0E02491F22E022F10E056E0659F85
:10159000C0011124EFEFF0E0BF010E945932832F08
:1015A00090E0880F991F35E5369FD001379FB00D29
:1015B00011248A1B9B0B982F990F980F6F01CC1A3F
:1015C000DD0AC09ED001C19EB00DD09EB00D112489
:1015D0008B2F499FA0011124452F55276F01C41A55
:1015E000D50AC09EA001C19E500DD09E500D112461
:1015F0005F01A91AB108AC9E6001AD9ED00CBC9EE3
:10160000D00C1124CD2CDD24EC19FD09E09FE00164
:10161000E19FD00DF09FD00D1124ED2F62307105A8
:10162000A1F050F46115710509F49ECF6130710588
:1016300081F0EB2F852F98CF6430710569F080F031
:101640006630710509F490CFF4CFE22F2B2F8D2F48
:101650008BCFE22F252F88CFEB2F822F2D2F84CFFA
:101660002B2F8F2DE52F80CF2F923F925F926F927D
:101670007F928F929F92AF92BF92CF92DF92EF9222
:10168000FF920F931F93CF93DF93CDB7DEB72A97C7
:101690000FB6F894DEBF0FBECDBF8B837E836D8304
:1016A00020914B012295207F2F83205F29832A835D
:1016B0002D3410F03CE43A8380917D058C83FF81CA
:1016C000EF2FF0E0FA87E987CF01880F991F9C017F
:1016D000295D3D4F69013B81832F90E0FC013196EC
:1016E000F887EF838A8199859817E8F081E0E9818E
:1016F000EC3408F080E02A960FB6F894DEBF0FBEF7
:10170000CDBFDF91CF911F910F91FF90EF90DF90B0
:10171000CF90BF90AF909F908F907F906F905F9091
:101720003F902F900895E985FA85E154FD4F80811F
:1017300090914C018923F1F0209078053090790543
:101740002F81388523583A4F39015B8010E0FC81A6
:101750005F16D0F020917A05129F112D1124B1014E
:10176000812F0E94A00A462F282F672F89859A85EE
:101770000E94C60929853A852F5F3F4F3A872987FE
:1017800032E0C30ED11CAECFF30181913F01F601CF
:10179000A080A81ABB088180F3018185881A990866
:1017A000AA9C9001AB9C300D300D1124889CC00187
:1017B000899C900D900D1124820F931F0E94660A40
:1017C000082F60917B0521E0620F08F46FEFF301B1
:1017D000EE0FFF1FED57F540838D948D0E94960A02
:1017E0007C019401A501B101812FED81FE81099554
:1017F0001B015394182FABCFB0E0A0E0E2E0FCE077
:101800000C942C328C01C0914B01C295C07F20E119
:10181000D22EDC0ECD2C2CE42D1510F49CE4C92E18
:1018200020917B0531E0230F08F42FEF30E050E0EA
:1018300040E06FEF7FEF80E090E00E94523379014B
:10184000D0E02C2FCC1550F081E0FBE4FD1508F41E
:1018500080E0CDB7DEB7E8E00C944832FE01E154F9
:10186000FD4F808190914C01892311F140917D05BC
:101870004150042E000C550B47FF1CC0C70160915E
:101880007B0521E0620F08F46FEF0E94960AAC011D
:10189000609178057091790580917A05F801099534
:1018A0000E94A00A462F282F672FCE010E94C6094A
:1018B0002196C7CFFA01E358FA4F858982130AC0EF
:1018C000FA01EE0FFF1FE358FA4F878D90A18E1596
:1018D0009F05A8F241505109CFCFB0E0A0E0E3E767
:1018E000FCE00C942D327C01C0914B01C295C07F6D
:1018F00010E11C0F012F1D3408F00CE460917B05F2
:101900006695669521E0620F08F46FEF809173058C
:10191000909174050E94960AD82ED0E0C01748F026
:1019200081E01C3408F080E0CDB7DEB7E7E00C942E
:101930004932FE01E154FD4F808190914C01892391
:1019400091F0609178057091790580917A052D2D3F
:101950004C2FF70109950E94A00A462F282F672FC8
:10196000CE010E94C6092196D9CF84E080932D0430
:101970008FE780932E0480912F0480788064809379
:101980002F04E5EEF3E08FEF819394E0ED32F90759
:10199000D9F71092E4031092E3031092E20310923D
:1019A000E103089580E00895F894E82FE295EF7040
:1019B000F0E031A1282F2F7081E090E001C0880F66
:1019C0002A95EAF7982F9095932391A392A1892BBA
:1019D00082A3789408959091BB0392FF06C0282FAC
:1019E00028712830F9F4877F846093FF06C0282F80
:1019F00028712831F1F4877E84612091BC0320FF97
:101A000006C0382F38713830D9F4877F816021FFC4
:101A100006C0282F28712831D1F4877E816194FD7A
:101A2000877E0895282F24712430F9F68B7F8860F3
:101A3000DCCF282F2471243101F78B7E8861DDCF24
:101A4000382F3171313019F78E7F8860E0CF282F21
:101A50002171213121F78E7E8861E1CFCF93DF9311
:101A6000EC018238910581F1B0F58133910509F4DB
:101A700091C020F58932910509F485C08A9709F44F
:101A800090C0C11521E5D20708F0AAC0C11530E504
:101A9000D30708F0F2C0CF3BD10508F089C0C83A9F
:101AA000D10508F0DFC0C53AD10508F0D3C0C43075
:101AB000D105F8F4C130D105E1F040C0853391057E
:101AC00009F45AC0C997E9F68091BB03837089F085
:101AD000C0EED0E00EC0833E910599F170F4803ED7
:101AE000910501F1823E910561F68091BB0382FD73
:101AF00021C0CE01DF91CF910895863E910561F11D
:101B0000873E910571F1843E910509F0BACF80912D
:101B1000BC0381FFEECF8091BB03C7EED0E084FD14
:101B20000DC0E7CF8091BB0380FDF7C09091BC034F
:101B300090FFDFCFC3EED0E084FFDBCFD0E0C0E08A
:101B4000D8CF8091BB0382FDEBC09091BC0390FD88
:101B5000BFCF84FFCECFF2CF8091BB0383FDDDCF1B
:101B6000C8CF8091BB0383FDDEC09091BC0391FF81
:101B7000F0CFC4EED0E0BDCF8091BB0385FFB9CFDD
:101B8000C9E2D0E0B6CF8091BB0385FFB2CFC5E3F9
:101B9000D0E0AFCF8091BB0386FFABCFCAE2D0E0ED
:101BA000A8CF8091BB0386FFA4CFC1E3D0E0A1CF33
:101BB000C11540E2D40760F4C11581E0D80708F0F0
:101BC00098CFCE01805E9109089708F492CFB6CFE6
:101BD000C11590E4D90708F4B1CFDF70D06A89CF7E
:101BE000C11524E5D20778F4C11533E5D30708F011
:101BF00072C0C11542E5D40708F05CC0DC2FCC27C9
:101C0000C16FD06A76CFC1158AE5D80778F4C115BF
:101C100099E5D90708F073C0C11528E5D20708F483
:101C20008DCFDC2FCC27C06FD06A63CFCE0190560A
:101C30008115904208F082CF8D2F8F710E94EB0C9E
:101C400090E0982F882788279F719C012C2BE90111
:101C5000D0624FCFC55AD0E0CF5ADE4FC881D0E016
:101C6000D06447CFC85AD0E0CC0FDD1FCC5ADE4F2E
:101C70000990D881C02DD4643CCFCE0164E0969504
:101C800087956A95E1F783702C2F2695269523700A
:101C900040E2249F90011124382B8C2F8370C1E0E7
:101CA000D0E002C0CC0FDD1F8A95E2F7C22BD32B08
:101CB000DC681FCFCE018370992721E030E002C09D
:101CC000220F331F8A95E2F7C695C69580E2C89F1A
:101CD000E0011124EBCFCE018370992721E030E0A1
:101CE00002C0220F331F8A95E2F7C695C69590E28F
:101CF000C99FE0011124C22BD32BDA68FACE8C2FB6
:101D00008F700E94EB0C34E0D695C7953A95E1F7B9
:101D1000CF709C2FEC01D069ECCEC9E3D0E0E9CEC6
:101D2000C2EED0E0E6CEC6EED0E0E3CE0E945C0785
:101D3000089580916F0390913E03981301C0089518
:101D40008F5F8770FACF292F9C3078F5873068F540
:101D500090E037E0239F800D911D1124682F67705C
:101D600023E0969587952A95E1F7FC01EE0FFF1F7A
:101D7000E80FF91FE95EFC4F50E040E080E0219160
:101D800030E0062E02C0369527950A94E2F72170BE
:101D90003327042E01C0220F0A94EAF7822B4F5FEB
:101DA0005F4F4330510559F7089580E00895292F7A
:101DB0009C3098F5873088F590E037E0239F800DC0
:101DC000911D1124282F277041E001C0440F2A954E
:101DD000EAF723E0969587952A95E1F7FC01EE0F47
:101DE000FF1FE80FF91FE95EFC4F30E020E070E0D4
:101DF0005191DF011197CB01022E02C09695879574
:101E00000A94E2F7817081958527842385278C9336
:101E10002F5F3F4F2330310559F7089580935905BF
:101E200070935B0560935A05809169058430F9F4DD
:101E30008093E9008FEF9091E800815095FD06C0F6
:101E400095ED9A95F1F700008111F5CF8091E800AA
:101E500085FF0DC050E040E063E070E089E595E06B
:101E60000E94E7048091E8008E778093E80008954F
:101E7000BC0184E00E940E0F0895BC0183E00E9423
:101E80000E0F0895CF93DF93EC0181E08093E9007A
:101E90008FEF9091E800815095FD06C095ED9A95E1
:101EA000F1F700008111F5CF8091E80085FF14C0A3
:101EB00050E040E068E070E0CE010E94E7048091CD
:101EC000E8008E778093E80088E0FE01AFE5B5E09A
:101ED00001900D928A95E1F7DF91CF910895539A81
:101EE0003BB1377F2BB128604FB7F8948AE694E076
:101EF000FC015191CF0168E02BB9000000C057FFF1
:101F00003BB9550F000000C000C000C03BB900C085
:101F10006A9591F7F5E08E349F0751F74FBF8FE533
:101F200094E00197F1F700C000000895B0E0A0E050
:101F3000ECE9FFE00C942A327C015B016A0180919C
:101F4000A70301E010E08A3010F40AE010E0C1E0DD
:101F5000D0E0B501C701F6010995811104C02196B1
:101F60000C171D072CF4CDB7DEB7EAE00C9446320F
:101F7000CC9F9001CD9F300D300D112490E080E07A
:101F800045E34A95F1F70000019682179307C1F7E0
:101F9000E0CF80918703811110C08091D8008061CB
:101FA0008093D8008AE18A95F1F700C08091D9002A
:101FB00080FF0AC081E08093870381E090918703CE
:101FC000913009F080E0089582E0809387030E94B9
:101FD000970410926905F1CF0E94C90F882359F028
:101FE000E0915005F0915105309729F00190F08172
:101FF000E02D0995089580E008950F931F930E94A6
:10200000C90F882329F00E945C071F910F91089542
:102010000E945C070091A8031091A9032091AA03D4
:102020003091AB03600F711F821F931FEECFCF92D1
:10203000DF92EF92FF926B017C010E94C90F88230F
:10204000A1F02FB7F89460915505709156058091D5
:102050005705909158052FBF6C197D098E099F096E
:10206000FF90EF90DF90CF9008950E94FD0FF4CF86
:10207000CF93DF93C7ECD2E060E0CE010E942E3315
:102080002196C11584E0D807B9F7DF91CF91089563
:102090001F93CF93DF93122F8430E0F46C30D0F491
:1020A0004730C0F4C42FD0E0CC0FDD1F9EE0699F05
:1020B000C00DD11D112498EA899FC00DD11D112496
:1020C000632FCE0187960E942E33612FCE01889612
:1020D0000E942E33DF91CF911F910895AF92BF924E
:1020E000CF92DF92EF92FF921F93CF93DF9382E321
:1020F000C82E83E0D82ED0E07601C0E014C0F501F0
:1021000025913491412F6C2F8D2F0E94481082E031
:10211000A80EB11C1F5F173091F78EE0E80EF11C7E
:10212000CF5FCC3019F0570110E0E9CFDF5F88EACC
:10213000C80ED11CD43001F7DF91CF911F91FF90D1
:10214000EF90DF90CF90BF90AF900895CF93C82FBE
:102150006FEF811162E283E290E00E942E33C111A1
:102160000DC0CFEF6C2F84E290E00E942E336C2FD5
:1021700085E290E00E942E33CF910895C8E0F2CF1F
:1021800080E00E94A61060E086E290E00E942E337C
:102190000E946E100E94381081E00E94A6100895DF
:1021A0000F931F93CF93DF93843030F56C3020F57D
:1021B000473010F5C42FD0E0CC0FDD1F2EE0629F1A
:1021C000C00DD11D112438EA839FC00DD11D1124EB
:1021D000CE0187960E941033082F10E0102F0027A1
:1021E000CE0188960E9410339801282BC901DF91F7
:1021F000CF911F910F91089590E080E0F8CF462F86
:10220000843040F47C3030F4673020F4672F0E9433
:10221000D010089590E080E00895CF92DF92FF9271
:102220000F931F93CF93DF936C010091B0058091C2
:102230007A03082BC7E0D0E010E0FC2EC8010C2E7A
:1022400002C0959587950A94E2F780FD0CC021970E
:10225000A0F7F12C8F2DDF91CF911F910F91FF905F
:10226000DF90CF900895B6018C2F0E94FF100E943E
:102270002E0D019761F3EECFCF93DF93EC010E9417
:102280000D11BE010E94FF100E942E0DDF91CF9113
:102290000895FC01808191810E943C1192959F706C
:1022A000963091F058F4925F9F70923058F4803FCE
:1022B00019F030F4883E30F481E008959A5FF4CF4D
:1022C000843FD1F380E00895883EB0F3813FD1F799
:1022D000F3CF83E290E00E941033823289F484E2EB
:1022E00090E00E941033883059F485E290E00E941B
:1022F000103391E0883009F090E0892F81700895C3
:1023000080E0FCCFCF9384E090E00E941033C82F90
:1023100082E290E00E941033982F8C2FCF91089585
:1023200046E050E06CE170E087E795E00E941E33E4
:10233000109269040895E7E7F5E08DE180838091CC
:102340004E0190914F01A091500181839283A3830C
:102350008FE784838FEF85830E9490110895B0E00A
:10236000A0E0E5EBF1E10C942832182F80913C01BC
:10237000811323C090917705937020913B0130E049
:1023800081E09217130609F480E0817080934D017B
:1023900080917C0590914C01981739F080934C0105
:1023A00040E060E080E00E94C309113188F4E12F31
:1023B000F0E0E954FC4C0C94813281E0E6CF80914E
:1023C0004D01882319F140E060E080E00E94C309DC
:1023D00080E01CC0C0914B01C295C07F00E10C0F92
:1023E000F02E0D3410F03CE4F32E609178057091DE
:1023F000790580917A050E94A00AD62EC72EB82EA4
:10240000D0E0CF15D8F081E00C3410F790914B015B
:102410009F5F90934B0181110CC082E080933D013E
:1024200080914D01811105C0111103C083E080939B
:102430003D01CDB7DEB7ECE00C944432FE01E1542F
:10244000FD4F808190914C01892331F02B2D4D2D32
:102450006C2DCE010E94C6092196D3CFC0914B01AD
:10246000C295C07F00E10C0FD02E0D3410F02CE48B
:10247000D22EC0907905B0907A0520917B0590E42A
:10248000F92E3F2D329F312D1124F32ED0E0CD15A2
:1024900008F0B9CFFE01E154FD4F808190914C01CD
:1024A0008923B9F0FE01EE0FFF1FE85DFD4F80812B
:1024B00082958F70609178058F9D600D11247C2D21
:1024C0008B2D0E94A00A462F282F672FCE010E9435
:1024D000C6092196DCCFC0914B01C295C07F00E1B7
:1024E0000C0FF02E0D3410F0BCE4FB2ED0907805CC
:1024F000D0917905C0907A0560917B0566956695C7
:10250000669580917305909174050E94960A0E94C9
:10251000470A805887FD8195880F582F2C2D529F90
:10252000512D1124852F6D2D7D2F0E94A00AD62EAE
:10253000C72EB82ED0E0CF1508F065CFFE01E154CC
:10254000FD4F808190914C01892331F02B2D4D2D31
:102550006C2DCE010E94C6092196EDCF8AE999E043
:102560000E946D0C53CFC0914B01C295C07FA0E17A
:10257000FA2EFC0EDF2C4CE44F1510F4FCE4DF2E99
:1025800060917B05669580917305909174050E941A
:10259000960AC82ED0E0CD1530F081E02BE42F153F
:1025A00008F034CF15CFFE01E154FD4F80819091AA
:1025B0004C01892311F1CE01880F991F8D529E4F36
:1025C000FC01EB5AFF4F20812052330B8C5A9F4F56
:1025D000FC0140814057550B609178057091790559
:1025E00080917A050C2D0E94220A0E94A00A462F93
:1025F000282F672FCE010E94C6092196CCCFC0910B
:102600004B01C295C07F70E1F72EFC0EBF2C3CE45D
:102610003F1510F46CE4B62E60917B0566958091B1
:102620007305909174050E94960AA82ED0E0CB15F0
:1026300030F081E04BE44F1508F0E8CEC9CEFE0142
:10264000E154FD4F808190914C018923C9F1CE0165
:10265000880F991F8D529E4FFC01EC5AFF4F20812D
:10266000422F4057550B6A018B5A9F4FFC018081C6
:10267000282F2052330B4901449F9001459F300D74
:10268000300D1124889CC001899C900D900D11245F
:10269000820F931F0E94660A082F6091780570913F
:1026A000790580917A05EA2C9401A6010E94000A1E
:1026B0000E94A00A462F282F672FCE010E94C6092C
:1026C0002196B5CF81E999E04BCFC0914B01C295DE
:1026D000C07F40E1F42EFC0ECF2C5CE45F1510F4BB
:1026E0003CE4C32E60917B056695669580917305E9
:1026F000909174050E94960AD82E80E48D0D0E9458
:10270000470A90E8B92EB80E8D2D0E94470A20E89E
:10271000A22EA80ED0E0CC1530F081E09BE49F15EE
:1027200008F074CE55CEFE01E154FD4F80819091AA
:102730004C018923A1F06091780570917905809111
:102740007A05ED2C0C2F2A2D4B2D0E94C9090E94D1
:10275000A00A462F282F672FCE010E94C609219676
:10276000DACF8AE899E00E94FC0B50CE84E899E029
:10277000FACF80917D0521E0382F321B08F430E03C
:10278000832F6BE679E00E94340B40CE60E379E062
:1027900080E0F9CF80917D0521E0482F421B08F4AD
:1027A00040E0842F6EEF78E0EECF80917D0521E050
:1027B000582F521B08F450E0852F66EE78E0E3CFE7
:1027C00080917D0521E0382F321B08F430E0832F03
:1027D00060ED78E0D8CFC0914B01CF5FC295C07F4C
:1027E0000E94DA32D82F0E94DA326D2F782F809132
:1027F0007A050E94A00A482F872F0E94C30981E012
:10280000CC3408F403CEE4CD4F925F926F927F9266
:102810008F929F92AF92BF92CF92DF92EF92FF92F0
:10282000CF936091640470916504809166049091E7
:1028300067040E9417106B017C010E94FD0F4B0181
:102840005C018092640490926504A0926604B09248
:102850006704A0913104E1E3F4E08A2F90E04FEFA8
:102860005FEF60E070E04C195D096E097F09A91304
:102870002AC08093310480916804C0E0811108C0AF
:1028800080917705C82FC37019F0C82FC695C695DB
:1028900080913D01813009F440C0882339F18230B4
:1028A00009F4FAC0833009F402C1CF91FF90EF9090
:1028B000DF90CF90BF90AF909F908F907F906F9060
:1028C0005F904F900895278D30A12901712C612CC4
:1028D000441555056605770520F481509F5F3296B3
:1028E000C6CF2C0D3D1D30A3278FF8CF10924B0182
:1028F0008092730590927405A0927505B09276054A
:1029000083E3E1E3F4E0ADE7B5E001900D928A9551
:10291000E1F781E080933D01C8CF8C2F0E94AF1179
:10292000CC2319F280917705837009F4BECF809192
:10293000B00590E0B0E0A0E0AC01BD01F4E0769518
:10294000679557954795FA95D1F720E041155105C0
:102950006105710519F0DB01CA0124E0AC01BD017C
:10296000E2E07695679557954795EA95D1F7411539
:1029700051056105710519F02E5FDB01CA01B6959D
:10298000A79597958795892B8A2B8B2B09F02F5F1D
:10299000213009F479C0233009F087CF20E043E3E8
:1029A00063E38EE090E00E94C60920E043E360E02C
:1029B00089E190E00E94C60920E043E363E38EE0F2
:1029C00090E00E94C60920E043E360E089E190E0E6
:1029D0000E94C60923E340E060E086E090E00E94A8
:1029E000C60923E340E060E089E090E00E94C60968
:1029F00023E340E060E082E190E00E94C60923E327
:102A000040E060E085E190E00E94C60923E340E0F9
:102A100060E08DE190E00E94C60923E340E060E0C1
:102A200080E290E00E94C60923E340E060E084E297
:102A300090E00E94C60923E340E060E087E290E076
:102A40000E94C60923E340E060E08FE190E00E942D
:102A5000C60923E340E060E085E290E00E94C609F9
:102A600026E249E163E386E290E00E94C60920E0A5
:102A700040E063E388E290E00E94C60920E049E17B
:102A800063E389E290E005C023E343E363E390E07E
:102A900080E00E94C60909CFC0933C018091770570
:102AA000837080933B010E946F0F83E033CF80914E
:102AB000690481110E9490116091730570917405F1
:102AC00080917505909176050E941710603171050F
:102AD0008105910508F4E9CE10923D01E6CEA4E00F
:102AE000B0E0E5E7F5E10C9431324091A303509159
:102AF000A4036091A5037091A6032FB7F894809169
:102B0000550590915605A0915705B09158052FBFD6
:102B1000841B950BA60BB70B11E084369105A1051C
:102B2000B10570F10E94FD0F6E5F7F4F8F4F9F4F79
:102B300069837A838B839C83809125019091260100
:102B40008A569C4F4091240150E04530510510F0C9
:102B500044E050E0BE016F5F7F4F0E94F73284E097
:102B600090E00E94AC31182F882351F00E945C073E
:102B70006093A3037093A4038093A5039093A6038B
:102B8000812F2496E3E00C944D324F925F927F9216
:102B90008F929F92AF92BF92CF92DF92EF92FF926D
:102BA0000F931F93CF93DF930F92CDB7DEB7C62E4F
:102BB0004A015901482E880F5508C2010E94AC31C4
:102BC000782E882309F480C0C20133E0880F991F52
:102BD0003A95E1F7FC01EC5FFE4F438150E041156F
:102BE000510511F041E050E08C5F9E4FFC01648183
:102BF00075816A567C4FCE0101960E94F732F4012E
:102C000040815181628173812FB7F894809155057D
:102C100090915605A0915705B09158052FBF841B80
:102C2000950BA60BB70B84369105A105B10540F4B1
:102C3000B701C8010E94BA079981891709F444C0F5
:102C40000C2C000CDD08C6010E94AC31782E8111DD
:102C500013C0712C872D0F90DF91CF911F910F9191
:102C6000FF90EF90DF90CF90BF90AF909F908F90AC
:102C70007F905F904F900895C60123E0880F991FC1
:102C80002A95E1F7FC01EC5FFE4F438150E0E4162A
:102C9000F50608F4A7018C5F9E4FFC0164817581E5
:102CA0006A567C4FC5010E94F732B701C8010E94E5
:102CB000BA0799818913CDCF0E945C07F401608324
:102CC000718382839383C6CFA701B801C5010E9497
:102CD000F732C0CFA6E0B0E0E0E7F6E10C942C328A
:102CE0006B0186E0E82EF12C07E913E09E012F5FCF
:102CF0003F4F4EE853E061E080E00E94C515882315
:102D000049F096E0FE013196A8E8B3E001900D92FB
:102D10009A95E1F796E0E8E8F3E0D60101900D928C
:102D20009A95E1F72696E8E00C9448328091790371
:102D300090917803892B80930E0348E050E060E780
:102D400073E08EE093E00E94EA32892BA9F088E0DC
:102D5000EEE0F3E0A0E7B3E001900D928A95E1F791
:102D6000E0915005F0915105309731F00280F381E8
:102D7000E02D8EE093E00995089590E080E00E94B8
:102D8000A40790E080E00E948E07109278030E94D2
:102D9000961608958093B0050E94BD1608958091FF
:102DA000B005982F9670963021F488600E94CA165C
:102DB0000895877FFBCF21E030E001C0220F8A9584
:102DC000EAF720958091B00582230E94CA160895E3
:102DD00021E030E001C0220F8A95EAF78091B0052A
:102DE000822B0E94CA16089580937A030E94BD1612
:102DF000089510927903E0E1F3E086E0DF011D928F
:102E00008A95E9F70E94BD160895AAE2B0E0EBE0CA
:102E1000F7E10C9431328BE695E02091F100DC0172
:102E20002D93CD01B5E083379B07B9F780916C05F1
:102E3000833009F472C0B8F4813009F449C082309B
:102E400009F4B3C08091E80083FF96C280916B05BE
:102E500090916C059A3008F08FC2E92FF0E0E853AA
:102E6000FC4C0C9481328A3009F48EC08B3009F40A
:102E700071C0893039F780916B05813219F78091E3
:102E80006F0590917005009711F00297D9F6809127
:102E9000E800877F8093E8008091E80082FF38C0D7
:102EA0009091F3008091F200029731F48091F1004B
:102EB000813011F0863021F48091F10080935E051D
:102EC0008091E8008B778093E8000E943B05BACFA1
:102ED00080916B05813A09F0B5CF8091E800877F3A
:102EE0008093E80080916F0590917005892B61F4C3
:102EF00068E08FE595E070E00E94E7058091E800CA
:102F00008B778093E8009ECF60E090E080E0F3CF85
:102F1000809169058111C0CF95CF80916B05813A71
:102F200009F090CF80916F0590917005892B09F081
:102F300089CF8091E800877F8093E8008091E80046
:102F400080FFFCCF80914A018093F1008091E800DE
:102F50008E77B9CF80916B05813209F073CF809164
:102F60006F0590917005892B09F06CCF8091E80076
:102F7000877F8093E8000E943B0580916D058093D8
:102F80004A010E94F9165ECF80916B05813209F0EB
:102F900059CF8091E800877F8093E8000E943B052D
:102FA00080916E0580935D054DCF80916B05813AD0
:102FB00009F048CF8091E800877F8093E8008091F6
:102FC000E80080FFFCCF80915D05BECF803899F08E
:102FD000823809F0D1C180916F058F70873008F079
:102FE000CBC18093E9008091EB0085FB882780F9B5
:102FF0001092E90006C080916705909168059111D3
:1030000082609091E800977F9093E8008093F100B0
:103010001092F1008091E8008E77AAC1882309F40C
:1030200098C1823009F0A8C180916D0581119BC1C2
:1030300080916F058F702FEF280F263008F09CC10C
:103040008093E9002091EB0020FF8DC1933031F493
:103050008091EB0080628093EB0085C19091EB0042
:1030600090619093EB0021E030E001C0220F8A953F
:10307000EAF72093EA001092EA008091EB00886062
:10308000EACF811179C110916D051F778091E3001E
:103090008078812B8093E3008091E800877F809384
:1030A000E8000E943B058091E80080FFFCCF809102
:1030B000E30080688093E30082E0111183E0809355
:1030C00069055AC18058823008F056C120916D05BB
:1030D00030916E052C3DE3E03E07A1F583E08A8345
:1030E0008AE289834FB7F894DE01139620E03EE030
:1030F00051E2E32FF0E050935700E49120FF03C02A
:10310000E295EF703F5FEF708E2F90E0EA30C0F0F5
:10311000C7968D939D932F5F243159F74FBF8091B0
:10312000E800877F8093E8006AE270E0CE010196B4
:103130000E94E7058091E8008B778093E8001CC12E
:10314000C096E7CF80916F0590917005432F55276A
:103150004330510509F44AC078F54130510509F46E
:103160007AC08FEB90E0E2EDF5E04230510509F0D6
:1031700003C12091E800277F2093E800209171058A
:10318000309172058217930708F49C0140E02115E5
:10319000310509F065C0411163C08091E80082FDEE
:1031A000C9CF80916905882329F2853019F2809171
:1031B000E80083FFF2CFBECF4132510509F43CC095
:1031C0004232510509F0D8C08330910508F0D4C0CF
:1031D000FC01EE0FFF1FE953FE4F0190F081E02D3F
:1031E0008C539E4FDC018C9190E01AC03327213024
:1031F0003105D1F02115310561F02230310509F09A
:10320000BBC0E3EAF6E0E4918E2F90E0E3EAF6E05B
:1032100007C0E1EDF6E0E4918E2F90E0E1EDF6E0FD
:10322000009709F4A9C0A5CFE1ECF6E0E4918E2F58
:1032300090E0E1ECF6E0F4CF8330910508F09CC01B
:10324000880F991FFC01E353FE4F0190F081E02DA0
:1032500089E090E08ECF82E190E0E1E9F6E089CF6D
:1032600080916905882309F465CF853009F462CF20
:103270008091E80083FD5ECF8091E80082FD8DCFD4
:103280008091E80080FF83CF9091F3008091F2005D
:103290002115310519F08830910550F041E008976B
:1032A00009F040E08091E8008E778093E8006FCFCE
:1032B00044914093F1003196215031090196E8CFB5
:1032C000803809F059C08091E800877F8093E8003A
:1032D00080916A058093F1009DCE81114DC01091BF
:1032E0006D05123008F048C08091E800877F809318
:1032F000E80010936A050E943B05112311F084E059
:1033000005C08091E30087FDFACF81E080936905D5
:1033100042E061EC81E00E945A0542E261EC84E007
:103320000E945A0542E261EC82E00E945A0542E2A4
:1033300060EC83E00E945A0542E361E885E00E9468
:103340005A0542E361E886E00E945A0580916905CA
:1033500013C080916D05813079F481E0933009F0DC
:1033600080E0809368051092E9008091E800877FF3
:103370008093E8000E943B058091E80083FF0AC02B
:103380008091E800877F8093E8008091EB00806265
:103390008093EB00AA96E3E00C944D320E94F9165C
:1033A0002FEF84E39CE0215080409040E1F700C083
:1033B000000088E19AE00FB6F894A8958093600029
:1033C0000FBE90936000FFCF882341F080959091CD
:1033D00079038923809379030E94961608958823A0
:1033E00039F090917903982B909379030E94961667
:1033F00008958823C1F19CEF980F913A78F4E0E1A9
:10340000F3E09191891303C0DF0111971C9243E00F
:10341000E631F407B1F70E949616089590E2980FEE
:10342000983088F4877021E030E0A90102C0440F91
:10343000551F8A95E2F7CA018095909179038923F7
:1034400080937903E8CF9BE5980F933028F490E0C0
:1034500080E00E94A4070895885A873120F490E004
:1034600080E00E948E070895CF93C82F8823B1F083
:103470008CEF8C0F813A00F5E0E1F3E086E193E018
:10348000DF012D91C21761F08A179B07D1F76C2FCE
:103490008EE093E00E9474070E949616CF910895E3
:1034A0002191C21303C0DF0111971C928E179F0751
:1034B000B9F70E949616EBCF80E28C0F883068F443
:1034C000C77021E030E001C0220FCA95EAF7809171
:1034D0007903822B80937903DFCFEBE5EC0FE330A8
:1034E00040F4F0E0EF5AFE4F808190E00E94A40784
:1034F000D5CFC85AC73190F6EC2FF0E0EE0FFF1F82
:10350000EC5AFE4F808191810E948E07C7CF1F9396
:10351000CF93DF93182FCAE0D0E0893311F4C0E5D0
:10352000D0E0812F0E94341A8FE99FE00197F1F7D4
:1035300000C000002197C1F7812F0E94F919DF9187
:10354000CF911F9108950F931F93CF93DF93C62FB1
:10355000D42F022FFC0182818823A9F06093A0065A
:103560000E94680790939F0680939E06C77081E033
:1035700001C0880FCA95EAF70E94EF19DF91CF9139
:103580001F910F9108958091A006681332C0809119
:103590009E0690919F060E944D07883C910548F534
:1035A00010E21D0FCD17B9F080E28C0F883040F487
:1035B000C77081E001C0880FCA95EAF70E94E4193C
:1035C000183048F481E09D2F977001C0880F9A95BC
:1035D000EAF70E94EF19802F0E94871A183070F6C0
:1035E000D77081E001C0880FDA95EAF70E94E419EC
:1035F000C5CFC77081E001C0880FCA95EAF7F6CF42
:10360000B0E0A0E0E6E0FBE10C942D32E82FF0E022
:10361000E059FE4FD490282F26952695269530E028
:10362000F901E05AFE4F0491877010E0082E02C0A5
:10363000159507950A94E2F701701127F901E05BEF
:10364000FE4FE490F12C082E02C0F594E7940A9402
:10365000E2F791E0E922FF24F901E05CFE4FC4911A
:10366000D0E002C0D595C7958A95E2F7C170DD27F5
:103670000115110519F081EE0E94341AE114F104CC
:1036800019F086EE0E94341A8D2D0E94871AE114DB
:10369000F10419F086EE0E94F9190115110519F0CF
:1036A00081EE0E94F919CD2B19F08CE20E94871A45
:1036B000CDB7DEB7E7E00C94493290E080E00E949D
:1036C0001833883E9E4F19F40E946911089580E0D6
:1036D000089568EE7EEF90E080E00E944C3360E059
:1036E00082E090E00E942E3360E083E090E00E9450
:1036F0002E3310927A0360E084E090E00E942E3333
:1037000064E082E290E00E942E3360E085E090E089
:103710000E942E3360E086E090E00E942E336FEF2F
:1037200087E090E00E942E3340E050E0BA0188E04C
:1037300090E00E94403360E08DE090E00E942E33E4
:1037400040E050E0BA0188E190E00E94403360E040
:1037500087E190E00E942E3340E050E0BA018CE116
:1037600090E00E94403370E060E080E290E00E94D0
:103770004C3340E050E0BA0188E190E00E944033D1
:1037800080E00E94A6100E94C01040E050E0BA0104
:103790008FE090E00E9440330E94B50CEDE2F4E02F
:1037A0008081807F82608083EEE2F4E08081807897
:1037B000856780830E94C30880916904816080933B
:1037C00069048FE780937B0521E04FEF6FEF8AEA72
:1037D00090E00E94320861E08AE00E949308089518
:1037E000A5E0B0E0E6EFFBE10C9429327C01FC019E
:1037F00083819481892B31F08081918189238F3F4E
:1038000009F0F9C62596EBE00C9445320E940D11A3
:10381000182F682F89819A810E94D70E69817A8139
:10382000812F0E94FF108C01F7019281992309F4E6
:10383000D7C6980122513F452031310508F09AC67C
:103840008FEF93E00E9410338111DCCF025137ECEF
:10385000E32E32E0F32E011135C01C821B82DD24E1
:10386000D3942AE0C22E87010F5F1F4FC7010E9429
:10387000103389831A82882329F29FEF980F93309F
:1038800080F58A83D98232E0E30EF11CC8010E94E0
:1038900010338B83882309F4B5CF8E010F5F1F4F40
:1038A000F80180818823F9F2813009F052C09181BA
:1038B00082819130C1F40E5F1F4F0E94871A0F5F03
:1038C0001F4FEECFE114F4E0FF0609F49BCFC701D0
:1038D0000E941033811101C001502FEFE21AF20A49
:1038E000BACF7801DACF923029F40E5F1F4F0E94D1
:1038F000341AE5CF933029F40E5F1F4F0E94F91957
:10390000DECF943019F00F5F1F4FD9CF0E5F1F4FDE
:1039100030E020E0B8016F5F7F4FF80141818053B4
:10392000990B8A30910550F02150310940F28FE90E
:103930009FE00197F1F700C00000F6CFC29EF001B2
:10394000C39EF00D11249C012E0F3F1F842F8B016D
:10395000E1CF0E94001BB3CF81E00E94E81603C0B4
:1039600081E00E94DB160E94CF164CCF82E0F5CF9B
:10397000823049F46501F2E0CF0ED11CF60184914A
:103980000E94341A28C6833049F46501F2E0CF0E54
:10399000D11CF60184910E94F9191DC6843009F0EA
:1039A0001AC66501F2E0CF0ED11CF601249190E019
:1039B00080E0F60131962053330B2A30310550F068
:1039C000019708F408C6EFE9FFE03197F1F700C06E
:1039D0000000F6CF989EA001999E500D1124C901B8
:1039E000840F951F24916F01E4CF0E94001B650195
:1039F000F2C50E3A3CE5130708F0EDC00E394CE570
:103A0000140708F01EC200395CE5150708F094C0E1
:103A100003386CE5160708F0CCC101387CE51707C0
:103A200008F071C007378CE5180708F0A5C10F3200
:103A3000ECE51E0708F056C1033F6CE5160709F4D4
:103A4000B1C208F03CC1083D8CE5180709F4A6C2D4
:103A5000093D9CE5190709F4B1C2073DECE51E07D5
:103A600009F498C2F7019281992309F4D5C51092FF
:103A7000A0060330FDE51F0708F0A3C20A3F2CE5AE
:103A8000120738F4980122503C452431310508F0E2
:103A9000A2C20E9482119093BC038093BB030131A8
:103AA0005CE5150709F474C308F0EEC209307CE543
:103AB000170709F45BC308F0B9C205309CE5190784
:103AC00009F44CC308F09EC20330FCE51F0709F45B
:103AD0003BC308F03FC38091BB03816002303CE5EB
:103AE000130709F434C36091BB031091BC0384E055
:103AF00090E00E942E33612F82E290E00E942E33EC
:103B00000E94F9167FCE0138FCE51F0709F441C178
:103B100002382CE5120709F08FCF992309F472CEF1
:103B200080912D048F70893008F06CCE8F5F8F707C
:103B300090912D04907F39C10C393CE5130790F525
:103B400002394CE5140708F051C100395CE515074E
:103B500009F43AC101396CE5160709F06DCF9923D4
:103B600009F450CE90912D04959595959595959540
:103B700096300CF047CE21E0290F2295207F259525
:103B8000259525952595322F3295307F80912D04EE
:103B90008F70832B80932D0419160CF033CE27FFE2
:103BA00031CE20C10C397CE5170709F42FC10D393E
:103BB0008CE5180709F040CF992309F423CE8091B2
:103BC0002E04982F9F779F3709F41CCE933708F067
:103BD00036C1935F2EC1043BECE51E0709F485C195
:103BE000C8F5003B2CE5120709F45BC1D8F40E3A86
:103BF0004CE5140709F438C10F3A5CE5150709F0E4
:103C00001BCF992309F4FECD20912E04322F331FB0
:103C10003327331F90912F04892F8770880F832BB0
:103C20008F5F32C180912E0420912F04023B6CE5FE
:103C3000160709F446C108F04EC140E091114FE764
:103C4000881F8827881F2770220F60E4822B0E941C
:103C5000A303D8CD073B8CE5180709F454C180F4C1
:103C6000053BFCE51F0709F440C1063B2CE51207A4
:103C700009F0E2CE8FEF911181E08093E303C2CD92
:103C8000093B3CE5130709F473C108F45CC10A3B26
:103C90005CE5150709F0D0CE80912E04282F221F55
:103CA0002227221F80912F048770880F822B6FEFAD
:103CB0007FE1992309F46BC10E948A03A3CD053FDC
:103CC000FCE51F0709F476C108F470C127E245EE50
:103CD00066EE063F3CE5130709F0C4CEC7010E941B
:103CE000A31A90CD80912E04282F221F2227221F55
:103CF00040912F044770440F422B8F7721ED200F06
:103D000030E0B9016B517C4F7B01FB01208199238D
:103D100009F12F3F09F076CD10912D04912F9F705E
:103D200015951595159515951F52FCE09F9F100D43
:103D30001124100F212F2F774069E091B105F091E8
:103D4000B205082F63E070E081EB95E00995F7017B
:103D5000108358CD2F3F61F02F774068E091B10577
:103D6000F091B205082F63E070E081EB95E00995D2
:103D70008FEFF701808346CD992309F443CD075790
:103D8000802F8F7000912D04007F082B00932D044D
:103D900039CD992309F436CD80912D04982F9F7049
:103DA00009F430CD915F9F70807F892B80932D0423
:103DB00029CD992309F426CD0958802F8295807F3B
:103DC00000912D040F70E1CF992309F41BCD809150
:103DD0002D04982F95959595959595959B3F0CF469
:103DE00011CD915F9295907F8F70DFCF992309F469
:103DF00009CD02598EE0089F802D11248F77009104
:103E00002E040078082B00932E04FCCC992309F48F
:103E1000F9CC80912E04982F9F7709F4F3CC9F372B
:103E200029F48078856780932E04ECCC9D3028F0AF
:103E30009D509F778078892BF6CF8078F4CF8F675D
:103E4000F2CF992309F4DECC0E5980912E0400FBA9
:103E500087F980932E040695077080912F04887F40
:103E6000082B00932F04CECC992309F4CBCC2091BE
:103E70002E04322F331F3327331F90912F04892FA5
:103E80008770880F832B815F382F3F7080FB27F965
:103E900020932E04832F8695987F982B90932F0440
:103EA000B1CC992309F4AECC90912E04991F992797
:103EB000991F80912F048770880F40E06BE7892B52
:103EC000C6CE40E091114FE7881F8827881F2770D2
:103ED000220F61E4BBCE40E091114FE7881F882795
:103EE000881F2770220F62E4B1CE40E091114FE7A6
:103EF00090912E04991F9927991F80912F04877004
:103F0000880F63E4DCCF992309F47CCC90912F04D3
:103F1000292F2695269526952F7081E0820F8F7088
:103F2000880F880F880F9778892B80932F04982FFC
:103F3000987709F067CC220F220F220F8778822B07
:103F400080932F045FCC992309F45CCC80912F04DB
:103F5000982F987709F456CC982F96959695969524
:103F6000915F9F70990F990F990F8778892BE8CFF0
:103F700080912E04282F221F2227221F80912F0498
:103F80008770880F822B60E070EE911195CE70E003
:103F900060E092CE26E241EE61EEA0CE27E245EE51
:103FA00065EE9CCE26E241EE60EE98CE27E245EE2D
:103FB00064EE94CE26E241EE62EE90CE28E241E03D
:103FC000EFCF01363DE5130709F463CD053A4DE522
:103FD000140709F45ECD06318CE5180709F09EC37D
:103FE000809179038A7A91E009F490E09093160326
:103FF00069E2811165E38EE093E00E9474070E94FC
:10400000961600CC8091BB03806207304CE5140704
:1040100009F49DC08091BB03806108305CE5150701
:1040200008F495C08091BB03806491C08091BB036C
:104030008B7F0D306CE5160709F489C088F40B30CE
:104040008CE5180709F498C08091BB038C600C3094
:104050009CE5190708F47BC08091BB038D7F77C076
:104060008091BB038F7E0F30ECE51E0709F46FC013
:104070008091BB03877F0031FCE51F0708F467C010
:104080008091BB038F7D63C00D3F2CE5120709F4BF
:104090007BC058F505314CE5140709F483C098F44A
:1040A0008091BB03837F03316CE5160709F44FC091
:1040B00008F472C00E94F9169091BB03892F97FBF8
:1040C00087F9805844C00B3F8CE5180709F44AC0B3
:1040D00008F056C08091BC0381600A3FECE51E07E2
:1040E00009F001CD8093BC03FECC0130FDE51F0734
:1040F00009F464C0C0F48091BC038C7F0F3F3CE5A1
:10410000130781F38091BC03836001154DE514070B
:1041100048F38091BC03982F909591708E7F892BE6
:1041200090FB81F9DFCF01365DE5150709F44CC03E
:10413000053A6DE5160709F44EC002307DE5170714
:1041400009F0D1CC60E03BC08091BB0382608093DA
:10415000BB03C9CC8091BB038460F9CF8091BB03C2
:104160008860F5CF8091BC038260BCCF0E94F916B5
:104170008091BB038068EBCF8091BB038E7FE7CF3C
:104180008091BC038E7FAECF8091BC038D7FAACF80
:104190008091BB038F7BDBCF0E94F9168091BB031C
:1041A0008F77D5CF8091BB0382FB992790F921E0CF
:1041B000922790FB82F990FB83F9C9CF61E08EE0F2
:1041C00090E00E942E338FCC9091BB03892F8F7E7D
:1041D00094FF8061BCCF9091BB03892F8E7F90FFAD
:1041E0008160B5CF8091160381110FC089E2E0E1B3
:1041F000F3E026E133E09191891303C0DF011197C9
:104200001C922E173F07B9F7FACE85E3F0CF8091C5
:10421000770591E089278093770510923D01809181
:104220006904816080936904EDCA4CEA58E067EB49
:1042300078E00E94D007E6CA47EB58E06CEA78E0E5
:10424000F8CF4DE758E068E878E0F3CF48E858E069
:104250006DE778E0EECF41E658E06FE678E0E9CF31
:104260004FE658E061E678E0E4CF43E558E065E4E6
:1042700078E0DFCF46E158E064E278E0DACF44E26C
:1042800058E066E178E0D5CF61E083E034C20E9477
:10429000691B0E94CE19C8010E94A30ED82EEBC143
:1042A000092F0F70907F11F00295007F812F22233C
:1042B000C9F0002369F090E2910F983010F01111CD
:1042C0000BC080917903082B009379030E94961606
:1042D000812F0E94341A17C080917803082B009315
:1042E0007803F4CF0E94F919002369F00095105E5D
:1042F000183010F0B11012C0809179030823009398
:1043000079030E949616F8E0CF1AD10824E0C2166D
:10431000D10408F077CA0E94EC0F74CA8091780328
:10432000082300937803EDCF892F8F70907F903210
:1043300011F08295807FF1E0BF120CC0222329F09A
:10434000363008F70E94EF19DECF3530E0F60E94D4
:10435000E419D9CF222341F03323A1F340FFB8CF92
:104360004F70F7014583EECF332389F3193369F496
:10437000FFEF27EE33E0F15020403040E1F700C07E
:104380000000812F0E94F919BECF8FE39CE90197AD
:10439000F1F7F5CF892F86958695837061F081308E
:1043A00009F0B1CF812F9370211102C090E080E01D
:1043B0000E948E07A8CF812F9370211102C090E038
:1043C00080E00E94A4079FCF892F8370A1F521115F
:1043D0009ACF812F829586958770880F880F412FFD
:1043E0004F70082E01C0440F0A94EAF7212F207164
:1043F00014FF07C02FE030E001C0220F8A95EAF7D2
:104400002095969596959370923081F0822F842B0B
:10441000933030F480917A03913029F0242B822359
:104420000E94F41670CF842B822BFACF242B80911C
:104430007A038227F5CF8695222311F0892F817088
:10444000882309F460CF812F829586958770880F25
:10445000880F412F4F70082E01C0440F0A94EAF7CD
:10446000212F207114FF07C02FE030E001C0220F80
:104470008A95EAF72095969596959370923081F0FB
:10448000822F842B933030F48091B005913029F045
:10449000242B82230E94CA1636CF842B822BFACF7C
:1044A000242B8091B0058227F5CF092F0F7022238E
:1044B00029F0802F0E94E816812F44CF812F0E947F
:1044C000E419802F0E94DB161ECF812FE1EF1E170B
:1044D00089F1E11750F0F0EF1F17B9F02223B1F185
:1044E0003111F6CE892F8F7129C042EF141749F18F
:1044F00053EF1513F3CF80E0222361F29F7181E027
:1045000001C0880F9A95EAF7C5CF222379F035309C
:1045100008F0F9CE292F2F7181E090E001C0880FBB
:104520002A95EAF79091B0058927B4CF363008F084
:10453000EACEF0CF892F8F71222321F20E94E81654
:10454000E2CE892F8F712223C9F3BCCF332379F0B8
:10455000893341F46FEF77EE83E061507040804023
:10456000E1F70DCFEFE3FCE93197F1F708CF892FA1
:104570008F71A8CF00313FE5130709F4EDC9013170
:104580004FE5140709F4F2C90D3AEDE51E0709F0ED
:1045900030CA992309F466CA80EFA82E81E0B82EAC
:1045A0009AE0992EF5018491882309F45BCA813041
:1045B00009F01BCA6501FFEFCF1ADF0AF6018491EB
:1045C000813009F0D5C96501F2E0CF0ED11CF601AA
:1045D00084910E94871A56012FEFA21AB20AE2CFE5
:1045E00000315FE5150709F4BBC901316FE5160716
:1045F00059F682E0B6C985E0DE01119601900D9270
:104600008A95E1F7F701228189819A812111FEC8FB
:104610000E94A30E182F02C90631FCE51F0709F4FA
:10462000E1CD8091790382720A3C2CE5120709F4EE
:104630001CCE08F051C0053C4CE5140709F401CE2E
:10464000A8F5033C6CE5160709F4EFCD08F0F4CDAE
:10465000023C8CE5180709F4DACDF70100811181DD
:10466000992309F418CEC8010E940D11D82E682F85
:10467000C8010E94D70EB8018D2D0E94FF100E9424
:104680002E0D182FB82EF70122814581342F329537
:104690003F70892F82958F70C82ED12C8C3008F0F6
:1046A00032CEF601EE52FC4C0C948132073CECE524
:1046B0001E0709F4D0CD08F4C9CD083C2CE512073B
:1046C00009F4CECD45E458E063E578E0093C3CE5EB
:1046D000130709F4AECDC1CF0E3C4CE5140709F425
:1046E000D3CD60F40C3C6CE5160709F4C8CD08F492
:1046F000C1CD61E081E00E94930884C8063D8CE54D
:10470000180738F461E087E0003D9CE5190798F34D
:1047100079C80D35100709F475C89FCF0E3DFCE52B
:104720001F0709F4B4CD073A2DE5120709F4B1CDFE
:1047300001151C4509F091CF0E94F9169FEFE4E3A3
:10474000FCE09150E040F040E1F700C000000E9422
:104750003C071F93CF93DF9380913D03807F09F047
:1047600049C080913A03882309F444C080916F03C3
:10477000D0913E036091380370913903A0913B03BF
:10478000B0913C03C62FC72316E0D81799F190E0EB
:10479000109711F0CF3F19F401968770F6CF189F4C
:1047A0009001199F300D1124F901E15CFC4F41810A
:1047B0004713F2CF40814613EFCF42814111ECCF36
:1047C000438154814A1B5B0B483C510528F780917B
:1047D0003D038F70806180933D03F901EC5BFC4FDA
:1047E00080818F708061808388E393E00E94F01B5A
:1047F0000E94990EDF91CF911F910895A1E1B0E041
:10480000E4E0F4E20C942A328C0185E0F801DE0148
:104810001D9601900D928A95E1F7F801E28088E3F8
:10482000A82E83E0B82E60913B0370913C03611584
:10483000710509F426C19091380340913903892FFD
:1048400084238F3F09F41DC120813181C380D4802E
:10485000F0903A03F601E61BF70BFF2009F4DCC0E9
:1048600080913D03582F507FE83CF10508F09FC030
:1048700051116BC0FE2C431314C0921312C0E110EF
:1048800010C08F70806180933D03C5010E94F01BB2
:1048900080913D03F80185838F2D6196EAE00C94A9
:1048A0004632C114D10429F0822F83238F3F09F0AF
:1048B00003C180E0F82FF170DF2E80FF3CC08091B3
:1048C0006F0340913E0356E0841315C02D873E8749
:1048D0008D859E850E943C11292F22952F702230B4
:1048E000F0F0243018F59F70F1F0F8019581907F79
:1048F000D1F4D12C1EC090E0589FF001599FF00DCB
:104900001124E15CFC4F6181361306C060812613DF
:1049100003C06281E6120FC001968770D5CF9F70E9
:1049200011F0882331F3805E883018F3C8010E94AB
:10493000F01BFD2CB1CFEE2009F4AECF80913D03EA
:10494000816080933D03F12CA7CF431306C09213DF
:1049500004C0F801EE2009F479C0C8010E94491191
:10496000882309F1EE20F9F080913D03803270F048
:10497000209138033091390338872F831986DB86DD
:10498000CA868C87CE0107960E94F01B86E0F8014C
:10499000A8E3B3E001900D928A95E1F70E94A92364
:1049A000FF24F39479CFC8010E94F01BF9CF511175
:1049B0000AC088E393E00E94F01B86E0F5011192A3
:1049C0008A95E9F7C0CF43130FC092130DC0E110D1
:1049D0000BC0F8018583C8010E94F01B86E0F50139
:1049E00011928A95E9F758CFC8010E94491188238E
:1049F000D1F2EE20C1F280913D03803238F2209155
:104A00003803309139033A8329831B82DD82CC82BB
:104A10008E83CE010196B8CFE83CF105F8F6FE2C66
:104A2000EE2009F243131FC092131DC080913D0375
:104A300080FD10C0982F907F69F0F8018583903F2A
:104A400031F0982F907F905F8F70892B8583C801FC
:104A50000E94F01B86E0F801A8E3B3E001900D92FC
:104A60008A95E1F719CFC8010E94491181118ECFB3
:104A700080913D03816080933D03C8010E94F01B3B
:104A80000BCFEE2009F48FCFC8010E944911F82EF8
:104A9000882309F488CF86E0F801A8E3B3E0019009
:104AA0000D928A95E1F780913803909139030E9425
:104AB0003C110E94A923F0CE81E08E25FBCEA7E118
:104AC000B0E0E5E6F5E20C9431324B8B5C8B6D8BFC
:104AD0007E8B8F8B6111109278031A8A198A85E078
:104AE000FE017396DE011D9601900D928A95E1F705
:104AF00086E0FE013D96DE01179601900D928A95A3
:104B0000E1F7CE0107960E94FE23882359F016E0B4
:104B100080916F0390913E03891343C06796E3E051
:104B20000C944D3286E0FE013796DE01119601901D
:104B30000D928A95E1F78A859B85892B41F38F81B8
:104B4000988589238F3F19F320913E0330E0C901F6
:104B500001968770992740916F034817190671F4E1
:104B60000E94F91610923E0310926F0386E0E8E36C
:104B7000F3E0DF011D928A95E9F7C9CF96E0929F95
:104B8000D001939FB00D1124A15CBC4FFE01319662
:104B900001900D929A95E1F780933E030E94990E41
:104BA000B6CF819FC0011124815C9C4F0E94FE23DF
:104BB000882309F4B3CF80916F0390E0019687704A
:104BC000992780936F03A4CFA7E1B0E0EAEEF5E266
:104BD0000C9427328E010F5F1F4F8CE0D8011D927D
:104BE0008A95E9F79CE8C92E91E0D92EF12CE12CA9
:104BF000AA24A394B12C39E9832E31E0932EF60137
:104C000081916F018F3F09F442C0F894E82FE2953B
:104C1000EF70F0E021A18F70A50102C0440F551F75
:104C20008A95E2F7CA01922F982B91A392A18095C1
:104C3000892382A3789400C0E2E9F1E0712C31E08D
:104C400021912F3F09F46BC0A22FA295AF70B0E065
:104C500090968C9190E02F7002C0959587952A953B
:104C6000E2F780FD5CC0832F782A330F8E169F06F3
:104C700039F7F601319780818F3F11F00E94D40CF3
:104C800050EA5A95F1F7F801EE0DFF1D70828FEF93
:104C9000E81AF80A96E0E916F10409F0B0CF4CE002
:104CA00050E0B8018DEA93E00E94EA327C01892B42
:104CB00041F08CE0F801ADEAB3E001900D928A95E5
:104CC000E1F71091BA03E114F10459F181E0809306
:104CD0007D030E94680790937C0380937B038091FF
:104CE0007B0390917C030E944D07059778F0ADEA15
:104CF000B3E0E12FF0E0EB52FC4F83EB93E02D911A
:104D000021938A179B07D9F710927D0381E090E0E9
:104D1000E114F10451F06796EDE00C94433280E029
:104D2000A3CF80917D038111DACF0E94C90FD82EC5
:104D3000E091BA03DE011D967D01882309F49DC030
:104D400086E01D928A95E9F70E2F10E00B521C4F5A
:104D50008091A7038A3008F05AC04AE656E1B701AD
:104D6000C8010E94960F882309F473C047EC57E2EC
:104D7000B701C8010E94960F882309F46AC04FE664
:104D800055E1B701C8010E94960F882309F461C05C
:104D90001092A7038091B90390E046E050E0B7017C
:104DA0008B529C4F0E94EA3221E020938603892B8C
:104DB00009F042C0D12C80E8E82E83E0F82E10E004
:104DC00000E0D7018D917D018823D1F08695F8010F
:104DD00009F450C0EA57FE4F808191819C8B8B8BE8
:104DE0001D8A0E9468078160782F9F8B8E8BF70148
:104DF000319710824B895C896D898F890E945F256C
:104E00000E5F1F4F04301105E1F68D2D84CF809188
:104E10007E0390917F030E944D07843F914008F0EC
:104E20009CCF80918603882329F286E0F7011192B6
:104E30008A95E9F710928603A091B903B0E0AB52CE
:104E4000BC4F86E0FE013D9601900D928A95E1F7F8
:104E5000B2CF8091A7038F3F31F08F5F8093A7037C
:104E60008A3008F497CF0E94680790937F0380935D
:104E70007E03D7CFEE57FE4FAFCFF0E0EB52FC4FA3
:104E800086E0A7E9B3E001900D928A95E1F766E02C
:104E900070E087E993E00E94BA07809396034091FF
:104EA000D10350E06091D00370E064537C4FC701A0
:104EB0000E94F7328D8580939E0361E070E0C70108
:104EC0000E94BA0780939D03C0909F03D090A003D7
:104ED000E090A103F090A20380918203909183035C
:104EE000A0918403B0918503C816D906EA06FB0693
:104EF00011F480E010CFC0928203D0928303E0923D
:104F00008403F09285030E94C90F8111F2CF0E94A1
:104F10005C07C61AD70AE80AF90AC092A803D09219
:104F2000A903E092AA03F092AB03E3CFA5E0B0E0BF
:104F3000ECE9F7E20C942E32162FE82EF12CC70183
:104F4000880F991F662301F18A579E4FFC018081CB
:104F500091819A83898301E00B830E9468078160B5
:104F6000782F9D838C83F701E058FC4F0127110FA8
:104F7000102B108349815A816B818D810E945F259E
:104F80002596E6E00C944A328E579E4FDFCFA1E083
:104F9000B0E0EDECF7E20C942B32EE24E394F12C2C
:104FA0000EE913E09E012F5F3F4F42E953E063E0BB
:104FB00082E00E94C515C82E882339F100E080E008
:104FC0001DC0D090BE03D00E2D2D30E0A90144535A
:104FD0005C4F7A01E1E0F0E0EC0FFD1FE00FF11D06
:104FE0001081FA019081191BB12E1B149CF0912F96
:104FF00017FD90E0191B111118C00F5F9091BD03B0
:105000000917F8F281110E94960E8C2D2196E9E085
:105010000C944732BA94F70180818F5F808360E0FF
:105020008D2D0E9496278C2DE0CF1F5FF701808188
:105030008150808361E08D2D0E9496278C2DDBCFDF
:105040001F920F920FB60F9211242F933F934F93FD
:105050005F936F937F938F939F93AF93BF93CF9300
:10506000DF93EF93FF93D091E900DF708091EC0024
:10507000C82FC17080FDC0E81092E9008091F00057
:10508000877F8093F00078940E9405171092E900C2
:105090008091F00088608093F000CD2BCF70C0939A
:1050A000E900FF91EF91DF91CF91BF91AF919F9177
:1050B0008F917F916F915F914F913F912F910F90C1
:1050C0000FBE0F901F9018951F920F920FB60F9260
:1050D00011242F933F934F935F936F937F938F93FD
:1050E0009F93AF93BF93EF93FF938091E10082FF73
:1050F00009C08091E20082FF05C08091E1008B7FB2
:105100008093E1008091DA0080FF24C08091D80074
:1051100080FF20C08091DA008E7F8093DA0080913A
:10512000D90080FF9DC080E189BD82E189BD09B4BD
:1051300000FEFDCF81E08093690580915C058111BF
:1051400009C00E9497040E948C058091E20084604F
:105150008093E2008091E10080FF17C08091E2001F
:1051600080FF13C08091E2008E7F8093E2008091E7
:10517000E20080618093E2008091D8008062809399
:10518000D80019BC85E0809369058091E10084FF17
:105190002BC08091E20084FF27C080E189BD82E1BD
:1051A00089BD89B5982F917080FFFBCF8091D80081
:1051B0008F7D8093D8008091E1008F7E8093E10005
:1051C0008091E2008F7E8093E2008091E200816016
:1051D0008093E20080916A05882309F447C084E047
:1051E00080936905809169058091E10083FF27C064
:1051F0008091E20083FF23C08091E100877F80934C
:10520000E10082E08093690510926A058091E100D7
:105210008E7F8093E1008091E2008E7F8093E20098
:105220008091E20080618093E20042E060E080E0F3
:105230000E945A058091F00088608093F000FF91F1
:10524000EF91BF91AF919F918F917F916F915F91FE
:105250004F913F912F910F900FBE0F901F90189577
:1052600019BC1092690510925C0574CF8091E3001F
:1052700087FD93E090936905B5CF78941F921FB690
:105280001F9211248F939F93AF93BF9380915505E5
:1052900090915605A0915705B09158050196A11D12
:1052A000B11D8093550590935605A0935705B09373
:1052B0005805BF91AF919F918F911F901FBE1F9076
:1052C00018951F921FB61F9211248F939F93AF932F
:1052D000BF9380915405811113C080915505909121
:1052E0005605A0915705B09158054196A11DB11DD5
:1052F0008093550590935605A0935705B093580594
:10530000BF91AF919F918F911F901FBE1F901895D5
:10531000CDB7DEB7AA970FB6F894DEBF0FBECDBFEC
:1053200085B7806885BF85B7806885BF0E94B50C4A
:105330001092D6051092D8051092D70580EC809374
:105340009B0689ED95E090939D0680939C061092B4
:105350009A06109299061092B6051092B505109211
:10536000B8051092B7051092BA051092B9051092BF
:10537000BC051092BB051092BE051092BD0510929F
:10538000C0051092BF051092C2051092C10510927F
:10539000C4051092C3051092C6051092C50510925F
:1053A000C8051092C7051092CA051092C90510923F
:1053B000CC051092CB051092D0051092CF058DEE42
:1053C00096E09093B2058093B1058FE696E09093B6
:1053D000D2058093D1058BE496E09093CE0580931F
:1053E000CD058AE496E09093B4058093B30584B725
:1053F000877F84BF0FB6F894A8958091600088617C
:1054000080936000109260000FBE80E890E00FB6BD
:10541000F89480936100909361000FBE82ED9CE050
:1054200090930D0380930C030E9497040E948C05B7
:105430008091E20084608093E20078948091690515
:105440008823A1F01091E9001F709091EC00892F42
:10545000817090FD80E8182B1092E9008091E8009F
:1054600083FD0E9405171F701093E90082E084BD40
:1054700093E095BD9AEF97BD80936E001092A803BC
:105480001092A9031092AA031092AB030E94691113
:10549000811102C00E94C0109091AC03911108C00C
:1054A0000E94C90F92E0811101C091E09093AC037A
:1054B00081E0913009F080E080932C010E94C90FB7
:1054C00081110E94C03080912C0180912C0196E0C6
:1054D000811190E09093BA0386E0891B8093B90311
:1054E0003CE8E32E31E0F32ED7018D917D018F3F13
:1054F00011F00E94D40CB2E9EB16B1E0FB06A1F763
:1055000092E9E92E91E0F92E29E9C22E21E0D22E6E
:10551000F70181917F018F3F11F00E94D40CCE14CE
:10552000DF04B1F78CE0E5EDF3E0DF01282F1D92F9
:105530002A95E9F7EDEAF3E0DF011D928A95E9F794
:105540000E945D1B811102C00E94691B82E090E0F5
:105550000E9410338093BF030E9482119093BC037A
:105560008093BB030E94E425EFE3FCE93197F1F758
:1055700000C000000E94E4258091D50380FF08C090
:105580006FEF7FEF90E080E00E944C330E943C0779
:1055900083E090E00E9410330E94F41610927D0583
:1055A000ECE9F5E08FEF9FEF8193919325E0E03BED
:1055B000F207D1F710923104E0E5F4E084E694E0DC
:1055C0002FEF3FEF219331938E179F07D9F70E945A
:1055D0005D1B811104C00E94691B0E949B1146E063
:1055E00050E06CE170E087E795E00E940033109294
:1055F0006904809177058C7F11F40E949B11909132
:105600002C0181E098279093D003382F391B3093D9
:10561000BE0390912C018093D10390912C01809333
:10562000BD0380912C01811106C085EF80933A0162
:1056300084EF8093390180913A01E82FE295EF7071
:10564000F0E061A18F7021E030E0A90101C0440FBA
:105650008A95EAF7942F9095962391A382A1842BA3
:1056600082A390913901E92FE295EF70F0E041A11A
:105670009F70B90102C0660F771F9A95E2F7CB01C0
:10568000962F9095942391A392A1892B82A38FE8C2
:1056900091E00197F1F700C000001091D10362ED95
:1056A00073E04AE351E089E3E82E81E0F82EFB0144
:1056B00028C0DA012D91AD01822F82958F7090E084
:1056C000DC0190968C9190E02F7002C095958795A3
:1056D0002A95E2F78170D7019D917D01292F2295AE
:1056E0002F7030E0D90190962C9130E09F7002C06D
:1056F000359527959A95E2F790E020FD92E0892B69
:1057000081938E2F861B8117A0F20E94C90F8111F1
:1057100002C00E94C33080912D04807F82608093FC
:105720002D0480912E048078856780932E048DE26D
:1057300091E090935105809350055524539444244F
:10574000439480916905853091F4B0E4EB2E13E029
:10575000D12E80E1F82E12E180916905853009F49F
:1057600063C10E94F9160E94EC0F109268040E9417
:10577000E42581110E945C07A5EDCA2EA3E0DA2E74
:10578000E0ECF3E0D601F12CE12C9E2C1D918191EF
:10579000811709F4B2C18127B12CAA24A394982FB0
:1057A0009A2109F4A5C10E94C90F1A21882399F0F2
:1057B000B9A29AA281E0111101C080E08BA30E94DE
:1057C00068078160782F9DA38CA349A15AA16BA182
:1057D0008DA10E945F25F701E054FC4F8081A8262F
:1057E000A0820E94C90F882309F45EC0112381F0B2
:1057F00087E08E9DF0018F9DF00D1124ED52FE4F3C
:10580000EB0DF11D808110E08F3F11F0082F11E0AA
:10581000E12EF12C809131048E0D9F2D911D0B975F
:105820006CF18AE090E05C01AE18BF08B7016E5CD5
:105830007B4FA50182E394E00E94F732B701645CDC
:105840007B4FA5018CE394E00E94F732A501440F41
:10585000551FB701660F771F605B7B4F80E594E0B3
:105860000E94F732B7016A5B7B4FA50186E494E0A2
:105870000E94F7328AE0811B8093310480913104C9
:1058800090E0A02FB0E09D01220F331F295D3D4F16
:10589000AA0FBB1FBD01685D7D4F41E0480F911706
:1058A00008F411C1809331040E94C90F0E940414AE
:1058B000B12CA12C8091D103B81608F437C1A110E6
:1058C0000E94960EE091D105F091D205309719F023
:1058D00081EB95E009959FB7F894E0909A06809146
:1058E0009906E81608F496C1E81A9FBFB12CA12CBE
:1058F000F12C93E0692E712C88248394912C34E050
:10590000232EAE14BF0408F489C18091E103909165
:10591000E2030E944D0720912F0426952695269597
:105920002F702817190609F060F50E9468079093F8
:10593000E2038093E1038091E303882311F19091C6
:105940002E04991F9927991F80912F048770880F23
:105950004091E40361E0892B0E94A3038091E3035B
:105960009091E40387FF0CC2482F552741950CF412
:105970005095941715060CF003C21092E403109290
:10598000E3030E94EC0F9091D40389138093D40316
:10599000809169058430E1F480913F018F7080939C
:1059A000E9009091E80090FF13C090916905943050
:1059B00079F48093E9009091F3008091F200892BB3
:1059C00039F08091E8008E778093E8000E94B60459
:1059D00080916905843009F0B4CE83E08093E900BA
:1059E0008091E80082FFADCE8091E80090E085FFD5
:1059F00009C050E040E060E270E0CE0101960E94F4
:105A0000110591E08091E8008B778093E80099235D
:105A100009F497CEE981E150E33108F00FC2F0E0DC
:105A2000E252FC4C0C94813280916905843009F477
:105A300038C00E9404148091680481110DC00E9436
:105A4000AF1110923C0180917705837080933B01E8
:105A50000E946F0FD0923D0140926804109254054D
:105A6000E8E1F0E00FB6F894A895E09360000FBE6F
:105A7000E092600083B7817F846083BF83B78160D9
:105A800083BF7894889583B78E7F83BF0FB6F894D1
:105A9000A8958091600088618093600010926000FA
:105AA0000FBE80916805882309F456CE0E94E42534
:105AB000E5EDF3E081918111EAC221EE33E02E178A
:105AC0003F07C1F749CE90E0FC01EF5CFB4FD901E5
:105AD0005C915183DB015C915387058B880F991F83
