:100000000C9479030C94C0030C94C0030C940B1B48
:100010000C94C0030C94C0030C94C0030C94C00354
:100020000C94C0030C94C0030C94B12F0C94853035
:100030000C941F260C94C0030C94C0030C94C003B2
:100040000C94C0030C94C0030C94C0030C94C00324
:100050000C94C0030C9492260C94C0030C94C0031F
:100060000C94C0030C94C0030C94C0030C94C00304
:100070000C94C0030C94C0030C94C0030C94C003F4
:100080000C94C0030C94C0030C94C0030C94C003E4
:100090000C94C0030C94C0030C94C0030C94C003D4
:1000A0000C94C0030C94C0030C94C0033D5C435CEF
:1000B000455C485C4C5C5B5C00003F5C445C4E5CB7
:1000C0004A5C585C515C405C495C505C535C575CDA
:1000D000475C425C01534B5C4F5C525C555C595C25
:1000E000545C415C465C5A5C5C5C565C4D5C3E5CBE
:1000F0003B5C000000000000000000000000000069
:100100004F5C505C525C535C545C765C0153515CB8
:10011000585C575C555C745C735C0151565C5D5C6B
:10012000605C5A5C715C725CA845645C5B5C595CA9
:10013000695C6F5C705C665C625C5E5C5C5C6B5CAA
:100140006E5C6A5C6C5C655C615C5F5C6D5C635C96
:10015000675C685C3F5C435C455C4A5C565C5A5C2F
:1001600000003D5C495C515C535C485C475C415C11
:10017000425C4E5C525C555C585C4D5C0153445C87
:100180004B5C505C545C575C4F5C465C4B5C595C10
:100190005B5C5E5C4C5C3C5C405C00000000000012
:1001A00000000000000000004F5C505C525C555C99
:1001B000535C745C0153515C585C595C545C725CD8
:1001C000735C0151565C575C655C5B5C695C715C9F
:1001D000A845645C5C5C5A5C5D5C6B5C705C625CFA
:1001E000635C605C5E5C5F5C6E5C6C5C6F5C675CFF
:1001F000635C615C6D5C665C685C6A5CE0001E0070
:100200001F002000210022000000165C2B001400BB
:100210001A00080015001700390004001600070036
:1002200009000A000B00E1001D001B000600190078
:10023000050011003500E300E20091442C002C0081
:100240004600000000000000000000000000000068
:100250004A004E000A001C0023002F004B004D00F6
:1002600005000B0018002400300004512C00110080
:100270000D000C00250031000100904410000E001C
:100280001200260027004F00E60036000F00130082
:100290002A00E50052005000370033004C002800CF
:1002A0003800510039001E001F00200021002200EC
:1002B0000000165C2B0014001A00090013000A004D
:1002C000E000040015001600170007002800E100F8
:1002D0001D001B0006001900050010003500E3009A
:1002E000E20091442C002C004600000000000000B9
:1002F00000000000000000004A004E0007000D0052
:1003000023002F004B004D0005000B000F002400C0
:10031000300004512C000E0011001800250031009F
:1003200001009044100008001C00260027004F0028
:10033000E60036000C0033002A00E50052005000B1
:10034000370012004C0028003800510001003A002C
:100350003B003C003D003E000000010001000100A8
:100360000100010001000100010001000100010085
:100370000100010001000100010001000100010075
:100380000100010001000100010001000100010065
:10039000010000000000000000000000000000005C
:1003A00001000100010001003F0001000100010007
:1003B00001000100010040000100010001000100F6
:1003C00001000100410001000100010001000100E5
:1003D0000100420043000100010001000100010092
:1003E00001000100010001000100340001000100D2
:1003F00001000100000000520000000000000000A9
:100400000000000002520000000000000000000098
:100410000352000000000000000000000100000086
:100420000000000000000000000000000000135C5D
:100430000A5C000000000000000000000000000056
:1004400000000000000000000000C95C0000000087
:100450000000815C01000000C85C0000000000009A
:10046000825C01000000C75C0000000000009D5C91
:1004700001000000C65C0000000000009E5CC35C40
:100480000000CD5C000000000000CA5CDF5CC55CC1
:10049000CC5C000000000000CB5CC45C00010101EA
:1004A0000101010101010202020202020202020331
:1004B0000303030303030304040404040404050501
:1004C00005050506060606060707070707080808C4
:1004D00008090909090A0A0A0B0B0B0C0C0C0D0D73
:1004E0000D0E0E0E0F0F0F1010111111121213130B
:1004F0001414151516161717181819191A1A1B1B84
:100500001C1D1D1E1E1F20202122222324242526DF
:1005100026272829292A2B2C2D2D2E2F3031323217
:10052000333435363738393A3B3C3D3E3F40414223
:10053000434445464748494A4C4D4E4F5051535409
:10054000555658595A5B5D5E5F61626465666869BD
:100550006B6C6D6F7072737577787A7B7D7E80823D
:10056000838587888A8C8E8F91939596989A9C9E86
:10057000A0A2A3A5A7A9ABADAFB1B3B5B7BABCBE96
:10058000C0C2C4C6C9CBCDCFD1D4D6D8DBDDDFE263
:10059000E4E7E9EBEEF0F3F5F8FAFDFF1C03620087
:1005A00061006E0064006F006D0069006E00650000
:1005B00064006F006E00690000000E0333006100EC
:1005C000720061006800740000000403090409025D
:1005D0009F00040100A0FA090400000103010100CA
:1005E0000921110100012240000705810308000ACA
:1005F000090401000103000000092111010001228A
:1006000032000705820320000A080B0202010100E4
:100610000009040200000101000009240100010991
:100620000001030904030002010300000724010084
:100630000141000624020101000624020202000911
:100640002403010301020100092403020401010142
:10065000000905040240000500000525010101090B
:100660000583024000050000052501010312011069
:100670000100000008EDFEB5F401000102000105D3
:10068000010980A101850319012AB700150126B7C8
:1006900000950175108100C0050C0901A1018504B8
:1006A00019012AA002150126A002950175108100EA
:1006B000C005010906A101050719E029E715002574
:1006C00001950875018102950175088101050719D9
:1006D0000029FF150026FF00950675088100050812
:1006E000190129059505750191029501750391017F
:1006F000C00011241FBECFEFDAE0DEBFCDBF04B6CD
:1007000003FE27C080919F069091A006A091A106AC
:10071000B091A2068730904BA740B04BD1F4109215
:100720009F061092A0061092A1061092A20614BE77
:1007300084B7877F84BF0FB6F894A8958091600036
:10074000886180936000109260000FBEE0E0F8E3E3
:10075000099513E0A0E0B1E0E8E9F6E602C00590F3
:100760000D92AA30B107D9F726E0AAE0B3E001C0A4
:100770001D92AF39B207E1F70E94982C0C94133305
:100780000C94000090910C03911108C00E943D0947
:1007900092E0811101C091E090930C0381E09130CF
:1007A00009F080E008950E942F158FE70E94E91557
:1007B0004FEF6FEF8AEA90E00E9480158EE00C9474
:1007C0004F15E8E7F4E08081807F82608083E9E76D
:1007D000F4E0808180788567808387E00C944F15F2
:1007E0000E943315882309F4AFC060913D047091D5
:1007F0003E0480913F04909140040E945F05813047
:1008000019F0853041F0089523E343E363E390E07A
:1008100080E00C94650F20E049E163E38EE290E014
:100820000E94650F23E343E363E380E390E00E94CB
:10083000650F23E343E363E38CE390E00E94650FDD
:1008400020E043E363E389E490E00E94650F20E049
:1008500043E363E388E490E00E94650F20E043E314
:1008600063E381E090E00E94650F20E043E360E0F5
:100870008DE090E00E94650F20E043E363E38EE0AB
:1008800090E00E94650F20E043E360E089E190E0A2
:100890000E94650F23E340E060E086E090E00E9464
:1008A000650F23E340E060E089E090E00E94650F7F
:1008B00023E340E060E082E190E00E94650F23E3E3
:1008C00040E060E085E190E00E94650F23E340E0B6
:1008D00060E08DE190E00E94650F23E340E060E07E
:1008E00080E290E00E94650F23E340E060E084E254
:1008F00090E00E94650F23E340E060E087E290E033
:100900000E94650F23E340E060E08FE190E00E94E9
:10091000650F23E340E060E085E290E00E94650F10
:1009200026E249E163E386E290E00E94650F20E061
:1009300040E063E388E290E00E94650F20E049E137
:1009400063E389E290E065CF0895813031F489EA6C
:10095000611101C08AEA0E94AB1D81E0089581E027
:10096000089581E008950C94B10408950C94B504A1
:100970001F93CF93DF9300D000D00F92CDB7DEB797
:1009800049835A836B833091CD0389819A813111D8
:100990001DC06623B9F02223A9F00E941A24182F43
:1009A000682F89819A810E94C62369817A81812F6B
:1009B0000F900F900F900F900F90DF91CF911F919C
:1009C0000C94BB050E94F223182FEFCF0E941A242B
:1009D00069817A81EDCFFC01262F408151816281AE
:1009E000738184810C94B804CF93DF93EC0160E0B1
:1009F0000E94EB04BE01DF91CF910C94B6040E94DB
:100A00007D070E94D8140C94A2070C94A5070895A2
:100A10000E94A81F0E9407052FEF84E39CE021504D
:100A200080409040E1F700C000000C9414270F9321
:100A30001F93CF93DF93EC0161E00E94EB048C01E4
:100A4000BE010E94B304882389F1BE01C8010E943F
:100A50009209882359F1BE01C8010E9464188823B5
:100A600029F1BE01C8010E94B6188823F9F0BE0121
:100A7000C8010E94D9198823C9F0BE01C8010E948B
:100A80002D16882399F08A81882339F001158CE589
:100A9000180751F00F3D1C4579F0CE01DF91CF9141
:100AA0001F910F910C94AF040E94080580E0DF9124
:100AB000CF911F910F9108950E947F25F7CFCF927C
:100AC000DF92EF92FF926C01EE24FF2420E0C1142C
:100AD000D104E104F10419F0C701B60120E1C72EE9
:100AE000D82EE92EFF24C114D104E104F10419F039
:100AF000285FC701B6016B017C0154E0F694E794CE
:100B0000D794C7945A95D1F7C114D104E104F104E4
:100B100019F02C5FC701B6016B017C0142E0F6942D
:100B2000E794D794C7944A95D1F7C114D104E1044E
:100B3000F10419F02E5FC701B60196958795779558
:100B40006795672B682B692B09F02F5F822FFF9029
:100B5000EF90DF90CF90089508950C94AC0581E05C
:100B600008950C94AF05CF93C82F0E94AD058C2F2C
:100B7000CF910C94B105972F70E027E0929F600D04
:100B8000711D1124FB0194E5899FE00DF11D1124D5
:100B9000EE0FFF1FE455FF4F859194910895CF9379
:100BA000DF930E94BB050E94A206EC01811521E59E
:100BB000920778F5811530E5930708F076C08F3BF2
:100BC000910580F4883A910508F064C0853A910552
:100BD00008F058C08430910588F4019779F0D0E08E
:100BE000C0E00CC08115904268F4C11581E0D807BF
:100BF00028F4CE01805E9109089788F7CE01DF9135
:100C0000CF910895C11590E4D90748F3DF70D06AF9
:100C1000F5CF811524E5920778F4811533E5930724
:100C200008F06FC0811542E5940708F05AC0D82F2C
:100C3000CC27C16FD06AE2CFC1158AE5D80770F41E
:100C4000C11599E5D90708F06FC0C11528E5D2078D
:100C500030F2DC2FCC27C06FD06AD0CFCE019056B7
:100C60008115904208F0BBCF8D2F8F710E943907FC
:100C700090E0982F882788279F719C012C2BE901F1
:100C8000D062BCCFC55AD0E0CD56DD4FC881D0E090
:100C9000D064B4CFC85AD0E0CC0FDD1FCB59DD4FA4
:100CA0000990D881C02DD464A9CF64E0969587952A
:100CB0006A95E1F783702C2F26952695237040E2E4
:100CC000249F90011124382B8C2F8370C1E0D0E039
:100CD00002C0CC0FDD1F8A95E2F7C22BD32BDC6854
:100CE0008DCF8370992721E030E002C0220F331F9F
:100CF0008A95E2F7C695C69580E2C89FE001112467
:100D0000ECCF8370992721E030E002C0220F331F1F
:100D10008A95E2F7C695C69590E2C99FE001112435
:100D2000C22BD32BDA686ACF8C2F8F700E943907C1
:100D300034E0D695C7953A95E1F7CF709C2FEC013A
:100D4000D0695CCF82389105B1F1B0F4813391055F
:100D500009F475C048F48932910509F469C08A32F2
:100D6000910509F473C008958533910509F459C0BC
:100D70008933910501F10895833E9105A9F138F475
:100D8000803E9105F9F0823E910549F10895863E35
:100D90009105A9F1873E9105C9F1843E910519F5A8
:100DA00020915D0421FF1FC080915C0484FD14C06C
:100DB00087EE90E0089520915C042370A1F080EE0E
:100DC00090E0089520915C0420FD47C030915D04BF
:100DD00030FF09C024FF44C090E080E004C02091AF
:100DE0005C0422FDF7CF089520915C0422FD3BC0F6
:100DF00030915D0430FDE3CF24FFF5CFEDCF20919E
:100E00005C0423FFF0CF24FDE7CFD2CF20915C0418
:100E100023FD2CC030915D0431FFEECF84EE90E0D5
:100E2000089520915C0425FFDECF89E290E00895CB
:100E300020915C0425FFD7CF85E390E008952091B1
:100E40005C0426FFD0CF8AE290E0089520915C04F4
:100E500026FFC9CF81E390E0089589E390E00895EB
:100E600083EE90E0089582EE90E0089586EE90E0A3
:100E7000089590915C0492FF06C0282F28712830B5
:100E8000F9F4877F846093FF06C0282F28712831EA
:100E9000F1F4877E846120915D0420FF06C0382F25
:100EA00038713830D9F4877F816021FF06C0282F40
:100EB00028712831D1F4877E816194FD877E089561
:100EC000282F24712430F9F68B7F8860DCCF282FFF
:100ED0002471243101F78B7E8861DDCF382F317189
:100EE000313019F78E7F8860E0CF282F21712131B2
:100EF00021F78E7E8861E1CF08950E94E52481115B
:100F000002C00E947F250E94F024809350040E941A
:100F1000F82490935D0480935C040E947C070E94F7
:100F2000F424682F70E090E080E00E94C822609175
:100F30003D0470913E0480913F04909140040C94D4
:100F4000022308950C94A10708950C94A407E82F98
:100F5000F0E0E659FB4F80810895089580EA8A9574
:100F6000F1F7089500C008950C94AE07F894E82FA7
:100F7000E295EF70F0E031A1282F2F7081E090E032
:100F800001C0880F2A95EAF7982F9095932391A393
:100F900092A1892B82A37894089508950C94CD078B
:100FA0000F931F93CF93DF930E94550980913802CE
:100FB0008091380296E0811190E09093770486E06A
:100FC000891B8093760485E30E94B60784E30E9420
:100FD000B60787E90E94B60786EF0E94B60786E645
:100FE0000E94B60784E90E94B607C6E9D2E00DE97F
:100FF00012E089910E94B6070C171D07D1F7EEE5A4
:10100000F4E0AAE6B4E011921D9284E0EA36F80713
:10101000D1F786E00E9406090E94FF04DF91CF917C
:101020001F910F910C945F09FF920F931F93CF9321
:10103000DF9300D000D000D0CDB7DEB70E943D09CD
:10104000F82E60917704882309F451C08E010F5F58
:101050001F4F86E0F80111928A95E9F7862F90E0FC
:10106000B80186599B4F0E940F1A811123C08091AD
:101070000D038F5F80930D038630B8F1E091760405
:10108000F0E0E659FB4FD801CE01079611921D9270
:10109000A817B907D9F70E9405058F2D26960FB618
:1010A000F894DEBF0FBECDBFDF91CF911F910F919E
:1010B000FF90089510920D03A0917604B0E0A65918
:1010C000BB4F9E01295F3F4FF12C4D91F80191914B
:1010D0008F01491731F0AD0141505109FA01908358
:1010E000F82E0217130789F7D6CFF12CD4CF70E072
:1010F00066597B4F8091760490E086599B4F0E9401
:101100003A1A0E94CE07C9CFCF92DF92EF92FF9298
:101110000F931F93CF93DF930DE912E08EE5E82E36
:1011200084E0F82EC0E0CC24C394D12CF801819146
:101130008F01F894E82FE295EF70F0E021A18F7015
:10114000A60102C0440F551F8A95E2F7CA01922FEB
:10115000982B91A392A18095892382A378940E94D1
:10116000B207E6E9F2E030E020E0D0E04191A42FC0
:10117000A295AF70B0E090968C9190E04F7002C055
:10118000959587954A95E2F780FD3CC08C2D022EFF
:1011900001C0880F0A94EAF7D82B2F5F3F4F273002
:1011A000310521F7F801319780810E94B6070E942E
:1011B000B407F7018081D81739F1D08381E0C82BBB
:1011C000FFEFEF1AFF0A42E0033A140709F0AECF2F
:1011D0006091770470E066597B4F2C2F46E08EE5D6
:1011E00094E00E9407090E941408C11101C0C82F91
:1011F0008C2FDF91CF911F910F91FF90EF90DF9097
:10120000CF90089580E0C8CF80E0D9CF0895FF92B5
:101210000F931F93CF93DF93F82E092F162FD72FFD
:10122000C42F222349F081E0809310030E944F26AF
:1012300090930F0380930E03809110038823A1F0F5
:1012400080910E0390910F030E946726069760F02D
:10125000EF2DF02FA12FBD2FCE0FDF2FD11DEC17BB
:10126000FD0741F410921003DF91CF911F910F9170
:10127000FF90089581918D93F2CF80911103811198
:1012800007C00E943C32882351F081E08093110313
:1012900081E090911103913009F080E0089582E09F
:1012A000809311030E943732F3CF0E94C2038093D0
:1012B00038020E943D0981110C94031A08950E947E
:1012C0003D09811102C00C94091A089584E08093AD
:1012D00078048FE78093790480917A048078806421
:1012E00080937A04E6E1F3E08FEF819393E0EE35AB
:1012F000F907D9F7109215031092140310921303F3
:1013000010921203089590917804292F2F709595CB
:101310009595959595959F523CE0239F900D1124AE
:10132000890F0895FF920F931F93CF93DF93FB01D3
:101330008F3A2CE5920708F085C08F394CE5940769
:1013400008F08DC180392CE5920750F583384CE5C3
:10135000940708F040C181382CE5920760F4873784
:101360004CE5940708F01FC18F322CE5920708F076
:10137000DFC0C1E011C181384CE5940709F420C1F8
:1013800082389C45B1F78281882309F4EBC08091B3
:101390007804982F9F70993008F0E4C09F5F19C1BE
:1013A0008D394CE59407A0F582392CE5920708F0B9
:1013B0002FC180394CE5940709F418C181399C4547
:1013C000C1F68281882309F4CDC020917804822F50
:1013D000859585958595859586300CF0C3C091E0FF
:1013E000980F9295907F9595959595959595392F10
:1013F0003295307F2F70232B2093780418160CF031
:10140000B1C097FFAFC08295807F922F9F70D4C0EC
:101410008D394CE5940709F409C18E399C4509F0D2
:10142000A8CF8281882309F49DC080917904982FE8
:101430009F779F3709F496C0933708F00EC1935FEA
:101440009F77F2C0853B4CE5940709F466C1C8F567
:10145000813B4CE5940709F432C1D8F48F3A4CE54E
:10146000940709F40EC1803B9C4509F082CF82812C
:10147000882309F477C020917904322F331F332752
:10148000331F90917A04892F8770880F832B8F5F89
:1014900009C16091790430917A042281833B4CE543
:1014A000940709F42EC108F420C121112FE7862FDB
:1014B000881F8827881F632F6770660F682B42E498
:1014C0000FC1883B2CE5920709F43AC180F4863BB2
:1014D0002CE5920709F421C1873B9C4509F049CFCF
:1014E000828181112BC18FEF809314033BC08A3B13
:1014F0002CE5920709F45AC108F443C18B3B9C4583
:1015000009F037CFC28160917904862F881F882720
:10151000881F60917A046770660F682BCC2309F4EA
:1015200055C14FEF5FE185EA95E00E9487271AC019
:1015300020917904322F331F3327331FD0917A043F
:10154000D770DD0FD32BF22EE894F7F8C28101EDAE
:10155000080F10E00A5E1C4FF8014081CC2389F08F
:101560004F3F11F0C0E018C00E948309C82F2F2DF3
:10157000482F6D2F85EA95E00E946727F801C08308
:10158000F1CF4F3F31F02F2D6D2F85EA95E00E946E
:1015900077278FEFF80180838C2FDF91CF911F91F8
:1015A0000F91FF90089522812223E1F28757982F0F
:1015B0009F7080917804807F892B80937804D2CFAC
:1015C0008281882379F280917804982F9F7051F25C
:1015D000915F9F70F0CF2281222321F28958982FAA
:1015E0009295907F809178048F70E6CF82818823D6
:1015F00009F4B8CF80917804982F95959595959595
:1016000095959B3F0CF4AECF915F9295907FECCF78
:101610002281222309F4A6CF82599CE0899F902D34
:1016200011249F7780917904807815C08281882366
:1016300009F498CF80917904982F9F7709F492CF7D
:1016400080789F3721F48567809379048BCF9D3014
:10165000D8F39D509F77892BF7CF8F67F5CF2281E5
:10166000222309F47FCF8F599091790480FB97F959
:10167000909379048695877090917A04987F892B4E
:101680007DC08281882309F46DCF20917904322FA7
:10169000331F3327331F90917A04892F8770880F67
:1016A000832B815F382F3F7080FB27F920937904CB
:1016B000832F8695987F982B90937A0453CF8281BD
:1016C000882309F44FCF60917904862F881F8827DB
:1016D000881F60917A046770660F682B20E04BE7E3
:1016E00085EA95E00E9457273DCF21112FE7862FED
:1016F000881F8827881F632F6770660F682B40E458
:10170000EFCF21112FE7862F881F8827881F632F8F
:101710006770660F682B41E4E3CF828120E081117E
:101720002FE760917904862F881F8827881F609192
:101730007A046770660F682B43E4D2CF81E0D4CE81
:101740008281882309F40ECF90917A04292F26955F
:10175000269526952F7081E0820F8F70880F880F55
:10176000880F9778892B80937A04982F987709F0BF
:10177000F9CE220F220F220F8778822B80937A04D2
:10178000F1CE8281882309F4EDCE80917A04982FDE
:10179000987709F4E7CE982F969596959695915F50
:1017A0009F70990F990F990F877869CFC2816091C7
:1017B0007904862F881F8827881F60917A046770B4
:1017C000660F682B40E050EEC111ADCE50E040E016
:1017D00085EA95E00E948727DFCE85EA95E00E94A2
:1017E000892980911203909113030E94672620910A
:1017F0007A042695269526952F702817190609F044
:10180000A0F50E944F2690931303809312038091BA
:101810001403882351F160917904862F881F88274B
:10182000881F60917A046770660F682B20911503FA
:1018300041E085EA95E00E9457278091140390913A
:10184000150387FF0DC0482F552741950CF450957F
:10185000941715062CF41092150310921403089592
:10186000890F87FD03C08093150308958FE7FBCF91
:10187000EF92FF920F931F93CF93DF93EB01E82F2B
:10188000D11110C0442321F0F0E0E456FB4FE49165
:101890006E2F7E2F8E2FDF91CF911F910F91FF9092
:1018A000EF9008950D2F10E0282F30E0442329F009
:1018B00024563B4FF901249130E0F6E0CF9FC00160
:1018C0001124EFEFF0E0BF010E944932AB018C2FF1
:1018D00090E0880F991FA5E5A49FB001A59F700D0A
:1018E0001124861B970B982F990F980FBF01601B2F
:1018F000710B629FD001639FB00D729FB00D1124D8
:101900008B2F9D9FB0011124672F7727EF01C61BF6
:10191000D70BBE01629FE001639FD00D729FD00D77
:1019200011247F01E91AF108E09EB001E19E700DDB
:10193000F09E700D1124672F7727E61BF70BE29FAF
:101940008001E39F100DF29F100D1124E12F722FE3
:101950004230510599F048F44115510569F0413084
:10196000510581F0EB2F8D2F07C04430510569F0F0
:1019700080F046305105B1F76E2F8DCFE22F7B2FCF
:10198000812FFACFE22F7D2FF7CFEB2F822F712FF0
:10199000F3CF7B2F822FED2FEFCF41E00C94380C4B
:1019A00030E020E0869F212D969F200D311D1124CF
:1019B000C9010895AC018230910508F408959FEFA4
:1019C000413E8EE1580740F49A0195E036952795FF
:1019D0009A95E1F798E0920F61E0E62FE90FFF2773
:1019E000FF1F9F0135952795822F229FF001239F8E
:1019F000F00DF00D11244E175F0738F49FEF920F92
:101A0000961758F78FEF860F08952F3FE9F361E09F
:101A1000620FF6CFE82F86FDE0952E2F2F7086FD02
:101A20002F5FE695E695E695E670F0E0E755FD4F09
:101A30009181929F902D212D112492959F70229536
:101A4000207F922B2081920F87FD919580E8890F4E
:101A50000895E42FF0E0EE0FFF1FEC5AFE4F408197
:101A600034EE439F412D1124E82FF0E050E0445E16
:101A70005F4FDA01A21BB1099D01B7FF03C0319589
:101A80002195310993E0220F331F9A95E1F7AF01B9
:101A9000421B530B9A0157FD20E0582F259F212D03
:101AA0001124822F0895622F0895E42FF0E0EE0FA5
:101AB000FF1FEB5AFE4F6081621B0895322F50E0EA
:101AC000FA01EE0FFF1FEB5AFE4F9081905297FDE7
:101AD0009195440F551FFA01EC5AFE4F2081231BAC
:101AE000330B290F311D97FD3A95620F0895EF9240
:101AF0000F93972F23E0029FB001112475956795EE
:101B00006E0D792F0F91EF9008950F93CF93DF9380
:101B1000D72FC82F47FD419588E390E0841B91099A
:101B200047FD9395889FB001899F700D700D11241A
:101B3000229FC001239F900D900D1124860F971FA7
:101B40000E94DA0C982F990F890F682F600F7D2F54
:101B50008C2FDF91CF910F9108950F931F93522FE8
:101B600010E0F801EE0FFF1FEB5AFE4FA081A052CC
:101B7000BB0B9D015203F001539FF00D1124000F88
:101B8000111FD801AC5ABE4F0C910057110B4003E6
:101B90009001419F300D11242E0F3F1F37FF02C0CF
:101BA00021583F4F220F232F221F330B620F1F910B
:101BB0000F9108950F931F93522F10E0F801EE0F2D
:101BC000FF1FEB5AFE4FA081A052BB0B9D01520399
:101BD000F001539FF00D1124000F111FD801AC5AD2
:101BE000BE4F0C910057110B40039001419F300DE7
:101BF00011242E0F3F1F37FF02C0215C3F4F96E09C
:101C0000359527959A95E1F7620F1F910F910895E9
:101C100022E8241B08F420E0620F0895EF92FF925F
:101C20000F93970195E0099F200D311D11242F3F3F
:101C3000310519F010F02FEF30E02095382F320FDA
:101C400008F43FEF832F0F91FF90EF900895EF92EC
:101C5000FF920F93972F093438F4B701601B710975
:101C60006F3F710519F010F06FEF70E0485F5F4F44
:101C70004131510540F0A901485F5F4F41315105A5
:101C800010F06FEF70E06095482F460F08F44FEFAB
:101C9000842F37FF02C02D5F3F4F3595279535952F
:101CA000279560917D04620F792F0F91FF90EF903F
:101CB0000895EF92FF920F939701201B31092F3F58
:101CC000310519F010F02FEF30E0322F3095482F0A
:101CD000430F08F44FEF842F620F0F91FF90EF90A6
:101CE0000895EF92FF920F939701201B31092F3F28
:101CF000310519F010F02FEF30E02095382F320F1A
:101D000008F43FEF832F0F91FF90EF900895FC01AF
:101D10009B01009729F480E077FF2BC080E80895AD
:101D2000AC0197FF04C044275527481B590BB90144
:101D3000640F751F37FD10C0241B350BC901A5E0CA
:101D4000880F991FAA95E1F70E945D3280E2861BF9
:101D5000F7FF0FC081950895CB0165E0880F991FAB
:101D60006A95E1F7BA01621B730B0E945D3280E64F
:101D7000EECF08950F931F93CF93DF93D62FC72FE6
:101D8000182FC901212F201B022FBA010E94870E94
:101D9000982F990F990F891B800F282F219F212D94
:101DA0001124822F6D2F7C2FDF91CF911F910F91E6
:101DB0000895EF920F931F93CF93DF93D62FC72FE2
:101DC000182FC9010E19010FBA010E94870E081BB6
:101DD000202F219F212D1124822F6D2F7C2FDF9109
:101DE000CF911F910F91EF9008950F93CF93DF93B1
:101DF000D72FC82FC901BA010E94870E682F600F24
:101E00007D2F8C2FDF91CF910F910895EF920F933B
:101E1000CF93DF93D72FC82FC9010E19BA010E94A3
:101E2000870E602F681B7D2F8C2FDF91CF910F9134
:101E3000EF9008950C94CD0C46E050E06CE170E01A
:101E40008CE794E00C94C13246E050E06CE170E025
:101E50008CE794E00C94DF32ECE7F4E085E08083DB
:101E60008091620290916302A091640281839283C7
:101E7000A3838FE784838FEF85830C94240F80E006
:101E800008950F931F93CF93DF93C82FD62F8A0106
:101E90000E943F0F97E0C99FB001112460507F4F0F
:101EA0006D0F711DFB0190819F3F29F0F801E80F34
:101EB000F11D90838F5FDF91CF911F910F91089556
:101EC000E091B702F091B8020994E091B302F09169
:101ED000B40209945F926F927F928F929F92AF9219
:101EE000BF92CF92DF92EF92FF920F931F93CF9307
:101EF000DF935C014B01FC01C081C295C07F10E102
:101F00001C0FF12E1D3410F03CE4F32E6091800480
:101F1000669580918204909183040E94D00C582E83
:101F2000D0E0CF15A0F081E01C3408F080E0DF9114
:101F3000CF911F910F91FF90EF90DF90CF90BF90C6
:101F4000AF909F908F907F906F905F900895FE016B
:101F5000E451FE4F8081F50191818923C9F1CE01C1
:101F6000880F991F80509F4FFC01EC5AFF4F208132
:101F7000422F4057550B6A018B5A9F4FFC018081BD
:101F8000282F2052330B3901449F9001459F300D7B
:101F9000300D1124669CC001679C900D900D11249A
:101FA000820F931F0E94DA0C082F60917D047091BC
:101FB0007E0480917F04E52C9301A601F40109952C
:101FC0000E941A0F462F282F672FCE010E94650FFF
:101FD0002196A7CF69ED7EE00C946A0F67E77DE05C
:101FE0000C946A0F66E07FE00C946A0FAF92BF9288
:101FF000CF92DF92EF92FF920F931F93CF93DF93D5
:102000006C017B01FC01C081C295C07F10E11C0FF7
:10201000B12E1D3410F03CE4B32E6091800466951F
:1020200080918204909183040E94D00CA82ED0E06D
:10203000CB1578F081E01C3408F080E0DF91CF917F
:102040001F910F91FF90EF90DF90CF90BF90AF90D6
:102050000895FE01E451FE4F8081F60191818923AC
:1020600011F1CE01880F991F80509F4FFC01EB5A50
:10207000FF4F20812052330B8C5A9F4FFC0140812F
:102080004057550B60917D0470917E0480917F04D0
:102090000A2DF70109950E941A0F462F282F672F46
:1020A000CE010E94650F2196C3CF6AEB7EE00C94AF
:1020B000F60F65E87DE00C94F60F65EF7EE00C947A
:1020C000F60FBF92CF92DF92EF92FF920F931F9382
:1020D000CF93DF936C017B01FC01C081C295C07F6F
:1020E00010E11C0F012F1D3408F00CE460918004F6
:1020F0006695669580918204909183040E94D00C2D
:10210000B82ED0E0C01770F081E01C3408F080E0F9
:10211000DF91CF911F910F91FF90EF90DF90CF90C3
:10212000BF900895FE01E451FE4F8081F601918138
:10213000892391F060917D0470917E0480917F04E9
:102140002B2D4C2FF70109950E941A0F462F282F8F
:10215000672FCE010E94650F2196D4CF69E27DE002
:102160000C94611063E57DE00C94611065E57DE001
:102170000C9461106EE57DE00C9461107F928F925B
:102180009F92AF92BF92CF92DF92EF92FF920F9306
:102190001F93CF93DF935C016B01FC01C081C2955B
:1021A000C07F10E11C0F912E1D3410F03CE4932EE3
:1021B0006091800466956695809182049091830475
:1021C0000E94D00CF82E80E48F0D0E940A0D90E83A
:1021D000892E880E8F2D0E940A0D20E8722E780E0F
:1021E000D0E0C91590F081E01C3408F080E0DF9168
:1021F000CF911F910F91FF90EF90DF90CF90BF9004
:10220000AF909F908F907F900895FE01E451FE4F14
:102210008081F50191818923A1F060917D04709105
:102220007E0480917F04EF2C0C2F272D482DF60182
:1022300009950E941A0F462F282F672FCE010E9462
:10224000650F2196CECF6DEA7DE00C94BE106AED4D
:102250007DE00C94BE10AF92BF92CF92DF92EF92CE
:10226000FF920F931F93CF93DF937C016B01FC01CF
:10227000C081C295C07F20E1B22EBC0EAB2CFCE425
:10228000FB1510F49CE4A92E2091800430E050E06E
:1022900040E06FEF7FEF80E090E00E9471328901B3
:1022A000D0E02C2FCA1580F081E0FBE4FB1508F488
:1022B00080E0DF91CF911F910F91FF90EF90DF9021
:1022C000CF90BF90AF900895FE01E451FE4F808102
:1022D000F70191818923F1F0409186044150042E49
:1022E000000C550B47FF18C0C801609180040E9484
:1022F000D00CAC0160917D0470917E0480917F04CC
:10230000F60109950E941A0F462F282F672FCE013C
:102310000E94650F2196C5CFFA01EA57FB4F8589C8
:1023200082130AC0FA01EE0FFF1FEA57FB4F878D99
:1023300090A180179107C8F241505109D3CF68E0AE
:102340007EE00C942B112F923F924F925F926F92EE
:102350007F928F929F92AF92BF92CF92DF92EF9235
:10236000FF920F931F93CF93DF93CDB7DEB72B97D9
:102370000FB6F894DEBF0FBECDBF8C832B015F83F9
:102380004E83FB01F081F295F07FF983F05FFA83D1
:10239000FB83FD3410F02CE42B83309186043D83C5
:1023A0009981892F90E09B878A87880F991FFC016C
:1023B000EC5AFE4F6F01FC818F2F90E09C012F5F44
:1023C0003F4F39872887EB81FA85FE17F0F081E0CF
:1023D0002A812C3408F080E02B960FB6F894DEBFEB
:1023E0000FBECDBFDF91CF911F910F91FF90EF9066
:1023F000DF90CF90BF90AF909F908F907F906F9025
:102400005F904F903F902F900895EA85FB85E451AF
:10241000FE4F8081F2019181892301F120907D049A
:1024200030907E04288539852A573B4F39013C81FD
:10243000398310E029813D812317C8F020917F0462
:10244000129F112D1124B101812F0E941A0F462FC6
:10245000282F672F8A859B850E94650F8A859B851B
:1024600001969B878A8792E0C90ED11CACCFF301FD
:1024700081913F01F601A080A81ABB088180F30179
:102480008185881A9908AA9C9001AB9C300D300D6B
:102490001124889CC001899C900D900D1124820FFD
:1024A000931F0E94DA0C082FF301EE0FFF1FE6586E
:1024B000F44060918004838D948D0E94D00C7C0147
:1024C0009401A501B101812FEE81FF8109951B01C6
:1024D000F981FF5FF983182FADCF4EE05EE0BC01BC
:1024E00080E00C94A31147E25EE0BC0180E00C9414
:1024F000A31149E55EE0BC0180E00C94A31141E723
:102500005EE0BC0180E00C94A311BF92CF92DF92F9
:10251000EF92FF920F931F93CF93DF937C01FC0107
:10252000C081C295C07F10E11C0F012F1D3408F03F
:102530000CE460917D0470917E0480917F040E9480
:102540001A0FD62EC72EB82ED0E0C01770F081E03B
:102550001C3408F080E0DF91CF911F910F91FF9024
:10256000EF90DF90CF90BF900895FE01E451FE4FB1
:102570008081F7019181892331F02B2D4D2D6C2D18
:10258000CE010E94650F2196E0CFE091B502F09157
:10259000B6020994CF92DF92EF92FF920F931F93AE
:1025A000CF93DF93CDB7DEB72A970FB6F894DEBF8F
:1025B0000FBECDBF182F062FF42E0E943D09882391
:1025C00009F44BC0FF2009F457C0AE014F5F5F4FC5
:1025D000602F812F0E94410FF82EE0905E030F2D97
:1025E00010E0C8018E0D911D0B9764F18AE090E018
:1025F0006C01C01AD10AB801615A7C4FA6018FE55F
:1026000093E00E94B832B80167597C4FA60189E671
:1026100093E00E94B832A601440F551FB801660F1F
:10262000771F63587C4F8DE793E00E94B832B80162
:102630006D587C4FA60183E793E00E94B832EA947C
:10264000E0925E0310915E03DE01119640E0842F5C
:10265000810FF41213C080935E032A960FB6F8948C
:10266000DEBF0FBECDBFDF91CF911F910F91FF90C5
:10267000EF90DF90CF900895F12CAFCF5D91252F93
:1026800030E090E0BC01625A7C4FF901EE0FFF1F71
:10269000EC5AFE4F0081FB010183220F331FF90129
:1026A000EB5AFE4F2081FB012387558B880F991F22
:1026B000FC01E25AFC4F10A2178E4F5FC8CF08955D
:1026C0000E945F130C94F00308950895CF93DF9355
:1026D000FC01C081C15FC295C07FD0E1DC0FDD3459
:1026E00008F0DCE46D2F8C2F0E9464136D2F8C2F6B
:1026F000DF91CF910C9465134F925F926F927F920E
:102700008F929F92AF92BF92CF92DF92EF92FF9201
:10271000CF93609191037091920380919303909174
:1027200094030E94F7266B017C010E94DC264B017A
:102730005C018092910390929203A0929303B092D5
:102740009403A0915E03EEE5F3E08A2F90E04FEF53
:102750005FEF60E070E04C195D096E097F09A91315
:102760002AC080935E0380919503C0E0811108C068
:1027700080917C04C82FC37019F0C82FC695C695E8
:1027800080913902813009F440C0882339F18230C8
:1027900009F4F0C0833009F4F8C0CF91FF90EF90B6
:1027A000DF90CF90BF90AF909F908F907F906F9071
:1027B0005F904F900895278D30A12901712C612CD5
:1027C000441555056605770520F481509F5F3296C4
:1027D000C6CF2C0D3D1D30A3278FF8CF10923A02A3
:1027E0008092820490928304A0928404B092850423
:1027F00083E3EEE5F3E0A6E8B4E001900D928A955C
:10280000E1F781E080933902C8CF80913D02C8137F
:1028100023C090917C04937020913E0230E081E0CF
:102820009217130609F480E0817080933C02809136
:10283000810490913B02981739F080933B0240E06D
:1028400060E080E00E94C512C33188F4EC2FF0E014
:10285000EB5EFC4C0C94903281E0E6CF80913C0220
:10286000882359F040E060E080E00E94C51280E0DB
:1028700004C08AE392E00E94851290913A029F5F21
:1028800090933A02811172C082E080933902809164
:102890003C0281116BC0CC2309F475C00E94601307
:1028A0008AE392E0CF91FF90EF90DF90CF90BF90BE
:1028B000AF909F908F907F906F905F904F900C940F
:1028C00066138AE392E00E94AE10D7CF8AE392E0CB
:1028D0000E945510D2CF8AE392E00E94EA0FCDCF3A
:1028E0008AE392E00E94B210C8CF8AE392E00E948D
:1028F000B610C3CF8AE392E00E94BA10BECF8AE33B
:1029000092E00E94EE0FB9CF8AE392E00E94591044
:10291000B4CF8AE392E00E945D10AFCF8AE392E0E9
:102920000E94F20FAACF8AE392E00E942311A5CF62
:102930008AE392E00E942711A0CF8AE392E00E94EE
:102940009F119BCF8AE392E00E946D1296CF8AE39B
:1029500092E00E94731291CF8AE392E00E94791272
:102960008CCF8AE392E00E947F1287CFCC2309F4B8
:1029700014CF94CFC0933D0280917C0483708093E8
:102980003E020E94600F83E03DCF6091820470910F
:10299000830480918404909185040E94F72660311D
:1029A00071058105910508F4F8CE10923902F5CE33
:1029B000E091B102F091B202099510928604E5EA25
:1029C000F4E08FEF9FEF8193919324E0E93BF207CE
:1029D000D1F710925E03EDE7F3E08FEF9FEF819365
:1029E000919323E0E139F207D1F70E94E5248111A8
:1029F00004C00E947F250E942C0F0E941C0F809112
:102A00007C048C7F11F40C942C0F0895CF93C82F65
:102A1000882329F040E060E080E00E94C512C09366
:102A20009503CF91089590917C0421E09227909393
:102A30007C041092390281110C94240F089581E0D6
:102A40000C94131580917C04837011F41092390258
:102A500080917C048C7F816080937C0408950E9427
:102A600022150C94240F80917C048370089590911A
:102A70007C04937099F0811109C0946090937C0458
:102A800010923902662351F00C94240F833110F018
:102A90009864F4CF880F880F982BF0CF089561E0E9
:102AA0000C943715682F90917C049695969581E04B
:102AB000890F833108F081E00C94371581E00C9484
:102AC0005215682F90917C04969596958FEF890FFB
:102AD00009F482E10C94371581E00C946115909112
:102AE0007C04937061F080937D0460937E04433393
:102AF00008F042E340937F0421110C94240F0895C1
:102B000021E00C946F15ACE7B4E01196EC911197AD
:102B1000F0E0282F13964C91139712966C91CF01E9
:102B200008960C946F1581E00C948315ECE7F4E0A3
:102B30009181282F43816281E92FE850FF0BCF015B
:102B40000C946F1581E00C949615ECE7F4E062812B
:102B500020E1620F08F46FEF9181282F4381892FC4
:102B600090E00C946F1581E00C94A515ECE7F4E06F
:102B7000628120E1621B08F460E09181282F43818B
:102B8000892F90E00C946F1581E00C94B615ECE75A
:102B9000F4E0438120E1420F08F44FEF9181282FA8
:102BA0006281892F90E00C946F1581E00C94C71519
:102BB000ECE7F4E0438120E1421B08F440E091811E
:102BC000282F6281892F90E00C946F1581E00C947E
:102BD000D815809380040C94240F2091800430E158
:102BE000230F08F42FEF2093800481110C94240FFD
:102BF000089581E00C94ED152091800430E1231BB1
:102C000008F420E02093800481110C94240F08958F
:102C100081E00C94FC150895FC01EE0FFF1FE80FF6
:102C2000F91FE754FB4F6183408322830895E9EB4A
:102C3000F4E0818360834283339695E0ED39F907B0
:102C4000C1F708956CE470E089EB94E00C94BC1635
:102C5000FA01811101C0FB0109941F93CF93DF9307
:102C6000EC01FB011281111151C00E94BD2482723E
:102C7000CB3CFCE5DF0709F473C048F5C63CECE546
:102C8000DE0709F459C068F4C43C9CE5D90709F48F
:102C900049C008F04CC0C33CDC4509F440C011E019
:102CA00035C0C83C9CE5D90709F450C008F449C0B8
:102CB000C93CFCE5DF0709F44EC046EE55E165ED81
:102CC00075E1CA3CDC4559F70E9428161FC0C13D7A
:102CD000ECE5DE07A0F4CF3CFCE5DF07B8F4CD3C23
:102CE0009CE5D90709F441C048E056E169EF75E178
:102CF000CE3CDC4548F381E00E944F1507C0C73D3C
:102D0000FCE5DF0740F4C23DDC45A0F1812FDF91F7
:102D1000CF911F910895CE35DD45C1F3C0CF0E94FC
:102D20001F15F4CF4CE655E16EE575E1CDCF4EE5CC
:102D300055E16CE675E1C8CF42EA55E163E975E11A
:102D4000C3CF43E955E162EA75E1BECF44EC55E1FA
:102D500063EB75E1B9CF43EB55E164EC75E1B4CFBA
:102D600045ED55E166EE75E1AFCF49EF55E168E01D
:102D700076E1AACF8AE0C0CF539A4BB1477F5BB1CF
:102D80005860EFB7F8949B01220F331F260F371FAF
:102D9000280F391F2817390741F4EFBF8FE594E05A
:102DA0000197F1F700C000000895DC016D91CD019D
:102DB00078E05BB9000000C067FF4BB9660F000008
:102DC00000C000C000C04BB900C07A9591F7E2CFB7
:102DD0000C94A50480913802811106C085EF809380
:102DE000400284EF80933F0220914002A22FA295DF
:102DF000AF70B0E091963C9191972F7081E090E098
:102E0000BC01022E01C0660F0A94EAF7462F4095D6
:102E1000432391964C93919792963C919297362B9F
:102E200092963C93929740913F02E42FE295EF7087
:102E3000F0E031A14F70042E01C0880F0A94EAF728
:102E4000982F9095932391A392A1892B82A390967A
:102E50008C9190E002C0959587952A95E2F7817054
:102E600020A130E002C0359527954A95E2F792E01F
:102E700020FF90E0892B80939B039091380281E0A2
:102E8000982790939703891B809396030895CF9377
:102E9000E0919B03EE0FEE0F20914002A22FA2952E
:102EA000AF70B0E090968C9190E02F7002C0959535
:102EB00087952A95E2F78170992740913F02A42FC8
:102EC000A295AF70B0E090962C9130E04F7002C0A8
:102ED000359527954A95E2F7A9014170552720FFBE
:102EE00002C042E050E0842BE82BE0939B03C091AA
:102EF0009703EF70F0E0E754FD4F808190919A03C3
:102F0000890F80939A0320E0843064F0EC2FF0E086
:102F1000E856FC4F80818F5F808360E08C2F0E9499
:102F2000E81621E080919A038D3F64F4EC2FF0E0E5
:102F3000E856FC4F80818150808361E08C2F0E9495
:102F4000E81621E080919A03082E000C990B64E0AA
:102F500070E00E945D3280939A03822FCF91089592
:102F6000E0919703F0E0E856FC4F2081FC012083BC
:102F70000895FF920F931F93CF93DF93D091960301
:102F80000D2F10E008561C4FFC01C081F801808114
:102F9000C81BFC2E80E01F147CF09C2FC7FD90E026
:102FA000C91BC11114C08823E9F0DF91CF911F9193
:102FB0000F91FF900C94051CFA94F80180818F5FAB
:102FC000808360E08D2F0E94E81681E0E4CFCF5F20
:102FD000F80180818150808361E08D2F0E94E81686
:102FE00081E0DFCFDF91CF911F910F91FF90089586
:102FF0000F931F93CF93DF93C42FD22FFC018281B5
:103000008823C9F040939E030E944F2690939D030E
:1030100080939C0380E28C0F883008F050C0C7700A
:1030200081E001C0880FCA95EAF7DF91CF911F9127
:103030000F910C94B31D10919E03141335C0809111
:103040009C0390919D030E946726883C910560F542
:10305000C0E2CD0F1D17B9F080E2810F883040F437
:10306000177081E001C0880F1A95EAF70E94BA1D17
:10307000C83048F481E09D2F977001C0880F9A9561
:10308000EAF70E94B31D802F0E94AB1DC830B8F430
:10309000D77081E001C0880FDA95EAF7DF91CF9110
:1030A0001F910F910C94BA1D80E28C0F883038F478
:1030B000C77081E001C0880FCA95EAF7EFCFDF91B2
:1030C000CF911F910F9108950F939C01CB01243F45
:1030D0004CE5340759F1A8F4293DFCE53F0701F11F
:1030E0002A3D4CE53407D1F1283D3C4591F406E2F8
:1030F00021EE41EE68ED7CE50E94F81780E00F912B
:103100000895263FFCE53F07E9F0B0F0273F3C4536
:10311000F9F0FC018281882339F110929E03EFCFF0
:1031200007E225EE45EE69ED7CE5E6CF06E221EE0D
:1031300040EE64EF7CE5E0CF07E225EE44EE65EF7C
:103140007CE5DACF06E221EE42EE66EF7CE5D4CFF5
:1031500007E225EE46EE67EF7CE5CECF08E221E000
:1031600045EE6AED7CE5C8CF81E0C9CFCF93DF9310
:10317000EC01FB018281882309F419C1C230FCE50E
:10318000DF07C0F1C6319CE5D90730F09E012B5F07
:103190003C452930310570F50E94F82490935D0478
:1031A00080935C04C031ECE5DE0709F4CFC008F081
:1031B0005BC0C8308CE5D80709F4B6C088F5C430C8
:1031C000ECE5DE0709F4A8C0C0F4C2308CE5D807EE
:1031D00009F49CC080915C048260C330DC4509F432
:1031E00098C080915C0490915D040E9406250E9425
:1031F000A81F80E0DF91CF91089580915C048061E9
:10320000C630ECE5DE0709F484C080915C04886078
:10321000C730DC4508F47DC080915C04806279C0D1
:10322000CC308CE5D80709F489C070F480915C0437
:103230008C60CA30ECE5DE0709F46BC008F478C096
:1032400080915C048E7F65C0CE308CE5D80709F490
:1032500079C080915C048B7FCF30DC4508F459C085
:1032600080915C048F7E55C0CC3FECE5DE0709F40D
:1032700057C030F5C3318CE5D80709F46FC078F436
:10328000C131ECE5DE0709F465C0C231DC4509F067
:10329000A8CF0E94A81F80915C048F773AC0C531E7
:1032A0008CE5D80709F462C008F476C080915D040B
:1032B0008160CB3FDC4509F094CF80935D0491CFD2
:1032C000C115FDE5DF0709F44DC088F480915D0468
:1032D0008D7FCE3F9CE5D90781F380915D048E7F81
:1032E000CF3FDC4550F380915D048360E6CFC23070
:1032F000FDE5DF0709F459C008F444C080E0C3309D
:10330000DD4509F06ECF0E9481256BCF80915C0472
:10331000816080935C0465CF80915C048460F9CF08
:1033200080915D048260C9CF80915C048064F1CF9C
:103330000E94A81F80915C048068EBCF80915C04A0
:103340008D7FE7CF80915C04877FE3CF80915C0421
:103350008F7DDFCF80915C048F7BDBCF80915C041D
:10336000837FD7CF80915D048C7FA7CF80915C0451
:1033700082FB992790F921E0922790FB82F990FB3C
:1033800083F9C7CF80915D04982F909591708E7FBF
:10339000892B90FB81F991CF0E94A81F90915C042A
:1033A000892F97FB87F98058B4CF81E0ACCF81E0BB
:1033B00021CFCF93DF93EB0186319C4511F50E941D
:1033C000BD249A81992399F08A7A91E009F490E0DA
:1033D00090939F03811109C089E20E948A240E9470
:1033E0009E2480E0DF91CF91089585E3F6CF809110
:1033F0009F03811104C089E20E949124F0CF85E3EC
:10340000FBCF81E0EFCF61E070E081E492E00C94CB
:10341000BC1A61E070E081E492E00C94C31ACF938F
:10342000DF93D62FC72F0E945D1B009709F5ED2F64
:10343000FC2FDC01AB55BC4F2C91219301968630BB
:103440009105B9F78BEA93E00E94B9170E94DC2638
:103450006E5F7F4F8F4F9F4F6093A1037093A203C6
:103460008093A3039093A40381E0DF91CF9108950B
:1034700080E0FBCFCF93DF93D62FC72F6091A103BE
:103480007091A2038091A3039091A4030E94BF2690
:10349000ED2FFC2F90E080E02191DC01AB55BC4F7B
:1034A0002C93019686309105B9F78BEA93E0DF9172
:1034B000CF910C94B0178EE14A9B02C08150E1F786
:1034C0004A9BFECF08955A9880E28A95F1F75A9A5E
:1034D0000895FC013BE03A95F1F798E020E080E0A8
:1034E00031E040E14A95F1F7880F4A9B02C08160C4
:1034F000232742E04A95F1F7000040E14A95F1F7B1
:10350000915079F790E19A95F1F799B132E03A95B7
:10351000F1F7000040E14A95F1F792FB992790F905
:1035200092272081920F90830895EF92FF920F933C
:103530001F93CF93DF930F92CDB7DEB719828C0123
:103540007C01E60EF11C0E151F0561F481E09981E6
:10355000911180E00F90DF91CF911F910F91FF901B
:10356000EF9008950E945B1ACE0101960E94691A9D
:10357000F80181938F01E7CF9093AD038093AC0363
:10358000529A5A9A08959093AD038093AC0352983F
:103590005A9AEA9AE9E6F0E080818F7C8083089568
:1035A0006150770B91E001C0990F6A95EAF720E02E
:1035B00031E0911108C0222391F05A9A80E28A9555
:1035C000F1F75A980895492F482339F05A9A23273A
:1035D00040E24A95F1F79695ECCF5A98F9CF5A9870
:1035E000EDCFFF920F931F93CF93DF93EC018C01EC
:1035F000060F111DC017D10731F4DF91CF911F9134
:103600000F91FF900895F9900E94631A68E08F2D42
:103610000E94D01AEFCF1F920F920FB60F92112473
:103620002F933F934F935F936F937F938F939F93CA
:10363000AF93BF93CF93DF93EF93FF935A98529A30
:10364000C091AC03D091AD036D81662321F08E81D2
:103650009F810E94F11A0E94631A80E18A95F1F716
:103660005A9852985A9A80E18A95F1F76A816623AE
:1036700009F18B819C810E94951AE881F981882348
:1036800011F088E001C082E080830E945B1AFF9104
:10369000EF91DF91CF91BF91AF919F918F917F91EA
:1036A0006F915F914F913F912F910F900FBE0F90AF
:1036B0001F901895E881F981E4CFCF93DF93C091F3
:1036C000AC03D091AD03F894529A5A9885E08A954C
:1036D000F1F7000052985A9A80E28A95F1F74A9BD6
:1036E0000CC0529A5A9AE881F98181E080837894DB
:1036F00081E090E0DF91CF9108956D81662381F0A4
:103700008E819F810E94951A81110AC0529A5A9AFD
:10371000E881F98182E08083789482E090E0EACFCA
:103720000E945B1A80E28A95F1F75A98529A80E1DA
:103730008A95F1F76A81662321F08B819C810E9432
:10374000F11A0E94631AE881F9811082789490E05E
:1037500080E0D0CF9093B3038093B2030895E091BB
:10376000B203F091B303309721F00190F081E02D86
:10377000099480E00895E091B203F091B30330978B
:1037800021F00280F381E02D099408952091B00387
:103790003091B1032817390771F09093B1038093EA
:1037A000B003E091B203F091B303309721F00680AB
:1037B000F781E02D099408952091AE033091AF0375
:1037C0002817390771F09093AF038093AE03E0910F
:1037D000B203F091B303309721F00084F185E02D1E
:1037E000099408950E945B266093C9037093CA03ED
:1037F0008093CB039093CC036093C5037093C6036F
:103800008093C7039093C80308950E945B2660933A
:10381000C9037093CA038093CB039093CC03609346
:10382000C1037093C2038093C3039093C4030895AC
:1038300085B7806885BF85B7806885BF089508957E
:1038400008950C941F1C0C94E1030E94181C83EE35
:1038500094E20E9425270E94201C0C94211C0C94A9
:103860003D09089508950E94311C0C94321C0E9459
:1038700046260E94B6260E94D0070E94EA160C94A3
:10388000231C9F92AF92BF92CF92DF92EF92FF9252
:103890000F931F93CF93DF93CDB7DEB72A970FB661
:1038A000F894DEBF0FBECDBF0E94840881110E9434
:1038B000F21B85EBA82E83E0B82E10E000E0902EDE
:1038C000802F0E94A707D82EF501F1905F01F81212
:1038D00016C00F5F1F4F0C30110589F78FEF8983DA
:1038E0008A831B820E944F268160782F9D838C8360
:1038F00049815A816B818D810E94EF1C32C0809179
:10390000500481FD0E94AD078F2D8D25F12CEE24F2
:10391000E394982F9E2109F44AC00E942F1CDE20B8
:10392000CC24C394D11001C0C12C882379F0FE822D
:103930009F82C8860E944F268160782F9A87898748
:103940004E815F8168858A850E94EF1CF801EB54E7
:10395000FC4F8081E826E0824C2D6F2D892D0E943E
:10396000CA120E947C130E94471781110E94051CF5
:103970000E94ED0B0E94AF1B9091B4038917E9F0F0
:103980000E94AF1B8093B4032A960FB6F894DEBF53
:103990000FBECDBFDF91CF911F910F91FF90EF90A0
:1039A000DF90CF90BF90AF909F900C94B305F394AD
:1039B000EE0CF7E0FF12ADCF8CCF2A960FB6F8943D
:1039C000DEBF0FBECDBFDF91CF911F910F91FF9052
:1039D000EF90DF90CF90BF90AF909F900895DF92CF
:1039E000EF92FF920F931F93CF93DF93CDB7DEB784
:1039F0002B970FB6F894DEBF0FBECDBF7A878B87AB
:103A0000F42E052F162FE72ED82E61110E94DD24EB
:103A10001E821D827E2DEC82DD824F2D502F612F64
:103A20008D2D9E812B960FB6F894DEBF0FBECDBFB5
:103A3000DF91CF911F910F91FF90EF90DF900C9449
:103A40001E22FC01808191810C945C24CF93C82FAD
:103A5000882309F43FC08CEF8C0F813AA0F46C2FBF
:103A60008091490290914A020E948625882329F07C
:103A70008C2F0E9491240E949E248C2F0E948A24C5
:103A8000CF910C949E2480E28C0F883048F4C7704C
:103A900081E001C0880FCA95EAF70E94C024F0CFE8
:103AA000EBE5EC0FE33040F4F0E0E950FD4F8081AE
:103AB00090E0CF910C94C61BC85AC73158F4EC2F34
:103AC000F0E0EE0FFF1FE753FD4F80819181CF9112
:103AD0000C94DC1BCF910895882329F19CEF980F5B
:103AE000913A20F40E9491240C949E2490E2980F25
:103AF000983050F4877091E001C0990F8A95EAF7E9
:103B0000892F0E94C624F0CF9BE5980F933020F4B4
:103B100090E080E00C94C61B885A873120F490E036
:103B200080E00C94DC1B08951F93CF93DF93182F34
:103B3000EB010E94261D209731F4812FDF91CF9158
:103B40001F910C946C1D8FE99FE00197F1F700C065
:103B500000002197F0CF6AE070E0893311F460E54E
:103B600070E00C94941D882321F00E94C0240C94D2
:103B70009E240895882321F00E94C6240C949E243C
:103B80000895CF92DF92EF92FF920F931F93CF93FE
:103B9000DF93DC01C62F972F12962C911297159662
:103BA0004C911597342F32953F70872F82958F70E7
:103BB000082F10E08C3090F5F801E85DFC4C0C9477
:103BC0009032D72FDF70907F11F0D295D07F2223D3
:103BD000A9F0DD2359F080E28C0F883010F0C1117C
:103BE00009C08D2F0E94C0240E949E248C2F0E9409
:103BF000261D14C08D2F0E94D024F6CF8C2F0E943A
:103C00006C1DDD2359F080E28C0F883010F0C1115B
:103C100017C08D2F0E94C6240E949E2408501109AF
:103C20000430110508F046C10E94AF1BDF91CF910F
:103C30001F910F91FF90EF90DF90CF900C94B30500
:103C40008D2F0E94D624E8CF872F8F70907F9032DF
:103C500011F08295807FC13061F4222329F0363043
:103C6000E8F60E94B31DDACF3530C0F60E94BA1DC7
:103C7000D5CF222341F03323A1F340FFB7CF4F70BC
:103C800015964C93EECF332389F3C93309F00AC15B
:103C90002FEF87EE93E0215080409040E1F700C085
:103CA00000008C2F0E946C1DB9CF872F86958695BA
:103CB000837061F0813009F0B1CF862F93702111AC
:103CC00002C090E080E00E94DC1BA8CF862F93709A
:103CD000211102C090E080E00E94C61B9FCF872F79
:103CE000837009F044C0211199CF862F8295869563
:103CF0008770880F880F6F70C62ED12CF12CE12CA5
:103D0000082E04C0CC0CDD1CEE1CFF1C0A94D2F75C
:103D100040E050E0BA01C4FF0FC04FE050E060E067
:103D200070E004C0440F551F661F771F8A95D2F7B5
:103D30004095509560957095292F2695269523706E
:103D4000CB01BA016C297D298E299F29223049F0A7
:103D500058F4213019F00E94DC2260CF0E94CA2260
:103D60005DCF0E94EE225ACF0E94C82257CF86957F
:103D7000222311F0872F8170882309F44FCF8C2FD5
:103D8000829586958770880F880F6C2F6F70C62E6E
:103D9000D12CF12CE12C082E04C0CC0CDD1CEE1C27
:103DA000FF1C0A94D2F740E050E0BA01C4FF0FC0F4
:103DB0004FE050E060E070E004C0440F551F661F04
:103DC000771F8A95D2F74095509560957095292F69
:103DD000269526952370CB01BA016C297D298E2961
:103DE0009F29223049F058F4213019F00E94A12374
:103DF00015CF0E948F2312CF0E94B3230FCF0E94B2
:103E000004230CCFD72FDF70222329F08D2F0E949F
:103E10002A238C2F26CF862F0E94BA1D8D2F0E9419
:103E20004B23FCCE613F19F148F4603F91F022230F
:103E300069F13111DBCE892F8F711DC0623FF1F026
:103E4000633FA9F72223F9F0872F8F710E94152372
:103E5000E5CE222341F0353008F0E0CE892F8F7176
:103E60000E946E23DBCE363008F0D8CEF7CF872FF6
:103E70008F712223A1F20E942A23D0CE872F8F7127
:103E80002223C9F3CCCF0E941023C8CE332379F06C
:103E9000C93341F49FEF27EE83E0915020408040EA
:103EA000E1F7FDCE8FE39CE90197F1F7F8CE892F7A
:103EB0008F71B5CFDF91CF911F910F91FF90EF9050
:103EC000DF90CF9008950F931F93CF93DF93EC0172
:103ED000688179818A810E9466248C010E94C523B1
:103EE0000E94C722B801CE01DF91CF911F910F919F
:103EF0000C94C11DCF93DF93EC018B819C81892BA6
:103F000029F08881998189238F3F19F4DF91CF911E
:103F10000895CE010E9417058823C1F3CE010E94A7
:103F2000631FCE01DF91CF910C94F40490E080E008
:103F30000E94C61B90E080E00E94DC1B0E94DD24F2
:103F40000E94E0240C949E240E9498240C94961FB6
:103F50000E94CD240C94A41FE92FE295EF70E2504B
:103F6000EE3070F4F0E0EC5CFC4C0C949032803F4E
:103F700019F020F4883E20F481E00895843FE1F3B5
:103F800080E00895883EC0F3813FD1F7F5CF93FBE1
:103F9000882780F908950E945C240C94AC1FCF936D
:103FA000DF9300D000D00F92CDB7DEB70F900F9007
:103FB0000F900F900F90DF91CF910895CF93DF93E3
:103FC00000D000D000D0CDB7DEB726960FB6F8945B
:103FD000DEBF0FBECDBFDF91CF9108951F93CF936A
:103FE000DF93C091CE0316E08091CF038C1304C001
:103FF000DF91CF911F910895D0E01C9FF0011D9F8C
:10400000F00D1124E053FC4F408151816281738196
:10401000848195810E94DE1F2196C770E5CF409173
:104020000004509101046091020470910304809196
:104030000404909105040C94DE1F1F93CF93DF932B
:1040400080910504807FA9F480910204882389F07F
:104050008091CE03C091CF03609100047091010460
:10406000A0910304B0910404D62FD72316E0C813FF
:1040700004C0DF91CF911F91089590E0109711F047
:10408000DF3F19F401968770F2CF189F9001199FB6
:10409000300D1124F901E053FC4F41814713F2CF59
:1040A00040814613EFCF42814111ECCF43815481CF
:1040B0004A1B5B0B483C510528F7809105048F7023
:1040C000806180930504F901EB52FC4F80818F7071
:1040D0008061808380E094E00E947A1FDF91CF911D
:1040E0001F910C94EE1FAF92BF92CF92DF92EF928E
:1040F000FF920F931F93CF93DF93CDB7DEB76197F6
:104100000FB6F894DEBF0FBECDBF8C0185E0F8017D
:10411000DE011D9601900D928A95E1F7F80140812C
:104120005181E28080E0C82E84E0D82E60910304A3
:10413000709104046115710509F461C19091000446
:1041400020910104892F82238F3F09F458C1A38055
:10415000B480F0900204F501E61BF70BFF2009F490
:10416000FCC080910504382F307FE83CF10508F051
:10417000B2C0311179C0FE2C251323C0941321C085
:10418000E1101FC08F708061809305040E940F2092
:10419000C6010E947A1F80910504F80185838F2D46
:1041A00061960FB6F894DEBF0FBECDBFDF91CF9101
:1041B0001F910F91FF90EF90DF90CF90BF90AF9045
:1041C0000895AB2829F0842F85238F3F09F033C150
:1041D00080E0F82FF170DF2E80FF3CC08091CE038D
:1041E0002091CF0336E0821315C04D875E878D8501
:1041F0009E850E945C24292F22952F702230F0F09A
:10420000243018F59F70F1F0F8019581907FD1F47A
:10421000D12C1EC090E0389FF001399FF00D112481
:10422000E053FC4F6181651306C06081641303C0D5
:1042300062816E110FC001968770D5CF9F7011F00B
:10424000882331F3805E883018F3C8010E947A1FFA
:10425000FD2CA5CFEE2009F4A2CF8091050481604A
:1042600080930504F12C9BCF251306C0941304C042
:10427000F801EE2009F48DC04D875E878D859E85FF
:104280000E94CB1F882319F1EE2009F180910504CB
:10429000803270F0209100043091010438872F8320
:1042A0001986BB86AA868C87CE0107960E947A1F44
:1042B00086E0F801A0E0B4E001900D928A95E1F764
:1042C0000E941D200E940F20FF24F39468CFC80194
:1042D0000E947A1FF9CF311113C07A2DB98AA88AAA
:1042E0006E2D89890E94CF1F80E094E00E947A1F82
:1042F00086E0F60111928A95E9F70E940F20B2CF6D
:1043000025130FC094130DC0E1100BC0F801858375
:10431000C8010E947A1F86E0F60111928A95E9F79A
:104320003ECF4D875E878D859E850E94CB1F88235B
:1043300071F2EE2061F280910504803208F4B8CF6A
:1043400020910004309101043A8329831B82BD82AD
:10435000AC828E83CE010196A9CFE83CF10508F02E
:1043600041C0FE2CEE2009F4B2CF25132AC09413CD
:1043700028C08091050480FD1BC0982F907FC1F05C
:10438000F8018583903F31F0982F907F905F8F7078
:10439000892B8583C8010E947A1F86E0F801A0E07E
:1043A000B4E001900D928A95E1F70E940F20F7CEBC
:1043B00086E0F801A0E0B4E001900D928A95E1F763
:1043C000EECE4D875E878D859E850E94CB1F811125
:1043D0006FCF80910504816080930504C8010E941D
:1043E0007A1FDDCE7A2DB98AA88A6E2D89890E941E
:1043F000CF1F86E0F60111928A95E9F7D6CFEE201D
:1044000009F465CF4D875E878D859E850E94CB1F01
:10441000F82E882309F45BCF86E0F801A0E0B4E031
:1044200001900D928A95E1F780E094E00E94211DB1
:104430000E941D20BACF81E08E25CBCE1F93CF9353
:10444000DF93CDB7DEB72C970FB6F894DEBF0FBE63
:10445000CDBF4F83588769877A878B879C87CE012A
:1044600007960E947320882369F08A859B85892B93
:1044700039F04F815885842F85238F3F09F071C013
:1044800016E05FC086E0FE013796DE0111960190CE
:104490000D928A95E1F78A859B85892B89F38F8117
:1044A000988589238F3F61F32091CF0330E0C901C4
:1044B0000196877099274091CE034817190671F429
:1044C0000E94A81F1092CF031092CE0386E0E0E076
:1044D000F4E0DF011D928A95E9F7D2CF96E0929F32
:1044E000D001939FB00D1124A053BC4FFE01319613
:1044F00001900D929A95E1F78093CF030E94EE1FF1
:10450000BFCF819FC001112480539C4F0E94732014
:104510008823E9F0E091CE031E9FF0011124E053BF
:10452000FC4F4081518162817381848195810E9419
:10453000DE1F8091CE0390E00196877099278093CB
:10454000CE038091CE039091CF038913DACF2C96BE
:104550000FB6F894DEBF0FBECDBFDF91CF911F9194
:10456000089569857A858B859C850E94DE1F88CF9A
:1045700008950C94B8220E94B9226093410470936C
:10458000420480934304909344040C94961F08952E
:104590000C94BB220F931F9300914104109142048D
:1045A0002091430430914404602B712B822B932B78
:1045B0001F910F910C94BB220F931F930091410404
:1045C00010914204209143043091440460237123EC
:1045D000822393231F910F910C94BB220F931F935F
:1045E000009141041091420420914304309144040D
:1045F00060277127822793271F910F910C94BB226C
:104600000C94B8220C9400230E94022360933D0472
:1046100070933E0480933F04909340040C94961F43
:1046200060E070E0CB010C9404230F931F9341E0F2
:1046300050E060E070E08A019B0104C0000F111F90
:10464000221F331F8A95D2F7C901B8011F910F911C
:104650000C9404230F931F9341E050E060E070E05E
:1046600004C0440F551F661F771F8A95D2F78091AB
:104670003D0490913E04A0913F04B09140048A0112
:104680009B01082B192B2A2B3B2BC901B8011F9129
:104690000F910C9404230F931F9341E050E060E0CE
:1046A00070E004C0440F551F661F771F8A95D2F72C
:1046B000CB01BA01609570958095909500913D046D
:1046C00010913E0420913F043091400460237123F7
:1046D000822393231F910F910C9404230F931F9314
:1046E00041E050E060E070E004C0440F551F661FD9
:1046F000771F8A95D2F780913D0490913E04A09156
:104700003F04B09140048A019B01082719272A27FA
:104710003B27C901B8011F910F910C9404230F93FB
:104720001F9300913D0410913E0420913F0430916D
:104730004004602B712B822B932B1F910F910C94B3
:1047400004230F931F9300913D0410913E04209188
:104750003F043091400460237123822393231F91EF
:104760000F910C9404230F931F9300913D0410911B
:104770003E0420913F043091400460277127822736
:1047800093271F910F910C940423089527E0929F83
:10479000800D1124982F977041E001C0440F9A9525
:1047A000EAF786958695869595E0899FF001112414
:1047B000EA5FFB4F90E080E070E05191DF011197DC
:1047C0009B01082E02C0369527950A94E2F72170C6
:1047D00021952527242325272C93019685309105A3
:1047E00061F7089527E0929F800D1124982F97700C
:1047F00086958695869525E0829FF0011124EA5FD3
:10480000FB4F50E040E080E0219130E0092E02C0F3
:10481000369527950A94E2F721703327042E01C0BC
:10482000220F0A94EAF7822B4F5F5F4F4530510504
:1048300059F70895BF92CF92DF92EF92FF920F93B4
:104840001F93CF93DF938C01C0903D04D0903E0422
:10485000E0903F04F0904004809141049091420424
:10486000A0914304B0914404C82AD92AEA2AFB2A19
:10487000CFE1D0E0BC2ED701C6010C2E04C0B69506
:10488000A795979587950A94D2F780FD0EC021973A
:1048900088F7B12C8B2DDF91CF911F910F91FF9055
:1048A000EF90DF90CF90BF900895B8018C2F0E94B9
:1048B000CF05019761F3EECFCF93DF93EC010E9418
:1048C0001A24BE01DF91CF910C94CF051F93CF9393
:1048D000DF93EB019091CD03992331F0CB01DF9170
:1048E000CF911F910C945C24882379F0CB010E9416
:1048F0001A24182F682FCE010E94C623BE01812FD3
:10490000DF91CF911F910C94CF05CB010E94F22330
:10491000182FF4CF682F8091490290914A020C948D
:10492000BC25682F8091490290914A020C94BE25C3
:104930008091490290914A020C94C025E09149026D
:10494000F0914A0280914F048083E0914902F091F6
:104950004A02808190914E04892B8083E091490224
:10496000F0914A02808190914D04892B808380913F
:10497000490290914A020C94BB1B80914F04089508
:1049800090914F04892B80934F04089580959091C6
:104990004F04982390934F04089510924F04089564
:1049A00090914E04892B80934E04089580959091A8
:1049B0004E04982390934E04089510924E04089547
:1049C00010924D04089580E0089590E080E00E94E8
:1049D000D93221E08A3E9E4F09F020E0822F0895CF
:1049E00082E090E00C94D13283E090E00C94D132DC
:1049F000CF9384E090E00E94D132C82F82E290E011
:104A00000E94D132982F8C2FCF910895CF93C92F28
:104A1000682F84E090E00E94EF326C2F82E290E0F9
:104A2000CF910C94EF32AB01BC018FE090E00C947D
:104A3000013360E070E0CB010E9413250C94D30396
:104A40006AEE7EEF90E080E00E940D3360E082E04D
:104A500090E00E94EF3260E083E090E00E94EF324D
:104A600010924104109242041092430410924404A4
:104A700060E084E090E00E94EF3260E082E290E04B
:104A80000E94EF3260E085E090E00E94EF3260E04B
:104A900086E090E00E94EF326FEF87E090E00E94A6
:104AA000EF3240E050E0BA0188E090E00E9401332C
:104AB00060E08DE090E00E94EF3240E050E0BA010B
:104AC00088E190E00E94013360E087E190E00E947D
:104AD000EF3240E050E0BA018CE190E00E940133F7
:104AE00070E060E080E290E00E940D3340E050E032
:104AF000BA0188E190E00E9401330C9419250C94CE
:104B00002025682F8EE090E00C94EF32662349F068
:104B1000FC01329608962191261729F0E817F9072B
:104B2000D1F780E0089581E008959C01FC01329660
:104B30009FEF80E04191461751F09F3F19F44111DA
:104B400001C0982F8F5F8630A9F79F3F09F4089521
:104B5000290F311D97FD3A95F90162830895FC01F3
:104B6000329608962191261303C0DF0111971C92FB
:104B7000E817F907B9F708950C9495250C94AF251B
:104B8000029626E0FC0111922A95E9F7089508950E
:104B900008950C94C82580919606843061F10E9496
:104BA000C92580E00E94B30581E00E94061510929D
:104BB000510488E190E020E40FB6F894A895809322
:104BC00060000FBE2093600083B7817F846083BF45
:104BD00083B7816083BF7894889583B78E7F83BFC6
:104BE0000FB6F894A895809160008861809360006A
:104BF000109260000FBE08950895CF930E94C725BC
:104C00000E9484080E94FC25C0E08C2F0E94A70708
:104C1000811105C0CF5FCC30C1F7CF91089581E0FD
:104C2000FCCF08950C9411260E94A81F0E94AF1B70
:104C30000E94B30580E00E9406150C9412261F9274
:104C40001FB61F9211248F939F93AF93BF938091B0
:104C50005104811113C080919D0590919E05A091F2
:104C60009F05B091A0054196A11DB11D80939D05A2
:104C700090939E05A0939F05B093A005BF91AF911F
:104C80009F918F911F901FBE1F90189582E084BD49
:104C900093E095BD9AEF97BD80936E0008952FB76E
:104CA000F89480919D0590919E05A0919F05B091EB
:104CB000A0052FBF08952FB7F89460919D057091BE
:104CC0009E0580919F059091A0052FBF08959C019E
:104CD0004FB7F89480919D0590919E05A0919F05F6
:104CE000B091A0054FBF821B930B0895CF92DF9226
:104CF000EF92FF922FB7F894C0909D05D0909E053B
:104D0000E0909F05F090A0052FBFA7019601261BFC
:104D1000370B480B590BCA01B901FF90EF90DF9098
:104D2000CF90089578941F921FB61F9211248F93ED
:104D30009F93AF93BF9380919D0590919E05A09105
:104D40009F05B091A0050196A11DB11D80939D0501
:104D500090939E05A0939F05B093A005BF91AF913E
:104D60009F918F911F901FBE1F9018951092A105C3
:104D70001092A2051092A3051092A4050895CF9257
:104D8000DF92EF92FF926B017C010E943D0981113D
:104D90000EC00E945B26C61AD70AE80AF90AC0921A
:104DA000A105D092A205E092A305F092A405FF9080
:104DB000EF90DF90CF9008950F931F930E943D09CD
:104DC000882321F01F910F910C945B260E945B2693
:104DD0000091A1051091A2052091A3053091A40591
:104DE000600F711F821F931F1F910F910895CF9223
:104DF000DF92EF92FF926B017C010E943D098823B4
:104E000041F0C701B601FF90EF90DF90CF900C9476
:104E100076260E94DC266C197D098E099F09FF9079
:104E2000EF90DF90CF90089587E797E79093010880
:104E30008093000888E19AE00FB6F894A8958093D3
:104E400060000FBE90936000FFCF90930B038093A0
:104E50000A030895881F8827881F089591E0883FD6
:104E600008F490E0892F0895982F907F903BE9F007
:104E700040F49039D1F0903AC1F09038B1F080E030
:104E80000895903D19F020F4903CC9F782E0089510
:104E9000903E59F0903F99F7815F8F3080F7E82F6F
:104EA000F0E0E650FD4F8081089583E008950F9370
:104EB000022F0F77242F2F776F70462F406BDC0166
:104EC000ED91FC9163E070E009950F9108950F93C7
:104ED000022F0F77242F2F776F70462F4069DC0148
:104EE000ED91FC9163E070E009950F9108950F93A7
:104EF000022F0F77242F2F776F70462F4068DC0129
:104F0000ED91FC9163E070E009950F9108950F9386
:104F10001F93411520E2520744F49A01305E411577
:104F2000504E2CF430E020E002C02FEF3FE3890127
:104F3000000F012F001F110B11952F776F70462F57
:104F4000406EDC01ED91FC9163E070E009951F91EA
:104F50000F910895FC01738362830895FC01758F9E
:104F6000648F0895CF93DF93EC011DA21FA21EA2B0
:104F7000BC01685D7F4F40EC88519F4F0E94BD2966
:104F80001B821A821D821C821F821E82198618862D
:104F90001B861A861D861C861F861E86198A188AFD
:104FA0001B8A1A8A1D8A1C8A1F8A1E8A198E188ECD
:104FB0001B8E1A8E1D8E1C8E1F8E1E8E19A218A27D
:104FC000DF91CF910895EF92FF920F931F93CF93AC
:104FD000DF93EA018A01060F111D88519F4F7C0162
:104FE000C017D10739F4DF91CF911F910F91FF9036
:104FF000EF9008956991C7010E94C429F1CFFC0187
:10500000718360830895FC0171A360A30895AF923A
:10501000BF92CF92DF92EF92FF920F931F93CF93A5
:10502000DF9300D00F92CDB7DEB77C016B01142F58
:10503000B22EA02EDC0195968C9195978430A9F51F
:105040005A96ED91FC913097E9F1CB01019763E01D
:1050500070E00E944932CB01880F991F860F971F7D
:105060004983BA820B834C2D481B9E012F5F3F4F13
:10507000BC01C7010995D7015E96ED91FC9130976F
:1050800031F00A2D2B2D412FB601C70109950F9044
:105090000F900F90DF91CF911F910F91FF90EF90A4
:1050A000DF90CF90BF90AF9008956230710509F402
:1050B00055C06330710599F06130710509F481C004
:1050C000D12CC12CD7015C96ED91FC91309799F2CF
:1050D0000A2D2B2D412FB601C7010995CCCF842F66
:1050E000807F803A11F148F48038D1F0803951F74F
:1050F000D7011496ED91FC910AC0803ED9F0803F13
:10510000F1F0803BF9F6D7011296ED91FC913097C2
:10511000C9F2123FE9F02A2D4B2D612F6F701BC091
:10512000D7011696ED91FC91F2CFD7011896ED912B
:10513000FC91EDCFD7011A96ED91FC91E8CF423F5B
:1051400009F6D7011C96ED91FC91309709F4BACF7E
:105150002A2D4B2D62EFC70109958DCF842F807FBB
:10516000803DB1F0803FC9F0803C09F0ABCFD70162
:105170001E96ED91FC91309709F4A4CF812F8D7F7D
:105180004B2D612F6F70813F89F0C701099573CF57
:10519000D7015096ED91FC91EECF433F51F4D701EA
:1051A0005296ED91FC91309709F48CCF4B2D612FE5
:1051B000ECCF413F09F086CFD7015496ED91FC9199
:1051C000F2CF842F0E942E27882359F0D7015696BC
:1051D000ED91FC91309709F475CF612FC7010995C6
:1051E0004ACF163F09F06ECFD7015896ED91FC914A
:1051F000F1CFFF920F931F93CF93DF93EC01162F04
:10520000862F0E942E27882391F0FDA081E08DA398
:1052100000E020E0412F61E070E0CE010E9407280D
:10522000FDA2DF91CF911F910F91FF900895812FE3
:105230000E942A274DA1882309F443C0443029F055
:105240001AA381E090E09FA38EA3812F0E943427B0
:10525000813051F08823A9F0823089F0833079F0D1
:105260001DA21FA21EA2DDCF8DA300E020E0412FD2
:1052700061E070E0CE010E9407281DA2D2CF8DA36D
:10528000D0CF103FB1F0173F59F72EA13FA1C90170
:1052900063E070E00E944932FE01E80FF91F12A39B
:1052A000B9016F5F7F4F7FA36EA30CA12BA14AA111
:1052B000E1CF84E08DA31AA381E090E09FA38EA3A9
:1052C000B0CF442309F4ADCF2EA13FA1C90163E0C3
:1052D00070E00E944932FE01E80FF91F12A3B901E4
:1052E0006F5F7F4F7FA36EA38130910569F00297B6
:1052F00009F097CF0CA12BA14AA1CE010E9407284B
:105300008DA18430C9F68DCF00E0423009F089CFFD
:10531000F2CFCF92DF92EF92FF920F931F93CF9332
:10532000DF93EC01E8A1F9A1309709F009956E012E
:1053300088EEC80ED11CC6010E94F32910E000E0DF
:10534000E82EF12C0E151F0548F0DF91CF911F912B
:105350000F91FF90EF90DF90CF90089560E0C6012D
:105360000E94072A682FCE010E94F92861E0C60139
:105370000E94172A0F5F1F4FE5CFFC014283748301
:1053800063831182108208951F93CF93DF93EC0102
:10539000162F0E942E2A482F298130E0C90101963C
:1053A0006A8170E00E945D3258815817190641F4F5
:1053B000842F0E94312A80E0DF91CF911F910895C0
:1053C0008B819C81280F391FF9011083898190E01E
:1053D00001966A8170E00E945D328983842F0E9469
:1053E000312A81E0E9CFCF93DF93EC010E942E2A8E
:1053F00099812881921740F0C92FC21B0E94312A3F
:105400008C2FDF91CF910895CA819C0FF5CFFC01BD
:105410008081860F9927991F628170E00E945D321A
:1054200023813481280F391FF901808108951F934A
:10543000CF93DF93EC01162F0E942E2A282F88810C
:10544000810F9927991F6A8170E00E945D328883DD
:10545000822FDF91CF911F910C94312A8FB7F8944E
:1054600008958FBF0895089508950F931F93CF93C4
:10547000DF9300D000D000D00F92CDB7DEB78C0103
:10548000CE0101960E94932C81110BC027960FB676
:10549000F894DEBF0FBECDBFDF91CF911F910F916A
:1054A00008958A810E9434279A819D839B819E83DF
:1054B0009C819F8381110AC08981843079F0873073
:1054C00069F0863069F08530D9F681E0AE014B5F36
:1054D0005F4F682FC8010E94E327D2CF83E0F6CF49
:1054E00082E0F4CFDF92EF92FF920F931F93CF935E
:1054F000DF9300D000D0CDB7DEB77B01142FD22EC2
:105500004A832B830C83842F0E943427811129C066
:1055100082E0E816F10401F183E0E816F10439F0C5
:10552000EA94EF2869F485E0173F21F404C087E08E
:10553000073F09F084E08983CE0101960E948E2CFA
:105540000F900F900F900F90DF91CF911F910F91BF
:10555000FF90EF90DF90089587EFD812EBCF86E0B1
:10556000EACF12951F701983E7CF0E94660985EA7A
:1055700095E00E94B22762E77AE285EA95E00E9410
:10558000FF2765E37AE285EA95E00E94032863E35A
:105590007AE285EA95E00E94AE2764E37AE285EA42
:1055A00095E00C94AA279B01409196064430C1F4E3
:1055B000FC0191819F709093E90050E040E064E02D
:1055C00070E0C9010E94572D81110BC09091E80035
:1055D00095FD07C09091E8009E779093E8000895AC
:1055E00082E0089520919606243091F4FC01818197
:1055F0008F708093E9009091F3008091F200892BE5
:1056000049F08091E8008E778093E8000C94052F94
:1056100082E0089580E00895FC0180919606843030
:1056200059F491819F709093E9008091E80080FF88
:1056300003C0CF010C94F22A08959B014091960675
:10564000443011F080E00895FC0196819F709093A2
:10565000E9008091E80082FFF5CF8091E80085FFA6
:10566000F1CF50E040E064E070E0C9010E94A62D57
:105670008091E80085FD05C08091E8008B778093DC
:10568000E80081E0089580915A0408950895CF9329
:10569000DF9300D00F92CDB7DEB79091960694308D
:1056A00019F589837B836A8382E08093E9008FEF19
:1056B0009091E800815095FD06C095ED9A95F1F71F
:1056C00000008111F5CF8091E80085FF0DC050E00A
:1056D00040E063E070E0CE0101960E94572D80917A
:1056E000E8008E778093E8000F900F900F90DF9185
:1056F000CF910895BC0184E00C94472BBC0183E05A
:105700000C94472BCF93DF93EC0181E08093E90069
:105710008FEF9091E800815095FD06C095ED9A9528
:10572000F1F700008111F5CF8091E80085FF14C0EA
:1057300050E040E068E070E0CE010E94572D80917B
:10574000E8008E778093E80088E0FE01A2E5B4E0EF
:1057500001900D928A95E1F7DF91CF9108958091A4
:105760009506811109C00E94362F0E94932F8091C7
:10577000E20084608093E2000895109295060895F7
:1057800008950895089542E061EC81E00E94B22EF0
:1057900042E261EC82E00E94B22E42E361E883E0E3
:1057A0000E94B22E42E361E884E00C94B22E809114
:1057B0009806833009F45FC030F48130C1F1823043
:1057C00009F49BC008958A3009F487C08B3009F42E
:1057D0006DC0893009F04EC080919706813209F082
:1057E00049C080919B0690919C06029708F042C0A8
:1057F0008091E800877F8093E8008091E80082FF35
:1058000035C09091F3008091F200029729F48091C5
:10581000F1008B7F813021F48091F10080935A0454
:105820008091E8008B778093E8000C94E62E8091BD
:105830009706813AF9F48091E800877F8093E80029
:1058400080919B0690919C06892B61F468E082E52B
:1058500094E070E00E94F52D8091E8008B778093B2
:10586000E800089560E090E080E0F3CF8091960634
:105870008111C3CF089580919706813AD9F780911D
:105880009B0690919C06892BA9F78091E800877F61
:105890008093E8008091E80080FFFCCF8091610256
:1058A0008093F1008091E8008E77BDCF80919706BC
:1058B000813201F780919B0690919C06892BD1F64D
:1058C0008091E800877F8093E8000E94E62E809117
:1058D0009906809361020C94A81F809197068132EB
:1058E00049F68091E800877F8093E8000E94E62EC9
:1058F00080919A0680935B04089580919706813A7F
:1059000009F0B8CF8091E800877F8093E80080910C
:10591000E80080FFFCCF80915B04C2CFBC018BE428
:1059200092E00C94D32ABC018BE492E00C941D2BE2
:105930000E94B52A84B7877F84BF0FB6F894A895D4
:1059400080916000886180936000109260000FBEBB
:1059500080E890E00FB6F894809361009093610026
:105960000FBE0E94251C0E94362F0E94932F80910B
:10597000E20084608093E20078940E941C320E94CE
:10598000371C87E592E00E94AA1B8091960685301D
:10599000B9F00E94411C8BE492E00E940C2B0E9403
:1059A000331CF3CF0E94CB2580919406882341F0CD
:1059B0000E94FD25882321F00E94412D0E94A81FEE
:1059C00080919606853071F30E941426E2CF0C94E4
:1059D000E92C292F33272330310519F168F42130C0
:1059E000310509F444C02230310509F445C090E086
:1059F00080E030E020E025C02132310549F122323B
:105A00003105A9F780E490E021EB36E061157105DE
:105A1000C1F082E390E02FE736E06130710589F054
:105A2000E6CF99278130910581F0009729F0029700
:105A3000F1F6ECE9F5E002C0EAECF5E0849190E0E3
:105A40009F01FA01318320830895EAEBF5E0F6CF58
:105A500089E090E020EE35E06115710591F389E071
:105A600090E029EF35E06130710559F3C0CF82E154
:105A700090E02DE636E0E5CF8FE990E02EEC35E0C2
:105A8000E0CF80E189BD82E189BD09B400FEFDCF90
:105A90008091D8008F7D8093D8008091E000826053
:105AA0008093E0008091E00081FDFCCF0895AF92EB
:105AB000BF92CF92DF92FF920F931F93CF93DF930A
:105AC0006C01EB018A010E94052FF82E811123C081
:105AD0000115110539F0F80180819181C81BD90B9E
