:100000000C94FD010C9444020C9444020C94C522FF
:100010000C9444020C9444020C9444020C94440248
:100020000C9444020C9444020C94D21C0C948E1C2C
:100030000C94CD1D0C9444020C9444020C94440284
:100040000C9444020C9444020C9444020C94440218
:100050000C9444020C94A91D0C9444020C94440288
:100060000C9444020C9444020C9444020C944402F8
:100070000C9444020C9444020C9444020C944402E8
:100080000C9444020C9444020C9444020C944402D8
:100090000C9444020C9444020C9444020C944402C8
:1000A0000C9444020C9444020C9444023D5C435C66
:1000B000455C485C4C5C5B5C00003F5C445C4E5CB7
:1000C0004A5C585C515C405C495C505C535C575CDA
:1000D000475C425C01534B5C4F5C525C555C595C25
:1000E000545C415C465C5A5C5C5C565C4D5C3E5CBE
:1000F0003B5C00000000000000000000AA00A90016
:100100004F5C505C525C535C545C765C0153515CB8
:10011000585C575C555C745C735C0151565C5D5C6B
:10012000605C5A5C715C725CA842645C5B5C595CAC
:10013000695C6F5C705C665C625C5E5C5C5C6B5CAA
:100140006E5C6A5C6C5C655C615C5F5C6D5C635C96
:10015000675C685C3F5C435C455C4A5C565C5A5C2F
:1001600000003D5C495C515C535C485C475C415C11
:10017000425C4E5C525C555C585C4D5C0153445C87
:100180004B5C505C545C575C4F5C465C4B5C595C10
:100190005B5C5E5C4C5C3C5C405C00000000000012
:1001A00000000000AA00A9004F5C505C525C555C46
:1001B000535C745C0153515C585C595C545C725CD8
:1001C000735C0151565C575C655C5B5C695C715C9F
:1001D000A842645C5C5C5A5C5D5C6B5C705C625CFD
:1001E000635C605C5E5C5F5C6E5C6C5C6F5C675CFF
:1001F000635C615C6D5C665C685C6A5C000000521C
:1002000000000000000000000000000000000000EE
:1002100000000000000000000000000000000000DE
:1002200000000000010000000000000000000000CD
:1002300000000000000000000000000000000000BE
:1002400000000000000000000000000000000000AE
:1002500000000000000000000000815C01000000C0
:100260000000000000000000825C010000000000AF
:100270000000000000009D5C010000000000000084
:10028000000000009E5C0000000000000000000074
:10029000000000000000000000000000000000005E
:1002A0000000000005010980A101850319012AB79A
:1002B00000150126B700950175108100C0050C09D5
:1002C00001A101850419012AA002150126A00295A9
:1002D0000175108100C005010906A101050719E09B
:1002E00029E715002501950875018102950175081A
:1002F00081010507190029FF150026FF00950675E5
:1003000008810005081901290595057501910295D7
:100310000175039101C009029F00040100A0FA09C0
:100320000400000103010100092111010001224024
:10033000000705810308000A090401000103000009
:10034000000921110100012232000705820320006B
:100350000A080B0202010100000904020000010169
:10036000000009240100010900010309040300023F
:1003700001030000072401000141000624020101DD
:100380000006240202020009240301030102010005
:1003900009240302040101010009050402400005CB
:1003A0000000052501010109058302400005000048
:1003B00005250101031201000200000008EDFEB551
:1003C000F40100010200011C03620061006E006480
:1003D000006F006D0069006E00650064006F006EC4
:1003E00000690000000E03330061007200610068C4
:1003F0000074000000040309040011241FBECFEFA5
:10040000DAE0DEBFCDBF04B603FE27C0809104044E
:1004100090910504A0910604B09107048730904B99
:10042000A740B04BD1F4109204041092050410922E
:1004300006041092070414BE84B7877F84BF0FB6EA
:10044000F894A89580916000886180936000109274
:1004500060000FBEE0E0F8E3099511E0A0E0B1E034
:10046000E6EDF9E402C005900D92AA3BB107D9F779
:1004700024E0AAEBB1E001C01D92A430B207E1F77D
:100480000E94F41D0C94C5240C9400000F931F933C
:100490009B01305E8901000F012F001F110B119588
:1004A0002F77482F406EE0911703F091180363E017
:1004B00070E087E193E009951F910F9108950F93E4
:1004C000262F042F0F77482F406BE0911703F091F0
:1004D000180363E070E087E193E009950F910895B8
:1004E000CF92DF92EF92FF920F931F93CF93DF9300
:1004F00000D00F92CDB7DEB77C01162FD42EC22EBE
:1005000080913C038430B9F5E0913103F0913203DE
:10051000309709F440C0C701019763E070E00E9482
:100520003F24CB01880F991F860F971F19834A8399
:10053000CB824E2D481B9E012F5F3F4FBC0187E1B0
:1005400093E00995E0913503F0913603309739F047
:100550000C2D2D2D412FB70187E193E009950F90C8
:100560000F900F90DF91CF911F910F91FF90EF901F
:10057000DF90CF90089582E0E816F10409F45AC0A4
:1005800083E0E816F104A9F081E0E816F10409F42B
:1005900084C0F12CE12CE0913303F09134033097C7
:1005A00089F20C2D2D2D412FB70187E193E009959C
:1005B000C9CF862F807F803A11F188F48038D1F03E
:1005C000E0911B03F0911C03803929F7309719F350
:1005D000123F49F12C2D4D2D612F6F7027C0803EA9
:1005E00099F0803FB1F0E0911903F0911A03803B3C
:1005F00091F6ECCFE0911D03F0911E03E7CFE0915F
:100600001F03F0912003E2CFE0912103F091220338
:10061000DDCF623F09F0BFCFE0912303F0912403C7
:10062000309709F4B8CF2C2D4D2D62EF87E193E080
:10063000099588CF862F807F803DB9F0803FD1F02B
:10064000E0912503F0912603803C09F0A4CF309778
:1006500009F4A1CF812F8D7F4D2D612F6F70813FC8
:10066000C9F087E193E009956DCFE0912703F09100
:100670002803EDCFE0912903F0912A03633F39F07D
:10068000613F09F088CFE0912B03F0912C03309764
:1006900009F481CF4D2D612FE4CFE0912D03F0912E
:1006A0002E03683F38F4663F09F075CFE0912F03C1
:1006B000F0913003309709F46ECF612F87E193E01A
:1006C000099540CFE8EDF0E080818E7F8083109225
:1006D000E2001092DA001092E100A0EEB0E08C91FE
:1006E00081608C9380818F77808319BCA7EDB0E007
:1006F0008C918E7F8C9380818F7E80831092FD02FF
:1007000008952091E4003091E50095E6A90120913B
:10071000EC00822F817020FF06C08091E80080FFEE
:1007200006C080E008952091E80022FD1AC0809163
:100730000A03882389F0853089F08091EB0085FDDC
:100740000FC02091E4003091E50042175307F9F201
:100750009150E1F684E0089582E0089583E00895E1
:1007600081E00895EF92FF920F931F93CF937C0146
:100770008B010E948103C82F811117C08091E8006E
:1007800085FD0BC08091E8008E778093E8000E9481
:100790008103882399F3C82F08C0F70181917F0155
:1007A0008093F1000150110949F78C2FCF911F91CF
:1007B0000F91FF90EF90089580910C0387FF13C075
:1007C0008091E80082FF06C08091E8008B778093DB
:1007D000E80004C080910A038111F2CF089580914E
:1007E0000A038823D9F38091E80080FFF8CF809135
:1007F000E8008E77ECCF982F9093E900242F762F86
:1008000050E0891731F07091EC002091ED0050918B
:10081000F00021FD07C09F5F973071F78093E900DA
:1008200081E008953091EB003E7F3093EB003091F2
:10083000ED003D7F3093ED003091EB00316030935F
:10084000EB007093EC002093ED005093F0002091AA
:10085000EE0027FDE0CF80E00895CF92DF92EF9287
:10086000FF920F931F93CF93DF93C8EDD0E0888161
:100870008F7E8883E7EDF0E080818160808384E073
:1008800082BF81E08093FD0288818E7F888302EEA3
:1008900010E0F80110821092DA0081EEC82ED12CFF
:1008A000F601108288818F778883888180688883A9
:1008B00088818F7D888319BC10920A0310920B03E4
:1008C000109209031092080390EEE92EF12CF70123
:1008D00080818B7F808388818160888342E060E0B3
:1008E00080E00E94FB03F60180818E7F8083F80107
:1008F000808181608083808188608083F70180812E
:100900008E7F8083888180618883DF91CF911F9162
:100910000F91FF90EF90DF90CF900895FC018091B0
:1009200012039091130386179707A0F061157105C4
:1009300029F49091E8009E779093E80090E061158B
:10094000710551F4911108C08091E80082FF34C014
:1009500080E00895BC01F2CF80910A038823C1F1A1
:100960008530C1F18091E80083FD30C08091E800BE
:1009700082FDEACF8091E80080FFE1CF8091F30013
:100980002091F200382F6115710519F028303105DA
:1009900058F091E02830310509F090E02091E8000E
:1009A0002E772093E800CBCF81918093F1006150A6
:1009B00071092F5F3F4FE7CF80910A03882341F0F1
:1009C000853041F08091E80083FFBECF81E008953B
:1009D00082E0089583E0089508958091FF020895CC
:1009E00008950895982F907F903BE9F040F4903956
:1009F000D1F0903AC1F09038B1F080E00895903D88
:100A000019F020F4903CC9F782E00895903E59F027
:100A1000903F99F7815F8F3080F7E82FF0E0E6553F
:100A2000FE4F8081089583E00895CF92DF92EF9288
:100A3000FF920F931F93CF93DF9300D000D000D08D
:100A40000F92CDB7DEB78C0108511F4F80910A037A
:100A5000843009F087C0809145018F708093E90050
:100A60008091E80082FF7EC08091E80085FF7AC017
:100A70000E948103811113C084E0E82EF12CCE0185
:100A800001966C018091E80085FD61C08091E800CD
:100A90008B778093E8000E948103882399F38091EB
:100AA000E80085FD05C08091E8008B778093E80021
:100AB000FA808F2D0E94F204282FFD828B818E8375
:100AC0008C818F8321110BC08981843041F1873063
:100AD00031F1863031F121E0853009F0B7CF30E0D7
:100AE000E5E0F0E0EC0FFD1FE30FF11DF0804FB7E4
:100AF000F894D8011196EC911197F0E0CF0101968E
:100B000012966C9170E00E945324D8015C915817A2
:100B1000190649F44FBF3F5F321710F397CF23E018
:100B2000DECF22E0DCCF13968D919C911497E80FD5
:100B3000F91FF08211968C91119790E00196129610
:100B40006C9170E00E945324F8018183E3CF80917F
:100B5000F100D6018D936D01B1E0EB1AF10809F0B7
:100B600091CF9DCF27960FB6F894DEBF0FBECDBFB5
:100B7000DF91CF911F910F91FF90EF90DF90CF9079
:100B80000895DF92EF92FF920F931F93CF93DF931D
:100B900000D000D0CDB7DEB77B01142FD22E4A8310
:100BA0002B830C83842F0E94F204811141C082E0C8
:100BB000E816F104C1F183E0E816F10439F0EA9493
:100BC000EF2829F5173F29F485E004C087E0073FA7
:100BD00009F084E0898380910A038430C1F4809114
:100BE00040018F708093E90050E040E064E070E0E5
:100BF000CE0101960E94B203811109C08091E800E4
:100C000085FD05C08091E8008E778093E8000F9005
:100C10000F900F900F90DF91CF911F910F91FF9048
:100C2000EF90DF90089587EFD812D3CF86E0D2CF30
:100C300012951F701983CFCF9C014FB7F894809104
:100C4000F6029091F702A091F802B091F9024FBF1D
:100C5000821B930B08952FB7F8946091F602709160
:100C6000F7028091F8029091F9022FBF08952FB7F3
:100C7000F8948091F6029091F702A091F802B09159
:100C8000F9022FBF08959C01FC0132969FEF80E08E
:100C90004191461751F09F3F19F4411101C0982F1F
:100CA0008F5F8630A9F79F3F09F40895290F311D02
:100CB00097FD3A95F901628308952091F3023091EE
:100CC000F4022817390771F09093F4028093F3022D
:100CD000E091F102F091F202309721F00084F18569
:100CE000E02D099408952091EF023091F002281729
:100CF000390771F09093F0028093EF02E091F102D6
:100D0000F091F202309721F00680F781E02D0994EE
:100D10000895FC01680F791F8FEF91E321918227DD
:100D200028E030E087FF09C0880F8927215031096A
:100D3000C9F7E617F70791F70895880FF7CFEF92F5
:100D4000FF920F93CF93FB018F3A2CE5920708F0A7
:100D500085C08F395CE5950708F0A0C180396CE546
:100D6000960750F583387CE5970708F052C1813823
:100D70002CE5920760F487375CE5950708F02FC1F2
:100D80008F326CE5960708F0DBC0C1E022C18138E4
:100D90007CE5970709F430C182389C45B1F7828120
:100DA000882309F4E7C08091EB02982F9F70993057
:100DB00008F0E0C09F5F2BC18D395CE59507A0F579
:100DC00082396CE5960708F042C180397CE59707C7
:100DD00009F42BC181399C45C1F68281882309F42D
:100DE000C9C02091EB02822F8595859585958595C3
:100DF00086300CF0BFC091E0980F9295907F95954A
:100E0000959595959595392F3295307F2F70232B99
:100E10002093EB0218160CF0ADC097FFABC0829583
:100E2000807F922F9F70E4C08D395CE5950709F4AF
:100E30001CC18E399C4509F0A8CF8281882309F412
:100E400099C08091EC02982F9F779F3709F492C048
:100E5000933708F021C1935F9F7705C1853B7CE5FF
:100E6000970709F473C1B8F5813B5CE5950709F470
:100E700045C1D8F48F3A7CE5970709F421C1803B3E
:100E80009C4509F082CF8281882309F473C02091A8
:100E9000EC02322F331F3327331F9091ED02892F3D
:100EA0008770880F832B8F5F1CC13091EC022091DB
:100EB000ED024281833B5CE5950709F43DC108F4EE
:100EC0002EC141114FE7832F881F8827881F277065
:100ED000220F62E42DC1883B7CE5970709F447C1E6
:100EE00080F4863B5CE5950709F430C1873B9C455F
:100EF00009F04BCF8281811138C18FEF8093A2021C
:100F000039C08A3B7CE5970709F467C108F450C1F2
:100F10008B3B9C4509F039CFC2818091EC02982F20
:100F2000991F9927991F8091ED028770880F892B4F
:100F3000CC2309F462C16FEF7FE10E9446021AC020
:100F40000091EC02202F221F2227221F4091ED0248
:100F50004770440F422B0F77C28121ED280F30E0FC
:100F6000B9016D557D4F7B01FB012081CC2309F137
:100F70002F3F11F0C0E02DC09091EB02C92FC59515
:100F8000C595C595C595CF529F70FCE09F9FC00D3C
:100F90001124C80F2C2F2F774069E0911703F0918F
:100FA000180363E070E087E193E00995F701C083DF
:100FB000E1CF2F3F59F02F774068E0911703F09170
:100FC000180363E070E087E193E009958FEFF70184
:100FD00080838C2FCF910F91FF90EF900895228105
:100FE000222341F28757982F9F708091EB02807FD8
:100FF000892B8093EB02BECF8281882309F4BACF7C
:101000008091EB02982F9F7009F4B4CF915F9F708D
:10101000EECF2281222309F4ADCF8958982F9295E3
:10102000907F8091EB028F70E3CF8281882309F457
:10103000A1CF8091EB02982F9595959595959595D3
:101040009B3F0CF497CF915F9295907FECCF2281DC
:10105000222309F48FCF82599CE0899F902D11247F
:101060009F778091EC02807815C08281882309F4F3
:1010700081CF8091EC02982F9F7709F47BCF807805
:101080009F3721F485678093EC0274CF9D30D8F3AD
:101090009D509F77892BF7CF8F67F5CF2281222331
:1010A00009F468CF8F599091EC0280FB97F99093E7
:1010B000EC02869587709091ED02987F892B75C020
:1010C0008281882309F456CF2091EC02322F331FFE
:1010D0003327331F9091ED02892F8770880F832B60
:1010E000815F382F3F7080FB27F92093EC02832F1C
:1010F0008695987F982B9093ED023CCF8281882330
:1011000009F438CF9091EC02991F9927991F80918B
:10111000ED028770880F40E06BE7892B0AC0411110
:101120004FE7832F881F8827881F2770220F60E4CE
:10113000822B0E945F021ECF41114FE7832F881F31
:101140008827881F2770220F61E4F2CF828140E058
:1011500081114FE79091EC02991F9927991F809177
:10116000ED028770880F63E4D8CF81E0C7CE82811B
:10117000882309F4FFCE9091ED02292F269526951C
:1011800026952F7081E0820F8F70880F880F880F4F
:101190009778892B8093ED02982F987709F0EACE03
:1011A000220F220F220F8778822B8093ED02E2CE4E
:1011B0008281882309F4DECE8091ED02982F987702
:1011C00009F4D8CE982F969596959695915F9F7035
:1011D000990F990F990F877871CFC2818091EC0296
:1011E000982F991F9927991F8091ED028770880F7A
:1011F000892B60E070EEC111A0CE70E060E00E942B
:101200004602E7CE80E0089578940895F894E82F98
:10121000E295EF70F0E031A1282F2F7081E090E08F
:1012200001C0880F2A95EAF7982F9095932391A3F0
:1012300092A1892B82A30C94040990916F0292FFD2
:1012400006C0282F28712830F9F4877F846093FF27
:1012500006C0282F28712831F1F4877E84612091FF
:10126000700220FF06C0382F38713830D9F4877FDC
:10127000816021FF06C0282F28712831D1F4877E94
:10128000816194FD877E0895282F24712430F9F61A
:101290008B7F8860DCCF282F2471243101F78B7E6F
:1012A0008861DDCF382F3171313019F78E7F88603A
:1012B000E0CF282F2171213121F78E7E8861E1CF87
:1012C000CF93DF93EC018238910581F1B0F5813342
:1012D000910509F491C020F58932910509F485C082
:1012E0008A9709F490C0C11521E5D20708F0AAC079
:1012F000C11530E5D30708F0F2C0CF3BD10508F0A7
:1013000089C0C83AD10508F0DFC0C53AD10508F058
:10131000D3C0C430D105F8F4C130D105E1F040C0EC
:101320008533910509F45AC0C997E9F680916F0297
:10133000837089F0C0EED0E00EC0833E910599F134
:1013400070F4803E910501F1823E910561F6809135
:101350006F0282FD21C0CE01DF91CF910895863EBC
:10136000910561F1873E910571F1843E910509F087
:10137000BACF8091700281FFEECF80916F02C7EEED
:10138000D0E084FD0DC0E7CF80916F0280FDF7C0F3
:101390009091700290FFDFCFC3EED0E084FFDBCFEF
:1013A000D0E0C0E0D8CF80916F0282FDEBC0909179
:1013B000700290FDBFCF84FFCECFF2CF80916F023D
:1013C00083FDDDCFC8CF80916F0283FDDEC0909199
:1013D000700291FFF0CFC4EED0E0BDCF80916F02DC
:1013E00085FFB9CFC9E2D0E0B6CF80916F0285FF0B
:1013F000B2CFC5E3D0E0AFCF80916F0286FFABCF15
:10140000CAE2D0E0A8CF80916F0286FFA4CFC1E3EB
:10141000D0E0A1CFC11540E2D40760F4C11581E04E
:10142000D80708F098CFCE01805E9109089708F49C
:1014300092CFB6CFC11590E4D90708F4B1CFDF70D1
:10144000D06A89CFC11524E5D20778F4C11533E5F8
:10145000D30708F072C0C11542E5D40708F05CC09C
:10146000DC2FCC27C16FD06A76CFC1158AE5D807AB
:1014700078F4C11599E5D90708F073C0C11528E5BE
:10148000D20708F48DCFDC2FCC27C06FD06A63CF92
:10149000CE0190568115904208F082CF8D2F8F712A
:1014A0000E941D0990E0982F882788279F719C0132
:1014B0002C2BE901D0624FCFC55AD0E0CC5ADE4F79
:1014C000C881D0E0D06447CFC85AD0E0CC0FDD1F30
:1014D000C95ADE4F0990D881C02DD4643CCFCE01CB
:1014E00064E0969587956A95E1F783702C2F269591
:1014F0002695237040E2249F90011124382B8C2FD5
:101500008370C1E0D0E002C0CC0FDD1F8A95E2F706
:10151000C22BD32BDC681FCFCE018370992721E02B
:1015200030E002C0220F331F8A95E2F7C695C695B8
:1015300080E2C89FE0011124EBCFCE018370992790
:1015400021E030E002C0220F331F8A95E2F7C695F2
:10155000C69590E2C99FE0011124C22BD32BDA6813
:10156000FACE8C2F8F700E941D0934E0D695C79556
:101570003A95E1F7CF709C2FEC01D069ECCEC9E32E
:10158000D0E0E9CEC2EED0E0E6CEC6EED0E0E3CECB
:101590000C942B068091370290913602892B909102
:1015A0003502892B8093BC01E091F102F091F202A7
:1015B000309731F00280F381E02D8CEB91E00994BB
:1015C00008958091340290910302981301C0089508
:1015D0008F5F8770FACFAF92BF92CF92DF92EF9278
:1015E000FF920F931F93CF93DF93C0906B02D09025
:1015F0006C02E0906D02F0906E02409138025091C2
:10160000390260913A0270913B02C42AD52AE62A37
:10161000F72ACFE1D0E0082F10E027E0929F000DDD
:10162000111D112494E5A92EBC2ED701C6010C2E44
:1016300004C0B695A795979587950A94D2F780FD33
:101640000FC0219788F7B12C8B2DDF91CF911F917F
:101650000F91FF90EF90DF90CF90BF90AF900895E3
:10166000AC9EF001AD9EF00D1124E00FF11FEE0FC6
:10167000FF1FE455FF4F859194910E9460090197E7
:1016800001F3E2CFCF93DF93EC010E94EB0AEC2F42
:10169000F0E097E0D99FE00DF11D112494E5899FBA
:1016A000E00DF11D1124EE0FFF1FE455FF4F859152
:1016B0009491DF91CF910C94600927E0929F800D67
:1016C0001124982F977086958695869525E0829FA0
:1016D000F0011124EA53FE4F50E040E080E02191F8
:1016E00030E0092E02C0369527950A94E2F7217062
:1016F0003327042E01C0220F0A94EAF7822B4F5F92
:101700005F4F4530510559F7089527E0929F800DAE
:101710001124982F977041E001C0440F9A95EAF781
:1017200086958695869595E0899FF0011124EA5368
:10173000FE4F90E080E070E05191DF0111979B0136
:10174000082E02C0369527950A94E2F7217021955C
:101750002527242325272C9301968530910561F7B1
:101760000895FC01808191810E94420B292F2F70E6
:1017700092959F7092509E3078F4E92FF0E0E953F3
:10178000FB4D0C946724803F19F020F4883E20F430
:1017900081E00895843FE1F380E00895883EC0F33E
:1017A000813FD1F7F5CF822F86958695869508954E
:1017B00090E080E00E94730690E080E00E945D0669
:1017C00010923602109235020C94CA0A60936B0292
:1017D00070936C0280936D0290936E020C94D80B00
:1017E0000F931F9341E050E060E070E004C0440FAD
:1017F000551F661F771F8A95D2F7CB01BA016095F6
:1018000070958095909500916B0210916C022091DB
:101810006D0230916E0260237123822393231F9106
:101820000F910C94E60B0F931F9341E050E060E0A2
:1018300070E004C0440F551F661F771F8A95D2F7CA
:1018400080916B0290916C02A0916D02B0916E023A
:101850008A019B01082B192B2A2B3B2BC901B801AC
:101860001F910F910C94E60B60933802709339022C
:1018700080933A0290933B020C94D80B882341F05A
:101880008095909136028923809336020C94CA0A7F
:101890000895882339F090913602982B9093360260
:1018A0000C94CA0A0895882341F0809590913702DC
:1018B0008923809337020C94CA0A0895882339F04B
:1018C00090913702982B909337020C94CA0A08958E
:1018D0008823B1F19CEF980F913A70F4EEEBF1E0B0
:1018E0009191891303C0DF0111971C9241E0E43C00
:1018F000F407B1F70C94CA0A90E2980F983088F474
:10190000877021E030E0A90102C0440F551F8A957D
:10191000E2F7CA01809590913702892380933702BC
:10192000E9CF9BE5980F933020F490E080E00C9491
:101930007306885A873120F490E080E00C945D06AD
:101940000895CF93C82F882309F44EC08CEF8C0FD5
:10195000813AF8F4EEEBF1E084EC91E0DF012D91B7
:10196000C21759F08A179B07D1F76C2F8CEB91E0C7
:101970000E944306CF910C94CA0A2191C21303C05E
:10198000DF0111971C928E179F07B9F70E94CA0AB0
:10199000ECCF80E28C0F883068F4C77021E030E033
:1019A00001C0220FCA95EAF780913702822B8093FB
:1019B0003702E0CFEBE5EC0FE33040F4F0E0EC5A17
:1019C000FE4F808190E0CF910C947306C85AC731C6
:1019D00058F4EC2FF0E0EE0FFF1FE95AFE4F808124
:1019E0009181CF910C945D06CF9108959C013A9519
:1019F00021153F4150F5FC01EE27F170BC0166272F
:101A00007270AC01442754709C012227387094FFF7
:101A10000EC080E1EF2B09F480E0672B09F08062B3
:101A2000452B09F08064232B89F08068089581E0BC
:101A3000EF2B09F480E0672B09F08260452B09F059
:101A40008460232B19F08860089580E008951F9327
:101A5000CF93DF93C62FD42F122FFC0182818823CE
:101A600099F0609316030E943706909315038093B4
:101A70001403C77081E001C0880FCA95EAF7DF91AF
:101A8000CF911F910C945E0C80911603681343C094
:101A900080911403909115030E941C06883C9105C7
:101AA000D0F5CD17C9F080E28C0F883040F4C770B4
:101AB00081E001C0880FCA95EAF70E94530C80E2CA
:101AC0008D0F883048F481E09D2F977001C0880FFA
:101AD0009A95EAF70E945E0C812F0E94A10C8AE081
:101AE00090E0EFE9FFE03197F1F700C000000197C7
:101AF000C1F7812F0E94680C80E28D0F883090F42E
:101B0000D77081E001C0880FDA95EAF7DF91CF91B5
:101B10001F910C94530CC77081E001C0880FCA95C7
:101B2000EAF7F4CFDF91CF911F91089590910A03C6
:101B3000943031F58093FA027093FC026093FB02BB
:101B400082E08093E9008FEF9091E800815095FD4D
:101B500006C095ED9A95F1F700008111F5CF8091BF
:101B6000E80085FF0DC050E040E063E070E08AEFE0
:101B700092E00E94B2038091E8008E778093E800A3
:101B80000895BC0184E00C94960DBC0183E00C9494
:101B9000960DCF93DF93EC0181E08093E9008FEF06
:101BA0009091E800815095FD06C095ED9A95F1F76A
:101BB00000008111F5CF8091E80085FF14C050E04E
:101BC00040E068E070E0CE010E94B2038091E8003E
:101BD0008E778093E80088E0FE01A0E0B3E00190FA
:101BE0000D928A95E1F7DF91CF9108959F92AF9280
:101BF000BF92CF92DF92EF92FF920F931F93CF93FA
:101C0000DF937C015B016A018091650201E010E0D5
:101C10008A3010F40AE010E0C1E0D0E0F894B50199
:101C2000C701F6010995982E0E940409911004C07D
:101C300021960C171D076CF4892DDF91CF911F9110
:101C40000F91FF90EF90DF90CF90BF90AF909F905B
:101C50000895CC9F9001CD9F300D300D112490E060
:101C600080E045E34A95F1F700000196821793075B
:101C7000C1F7D4CF80914502811110C08091D80066
:101C800080618093D8008AE18A95F1F700C0809145
:101C9000D90080FF0AC081E08093450281E09091E5
:101CA0004502913009F080E0089582E0809345027A
:101CB0000E94620310920A03F1CF0E943A0E882319
:101CC00051F0E091F102F091F202309721F0019091
:101CD000F081E02D099480E00895CF92DF92EF9299
:101CE000FF920F931F93CF93DF9300D000D000D0CB
:101CF000CDB7DEB7082F813009F04DC084E0689F72
:101D0000F0011124E45BFE4F1081E280F3808E2D00
:101D1000912F0E94EB0AF701FF2797E0199FE00D32
:101D2000F11D112494E5899FE00DF11D1124EE0FA2
:101D3000FF1FE455FF4FC590D490E9821A838CE2CF
:101D4000C8168CE5D806F0F5760190EEE91AF10890
:101D5000C6010E94F60C182F88E0E816F10418F06E
:101D6000C114D10441F5812F0E945E0C8C2D0E947C
:101D7000A10C8FE39CE90197F1F700C000008C2DC6
:101D80000E94680C812F98E0E916F10410F0CD282C
:101D9000B1F40E94530C81E026960FB6F894DEBF92
:101DA0000FBECDBFDF91CF911F910F91FF90EF90AC
:101DB000DF90CF900895812F0E94490CD7CF0E94C9
:101DC0003E0CE9CF0B83BE016F5F7F4FC6010E94BF
:101DD0009F068FE39CE90197F1F700C000001B828A
:101DE000BE016F5F7F4FC6010E949F06D4CFCF9385
:101DF00084E090E00E948324C82F82E290E00E9459
:101E00008324982F8C2FCF9108950F931F93CF93F6
:101E1000DF9300D000D0CDB7DEB740916102509182
:101E2000620260916302709164022FB7F89480910E
:101E3000F6029091F702A091F802B091F9022FBF3B
:101E4000841B950BA60BB70B84369105A105B10534
:101E500088F10E943A0E882379F10E942B066E5F6A
:101E60007F4F8F4F9F4F69837A838B839C838091B1
:101E70002B0190912C018C5A9D4F40912A0150E0EA
:101E80004530510510F044E050E0BE016F5F7F4FD8
:101E90000E947A2484E090E00E948B23892BD9F45D
:101EA0000E942B066093610270936202809363022A
:101EB0009093640281E010C00E942B06009166029C
:101EC000109167022091680230916902600F711FC2
:101ED000821F931FC4CF80E00F900F900F900F9040
:101EE000DF91CF911F910F9108956F927F928F9202
:101EF0009F92AF92BF92CF92DF92EF92FF920F9399
:101F00001F93CF93DF930F92CDB7DEB7862E5A0182
:101F10006901682E880F7708C3010E948B23892BE3
:101F200009F088C08AE0869DF001879DF00D11249C
:101F3000E050FF4F458150E04115510511F041E05F
:101F400050E08AE0869DF001879DF00D1124E0505D
:101F5000FF4F668177816C5A7D4FCE0101960E94BA
:101F60007A24F50140815181628173812FB7F89401
:101F70008091F6029091F702A091F802B091F902D7
:101F80002FBF841B950BA60BB70B84369105A105BB
:101F9000B10540F4B701C8010E94890699818917EB
:101FA00009F44FC0082C000C9908C4010E948B232F
:101FB000892B91F0B12C8B2D0F90DF91CF911F9138
:101FC0000F91FF90EF90DF90CF90BF90AF909F90D8
:101FD0008F907F906F9008958AE0889DF001899D91
:101FE000F00D1124E050FF4F458150E0E416F50656
:101FF00008F4A7018AE0889DF001899DF00D112465
:10200000E050FF4F668177816C5A7D4FC6010E9478
:102010007A24B701C8010E94890699818913CACF21
:102020000E942B06F5016083718382839383BB2416
:10203000B394C1CFB12CA701B801C6010E947A2484
:10204000BACFBB24B394F7CFCF92DF92EF92FF9237
:102050000F931F93CF93DF930F92CDB7DEB7EE248C
:10206000E394F12C0CE512E09E012F5F3F4F40E519
:1020700052E063E082E00E94750F082F882321F16F
:10208000C0907F028C2D90E09C0124573D4F790138
:102090001981F9018081181BD12E80E00AC0DA94E1
:1020A000F70180818F5F808360E08C2D0E946D0E30
:1020B000802F1D14A4F3912F17FD90E0191B11110F
:1020C0000EC081110E94C80A802F0F90DF91CF911E
:1020D0001F910F91FF90EF90DF90CF9008951F5FB9
:1020E000F70180818150808361E08C2D0E946D0E0C
:1020F000802FE5CFCF92DF92EF92FF920F931F9345
:10210000CF93DF9300D000D000D0CDB7DEB76B0106
:1021100086E0E82EF12C05E512E09E012F5F3F4F8F
:102120004CE452E061E080E00E94750F882349F0A2
:1021300096E0FE013196A6E4B2E001900D929A95E8
:10214000E1F796E0E6E4F2E0D60101900D929A956F
:10215000E1F726960FB6F894DEBF0FBECDBFDF9134
:10216000CF911F910F91FF90EF90DF90CF90089546
:102170009F92AF92BF92CF92DF92EF92FF920F9316
:102180001F93CF93DF93CDB7DEB762970FB6F89466
:10219000DEBF0FBECDBF8E010F5F1F4F8CE0D80199
:1021A0001D928A95E9F787E8C82E81E0D82EF12C98
:1021B000E12CAA24A394B12CF60181916F018F3FE9
:1021C00009F44AC0F894E82FE295EF70F0E021A1FD
:1021D0008F70A50102C0440F551F8A95E2F7CA010E
:1021E000922F982B91A392A18095892382A30E947C
:1021F000040900C0E3E9F1E030E020E0912C4191D6
:102200004F3F09F46CC0A42FA295AF70B0E0909638
:102210008C9190E04F7002C0959587954A95E2F7B2
:1022200080FD5DC08A2D022E01C0880F0A94EAF756
:10223000982A2F5F3F4F2730310509F7F601319774
:1022400080818F3F11F00E94060950EA5A95F1F7FC
:10225000F801EE0DFF1D90828FEFE81AF80A96E064
:10226000E916F10409F0A8CF4CE050E0B80181E78D
:1022700092E00E946D247C01892B41F08CE0F801F2
:10228000A1E7B2E001900D928A95E1F710917E02EC
:10229000E114F10431F181E080933E020E9437069F
:1022A00090933D0280933C0280913C0290913D02CC
:1022B0000E941C06059770F0A1E7B2E0E12FF0E064
:1022C000E058FD4F8D91819322E0A737B207D1F7F7
:1022D00010923E02EF2849F081E090E057C080E084
:1022E000A7CF80913E028111DFCF0E943A0ED82EF7
:1022F000E0917E02AE01435F5F4F7A01882309F4CB
:102300007FC086E0DA011D928A95E9F70E2F10E072
:1023100000581D4F809165028A3008F049C04AE795
:1023200050E1B701C8010E94F60D882309F457C097
:1023300044E250E1B701C8010E94F60D882309F478
:102340004EC045E05FE0B701C8010E94F60D88234A
:1023500009F445C010926502E0917D02F0E0BF01F2
:1023600060587D4FD7019E012D5E3F4F80E0FB01FD
:102370004191BF019D91491731F0AF014150510981
:10238000FA0190838D2DA217B30789F762960FB6D5
:10239000F894DEBF0FBECDBFDF91CF911F910F919B
:1023A000FF90EF90DF90CF90BF90AF909F900895F7
:1023B00080913F02909140020E941C06843F914010
:1023C00008F0ADCFE0917D02F0E0E058FD4F90E0E5
:1023D00080E01192019686309105D9F77DCF8091EA
:1023E00065028F3F31F08F5F809365028A3008F479
:1023F000B3CF0E9437069093400280933F02E2CF12
:10240000F0E0E058FD4FF89486E0A5E5B2E00190D9
:102410000D928A95E1F766E070E085E592E00E9412
:102420008906809354020E940409F894E0918F0277
:10243000F0E0E457FD4F80818D8780935C0261E07E
:1024400070E0C7010E94890680935B020E94040924
:10245000F894C0905D02D0905E02E0905F02F09030
:1024600060028091410290914202A0914302B0919A
:102470004402C816D906EA06FB06D1F0C092410212
:10248000D0924202E0924302F09244020E943A0E3D
:1024900081110EC00E942B06C61AD70AE80AF90A53
:1024A000C0926602D0926702E0926802F0926902DE
:1024B0000E94040980E06ACF69EE7EEF90E080E040
:1024C0000E94AF2460E082E090E00E94912460E0EE
:1024D00083E090E00E949124109238021092390219
:1024E00010923A0210923B0260E084E090E00E9479
:1024F000912460E082E290E00E94912460E085E017
:1025000090E00E94912460E086E090E00E94912497
:102510006FEF87E090E00E94912440E050E0BA0124
:1025200088E090E00E94A32460E08DE090E00E94AB
:10253000912440E050E0BA0188E190E00E94A32499
:1025400060E087E190E00E94912440E050E0BA0111
:102550008CE190E00E94A32470E060E080E290E0D3
:102560000E94AF2440E050E0BA0188E190E00E9470
:10257000A32440E050E0BA018FE090E00E94A32441
:1025800040E050E0BA0183E190E00C94A324109263
:102590003702EEEBF1E086E0DF011D928A95E9F764
:1025A0000C94D80B1F93CF93DF93CDB7DEB7AA97C8
:1025B0000FB6F894DEBF0FBECDBF8CE093E0209144
:1025C000F100FC012193CF01F3E084319F07B9F7BB
:1025D00080910D03833009F46FC0B8F4813009F4A1
:1025E00046C0823009F4B0C08091E80083FF85C204
:1025F00080910C0390910D039A3008F07EC2E92F70
:10260000F0E0EB52FB4D0C9467248A3009F48BC048
:102610008B3009F46EC0893039F780910C03813218
:1026200019F780911003909111030297E8F68091B9
:10263000E800877F8093E8008091E80082FF37C040
:102640009091F3008091F200029729F48091F100BB
:102650008B7F813021F48091F1008093FF02809183
:10266000E8008B778093E8000E94DC03BDCF809167
:102670000C03813A09F0B8CF8091E800877F8093FE
:10268000E8008091100390911103892B61F468E0B8
:1026900080E093E070E00E948E048091E8008B77E8
:1026A0008093E800A1CF60E090E080E0F3CF8091DC
:1026B0000A038111C1CF98CF80910C03813A09F0B0
:1026C00093CF8091100390911103892B09F08CCF47
:1026D0008091E800877F8093E8008091E80080FF88
:1026E000FCCF80914B018093F1008091E8008E77C0
:1026F000B9CF80910C03813209F076CF809110031D
:1027000090911103892B09F06FCF8091E800877FAA
:102710008093E8000E94DC0380910E0380934B01BC
:102720000E94C71261CF80910C03813209F05CCF07
:102730008091E800877F8093E8000E94DC0380910D
:102740000F038093FE0250CF80910C03813A09F071
:102750004BCF8091E800877F8093E8008091E8006C
:1027600080FFFCCF8091FE02BECF803899F0823886
:1027700009F0C3C1809110038F70873008F0BDC18C
:102780008093E9008091EB0085FB882780F9109207
:10279000E90006C0809108039091090391118260BD
:1027A0009091E800977F9093E8008093F100109259
:1027B000F1008091E8008E779CC1882309F48AC1DA
:1027C000823009F09AC180910E0381118DC18091F0
:1027D00010038F702FEF280F263008F08EC18093E2
:1027E000E9002091EB0020FF7FC1933031F480910C
:1027F000EB0080628093EB0077C19091EB009061D9
:102800009093EB0021E030E001C0220F8A95EAF7B7
:102810002093EA001092EA008091EB008860EACFF2
:1028200081116BC110910E031F778091E3008078B6
:10283000812B8093E3008091E800877F8093E800FC
:102840000E94DC038091E80080FFFCCF8091E300D0
:1028500080688093E30082E0111183E080930A0393
:102860004CC18058823008F048C180910E0390918D
:102870000F038C3D23E09207A1F583E08A838AE26F
:1028800089834FB7F894DE01139620E03EE051E2D1
:10289000E32FF0E050935700E49120FF03C0E2954E
:1028A000EF703F5FEF708E2F90E0EA30C0F0C79678
:1028B0008D939D932F5F243159F74FBF8091E8008E
:1028C000877F8093E8006AE270E0CE0101960E9463
:1028D0008E048091E8008B778093E8000EC1C0964B
:1028E000E7CF4091100350911103292F3327233054
:1028F000310509F444C078F52130310509F46FC081
:102900008FE990E0E6E1F3E02230310509F0F5C00F
:102910002091E800277F2093E80020911203309156
:1029200013038217930708F49C0140E02115310539
:1029300009F064C0411162C08091E80082FDC9CFF6
:1029400080910A03882329F2853019F28091E800EA
:1029500083FFF2CFBECF21323105A9F122323105FA
:1029600009F0CBC04115510509F443C04130510570
:1029700009F0C3C082E390E0E4EAF2E0C9CF99270E
:1029800081309105C1F0009759F0029709F0B5C068
:10299000E7ECF3E0E4918E2F90E0E7ECF3E007C082
:1029A000E5EFF3E0E4918E2F90E0E5EFF3E00097A0
:1029B00009F4A3C0ADCFE5EEF3E0E4918E2F90E0F3
:1029C000E5EEF3E0F4CF4115510571F041305105CA
:1029D00009F093C089E090E0E1E4F3E099CF82E16F
:1029E00090E0E5EBF3E094CF89E090E0E8E2F3E0FB
:1029F0008FCF80E490E0E6EDF2E08ACF80910A0389
:102A0000882309F466CF853009F463CF8091E8000C
:102A100083FD5FCF8091E80082FD8ECF8091E8003A
:102A200080FF84CF9091F3008091F2002115310551
:102A300019F08830910550F041E0089709F040E026
:102A40008091E8008E778093E80070CF44914093A6
:102A5000F1003196215031090196E8CF803809F014
:102A60004CC08091E800877F8093E80080910B0341
:102A70008093F1009ECE811140C010910E03123060
:102A8000E0F58091E800877F8093E80010930B03C6
:102A90000E94DC03112311F084E005C08091E30063
:102AA00087FDFACF81E080930A0342E061EC81E088
:102AB0000E94FB0342E261EC82E00E94FB0342E3DE
:102AC00061E883E00E94FB0342E361E884E00E9446
:102AD000FB0313C080910E03813079F481E09330C1
:102AE00009F080E0809309031092E9008091E800EA
:102AF000877F8093E8000E94DC038091E80083FFD9
:102B00000AC08091E800877F8093E8008091EB0005
:102B100080628093EB00AA960FB6F894DEBF0FBEDA
:102B2000CDBFDF91CF911F9108958F929F92AF9269
:102B3000BF92CF92DF92EF92FF920F931F93CF93AA
:102B4000DF9300D000D00F92CDB7DEB77C01FC013F
:102B500083819481892B39F01081D180812F8D213F
:102B60008F3F09F013C40F900F900F900F900F90AC
:102B7000DF91CF911F910F91FF90EF90DF90CF9059
:102B8000BF90AF909F908F9008950E94EB0A082FFE
:102B9000682F89819A810E94850BE12FF0E027E060
:102BA000D29EE00DF11D112444E5049FE00DF11DBE
:102BB0001124EE0FFF1FE455FF4F05911491B7014B
:102BC000C8010E949F06882371F2043F5CE5150747
:102BD00009F496C028F5093D9CE5190709F48CC055
:102BE0000A3DECE51E0709F497C0083DFCE51F0708
:102BF00029F526E241EE61EEC7010F900F900F908C
:102C00000F900F90DF91CF911F910F91FF90EF9058
:102C1000DF90CF90BF90AF909F908F900C94270D36
:102C2000063F2CE5120709F473C008F46DC027E2D3
:102C300045EE66EE073F5CE51507F1F2F70182818C
:102C4000882309F4B4C3109216030230FCE51F0771
:102C500008F43EC106312CE5120738F098012B5FCD
:102C60003C452930310508F033C10E94F70E90939E
:102C7000700280936F0200314CE5140709F4F7C02D
:102C800008F085C008308CE5180709F4E6C008F0A4
:102C900054C00430ECE51E0709F4D3C008F03FC06F
:102CA00002302CE5120709F4C6C080916F028260E1
:102CB00003301C4509F4C2C060916F02109170028C
:102CC00084E090E00E949124612F82E290E00E94D3
:102CD00091240F900F900F900F900F90DF91CF9154
:102CE0001F910F91FF90EF90DF90CF90BF90AF902A
:102CF0009F908F900C94C71227E245EE65EE7CCF33
:102D000026E241EE60EE78CF27E245EE64EE74CF26
:102D100026E241EE62EE70CF28E241E0EFCF8091F3
:102D20006F02806106305CE5150709F487C008F47E
:102D30008CC080916F02806281C080916F028D7F14
:102D40000C309CE5190709F479C070F480916F028A
:102D50008C600A30FCE51F0709F470C008F481C0DC
:102D600080916F028E7F6AC080916F02877F0E30E4
:102D70004CE5140709F462C080916F028B7F0F301D
:102D80001C4508F45BC080916F028F7E57C00C3FDA
:102D90008CE5180709F45DC030F50331ECE51E073A
:102DA00009F46DC078F401312CE5120709F463C011
:102DB00002311C4509F080CF0E94C71280916F023A
:102DC0008F773CC005315CE5150709F460C008F455
:102DD00074C08091700281600B3F1C4509F06CCF7C
:102DE0008093700269CF0115EDE51E0709F44BC011
:102DF00088F4809170028D7F0E3F2CE5120781F3DD
:102E0000809170028E7F0F3F1C4550F380917002BD
:102E10008360E6CF02305DE5150709F457C008F47A
:102E200042C060E003301D4509F046CF8EE090E0DF
:102E30000E94912441CF80916F02816080936F0244
:102E40003BCF80916F028460F9CF80916F028860E0
:102E5000F5CF809170028260C3CF80916F02806451
:102E6000EDCF0E94C71280916F028068E7CF8091FA
:102E70006F028F7DE3CF80916F028F7BDFCF8091D8
:102E80006F02837FDBCF809170028C7FA9CF80910E
:102E90006F0282FB992790F921E0922790FB82F93B
:102EA00090FB83F9CBCF80917002982F9095917011
:102EB0008E7F892B90FB81F993CF0E94C71290914E
:102EC0006F02892F97FB87F98058B8CF61E0AECFAA
:102ED0000631ECE51E0709F080C2809137028A7A3C
:102EE00091E009F490E09093C50169E2811165E3F6
:102EF0008CEB91E00E9443060F900F900F900F9083
:102F00000F90DF91CF911F910F91FF90EF90DF9085
:102F1000CF90BF90AF909F908F900C94CA0A85E39A
:102F20004EC20E94C712FFEF24E34CE0F150204054
:102F30004040E1F700C0000087E797E79093010861
:102F40008093000888E19AE00FB6F894A8958093E2
:102F500060000FBE90936000FFCF0F900F900F9016
:102F60000F900F90DF91CF911F910F91FF90EF90F5
:102F7000DF90CF90BF90AF909F908F900C945C1299
:102F8000812F902F0E945D0BD82E40C2092F0F7009
:102F9000907F11F00295007F812F2223C9F000233A
:102FA00069F090E2910F983010F011110BC08091F0
:102FB0003702082B009337020E94CA0A812F0E9411
:102FC000A10C17C080913602082B00933602F4CF73
:102FD0000E94680C002369F00095105E183010F014
:102FE000B11030C0809137020823009337020E944D
:102FF000CA0A98E0C91AD108E4E0CE16D10410F448
:103000000E945D0E85E0F701DE01119601900D92A0
:103010008A95E1F789819A810E945D0B9A81E98105
:10302000F0E027E0929FE00DF11D112444E5849F1C
:10303000E00DF11D1124EE0FFF1FE455FF4F8591A8
:10304000949191CD80913602082300933602CFCF20
:10305000892F8F70907F903211F08295807FF1E000
:10306000BF120EC0222331F0363008F0C2CF0E94CA
:103070005E0CBFCF353008F0BCCF0E94530CB9CFE7
:10308000222341F0332399F340FF98CF4F70F7018B
:103090004583EDCF332389F3193309F06FC1FFEF77
:1030A00027EE43E0F15020404040E1F700C000002F
:1030B000812F0E94680C9DCF892F869586958370FD
:1030C00061F0813009F095CF812F9370211102C0FA
:1030D00090E080E00E945D068CCF812F93702111DB
:1030E00002C090E080E00E94730683CF892F837036
:1030F00009F065C021117DCF812F8295869587705B
:10310000880F880F612F6F70862E912CB12CA12C07
:10311000082E04C0880C991CAA1CBB1C0A94D2F768
:1031200040E050E0BA0114FF0FC04FE050E060E013
:1031300070E004C0440F551F661F771F8A95D2F7B1
:1031400040955095609570959695969593709230B0
:1031500019F1D8F4009138021091390220913A0205
:1031600030913B02913069F0482959296A297B291D
:10317000CB01BA0160237123822393230E94340C74
:1031800038CF802A912AA22AB32ACB01BA01682912
:1031900079298A299B29F2CF482959296A297B292B
:1031A000009138021091390220913A0230913B028D
:1031B000CB01BA016027712782279327DFCF86953D
:1031C000222311F0892F8170882309F412CF812FD7
:1031D000829586958770880F880F612F6F70862E75
:1031E000912CB12CA12C082E04C0880C991CAA1C6F
:1031F000BB1C0A94D2F740E050E0BA0114FF0FC0A4
:103200004FE050E060E070E004C0440F551F661FBF
:10321000771F8A95D2F74095509560957095969551
:1032200096959370923019F1D8F400916B02109139
:103230006C0220916D0230916E02913069F0482944
:1032400059296A297B29CB01BA0160237123822382
:1032500093230E94E60BCDCE802A912AA22AB32A7C
:10326000CB01BA01682979298A299B29F2CF4829FB
:1032700059296A297B2900916B0210916C022091D7
:103280006D0230916E02CB01BA016027712782274F
:103290009327DFCF092F0F70222329F0802F0E9460
:1032A000130C812FE4CE812F0E94530C802F0E949B
:1032B000F00B9FCE812FE1EF1E1709F442C0E117FA
:1032C00058F0F0EF1F17F1F0222309F44BC0311131
:1032D00075CE892F8F713AC042EF1417D1F153EF99
:1032E0001513F2CF2223D1F1292F2F7161E070E065
:1032F00080E090E004C0660F771F881F991F2A9511
:10330000D2F7A7CF2223C9F0353008F072CE292F8B
:103310002F7161E070E080E090E004C0660F771FDD
:10332000881F991F2A95D2F700916B0210916C02A9
:1033300020916D0230916E02A8CF363008F059CE40
:10334000E6CF892F8F71222309F4B1CF0E94130C8D
:1033500050CE892F8F712223C9F3A9CF60E070E08E
:10336000CB0177CF332379F0893341F48FEF97EE98
:10337000E3E081509040E040E1F798CE8FE39CE994
:103380000197F1F793CE892F8F7191CF85E0DE0100
:10339000119601900D928A95E1F7F70122818981BA
:1033A0009A812111F2CB0E945D0B082FF6CB0631DA
:1033B0001C45E1F48091C5018111B1CD89E2EEEBAC
:1033C000F1E024EC31E09191891303C0DF01119702
:1033D0001C922E173F07B9F78FCD01152CE5120768
:1033E00009F49FCD0F3D1C4509F4B7CDF7011081BD
:1033F0000181882309F4C4CD812F902F0E94EB0A0C
:10340000D82E682F812F902F0E94850BE12FF0E09E
:1034100027E0029FE00DF11D112444E5D49EE00D4C
:10342000F11D1124EE0FFF1FE455FF4F859194917C
:103430000E946009182FB82EF70122814581342F90
:1034400032953F70892F82958F70C82ED12C8C3089
:1034500008F0CFCDF601E152FB4D0C9467241F9389
:10346000CF93DF9380910202807FA9F48091FF01C6
:10347000882389F080913402D09103026091FD018C
:103480007091FE01A0910002B0910102C62FC723E6
:1034900016E0D81304C0DF91CF911F91089590E0FA
:1034A000109711F0CF3F19F401968770F2CF189F53
:1034B0009001199F300D1124F901EC5FFD4F4181FE
:1034C0004713F2CF40814613EFCF42814111ECCF39
:1034D000438154814A1B5B0B483C510528F780917E
:1034E00002028F70806180930202F901E75FFD4F55
:1034F00080818F70806180838DEF91E00E949515AF
:10350000DF91CF911F910C94E10AAF92BF92CF92BD
:10351000DF92EF92FF920F931F93CF93DF93CDB77C
:10352000DEB761970FB6F894DEBF0FBECDBF8C013A
:1035300085E0F801DE011D9601900D928A95E1F774
:10354000F801E2808DEFA82E81E0B82E6091000294
:10355000709101026115710509F432C19091FD016C
:103560004091FE01892F84238F3F09F429C12081D6
:103570003181C380D480F090FF01F601E61BF70B88
:10358000FF2009F4E8C080910202582F507FE83CE8
:10359000F10508F0ABC0511177C0FE2C431321C0D8
:1035A00092131FC0E1101DC08F70806180930202D2
:1035B000C5010E94951580910202F80185838F2D27
:1035C00061960FB6F894DEBF0FBECDBFDF91CF91ED
:1035D0001F910F91FF90EF90DF90CF90BF90AF9031
:1035E0000895CD2829F0822F83238F3F09F003C14E
:1035F00080E0F82FF170DF2E80FF3CC08091340214
:103600004091030256E0841315C02D873E878D85B7
:103610009E850E94420B292F22952F702230F0F0B8
:10362000243018F59F70F1F0F8019581907FD1F466
:10363000D12C1EC090E0589FF001599FF00D11242D
:10364000EC5FFD4F6181361306C06081261303C015
:103650006281E6120FC001968770D5CF9F7011F07E
:10366000882331F3805E883018F3C8010E949515D5
:10367000FD2CA5CFEE2009F4A2CF8091020281603B
:1036800080930202F12C9BCF431306C0921304C017
:10369000F801EE2009F479C0C8010E94B10B88231B
:1036A00009F1EE20F9F080910202803270F0209151
:1036B000FD013091FE0138872F831986DB86CA868B
:1036C0008C87CE0107960E94951586E0F801ADEF34
:1036D000B1E001900D928A95E1F70E942F1AFF2424
:1036E000F3946DCFC8010E949515F9CF51110AC00E
:1036F0008DEF91E00E94951586E0F50111928A9573
:10370000E9F7C0CF43130FC092130DC0E1100BC0F7
:10371000F8018583C8010E94951586E0F501119294
:103720008A95E9F74CCFC8010E94B10B8823D1F2EA
:10373000EE20C1F280910202803238F22091FD0128
:103740003091FE013A8329831B82DD82CC828E83F5
:10375000CE010196B8CFE83CF105F8F6FE2CEE203C
:1037600009F243131FC092131DC08091020280FD15
:1037700010C0982F907F69F0F8018583903F31F059
:10378000982F907F905F8F70892B8583C8010E944E
:10379000951586E0F801ADEFB1E001900D928A95A4
:1037A000E1F70DCFC8010E94B10B81118ECF80913E
:1037B0000202816080930202C8010E949515FFCE2B
:1037C000EE2009F48FCFC8010E94B10BF82E882398
:1037D00009F488CF86E0F801ADEFB1E001900D92D9
:1037E0008A95E1F78091FD019091FE010E94420BC4
:1037F0000E942F1AE4CE81E08E25FBCE1F93CF933B
:10380000DF93CDB7DEB767970FB6F894DEBF0FBE74
:10381000CDBF4B8B5C8B6D8B7E8B8F8B6111109230
:1038200036021A8A198A85E0FE017396DE011D961A
:1038300001900D928A95E1F786E0FE013D96DE014A
:10384000179601900D928A95E1F7CE0107960E9496
:10385000851A882389F016E0809134029091030242
:10386000891349C067960FB6F894DEBF0FBECDBF6F
:10387000DF91CF911F91089586E0FE013796DE011A
:10388000119601900D928A95E1F78A859B85892B87
:1038900011F38F81988589238F3FE9F220910302EC
:1038A00030E0C9010196877099274091340248178A
:1038B000190671F40E94C71210920302109234028A
:1038C00086E0EDEFF1E0DF011D928A95E9F7C3CFC5
:1038D00096E0929FD001939FB00D1124AC5FBD4F35
:1038E000FE01319601900D929A95E1F780930302C3
:1038F0000E94E10AB0CF819FC00111248C5F9D4FCF
:103900000E94851A882309F4ADCF8091340290E09B
:10391000019687709927809334029ECF1F920F9251
:103920000FB60F9211242F933F934F935F936F9392
:103930007F938F939F93AF93BF93CF93DF93EF9337
:10394000FF93D091E900DF708091EC00C82FC17027
:1039500080FDC0E81092E9008091F000877F80939D
:10396000F00078940E94D2121092E9008091F00049
:1039700088608093F000CD2BCF70C093E900FF9159
:10398000EF91DF91CF91BF91AF919F918F917F91F7
:103990006F915F914F913F912F910F900FBE0F90BC
:1039A0001F9018951F920F920FB60F9211242F930C
:1039B0003F934F935F936F937F938F939F93AF93B7
:1039C000BF93EF93FF938091E10082FF09C0809144
:1039D000E20082FF05C08091E1008B7F8093E100CF
:1039E0008091DA0080FF24C08091D80080FF20C041
:1039F0008091DA008E7F8093DA008091D90080FF79
:103A00009BC080E189BD82E189BD09B400FEFDCF84
:103A100081E080930A038091FD02811109C00E9418
:103A200062030E942D048091E20084608093E20092
:103A30008091E10080FF17C08091E20080FF13C0F9
:103A40008091E2008E7F8093E2008091E2008061AD
:103A50008093E2008091D80080628093D80019BCE6
:103A600085E080930A038091E10084FF29C0809162
:103A7000E20084FF25C080E189BD82E189BD89B56E
:103A8000982F917080FFFBCF8091D8008F7D80931D
:103A9000D8008091E1008F7E8093E1008091E20068
:103AA0008F7E8093E2008091E20081608093E2004B
:103AB00080910B03882309F445C084E080930A03B6
:103AC0008091E10083FF27C08091E20083FF23C043
:103AD0008091E100877F8093E10082E080930A0378
:103AE00010920B038091E1008E7F8093E100809122
:103AF000E2008E7F8093E2008091E20080618093FB
:103B0000E20042E060E080E00E94FB038091F00070
:103B100088608093F000FF91EF91BF91AF919F91EA
:103B20008F917F916F915F914F913F912F910F9066
:103B30000FBE0F901F90189519BC10920A03109297
:103B4000FD0276CF8091E30087FD93E090930A0316
:103B5000B7CF78941F921FB61F9211248F939F9313
:103B6000AF93BF938091F6029091F702A091F80273
:103B7000B091F9020196A11DB11D8093F6029093B8
:103B8000F702A093F802B093F902BF91AF919F9111
:103B90008F911F901FBE1F9018951F921FB61F92E6
:103BA00011248F939F93AF93BF938091F50281115E
:103BB00013C08091F6029091F702A091F802B091A3
:103BC000F9024196A11DB11D8093F6029093F70270
:103BD000A093F802B093F902BF91AF919F918F919A
:103BE0001F901FBE1F901895CDB7DEB72A970FB64E
:103BF000F894DEBF0FBECDBF84E08093EB028FE769
:103C00008093EC028091ED02807880648093ED02D5
:103C1000E3EAF2E08BEE92E02FEF21938E179F07FD
:103C2000E1F7109291021092A20210929302109268
:103C3000920210923C0310923E0310923D0380ECDE
:103C4000809301048FE393E0909303048093020434
:103C5000109200041092FF0310921C0310921B0399
:103C600010921E0310921D031092200310921F0346
:103C70001092220310922103109224031092230326
:103C80001092260310922503109228031092270306
:103C900010922A031092290310922C0310922B03E6
:103CA00010922E0310922D031092300310922F03C6
:103CB00010923203109231031092360310923503A2
:103CC00081EC95E0909318038093170385E195E0CC
:103CD000909338038093370381EF94E090933403FB
:103CE0008093330380EF94E090931A038093190339
:103CF00084B7877F84BF0FB6F894A8958091600041
:103D0000886180936000109260000FBE80E890E0B0
:103D10000FB6F89480936100909361000FBE85B751
:103D2000806885BF85B7806885BF82E099E0909301
:103D3000BB018093BA010E9462030E942D0480910E
:103D4000E20084608093E200789480910A038823E3
:103D5000A1F01091E9001F709091EC00892F817003
:103D600090FD80E8182B1092E9008091E80083FD17
:103D70000E94D2121F701093E90082E084BD93E08C
:103D800095BD9AEF97BD80936E00109266021092D7
:103D90006702109268021092690290916A02911172
:103DA00008C00E943A0E92E0811101C091E0909308
:103DB0006A0281E0913009F080E0809332010E9434
:103DC0003A0E81110E947E2280913201809132014F
:103DD00096E0811190E090937E0286E0891B8093AB
:103DE0007D0207E811E06DE8E62E61E0F62EF801AD
:103DF00081918F018F3F11F00E940609E016F106B4
:103E0000B1F703E911E05AE9E52E51E0F52EF8018A
:103E100081918F018F3F11F00E940609E016F10693
:103E2000B1F7E1E7F2E08DE792E0A0E8B2E01192AD
:103E30001D928E179F07D9F790E080E00E948B2497
:103E4000893E9E4F11F00E945C1282E090E00E9439
:103E50008324809395020E94F70E909370028093C2
:103E60006F0283E090E00E948324682F70E090E06E
:103E700080E00E94340C0E943A0E811102C00E9420
:103E8000812280913201811106C085EF80933E012D
:103E900084EF80933D0120913E01A22FA295AF7047
:103EA000B0E091963C9191972F7081E090E0BC0139
:103EB000022E01C0660F0A94EAF7462F409543236D
:103EC00091964C93919792963C919297362B92961D
:103ED0003C93929740913D01E42FE295EF70F0E022
:103EE00031A14F70042E01C0880F0A94EAF7982F71
:103EF0009095932391A392A1892B82A390968C9164
:103F000090E002C0959587952A95E2F7817020A1EF
:103F100030E002C0359527954A95E2F792E020FF00
:103F200090E0892B809390029091320181E0982754
:103F300090938F02891B80937F028091EB02807F98
:103F400082608093EB028091EC0280788567809399
:103F5000EC0283E391E09093F2028093F10298E106
:103F6000692E712C2CE8822E22E0922E33E0A32EB3
:103F7000B12CEE24E394F12C80910A0300E112E1CC
:103F8000853009F45DC10E94B81081110E942B0692
:103F9000E6E9F2E0A0E8B2E010E000E0402ECD90CB
:103FA00081918C1509F45BC18C25512CDD24D394AF
:103FB000982F9D2109F44EC10E943A0E882399F052
:103FC00059824A82CD2081E009F480E08B830E94EF
:103FD00037068160782F9D838C8349815A816B815C
:103FE0008D810E94FE1BF801EA56FD4F8081D82684
:103FF000D08280919002E82FEE0FEE0F80913E016B
:10400000A82FA295AF70B0E090962C9130E08F7001
:1040100002C0359527958A95E2F721703327909154
:104020003D01A92FA295AF70B0E090964C9150E061
:104030009F7002C0559547959A95E2F7CA01817025
:10404000992740FF02C082E090E0822B8E2B809364
:10405000900210918F028F70E82FF0E0E656FE4F2D
:10406000808190918E02890F80938E0220E08430AF
:1040700064F0E12FF0E0E457FD4F80818F5F808393
:1040800060E0812F0E946D0E21E080918E028D3FB5
:1040900064F4E12FF0E0E457FD4F8081815080838C
:1040A00061E0812F0E946D0E21E080918E02082E2A
:1040B000000C990B64E070E00E94532480938E0200
:1040C00021110E94C80AE0913703F091380330971C
:1040D00019F087E193E009959FB7F89400910004E7
:1040E0008091FF03081708F4D1C0081B9FBFD12C93
:1040F000C12C10E084E0382E22242394C016D1066F
:1041000008F4C8C080919202909193020E941C060C
:104110002091ED022695269526952F7028171906D1
:1041200009F060F50E943706909393028093920203
:104130008091A202882311F19091EC02991F992796
:10414000991F8091ED028770880F4091910261E084
:10415000892B0E945F028091A2029091910287FFB9
:104160004EC1482F552741950CF4509594171506CC
:104170000CF045C1109291021092A2020E945D0EB5
:1041800090919402891721F00E945D0E8093940211
:1041900080910A03843009F0EFCE809140018F7046
:1041A0008093E9009091E80090FFE6CE90910A0399
:1041B000943009F0E1CE8093E9009091F300809172
:1041C000F200892B09F4D8CE8091E8008E77809395
:1041D000E8000E948103D0CE80910A03843011F15F
:1041E0001092F50220E40FB6F894A8956092600052
:1041F0000FBE2093600083B7817F846083BF83B745
:10420000816083BF7894889583B78E7F83BF0FB614
:10421000F894A89580916000886180936000109266
:1042200060000FBE80910903882351F00E94B810EE
:10423000E0E8F2E081918111EAC08E169F06D1F785
:1042400080910A03853009F4C7CF0E94C7120E94EB
:104250005D0E99CE5394DD0C47E05412A9CE0F5F4A
:104260001F4F0C30110509F099CE8FEF8E838F838D
:1042700018860E9437068160782F9A8789874E8139
:104280005F8168858A850E94FE1BB3CE2091010460
:10429000020F2BCF8091FF0390E06091010470E04A
:1042A0000E9453242091020430910304280F391FE7
:1042B000F901508040903C03F7EFF515E8F42092A7
:1042C0003C0320E040E0652D81E090E00E94700218
:1042D00040923C032FB7F8948091FF0390E0019641
:1042E0006091010470E00E9453248093FF032FBF6C
:1042F000FFEFCF1ADF0A02CF57FE52C024E042166A
:1043000031F050923903F0923E03E0923D03852D47
:104310000E94F204813069F08823D1F08230A9F044
:10432000833099F010923C0310923E0310923D03AB
:10433000D1CF80933C0320E040E0652D81E090E008
:104340000E94700210923C03C5CF80933C03C2CF01
:1043500040EF5416E1F057EF5512E4CF20913D03A2
:1043600030913E03C901B5010E943F24FC01E95E82
:10437000FC4F52A2C901019690933E0380933D03E6
:1043800020913B0340913A0360913903D9CF309299
:104390003C0350923903F0923E03E0923D039ACFE2
:1043A000442009F497CF20913D0330913E03C90189
:1043B000B5010E943F24AC01FC01E95EFC4F52A212
:1043C000C901019690933E0380933D03413051050E
:1043D00089F04230510509F07DCF20913B03409197
:1043E0003A03609139030E94700280913C0384304B
:1043F00091F670CFE2E020E04E126CCFF0CF890F43
:1044000087FD03C080939102B9CE8FE7FBCF09BD32
:1044100019BD09B400FEFDCF8091D8008F7D809337
:10442000D8008091E00082608093E0008091E000FD
:1044300081FDFCCF0E94C71203CF8EE14A9B02C0D0
:104440008150E1F74A9BFECF08955A9880E28A9501
:10445000F1F75A9A0895FC013BE03A95F1F798E09C
:1044600020E080E031E040E14A95F1F7880F4A9B77
:1044700002C08160232742E04A95F1F7000040E145
:104480004A95F1F7915079F790E19A95F1F799B142
:1044900032E03A95F1F7000040E14A95F1F792FBDE
:1044A000992790F992272081920F90830895EF9297
:1044B000FF920F931F93CF93DF930F92CDB7DEB789
:1044C00019828C017C01E60EF11C0E151F0561F4AA
:1044D00081E09981911180E00F90DF91CF911F9140
:1044E0000F91FF90EF9008950E941D22CE0101963A
:1044F0000E942B22F80181938F01E7CF529A5A9A9A
:10450000089552985A9AEA9AE9E6F0E080818F7C01
:10451000808308956150770B91E001C0990F6A95EF
:10452000EAF720E031E0911108C0222391F05A9A75
:1045300080E28A95F1F75A980895492F482339F077
:104540005A9A232740E24A95F1F79695ECCF5A986C
:10455000F9CF5A98EDCFFF920F931F93CF93DF932C
:10456000EC018C01060F111DC017D10731F4DF914A
:10457000CF911F910F91FF900895F9900E942522ED
:1045800068E08F2D0E948A22EFCF1F920F920FB604
:104590000F921124EF92FF920F931F932F933F934B
:1045A0004F935F936F937F938F939F93AF93BF933B
:1045B000EF93FF93CF93DF930F92CDB7DEB71982BE
:1045C0000E941D22CE0101960E942B22A82FA695A3
:1045D000A695A695282F229525709A2F9570290FBC
:1045E000922F937026952695920F98279770898120
:1045F000982B09F075C0A63008F072C080E18A954A
:10460000F1F75A9A529AB2E0BA95F1F700C05A9867
:10461000EA2EF12CEAE0AE9FD0011124A050BF4F4A
:104620001896ED91FC9119973097B1F06091850142
:104630007091860116962D913C911797260F371F82
:1046400013968D919C911497680F791F15964C9134
:10465000159712968C9109958AE08E9DF0018F9D99
:10466000F00D1124E050FF4F6581662351F0209139
:1046700085013091860186819781820F931F0E9468
:10468000AB220E942522F0E1FA95F1F75A98529850
:104690005A9A80E18A95F1F78AE08E9D80018F9D7C
:1046A000100D112400501F4FD80112966C911297D3
:1046B000662371F1209185013091860113968D91C9
:1046C0009C91820F931F0E945722D801ED91FC917B
:1046D000882311F088E001C082E080830E941D22BF
:1046E0000F90DF91CF91FF91EF91BF91AF919F918B
:1046F0008F917F916F915F914F913F912F911F917A
:104700000F91FF90EF900F900FBE0F901F90189594
:10471000ED91FC91DFCF0F931F93CF93DF93EC01CB
:1047200006970CF0A9C08AE08C9FF0018D9FF00DD8
:104730001124E050FF4F80819181892B09F49CC0A6
:10474000F894529A5A9885E08A95F1F700008C2FD8
:10475000869585709C2F9570890F982F93708695FC
:104760008695890F8E0193E0000F111F9A95E1F74E
:10477000082B0E94252200C068E0802F0E948A2218
:10478000A0E1AA95F1F752985A9A4A9B27C087E070
:1047900090E04A9925C08AE08C9F80018D9F100D82
:1047A000112400501F4FF80165816623A1F120916B
:1047B00085013091860186819781820F931F0E9427
:1047C0005722811128C0529A5A9AD801ED91FC9132
:1047D00082E08083789482E090E016C000C0D5CF5C
:1047E0000197B9F4529A5A9A8AE08C9FF0018D9FF2
:1047F000F00D1124E050FF4F0190F081E02D81E099
:104800008083789481E090E0DF91CF911F910F91A8
:10481000089500C0BECF0E941D22B0E2BA95F1F704
:104820005A98529AE0E1EA95F1F78AE08C9FF001FC
:104830008D9FF00D1124E050FF4F6281662351F0EF
:10484000209185013091860183819481820F931F8D
:104850000E94AB220E9425228AE08C9FF0018D9F4E
:10486000F00D1124E050FF4F0190F081E02D1082F7
:10487000789490E080E0C8CF84E090E0C5CFAA1B98
:10488000BB1B51E107C0AA1FBB1FA617B70710F03B
:10489000A61BB70B881F991F5A95A9F7809590956D
:1048A000BC01CD01089597FB072E16F4009407D0A4
:1048B00077FD09D00E943F2407FC05D03EF4909577
:1048C00081959F4F0895709561957F4F0895EE0FE4
:1048D000FF1F0590F491E02D0994FB01DC0104C059
:1048E0008D910190801921F441505040C8F7881BE8
:1048F000990B0895FB01DC0102C001900D9241501B
:104900005040D8F70895F999FECF92BD81BDF89A2D
:10491000992780B50895A8E1B0E042E050E00C94FA
:10492000B724262FF999FECF92BD81BDF89A019741
:1049300000B4021639F01FBA20BD0FB6F894FA9AE7
:10494000F99A0FBE08950396272F0E9492240E9481
:104950009124252F0E949224242F0C9492240196B6
:10496000272F0E9492240C949124DC01CB01FC019E
:10497000F999FECF06C0F2BDE1BDF89A319600B4B8
:104980000D9241505040B8F70895F894FFCFC30BF3
:10499000C30BCC0BCC0BCE0BCC0BCC0BCC0BC30B6F
:1049A000C30BD30BCC0BCC0BD30BB513DD137D1585
:1049B000DD137D15101431147D152E153B15C6170A
:1049C000C617281828185C18F917F917F917761858
:0649D0004A195A195A1998
:1049D600C4010000000100000000C4010000000640
:1049E60001000000C4010000000107000000C4012E
:1049F6000000000108000000C401040900000000D6
:104A0600000001ED04C90DEC04C50DC10D376703A7
:104A1600834000000104400000010001050005007C
:104A260005000600818283E200E900EA00B500B6CF
:104A360000B700CD008301CC008A019201940121C8
:104A460002230224022502260227022A02B300B408
:104A5600006F0070005402353497F666940000002B
:104A660000000091C6F73133329000FF01000100CB
:104A760000FFFF0000010001FF0002030200000129
:0A4A8600000101010101000101001F
:00000001FF
