:100000000C9479030C94C0030C94C0030C947E1AD6
:100010000C94C0030C94C0030C94C0030C94C00354
:100020000C94C0030C94C0030C94C4300C9497310E
:100030000C94A8260C94C0030C94C0030C94C00329
:100040000C94C0030C94C0030C94C0030C94C00324
:100050000C94C0030C943A270C94C0030C94C00376
:100060000C94C0030C94C0030C94C0030C94C00304
:100070000C94C0030C94C0030C94C0030C94C003F4
:100080000C94C0030C94C0030C94C0030C94C003E4
:100090000C94C0030C94C0030C94C0030C94C003D4
:1000A0000C94C0030C94C0030C94C0033D5C435CEF
:1000B000455C485C4C5C5B5C00003F5C445C4E5CB7
:1000C0004A5C585C515C405C495C505C535C575CDA
:1000D000475C425C01534B5C4F5C525C555C595C25
:1000E000545C415C465C5A5C5C5C565C4D5C3E5CBE
:1000F0003B5C000000000000000000000000000069
:100100004F5C505C525C535C545C765C0153515CB8
:10011000585C575C555C745C735C0151565C5D5C6B
:10012000605C5A5C715C725CA845645C5B5C595CA9
:10013000695C6F5C705C665C625C5E5C5C5C6B5CAA
:100140006E5C6A5C6C5C655C615C5F5C6D5C635C96
:10015000675C685C3F5C435C455C4A5C565C5A5C2F
:1001600000003D5C495C515C535C485C475C415C11
:10017000425C4E5C525C555C585C4D5C0153445C87
:100180004B5C505C545C575C4F5C465C4B5C595C10
:100190005B5C5E5C4C5C3C5C405C00000000000012
:1001A00000000000000000004F5C505C525C555C99
:1001B000535C745C0153515C585C595C545C725CD8
:1001C000735C0151565C575C655C5B5C695C715C9F
:1001D000A845645C5C5C5A5C5D5C6B5C705C625CFA
:1001E000635C605C5E5C5F5C6E5C6C5C6F5C675CFF
:1001F000635C615C6D5C665C685C6A5CE0001E0070
:100200001F002000210022000000165C2B001400BB
:100210001A00080015001700390004001600070036
:1002200009000A000B00E1001D001B000600190078
:10023000050011003500E300E20091442C002C0081
:100240004600000000000000000000000000000068
:100250004A004E000A001C0023002F004B004D00F6
:1002600005000B0018002400300004512C00110080
:100270000D000C00250031000100904410000E001C
:100280001200260027004F00E60036000F00130082
:100290002A00E50052005000370033004C002800CF
:1002A0003800510039001E001F00200021002200EC
:1002B0000000165C2B0014001A00090013000A004D
:1002C000E000040015001600170007002800E100F8
:1002D0001D001B0006001900050010003500E3009A
:1002E000E20091442C002C004600000000000000B9
:1002F00000000000000000004A004E0007000D0052
:1003000023002F004B004D0005000B000F002400C0
:10031000300004512C000E0011001800250031009F
:1003200001009044100008001C00260027004F0028
:10033000E60036000C0033002A00E50052005000B1
:10034000370012004C0028003800510001003A002C
:100350003B003C003D003E000000010001000100A8
:100360000100010001000100010001000100010085
:100370000100010001000100010001000100010075
:100380000100010001000100010001000100010065
:10039000010000000000000000000000000000005C
:1003A00001000100010001003F0001000100010007
:1003B00001000100010040000100010001000100F6
:1003C00001000100410001000100010001000100E5
:1003D0000100420043000100010001000100010092
:1003E00001000100010001000100340001000100D2
:1003F00001000100000000520000000000000000A9
:100400000000000002520000000000000000000098
:100410000352000000000000000000000100000086
:100420000000000000000000000000000000135C5D
:100430000A5C000000000000000000000000000056
:1004400000000000000000000000C95C0000000087
:100450000000815C01000000C85C0000000000009A
:10046000825C01000000C75C0000000000009D5C91
:1004700001000000C65C0000000000009E5CC35C40
:100480000000CD5C000000000000CA5CDF5CC55CC1
:10049000CC5C000000000000CB5CC45C00010101EA
:1004A0000101010101010202020202020202020331
:1004B0000303030303030304040404040404050501
:1004C00005050506060606060707070707080808C4
:1004D00008090909090A0A0A0B0B0B0C0C0C0D0D73
:1004E0000D0E0E0E0F0F0F1010111111121213130B
:1004F0001414151516161717181819191A1A1B1B84
:100500001C1D1D1E1E1F20202122222324242526DF
:1005100026272829292A2B2C2D2D2E2F3031323217
:10052000333435363738393A3B3C3D3E3F40414223
:10053000434445464748494A4C4D4E4F5051535409
:10054000555658595A5B5D5E5F61626465666869BD
:100550006B6C6D6F7072737577787A7B7D7E80823D
:10056000838587888A8C8E8F91939596989A9C9E86
:10057000A0A2A3A5A7A9ABADAFB1B3B5B7BABCBE96
:10058000C0C2C4C6C9CBCDCFD1D4D6D8DBDDDFE263
:10059000E4E7E9EBEEF0F3F5F8FAFDFF1C03620087
:1005A00061006E0064006F006D0069006E00650000
:1005B00064006F006E00690000000E0333006100EC
:1005C000720061006800740000000403090409025D
:1005D0009F00040100A0FA090400000103010100CA
:1005E0000921110100012240000705810308000ACA
:1005F000090401000103000000092111010001228A
:1006000032000705820320000A080B0202010100E4
:100610000009040200000101000009240100010991
:100620000001030904030002010300000724010084
:100630000141000624020101000624020202000911
:100640002403010301020100092403020401010142
:10065000000905040240000500000525010101090B
:100660000583024000050000052501010312011069
:100670000100000008EDFEB5F401000102000105D3
:10068000010980A101850319012AB700150126B7C8
:1006900000950175108100C0050C0901A1018504B8
:1006A00019012AA002150126A002950175108100EA
:1006B000C005010906A101050719E029E715002574
:1006C00001950875018102950175088101050719D9
:1006D0000029FF150026FF00950675088100050812
:1006E000190129059505750191029501750391017F
:1006F000C00011241FBECFEFDAE0DEBFCDBF04B6CD
:1007000003FE27C08091980690919906A0919A06C1
:10071000B0919B068730904BA740B04BD1F410921C
:1007200098061092990610929A0610929B0614BE93
:1007300084B7877F84BF0FB6F894A8958091600036
:10074000886180936000109260000FBEE0E0F8E3E3
:10075000099513E0A0E0B1E0EEE4F9E602C00590EF
:100760000D92A430B107D9F726E0A4E0B3E001C0B0
:100770001D92A839B207E1F70E94AF2D0C941334F3
:100780000C940000CF9390910603911112C05098E1
:10079000589A259A2D9885E08A95F1F70000C9B1FD
:1007A00025982D9A0E94AF079C2F91709F5F909380
:1007B000060381E0913009F080E0CF9108950E9416
:1007C0000C158FE70E94BB154FEF6FEF8AEA90E0A0
:1007D0000E945D158EE00C942C15E0E7F4E080811A
:1007E000807F82608083E1E7F4E0808180788567A4
:1007F000808387E00C942C15CF93DF9300D000D03A
:10080000CDB7DEB70E9410158823A1F08091370480
:1008100090913804A0913904B0913A0489839A8365
:10082000AB83BC83BC01CD010E948605813049F0B9
:100830008530A1F00F900F900F900F90DF91CF9126
:10084000089523E343E363E390E080E00F900F908B
:100850000F900F90DF91CF910C942B0F20E049E186
:1008600063E38EE290E00E942B0F23E343E363E314
:1008700080E390E00E942B0F23E343E363E38CE3E8
:1008800090E00E942B0F20E043E363E389E490E0D3
:100890000E942B0F20E043E363E388E490E00E9492
:1008A0002B0F20E043E363E381E090E00E942B0FF5
:1008B00020E043E360E08DE090E00E942B0F20E019
:1008C00043E363E38EE090E00E942B0F20E043E3DC
:1008D00060E089E190E00E942B0F23E340E060E0BC
:1008E00086E090E00E942B0F23E340E060E089E087
:1008F00090E00E942B0F23E340E060E082E190E073
:100900000E942B0F23E340E060E085E190E00E942D
:100910002B0F23E340E060E08DE190E00E942B0F7D
:1009200023E340E060E080E290E00E942B0F23E3AD
:1009300040E060E084E290E00E942B0F23E340E07F
:1009400060E087E290E00E942B0F23E340E060E04C
:100950008FE190E00E942B0F23E340E060E085E20E
:1009600090E00E942B0F26E249E163E386E290E0EB
:100970000E942B0F20E040E063E388E290E00E94B9
:100980002B0F20E049E163E389E290E05FCF813003
:1009900031F489EA611101C08AEA0C94141D0895AA
:1009A00081E0089581E008950C94D20408950C9498
:1009B000D6041F93CF93DF9300D000D00F92CDB712
:1009C000DEB749835A836B833091C70389819A814B
:1009D00031111DC06623B9F02223A9F00E949B2487
:1009E000182F682F89819A810E94442469817A8115
:1009F000812F0F900F900F900F900F90DF91CF915C
:100A00001F910C94E0050E947224182FEFCF0E94D2
:100A10009B2469817A81EDCFFC01262F4081518191
:100A20006281738184810C94D904CF93DF93D82F92
:100A3000C92F60E00E940C056D2F7C2FDF91CF91B4
:100A40000C94D7040E947025811102C00E940926CF
:100A50000E94C2140C94A3070C94A60708950E9448
:100A60006D1F0E942E052FEF84E39CE021508040F3
:100A70009040E1F700C000000C94F8270F931F93FB
:100A8000CF93DF93EC0161E00E940C058C01BE0165
:100A90000E94D404882389F1BE01C8010E949B09E9
:100AA000882359F1BE01C8010E940618882329F144
:100AB000BE01C8010E945B188823F9F0BE01C8017D
:100AC0000E942E198823C9F0BE01C8010E94FF159B
:100AD000882399F08A81882339F001158CE518075D
:100AE00051F00F3D1C4579F0CE01DF91CF911F9160
:100AF0000F910C94D0040E942F0580E0DF91CF91DC
:100B00001F910F9108950E940926F7CF0F931F930D
:100B1000462F572FBC01CB01AA27BB270097A10561
:100B2000B105E9F1AC01BD0180E1052F162F272F9A
:100B30003327011511052105310519F0885FB90129
:100B4000A8018A019B01F4E0369527951795079532
:100B5000FA95D1F7011511052105310519F08C5FC2
:100B6000B901A8018A019B01E2E036952795179506
:100B70000795EA95D1F7011511052105310519F001
:100B80008E5FB901A8017695679557954795452BD6
:100B9000462B472B09F08F5F1F910F91089580E03E
:100BA000C4CF08950C94D10581E008950C94D40528
:100BB000CF93C82F0E94D2058C2FCF910C94D605CD
:100BC000972F70E027E0929F600D711D1124FB01AB
:100BD00094E5899FE00DF11D1124EE0FFF1FE455F0
:100BE000FF4F859194910895CF93DF930E94E00584
:100BF0000E94C706EC01811521E59207A8F5811531
:100C000030E5930708F084C08F3B9105B8F4883A2B
:100C1000910508F072C0853A910568F4049738F49C
:100C200091E080E0219709F090E0C92FD82FCE0104
:100C3000DF91CF910895A497D064F9CF811540E258
:100C4000940758F48F3F910509F088F7805E910969
:100C5000089768F3D0E0C0E0EACF90548115904146
:100C6000C8F7DF70D06AE3CF811539E5930768F5DF
:100C7000811548E5940708F078C0C11583E5D807C9
:100C800050F4C11592E5D90708F05EC0DC2FCC27DF
:100C9000C16FD06ACCCFCE0193558F3F910509F03B
:100CA000C8F6CE018370992721E030E002C0220F00
:100CB000331F8A95E2F7C695C69590E2C99FE00179
:100CC0001124C22BD32BDA68B2CF81152AE5920703
:100CD00008F450C090568115904208F0BBCF8D2F7C
:100CE0008F710E945F0790E0982F882788279F7157
:100CF0009C012C2BE901D0629ACFC85AD0E0CC0FCE
:100D0000DD1FCB59DD4F0990D881C02DD4648FCF22
:100D100054E0969587955A95E1F783702C2F269588
:100D20002695237040E2249F90011124382B8C2FAC
:100D30008370C1E0D0E002C0CC0FDD1F8A95E2F7DE
:100D4000C22BD32BDC6873CFCE018370992721E0AF
:100D500030E002C0220F331F8A95E2F7C695C69590
:100D600080E2C89FE0011124EBCFD82FCC27C06FC1
:100D7000D06A5DCF8F700E945F0734E0D695C7952B
:100D80003A95E1F7CF70DC2FC82FD06950CF803E65
:100D9000910599F1C8F48133910509F476C048F4BE
:100DA0008932910509F46AC08A32910509F474C048
:100DB000089589339105D1F082389105B9F08533D2
:100DC000910509F454C00895843E910599F138F4D1
:100DD000823E9105F9F0833E910509F10895863E22
:100DE000910599F1873E9105B9F1089520919C05EF
:100DF0002370A1F080EE90E0089520919C0520FDE5
:100E000052C030919D0530FF09C024FF4FC090E0D3
:100E100080E004C020919C0522FDF7CF0895209129
:100E20009C0522FD46C030919D0530FDE3CF24FF97
:100E3000F5CFEDCF20919D0521FFF0CF80919C054E
:100E400084FDE5CF87EE90E0089520919C0523FF77
:100E5000E5CF24FDDCCFF6CF20919C0523FD2CC0EF
:100E600030919D0531FFE3CF84EE90E0089520910D
:100E70009C0525FFD3CF89E290E0089520919C0541
:100E800025FFCCCF85E390E0089520919C0526FFB7
:100E9000C5CF8AE290E0089520919C0526FFBECF41
:100EA00081E390E0089589E390E0089583EE90E077
:100EB000089582EE90E0089586EE90E00895909176
:100EC0009C0592FF06C0282F28712830F9F4877FEF
:100ED000846093FF06C0282F28712831F1F4877EA3
:100EE000846120919D0520FF06C0382F387138306D
:100EF000D9F4877F816021FF06C0282F287128310F
:100F0000D1F4877E816194FD877E0895282F247116
:100F10002430F9F68B7F8860DCCF282F24712431B0
:100F200001F78B7E8861DDCF382F3171313019F7B1
:100F30008E7F8860E0CF282F2171213121F78E7EAE
:100F40008861E1CF08950C94A20708950C94A50739
:100F5000E82FF0E0EE59FB4F80810895089580EA74
:100F60008A95F1F7089500C008950C94AF07F8949E
:100F7000E82FE295EF70F0E041A18F7021E030E0C2
:100F8000B90102C0660F771F8A95E2F7CB01962F51
:100F90009095942391A392A1892B82A3789408958C
:100FA00008950F931F93CF93DF930E945E09809162
:100FB00038028091380296E0811190E090936F049E
:100FC00086E0891B80936E0485E30E94B70784E363
:100FD0000E94B70787E90E94B70786EF0E94B7070C
:100FE00086E60E94B70784E90E94B707C3E9D2E00A
:100FF0000AE912E089910E94B7070C171D07D1F783
:10100000E6E5F4E0A2E6B4E011921D9284E0E23657
:10101000F807D1F786E00E940A090E942205DF91B5
:10102000CF911F910F910C9468091F93CF93DF9379
:1010300000D000D000D0CDB7DEB70E944109182FF4
:1010400060916F04882309F456C01A821982FE0148
:10105000339684E0DF011D928A95E9F7862F90E0B0
:10106000BE016F5F7F4F8E599B4F0E9464198111A3
:1010700022C0809107038F5F809307038630C8F1F9
:10108000E0916E04F0E0EE59FB4FDE011196CE01C7
:10109000079611921D92A817B907D9F70E942C053F
:1010A000812F26960FB6F894DEBF0FBECDBFDF911D
:1010B000CF911F91089510920703A0916E04B0E0A4
:1010C000AE59BB4FBE016F5F7F4F9E01295F3F4FFF
:1010D00010E04D91FB019191BF01491731F0AD0135
:1010E00041505109FA019083182F6217730789F74D
:1010F000D5CF10E0D3CF70E06E597B4F80916E0456
:1011000090E08E599B4F0E949C190E94D007C8CF37
:10111000CF92DF92EF92FF920F931F93CF93DF93C3
:101120000AE912E086E5E82E84E0F82EC0E0CC243F
:10113000C394D12CF80181918F01F894E82FE295A6
:10114000EF70F0E021A18F70A60102C0440F551F7F
:101150008A95E2F7CA01922F982B91A392A18095CC
:10116000892382A378940E94B307E3E9F2E030E098
:1011700020E0D0E04191A42FA295AF70B0E090960E
:101180008C9190E04F7002C0959587954A95E2F753
:1011900080FD3CC08C2D022E01C0880F0A94EAF716
:1011A000D82B2F5F3F4F2730310521F7F8013197BA
:1011B00080810E94B7070E94B507F7018081D81788
:1011C00039F1D08381E0C82BFFEFEF1AFF0A42E02C
:1011D000003A140709F0AECF60916F0470E06E59C9
:1011E0007B4F2C2F46E086E594E00E940B090E947D
:1011F0001508C11101C0C82F8C2FDF91CF911F910D
:101200000F91FF90EF90DF90CF90089580E0C8CFCE
:1012100080E0D9CF0895FF920F931F93CF93DF9370
:10122000F82E092F162FD72FC42F222349F081E043
:1012300080930A030E94D8269093090380930803A1
:1012400080910A038823A1F08091080390910903FB
:101250000E940427069760F0EF2DF02FA12FBD2FDD
:10126000CE0FDF2FD11DEC17FD0741F410920A03BA
:10127000DF91CF911F910F91FF90089581918D93F0
:10128000F2CF80910B03811110C08091D800806152
:101290008093D8008AE18A95F1F700C08091D90047
:1012A00080FD0AC082E080930B0381E090910B03E4
:1012B000913009F080E0089581E0F5CF0E94C203EB
:1012C000809338020E94410981110C9458190895A5
:1012D0000E944109811102C00C945E19089584E0B6
:1012E000809370048FE780937104809172048078FA
:1012F000806480937204E0E1F3E08FEF819393E0E8
:10130000E835F907D9F710920F0310920E031092E7
:101310000D0310920C03089590917004292F2F70E3
:1013200095959595959595959F523CE0239F900DA9
:101330001124890F08950F931F93CF93DF9300D04B
:101340000F92CDB7DEB7DB0187372CE59207B0F4FB
:101350008F324CE59407D8F481E08A838A810F901C
:101360000F900F90DF91CF911F910F910895EB5E39
:10137000FB4C12962C912A830C949033FC01E75776
:10138000FC45E534F10598F341E04A83E7CF20912D
:101390007104322F331F3327331FE0917204E7703B
:1013A000EE0FE32BEB832F7729831296FC91FA83C0
:1013B00001ED080F10E0005F1C4FF8014081FA8139
:1013C000FF2391F04F3F11F01A82C8CF0E948C0981
:1013D0008A832981482F6B818EE995E00E948028BD
:1013E0002A81F8012083F0CF4F3F31F029816B81B2
:1013F0008EE995E00E9490288FEFF8018083AECFB0
:101400002A81222309F38757982F9F7080917004B7
:10141000807F892B80937004D7CF4A814423A1F227
:1014200080917004982F9F7079F2915F9F70F0CF38
:101430008A81882349F280917004982F9F70993097
:1014400018F69F5FF3CF2A81222309F4BDCF895874
:10145000982F9295907F809170048F70DACF4A8197
:10146000442309F4B1CF80917004982F95959595F8
:1014700095959595803B0CF4A7CF915F9295907FC1
:10148000ECCF8A81882309F49FCF80917004282FA4
:10149000259525952595259580360CF095CF91E0DD
:1014A000920F9295907F9595959595959595392F55
:1014B0003295307F8F70832B8093700412160CF05E
:1014C00083CF97FF81CF2295207F8F70822BA2CF71
:1014D0002A81222309F478CF82599CE0899F902D9C
:1014E00011249F7780917104807815C04A8144232C
:1014F00009F46ACF80917104982F9F7709F464CF23
:1015000080789F3721F48567809371045DCF9D308B
:10151000D8F39D509F77892BF7CF8A81882309F4D0
:1015200053CF80917104982F9F779F3709F44CCF48
:10153000933718F4935F9F77D7CF8F67E5CF2A81D2
:10154000222309F441CF8F599091710480FB97F9C0
:10155000909371048695877090917204987F892B7F
:10156000B3C04A81442309F42FCF20917104322F54
:10157000331F3327331F90917204892F8770880F90
:10158000832B815F382F3F7080FB27F920937104F4
:10159000832F8695987F982B9093720415CF8A811C
:1015A000882309F411CF20917104322F331F332780
:1015B000331F90917204892F8770880F832B8F5F60
:1015C000E1CF2A81222309F4FFCE60917104862F96
:1015D000881F8827881F609172046770660F682BC8
:1015E00020E04BE78EE995E00E947028EDCE4A811D
:1015F00020E041112FE760917104862F881F882712
:10160000881F609172046770660F682B40E4EACF10
:101610008A8120E081112FE760917104862F881F55
:101620008827881F609172046770660F682B41E4F9
:10163000D9CF2A8121112FE760917104862F881F4D
:101640008827881F609172046770660F682B42E4D8
:10165000C9CF4A81411111C020E060917104862FE9
:10166000881F8827881F609172046770660F682B37
:1016700043E4B8CF8A81882379F32FE7EECF2A811C
:101680008FEF211181E080930E039ECE4A81442387
:1016900009F49ACE90917204292F269526952695C5
:1016A0002F7081E0820F8F70880F880F880F9778D6
:1016B000892B80937204982F987709F085CE220F9A
:1016C000220F220F8778822B809372047DCE8A812D
:1016D000882309F479CE80917204982F987709F4C1
:1016E00073CE982F969596959695915F9F70990FCA
:1016F000990F990F877833CF60917104862F881FD7
:101700008827881F609172046770660F682BEA81D2
:1017100040E050EEE11117C050E040E08EE995E066
:101720000E94A0281BCE60917104862F881F8827F5
:10173000881F609172046770660F682BFA81FF231F
:1017400059F34FEF5FE18EE995E00E94A0283CCE6F
:101750008EE995E00E949F2A80910C0390910D03E1
:101760000E9404279C0190917204969596959695F7
:101770009F709217130609F0A0F50E94D826909347
:101780000D0380930C0380910E03882351F1609127
:101790007104862F881F8827881F609172046770E4
:1017A000660F682B20910F0341E08EE995E00E94BF
:1017B000702880910E0390910F0387FF0DC0482F72
:1017C000552741950CF45095941715062CF410925A
:1017D0000F0310920E030895890F87FD03C08093B5
:1017E0000F0308958FE7FBCFCF92DF92EF92FF9226
:1017F0000F931F93CF93DF93D62FC72F982F71117D
:1018000013C0442329F0E82FF0E0E456FB4F9491F5
:10181000692F792F892FDF91CF911F910F91FF9021
:10182000EF90DF90CF900895272F30E0E82FF0E081
:10183000442321F0E456FB4FE491F0E086E0D89F8A
:10184000700111240FEF10E0C701B8010E94493365
:101850008D2F90E0880F991FA5E5A69FA001A79F57
:10186000500D1124841B950BD82EDD0CD80EC80109
:10187000821B930B8E9FA0018F9F500D9E9F500D3A
:101880001124952FDC9EE0011124CD2FDD27D801F6
:10189000AC1BBD0BED01CE9FD001CF9FB00DDE9FE5
:1018A000B00D11248B2FE801CD19D1096E01C29E14
:1018B000E001C39ED00DD29ED00D1124CD2FDD2787
:1018C0000C1B1D0B0E9FE0010F9FD00D1E9FD00D16
:1018D00011242E2F63307105D9F03CEFE31633E06D
:1018E000F30668F461307105B9F062307105C1F03A
:1018F000AFEFEA16F10448F4852F9D2F06C064303F
:10190000710589F066307105B9F3692F722F83CFA5
:101910009B2F8E2F252FF9CF9E2F2B2F852FF5CF85
:101920008D2F9E2FF7CF8E2F2D2FEFCF41E00C94D0
:10193000F40B9C0190E080E0269F812D369F800D66
:10194000911D112408959C018230910508F4089599
:101950009FEF213E8EE1380740F4C90145E096959E
:1019600087954A95E1F798E0980F61E0E62FE90F37
:10197000FF27FF1FAF0155954795842F449FF00126
:10198000459FF00DF00D11242E173F0738F49FEFFF
:10199000940F961758F78FEF860F08954F3FE9F38E
:1019A00061E0640FF6CF982FE82F96FDE0952E2F7B
:1019B0002F7096FD2F5FE695E695E695E670F0E0D0
:1019C000EA55FD4F8181829F802D212D1124829522
:1019D0008F702295207F822B2081820F97FD819529
:1019E00080580895582FA22FE42FF0E0EE0FFF1F2C
:1019F000EC5AFE4F208134EE239F212D112490E0DC
:101A000030E0245E3F4F2A1B310937FF03C0319578
:101A10002195310943E0220F331F4A95E1F7821BDC
:101A2000930B97FD80E0282F259F212D1124822FD5
:101A30000895622F0895E42FF0E0EE0FFF1FEB5A98
:101A4000FE4F6081621B0895322F50E0FA01EE0FC5
:101A5000FF1FEB5AFE4F9081905297FD9195440FD6
:101A6000551FFA01EC5AFE4F2081231B330B290F1F
:101A7000311D97FD3A95620F0895EF920F93972FBE
:101A800023E0029FB0011124759567956E0D792FA3
:101A90000F91EF9008950F93CF93DF93D72FC82F17
:101AA000F90147FD419528E330E0241B310947FD4A
:101AB0003395229FA001239F500D500D1124EE9FBE
:101AC000C001EF9F900D900D1124840F951F0E946F
:101AD000A30C982F990F692F680F600F7D2F8C2F03
:101AE000DF91CF910F9108950F931F93522F10E024
:101AF000F801EE0FFF1FEB5AFE4FA081A052BB0B67
:101B00009D015203F001539FF00D1124000F111F8E
:101B1000D801AC5ABE4F0C910057110B40039001F5
:101B2000419F300D11242E0F3F1F37FF02C0215857
:101B30003F4F220F232F221F330B620F1F910F9154
:101B400008950F931F93522F10E0F801EE0FFF1F1F
:101B5000EB5AFE4FA081A052BB0B9D015203F00136
:101B6000539FF00D1124000F111FD801AC5ABE4F26
:101B70000C910057110B40039001419F300D11242F
:101B80002E0F3F1F37FF02C0215C3F4F96E0359577
:101B900027959A95E1F7620F1F910F91089522E81A
:101BA000241B08F420E0620F0895EF92FF920F9338
:101BB000282FC70135E0039F800D911D11248F3F11
:101BC000910519F010F08FEF90E08095382F230FDA
:101BD00008F42FEF822F0F91FF90EF900895EF926E
:101BE000FF920F93972FFA01B9019701093430F44E
:101BF000201B31092F3F310519F010F02FEF30E095
:101C00003896719740F0AB01485F5F4F4131510505
:101C100010F02FEF30E02095382F320F08F43FEF0F
:101C200077FF02C06D5F7F4F7595679575956795D6
:101C300080917504680F792F832F0F91FF90EF909B
:101C40000895EF92FF920F93282FC701801B9109EF
:101C50008F3F910519F010F08FEF90E0382F3095FD
:101C6000230F08F42FEF680F822F0F91FF90EF9052
:101C70000895EF92FF920F93282FC701801B9109BF
:101C80008F3F910519F010F08FEF90E08095382F7D
:101C9000230F08F42FEF822F0F91FF90EF900895FC
:101CA000FC019B01009729F480E077FF2BC080E8BE
:101CB0000895AC0197FF04C044275527481B590BD2
:101CC000B901640F751F37FD10C0241B350BC90106
:101CD000A5E0880F991FAA95E1F70E945D3380E285
:101CE000861BF7FF0FC081950895CB0165E0880F33
:101CF000991F6A95E1F7BA01621B730B0E945D336D
:101D000080E6EECF08950F931F93CF93DF93D62FE6
:101D1000C72F182FBA01C901212F201B022F0E94A3
:101D2000500E982F990F990F282F291B200F219FB4
:101D3000212D11246D2F7C2F822FDF91CF911F91A8
:101D40000F910895EF920F931F93CF93DF93D62FA8
:101D5000C72F182FBA01C9010E19010F0E94500E8A
:101D6000081B019F012D11246D2F7C2F802FDF91E7
:101D7000CF911F910F91EF9008950F93CF93DF9321
:101D8000D72FC82FBA01C9010E94500E682F600FCB
:101D90007D2F8C2FDF91CF910F910895EF920F93AC
:101DA000CF93DF93D72FC82FBA01C9010E190E9414
:101DB000500E602F681B7D2F8C2FDF91CF910F91DC
:101DC000EF9008950C94960C45E050E06CE170E0C3
:101DD00084E794E00C94C13345E050E06CE170E09E
:101DE00084E794E00C94DF33E4E7F4E085E080835B
:101DF0008091620290916302A09164028183928338
:101E0000A3838FE784830C94EC0E80E008950F93F6
:101E10001F93CF93DF93C82FD62F8A010E94050FFF
:101E200097E0C99F9001112420503F4F2D0F311D85
:101E3000F90190819F3F29F0F801E80FF11D90838F
:101E40008F5FDF91CF911F910F910895E091B402C0
:101E5000F091B5020994E091B002F091B1020994B9
:101E60005F926F927F928F929F92AF92BF92CF922A
:101E7000DF92EF92FF920F931F93CF93DF934C016A
:101E80003B01FC01C081C295C07F10E11C0F512EA7
:101E90001D3410F09CE4592E609178046695809171
:101EA000790490917A040E94990CF82ED0E0C5151F
:101EB000A0F081E01C3408F080E0DF91CF911F9109
:101EC0000F91FF90EF90DF90CF90BF90AF909F90D9
:101ED0008F907F906F905F900895FE01E451FE4FC8
:101EE0008081F40191818923B9F19E01220F331F72
:101EF000F901EC5AFE4F8081482F4057550B6A017B
:101F00002B5A3E4FF9018081282F2052330B590163
:101F1000449F9001459F300D300D1124AA9CC001B3
:101F2000AB9C900D900D1124820F931F0E94A30C67
:101F3000082F609175047091760480917704EF2CDE
:101F40009501A601F30109950E94E20E462F672F25
:101F5000282FCE010E942B0F2196A9CF62EA7EE0A6
:101F60000C94300F6DE37DE00C94300F6EEC7EE04E
:101F70000C94300FAF92BF92CF92DF92EF92FF920C
:101F80000F931F93CF93DF937C016B01FC01C08102
:101F9000C295C07F10E11C0FA12E1D3410F09CE4EF
:101FA000A92E6091780466958091790490917A04C5
:101FB0000E94990CB82ED0E0CA1578F081E01C344C
:101FC00008F080E0DF91CF911F910F91FF90EF908B
:101FD000DF90CF90BF90AF900895FE01E451FE4F87
:101FE0008081F7019181892301F1AE01440F551FD2
:101FF000FA01EB5AFE4F20812052330B4C5A5E4FB0
:10200000FA0140814057550B609175047091760438
:10201000809177040B2DF60109950E94E20E462F60
:10202000672F282FCE010E942B0F2196C5CF63E882
:102030007EE00C94BA0F6BE47DE00C94BA0F6DEB6C
:102040007EE00C94BA0FBF92CF92DF92EF92FF9294
:102050000F931F93CF93DF938C016B01FC01C08121
:10206000C295C07F90E1F92EFC0EBF2CFCE4FF1559
:1020700010F48CE4B82E6091780466956695809192
:10208000790490917A040E94990CE82ED0E0CB1547
:1020900078F081E09BE49F1508F480E0DF91CF9118
:1020A0001F910F91FF90EF90DF90CF90BF90089518
:1020B000FE01E451FE4F8081F8019181892391F066
:1020C0006091750470917604809177042E2D4C2FC9
:1020D000F60109950E94E20E462F672F282FCE01A8
:1020E0000E942B0F2196D3CF62EF7CE00C9423103B
:1020F00069E17DE00C9423106BE17DE00C942310EA
:1021000064E27DE00C9423109F92AF92BF92CF9235
:10211000DF92EF92FF920F931F93CF93DF9300D044
:1021200000D00F92CDB7DEB76C015B01FC01F081EE
:10213000F295F07FFB8390E1F92EFF0E9F2C8CE44B
:102140008F1510F48CE4982E60917804669566954E
:102150008091790490917A040E94990C182F80E460
:10216000810F0E94D30C80588983812F0E94D30C49
:1021700080588A83FB81EF2FF0E0FD83EC839C8104
:102180009915B0F081E0EBE4EF1508F480E00F90D2
:102190000F900F900F900F90DF91CF911F910F91A3
:1021A000FF90EF90DF90CF90BF90AF909F900895F9
:1021B000EC81FD81E451FE4F8081F60191818923FC
:1021C000A9F0609175047091760480917704E12EF6
:1021D0000C812A814981F50109950E94E20E462F62
:1021E000672F282F8C819D810E942B0F8C819D81D0
:1021F00001969D838C83C3CF64E77DE00C948410AB
:1022000061EA7DE00C948410AF92BF92CF92DF928E
:10221000EF92FF920F931F93CF93DF937C016B019B
:10222000FC01C081C295C07F20E1B22EBC0EAB2C58
:10223000FCE4FB1510F49CE4A92E2091780430E016
:1022400050E040E06FEF7FEF80E090E00E9471335C
:102250008901D0E02C2FCA1580F081E0FBE4FB154A
:1022600008F480E0DF91CF911F910F91FF90EF90E4
:10227000DF90CF90BF90AF900895FE01E451FE4FE4
:102280008081F70191818923F1F040917D044150D3
:10229000042E000C550B47FF18C0C801609178044C
:1022A0000E94990CAC016091750470917604809144
:1022B0007704F60109950E94E20E462F672F282F1A
:1022C000CE010E942B0F2196C5CFFA01E358FB4F98
:1022D000858982130AC0FA01EE0FFF1FE358FB4FF6
:1022E000878D90A180179107C8F241505109D3CF33
:1022F0006FEC7DE00C9404112F923F924F925F920D
:102300006F927F928F929F92AF92BF92CF92DF9205
:10231000EF92FF920F931F93CF93DF93CDB7DEB76A
:102320002B970FB6F894DEBF0FBECDBF8E832B0167
:102330004B835C83FB01F081F295F07FF983F05FC2
:10234000FA83FD83FD3410F02CE42D8330917D045D
:102350003F839981892F90E09B878A87880F991FF7
:10236000FC01EC5AFE4F6F01FE818F2F90E09C0123
:102370002F5F3F4F39872887ED81FA85FE17F0F0F0
:1023800081E02A812C3408F080E02B960FB6F89477
:10239000DEBF0FBECDBFDF91CF911F910F91FF9098
:1023A000EF90DF90CF90BF90AF909F908F907F90F5
:1023B0006F905F904F903F902F900895EA85FB8536
:1023C000E451FE4F8081F2019181892301F1209037
:1023D0007504309076042885398523583B4F3901A0
:1023E0003E81398310E029813F812317C8F0209175
:1023F0007704129F112D1124B101812F0E94E20E4A
:10240000462F672F282F8A859B850E942B0F8A8550
:102410009B8501969B878A8792E0C90ED11CACCF21
:10242000F30181913F01F601A080A81ABB088180C9
:10243000F3018185881A9908AA9C9001AB9C300D04
:10244000300D1124889CC001899C900D900D1124A1
:10245000820F931F0E94A30C082FF301EE0FFF1FA2
:10246000ED57F44060917804838D948D0E94990C0F
:102470007C019401A501B101812FEB81FC810995BB
:102480001B01182FF981FF5FF983ADCFBC0145ED2A
:102490005DE080E00C947C11BC014FEE5DE080E0DB
:1024A0000C947C11BC0141E25EE080E00C947C1154
:1024B000BC0149E35EE080E00C947C11BF92CF92B6
:1024C000DF92EF92FF920F931F93CF93DF938C01D4
:1024D000FC01C081C295C07F90E1F92EFC0EBF2C9B
:1024E000FCE4FF1510F48CE4B82E60917504709133
:1024F0007604809177040E94E20EE62ED72EC82E35
:10250000D0E0CB1578F081E09BE49F1508F480E0E3
:10251000DF91CF911F910F91FF90EF90DF90CF90BF
:10252000BF900895FE01E451FE4F8081F801918132
:10253000892331F02C2D4E2D6D2DCE010E942B0FB5
:102540002196DFCFE091B202F091B3020994CF92CD
:10255000DF92EF92FF920F931F93CF93DF93CDB74C
:10256000DEB72A970FB6F894DEBF0FBECDBF182F87
:10257000062FF42E0E944109882309F44BC0FF2046
:1025800009F457C0AE014F5F5F4F602F812F0E944B
:10259000070FF82EE09058030F2D10E0C8018E0DA4
:1025A000911D0B9764F18AE090E06C01C01AD10A8A
:1025B000B801675A7C4FA60189E593E00E94B833C1
:1025C000B8016D597C4FA60183E693E00E94B833B1
:1025D000A601440F551FB801660F771F69587C4F3D
:1025E00087E793E00E94B833B80163597C4FA60196
:1025F0008DE693E00E94B833EA94E092580310917C
:102600005803DE01119680E0282F210FF81213C025
:10261000209358032A960FB6F894DEBF0FBECDBFA5
:10262000DF91CF911F910F91FF90EF90DF90CF90AE
:102630000895F12CAFCF9D91492F50E030E0B901C2
:10264000685A7C4FFA01EE0FFF1FEC5AFE4F0081D3
:10265000FB010183440F551FFA01EB5AFE4F4081E5
:10266000FB014387958B220F331FF901E85AFC4F7A
:1026700010A2178E8F5FC8CF08950E943C130C9450
:10268000FC0308950895CF93DF93FC01C081C150EE
:10269000C295C07FD0E1DC0FDD3408F0DCE46D2FA3
:1026A0008C2F0E9441136D2F8C2FDF91CF910C94B2
:1026B00042134F925F926F927F928F929F92AF924E
:1026C000BF92CF92DF92EF92FF92CF93DF9300D031
:1026D00000D0CDB7DEB780918B0390918C03A09191
:1026E0008D03B0918E0389839A83AB83BC83BC0135
:1026F000CD010E94C1276B017C010E94902760934D
:102700008B0370938C0380938D0390938E03A09121
:102710005803E8E5F3E02A2F30E088248A94982CC7
:10272000A12CB12C8C189D08AE08BF08A3132FC094
:102730002093580320918F0321113CC020917404F1
:10274000A22FA370A983AA2319F026952695298381
:1027500020913902223009F4F4C070F5211142C0F1
:1027600010923A026093790470937A0480937B0408
:1027700090937C0483E3E8E5F3E0ADE7B4E00190F7
:102780000D928A95E1F781E08093390218C0478D58
:1027900050A12A01712C612C84149504A604B7045D
:1027A00020F421503F5F3296C1CF4C0D5D1D50A3E8
:1027B000478FF8CF1982CCCF233009F4CEC00F90C9
:1027C0000F900F900F90DF91CF91FF90EF90DF90DF
:1027D000CF90BF90AF909F908F907F906F905F90C1
:1027E0004F90089580913D02B981B81317C0909120
:1027F0007404937020913E0230E081E0921713063A
:1028000009F480E0817080933C023981333178F49F
:10281000E32FF0E0E65AFB4C0C94903381E0F2CFCA
:10282000882359F040E060E080E00E94A21280E03E
:1028300004C08AE392E00E945E1290913A029F5F88
:1028400090933A02811178C082E08093390280919E
:102850003C02811171C08981882309F47CC00E94E7
:102860003D138AE392E00F900F900F900F90DF914D
:10287000CF91FF90EF90DF90CF90BF90AF909F905F
:102880008F907F906F905F904F900C9443138AE3EA
:1028900092E00E947410D1CF8AE392E00E94171058
:1028A000CCCF8AE392E00E94AE0FC7CF8AE392E0DA
:1028B0000E947810C2CF8AE392E00E947C10BDCFC4
:1028C0008AE392E00E948010B8CF8AE392E00E94EF
:1028D000B20FB3CF8AE392E00E941B10AECF8AE31F
:1028E00092E00E941F10A9CF8AE392E00E94B60FE7
:1028F000A4CF8AE392E00E94FC109FCF8AE392E08B
:102900000E9400119ACF8AE392E00E94781195CF3D
:102910008AE392E00E94461290CF8AE392E00E94FE
:102920004C128BCF8AE392E00E94521286CF8AE348
:1029300092E00E94581281CF9981992309F43FCFE8
:102940008ECFA981A0933D028091740483708093FF
:102950003E020E94260F83E017CF80917904909168
:102960007A04A0917B04B0917C04BC01CD010E944B
:10297000C127603171058105910508F420CF1092BF
:1029800039021DCFE091AE02F091AF02099510928D
:102990007D04ECE9F4E08FEF9FEF8193919324E0C5
:1029A000E03BF207D1F710925803E7E7F3E08FEF2F
:1029B0009FEF8193919323E0EB38F207D1F70E94C8
:1029C0007025811104C00E9409260E94F40E0E9405
:1029D000E40E809174048C7F11F40C94F40E08952D
:1029E0009091740421E0922790937404109239021C
:1029F00081110C94EC0E089581E00C94F0148091F8
:102A00007404837011F410923902809174048C7FE5
:102A100081608093740408950E94FF140C94EC0E5E
:102A2000809174048370089590917404937099F068
:102A3000811109C094609093740410923902662346
:102A400051F00C94EC0E833110F09864F4CF880FA1
:102A5000880F982BF0CF089561E00C941415682F1F
:102A600080917404869586958F5F833108F081E0AC
:102A70000C94141581E00C942F15682F9091740418
:102A8000969596958FEF890F913009F482E10C9419
:102A9000141581E00C943D1590917404937061F0CD
:102AA0008093750460937604433308F042E34093C7
:102AB000770421110C94EC0E089521E00C944C1530
:102AC000282FE4E7F4E09181892F90E0438162812F
:102AD00008960C944C1581E00C946015282FE4E7BF
:102AE000F4E08181438162818850990B0C944C15EC
:102AF00081E00C946E15282FE4E7F4E0628130E168
:102B0000630F08F46FEF8181438190E00C944C15C2
:102B100081E00C947B15282FE4E7F4E0628130E13A
:102B2000631B08F460E08181438190E00C944C15B4
:102B300081E00C948B15282FE4E7F4E0438130E129
:102B4000430F08F44FEF8181628190E00C944C15A3
:102B500081E00C949B15282FE4E7F4E0438130E1F9
:102B6000431B08F440E08181628190E00C944C1595
:102B700081E00C94AB15809378040C94EC0E2091BA
:102B8000780430E1230F08F42FEF209378048111AB
:102B90000C94EC0E089581E00C94BF1520917804FC
:102BA00030E1231B08F420E02093780481110C9479
:102BB000EC0E089581E00C94CE150895FC01EE0F03
:102BC000FF1FE80FF91FE055FB4F6183408322830D
:102BD0000895E0EBF4E0818360834283339695E0CF
:102BE000E439F907C1F708956CE470E080EB94E0F4
:102BF0000C945816FA0181110994FB01FDCF1F9323
:102C0000CF93DF93EC01FB011281111110C00E94E0
:102C100046258272FE01E35CFC45E431F10508F0D3
:102C200045C0E359FB4C0C9490330E94FC14812F57
:102C3000DF91CF911F91089549E455E16AE375E171
:102C40000E94FA15F4CF4AE355E169E475E1F8CF43
:102C500048E755E16BE675E1F3CF4BE655E168E7F0
:102C600075E1EECF48E955E168E875E1E9CF48E85C
:102C700055E168E975E1E4CF48EB55E168EA75E1B3
:102C8000DFCF48EA55E168EB75E1DACF4AED55E16F
:102C90006BEC75E1D5CF4BEC55E16AED75E1D0CF2A
:102CA00081E00E942C15C3CF8AE0FBCF11E0BFCF9B
:102CB0009C01AB01539A6BB1677F7BB17860EFB732
:102CC000F894CA01880F991F840F951F820F931FD4
:102CD0008217930741F4EFBF8FE594E00197F1F776
:102CE00000C000000895D9014D919D0158E07BB9C5
:102CF000000000C047FF6BB9440F000000C000C0D7
:102D000000C06BB900C05A9591F7E2CF0C94C7048C
:102D100080913802811106C085EF8093400284EFD4
:102D200080933F0220914002A22FA295AF70B0E0A5
:102D300091963C9191972F7081E090E0BC01022E1A
:102D400001C0660F0A94EAF7462F409543239196F7
:102D50004C93919792963C919297362B92963C93F6
:102D6000929740913F02E42FE295EF70F0E031A19D
:102D70004F70042E01C0880F0A94EAF7982F90959F
:102D8000932391A392A1892B82A390968C9190E09A
:102D900002C0959587952A95E2F7817020A130E0D1
:102DA00002C0359527954A95E2F792E020FF90E022
:102DB000892B809395039091380281E09827909316
:102DC0009103891B809390030895CF93E09195031D
:102DD000EE0FEE0F20914002A22FA295AF70B0E04F
:102DE00090968C9190E02F7002C0959587952A95CA
:102DF000E2F78170992740913F02A42FA295AF700E
:102E0000B0E090962C9130E04F7002C03595279538
:102E10004A95E2F7A9014170552720FF02C042E020
:102E200050E0842BE82BE0939503C0919103EF7061
:102E3000F0E0EA54FD4F808190919403890F8093D4
:102E4000940320E0843074F0EC2F0C2E000CFF0B68
:102E5000EE56FC4F80818F5F808360E08C2F0E9454
:102E6000861621E0809194038D3F74F4EC2F0C2E94
:102E7000000CFF0BEE56FC4F80818150808361E097
:102E80008C2F0E94861621E080919403082E000C5E
:102E9000990B64E070E00E945D3380939403822F6D
:102EA000CF910895E0919103F0E0EE56FC4F208120
:102EB000FC0120830895FF920F931F93CF93DF931C
:102EC000D09190030D2F10E00E561C4FFC01C081D5
:102ED000F8018081C81BFC2E80E01F147CF09C2F21
:102EE000C7FD90E0C91BC11114C08823E9F0DF9130
:102EF000CF911F910F91FF900C94781BFA94F801D9
:102F000080818F5F808360E08D2F0E94861681E034
:102F1000E4CFCF5FF80180818150808361E08D2F05
:102F20000E94861681E0DFCFDF91CF911F910F9134
:102F3000FF9008950F931F93CF93DF93C42FD22F49
:102F4000FC0182818823C9F0409398030E94D8260F
:102F5000909397038093960380E28C0F883008F05B
:102F600050C0C77081E001C0880FCA95EAF7DF91B1
:102F7000CF911F910F910C941C1D10919803141365
:102F800035C080919603909197030E940427883C56
:102F9000910560F5C0E2CD0F1D17B9F080E2810FF9
:102FA000883040F4177081E001C0880F1A95EAF765
:102FB0000E94231DC83048F481E09D2F977001C006
:102FC000880F9A95EAF70E941C1D802F0E94141DFD
:102FD000C830B8F4D77081E001C0880FDA95EAF7FD
:102FE000DF91CF911F910F910C94231D80E28C0FE4
:102FF000883038F4C77081E001C0880FCA95EAF7BD
:10300000EFCFDF91CF911F910F9108950F939C0106
:10301000CB01243F4CE53407A1F190F4293DFCE5B8
:103020003F0749F12A3D4CE53407E9F1283D3C458D
:10303000C1F0FC0182818823E1F11092980319C04C
:10304000263FFCE53F0719F1273F4CE5340729F1FE
:10305000253F3C4571F707E225EE44EE65EF7CE540
:1030600005C006E221EE41EE68ED7CE50E949A176C
:1030700080E00F91089507E225EE45EE69ED7CE5CD
:10308000F5CF06E221EE40EE64EF7CE5EFCF06E2FD
:1030900021EE42EE66EF7CE5E9CF07E225EE46EE53
:1030A00067EF7CE5E3CF08E221E045EE6AED7CE5E1
:1030B000DDCF81E0DECFCF93DF93EC01FB01828196
:1030C000882309F4C9C0C631FCE5DF07E0F4C2304B
:1030D0009CE5D907F0F00E94832590939D0580938D
:1030E0009C05C631ECE5DE0720F5C230FCE5DF07C4
:1030F00098F480919C0590919D050E9491250E94D5
:103100006D1F80E006C09E012B5F3C4529303105D4
:1031100010F3DF91CF910895FE01E350FC458091BB
:103120009C058160E331F10588F4EF57FB4C0C946A
:103130009033CB5FDC45C930D105D8F6CC56DB4C9B
:10314000FE010C94903380919C05826080939C05D5
:10315000D0CF80919C058460F9CF80919C058860D8
:10316000F5CF80919D05816080939D05C2CF8091B0
:103170009D058260F9CF80919C058061E7CF8091A9
:103180009C058062E3CF80919C058064DFCF0E9424
:103190006D1F80919C058068D9CF80919C058C60C3
:1031A000D5CF80919D058360DFCF80919C058E7F78
:1031B000CDCF80919C058D7FC9CF80919C058B7F61
:1031C000C5CF80919C05877FC1CF80919D058E7F63
:1031D000CBCF80919D058D7FC7CF80919C058F7E41
:1031E000B5CF80919C058F7DB1CF80919C058F7B61
:1031F000ADCF0E946D1F80919C058F77A7CF8091E6
:103200009C05837FA3CF80919D058C7FADCF80915E
:103210009C0582FB992790F921E0922790FB82F987
:1032200090FB83F993CF80919D05982F9095917095
:103230008E7F892B90FB81F997CF0E946D1F909113
:103240009C05892F97FB87F9805880CF81E00E94E9
:103250000B264FCF80E0FBCF81E05BCFCF93DF9396
:10326000EB0186319C4511F50E9446259A819923F0
:1032700099F08A7A91E009F490E090939903811192
:1032800009C089E20E9413250E94272580E0DF9172
:10329000CF91089585E3F6CF80919903811104C001
:1032A00089E20E941A25F0CF85E3FBCF81E0EFCFC2
:1032B00061E070E081E492E00C942F1A61E070E02C
:1032C00081E492E00C94361ACF93DF9300D000D0C3
:1032D0000F92CDB7DEB76D8379830E94D01A9C011F
:1032E00080E02115310501F5ED81F981D901A15663
:1032F000BC4F8C9181932F5F3F4F26303105B1F742
:1033000085EA93E00E945B170E949027DC01CB01C5
:103310000296A11DB11D80939B0390939C03A093E3
:103320009D03B0939E0381E00F900F900F900F903C
:103330000F90DF91CF910895CF93DF9300D000D00D
:1033400000D0CDB7DEB76E837D8380919B039091D3
:103350009C03A0919D03B0919E0389839A83AB83C4
:10336000BC83BC01CD010E946727EE81FD8190E006
:1033700080E02191DC01A156BC4F2C930196863050
:103380009105B9F785EA93E026960FB6F894DEBF6B
:103390000FBECDBFDF91CF910C9452178EE14A9BA7
:1033A00002C08150E1F74A9BFECF08955A9880E20F
:1033B0008A95F1F75A9A0895FC013BE03A95F1F7A6
:1033C00098E020E080E031E040E14A95F1F7880F95
:1033D0004A9B02C08160232742E04A95F1F7000032
:1033E00040E14A95F1F7915079F790E19A95F1F71C
:1033F00099B132E03A95F1F7000040E14A95F1F7D2
:1034000092FB992790F992272081920F908308953B
:10341000EF92FF920F931F93CF93DF930F92CDB74D
:10342000DEB719828C017C01E60EF11C0E151F051A
:1034300061F481E09981911180E00F90DF91CF914B
:103440001F910F91FF90EF9008950E94CE19CE0129
:1034500001960E94DC19F80181938F01E7CF9093C8
:10346000A7038093A603529A5A9A08959093A703AC
:103470008093A60352985A9AEA9AE9E6F0E080818E
:103480008F7C808308956150770B91E001C0990F84
:103490006A95EAF720E031E0911108C0222391F00B
:1034A0005A9A80E28A95F1F75A980895492F48234D
:1034B00039F05A9A232740E24A95F1F79695ECCFD6
:1034C0005A98F9CF5A98EDCFFF920F931F93CF934D
:1034D000DF93EC018C01060F111DC017D10731F4E9
:1034E000DF91CF911F910F91FF900895F9900E9465
:1034F000D61968E08F2D0E94431AEFCF1F920F92CA
:103500000FB60F9211242F933F934F935F936F93B6
:103510007F938F939F93AF93BF93CF93DF93EF935B
:10352000FF935A98529AC091A603D091A7036D8138
:10353000662321F08E819F810E94641A0E94D61911
:1035400080E18A95F1F75A9852985A9A80E18A95C3
:10355000F1F76A81662309F18B819C810E94081A28
:10356000E881F981882311F088E001C082E080833E
:103570000E94CE19FF91EF91DF91CF91BF91AF9152
:103580009F918F917F916F915F914F913F912F917B
:103590000F900FBE0F901F901895E881F981E4CF2E
:1035A000CF93DF93C091A603D091A703F894529ACA
:1035B0005A9885E08A95F1F7000052985A9A80E26D
:1035C0008A95F1F74A9B0CC0529A5A9AE881F98180
:1035D00081E08083789481E090E0DF91CF9108953D
:1035E0006D81662381F08E819F810E94081A81116E
:1035F0000AC0529A5A9AE881F98182E080837894CD
:1036000082E090E0EACF0E94CE1980E28A95F1F73D
:103610005A98529A80E18A95F1F76A81662321F0DF
:103620008B819C810E94641A0E94D619E881F981DD
:103630001082789490E080E0D0CF9093AD03809397
:10364000AC030895E091AC03F091AD03309721F005
:103650000190F081E02D099480E00895E091AC03A1
:10366000F091AD03309721F00280F381E02D0994B1
:1036700008952091AA033091AB032817390771F000
:103680009093AB038093AA03E091AC03F091AD0358
:10369000309721F00680F781E02D0994089520915C
:1036A000A8033091A9032817390771F09093A90353
:1036B0008093A803E091AC03F091AD03309721F023
:1036C0000084F185E02D099408950E94E42660931A
:1036D000C3037093C4038093C5039093C6036093A0
:1036E000BF037093C0038093C1039093C2030895F6
:1036F0000E94E4266093C3037093C4038093C503C0
:103700009093C6036093BB037093BC038093BD0387
:103710009093BE03089585B7806885BF85B780689C
:1037200085BF0895089508950C94921B0C94ED03A1
:103730000E948B1B8EE695E20E9409280E94931B33
:103740000C94941B0C944109089508950E94CF266F
:103750000E945E270E94D1070E940E280E948816B0
:103760000C94961BAF92BF92CF92DF92EF92FF9292
:103770000F931F93CF93DF9300D000D00F92CDB75C
:10378000DEB70E94A41B0E94A51B0E94880881111D
:103790000E94651B8FEAA82E83E0B82E10E000E09F
:1037A000C02E802F0E94A807F82EF501E1905F013E
:1037B000E81216C00F5F1F4F0C30110589F78FEF0D
:1037C00089838A831B820E94D8268160782F9D83FB
:1037D0008C8349815A816B818D810E945C1C32C02F
:1037E00080914A0481FD0E94AE078E2D8F25E12C29
:1037F000DD24D394982F9D2109F448C00E94A21B78
:10380000FD20BB24B394F11001C0B12C882379F0C2
:10381000E982CA82BB820E94D8268160782F9D836C
:103820008C8349815A816B818D810E945C1CF801D7
:10383000E155FC4F8081D826D0824B2D6E2D8C2DEA
:103840000E94A7120E9459130E94E51681110E943E
:10385000781B0E94A80B0E94221B9091AE0389172F
:10386000D9F00E94221B8093AE030F900F900F900F
:103870000F900F90DF91CF911F910F91FF90EF90DC
:10388000DF90CF90BF90AF900C94D805E394DD0CFF
:10389000F7E0EF12AFCF8ECF0F900F900F900F90F9
:1038A0000F90DF91CF911F910F91FF90EF90DF90DC
:1038B000CF90BF90AF900895DF92EF92FF920F9359
:1038C0001F93CF93DF93CDB7DEB72B970FB6F89446
:1038D000DEBF0FBECDBF7A878B87F42E052F162F44
:1038E000E72ED82E61110E9468257E2DEC82DD82A4
:1038F0004F2D502F612F8D2D90E02B960FB6F89401
:10390000DEBF0FBECDBFDF91CF911F910F91FF9012
:10391000EF90DF900C94D021FC01808191810C9478
:10392000DD24CF93C82F8823F1F18CEF8C0F813ADF
:10393000A0F46C2F8091490290914A020E941026B7
:10394000882329F08C2F0E941A250E9427258C2F6E
:103950000E941325CF910C94272580E28C0F88308C
:1039600048F4C77081E001C0880FCA95EAF70E9449
:103970004925F0CF8BE58C0F833038F42C2F24525F
:10398000330BC901CF910C94391BC85AC73158F475
:10399000EC2FF0E0EE0FFF1FEA53FD4F8081918185
:1039A000CF910C944F1BCF910895882329F19CEF60
:1039B000980F913A20F40E941A250C94272590E242
:1039C000980F983050F4877091E001C0990F8A9554
:1039D000EAF7892F0E944F25F0CF9BE5980F93308F
:1039E00020F490E080E00C94391B885A873120F451
:1039F00090E080E00C944F1B08951F93CF93DF93CA
:103A0000182FEB010E94911C209731F4812FDF9138
:103A1000CF911F910C94D51C8FE99FE00197F1F78E
:103A200000C000002197F0CF6AE070E0893311F404
:103A300060E570E00C94FD1C882321F00E9449256C
:103A40000C9427250895882321F00E944F250C947B
:103A5000272508958F929F92AF92BF92CF92DF92C7
:103A6000EF92FF921F93CF93DF9300D000D00F927D
:103A7000CDB7DEB7FC016983972F2281358132955E
:103A80003F70172F12951F70183009F4C1C0C0F590
:103A90001430C0F4872F8F708D83907F123008F41C
:103AA00041C08D81903211F08295807F9981913053
:103AB00009F076C0222309F46DC0363030F40E943C
:103AC0001C1D03C0143009F489C0212F2850330B6A
:103AD0002430310508F0ABC10E94221B0F900F90DB
:103AE0000F900F900F90DF91CF911F91FF90EF906B
:103AF000DF90CF90BF90AF909F908F900C94D8059F
:103B0000193009F43FC186E0810F8F708230E8F6EA
:103B10008981823F09F046C1872F8F71222309F4E2
:103B20006BC13DC1992329F08D80829480EF88225A
:103B30008D822223B9F09D80992061F08981805E79
:103B4000883018F0A980A11009C08D810E944925F4
:103B50000E94272589810E94911CB7CF8D810E94E8
:103B60005A25F6CF89810E94D51CBD80BB2009F45F
:103B7000ACCF8981805E883018F08980811006C0C2
:103B80008D810E944F250E9427259FCF8D810E9405
:103B90006025F9CF353008F098CF0E94231D95CFCE
:103BA000222349F0332309F48ACF958190FFD2CFA5
:103BB0009F70958384CF332381F32981293309F0C2
:103BC0002EC13FEF87EE93E0315080409040E1F707
:103BD00000C0000089810E94D51C77CF872F869571
:103BE0008695837061F0813009F06FCF8981937081
:103BF000211102C090E080E00E944F1B66CF8981B6
:103C00009370211102C090E080E00E94391B5DCFCB
:103C1000872F837009F058C0211157CF2981229531
:103C200026952770220F220F89818F70C82ED12CE4
:103C3000F12CE12C022E04C0CC0CDD1CEE1CFF1C70
:103C40000A94D2F7898040E050E0BA0184FE0FC0A8
:103C50004FE050E060E070E004C0440F551F661F65
:103C6000771F2A95D2F74095509560957095969557
:103C7000969593704A015B018C289D28AE28BF2839
:103C800089829A82AB82BC82923081F09330A9F013
:103C9000913029F0C501B4010E94AA2216CF698192
:103CA0007A818B819C810E9482220FCF69817A81E7
:103CB0008B819C810E94D22208CF69817A818B817D
:103CC0009C810E94802201CF8695222311F0872FAC
:103CD0008170882309F4F9CE2981229526952770D1
:103CE000220F220F89818F70C82ED12CF12CE12C4C
:103CF000022E04C0CC0CDD1CEE1CFF1C0A94D2F773
:103D0000998040E050E0BA0194FE0FC04FE050E0CF
:103D100060E070E004C0440F551F661F771F2A95AE
:103D2000D2F74095509560957095969596959370BD
:103D30004A015B018C289D28AE28BF2889829A827F
:103D4000AB82BC82923081F09330A9F0913029F09F
:103D5000C501B4010E94F323B8CE69817A818B81B9
:103D60009C810E94CB23B1CE69817A818B819C8119
:103D70000E941B24AACE69817A818B819C810E943A
:103D8000FE22A3CE9F709D83222329F0892F0E94BB
:103D90003423898194CE89810E94231D8D810E94C4
:103DA000652393CE8981833F58F4803F99F0813F0A
:103DB000F9F0222339F13111CDCE892F8F711CC03A
:103DC0008981833FB1F72223D1F0872F8F710E9421
:103DD0000F237BCE222341F0353008F076CE892F99
:103DE0008F710E949A2371CE363008F06ECEF7CFD5
:103DF000872F8F71222399F20E94342366CE0E946E
:103E00000A2363CE332381F09981993341F42FEF54
:103E100037EE83E0215030408040E1F7D9CE8FE388
:103E20009CE90197F1F7D4CE892F8F71B8CF0F900D
:103E30000F900F900F900F90DF91CF911F91FF90F7
:103E4000EF90DF90CF90BF90AF909F908F900895AC
:103E50000F931F93CF93DF93EC01688179818A815F
:103E60000E94E9248C010E9443240E947F22B80111
:103E7000CE01DF91CF911F910F910C942A1DCF930A
:103E8000DF93EC018B819C81892B29F088819981BA
:103E900089238F3F19F4DF91CF910895CE010E94BD
:103EA0003E058823C1F3CE010E94281FCE01DF9179
:103EB000CF910C94150590E080E00E94391B90E0B2
:103EC00080E00E944F1B0E9468250E946B250C9485
:103ED00027250E9421250C945B1F0E9457250C94D6
:103EE000691F282F892F82958F70903C80F48A302B
:103EF000B0F4843020F4823090F480E0089586306D
:103F0000E1F781E0283E88F0213FB9F70EC08C3000
:103F100011F08F3091F793FB882780F9089581E0A5
:103F2000203F39F018F4283E40F70895243F29F740
:103F3000FCCF08950E94DD240C94711FCF93DF9372
:103F400000D000D00F92CDB7DEB70F900F900F903A
:103F50000F900F90DF91CF910895CF93DF9300D012
:103F600000D000D0CDB7DEB726960FB6F894DEBFEE
:103F70000FBECDBFDF91CF9108951F93CF93DF93F5
:103F8000E091C80316E08091C9038E1304C0DF914D
:103F9000CF911F910895CE2FD0E01E9FF0011124E4
:103FA000E653FC4F40815181628173818481958108
:103FB0000E94AD1FFE013196E770E5CF4091FA03F4
:103FC0005091FB036091FC037091FD038091FE030F
:103FD0009091FF030C94AD1F1F93CF93DF938091BB
:103FE000FF03807FA9F48091FC03882389F08091EE
:103FF000C803C091C9036091FA037091FB03A091BB
:10400000FD03B091FE03D62FD72316E0C81304C0DA
:10401000DF91CF911F91089590E0109711F0DF3F4D
:1040200019F401968770F2CF189F9001199F300DF7
:104030001124F901E653FC4F41814713F2CF40812F
:104040004613EFCF42814111ECCF438154814A1B8B
:104050005B0B483C510528F78091FF038F7080610E
:104060008093FF03F901E153FC4F80818F708061E1
:1040700080838AEF93E00E943F1FDF91CF911F91D1
:104080000C94BD1FAF92BF92CF92DF92EF92FF923E
:104090000F931F93CF93DF93CDB7DEB72B970FB658
:1040A000F894DEBF0FBECDBF8C0185E0F801DE01C4
:1040B000179601900D928A95E1F7F80140815181A0
:1040C000E2808AEFC82E83E0D82E6091FD037091C4
:1040D000FE036115710509F444C19091FA03209122
:1040E000FB03822F89238F3F09F43BC1A380B48057
:1040F000F090FC03F501E61BF70BFF2009F4E0C08C
:104100008091FF03382F307FE83CF10508F0B2C002
:10411000311179C0FE2C251323C0941321C0E11066
:104120001FC08F7080618093FF030E94DE1FC60155
:104130000E943F1F8091FF03F80185838F2D2B96EE
:104140000FB6F894DEBF0FBECDBFDF91CF911F91A8
:104150000F91FF90EF90DF90CF90BF90AF900895B8
:10416000AB2829F0842F85238F3F09F016C180E00A
:10417000F82FF170DF2EE091C8032091C90336E0DB
:1041800080FD1CC0EE20D1F28091FF0381608093FE
:10419000FF03F12CD3CF8E2F90E03E9FF00111242E
:1041A000E653FC4F6181651306C06081641303C050
:1041B0006281E612E7CFFC013196E770E213EBCFA4
:1041C0004F8358878F8198850E94DD24292F22955F
:1041D0002F70903260F0225F2F70223078F49F7041
:1041E00051F0F8019581907F31F4D12C0AC09F7075
:1041F00011F08823D1F3805E8830B8F3C8010E94A3
:104200003F1FFD2C9BCF251306C0941304C0F8015B
:10421000EE2009F470C04F8358878F8198850E94E3
:104220009A1F882319F1EE2009F18091FF03803253
:1042300070F02091FA033091FB033A8329831B82AB
:10424000BD82AC828E83CE0101960E943F1F86E024
:10425000F801AAEFB3E001900D928A95E1F70E9470
:10426000EC1F0E94DE1FFF24F39468CFC8010E9458
:104270003F1FF9CF311113C07A2DBB86AA866E2D50
:104280008B850E949E1F8AEF93E00E943F1F86E06D
:10429000F60111928A95E9F70E94DE1F7ACF251365
:1042A000BACF9413B8CFE110B6CFF8018583C80117
:1042B0000E943F1F86E0F60111928A95E9F73ECFF2
:1042C000E83CF10508F040C0FE2CEE2079F2251301
:1042D0002AC0941328C08091FF0380FD1BC0982F33
:1042E000907FC1F0F8018583903F31F0982F907F47
:1042F000905F8F70892B8583C8010E943F1F86E0E5
:10430000F801AAEFB3E001900D928A95E1F70E94BF
:10431000DE1F14CF86E0F801AAEFB3E001900D9202
:104320008A95E1F70BCF4F8358878F8198850E943C
:104330009A1F81118CCF8091FF0381608093FF03CE
:10434000C8010E943F1FFACE7A2DBB86AA866E2D29
:104350008B850E949E1F86E0F60111928A95E9F7EF
:10436000D6CFEE2009F482CF4F8358878F8198856E
:104370000E949A1FF82E882309F478CF86E0F8016E
:10438000AAEFB3E001900D928A95E1F78AEF93E0EE
:104390000E948C1C0E94EC1FBACF81E08E25E8CED3
:1043A0001F93CF93DF93CDB7DEB72C970FB6F8945A
:1043B000DEBF0FBECDBF4F83588769877A878B8753
:1043C0009C87CE0107960E944220882369F08A8547
:1043D0009B85892B39F04F815885842F85238F3F0A
:1043E00009F077C016E065C086E0FE013796DE0171
:1043F000119601900D928A95E1F76A857B8561158A
:10440000710581F35F814885842F85238F3F51F3A8
:104410002091C90330E0C901019687709927E09186
:10442000C803E817190671F40E946D1F1092C903A2
:104430001092C80386E0EAEFF3E0DF011D928A954F
:10444000E9F7D0CF59834A837D836C8396E0929FAE
:10445000D001939FB00D1124A653BC4FFE0131969D
:1044600001900D929A95E1F78093C9030E94BD1FB8
:10447000B9CF819FC001112486539C4F0E944220D6
:104480008823E9F0E091C8031E9FF0011124E65350
:10449000FC4F4081518162817381848195810E94AA
:1044A000AD1F8091C80390E0019687709927809393
:1044B000C8038091C8039091C9038913DACF2C9661
:1044C0000FB6F894DEBF0FBECDBFDF91CF911F9125
:1044D000089569857A858B859C850E94AD1F82CF62
:1044E00008950C9470220E94712260933B04709393
:1044F0003C0480933D0490933E040C945B1F08950C
:104500000C947322CF93DF9300D000D0CDB7DEB7E9
:1045100069837A838B839C8380913B0490913C04D4
:10452000A0913D04B0913E0429813A814B815C8188
:10453000282B392B4A2B5B2B29833A834B835C83B3
:10454000CA01B9010F900F900F900F90DF91CF919A
:104550000C947322CF93DF9300D000D0CDB7DEB799
:1045600069837A838B839C8380913B0490913C0484
:10457000A0913D04B0913E0429813A814B815C8138
:10458000282339234A235B2329833A834B835C8383
:10459000CA01B9010F900F900F900F90DF91CF914A
:1045A0000C947322CF93DF9300D000D0CDB7DEB749
:1045B00069837A838B839C8380913B0490913C0434
:1045C000A0913D04B0913E0429813A814B815C81E8
:1045D000282739274A275B2729833A834B835C8323
:1045E000CA01B9010F900F900F900F90DF91CF91FA
:1045F0000C9473220C9470220C94FA220E94FC22D8
:1046000060933704709338048093390490933A048C
:104610000C945B1F60E070E0CB010C94FE220F93C2
:104620001F93CF93DF9300D000D0CDB7DEB741E02A
:1046300050E060E070E08A019B0104C0000F111F90
:10464000221F331F8A95D2F709831A832B833C8359
:10465000C901B8010F900F900F900F90DF91CF918B
:104660001F910F910C94FE220F931F93CF93DF9312
:1046700000D000D0CDB7DEB741E050E060E070E0A0
:1046800004C0440F551F661F771F8A95D2F780918B
:10469000370490913804A0913904B0913A048A010A
:1046A0009B01082B192B2A2B3B2B09831A832B8365
:1046B0003C83C901B8010F900F900F900F90DF91CC
:1046C000CF911F910F910C94FE220F931F93CF93C4
:1046D000DF9300D000D0CDB7DEB741E050E060E01E
:1046E00070E004C0440F551F661F771F8A95D2F7EC
:1046F000409550956095709580913704909138045D
:10470000A0913904B0913A048A019B01082319232E
:104710002A233B2309831A832B833C83C901B801D5
:104720000F900F900F900F90DF91CF911F910F91ED
:104730000C94FE220F931F93CF93DF9300D000D0F1
:10474000CDB7DEB741E050E060E070E004C0440F58
:10475000551F661F771F8A95D2F780913704909175
:104760003804A0913904B0913A048A019B010827CA
:1047700019272A273B2709831A832B833C83C901E6
:10478000B8010F900F900F900F90DF91CF911F9174
:104790000F910C94FE22CF93DF9300D000D0CDB7C1
:1047A000DEB769837A838B839C83809137049091F1
:1047B0003804A0913904B0913A0429813A814B819F
:1047C0005C81282B392B4A2B5B2B29833A834B8323
:1047D0005C83CA01B9010F900F900F900F90DF9189
:1047E000CF910C94FE22CF93DF9300D000D0CDB7B1
:1047F000DEB769837A838B839C83809137049091A1
:104800003804A0913904B0913A0429813A814B814E
:104810005C81282339234A235B2329833A834B83F2
:104820005C83CA01B9010F900F900F900F90DF9138
:10483000CF910C94FE22CF93DF9300D000D0CDB760
:10484000DEB769837A838B839C8380913704909150
:104850003804A0913904B0913A0429813A814B81FE
:104860005C81282739274A275B2729833A834B8392
:104870005C83CA01B9010F900F900F900F90DF91E8
:10488000CF910C94FE220895E82F27E0929FE00D2F
:1048900011248E2F877041E001C0440F8A95EAF7FA
:1048A000E695E695E69585E0E89FF0011124E05055
:1048B000FC4F30E020E070E05191DF011197CB0117
:1048C000022E02C0969587950A94E2F78170819531
:1048D0008527842385278C932F5F3F4F2530310513
:1048E00059F70895E82F27E0929FE00D11249E2F9D
:1048F0009770E695E695E69585E0E89FF00111242E
:10490000E050FC4F50E040E080E0219130E0092E83
:1049100002C0369527950A94E2F721703327042EBA
:1049200001C0220F0A94EAF7822B4F5F5F4F453098
:10493000510559F70895BF92CF92DF92EF92FF92FF
:104940000F931F93CF93DF938C01C0903704D090C7
:104950003804E0903904F0903A0480913B0490913F
:104960003C04A0913D04B0913E04C82AD92AEA2A09
:10497000FB2ACFE1D0E0BC2ED701C6010C2E04C02B
:10498000B695A795979587950A94D2F780FD0EC0A6
:10499000219788F7B12C8B2DDF91CF911F910F912B
:1049A000FF90EF90DF90CF90BF900895B8018C2FCB
:1049B0000E94F405019761F3EECFCF93DF93D82FD8
:1049C000C92F0E949B246D2F7C2FDF91CF910C94D7
:1049D000F4051F93CF93DF93162FD72F9091C70322
:1049E000992339F0862F972FDF91CF911F910C9447
:1049F000DD24882391F0862F972F0E949B24C82FB7
:104A0000682F812F9D2F0E944424612F7D2F8C2F92
:104A1000DF91CF911F910C94F405862F972F0E9460
:104A20007224C82FF2CF682F8091490290914A02D8
:104A30000C944A26682F8091490290914A020C9466
:104A40004C268091490290914A020C944E26E091A6
:104A50004902F0914A02809149048083E091490221
:104A6000F0914A02808190914804892B8083E091E3
:104A70004902F0914A02808190914704892B8083FA
:104A80008091490290914A020C942E1B8091490416
:104A9000089590914904982B909349040895982F74
:104AA0009095809149048923809349040895109238
:104AB0004904089590914804982B909348040895D0
:104AC000982F9095809148048923809348040895F5
:104AD00010924804089510924704089580E00895C4
:104AE00090E080E00E94D9339C0181E02B3E3E4F54
:104AF00009F080E0089582E090E00C94D13383E0E7
:104B000090E00C94D133CF9384E090E00E94D133B5
:104B1000C82F81E290E00E94D133982F8C2FCF9143
:104B20000895CF93682FC92F84E090E00E94EF335F
:104B30006C2F81E290E0CF910C94EF33AB01BC017C
:104B40008FE090E00C94013460E070E0CB010E94B3
:104B50009E250C94DF036BEE7EEF90E080E00E94D8
:104B60000D3460E082E090E00E94EF3360E083E08B
:104B700090E00E94EF3310923B0410923C0410929C
:104B80003D0410923E0460E084E090E00E94EF3328
:104B900060E081E290E00E94EF3360E085E090E029
:104BA0000E94EF3360E086E090E00E94EF336FEF09
:104BB00087E090E00E94EF3340E050E0BA0188E0E7
:104BC00090E00E94013460E08DE090E00E94EF33BD
:104BD00040E050E0BA0188E190E00E94013460E0DA
:104BE00087E190E00E94EF3340E050E0BA018CE1B1
:104BF00090E00E94013460E080E290E00E94EF3398
:104C000040E050E0BA0188E190E00E9401340C9449
:104C1000A4250C94AB25682F8EE090E00C94EF3324
:104C20009C01662351F0FC013296285F3F4F819131
:104C3000861729F0E217F307D1F780E0089581E0A5
:104C400008959C01FC0132968FEF90E04191461748
:104C500051F08F3F19F4411101C0892F9F5F9630A9
:104C6000A9F78F3F09F40895280F311D87FD3A9564
:104C7000F901628308959C01FC013296285F3F4F41
:104C80008191861303C0DF0111971C92E217F3078D
:104C9000B9F708950C9421260C943B26FC0132961A
:104CA00086E0DF011D928A95E9F708950895089539
:104CB0000C94572680918F06843049F10E94582623
:104CC00080E00E94D80510924B0488E190E020E437
:104CD0000FB6F894A895809360000FBE20936000F3
:104CE00083B7817F846083BF83B7816083BF7894FB
:104CF000889583B78E7F83BF0FB6F894A89580916F
:104D00006000886180936000109260000FBE08957B
:104D10000895CF930E9456260E9488080E948826F4
:104D2000C0E08C2F0E94A807811105C0CF5FCC3056
:104D3000C1F7CF91089581E0FCCF08950C949D2692
:104D40000E946D1F0E94221B0E94D8050C949E2673
:104D50001F921FB61F9211248F939F93AF93BF93FF
:104D600080914B04811113C0809194059091950519
:104D7000A0919605B09197054196A11DB11D809314
:104D8000940590939505A0939605B0939705BF91D0
:104D9000AF919F918F911F901FBE1F90189582E039
:104DA00084BD93E095BD9AEF97BD80936E00089502
:104DB0002FB7F8948091940590919505A091960550
:104DC000B09197052FBF0895CF93DF9300D000D007
:104DD000CDB7DEB78FB7F894209194053091950543
:104DE000409196055091970529833A834B835C83C4
:104DF0008FBF69817A818B819C810F900F900F907A
:104E00000F90DF91CF9108959C014FB7F894809156
:104E1000940590919505A0919605B09197054FBF87
:104E2000821B930B08950F931F93CF93DF9300D0B2
:104E300000D0CDB7DEB7462F572FBC012FB7F8945F
:104E40008091940590919505A0919605B091970554
:104E50002FBF8C019D01041B150B260B370BC901BD
:104E6000B8010F900F900F900F90DF91CF911F918D
:104E70000F91089578941F921FB61F9211248F935B
:104E80009F93AF93BF938091940590919505A091C6
:104E90009605B09197050196A11DB11D80939405CB
:104EA00090939505A0939605B0939705BF91AF9108
:104EB0009F918F911F901FBE1F901895109298057B
:104EC0001092990510929A0510929B050895CF9221
:104ED000DF92EF92FF92CF93DF9300D000D0CDB757
:104EE000DEB76B017C010E94410981110EC00E9456
:104EF000E426C61AD70AE80AF90AC0929805D092A1
:104F00009905E0929A05F0929B050F900F900F90F3
:104F10000F90DF91CF91FF90EF90DF90CF900895A9
:104F2000CF93DF9300D000D0CDB7DEB70E94410908
:104F3000882341F00F900F900F900F90DF91CF9149
:104F40000C94E4260E94E42669837A838B839C83F5
:104F50008091980590919905A0919A05B0919B0533
:104F600029813A814B815C81280F391F4A1F5B1FC1
:104F7000CA01B9010F900F900F900F90DF91CF9160
:104F80000895CF93DF93CDB7DEB728970FB6F89487
:104F9000DEBF0FBECDBF69837A838B839C830E9463
:104FA0004109882371F069817A818B819C812896DF
:104FB0000FB6F894DEBF0FBECDBFDF91CF910C943A
:104FC00013270E9490279B01AC0189819A81AB81B4
:104FD000BC81281B390B4A0B5B0BCA01B90128960F
:104FE0000FB6F894DEBF0FBECDBFDF91CF9108950D
:104FF00087E797E7909301088093000888E19AE09B
:105000000FB6F894A895809360000FBE909360004F
:10501000FFCF90930503809304030895CF93DF930C
:1050200000D000D0CDB7DEB70E947025811102C03C
:105030000E9409260E947B2580934A040E948325B2
:1050400090939D0580939C050E947F25282F30E03A
:1050500050E040E0CA01B9010E94802280913704EB
:1050600090913804A0913904B0913A0489839A83CD
:10507000AB83BC83BC01CD010F900F900F900F90BC
:10508000DF91CF910C94FC22881F8827881F0895F8
:10509000982F81E0983F08F480E00895982F907F42
:1050A000903D69F070F4903B31F038F4903A19F08B
:1050B000807E803899F483E00895903C79F482E012
:1050C0000895903EC1F3903F49F4EFE0E80F813F2F
:1050D00028F0F0E0EC50FD4F8081089580E00895C5
:1050E0000F93DC01022F0F77242F2F776F70462F3D
:1050F000406BED91FC9163E070E009950F9108958C
:105100000F93DC01022F0F77242F2F776F70462F1C
:105110004069ED91FC9163E070E009950F9108956D
:105120000F93DC01022F0F77242F2F776F70462FFC
:105130004068ED91FC9163E070E009950F9108954E
:105140000F931F93DC019A01411580E25807C4F4C4
:105150004115504EC4F0305E8901000F012F001F31
:10516000110B11952F776F70462F406EED91FC91CA
:10517000119763E070E0CD0109951F910F9108959B
:105180002FEF3FE3E9CF30E020E0E6CFFC0173836F
:1051900062830895FC01758F648F0895CF93DF9328
:1051A000EC011DA21FA21EA2BC01685D7F4F40EC56
:1051B00088519F4F0E94D32A1B821A821D821C8213
:1051C0001F821E82198618861B861A861D861C86DB
:1051D0001F861E86198A188A1B8A1A8A1D8A1C8AAB
:1051E0001F8A1E8A198E188E1B8E1A8E1D8E1C8E7B
:1051F0001F8E1E8E19A218A2DF91CF910895EF92F3
:10520000FF920F931F93CF93DF93EA018A01060F5A
:10521000111D7C0128EEE20EF11CC017D10739F4F4
:10522000DF91CF911F910F91FF90EF9008956991B9
:10523000C7010E94DA2AF1CFFC01718360830895CF
:10524000FC0171A360A30895AF92BF92CF92DF9249
:10525000EF92FF920F931F93CF93DF9300D00F92A3
:10526000CDB7DEB77C016B01142FB22EA02EDC016E
:1052700095968C9195978430A9F55A96ED91FC916D
:105280003097E9F1CB01019763E070E00E94493368
:10529000CB01880F991F860F971F4983BA820B8312
:1052A0004C2D481B9E012F5F3F4FBC01C701099544
:1052B000D7015E96ED91FC91309731F00A2D2B2DA0
:1052C000412FB601C70109950F900F900F90DF9104
:1052D000CF911F910F91FF90EF90DF90CF90BF90F3
:1052E000AF9008956230710509F452C063307105C2
:1052F00099F06130710509F47AC0D12CC12CD70125
:105300005C96ED91FC91309799F20A2D2B2D412F4F
:10531000B601C7010995CCCF842F807F803BF1F087
:1053200058F4803931F1803A49F1803841F7D7019A
:105330001696ED91FC9116C0803E29F1803FF9F65A
:10534000423FE9F6D7011C96ED91FC91202F4B2DA1
:1053500062EF3097A1F2C7010995AACFD701129643
:10536000ED91FC91309759F22A2D4B2D612F6F70E2
:10537000F2CFD7011496ED91FC91F4CFD701189696
:10538000ED91FC91EFCFD7011A96ED91FC91EACF08
:10539000842F807F803D81F0803F99F0803C09F030
:1053A000AECFD7011E96ED91FC91309709F4A7CFAF
:1053B0004B2D612F6F7010C0D7015096ED91FC916D
:1053C000F4CF433F61F4D7015296ED91FC914B2D00
:1053D000612F309709F493CFC701099569CF413FF9
:1053E00009F08DCFD7015496ED91FC91F0CF842F29
:1053F0000E944828882359F0D7015696ED91FC91D8
:10540000309709F47CCF612FC701099551CF163F22
:1054100009F075CFD7015896ED91FC91F1CFFF922D
:105420000F931F93CF93DF93EC01162F862F0E94CB
:105430004828882391F0FDA081E08DA300E020E0C2
:10544000412F61E070E0CE010E942429FDA2DF918E
:10545000CF911F910F91FF900895812F0E944428B2
:105460004DA1882309F443C0443029F01AA381E0F8
:1054700090E09FA38EA3812F0E944E28823069F175
:10548000D0F481111EC0103F51F1173FB1F42EA18D
:105490003FA1C90163E070E00E944933FE01E80FBB
:1054A000F91F12A3B9016F5F7F4F7FA36EA30CA1F9
:1054B0002BA14AA10DC0833081F01DA21FA21EA204
:1054C000C6CF81E08DA300E020E0412F61E070E0D5
:1054D000CE010E9424291DA2BACF8DA3B8CF84E0AB
:1054E0008DA31AA381E090E09FA38EA3B0CF4423A5
:1054F00009F4ADCF2EA13FA1C90163E070E00E9485
:105500004933FE01E80FF91F12A3B9016F5F7F4F06
:105510007FA36EA38130910569F0029709F097CFC0
:105520000CA12BA14AA1CE010E9424298DA1843077
:10553000C9F68DCF00E0423009F089CFF2CFCF928B
:10554000DF92EF92FF920F931F93CF93DF93EC01C3
:10555000E8A1F9A1309709F009956E0188EEC80E0F
:10556000D11CC6010E94082B10E000E0E82EF12CAF
:105570000E151F0548F0DF91CF911F910F91FF90FD
:10558000EF90DF90CF90089560E0C6010E941C2B41
:10559000682FCE010E940F2A61E0C6010E942C2BC9
:1055A0000F5F1F4FE5CFFC01428374836383118239
:1055B000108208951F93CF93DF93EC01162F0E9462
:1055C000432B282FE981F0E0CF0101966A8170E03A
:1055D0000E945D3338813817190641F4822F0E94EA
:1055E000462B80E0DF91CF911F9108958B819C81A4
:1055F000E80FF91F1083898190E001966A8170E0BD
:105600000E945D338983822F0E94462B81E0EACF7E
:10561000CF93DF93EC010E94432B9981288192174D
:1056200040F0C92FC21B0E94462B8C2FDF91CF91D7
:105630000895CA819C0FF5CFFC018081860F9927C0
:10564000991F628170E00E945D3323813481280FAD
:10565000391FF901808108951F93CF93DF93EC01E7
:10566000162F0E94432B282F8881810F9927991F7D
:105670006A8170E00E945D338883822FDF91CF9131
:105680001F910C94462B8FB7F89408958FBF0895FF
:10569000089508950F931F93CF93DF9300D000D008
:1056A00000D00F92CDB7DEB7182F092FCE0101968B
:1056B0000E94AA2D81110BC027960FB6F894DEBF69
:1056C0000FBECDBFDF91CF911F910F9108958A81B9
:1056D0000E944E28682F8A818D838B818E838C81D6
:1056E0008F8361110AC02981243079F0273069F055
:1056F000263069F061E02530C9F6AE014B5F5F4F9F
:10570000812F902F0E94FF28D1CF63E0F6CF62E077
:10571000F4CFDF92EF92FF920F931F93CF93DF931B
:1057200000D000D0CDB7DEB77B01142FD22E4A8334
:105730002B830C83842F0E944E28811129C082E084
:10574000E816F10401F183E0E816F10439F0EA9477
:10575000EF2869F485E0173F21F404C087E0073F94
:1057600009F084E08983CE0101960E94A52D0F9057
:105770000F900F900F90DF91CF911F910F91FF909D
:10578000EF90DF90089587EFD812EBCF86E0EACF55
:1057900012951F701983E7CF0E946F098EE995E07B
:1057A0000E94CE2869E87BE28EE995E00E941C29E0
:1057B0006AE47BE28EE995E00E94202968E47BE2BE
:1057C0008EE995E00E94CA2869E47BE28EE995E0C3
:1057D0000C94C628FC01CB0120918F062430B1F433
:1057E00021812F702093E90050E040E064E070E0F8
:1057F0000E94722E81110BC09091E80095FD07C0A8
:105800009091E8009E779093E800089582E00895D3
:10581000FC0180918F06843089F481818F708093A0
:10582000E9009091F3008091F200892B49F080917A
:10583000E8008E778093E8000C94183082E0089599
:1058400080E00895FC0180918F06843059F48181B5
:105850008F708093E9008091E80080FF03C0CF0142
:105860000C94082C0895FC01CB0120918F06243064
:1058700011F080E0089526812F702093E900209197
:10588000E80022FFF6CF2091E80025FFF2CF50E09C
:1058900040E064E070E00E94C12E8091E80085FD48
:1058A00005C08091E8008B778093E80081E008953F
:1058B0008091540408950895CF93DF9300D00F9200
:1058C000CDB7DEB790918F06943019F589836A833E
:1058D0007B8382E08093E9008FEF9091E800815014
:1058E00095FD06C095ED9A95F1F700008111F5CF71
:1058F0008091E80085FF0DC050E040E063E070E07B
:10590000CE0101960E94722E8091E8008E778093DE
:10591000E8000F900F900F90DF91CF910895BC0198
:1059200084E00C945C2CBC0183E00C945C2CCF9341
:10593000DF93D82FC92F81E08093E9008FEF9091FA
:10594000E800815095FD06C095ED9A95F1F70000AD
:105950008111F5CF8091E80085FF16C050E040E04E
:1059600068E070E08D2F9C2F0E94722E8091E800DD
:105970008E778093E80088E0ED2FFC2FACE4B4E054
:1059800001900D928A95E1F7DF91CF910895809172
:105990008E06811109C00E9449300E94A630809174
:1059A000E20084608093E200089510928E060895CC
:1059B00008950895089542E061EC81E00E94C52FAA
:1059C00042E261EC82E00E94C52F42E361E883E09D
:1059D0000E94C52F42E361E884E00C94C52F8091BA
:1059E0009106893089F148F4823009F49DC08330F2
:1059F00009F458C0813041F008958A3009F484C018
:105A00008B3009F46AC0089580919006813A09F0BC
:105A100048C08091E800877F8093E80080919406D9
:105A200090919506892B61F468E08CE494E070E035
:105A30000E94102F8091E8008B778093E8000895F2
:105A400060E090E080E0F3CF80919006813249F5EC
:105A50008091940690919506029718F58091E80040
:105A6000877F8093E8008091E80082FF16C09091C4
:105A7000F3008091F200029729F48091F1008B7F6E
:105A8000813021F48091F100809354048091E800EA
:105A90008B778093E8000C94F92F80918F06811109
:105AA000E2CF089580919006813AD9F780919406CB
:105AB00090919506892BA9F78091E800877F8093C4
:105AC000E8008091E80080FFFCCF80916102809324
:105AD000F1008091E8008E77DCCF809190068132D2
