:100000000C94A5020C94EC020C94EC020C94EB0DF5
:100010000C94EC020C94EC020C94EC020C94EC02A8
:100020000C94EC020C94EC020C94CB230C949E24C4
:100030000C940D1A0C94EC020C94EC020C94EC024F
:100040000C94EC020C94EC020C94EC020C94EC0278
:100050000C94EC020C94781A0C94EC020C94EC02C4
:100060000C94EC020C94EC020C94EC020C94EC0258
:100070000C94EC020C94EC020C94EC020C94EC0248
:100080000C94EC020C94EC020C94EC020C94EC0238
:100090000C94EC020C94EC020C94EC020C94EC0228
:1000A0000C94EC020C94EC020C94EC023D5C435C6E
:1000B000455C485C4C5C5B5C00003F5C445C4E5CB7
:1000C0004A5C585C515C405C495C505C535C575CDA
:1000D000475C425C01534B5C4F5C525C555C595C25
:1000E000545C415C465C5A5C5C5C565C4D5C3E5CBE
:1000F0003B5C000000000000000000000000000069
:100100004F5C505C525C535C545C765C0153515CB8
:10011000585C575C555C745C735C0151565C5D5C6B
:10012000605C5A5C715C725CA844645C5B5C595CAA
:10013000695C6F5C705C665C625C5E5C5C5C6B5CAA
:100140006E5C6A5C6C5C655C615C5F5C6D5C635C96
:10015000675C685C3F5C435C455C4A5C565C5A5C2F
:1001600000003D5C495C515C535C485C475C415C11
:10017000425C4E5C525C555C585C4D5C0153445C87
:100180004B5C505C545C575C4F5C465C4B5C595C10
:100190005B5C5E5C4C5C3C5C405C00000000000012
:1001A00000000000000000004F5C505C525C555C99
:1001B000535C745C0153515C585C595C545C725CD8
:1001C000735C0151565C575C655C5B5C695C715C9F
:1001D000A844645C5C5C5A5C5D5C6B5C705C625CFB
:1001E000635C605C5E5C5F5C6E5C6C5C6F5C675CFF
:1001F000635C615C6D5C665C685C6A5CE0001E0070
:100200001F002000210022000000165C2B001400BB
:100210001A00080015001700390004001600070036
:1002200009000A000B00E1001D001B000600190078
:10023000050011003500E300E20091432C002C0082
:100240004600000000000000000000000000000068
:100250004A004E000A001C0023002F004B004D00F6
:1002600005000B0018002400300003512C00110081
:100270000D000C00250031000100904310000E001D
:100280001200260027004F00E60036000F00130082
:100290002A00E50052005000370033004C002800CF
:1002A0003800510001003A003B003C003D003E0098
:1002B0000000010001000100010001000100010037
:1002C0000100010001000100010001000100010026
:1002D0000100010001000100010001000100010016
:1002E0000100010001000100010000000000000009
:1002F00000000000000000000100010001000100FA
:100300003F00010001000100010001000100400068
:100310000100010001000100010001004100010095
:100320000100010001000100010042004300010042
:1003300001000100010001000100010001000100B5
:100340000100340001000100010001000000005222
:100350000000000000000000000000000252000049
:10036000000000000000000000000000000000008D
:10037000000000000100000000000000000000007C
:10038000000000000000135C0A5C00000000000098
:10039000000000000000000000000000000000005D
:1003A0000000C95C000000000000815C010000004A
:1003B000C85C000000000000825C01000000C75C17
:1003C0000000000000009D5C01000000C65C000011
:1003D000000000009E5CC35C0000CD5C00000000DB
:1003E0000000CA5CDF5CC55CCC5C00000000000063
:1003F000CB5CC45C1C03620061006E0064006F0093
:100400006D0069006E00650064006F006E00690099
:1004100000000E0333006100720061006800740088
:1004200000000403090409029F00040100A0FA0966
:100430000400000103010100092111010001224013
:10044000000705810308000A0904010001030000F8
:10045000000921110100012232000705820320005A
:100460000A080B0202010100000904020000010158
:10047000000009240100010900010309040300022E
:1004800001030000072401000141000624020101CC
:1004900000062402020200092403010301020100F4
:1004A00009240302040101010009050402400005BA
:1004B0000000052501010109058302400005000037
:1004C00005250101031201100100000008EDFEB531
:1004D000F401000102000105010980A10185031951
:1004E000012AB700150126B700950175108100C0DB
:1004F000050C0901A101850419012AA00215012694
:10050000A002950175108100C005010906A1010531
:100510000719E029E7150025019508750181029565
:1005200001750881010507190029FF150026FF0044
:1005300095067508810005081901290595057501BD
:100540009102950175039101C00011241FBECFEFE8
:10055000DAE0DEBFCDBF04B603FE27C08091EE0314
:100560009091EF03A091F003B091F1038730904B8D
:10057000A740B04BD1F41092EE031092EF0310920B
:10058000F0031092F10314BE84B7877F84BF0FB6C7
:10059000F894A89580916000886180936000109223
:1005A00060000FBEE0E0F8E3099511E0A0E0B1E0E3
:1005B000EAE5FEE402C005900D92A23BB107D9F72F
:1005C00023E0A2EBB1E001C01D92AE3EB207E1F71D
:1005D0000E94B6200C94C0260C940000CF939091FA
:1005E000B401911112C05098589A259A2D9885E01F
:1005F0008A95F1F70000C9B125982D9A0E94AE05A1
:100600009C2F91709F5F9093B40181E0913009F02D
:1006100080E0CF9108950895E6EEF2E08081807F3A
:1006200082608083E7EEF2E0808180788567808356
:100630000895813031F489EA611101C08AEA0C948D
:100640007910089581E0089581E008950C942403C1
:1006500008950C9428031F93CF93DF9300D000D00C
:100660000F92CDB7DEB749835A836B8330913D0239
:1006700089819A8131111DC06623B9F02223A9F026
:100680000E940018182F682F89819A810E94A9174B
:1006900069817A81812F0F900F900F900F900F90AA
:1006A000DF91CF911F910C94DF030E94D717182F71
:1006B000EFCF0E94001869817A81EDCFFC01262FCF
:1006C000408151816281738184810C942B03CF938B
:1006D000DF93D82FC92F60E00E945E036D2F7C2F1F
:1006E000DF91CF910C9429030E94D518811102C08B
:1006F0000E946E190C94A2050C94A50508950E9401
:10070000D2120E947E032FEF84E39CE021508040B0
:100710009040E1F700C000000C94FF1A0F931F9364
:10072000CF93DF93EC0161E00E945E038C01BE0178
:100730000E942603882359F1BE01C8010E949A072E
:10074000882329F1BE01C8010E94730B8823F9F0A8
:10075000BE01C8010E94C80B8823C9F0BE01C801B0
:100760000E949B0C882399F08A81882339F0011517
:100770008CE5180751F00F3D1C4579F0CE01DF9153
:10078000CF911F910F910C9422030E947F0380E070
:10079000DF91CF911F910F9108950E946E19F7CFAD
:1007A00008950C94D00381E008950C94D303CF9363
:1007B000C82F0E94D1038C2FCF910C94D503972F73
:1007C00070E027E0929F600D711D1124FB0194E5FC
:1007D000899FE00DF11D1124EE0FFF1FE455FF4F1F
:1007E000859194910895CF93DF930E94DF030E9437
:1007F000C604EC01811521E59207A8F5811530E5C5
:10080000930708F084C08F3B9105B8F4883A9105AE
:1008100008F072C0853A910568F4049738F491E0C5
:1008200080E0219709F090E0C92FD82FCE01DF9109
:10083000CF910895A497D064F9CF811540E2940731
:1008400058F48F3F910509F088F7805E9109089769
:1008500068F3D0E0C0E0EACF905481159041C8F72A
:10086000DF70D06AE3CF811539E5930768F581150C
:1008700048E5940708F078C0C11583E5D80750F41F
:10088000C11592E5D90708F05EC0DC2FCC27C16FF7
:10089000D06ACCCFCE0193558F3F910509F0C8F6B1
:1008A000CE018370992721E030E002C0220F331F70
:1008B0008A95E2F7C695C69590E2C99FE00111249A
:1008C000C22BD32BDA68B2CF81152AE5920708F440
:1008D00050C090568115904208F0BBCF8D2F8F717C
:1008E0000E945E0590E0982F882788279F719C01C1
:1008F0002C2BE901D0629ACFC85AD0E0CC0FDD1F73
:10090000CC5DDE4F0990D881C02DD4648FCF54E0E8
:10091000969587955A95E1F783702C2F2695269505
:10092000237040E2249F90011124382B8C2F837078
:10093000C1E0D0E002C0CC0FDD1F8A95E2F7C22BE8
:10094000D32BDC6873CFCE018370992721E030E090
:1009500002C0220F331F8A95E2F7C695C69580E242
:10096000C89FE0011124EBCFD82FCC27C06FD06AED
:100970005DCF8F700E945E0534E0D695C7953A959D
:10098000E1F7CF70DC2FC82FD06950CF803E9105A2
:1009900099F1C8F48133910509F476C048F489329D
:1009A000910509F46AC08A32910509F474C008956A
:1009B00089339105D1F082389105B9F085339105DD
:1009C00009F454C00895843E910599F138F4823EAB
:1009D0009105F9F0833E910509F10895863E910550
:1009E00099F1873E9105B9F108952091F2022370A3
:1009F000A1F080EE90E008952091F20220FD52C017
:100A00003091F30230FF09C024FF4FC090E080E036
:100A100004C02091F20222FDF7CF08952091F20246
:100A200022FD46C03091F30230FDE3CF24FFF5CF25
:100A3000EDCF2091F30221FFF0CF8091F20284FDEF
:100A4000E5CF87EE90E008952091F20223FFE5CFF5
:100A500024FDDCCFF6CF2091F20223FD2CC0309193
:100A6000F30231FFE3CF84EE90E008952091F2028B
:100A700025FFD3CF89E290E008952091F20225FF6F
:100A8000CCCF85E390E008952091F20226FFC5CFF8
:100A90008AE290E008952091F20226FFBECF81E322
:100AA00090E0089589E390E0089583EE90E0089542
:100AB00082EE90E0089586EE90E008959091F20223
:100AC00092FF06C0282F28712830F9F4877F8460B0
:100AD00093FF06C0282F28712831F1F4877E8461A6
:100AE0002091F30220FF06C0382F38713830D9F436
:100AF000877F816021FF06C0282F28712831D1F41B
:100B0000877E816194FD877E0895282F247124308B
:100B1000F9F68B7F8860DCCF282F2471243101F710
:100B20008B7E8861DDCF382F3171313019F78E7FA0
:100B30008860E0CF282F2171213121F78E7E8861D6
:100B4000E1CF08950C94A10508950C94A405E82F15
:100B5000F0E0E852FD4F80810895089580EA8A957B
:100B6000F1F7089500C008950C94AE05F894E82FAD
:100B7000E295EF70F0E041A18F7021E030E0B90123
:100B800002C0660F771F8A95E2F7CB01962F9095EA
:100B9000942391A392A1892B82A378940895089518
:100BA0000F931F93CF93DF930E945D078091000105
:100BB0008091000196E0811190E09093E50286E03B
:100BC000891B8093E40285E30E94B60584E30E94BA
:100BD000B60587E90E94B60586EF0E94B60586E64F
:100BE0000E94B60584E90E94B605C2E5D1E009E598
:100BF00011E089910E94B6050C171D07D1F7ECECA6
:100C0000F2E0A8EDB2E011921D9282E0E83DF80713
:100C1000D1F786E00E9409070E947403DF91CF910B
:100C20001F910F910C9467071F93CF93DF9300D010
:100C300000D000D0CDB7DEB70E944007182F6091DA
:100C4000E502882309F456C01A821982FE01339600
:100C500084E0DF011D928A95E9F7862F90E0BE01BE
:100C60006F5F7F4F88529D4F0E94D10C811122C02F
:100C70008091B5018F5F8093B5018630C8F1E09116
:100C8000E402F0E0E852FD4FDE011196CE01079636
:100C900011921D92A817B907D9F70E947C03812FE2
:100CA00026960FB6F894DEBF0FBECDBFDF91CF9171
:100CB0001F9108951092B501A091E402B0E0A852EE
:100CC000BD4FBE016F5F7F4F9E01295F3F4F10E018
:100CD0004D91FB019191BF01491731F0AD01415098
:100CE0005109FA019083182F6217730789F7D5CF3E
:100CF00010E0D3CF70E068527D4F8091E40290E025
:100D000088529D4F0E94090D0E94CF05C8CFCF92F7
:100D1000DF92EF92FF920F931F93CF93DF9309E53A
:100D200011E08CECE82E82E0F82EC0E0CC24C394D5
:100D3000D12CF80181918F01F894E82FE295EF70A2
:100D4000F0E021A18F70A60102C0440F551F8A95C3
:100D5000E2F7CA01922F982B91A392A18095892343
:100D600082A378940E94B205E2E5F1E030E020E051
:100D7000D0E04191A42FA295AF70B0E090968C91F5
:100D800090E04F7002C0959587954A95E2F780FDF7
:100D90003CC08C2D022E01C0880F0A94EAF7D82B94
:100DA0002F5F3F4F2730310521F7F80131978081C0
:100DB0000E94B6050E94B405F7018081D81739F169
:100DC000D08381E0C82BFFEFEF1AFF0A41E00F3517
:100DD000140709F0AECF6091E50270E068527D4FD4
:100DE0002C2F46E08CEC92E00E940A070E94140629
:100DF000C11101C0C82F8C2FDF91CF911F910F918E
:100E0000FF90EF90DF90CF90089580E0C8CF80E012
:100E1000D9CF0895FF920F931F93CF93DF93F82EAE
:100E2000092F162FD72FC42F222349F081E080935A
:100E3000B8010E943D1A9093B7018093B60180914A
:100E4000B8018823A1F08091B6019091B7010E946A
:100E5000691A069760F0EF2DF02FA12FBD2FCE0F4E
:100E6000DF2FD11DEC17FD0741F41092B801DF917F
:100E7000CF911F910F91FF90089581918D93F2CFA3
:100E80008091B901811110C08091D8008061809358
:100E9000D8008AE18A95F1F700C08091D90080FDE1
:100EA0000AC082E08093B90181E09091B90191304C
:100EB00009F080E0089581E0F5CF0E94EE02809372
:100EC00000010E94400781110C94C50C08950E94F6
:100ED0004007811102C00C94CB0C089584E08093EC
:100EE000E6028FE78093E7028091E80280788064D1
:100EF0008093E802EEEBF1E08FEF819392E0E63031
:100F0000F907D9F71092BD011092BC011092BB01F4
:100F10001092BA0108959091E602292F2F709595AD
:100F20009595959595959F523CE0239F900D1124A2
:100F3000890F08950F931F93CF93DF9300D00F92E3
:100F4000CDB7DEB7DB0187372CE59207B0F48F32DF
:100F50004CE59407D8F481E08A838A810F900F9042
:100F60000F90DF91CF911F910F910895EE53F94D9E
:100F700012962C912A830C947826FC01E757FC45A5
:100F8000E534F10598F341E04A83E7CF2091E70289
:100F9000322F331F3327331FE091E802E770EE0F43
:100FA000E32BEB832F7729831296FC91FA8301EDD3
:100FB000080F10E002541E4FF8014081FA81FF2310
:100FC00091F04F3F11F01A82C8CF0E948B078A839D
:100FD0002981482F6B8184EF92E00E94871B2A8130
:100FE000F8012083F0CF4F3F31F029816B8184EFEE
:100FF00092E00E94971B8FEFF8018083AECF2A8189
:10100000222309F38757982F9F708091E602807FF3
:10101000892B8093E602D7CF4A814423A1F28091A5
:10102000E602982F9F7079F2915F9F70F0CF8A81CE
:10103000882349F28091E602982F9F70993018F624
:101040009F5FF3CF2A81222309F4BDCF8958982FBF
:101050009295907F8091E6028F70DACF4A81442387
:1010600009F4B1CF8091E602982F959595959595C5
:101070009595803B0CF4A7CF915F9295907FECCF34
:101080008A81882309F49FCF8091E602282F259535
:1010900025952595259580360CF095CF91E0920FFA
:1010A0009295907F9595959595959595392F329533
:1010B000307F8F70832B8093E60212160CF083CF63
:1010C00097FF81CF2295207F8F70822BA2CF2A811C
:1010D000222309F478CF82599CE0899F902D112416
:1010E0009F778091E702807815C04A81442309F4F4
:1010F0006ACF8091E702982F9F7709F464CF8078B8
:101100009F3721F485678093E7025DCF9D30D8F348
:101110009D509F77892BF7CF8A81882309F453CF7D
:101120008091E702982F9F779F3709F44CCF933730
:1011300018F4935F9F77D7CF8F67E5CF2A8122235B
:1011400009F441CF8F599091E70280FB97F9909372
:10115000E702869587709091E802987F892BB3C04B
:101160004A81442309F42FCF2091E702322F331F05
:101170003327331F9091E802892F8770880F832BC4
:10118000815F382F3F7080FB27F92093E702832F80
:101190008695987F982B9093E80215CF8A818823B3
:1011A00009F411CF2091E702322F331F3327331F69
:1011B0009091E802892F8770880F832B8F5FE1CF92
:1011C0002A81222309F4FFCE6091E702862F881F2F
:1011D0008827881F6091E8026770660F682B20E0FF
:1011E0004BE784EF92E00E94771BEDCE4A8120E02E
:1011F00041112FE76091E702862F881F8827881FFB
:101200006091E8026770660F682B40E4EACF8A813C
:1012100020E081112FE76091E702862F881F882741
:10122000881F6091E8026770660F682B41E4D9CF90
:101230002A8121112FE76091E702862F881F8827D6
:10124000881F6091E8026770660F682B42E4C9CF7F
:101250004A81411111C020E06091E702862F881F6A
:101260008827881F6091E8026770660F682B43E447
:10127000B8CF8A81882379F32FE7EECF2A818FEFC9
:10128000211181E08093BC019ECE4A81442309F460
:101290009ACE9091E802292F2695269526952F70B3
:1012A00081E0820F8F70880F880F880F9778892BC5
:1012B0008093E802982F987709F085CE220F220FAD
:1012C000220F8778822B8093E8027DCE8A81882343
:1012D00009F479CE8091E802982F987709F473CEBB
:1012E000982F969596959695915F9F70990F990F67
:1012F000990F877833CF6091E702862F881F882760
:10130000881F6091E8026770660F682BEA8140E0F1
:1013100050EEE11117C050E040E084EF92E00E94EF
:10132000A71B1BCE6091E702862F881F8827881F86
:101330006091E8026770660F682BFA81FF2359F30A
:101340004FEF5FE184EF92E00E94A71B3CCE84EF59
:1013500092E00E94A61D8091BA019091BB010E946B
:10136000691A9C019091E8029695969596959F70C2
:101370009217130609F0A0F50E943D1A9093BB0145
:101380008093BA018091BC01882351F16091E702FA
:10139000862F881F8827881F6091E8026770660F74
:1013A000682B2091BD0141E084EF92E00E94771B01
:1013B0008091BC019091BD0187FF0DC0482F55273A
:1013C00041950CF45095941715062CF41092BD011C
:1013D0001092BC010895890F87FD03C08093BD0161
:1013E00008958FE7FBCF0C941903809100018111C0
:1013F00006C085EF8093020184EF80930101209164
:101400000201A22FA295AF70B0E091963C91919706
:101410002F7081E090E0BC01022E01C0660F0A949B
:10142000EAF7462F4095432391964C9391979296D5
:101430003C919297362B92963C9392974091010162
:10144000E42FE295EF70F0E031A14F70042E01C05F
:10145000880F0A94EAF7982F9095932391A392A16D
:10146000892B82A390968C9190E002C095958795E8
:101470002A95E2F7817020A130E002C035952795CA
:101480004A95E2F792E020FF90E0892B80930B02CF
:101490009091000181E0982790930702891B809327
:1014A00006020895CF93E0910B02EE0FEE0F20910C
:1014B0000201A22FA295AF70B0E090968C9190E0BF
:1014C0002F7002C0959587952A95E2F7817099272C
:1014D00040910101A42FA295AF70B0E090962C919D
:1014E00030E04F7002C0359527954A95E2F7A90183
:1014F0004170552720FF02C042E050E0842BE82BCA
:10150000E0930B02C0910702EF70F0E0EB59FE4F41
:10151000808190910A02890F80930A0220E0843032
:1015200074F0EC2F0C2E000CFF0BE85FFD4F808158
:101530008F5F808360E08C2F0E94F30921E080910F
:101540000A028D3F74F4EC2F0C2E000CFF0BE85FA9
:10155000FD4F80818150808361E08C2F0E94F309D0
:1015600021E080910A02082E000C990B64E070E0E3
:101570000E94642680930A02822FCF910895E09101
:101580000702F0E0E85FFD4F2081FC012083089511
:10159000FF920F931F93CF93DF93D09106020D2FED
:1015A00010E0085F1D4FFC01C081F8018081C81B5D
:1015B000FC2E80E01F147CF09C2FC7FD90E0C91B1F
:1015C000C11114C08823E9F0DF91CF911F910F91D1
:1015D000FF900C94E50EFA94F80180818F5F808370
:1015E00060E08D2F0E94F30981E0E4CFCF5FF80126
:1015F00080818150808361E08D2F0E94F30981E01A
:10160000DFCFDF91CF911F910F91FF9008950F933E
:101610001F93CF93DF93C42FD22FFC0182818823A5
:10162000C9F040930E020E943D1A90930D028093E0
:101630000C0280E28C0F883008F050C0C77081E047
:1016400001C0880FCA95EAF7DF91CF911F910F91E2
:101650000C94811010910E02141335C080910C026D
:1016600090910D020E94691A883C910560F5C0E2D4
:10167000CD0F1D17B9F080E2810F883040F417704C
:1016800081E001C0880F1A95EAF70E948810C830DF
:1016900048F481E09D2F977001C0880F9A95EAF772
:1016A0000E948110802F0E947910C830B8F4D77042
:1016B00081E001C0880FDA95EAF7DF91CF911F91A1
:1016C0000F910C94881080E28C0F883038F4C7702A
:1016D00081E001C0880FCA95EAF7EFCFDF91CF9183
:1016E0001F910F9108950F939C01CB01243F4CE56E
:1016F0003407A1F190F4293DFCE53F0749F12A3D6B
:101700004CE53407E9F1283D3C45C1F0FC018281FC
:101710008823E1F110920E0219C0263FFCE53F0735
:1017200019F1273F4CE5340729F1253F3C4571F776
:1017300007E225EE44EE65EF7CE505C006E221EE0A
:1017400041EE68ED7CE50E94070B80E00F91089563
:1017500007E225EE45EE69ED7CE5F5CF06E221EEE8
:1017600040EE64EF7CE5EFCF06E221EE42EE66EF5D
:101770007CE5E9CF07E225EE46EE67EF7CE5E3CFB7
:1017800008E221E045EE6AED7CE5DDCF81E0DECFC9
:10179000CF93DF93EC01FB018281882309F4C9C058
:1017A000C631FCE5DF07E0F4C2309CE5D907F0F074
:1017B0000E94E8189093F3028093F202C631ECE5A0
:1017C000DE0720F5C230FCE5DF0798F48091F202D5
:1017D0009091F3020E94F6180E94D21280E006C097
:1017E0009E012B5F3C452930310510F3DF91CF91ED
:1017F0000895FE01E350FC458091F2028160E331DF
:10180000F10588F4E95FF84D0C947826CB5FDC4550
:10181000C930D105D8F6C65ED84DFE010C947826A5
:101820008091F20282608093F202D0CF8091F20226
:101830008460F9CF8091F2028860F5CF8091F30245
:1018400081608093F302C2CF8091F3028260F9CF6E
:101850008091F2028061E7CF8091F2028062E3CF53
:101860008091F2028064DFCF0E94D2128091F20256
:101870008068D9CF8091F2028C60D5CF8091F3023D
:101880008360DFCF8091F2028E7FCDCF8091F20214
:101890008D7FC9CF8091F2028B7FC5CF8091F202FC
:1018A000877FC1CF8091F3028E7FCBCF8091F302EF
:1018B0008D7FC7CF8091F2028F7EB5CF8091F202EB
:1018C0008F7DB1CF8091F2028F7BADCF0E94D2127B
:1018D0008091F2028F77A7CF8091F202837FA3CF0E
:1018E0008091F3028C7FADCF8091F20282FB992729
:1018F00090F921E0922790FB82F990FB83F993CF36
:101900008091F302982F909591708E7F892B90FB98
:1019100081F997CF0E94D2129091F202892F97FB02
:1019200087F9805880CF81E00E9470194FCF80E006
:10193000FBCF81E05BCFCF93DF93EB0186319C45FA
:1019400011F50E94AB189A81992399F08A7A91E057
:1019500009F490E090930F02811109C089E20E947E
:1019600078180E948C1880E0DF91CF91089585E36C
:10197000F6CF80910F02811104C089E20E947F1886
:10198000F0CF85E3FBCF81E0EFCF61E070E083E053
:1019900091E00C949C0D61E070E083E091E00C9488
:1019A000A30DCF93DF9300D000D00F92CDB7DEB759
:1019B0006D8379830E943D0E9C0180E021153105E5
:1019C00001F5ED81F981D901AB5EBD4F8C91819319
:1019D0002F5F3F4F26303105B1F78BE192E00E9437
:1019E000C80A0E94CE1ADC01CB010296A11DB11DCE
:1019F0008093110290931202A0931302B0931402E9
:101A000081E00F900F900F900F900F90DF91CF918A
:101A10000895CF93DF9300D000D000D0CDB7DEB7CC
:101A20006E837D838091110290911202A091130226
:101A3000B091140289839A83AB83BC83BC01CD012E
:101A40000E94A51AEE81FD8190E080E02191DC01E9
:101A5000AB5EBD4F2C93019686309105B9F78BE1B3
:101A600092E026960FB6F894DEBF0FBECDBFDF9191
:101A7000CF910C94BF0A8EE14A9B02C08150E1F7DE
:101A80004A9BFECF08955A9880E28A95F1F75A9AB8
:101A90000895FC013BE03A95F1F798E020E080E002
:101AA00031E040E14A95F1F7880F4A9B02C081601E
:101AB000232742E04A95F1F7000040E14A95F1F70B
:101AC000915079F790E19A95F1F799B132E03A9512
:101AD000F1F7000040E14A95F1F792FB992790F960
:101AE00092272081920F90830895EF92FF920F9397
:101AF0001F93CF93DF930F92CDB7DEB719828C017E
:101B00007C01E60EF11C0E151F0561F481E0998140
:101B1000911180E00F90DF91CF911F910F91FF9075
:101B2000EF9008950E943B0DCE0101960E94490D51
:101B3000F80181938F01E7CF90931D0280931C02DF
:101B4000529A5A9A089590931D0280931C025298BB
:101B50005A9AEA9AE9E6F0E080818F7C80830895C2
:101B60006150770B91E001C0990F6A95EAF720E088
:101B700031E0911108C0222391F05A9A80E28A95AF
:101B8000F1F75A980895492F482339F05A9A232794
:101B900040E24A95F1F79695ECCF5A98F9CF5A98CA
:101BA000EDCFFF920F931F93CF93DF93EC018C0146
:101BB000060F111DC017D10731F4DF91CF911F918E
:101BC0000F91FF900895F9900E94430D68E08F2DCA
:101BD0000E94B00DEFCF1F920F920FB60F921124FB
:101BE0002F933F934F935F936F937F938F939F9325
:101BF000AF93BF93CF93DF93EF93FF935A98529A8B
:101C0000C0911C02D0911D026D81662321F08E814E
:101C10009F810E94D10D0E94430D80E18A95F1F7CA
:101C20005A9852985A9A80E18A95F1F76A81662308
:101C300009F18B819C810E94750DE881F9818823CF
:101C400011F088E001C082E080830E943B0DFF918B
:101C5000EF91DF91CF91BF91AF919F918F917F9144
:101C60006F915F914F913F912F910F900FBE0F9009
:101C70001F901895E881F981E4CFCF93DF93C0914D
:101C80001C02D0911D02F894529A5A9885E08A95C8
:101C9000F1F7000052985A9A80E28A95F1F74A9B30
:101CA0000CC0529A5A9AE881F98181E08083789435
:101CB00081E090E0DF91CF9108956D81662381F0FE
:101CC0008E819F810E94750D81110AC0529A5A9A85
:101CD000E881F98182E08083789482E090E0EACF25
:101CE0000E943B0D80E28A95F1F75A98529A80E162
:101CF0008A95F1F76A81662321F08B819C810E948D
:101D0000D10D0E94430DE881F9811082789490E012
:101D100080E0D0CF90932302809322020895E09137
:101D20002202F0912302309721F00190F081E02D02
:101D3000099480E00895E0912202F0912302309707
:101D400021F00280F381E02D099408952091200272
:101D5000309121022817390771F090932102809366
:101D60002002E0912202F0912302309721F00680B8
:101D7000F781E02D0994089520911E0230911F02F1
:101D80002817390771F090931F0280931E02E0918B
:101D90002202F0912302309721F00084F185E02D9A
:101DA000099408950E94491A6093390270933A0287
:101DB00080933B0290933C0260933502709336020D
:101DC000809337029093380208950E94491A6093D5
:101DD000390270933A0280933B0290933C026093E5
:101DE000310270933202809333029093340208954B
:101DF00085B7806885BF85B7806885BF08950895D9
:101E000008950C94FF0E0C940C030E94F80E83EDC1
:101E100098E10E94101B0E94000F0C94010F0C947B
:101E20004007089508950E94341A0E949C1A0E9447
:101E3000D0050E94151B0E94F5090C94030FAF9268
:101E4000BF92CF92DF92EF92FF920F931F93CF93A7
:101E5000DF9300D000D00F92CDB7DEB70E94110FF4
:101E60000E94120F0E94870681110E94D20E85E205
:101E7000A82E82E0B82E10E000E0C02E802F0E9435
:101E8000A705F82EF501E1905F01E81609F452C0AC
:101E90008091C00281FD0E94AD058E2D8F25D12C31
:101EA000EE24E394982F9E2109F43FC00E940F0F67
:101EB000882399F0D982CA82FE2081E009F480E06B
:101EC0008B830E943D1A8160782F9D838C8349818A
:101ED0005A816B818D810E94C10FF801EB5DFD4F2E
:101EE0008081E826E0820E94520A81110E94E50E5C
:101EF0000E94A7090E948F0E90912402891789F1F0
:101F00000E948F0E809324020F900F900F900F90DD
:101F10000F90DF91CF911F910F91FF90EF90DF9085
:101F2000CF90BF90AF900C94D703D394EE0CF7E012
:101F3000DF12B8CF0F5F1F4F0C30110509F09DCF96
:101F40008FEF89838A831B820E943D1A8160782FDC
:101F50009D838C8349815A816B818D810E94C10F41
:101F6000C2CF0F900F900F900F900F90DF91CF91F5
:101F70001F910F91FF90EF90DF90CF90BF90AF90A7
:101F80000895DF92EF92FF920F931F93CF93DF9309
:101F9000CDB7DEB72B970FB6F894DEBF0FBECDBF1F
:101FA0007A878B87F42E052F162FE72ED82E6111F6
:101FB0000E94CD187E2DEC82DD824F2D502F612F97
:101FC0008D2D90E02B960FB6F894DEBF0FBECDBFDF
:101FD000DF91CF911F910F91FF90EF90DF900C94C4
:101FE0003515FC01808191810C944218CF93C82F44
:101FF0008823F1F18CEF8C0F813AA0F46C2F809143
:102000000B0190910C010E947519882329F08C2FE7
:102010000E947F180E948C188C2F0E947818CF91F4
:102020000C948C1880E28C0F883048F4C77081E0E3
:1020300001C0880FCA95EAF70E94AE18F0CF8BE571
:102040008C0F833038F42C2F2452330BC901CF91DD
:102050000C94A60EC85AC73158F4EC2FF0E0EE0FDE
:10206000FF1FEB58FE4F80819181CF910C94BC0EE5
:10207000CF910895882329F19CEF980F913A20F48D
:102080000E947F180C948C1890E2980F983050F4AE
:10209000877091E001C0990F8A95EAF7892F0E9415
:1020A000B418F0CF9BE5980F933020F490E080E0D7
:1020B0000C94A60E885A873120F490E080E00C94AE
:1020C000BC0E08951F93CF93DF93182FEB010E944E
:1020D000F60F209731F4812FDF91CF911F910C944F
:1020E0003A108FE99FE00197F1F700C000002197B7
:1020F000F0CF6AE070E0893311F460E570E00C9491
:102100006210882321F00E94AE180C948C18089558
:10211000882321F00E94B4180C948C1808958F9293
:102120009F92AF92BF92CF92DF92EF92FF921F9356
:10213000CF93DF9300D000D00F92CDB7DEB7FC0174
:102140006983972F2281358132953F70172F129521
:102150001F70183009F4C1C0C0F51430C0F4872FC7
:102160008F708D83907F123008F441C08D81903242
:1021700011F08295807F9981913009F076C02223F9
:1021800009F46DC0363030F40E94811003C0143061
:1021900009F489C0212F2850330B2430310508F071
:1021A000ABC10E948F0E0F900F900F900F900F9069
:1021B000DF91CF911F91FF90EF90DF90CF90BF9074
:1021C000AF909F908F900C94D703193009F43FC1C2
:1021D00086E0810F8F708230E8F68981823F09F0B6
:1021E00046C1872F8F71222309F46BC13DC199230A
:1021F00029F08D80829480EF88228D822223B9F08D
:102200009D80992061F08981805E883018F0A980D6
:10221000A11009C08D810E94AE180E948C1889817E
:102220000E94F60FB7CF8D810E94BF18F6CF89812B
:102230000E943A10BD80BB2009F4ACCF8981805E3A
:10224000883018F08980811006C08D810E94B418F2
:102250000E948C189FCF8D810E94C518F9CF353010
:1022600008F098CF0E94881095CF222349F033239D
:1022700009F48ACF958190FFD2CF9F70958384CF48
:10228000332381F32981293309F02EC13FEF87EEF3
:1022900093E0315080409040E1F700C00000898118
:1022A0000E943A1077CF872F86958695837061F0CC
:1022B000813009F06FCF89819370211102C090E0C5
:1022C00080E00E94BC0E66CF89819370211102C00C
:1022D00090E080E00E94A60E5DCF872F837009F00A
:1022E00058C0211157CF2981229526952770220F9A
:1022F000220F89818F70C82ED12CF12CE12C022E57
:1023000004C0CC0CDD1CEE1CFF1C0A94D2F78980A3
:1023100040E050E0BA0184FE0FC04FE050E060E0C2
:1023200070E004C0440F551F661F771F2A95D2F72F
:1023300040955095609570959695969593704A0145
:102340005B018C289D28AE28BF2889829A82AB82A7
:10235000BC82923081F09330A9F0913029F0C50110
:10236000B4010E940F1616CF69817A818B819C81FE
:102370000E94E7150FCF69817A818B819C810E9431
:10238000371608CF69817A818B819C810E94E5157F
:1023900001CF8695222311F0872F8170882309F4BD
:1023A000F9CE2981229526952770220F220F898147
:1023B0008F70C82ED12CF12CE12C022E04C0CC0C35
:1023C000DD1CEE1CFF1C0A94D2F7998040E050E01F
:1023D000BA0194FE0FC04FE050E060E070E004C02E
:1023E000440F551F661F771F2A95D2F740955095C9
:1023F000609570959695969593704A015B018C282F
:102400009D28AE28BF2889829A82AB82BC829230F6
:1024100081F09330A9F0913029F0C501B4010E94F8
:102420005817B8CE69817A818B819C810E943017C0
:10243000B1CE69817A818B819C810E948017AACE5E
:1024400069817A818B819C810E946316A3CE9F70E3
:102450009D83222329F0892F0E949916898194CE89
:1024600089810E9488108D810E94CA1693CE89812D
:10247000833F58F4803F99F0813FF9F0222339F1EE
:102480003111CDCE892F8F711CC08981833FB1F767
:102490002223D1F0872F8F710E9474167BCE2223C6
:1024A00041F0353008F076CE892F8F710E94FF16EB
:1024B00071CE363008F06ECEF7CF872F8F71222382
:1024C00099F20E94991666CE0E946F1663CE33234E
:1024D00081F09981993341F42FEF37EE83E0215059
:1024E00030408040E1F7D9CE8FE39CE90197F1F7C6
:1024F000D4CE892F8F71B8CF0F900F900F900F907F
:102500000F90DF91CF911F91FF90EF90DF90CF90D0
:10251000BF90AF909F908F9008950F931F93CF938C
:10252000DF93EC01688179818A810E944E188C01C9
:102530000E94A8170E94E415B801CE01DF91CF9147
:102540001F910F910C948F10CF93DF93EC018B812F
:102550009C81892B29F08881998189238F3F19F4E7
:10256000DF91CF910895CE010E948E038823C1F39D
:10257000CE010E948D12CE01DF91CF910C946703A2
:1025800090E080E00E94A60E90E080E00E94BC0EE9
:102590000E94CD180E94D0180C948C180E948618A6
:1025A0000C94C0120E94BC180C94CE12282F892FB4
:1025B00082958F70903C80F48A30B0F4843020F49F
:1025C000823090F480E008958630E1F781E0283E83
:1025D00088F0213FB9F70EC08C3011F08F3091F7A1
:1025E00093FB882780F9089581E0203F39F018F4A3
:1025F000283E40F70895243F29F7FCCF08950E9414
:1026000042180C94D612CF93DF9300D000D00F92D3
:10261000CDB7DEB70F900F900F900F900F90DF9116
:10262000CF910895CF93DF9300D000D000D0CDB7E5
:10263000DEB726960FB6F894DEBF0FBECDBFDF9192
:10264000CF9108951F93CF93DF93E0913E0216E060
:1026500080913F028E1304C0DF91CF911F910895A6
:10266000CE2FD0E01E9FF0011124E05CFD4F408191
:10267000518162817381848195810E941213FE01D0
:102680003196E770E5CF40917002509171026091F0
:1026900072027091730280917402909175020C9491
:1026A00012131F93CF93DF9380917502807FA9F45B
:1026B00080917202882389F080913E02C0913F028E
:1026C0006091700270917102A0917302B0917402D6
:1026D000D62FD72316E0C81304C0DF91CF911F91E6
:1026E000089590E0109711F0DF3F19F4019687707C
:1026F000F2CF189F9001199F300D1124F901E05C71
:10270000FD4F41814713F2CF40814613EFCF428105
:102710004111ECCF438154814A1B5B0B483C51056E
:1027200028F7809175028F70806180937502F9019E
:10273000EB5BFD4F80818F708061808380E792E04A
:102740000E94A412DF91CF911F910C942213AF929B
:10275000BF92CF92DF92EF92FF920F931F93CF938E
:10276000DF93CDB7DEB72B970FB6F894DEBF0FBE61
:10277000CDBF8C0185E0F801DE01179601900D9226
:102780008A95E1F7F80140815181E28080E7C82E07
:1027900082E0D82E60917302709174026115710508
:1027A00009F444C19091700220917102822F892313
:1027B0008F3F09F43BC1A380B480F0907202F50111
:1027C000E61BF70BFF2009F4E0C080917502382F5B
:1027D000307FE83CF10508F0B2C0311179C0FE2C21
:1027E000251323C0941321C0E1101FC08F70806196
:1027F000809375020E944313C6010E94A412809127
:102800007502F80185838F2D2B960FB6F894DEBFE5
:102810000FBECDBFDF91CF911F910F91FF90EF9031
:10282000DF90CF90BF90AF900895AB2829F0842F10
:1028300085238F3F09F016C180E0F82FF170DF2E5D
:10284000E0913E0220913F0236E080FD1CC0EE2068
:10285000D1F280917502816080937502F12CD3CF03
:102860008E2F90E03E9FF0011124E05CFD4F6181CE
:10287000651306C06081641303C06281E612E7CF6E
:10288000FC013196E770E213EBCF4F8358878F81BD
:1028900098850E944218292F22952F70903260F05F
:1028A000225F2F70223078F49F7051F0F8019581EB
:1028B000907F31F4D12C0AC09F7011F08823D1F39E
:1028C000805E8830B8F3C8010E94A412FD2C9BCF13
:1028D000251306C0941304C0F801EE2009F470C05B
:1028E0004F8358878F8198850E94FF12882319F1A2
:1028F000EE2009F180917502803270F02091700213
:10290000309171023A8329831B82BD82AC828E830F
:10291000CE0101960E94A41286E0F801A0E7B2E081
:1029200001900D928A95E1F70E9451130E94431382
:10293000FF24F39468CFC8010E94A412F9CF31118B
:1029400013C07A2DBB86AA866E2D8B850E94031339
:1029500080E792E00E94A41286E0F60111928A9527
:10296000E9F70E9443137ACF2513BACF9413B8CF57
:10297000E110B6CFF8018583C8010E94A41286E059
:10298000F60111928A95E9F73ECFE83CF10508F08F
:1029900040C0FE2CEE2079F225132AC0941328C0E3
:1029A0008091750280FD1BC0982F907FC1F0F801C7
:1029B0008583903F31F0982F907F905F8F70892BA7
:1029C0008583C8010E94A41286E0F801A0E7B2E066
:1029D00001900D928A95E1F70E94431314CF86E08F
:1029E000F801A0E7B2E001900D928A95E1F70BCFD4
:1029F0004F8358878F8198850E94FF1281118CCF59
:102A000080917502816080937502C8010E94A412B2
:102A1000FACE7A2DBB86AA866E2D8B850E94031373
:102A200086E0F60111928A95E9F7D6CFEE2009F4F7
:102A300082CF4F8358878F8198850E94FF12F82E8E
:102A4000882309F478CF86E0F801A0E7B2E001908E
:102A50000D928A95E1F780E792E00E94F10F0E94C3
:102A60005113BACF81E08E25E8CE1F93CF93DF9329
:102A7000CDB7DEB72C970FB6F894DEBF0FBECDBF33
:102A80004F83588769877A878B879C87CE01079603
:102A90000E94A713882369F08A859B85892B39F0CA
:102AA0004F815885842F85238F3F09F077C016E02A
:102AB00065C086E0FE013796DE01119601900D9209
:102AC0008A95E1F76A857B856115710581F35F81E0
:102AD0004885842F85238F3F51F320913F0230E0BA
:102AE000C901019687709927E0913E02E8171906FF
:102AF00071F40E94D21210923F0210923E0286E0C0
:102B0000E0E7F2E0DF011D928A95E9F7D0CF598323
:102B10004A837D836C8396E0929FD001939FB00D92
:102B20001124A05CBD4FFE01319601900D929A9543
:102B3000E1F780933F020E942213B9CF819FC00129
:102B40001124805C9D4F0E94A7138823E9F0E09137
:102B50003E021E9FF0011124E05CFD4F4081518137
:102B600062817381848195810E94121380913E025B
:102B700090E001968770992780933E0280913E02F3
:102B800090913F028913DACF2C960FB6F894DEBFEE
:102B90000FBECDBFDF91CF911F91089569857A85D2
:102BA0008B859C850E94121382CF08950C94D515B5
:102BB0000E94D6156093B1027093B2028093B30263
:102BC0009093B4020C94C01208950C94D815CF932E
:102BD000DF9300D000D0CDB7DEB769837A838B83D3
:102BE0009C838091B1029091B202A091B302B09106
:102BF000B40229813A814B815C81282B392B4A2BE5
:102C00005B2B29833A834B835C83CA01B9010F9004
:102C10000F900F900F90DF91CF910C94D815CF9318
:102C2000DF9300D000D0CDB7DEB769837A838B8382
:102C30009C838091B1029091B202A091B302B091B5
:102C4000B40229813A814B815C81282339234A23AC
:102C50005B2329833A834B835C83CA01B9010F90BC
:102C60000F900F900F90DF91CF910C94D815CF93C8
:102C7000DF9300D000D0CDB7DEB769837A838B8332
:102C80009C838091B1029091B202A091B302B09165
:102C9000B40229813A814B815C81282739274A2750
:102CA0005B2729833A834B835C83CA01B9010F9068
:102CB0000F900F900F90DF91CF910C94D8150C943A
:102CC000D5150C945F160E9461166093AD02709347
:102CD000AE028093AF029093B0020C94C01260E0F9
:102CE00070E0CB010C9463160F931F93CF93DF9387
:102CF00000D000D0CDB7DEB741E050E060E070E03A
:102D00008A019B0104C0000F111F221F331F8A95E7
:102D1000D2F709831A832B833C83C901B8010F9032
:102D20000F900F900F90DF91CF911F910F910C9406
:102D300063160F931F93CF93DF9300D000D0CDB7CE
:102D4000DEB741E050E060E070E004C0440F551F82
:102D5000661F771F8A95D2F78091AD029091AE02DF
:102D6000A091AF02B091B0028A019B01082B192BF0
:102D70002A2B3B2B09831A832B833C83C901B8017F
:102D80000F900F900F900F90DF91CF911F910F91A7
:102D90000C9463160F931F93CF93DF9300D000D052
:102DA000CDB7DEB741E050E060E070E004C0440F12
:102DB000551F661F771F8A95D2F7409550956095ED
:102DC00070958091AD029091AE02A091AF02B0914A
:102DD000B0028A019B01082319232A233B2309837C
:102DE0001A832B833C83C901B8010F900F900F9079
:102DF0000F90DF91CF911F910F910C9463160F9359
:102E00001F93CF93DF9300D000D0CDB7DEB741E062
:102E100050E060E070E004C0440F551F661F771F4C
:102E20008A95D2F78091AD029091AE02A091AF0247
:102E3000B091B0028A019B01082719272A273B2756
:102E400009831A832B833C83C901B8010F900F902B
:102E50000F900F90DF91CF911F910F910C946316FB
:102E6000CF93DF9300D000D0CDB7DEB769837A83EC
:102E70008B839C838091AD029091AE02A091AF02B2
:102E8000B091B00229813A814B815C81282B392B8A
:102E90004A2B5B2B29833A834B835C83CA01B9019C
:102EA0000F900F900F900F90DF91CF910C946316BD
:102EB000CF93DF9300D000D0CDB7DEB769837A839C
:102EC0008B839C838091AD029091AE02A091AF0262
:102ED000B091B00229813A814B815C81282339234A
:102EE0004A235B2329833A834B835C83CA01B9015C
:102EF0000F900F900F900F90DF91CF910C9463166D
:102F0000CF93DF9300D000D0CDB7DEB769837A834B
:102F10008B839C838091AD029091AE02A091AF0211
:102F2000B091B00229813A814B815C8128273927F1
:102F30004A275B2729833A834B835C83CA01B90103
:102F40000F900F900F900F90DF91CF910C9463161C
:102F50000895E82F27E0929FE00D11248E2F8770AF
:102F600041E001C0440F8A95EAF7E695E695E695BB
:102F700085E0E89FF0011124EA58FD4F30E020E0A1
:102F800070E05191DF011197CB01022E02C096959E
:102F900087950A94E2F78170819585278423852798
:102FA0008C932F5F3F4F2530310559F70895E82F57
:102FB00027E0929FE00D11249E2F9770E695E695ED
:102FC000E69585E0E89FF0011124EA58FD4F50E0B6
:102FD00040E080E0219130E0092E02C0369527952F
:102FE0000A94E2F721703327042E01C0220F0A94BD
:102FF000EAF7822B4F5F5F4F4530510559F708952F
:10300000BF92CF92DF92EF92FF920F931F93CF93D5
:10301000DF938C01C090AD02D090AE02E090AF0281
:10302000F090B0028091B1029091B202A091B302EF
:10303000B091B402C82AD92AEA2AFB2ACFE1D0E00B
:10304000BC2ED701C6010C2E04C0B695A795979546
:1030500087950A94D2F780FD0EC0219788F7B12C8E
:103060008B2DDF91CF911F910F91FF90EF90DF900B
:10307000CF90BF900895B8018C2F0E94F303019761
:1030800061F3EECFCF93DF93D82FC92F0E940018A2
:103090006D2F7C2FDF91CF910C94F3031F93CF936F
:1030A000DF93162FD72F90913D02992339F0862F69
:1030B000972FDF91CF911F910C944218882391F0A4
:1030C000862F972F0E940018C82F682F812F9D2FC1
:1030D0000E94A917612F7D2F8C2FDF91CF911F9117
:1030E0000C94F303862F972F0E94D717C82FF2CF87
:1030F000682F80910B0190910C010C94AF19682FEF
:1031000080910B0190910C010C94B11980910B01ED
:1031100090910C010C94B319E0910B01F0910C010A
:103120008091BF028083E0910B01F0910C018081BE
:103130009091BE02892B8083E0910B01F0910C01EC
:1031400080819091BD02892B808380910B019091A9
:103150000C010C949B0E8091BF0208959091BF02C8
:10316000982B9093BF020895982F90958091BF025D
:1031700089238093BF0208951092BF020895909111
:10318000BE02982B9093BE020895982F909580913F
:10319000BE0289238093BE0208951092BE02089554
:1031A0001092BD02089580E0089590E080E00E94B2
:1031B00086269C0181E02B3E3E4F09F080E0089579
:1031C00082E090E00C947E2683E090E00C947E26D2
:1031D000CF9384E090E00E947E26C82F81E290E0A9
:1031E0000E947E26982F8C2FCF910895CF93682F21
:1031F000C92F84E090E00E948C266C2F81E290E041
:10320000CF910C948C26AB01BC018FE090E00C9424
:103210009E2660E070E0CB010E9403190C940B0322
:103220006BEE7EEF90E080E00E94AA2660E082E0F4
:1032300090E00E948C2660E083E090E00E948C2663
:103240001092B1021092B2021092B3021092B40224
:1032500060E084E090E00E948C2660E081E290E0F3
:103260000E948C2660E085E090E00E948C2660E061
:1032700086E090E00E948C266FEF87E090E00E944D
:103280008C2640E050E0BA0188E090E00E949E2643
:1032900060E08DE090E00E948C2640E050E0BA01B2
:1032A00088E190E00E949E2660E087E190E00E9425
:1032B0008C2640E050E0BA018CE190E00E949E260E
:1032C00060E080E290E00E948C2640E050E0BA018D
:1032D00088E190E00E949E260C9409190C94101924
:1032E000682F8EE090E00C948C269C01662351F0B0
:1032F000FC013296285F3F4F8191861729F0E21733
:10330000F307D1F780E0089581E008959C01FC0166
:1033100032968FEF90E04191461751F08F3F19F4AC
:10332000411101C0892F9F5F9630A9F78F3F09F4A3
:103330000895280F311D87FD3A95F901628308959C
:103340009C01FC013296285F3F4F8191861303C098
:10335000DF0111971C92E217F307B9F708950C9457
:1033600086190C94A019FC01329686E0DF011D92AB
:103370008A95E9F70895089508950C94BC198091F1
:10338000E503843049F10E94BD1980E00E94D70313
:103390001092C10288E190E020E40FB6F894A8955D
:1033A000809360000FBE2093600083B7817F8460AC
:1033B00083BF83B7816083BF7894889583B78E7FFE
:1033C00083BF0FB6F894A8958091600088618093C0
:1033D0006000109260000FBE08950895CF930E9480
:1033E000BB190E9487060E94ED19C0E08C2F0E9435
:1033F000A705811105C0CF5FCC30C1F7CF910895EB
:1034000081E0FCCF08950C94021A0E94D2120E940F
:103410008F0E0E94D7030C94031A1F921FB61F929F
:1034200011248F939F93AF93BF938091C102811119
:1034300013C08091EA029091EB02A091EC02B0914E
:10344000ED024196A11DB11D8093EA029093EB021B
:10345000A093EC02B093ED02BF91AF919F918F9139
:103460001F901FBE1F90189582E084BD93E095BD0C
:103470009AEF97BD80936E0008952FB7F8948091CE
:10348000EA029091EB02A091EC02B091ED022FBF05
:103490000895CF93DF9300D000D0CDB7DEB78FB7BC
:1034A000F8942091EA023091EB024091EC025091A5
:1034B000ED0229833A834B835C838FBF69817A81D4
:1034C0008B819C810F900F900F900F90DF91CF9187
:1034D00008959C014FB7F8948091EA029091EB0215
:1034E000A091EC02B091ED024FBF821B930B0895A7
:1034F00078941F921FB61F9211248F939F93AF93BE
:10350000BF938091EA029091EB02A091EC02B091FE
:10351000ED020196A11DB11D8093EA029093EB028A
:10352000A093EC02B093ED02BF91AF919F918F9168
:103530001F901FBE1F9018951092EE021092EF027E
:103540001092F0021092F1020895CF92DF92EF9262
:10355000FF92CF93DF9300D000D0CDB7DEB76B01E1
:103560007C010E94400781110EC00E94491AC61AB0
:10357000D70AE80AF90AC092EE02D092EF02E0926E
:10358000F002F092F1020F900F900F900F90DF91E8
:10359000CF91FF90EF90DF90CF900895CF93DF937E
:1035A00000D000D0CDB7DEB70E944007882341F09D
:1035B0000F900F900F900F90DF91CF910C94491ABC
:1035C0000E94491A69837A838B839C838091EE02DF
:1035D0009091EF02A091F002B091F10229813A811D
:1035E0004B815C81280F391F4A1F5B1FCA01B9013B
:1035F0000F900F900F900F90DF91CF91089587E774
:1036000097E7909301088093000888E19AE00FB64D
:10361000F894A895809360000FBE90936000FFCF50
:103620009093B3018093B2010895CF93DF9300D0BC
:1036300000D0CDB7DEB70E94D518811102C00E941C
:103640006E190E94E0188093C0020E94E8189093BF
:10365000F3028093F2020E94E418282F30E050E039
:1036600040E0CA01B9010E94E5158091AD02909138
:10367000AE02A091AF02B091B00289839A83AB836E
:10368000BC83BC01CD010F900F900F900F90DF9184
:10369000CF910C946116881F8827881F0895982F52
:1036A00081E0983F08F480E00895982F907F903D46
:1036B00069F070F4903B31F038F4903A19F0807E64
:1036C000803899F483E00895903C79F482E008957D
:1036D000903EC1F3903F49F4EFE0E80F813F28F0BE
:1036E000F0E0ED55FE4F8081089580E008950F933E
:1036F000DC01022F0F77242F2F776F70462F406B3E
:10370000ED91FC9163E070E009950F9108950F939E
:10371000DC01022F0F77242F2F776F70462F40691F
:10372000ED91FC9163E070E009950F9108950F937E
:10373000DC01022F0F77242F2F776F70462F406800
:10374000ED91FC9163E070E009950F9108950F935E
:103750001F93DC019A01411580E25807C4F441151A
:10376000504EC4F0305E8901000F012F001F110B75
:1037700011952F776F70462F406EED91FC91119748
:1037800063E070E0CD0109951F910F9108952FEF2F
:103790003FE3E9CF30E020E0E6CFFC0173836283B2
:1037A0000895FC01758F648F0895CF93DF93EC012A
:1037B0001DA21FA21EA2BC01685D7F4F40EC885174
:1037C0009F4F0E94DA1D1B821A821D821C821F825B
:1037D0001E82198618861B861A861D861C861F86E1
:1037E0001E86198A188A1B8A1A8A1D8A1C8A1F8AB1
:1037F0001E8A198E188E1B8E1A8E1D8E1C8E1F8E81
:103800001E8E19A218A2DF91CF910895EF92FF9218
:103810000F931F93CF93DF93EA018A01060F111DC7
:103820007C0128EEE20EF11CC017D10739F4DF91BC
:10383000CF911F910F91FF90EF9008956991C7016B
:103840000E94E11DF1CFFC01718360830895FC01AA
:1038500071A360A30895AF92BF92CF92DF92EF92CF
:10386000FF920F931F93CF93DF9300D00F92CDB7AA
:10387000DEB77C016B01142FB22EA02EDC019596D1
:103880008C9195978430A9F55A96ED91FC913097DB
:10389000E9F1CB01019763E070E00E945026CB0173
:1038A000880F991F860F971F4983BA820B834C2D6F
:1038B000481B9E012F5F3F4FBC01C7010995D701EF
:1038C0005E96ED91FC91309731F00A2D2B2D412F12
:1038D000B601C70109950F900F900F90DF91CF911E
:1038E0001F910F91FF90EF90DF90CF90BF90AF901E
:1038F00008956230710509F452C06330710599F082
:103900006130710509F47AC0D12CC12CD7015C96C5
:10391000ED91FC91309799F20A2D2B2D412FB60194
:10392000C7010995CCCF842F807F803BF1F058F4FC
:10393000803931F1803A49F1803841F7D701169644
:10394000ED91FC9116C0803E29F1803FF9F6423F8F
:10395000E9F6D7011C96ED91FC91202F4B2D62EFDB
:103960003097A1F2C7010995AACFD7011296ED9120
:10397000FC91309759F22A2D4B2D612F6F70F2CFA9
:10398000D7011496ED91FC91F4CFD7011896ED91E3
:10399000FC91EFCFD7011A96ED91FC91EACF842FDD
:1039A000807F803D81F0803F99F0803C09F0AECF70
:1039B000D7011E96ED91FC91309709F4A7CF4B2DBE
:1039C000612F6F7010C0D7015096ED91FC91F4CF2C
:1039D000433F61F4D7015296ED91FC914B2D612F3D
:1039E000309709F493CFC701099569CF413F09F09A
:1039F0008DCFD7015496ED91FC91F0CF842F0E948A
:103A00004F1B882359F0D7015696ED91FC913097C2
:103A100009F47CCF612FC701099551CF163F09F0FA
:103A200075CFD7015896ED91FC91F1CFFF920F938E
:103A30001F93CF93DF93EC01162F862F0E944F1B0D
:103A4000882391F0FDA081E08DA300E020E0412FCC
:103A500061E070E0CE010E942B1CFDA2DF91CF91AE
:103A60001F910F91FF900895812F0E944B1B4DA134
:103A7000882309F443C0443029F01AA381E090E080
:103A80009FA38EA3812F0E94551B823069F1D0F431
:103A900081111EC0103F51F1173FB1F42EA13FA17B
:103AA000C90163E070E00E945026FE01E80FF91F93
:103AB00012A3B9016F5F7F4F7FA36EA30CA12BA14F
:103AC0004AA10DC0833081F01DA21FA21EA2C6CF45
:103AD00081E08DA300E020E0412F61E070E0CE01A5
:103AE0000E942B1C1DA2BACF8DA3B8CF84E08DA35A
:103AF0001AA381E090E09FA38EA3B0CF442309F4E2
:103B0000ADCF2EA13FA1C90163E070E00E94502615
:103B1000FE01E80FF91F12A3B9016F5F7F4F7FA36A
:103B20006EA38130910569F0029709F097CF0CA13F
:103B30002BA14AA1CE010E942B1C8DA18430C9F675
:103B40008DCF00E0423009F089CFF2CFCF92DF92E3
:103B5000EF92FF920F931F93CF93DF93EC01E8A1B5
:103B6000F9A1309709F009956E0188EEC80ED11CB5
:103B7000C6010E940F1E10E000E0E82EF12C0E1589
:103B80001F0548F0DF91CF911F910F91FF90EF90AB
:103B9000DF90CF90089560E0C6010E94231E682F39
:103BA000CE010E94161D61E0C6010E94331E0F5F08
:103BB0001F4FE5CFFC01428374836383118210821F
:103BC00008951F93CF93DF93EC01162F0E944A1E96
:103BD000282FE981F0E0CF0101966A8170E00E9410
:103BE000642638813817190641F4822F0E944D1E31
:103BF00080E0DF91CF911F9108958B819C81E80F28
:103C0000F91F1083898190E001966A8170E00E941B
:103C100064268983822F0E944D1E81E0EACFCF93D4
:103C2000DF93EC010E944A1E99812881921740F08F
:103C3000C92FC21B0E944D1E8C2FDF91CF9108957A
:103C4000CA819C0FF5CFFC018081860F9927991FAF
:103C5000628170E00E94642623813481280F391F1D
:103C6000F901808108951F93CF93DF93EC01162F04
:103C70000E944A1E282F8881810F9927991F6A81E7
:103C800070E00E9464268883822FDF91CF911F917C
:103C90000C944D1E8FB7F89408958FBF0895089522
:103CA00008950F931F93CF93DF9300D000D000D0DF
:103CB0000F92CDB7DEB7182F092FCE0101960E94C3
:103CC000B12081110BC027960FB6F894DEBF0FBE4E
:103CD000CDBFDF91CF911F910F9108958A810E94EE
:103CE000551B682F8A818D838B818E838C818F8376
:103CF00061110AC02981243079F0273069F026301B
:103D000069F061E02530C9F6AE014B5F5F4F812F4E
:103D1000902F0E94061CD1CF63E0F6CF62E0F4CF73
:103D2000DF92EF92FF920F931F93CF93DF9300D018
:103D300000D0CDB7DEB77B01142FD22E4A832B8360
:103D40000C83842F0E94551B811129C082E0E81644
:103D5000F10401F183E0E816F10439F0EA94EF2868
:103D600069F485E0173F21F404C087E0073F09F0BC
:103D700084E08983CE0101960E94AC200F900F90C1
:103D80000F900F90DF91CF911F910F91FF90EF90C7
:103D9000DF90089587EFD812EBCF86E0EACF129537
:103DA0001F701983E7CF0E946E0784EF92E00E9494
:103DB000D51B60E97EE184EF92E00E94231C61E55F
:103DC0007EE184EF92E00E94271C6FE47EE184EFA5
:103DD00092E00E94D11B60E57EE184EF92E00C94BA
:103DE000CD1BFC01CB012091E5032430B1F42181EE
:103DF0002F702093E90050E040E064E070E00E9402
:103E0000792181110BC09091E80095FD07C0909138
:103E1000E8009E779093E800089582E00895FC0101
:103E20008091E503843089F481818F708093E9006B
:103E30009091F3008091F200892B49F08091E80085
:103E40008E778093E8000C941F2382E0089580E031
:103E50000895FC018091E503843059F481818F70CD
:103E60008093E9008091E80080FF03C0CF010C94AB
:103E70000F1F0895FC01CB012091E503243011F0C0
:103E800080E0089526812F702093E9002091E800BA
:103E900022FFF6CF2091E80025FFF2CF50E040E06E
:103EA00064E070E00E94C8218091E80085FD05C0B3
:103EB0008091E8008B778093E80081E008958091FD
:103EC000CA0208950895CF93DF9300D00F92CDB723
:103ED000DEB79091E503943019F589836A837B837B
:103EE00082E08093E9008FEF9091E800815095FD8A
:103EF00006C095ED9A95F1F700008111F5CF8091FC
:103F0000E80085FF0DC050E040E063E070E0CE01C6
:103F100001960E9479218091E8008E778093E800D5
:103F20000F900F900F90DF91CF910895BC0184E026
:103F30000C94631FBC0183E00C94631FCF93DF9349
:103F4000D82FC92F81E08093E9008FEF9091E8008E
:103F5000815095FD06C095ED9A95F1F7000081110D
:103F6000F5CF8091E80085FF16C050E040E068E0A2
:103F700070E08D2F9C2F0E9479218091E8008E7730
:103F80008093E80088E0ED2FFC2FA2ECB2E00190D6
:103F90000D928A95E1F7DF91CF9108958091E40326
:103FA000811109C00E9450230E94AD238091E2003C
:103FB00084608093E20008951092E40308950895C8
:103FC0000895089542E061EC81E00E94CC2242E233
:103FD00061EC82E00E94CC2242E361E883E00E942F
:103FE000CC2242E361E884E00C94CC228091E70388
:103FF000893089F148F4823009F49DC0833009F496
:1040000058C0813041F008958A3009F484C08B3063
:1040100009F46AC008958091E603813A09F048C026
:104020008091E800877F8093E8008091EA03909177
:10403000EB03892B61F468E082EC92E070E00E946F
:1040400017228091E8008B778093E800089560E064
:1040500090E080E0F3CF8091E603813249F58091D2
:10406000EA039091EB03029718F58091E800877FAF
:104070008093E8008091E80082FF16C09091F300E1
:104080008091F200029729F48091F1008B7F8130BA
:1040900021F48091F1008093CA028091E8008B772F
:1040A0008093E8000C9400238091E5038111E2CF16
:1040B00008958091E603813AD9F78091EA039091BF
:1040C000EB03892BA9F78091E800877F8093E800B4
:1040D0008091E80080FFFCCF809123018093F10064
:1040E0008091E8008E77DCCF8091E603813201F782
:1040F0008091EA039091EB03892BD1F68091E8003F
:10410000877F8093E8000E9400238091E8038093DA
:1041100023010C94D2128091E603813249F68091FA
:10412000E800877F8093E8000E9400238091E903E4
:104130008093CB0208958091E603813A09F0B8CFCD
:104140008091E800877F8093E8008091E80080FFFD
:10415000FCCF8091CB02C2CFBC018DE091E00C94EA
:10416000F11EBC018DE091E00C943A1F0E94D31E19
:1041700084B7877F84BF0FB6F894A89580916000BC
:10418000886180936000109260000FBE80E890E02C
:104190000FB6F89480936100909361000FBE0E9467
:1041A000050F0E9450230E94AD238091E20084609D
:1041B0008093E20078940E9435260E94130F89E1D3
:1041C00091E00E948A0E8091E5038530C9F00E943B
:1041D0001F0F8DE091E00E94291F0E94110F0E9485
:1041E000120FF1CF0E94BF198091E303882341F0A1
:1041F0000E94EE19882321F00E9463210E94D212AE
:104200008091E503853071F30E94051AE0CF0C948C
:104210000921FC01CB01DA012F2F3327233031058F
:10422000D1F070F42130310509F43EC0223031055F
:1042300069F48FE990E026E234E02D933C930895F1
:1042400021323105E9F02232310521F190E080E0A0
:1042500030E020E0F2CFCF019927E13059F08230F1
:10426000910559F0E2E2F4E0892B81F7849190E026
:104270009F01E3CFE2E1F4E0F9CFE4EFF3E0F6CF22
:10428000892BB9F06130710509F789E090E021E5EB
:1042900034E0D3CF892B91F061307105B9F682E318
:1042A00090E027ED34E0C9CF82E190E025EC34E0E6
:1042B000C4CF89E090E028E334E0BFCF80E490E011
:1042C00029E035E0BACF80E189BD82E189BD09B43A
:1042D00000FEFDCF8091D8008F7D8093D800809123
:1042E000E00082608093E0008091E00081FDFCCFDF
:1042F0000895AF92BF92CF92DF92FF920F931F93D8
:10430000CF93DF936C01EB018A010E941F23F82EEB
:10431000811123C00115110539F0F80180819181C7
:10432000C81BD90BC80ED91EB12CA12C2097A9F0FF
:104330008091E80085FD22C08091E8008E7780930F
:10434000E80001151105A1F0F80180819181A80E06
:10435000B91EB182A08285E0F82E8F2DDF91CF911A
:104360001F910F91FF90DF90CF90BF90AF90089575
:104370000E941F238823D1F2F82EEFCFF6018191FE
:104380006F018093F1002197FFEFAF1ABF0ACECFE4
:10439000AF92BF92CF92DF92FF920F931F93CF9372
:1043A000DF936C01EB018A010E941F23F82E81111B
:1043B00023C00115110539F0F80180819181C81BD6
:1043C000D90BC80ED91EB12CA12C2097A9F0809131
:1043D000E80085FD22C08091E8008B778093E8009B
:1043E00001151105A1F0F80180819181A80EB91E77
:1043F000B182A08285E0F82E8F2DDF91CF911F91A1
:104400000F91FF90DF90CF90BF90AF9008950E94E2
:104410001F238823D1F2F82EEFCF8091F100F6010F
:1044200081936F012197FFEFAF1ABF0ACECFFC0136
:10443000CB012091EC033091ED032617370790F064
:10444000009729F42091E8002E772093E80040E0BF
:10445000009751F4411108C08091E80082FF31C0FB
:1044600080E00895C901F3CF2091E5032223A9F14B
:104470002530A9F12091E80023FD2DC02091E8000E
:1044800022FDEACF2091E80020FFE2CF3091F30037
:104490002091F200009719F02830310558F041E0E2
:1044A0002830310509F040E02091E8002E77209374
:1044B000E800CECF41914093F10001972F5F3F4F2D
:1044C000E9CF8091E503882341F0853041F0809168
:1044D000E80083FFC1CF81E0089582E0089583E082
:1044E0000895FC01CB012091EC033091ED032617D8
:1044F000370790F0009729F42091E8002E77209359
:10450000E80040E0009751F4411108C08091E800B4
:1045100082FF32C080E00895C901F3CF2091E50306
:104520002223B1F12530B1F12091E80023FD2EC006
:104530002091E80022FDEACF2091E80020FFE2CFA1
:104540003091F3002091F200009719F028303105E6
:1045500058F041E02830310509F040E02091E800B2
:104560002E772093E800CECF44914093F10031960E
:1045700001972F5F3F4FE8CF8091E503882341F0FB
:10458000853041F08091E80083FFC0CF81E008953D
:1045900082E0089583E00895982F973028F08F7077
:1045A0008093E90081E008959093E900242F762F0D
:1045B00050E0981731F07091EC002091ED0050918F
:1045C000F00021FD02C09F5FE8CF3091EB003E7FFD
:1045D0003093EB003091ED003D7F3093ED00309152
:1045E000EB0031603093EB007093EC002093ED0012
:1045F0005093F0002091EE0027FDE5CF80E0089574
:104600008091E60387FF13C08091E80082FF06C017
:104610008091E8008B778093E80004C08091E503E7
:104620008111F2CF08958091E5038823D9F3809119
:10463000E80080FFF8CF8091E8008E77ECCF2091E2
:10464000E4003091E50095E6A9012091EC00822F6D
:10465000817020FF06C08091E80080FF06C080E0E6
:1046600008952091E80022FD1AC08091E503882377
:1046700089F0853089F08091EB0085FD0FC0209195
:10468000E4003091E50042175307F9F29150E1F64A
:1046900084E0089582E0089583E0089581E008951C
:1046A0000E94BE230E94C623E0EEF0E0808181607C
:1046B0008083E8EDF0E080818F77808319BCA7EDDF
:1046C000B0E08C918E7F8C9380818F7E808310925E
:1046D000E40308950F931F93CF93DF930E94BE23AB
:1046E0000E94C623C8EDD0E088818F7788838881B7
:1046F0008068888388818F7D888319BC1092E50348
:104700001092E1031092E3031092E20300EE10E036
:10471000F80180818B7F808388818160888342E07B
:1047200060E080E00E94CC22E1EEF0E080818E7FAC
:104730008083E2EEF0E08081816080838081886008
:104740008083F80180818E7F808388818061888367
:10475000DF91CF911F910F910895E8EDF0E08081F6
:104760008F7E8083E7EDF0E080818160808384E04C
:1047700082BF81E08093E4030C946A23E8EDF0E0CB
:1047800080818E7F80831092E20008951092DA007B
:104790001092E10008951F920F920FB60F9211240C
:1047A0002F933F934F935F936F937F938F939F9339
:1047B000AF93BF93EF93FF938091E10082FF0BC013
:1047C0008091E20082FF07C08091E1008B7F80939F
:1047D000E1000E9434268091DA0080FF19C08091A8
:1047E000D80080FF15C08091DA008E7F8093DA00B8
:1047F0008091D90080FF94C080E189BD82E189BDAC
:1048000009B400FEFDCF81E08093E5030E94CE1F36
:104810008091E10080FF19C08091E20080FF15C007
:104820008091E2008E7F8093E2008091E2008061BF
:104830008093E2008091D80080628093D80019BCF8
:1048400085E08093E5030E94E01F8091E10084FFF2
:1048500029C08091E20084FF25C080E189BD82E10A
:1048600089BD09B400FEFDCF8091D8008F7D809373
:10487000D8008091E1008F7E8093E1008091E2007A
:104880008F7E8093E2008091E20081608093E2005D
:104890008091E103882309F449C084E08093E50313
:1048A0000E94E11F8091E10083FF29C08091E20016
:1048B00083FF25C08091E100877F8093E10082E043
:1048C0008093E5031092E1038091E1008E7F809355
:1048D000E1008091E2008E7F8093E2008091E2000F
:1048E00080618093E20042E060E080E00E94CC22A0
:1048F0008091F00088608093F0000E94DF1FFF919C
:10490000EF91BF91AF919F918F917F916F915F9147
:104910004F913F912F910F900FBE0F901F901895C0
:1049200019BC1092E5030E94DC1F72CF8091E30056
:1049300087FD02C081E0B2CF83E0B0CF1F920F921B
:104940000FB60F9211242F933F934F935F936F9362
:104950007F938F939F93AF93BF93CF93DF93EF9307
:10496000FF93D091E900DF708091EC00C82FC170F7
:1049700080FDC0E81092E9008091F000877F80936D
:10498000F00078940E94E2241092E9008091F000F7
:1049900088608093F000CD2BCF70C093E900FF9129
:1049A000EF91DF91CF91BF91AF919F918F917F91C7
:1049B0006F915F914F913F912F910F900FBE0F908C
:1049C0001F9018951F93CF93DF93CDB7DEB7AA97AB
:1049D0000FB6F894DEBF0FBECDBF86EE93E0FC01AC
:1049E00001962091F100208323E08E3E9207B9F7D3
:1049F0000E94F61F8091E80083FF1EC18091E603AC
:104A00009091E7039A3008F017C1E92FF0E0ED5DCF
:104A1000F84D0C947826803899F0823809F00CC152
:104A20008091EA038F70873008F006C18093E90017
:104A30008091EB0085FB882780F91092E90006C081
:104A40008091E2039091E303911182609091E800DC
:104A5000977F9093E8008093F1001092F10080918D
:104A6000E8008E77E5C0882309F4D3C0823009F0CE
:104A7000E3C08091E8038111D6C08091EA038F7072
:104A80002FEF280F263008F0D7C08093E90020913F
:104A9000EB0020FFC8C0933031F48091EB008062BE
:104AA0008093EB00C0C09091EB0090619093EB007D
:104AB00021E030E001C0220F8A95EAF72093EA0056
:104AC0001092EA008091EB008860EACF8111B4C0B7
:104AD0001091E8031F778091E3008078812B809309
:104AE000E3008091E800877F8093E8000E94002324
:104AF0008091E80080FFFCCF8091E3008068809384
:104B0000E30082E0111183E08093E50395C08058B3
:104B1000823008F091C08091E8039091E9038C3DC8
:104B200023E09207A1F583E08A838AE289834FB765
:104B3000F894DE01139620E03EE051E2E32FF0E02E
:104B400050935700E49120FF03C0E295EF703F5F60
:104B5000EF708E2F90E0EA30C0F0C7968D939D9352
:104B60002F5F243159F74FBF8091E800877F8093F2
:104B7000E8006AE270E0CE0101960E94172280915F
:104B8000E8008B778093E80057C0C096E7CF60912C
:104B9000EA037091EB03AE014F5F5F4F0E94072164
:104BA000BC01892B09F448C08091E800877F80937D
:104BB000E80089819A810E947122E1CF8038E1F575
:104BC0008091E800877F8093E8008091E1038093E3
:104BD000F10045CF811130C09091E803923060F52B
:104BE0008091E800877F8093E8009093E1030E9422
:104BF00000238091E103882311F084E005C08091B7
:104C0000E30087FDFACF81E08093E5030E94E21F75
:104C100013C08091E803813079F481E0933009F08A
:104C200080E08093E3031092E9008091E800877FA1
:104C30008093E8000E9400238091E80083FF0AC06F
:104C40008091E800877F8093E8008091EB0080628C
:104C50008093EB00AA960FB6F894DEBF0FBECDBFCF
:104C6000DF91CF911F9108950895CF938091E5032F
:104C70008823A1F0C091E900CF709091EC00892FBA
:104C8000817090FD80E8C82B1092E9008091E800C7
:104C900083FD0E94E224CF70C093E900CF91089574
:104CA000AA1BBB1B51E107C0AA1FBB1FA617B70752
:104CB00010F0A61BB70B881F991F5A95A9F780956E
:104CC0009095BC01CD01089597FB072E16F4009432
:104CD00007D077FD09D00E94502607FC05D03EF48E
:104CE000909581959F4F0895709561957F4F089598
:104CF000EE0FFF1F0590F491E02D0994F999FECF76
:104D000092BD81BDF89A992780B50895A8E1B0E0D9
:104D100042E050E00C94B226262FF999FECF92BDC6
:104D200081BDF89A019700B4021639F01FBA20BD70
:104D30000FB6F894FA9AF99A0FBE08950396272FA2
:104D40000E948D260E948C26252F0E948D26242FBE
:104D50000C948D260196272F0E948D260C948C266C
:104D6000DC01CB01FC01F999FECF06C0F2BDE1BD2B
:104D7000F89A319600B40D9241505040B8F708951A
:104D8000F894FFCFFF07FF07FF07FF07FF07FF07A5
:104D9000FF07FF07FF07FF070C0817082208220874
:104DA00022082208220822082208220822082208B3
:104DB0002208220822082E084008670867086708AA
:104DC000670867086708670867086708670867086B
:104DD00075088C089E089E089E089E089E089E08DE
:104DE0009E089E089E089E089E089E089E089E0893
:104DF0009E089E08B008CE08E008F60807091809C2
:104E0000280939093E09450966097B099209100CF0
:104E1000160C1A0C280C2C0C300C340C3A0C420CCE
:104E2000460C4A0C4E0C5A0C5E0C620C660C6C0C58
:104E30008A0C740C1E0C240C520C560C3E0C700C7C
:104E4000800C930C970C0B2533251C2633251C2630
:0A4E5000662587251C26DE25EA25CD
:104E5A000137671002041102071502B502038340E5
:104E6A000000010440000001005F1F9E1F621F9A9C
:104E7A001F961F01E200E900EA00B500B600B7007C
:104E8A00CD008301CC008A01920194012102230200
:104E9A0024022502260227022A02B300B4006F0068
:104EAA00700091C6F731333290353497F666940024
:104EBA00000000000000FF0100010000FFFF0000E9
:104ECA00010001FF00E200E900EA00B500B600B700
:104EDA0000CD008301CC008A0192019401210223B2
:104EEA000224022502260227022A02B300B4006F16
:104EFA00007000020302000001000101010101002B
:024F0A000101A3
:00000001FF
