:100000000C9479030C94C0030C94C0030C946431D9
:100010000C94C0030C94C0030C94C0030C94C00354
:100020000C94C0030C94C0030C942E290C94EA2861
:100030000C94292A0C94C0030C94C0030C94C003A4
:100040000C94C0030C94C0030C94C0030C94C00324
:100050000C94C0030C94052A0C94C0030C94C003A8
:100060000C94C0030C94C0030C94C0030C94C00304
:100070000C94C0030C94C0030C94C0030C94C003F4
:100080000C94C0030C94C0030C94C0030C94C003E4
:100090000C94C0030C94C0030C94C0030C94C003D4
:1000A0000C94C0030C94C0030C94C0033D5C435CEF
:1000B000455C485C4C5C5B5C00003F5C445C4E5CB7
:1000C0004A5C585C515C405C495C505C535C575CDA
:1000D000475C425C01534B5C4F5C525C555C595C25
:1000E000545C415C465C5A5C5C5C565C4D5C3E5CBE
:1000F0003B5C00000000000000000000AA00A90016
:100100004F5C505C525C535C545C765C0153515CB8
:10011000585C575C555C745C735C0151565C5D5C6B
:10012000605C5A5C715C725CA845645C5B5C595CA9
:10013000695C6F5C705C665C625C5E5C5C5C6B5CAA
:100140006E5C6A5C6C5C655C615C5F5C6D5C635C96
:10015000675C685C3F5C435C455C4A5C565C5A5C2F
:1001600000003D5C495C515C535C485C475C415C11
:10017000425C4E5C525C555C585C4D5C0153445C87
:100180004B5C505C545C575C4F5C465C4B5C595C10
:100190005B5C5E5C4C5C3C5C405C00000000000012
:1001A00000000000AA00A9004F5C505C525C555C46
:1001B000535C745C0153515C585C595C545C725CD8
:1001C000735C0151565C575C655C5B5C695C715C9F
:1001D000A845645C5C5C5A5C5D5C6B5C705C625CFA
:1001E000635C605C5E5C5F5C6E5C6C5C6F5C675CFF
:1001F000635C615C6D5C665C685C6A5CE0001E0070
:100200001F002000210022000000165C2B001400BB
:100210001A00080015001700390004001600070036
:1002200009000A000B00E1001D001B000600190078
:10023000050011003500E300E20091442C002C0081
:100240004600000000000000000000000100010066
:100250004A004E000A001C0023002F004B004D00F6
:1002600005000B0018002400300004512C00110080
:100270000D000C00250031000100904410000E001C
:100280001200260027004F00E60036000F00130082
:100290002A00E50052005000370033004C002800CF
:1002A0003800510039001E001F00200021002200EC
:1002B0000000165C2B0014001A00090013000A004D
:1002C000E000040015001600170007002800E100F8
:1002D0001D001B0006001900050010003500E3009A
:1002E000E20091442C002C004600000000000000B9
:1002F00000000000010001004A004E0007000D0050
:1003000023002F004B004D0005000B000F002400C0
:10031000300004512C000E0011001800250031009F
:1003200001009044100008001C00260027004F0028
:10033000E60036000C0033002A00E50052005000B1
:10034000370012004C0028003800510001003A002C
:100350003B003C003D003E000000010001000100A8
:100360000100010001000100010001000100010085
:100370000100010001000100010001000100010075
:100380000100010001000100010001000100010065
:10039000010000000000000000000000010001005A
:1003A00001000100010001003F0001000100010007
:1003B00001000100010040000100010001000100F6
:1003C00001000100410001000100010001000100E5
:1003D0000100420043000100010001000100010092
:1003E00001000100010001000100340001000100D2
:1003F00001000100000000520000000000000000A9
:100400000000000002520000000000000000000098
:100410000352000000000000000000000100000086
:100420000000000000000000000000000000135C5D
:100430000A5C000000000000000000000000000056
:1004400000000000C55CC45C0000C95C0000000046
:100450000000815C01000000C85C0000000000009A
:10046000825C01000000C75C0000000000009D5C91
:1004700001000000C65C0000000000009E5CC35C40
:100480000000CD5C000000000000CA5CDF5CC55CC1
:10049000CC5C000000000000CB5CC45C00010101EA
:1004A0000101010101010202020202020202020331
:1004B0000303030303030304040404040404050501
:1004C00005050506060606060707070707080808C4
:1004D00008090909090A0A0A0B0B0B0C0C0C0D0D73
:1004E0000D0E0E0E0F0F0F1010111111121213130B
:1004F0001414151516161717181819191A1A1B1B84
:100500001C1D1D1E1E1F20202122222324242526DF
:1005100026272829292A2B2C2D2D2E2F3031323217
:10052000333435363738393A3B3C3D3E3F40414223
:10053000434445464748494A4C4D4E4F5051535409
:10054000555658595A5B5D5E5F61626465666869BD
:100550006B6C6D6F7072737577787A7B7D7E80823D
:10056000838587888A8C8E8F91939596989A9C9E86
:10057000A0A2A3A5A7A9ABADAFB1B3B5B7BABCBE96
:10058000C0C2C4C6C9CBCDCFD1D4D6D8DBDDDFE263
:10059000E4E7E9EBEEF0F3F5F8FAFDFF0501098079
:1005A000A101850319012AB700150126B70095019D
:1005B00075108100C0050C0901A101850419012AEB
:1005C000A002150126A002950175108100C0050149
:1005D0000906A101050719E029E71500250195087D
:1005E000750181029501750881010507190029FF30
:1005F000150026FF009506750881000508190129D8
:1006000005950575019102950175039101C00902D7
:100610009F00040100A0FA09040000010301010089
:100620000921110100012240000705810308000A89
:100630000904010001030000000921110100012249
:1006400032000705820320000A080B0202010100A4
:100650000009040200000101000009240100010951
:100660000001030904030002010300000724010044
:1006700001410006240201010006240202020009D1
:100680002403010301020100092403020401010102
:1006900000090504024000050000052501010109CB
:1006A0000583024000050000052501010312010039
:1006B0000200000008EDFEB5F40100010200011C7B
:1006C00003620061006E0064006F006D0069006EDF
:1006D00000650064006F006E00690000000E0333C7
:1006E00000610072006100680074000000040309EA
:1006F000040011241FBECFEFDAE0DEBFCDBF04B689
:1007000003FE27C08091AC069091AD06A091AE0685
:10071000B091AF068730904BA740B04BD1F4109208
:10072000AC061092AD061092AE061092AF0614BE43
:1007300084B7877F84BF0FB6F894A8958091600036
:10074000886180936000109260000FBEE0E0F8E3E3
:10075000099526E0A6E0B3E001C01D92AC3AB207CD
:10076000E1F713E0A0E0B1E0EEEFF8E602C005909B
:100770000D92A630B107D9F70E94502A0C94333459
:100780000C9400009091A606937051F0811109C05D
:1007900094609093A6061092550181E08093A5067F
:1007A0000895863210F09469F4CF880F880F982B43
:1007B000F0CF9091A606937061F08093A7066093A6
:1007C000A806433308F042E34093A90681E08093F2
:1007D000A50608950F931F939B01305E8901000FBA
:1007E000012F001F110B11952F77482F406EE091BC
:1007F000B505F091B60563E070E085EB95E00995ED
:100800001F910F9108950F93262F042F0F77482FD4
:10081000406BE091B505F091B60563E070E085EBC3
:1008200095E009950F910895CF92DF92EF92FF9294
:100830000F931F93CF93DF9300D00F92CDB7DEB706
:100840007C01162FD42EC22E8091DA058430B9F5A2
:10085000E091CF05F091D005309709F440C0C70171
:10086000019763E070E00E94DE32CB01880F991F90
:10087000860F971F19834A83CB824E2D481B9E01FA
:100880002F5F3F4FBC0185EB95E00995E091D305C3
:10089000F091D405309739F00C2D2D2D412FB70153
:1008A00085EB95E009950F900F900F90DF91CF9118
:1008B0001F910F91FF90EF90DF90CF90089582E00D
:1008C000E816F10409F45AC083E0E816F104A9F02F
:1008D00081E0E816F10409F484C0F12CE12CE091E8
:1008E000D105F091D205309789F20C2D2D2D412F95
:1008F000B70185EB95E00995C9CF862F807F803AB7
:1009000011F188F48038D1F0E091B905F091BA0581
:10091000803929F7309719F3123F49F12C2D4D2DCD
:10092000612F6F7027C0803E99F0803FB1F0E09159
:10093000B705F091B805803B91F6ECCFE091BB058F
:10094000F091BC05E7CFE091BD05F091BE05E2CF87
:10095000E091BF05F091C005DDCF623F09F0BFCF48
:10096000E091C105F091C205309709F4B8CF2C2D64
:100970004D2D62EF85EB95E0099588CF862F807F1E
:10098000803DB9F0803FD1F0E091C305F091C405FE
:10099000803C09F0A4CF309709F4A1CF812F8D7F3F
:1009A0004D2D612F6F70813FC9F085EB95E0099562
:1009B0006DCFE091C505F091C605EDCFE091C7057B
:1009C000F091C805633F39F0613F09F088CFE091AD
:1009D000C905F091CA05309709F481CF4D2D612FDB
:1009E000E4CFE091CB05F091CC05683F38F4663F49
:1009F00009F075CFE091CD05F091CE05309709F45F
:100A00006ECF612F85EB95E0099540CFE8EDF0E0E2
:100A100080818E7F80831092E2001092DA00109223
:100A2000E100A0EEB0E08C9181608C9380818F77A3
:100A3000808319BCA7EDB0E08C918E7F8C93808170
:100A40008F7E80831092670508952091E400309195
:100A5000E50095E6A9012091EC00822F817020FF2E
:100A600006C08091E80080FF06C080E008952091D4
:100A7000E80022FD1AC080917405882389F0853032
:100A800089F08091EB0085FD0FC02091E40030914A
:100A9000E50042175307F9F29150E1F684E008951A
:100AA00082E0089583E0089581E00895EF92FF9237
:100AB0000F931F93CF937C018B010E942505C82FB4
:100AC000811117C08091E80085FD0BC08091E8007E
:100AD0008E778093E8000E942505882399F3C82F1C
:100AE00008C0F70181917F018093F1000150110945
:100AF00049F78C2FCF911F910F91FF90EF900895A0
:100B00008091760587FF13C08091E80082FF06C0C0
:100B10008091E8008B778093E80004C08091740591
:100B20008111F2CF0895809174058823D9F38091C3
:100B3000E80080FFF8CF8091E8008E77ECCF982F07
:100B40009093E900242F762F50E0891731F07091AF
:100B5000EC002091ED005091F00021FD07C09F5F57
:100B6000973071F78093E90081E008953091EB00B0
:100B70003E7F3093EB003091ED003D7F3093ED00F0
:100B80003091EB0031603093EB007093EC002093D8
:100B9000ED005093F0002091EE0027FDE0CF80E0C3
:100BA0000895CF92DF92EF92FF920F931F93CF930E
:100BB000DF93C8EDD0E088818F7E8883E7EDF0E099
:100BC00080818160808384E082BF81E080936705BB
:100BD00088818E7F888302EE10E0F80110821092E7
:100BE000DA0081EEC82ED12CF601108288818F7731
:100BF000888388818068888388818F7D888319BCF9
:100C0000109274051092750510927305109272057A
:100C100090EEE92EF12CF70180818B7F8083888113
:100C20008160888342E060E080E00E949F05F601D9
:100C300080818E7F8083F8018081816080838081C4
:100C400088608083F70180818E7F808388818061C6
:100C50008883DF91CF911F910F91FF90EF90DF90EC
:100C6000CF900895FC0180917C0590917D058617B9
:100C70009707A0F06115710529F49091E8009E771F
:100C80009093E80090E06115710551F4911108C04E
:100C90008091E80082FF34C080E00895BC01F2CF6B
:100CA000809174058823C1F18530C1F18091E800FD
:100CB00083FD30C08091E80082FDEACF8091E8009A
:100CC00080FFE1CF8091F3002091F200382F611571
:100CD000710519F02830310558F091E028303105C0
:100CE00009F090E02091E8002E772093E800CBCF28
:100CF00081918093F100615071092F5F3F4FE7CFE1
:100D000080917405882341F0853041F08091E8009E
:100D100083FFBECF81E0089582E0089583E00895C7
:100D2000089580916905089508950895982F907FFA
:100D3000903BE9F040F49039D1F0903AC1F090380E
:100D4000B1F080E00895903D19F020F4903CC9F78F
:100D500082E00895903E59F0903F99F7815F8F307F
:100D600080F7E82FF0E0E154FE4F8081089583E0A2
:100D70000895CF92DF92EF92FF920F931F93CF933C
:100D8000DF9300D000D000D00F92CDB7DEB78C013A
:100D900008511F4F80917405843009F087C08091FD
:100DA0004B018F708093E9008091E80082FF7EC044
:100DB0008091E80085FF7AC00E942505811113C04B
:100DC00084E0E82EF12CCE0101966C018091E800C0
:100DD00085FD61C08091E8008B778093E8000E94D8
:100DE0002505882399F38091E80085FD05C0809151
:100DF000E8008B778093E800FA808F2D0E9496069A
:100E0000282FFD828B818E838C818F8321110BC0D3
:100E10008981843041F1873031F1863031F121E030
:100E2000853009F0B7CF30E0E5E0F0E0EC0FFD1FD2
:100E3000E30FF11DF0804FB7F894D8011196EC91B3
:100E40001197F0E0CF01019612966C9170E00E942C
:100E5000F232D8015C915817190649F44FBF3F5F31
:100E6000321710F397CF23E0DECF22E0DCCF1396CA
:100E70008D919C911497E80FF91FF08211968C9137
:100E8000119790E0019612966C9170E00E94F232F8
:100E9000F8018183E3CF8091F100D6018D936D013C
:100EA000B1E0EB1AF10809F091CF9DCF27960FB66C
:100EB000F894DEBF0FBECDBFDF91CF911F910F9190
:100EC000FF90EF90DF90CF900895DF92EF92FF9226
:100ED0000F931F93CF93DF9300D000D0CDB7DEB731
:100EE0007B01142FD22E4A832B830C83842F0E94E4
:100EF0009606811141C082E0E816F104C1F183E059
:100F0000E816F10439F0EA94EF2829F5173F29F49F
:100F100085E004C087E0073F09F084E08983809181
:100F200074058430C1F4809146018F708093E9008C
:100F300050E040E064E070E0CE0101960E9456056A
:100F4000811109C08091E80085FD05C08091E8000D
:100F50008E778093E8000F900F900F900F90DF91A5
:100F6000CF911F910F91FF90EF90DF90089587EF41
:100F7000D812D3CF86E0D2CF12951F701983CFCF6E
:100F80009C014FB7F8948091600590916105A09104
:100F90006205B09163054FBF821B930B08952FB775
:100FA000F89460916005709161058091620590915F
:100FB00063052FBF08952FB7F89480916005909135
:100FC0006105A0916205B09163052FBF08959C0152
:100FD000FC0132969FEF80E04191461751F09F3F10
:100FE00019F4411101C0982F8F5F8630A9F79F3FF8
:100FF00009F40895290F311D97FD3A95F90162838F
:1010000008952091590530915A052817390771F034
:1010100090935A0580935905E0915705F091580532
:10102000309721F00084F185E02D099408952091F6
:101030005505309156052817390771F090935605DC
:1010400080935505E0915705F0915805309721F0B0
:101050000680F781E02D09940895FC01680F791F3F
:101060008FEF91E32191822728E030E087FF09C0CC
:10107000880F892721503109C9F7E617F70791F73B
:101080000895880FF7CFFA01811101C0FB0109947F
:10109000E1E7F4E0818360834283339695E0E535B0
:1010A000F907C1F70895FC01EE0FFF1FE80FF91FC4
:1010B000EF58FB4F6183408322830895E6EAF6E010
:1010C000248130E1231B08F420E0248381E0809315
:1010D000A5060895E6EAF6E0248130E1230F08F43E
:1010E0002FEF248381E08093A5060895E6EAF6E0D9
:1010F000438120E1421B08F440E08181628190E05D
:101100000C94D903E6EAF6E0438120E1420F08F4AB
:101110004FEF8181628190E00C94D903E6EAF6E01A
:10112000628120E1621B08F460E08181438190E0EC
:101130000C94D903E6EAF6E0628120E1620F08F43C
:101140006FEF8181438190E00C94D903E6EAF6E0E9
:101150008181438162818850990B0C94D903E6EA1E
:10116000F6E0818190E04381628108960C94D90376
:101170008091A60686958695815009F485E20C94A7
:10118000C2038091A606869586958F5F863208F009
:1011900081E00C94C203EF92FF920F939701201B02
:1011A00031092F3F310519F010F02FEF30E0209575
:1011B000382F320F08F43FEF832F0F91FF90EF90FD
:1011C0000895EF92FF920F939701201B31092F3F53
:1011D000310519F010F02FEF30E0322F3095482F05
:1011E000430F08F44FEF842F620F0F91FF90EF90A1
:1011F0000895EF92FF920F93972F093438F4B701B7
:10120000601B71096F3F710519F010F06FEF70E00E
:10121000485F5F4F4131510540F0A901485F5F4F82
:101220004131510510F06FEF70E06095482F460F87
:1012300008F44FEF842F37FF02C02D5F3F4F3595E5
:101240002795359527956091A706620F792F0F9105
:10125000FF90EF900895EF92FF920F931F930E0D62
:101260001F2D111DF90137FF03C0F195E195F1091B
:1012700024E0EE0FFF1F2A95E1F7EF3FF10519F08B
:1012800014F0EFEFF0E09A0157FF03C0319521957C
:10129000310994E0220F331F9A95E1F72E173F078B
:1012A0000CF4F901E00FF11FEF3FF10519F010F018
:1012B000EFEFF0E0E095282F3E2F230F08F42FEFFB
:1012C000822F1F910F91FF90EF900895EF92FF9260
:1012D0000F93970195E0099F200D311D11242F3F99
:1012E000310519F010F02FEF30E02095382F320F34
:1012F00008F43FEF832F0F91FF90EF90089522E8BD
:10130000241B08F420E0620F08954095282F429F87
:10131000412D1124842F0895E42FF0E0EE0FFF1FDC
:10132000EE5DFD4F9081921B97FD9195292F38E13D
:10133000239F212D1124620F08950F931F9310E016
:10134000F801EE0FFF1FEE5DFD4F9081905797FD66
:101350009195000F111FF801ED5DFD4F00810052C6
:10136000110B2003F001219FF00D112408E310E080
:10137000091B110997FD139540039001419F300D02
:101380001124E20FF31F9F01220F331F2E0F3F1F67
:1013900037FF02C021583F4F220F232F221F330B4C
:1013A000620F1F910F9108950F931F93522F10E01A
:1013B000F801EE0FFF1FED5DFD4FA081A052BB0BAA
:1013C0009D015203F001539FF00D1124000F111FD6
:1013D000D801AE5DBD4F0C910057110B4003900139
:1013E000419F300D11242E0F3F1F37FF02C0215C9B
:1013F0003F4F96E0359527959A95E1F7620F1F913B
:101400000F9108950F931F93522F10E0F801EE0FE4
:10141000FF1FED5DFD4FA081A052BB0B9D0152034C
:10142000F001539FF00D1124000F111FD801AE5D84
:10143000BD4F0C910057110B40039001419F300D9F
:1014400011242E0F3F1F37FF02C021583F4F220F9C
:10145000232F221F330B620F1F910F910895EF92DC
:101460000F93972F23E0029FB00111247595679584
:101470006E0D792F0F91EF900895322F50E0FA0101
:10148000EE0FFF1FED5DFD4F9081905297FD9195FE
:10149000440F551FFA01EE5DFD4F2081231B330BD6
:1014A000290F311D97FD3A95620F0895E42FF0E062
:1014B000EE0FFF1FED5DFD4F6081621B0895E42F6D
:1014C000F0E0EE0FFF1FEE5DFD4F6081621B08959F
:1014D000622F0895E42FF0E0EE0FFF1FEE5DFD4F49
:1014E000408134EE439F412D1124E82FF0E050E07D
:1014F000445E5F4FDA01A21BB1099D01B7FF03C033
:1015000031952195310993E0220F331F9A95E1F728
:10151000AF01421B530B9A0157FD20E0582F259F26
:10152000212D1124822F0895E42FF0E0EE0FFF1FEC
:10153000EE5DFD4F408134EE439F412D1124E72F96
:10154000F0E050E0445E5F4FDA01A21BB1099D015B
:10155000B7FF03C031952195310993E0220F331F66
:101560009A95E1F7AF01421B530B9A0157FD20E01A
:10157000279F212D1124722F08950C9448080C9454
:101580005308FC019B01009729F480E077FF2BC0F2
:1015900080E80895AC0197FF04C044275527481BF5
:1015A000590BB901640F751F37FD10C0241B350B93
:1015B000C901A5E0880F991FAA95E1F70E94F232B0
:1015C00080E2861BF7FF0FC081950895CB0165E08F
:1015D000880F991F6A95E1F7BA01621B730B0E948D
:1015E000F23280E6EECF0895EF920F93CF93DF9320
:1015F000D72FC82FC9010E19BA010E94C10A602F46
:10160000681B7D2F8C2FDF91CF910F91EF90089564
:101610000F93CF93DF93D72FC82FC901BA010E9430
:10162000C10A682F600F7D2F8C2FDF91CF910F9112
:101630000895EF920F931F93CF93DF93D62FC72F69
:10164000182FC9010E19010FBA010E94C10A081B07
:10165000202F219F212D1124822F6D2F7C2FDF9190
:10166000CF911F910F91EF900895EF920F931F93D9
:10167000CF93DF93D62F172FC82FC9010E19070F4D
:10168000BA010E94C10A702F781B719F712D11241D
:101690006D2F8C2FDF91CF911F910F91EF900895B7
:1016A0000F931F93CF93DF93D62FC72F182FC90106
:1016B000212F201B022FBA010E94C10A982F990FD7
:1016C000990F891B800F282F219F212D1124822FF4
:1016D0006D2F7C2FDF91CF911F910F9108950F9364
:1016E0001F93CF93DF93D62F172FC82FC901272F12
:1016F000201B022FBA010E94C10A982F990F990F3F
:10170000782F791B700F719F712D11246D2F8C2FE5
:10171000DF91CF911F910F910895E82F86FDE095FD
:101720002E2F2F7086FD2F5FE695E695E695E670E5
:10173000F0E0E954FE4F9181929F902D212D1124CC
:1017400092959F702295207F922B2081920F87FD8A
:10175000919580E8890F08950F931F93CF93DF939E
:101760008B01D82FC42F822F0E948D0BEC2FF0E01D
:10177000EE0FFF1FEE5DFD4F90819058890F87FDA2
:101780008195880F682F2CE0629F612D1124600FD6
:10179000712F8D2FDF91CF911F910F910895AC0183
:1017A0008230910508F408959FEF413E8EE158077D
:1017B00040F49A0195E0369527959A95E1F798E0DF
:1017C000920F61E0E62FE90FFF27FF1F9F0135957C
:1017D0002795822F229FF001239FF00DF00D1124F9
:1017E0004E175F0738F49FEF920F961758F78FEF59
:1017F000860F08952F3FE9F361E0620FF6CF0F9354
:10180000CF93DF93D72FC82F47FD419588E390E012
:10181000841B910947FD9395889FB001899F700DA6
:10182000700D1124229FC001239F900D900D112453
:10183000860F971F0E94CF0B982F990F890F682F43
:10184000600F7D2F8C2FDF91CF910F91089530E0A5
:1018500020E0869F212D969F200D311D1124C90166
:101860000895AF92BF92CF92DF92FF920F931F9392
:10187000CF93DF93362F472FE82FF0E0E456FB4F4E
:1018800071110FC0E4918E2F2E2F6E2F722FDF91CA
:10189000CF911F910F91FF90DF90CF90BF90AF90AD
:1018A0000895C72FD0E02491F22E022F10E056E0C9
:1018B000659FC0011124EFEFF0E0BF010E94DE320E
:1018C000832F90E0880F991F35E5369FD001379F11
:1018D000B00D11248A1B9B0B982F990F980F6F0145
:1018E000CC1ADD0AC09ED001C19EB00DD09EB00DB5
:1018F00011248B2F499FA0011124452F55276F01DB
:10190000C41AD50AC09EA001C19E500DD09E500D94
:1019100011245F01A91AB108AC9E6001AD9ED00CE4
:10192000BC9ED00C1124CD2CDD24EC19FD09E09FC8
:10193000E001E19FD00DF09FD00D1124ED2F62301A
:101940007105A1F050F46115710509F49ECF613065
:10195000710581F0EB2F852F98CF6430710569F008
:1019600080F06630710509F490CFF4CFE22F2B2F71
:101970008D2F8BCFE22F252F88CFEB2F822F2D2F6E
:1019800084CF2B2F8F2DE52F80CF2F923F925F9208
:101990006F927F928F929F92AF92BF92CF92DF927F
:1019A000EF92FF920F931F93CF93DF93CDB7DEB7E4
:1019B0002A970FB6F894DEBF0FBECDBF8B837E8310
:1019C0006D83209152012295207F2F83205F2983F0
:1019D0002A832D3410F03CE43A83809182058C8375
:1019E000FF81EF2FF0E0FA87E987CF01880F991F79
:1019F0009C012E5D3D4F69013B81832F90E0FC01EE
:101A00003196F887EF838A8199859817E8F081E00D
:101A1000E981EC3408F080E02A960FB6F894DEBF36
:101A20000FBECDBFDF91CF911F910F91FF90EF902F
:101A3000DF90CF90BF90AF909F908F907F906F90EE
:101A40005F903F902F900895E985FA85E654FD4F09
:101A50008081909153018923F1F02090A706309066
:101A6000A8062F8138852E573A4F39015B8010E048
:101A7000FC815F16D0F02091A906129F112D112430
:101A8000B101812F0E94310C462F282F672F8985A5
:101A90009A850E94BF0A29853A852F5F3F4F3A8772
:101AA000298732E0C30ED11CAECFF30181913F01F3
:101AB000F601A080A81ABB088180F3018185881AED
:101AC0009908AA9C9001AB9C300D300D1124889C84
:101AD000C001899C900D900D1124820F931F0E94CC
:101AE000CF0B082F6091AA0621E0620F08F46FEF78
:101AF000F301EE0FFF1FE258F540838D948D0E9495
:101B0000270C7C019401A501B101812FED81FE819B
:101B100009951B015394182FABCFCF92DF92EF9210
:101B2000FF920F931F93CF93DF938C01C0915201CB
:101B3000C295C07F20E1D22EDC0ECD2C2CE42D15D9
:101B400010F49CE4C92E2091AA0631E0230F08F47A
:101B50002FEF30E050E040E06FEF7FEF80E090E06B
:101B60000E94D0337901D0E02C2FCC1570F081E0A9
:101B7000FBE4FD1508F480E0DF91CF911F910F91F8
:101B8000FF90EF90DF90CF900895FE01E654FD4F57
:101B9000808190915301892311F140918205415038
:101BA000042E000C550B47FF1CC0C7016091AA060C
:101BB00021E0620F08F46FEF0E94270CAC016091E6
:101BC000A7067091A8068091A906F80109950E94C0
:101BD000310C462F282F672FCE010E94BF0A219675
:101BE000C3CFFA01EE57FA4F858982130AC0FA0172
:101BF000EE0FFF1FEE57FA4F878D90A18E159F05B0
:101C0000A8F241505109CFCFDF92EF92FF920F938C
:101C10001F93CF93DF937C01C0915201C295C07F87
:101C200010E11C0F012F1D3408F00CE46091AA068E
:101C30006695669521E0620F08F46FEF80917E054E
:101C400090917F050E94270CD82ED0E0C01760F03D
:101C500081E01C3408F080E0DF91CF911F910F915B
:101C6000FF90EF90DF900895FE01E654FD4F8081D4
:101C700090915301892391F06091A7067091A80675
:101C80008091A9062D2D4C2FF70109950E94310C4A
:101C9000462F282F672FCE010E94BF0A2196D6CF4C
:101CA0009F92AF92BF92CF92DF92EF92FF920F93EB
:101CB0001F93CF93DF936C01C0915201C295C07FF7
:101CC00010E11C0FB12E1D3410F03CE4B32E6091D6
:101CD000AA066695669580917E0590917F050E9483
:101CE000270CF82E80E48F0D0E948D0B90E8A92E12
:101CF000A80E8F2D0E948D0B20E8922E980ED0E01A
:101D0000CB1580F081E01C3408F080E0DF91CF91AA
:101D10001F910F91FF90EF90DF90CF90BF90AF9009
:101D20009F900895FE01E654FD4F808190915301EC
:101D30008923A1F06091A7067091A8068091A90659
:101D4000EF2C0C2F292D4A2DF60109950E94310CFC
:101D5000462F282F672FCE010E94BF0A2196D0CF91
:101D60007F928F929F92AF92BF92CF92DF92EF922B
:101D7000FF920F931F93CF93DF935C01C0915201A9
:101D8000C295C07F10E11C0FF12E1D3410F03CE411
:101D9000F32E6091AA06669580917E0590917F054D
:101DA0000E94270C782ED0E0CF1590F081E01C34F3
:101DB00008F080E0DF91CF911F910F91FF90EF909D
:101DC000DF90CF90BF90AF909F908F907F900895BD
:101DD000FE01E654FD4F8081909153018923C9F1A2
:101DE000CE01880F991F82539E4FFC01EC5AFF4F82
:101DF0002081422F4057550B6A018B5A9F4FFC019F
:101E00008081282F2052330B4901449F9001459F28
:101E1000300D300D1124889CC001899C900D900DCF
:101E20001124820F931F0E94CF0B082F6091A706E9
:101E30007091A8068091A906E72C9401A601F501EE
:101E400009950E94310C462F282F672FCE010E9442
:101E5000BF0A2196A9CFCF92DF92EF92FF920F9304
:101E60001F93CF93DF937C01C0915201C295C07F35
:101E700010E11C0FD12E1D3410F03CE4D32E6091E4
:101E8000AA06669580917E0590917F050E94270C99
:101E9000C82ED0E0CD1568F081E01C3408F080E059
:101EA000DF91CF911F910F91FF90EF90DF90CF9036
:101EB0000895FE01E654FD4F8081909153018923DE
:101EC00011F1CE01880F991F82539E4FFC01EB5AEE
:101ED000FF4F20812052330B8C5A9F4FFC014081D1
:101EE0004057550B6091A7067091A8068091A906EE
:101EF0000C2DF70109950E94310C462F282F672FD2
:101F0000CE010E94BF0A2196C5CF84E080936D0464
:101F10008FE780936E0480916F0480788064809353
:101F20006F04E5E2F4E08FEF819394E0ED36F9077A
:101F3000D9F71092240410922304109222041092D4
:101F40002104089580E0089578940895F894E82F86
:101F5000E295EF70F0E031A1282F2F7081E090E042
:101F600001C0880F2A95EAF7982F9095932391A3A3
:101F700092A1892B82A30C94A40F9091B50392FF98
:101F800006C0282F28712830F9F4877F846093FFDA
:101F900006C0282F28712831F1F4877E84612091B2
:101FA000B60320FF06C0382F38713830D9F4877F48
:101FB000816021FF06C0282F28712831D1F4877E47
:101FC000816194FD877E0895282F24712430F9F6CD
:101FD0008B7F8860DCCF282F2471243101F78B7E22
:101FE0008861DDCF382F3171313019F78E7F8860ED
:101FF000E0CF282F2171213121F78E7E8861E1CF3A
:10200000CF93DF93EC018238910581F1B0F58133F4
:10201000910509F491C020F58932910509F485C034
:102020008A9709F490C0C11521E5D20708F0AAC02B
:10203000C11530E5D30708F0F2C0CF3BD10508F059
:1020400089C0C83AD10508F0DFC0C53AD10508F00B
:10205000D3C0C430D105F8F4C130D105E1F040C09F
:102060008533910509F45AC0C997E9F68091B50303
:10207000837089F0C0EED0E00EC0833E910599F1E7
:1020800070F4803E910501F1823E910561F68091E8
:10209000B50382FD21C0CE01DF91CF910895863E28
:1020A000910561F1873E910571F1843E910509F03A
:1020B000BACF8091B60381FFEECF8091B503C7EE12
:1020C000D0E084FD0DC0E7CF8091B50380FDF7C05F
:1020D0009091B60390FFDFCFC3EED0E084FFDBCF5B
:1020E000D0E0C0E0D8CF8091B50382FDEBC09091E5
:1020F000B60390FDBFCF84FFCECFF2CF8091B50362
:1021000083FDDDCFC8CF8091B50383FDDEC0909104
:10211000B60391FFF0CFC4EED0E0BDCF8091B50300
:1021200085FFB9CFC9E2D0E0B6CF8091B50385FF76
:10213000B2CFC5E3D0E0AFCF8091B50386FFABCF80
:10214000CAE2D0E0A8CF8091B50386FFA4CFC1E357
:10215000D0E0A1CFC11540E2D40760F4C11581E001
:10216000D80708F098CFCE01805E9109089708F44F
:1021700092CFB6CFC11590E4D90708F4B1CFDF7084
:10218000D06A89CFC11524E5D20778F4C11533E5AB
:10219000D30708F072C0C11542E5D40708F05CC04F
:1021A000DC2FCC27C16FD06A76CFC1158AE5D8075E
:1021B00078F4C11599E5D90708F073C0C11528E571
:1021C000D20708F48DCFDC2FCC27C06FD06A63CF45
:1021D000CE0190568115904208F082CF8D2F8F71DD
:1021E0000E94BD0F90E0982F882788279F719C013F
:1021F0002C2BE901D0624FCFC55AD0E0C75ADE4F31
:10220000C881D0E0D06447CFC85AD0E0CC0FDD1FE2
:10221000C45ADE4F0990D881C02DD4643CCFCE0182
:1022200064E0969587956A95E1F783702C2F269543
:102230002695237040E2249F90011124382B8C2F87
:102240008370C1E0D0E002C0CC0FDD1F8A95E2F7B9
:10225000C22BD32BDC681FCFCE018370992721E0DE
:1022600030E002C0220F331F8A95E2F7C695C6956B
:1022700080E2C89FE0011124EBCFCE018370992743
:1022800021E030E002C0220F331F8A95E2F7C695A5
:10229000C69590E2C99FE0011124C22BD32BDA68C6
:1022A000FACE8C2F8F700E94BD0F34E0D695C79563
:1022B0003A95E1F7CF709C2FEC01D069ECCEC9E3E1
:1022C000D0E0E9CEC2EED0E0E6CEC6EED0E0E3CE7E
:1022D0000C94CF078091830390918203892B909176
:1022E0008103892B80930803E0915705F0915805ED
:1022F000309731F00280F381E02D88E093E009947B
:1023000008958091800390914F03981301C0089520
:102310008F5F8770FACFAF92BF92CF92DF92EF922A
:10232000FF920F931F93CF93DF93C0900904D09037
:102330000A04E0900B04F0900C0440918403509147
:1023400085036091860370918703C42AD52AE62A03
:10235000F72ACFE1D0E0082F10E027E0929F000D90
:10236000111D112494E5A92EBC2ED701C6010C2EF7
:1023700004C0B695A795979587950A94D2F780FDE6
:102380000FC0219788F7B12C8B2DDF91CF911F9132
:102390000F91FF90EF90DF90CF90BF90AF90089596
:1023A000AC9EF001AD9EF00D1124E00FF11FEE0F79
:1023B000FF1FE455FF4F859194910E9400100197F3
:1023C00001F3E2CFCF93DF93EC010E948B11EC2F4E
:1023D000F0E097E0D99FE00DF11D112494E5899F6D
:1023E000E00DF11D1124EE0FFF1FE455FF4F859105
:1023F0009491DF91CF910C94001027E0929F800D73
:102400001124982F977086958695869525E0829F52
:10241000F0011124EE5EFC4F50E040E080E021919D
:1024200030E0092E02C0369527950A94E2F7217014
:102430003327042E01C0220F0A94EAF7822B4F5F44
:102440005F4F4530510559F7089527E0929F800D61
:102450001124982F977041E001C0440F9A95EAF734
:1024600086958695869595E0899FF0011124EE5E0C
:10247000FC4F90E080E070E05191DF0111979B01EB
:10248000082E02C0369527950A94E2F7217021950F
:102490002527242325272C9301968530910561F764
:1024A0000895FC01808191810E94E211292F2F70F3
:1024B00092959F7092509E3078F4E92FF0E0EB5C9B
:1024C000FB4C0C940633803F19F020F4883E20F436
:1024D00081E00895843FE1F380E00895883EC0F3F1
:1024E000813FD1F7F5CF822F869586958695089501
:1024F00090E080E00E94170890E080E00E940108D0
:1025000010928203109281030C946A116093090463
:1025100070930A0480930B0490930C040C9478122B
:102520000F931F9341E050E060E070E004C0440F5F
:10253000551F661F771F8A95D2F7CB01BA016095A8
:102540007095809590950091090410910A0420914E
:102550000B0430910C0460237123822393231F9179
:102560000F910C9486120F931F9341E050E060E0AE
:1025700070E004C0440F551F661F771F8A95D2F77D
:102580008091090490910A04A0910B04B0910C046D
:102590008A019B01082B192B2A2B3B2BC901B8015F
:1025A0001F910F910C94861260938403709385039E
:1025B00080938603909387030C947812882341F0CC
:1025C0008095909183038923809383030C946A11EF
:1025D0000895882339F090918303982B9093830377
:1025E0000C946A1108958823B1F19CEF980F913AE9
:1025F00070F4EAE0F3E09191891303C0DF011197D1
:102600001C9243E0E031F407B1F70C946A1190E2B8
:10261000980F983088F4877021E030E0A90102C05B
:10262000440F551F8A95E2F7CA0180959091830364
:10263000892380938303E9CF9BE5980F933020F49F
:1026400090E080E00C941708885A873120F490E0DD
:1026500080E00C9401080895CF93C82F882309F4D3
:102660004EC08CEF8C0F813AF8F4EAE0F3E080E1A1
:1026700093E0DF012D91C21759F08A179B07D1F71C
:102680006C2F88E093E00E94E707CF910C946A11C9
:102690002191C21303C0DF0111971C928E179F076F
:1026A000B9F70E946A11ECCF80E28C0F883068F491
:1026B000C77021E030E001C0220FCA95EAF780918F
:1026C0008303822B80938303E0CFEBE5EC0FE330B1
:1026D00040F4F0E0E75AFE4F808190E0CF910C94F7
:1026E0001708C85AC73158F4EC2FF0E0EE0FFF1F5F
:1026F000E45AFE4F80819181CF910C940108CF91D3
:1027000008951F93CF93DF93C62FD42F122FFC0170
:102710008281882399F06093A4060E94DB0790933E
:10272000A3068093A206C77081E001C0880FCA95F6
:10273000EAF7DF91CF911F910C94E9128091A406E2
:10274000681343C08091A2069091A3060E94C0071F
:10275000883C9105D0F5CD17C9F080E28C0F883008
:1027600040F4C77081E001C0880FCA95EAF70E9463
:10277000DE1280E28D0F883048F481E09D2F977043
:1027800001C0880F9A95EAF70E94E912812F0E94F2
:102790002C138AE090E0EFE9FFE03197F1F700C0F9
:1027A00000000197C1F7812F0E94F31280E28D0F84
:1027B000883090F4D77081E001C0880FDA95EAF78D
:1027C000DF91CF911F910C94DE12C77081E001C0A0
:1027D000880FCA95EAF7F4CFDF91CF911F91089542
:1027E00090917405943031F580936405709366057B
:1027F0006093650582E08093E9008FEF9091E80097
:10280000815095FD06C095ED9A95F1F70000811174
:10281000F5CF8091E80085FF0DC050E040E063E017
:1028200070E084E695E00E9456058091E8008E777E
:102830008093E8000895BC0184E00C94F013BC017F
:1028400083E00C94F013CF93DF93EC0181E080934D
:10285000E9008FEF9091E800815095FD06C095ED5D
:102860009A95F1F700008111F5CF8091E80085FF7E
:1028700014C050E040E068E070E0CE010E945605D0
:102880008091E8008E778093E80088E0FE01AAE658
:10289000B5E001900D928A95E1F7DF91CF9108950F
:1028A000539A3BB1377F2BB128604FB7F89481E73B
:1028B00094E0FC015191CF0168E02BB9000000C009
:1028C00057FF3BB9550F000000C000C000C03BB926
:1028D00000C06A9591F7F5E085359F0751F74FBF26
:1028E0008FE594E00197F1F700C0000008959F92F2
:1028F000AF92BF92CF92DF92EF92FF920F931F930E
:10290000CF93DF937C015B016A018091B30301E007
:1029100010E08A3010F40AE010E0C1E0D0E0F89452
:10292000B501C701F6010995982E0E94A40F9110D8
:1029300004C021960C171D076CF4892DDF91CF91EF
:102940001F910F91FF90EF90DF90CF90BF90AF90CD
:102950009F900895CC9F9001CD9F300D300D112494
:1029600090E080E045E34A95F1F700000196821778
:102970009307C1F7D4CF80919303811110C0809148
:10298000D80080618093D8008AE18A95F1F700C071
:102990008091D90080FF0AC081E08093930381E099
:1029A00090919303913009F080E0089582E0809344
:1029B00093030E94060510927405F1CF0F931F93A5
:1029C0000E94BB14882321F01F910F910C94CF0714
:1029D0000E94CF0700915B0510915C0520915D0579
:1029E00030915E05600F711F821F931F1F910F9121
:1029F0000895CF92DF92EF92FF926B017C010E94CB
:102A0000BB148823A1F02FB7F894609160057091F2
:102A1000610580916205909163052FBF6C197D0956
:102A20008E099F09FF90EF90DF90CF9008950E944C
:102A3000DE14F4CF0E94BB14882351F0E0915705B7
:102A4000F0915805309721F00190F081E02D099424
:102A500080E00895CF92DF92EF92FF920F931F9341
:102A6000CF93DF93182F80914401811323C090915D
:102A7000A60693702091430130E081E0921713067F
:102A800009F480E08170809354018091AB069091AD
:102A90005301981739F08093530140E060E080E0E3
:102AA0000E94BD0A163290F4E12FF0E0ED5BFB4C82
:102AB0000C94063381E0E6CF80915401882309F419
:102AC000F9C040E060E080E00E94BD0A80E0F2C012
:102AD000C0915201C295C07F00E10C0FF02E0D3461
:102AE00010F0FCE4FF2E6091A7067091A80680917B
:102AF000A9060E94310CE62ED72EC82ED0E0CF15A5
:102B000028F081E00C3408F4D5C0E0CFFE01E65493
:102B1000FD4F808190915301892331F02C2D4E2D52
:102B20006D2DCE010E94BF0A2196E9CFC0915201BE
:102B3000C295C07F00E10C0FE02E0D3410F0ECE4E4
:102B4000EE2ED090A806C090A9062091AA0670E4A7
:102B5000F72E3F2D329F312D1124F32ED0E0CE15CC
:102B600080F6FE01E654FD4F808190915301892348
:102B7000B9F0FE01EE0FFF1FED5DFD4F80818295E4
:102B80008F706091A7068F9D600D11247D2D8C2D77
:102B90000E94310C462F282F672FCE010E94BF0ABA
:102BA0002196DDCFC0915201C295C07F00E10C0F8C
:102BB000E02E0D3410F05CE4E52ED090A806C09015
:102BC000A9062091AA0640E4F42E3F2D329F312D14
:102BD0001124F32ED0E0CE1508F093CFFE01E65479
:102BE000FD4F8081909153018923D9F0FE01EE0FB2
:102BF000FF1FEE5DFD4F6081F69EB001112435E0B0
:102C0000759567953A95E1F78091A706680F7D2D38
:102C10008C2D0E94310C462F282F672FCE010E9449
:102C2000BF0A2196D8CFC0915201C295C07F00E162
:102C30000C0FF02E0D3410F09CE4F92EE090A70656
:102C4000D091A806D090A9066091AA0666956695CF
:102C5000669580917E0590917F050E94270C0E94C9
:102C60008D0B805887FD8195880F282F3D2D239F40
:102C7000212D1124822F6E2D7D2F0E94310CE62EE6
:102C8000D72EC82ED0E0CF1508F03BCFFE01E6547A
:102C9000FD4F808190915301892331F02C2D4E2DD1
:102CA0006D2DCE010E94BF0A2196EDCF84E99AE0F6
:102CB0000E94040E909152019F5F909352018111E6
:102CC0000CC082E08093550180915401811105C0B0
:102CD000111103C083E080935501DF91CF911F91C3
:102CE0000F91FF90EF90DF90CF9008958AE69AE0E1
:102CF000DFCF8FE69BE00E942B0FDCCF80E59BE0CF
:102D0000FACF85E39BE00E94B00ED4CF89E19BE02F
:102D1000FACF88E69AE0CCCF8FE59AE0C9CF86E576
:102D20009AE0C6CF8DE39AE0C3CF8FE29AE0EBCF73
:102D30008FEF9BE0E0CF88E09BE0DDCF84EF9AE06F
:102D4000E2CF82E09AE00E94500EB4CF84ED99E089
:102D5000FACF8DE999E0F7CFC0915201C295C07FBB
:102D600000E10C0FF02E0D3410F08CE4F82ED09012
:102D7000A806E090A906D091A7066091AA066695DC
:102D80006695669580917E0590917F050E94270C3F
:102D90000E948D0B805887FD8195880F682F2CE04D
:102DA000629F612D11246D0F7D2D8E2D0E94310C9F
:102DB000E62ED72EC82ED0E0CF1508F0A2CEFE0109
:102DC000E654FD4F808190915301892331F02C2DE1
:102DD0004E2D6D2DCE010E94BF0A2196EDCF8CEABB
:102DE0009BE066CF8CE899E063CF85E899E00E948C
:102DF0008D0D60CF8FE799E0FACF8091820521E0B9
:102E0000382F321B08F430E0832F66E679E00E9409
:102E1000C50C50CF66E679E080E0F9CF809182055D
:102E200021E0382F321B08F430E0832F6BE279E089
:102E3000EECF6BE279E0F0CF8091820521E0382F70
:102E4000321B08F430E0832F69EF78E0E0CF69EFC0
:102E500078E0E2CF8091820521E0382F321B08F420
:102E600030E0832F61EE78E0D2CF61EE78E0D4CF0E
:102E70008091820521E0382F321B08F430E0832F47
:102E80006BEC78E0C4CF6BEC78E0C6CFC091520118
:102E9000CF5FC295C07F0E945833D82F0E9458330D
:102EA0006D2F782F8091A9060E94310C482F872F13
:102EB0000E94BD0A81E0CC3408F4FCCE07CEE6EADD
:102EC000F6E081E380838091560190915701A091B3
:102ED000580181839283A3838FE784838FEF858357
:102EE00046E050E06CE170E0CF010C949C33CF934E
:102EF00084E090E00E948E33C82F82E290E00E942E
:102F00008E33982F8C2FCF910895CF93DF9300D0DD
:102F100000D0CDB7DEB74091AF035091B0036091C0
:102F2000B1037091B2032FB7F8948091600590912E
:102F30006105A0916205B09163052FBF841B950BBD
:102F4000A60BB70B84369105A105B10568F10E9467
:102F5000DE146E5F7F4F8F4F9F4F69837A838B8321
:102F60009C8380912F01909130018E559C4F409110
:102F70002E0150E04530510510F044E050E0BE0114
:102F80006F5F7F4F0E94753384E090E00E942A3289
:102F9000892B61F40E94CF076093AF037093B00355
:102FA0008093B1039093B20381E001C080E00F9061
:102FB0000F900F900F90DF91CF9108956F927F92B5
:102FC0008F929F92AF92BF92CF92DF92EF92FF9239
:102FD0000F931F93CF93DF930F92CDB7DEB7862E5B
:102FE0005A016901682E880F7708C3010E942A32AE
:102FF000892B09F088C08AE0869DF001879DF00D3D
:103000001124EC5FFE4F458150E04115510511F050
:1030100041E050E08AE0869DF001879DF00D11248B
:10302000EC5FFE4F668177816E557C4FCE01019635
:103030000E947533F50140815181628173812FB700
:10304000F8948091600590916105A0916205B0911E
:1030500063052FBF841B950BA60BB70B8436910518
:10306000A105B10540F4B701C8010E942D0899815E
:10307000891709F44FC0082C000C9908C4010E945C
:103080002A32892B91F0B12C8B2D0F90DF91CF91AB
:103090001F910F91FF90EF90DF90CF90BF90AF9076
:1030A0009F908F907F906F9008958AE0889DF001A7
:1030B000899DF00D1124EC5FFE4F458150E0E41630
:1030C000F50608F4A7018AE0889DF001899DF00DBE
:1030D0001124EC5FFE4F668177816E557C4FC601EF
:1030E0000E947533B701C8010E942D089981891388
:1030F000CACF0E94CF07F5016083718382839383D7
:10310000BB24B394C1CFB12CA701B801C6010E9462
:103110007533BACFBB24B394F7CFCF92DF92EF923F
:10312000FF920F931F93CF93DF9300D000D000D076
:10313000CDB7DEB76B0186E0E82EF12C03EA13E091
:103140009E012F5F3F4F4AE953E061E080E00E941B
:10315000DE17882349F096E0FE013196A4E9B3E03A
:1031600001900D929A95E1F796E0E4E9F3E0D6013B
:1031700001900D929A95E1F726960FB6F894DEBF6E
:103180000FBECDBFDF91CF911F910F91FF90EF90B8
:10319000DF90CF90089569EE7EEF90E080E00E948E
:1031A000CA3360E082E090E00E94AC3360E083E0EC
:1031B00090E00E94AC331092840310928503109229
:1031C00086031092870360E084E090E00E94AC33B5
:1031D00060E082E290E00E94AC3360E085E090E045
:1031E0000E94AC3360E086E090E00E94AC336FEF69
:1031F00087E090E00E94AC3340E050E0BA0188E004
:1032000090E00E94BE3360E08DE090E00E94AC331D
:1032100040E050E0BA0188E190E00E94BE3360E0F7
:1032200087E190E00E94AC3340E050E0BA018CE1CD
:1032300090E00E94BE3370E060E080E290E00E9487
:10324000CA3340E050E0BA0188E190E00E94BE330A
:1032500040E050E0BA018FE090E00E94BE330E944F
:10326000850F80916D04807F826080936D048091D2
:103270006E048078856780936E048091A6068370C3
:1032800011F4109255018091A6068C7F8160809385
:10329000A60681E08093A5068FE78093AA064FEFEC
:1032A0006FEF8AEA90E00E94D9038AE10C94C2038E
:1032B00010928303EAE0F3E086E0DF011D928A9535
:1032C000E9F70C9478121F93CF93DF93CDB7DEB755
:1032D000AA970FB6F894DEBF0FBECDBF86E795E084
:1032E0002091F100FC012193CF01F5E08E379F077B
:1032F000B9F780917705833009F46FC0B8F4813055
:1033000009F446C0823009F4B0C08091E80083FF20
:1033100085C280917605909177059A3008F07EC23B
:10332000E92FF0E0E759FB4C0C9406338A3009F49E
:103330008BC08B3009F46EC0893039F780917605E7
:10334000813219F780917A0590917B050297E8F612
:103350008091E800877F8093E8008091E80082FFF9
:1033600037C09091F3008091F200029729F4809188
:10337000F1008B7F813021F48091F1008093690509
:103380008091E8008B778093E8000E948005BDCF94
:1033900080917605813A09F0B8CF8091E800877F67
:1033A0008093E80080917A0590917B05892B61F4E8
:1033B00068E08AE695E070E00E9432068091E800BD
:1033C0008B778093E800A1CF60E090E080E0F3CFBE
:1033D000809174058111C1CF98CF80917605813A93
:1033E00009F093CF80917A0590917B05892B09F0A4
:1033F0008CCF8091E800877F8093E8008091E8007F
:1034000080FFFCCF809151018093F1008091E80012
:103410008E77B9CF80917605813209F076CF809191
:103420007A0590917B05892B09F06FCF8091E80098
:10343000877F8093E8000E948005809178058093C3
:1034400051010E94581961CF80917605813209F0AF
:103450005CCF8091E800877F8093E8000E94800520
:10346000809179058093680550CF80917605813AE7
:1034700009F04BCF8091E800877F8093E80080912E
:10348000E80080FFFCCF80916805BECF803899F0BE
:10349000823809F0C3C180917A058F70873008F0B7
:1034A000BDC18093E9008091EB0085FB882780F9FE
:1034B0001092E90006C080917205909173059111F8
:1034C00082609091E800977F9093E8008093F100EC
:1034D0001092F1008091E8008E779CC1882309F456
:1034E0008AC1823009F09AC18091780581118DC11D
:1034F00080917A058F702FEF280F263008F08EC14B
:103500008093E9002091EB0020FF7FC1933031F4DC
:103510008091EB0080628093EB0077C19091EB008B
:1035200090619093EB0021E030E001C0220F8A957A
:10353000EAF72093EA001092EA008091EB0088609D
:10354000EACF81116BC1109178051F778091E3005C
:103550008078812B8093E3008091E800877F8093BF
:10356000E8000E9480058091E80080FFFCCF8091F8
:10357000E30080688093E30082E0111183E0809390
:1035800074054CC18058823008F048C1809178059C
:10359000909179058C3D23E09207A1F583E08A8321
:1035A0008AE289834FB7F894DE01139620E03EE06B
:1035B00051E2E32FF0E050935700E49120FF03C065
:1035C000E295EF703F5FEF708E2F90E0EA30C0F031
:1035D000C7968D939D932F5F243159F74FBF8091EC
:1035E000E800877F8093E8006AE270E0CE010196F0
:1035F0000E9432068091E8008B778093E8000EC12C
:10360000C096E7CF40917A0550917B05292F33274B
:103610002330310509F444C078F52130310509F42F
:103620006FC08FE990E0EEE0F6E02230310509F05E
:10363000F5C02091E800277F2093E80020917C05C9
:1036400030917D058217930708F49C0140E0211515
:10365000310509F064C0411162C08091E80082FD2B
:10366000C9CF80917405882329F2853019F28091A1
:10367000E80083FFF2CFBECF21323105A9F122321B
:10368000310509F0CBC04115510509F443C0413063
:10369000510509F0C3C082E390E0ECE9F5E0C9CF41
:1036A000992781309105C1F0009759F0029709F0F0
:1036B000B5C0EFEBF6E0E4918E2F90E0EFEBF6E093
:1036C00007C0EDEEF6E0E4918E2F90E0EDEEF6E02F
:1036D000009709F4A3C0ADCFEDEDF6E0E4918E2F95
:1036E00090E0EDEDF6E0F4CF4115510571F0413079
:1036F000510509F093C089E090E0E9E3F6E099CF45
:1037000082E190E0EDEAF6E094CF89E090E0E0E23B
:10371000F6E08FCF80E490E0EEECF5E08ACF809188
:103720007405882309F466CF853009F463CF80914E
:10373000E80083FD5FCF8091E80082FD8ECF80910D
:10374000E80080FF84CF9091F3008091F200211572
:10375000310519F08830910550F041E0089709F0E3
:1037600040E08091E8008E778093E80070CF44912C
:103770004093F1003196215031090196E8CF80380D
:1037800009F04CC08091E800877F8093E800809129
:1037900075058093F1009ECE811140C0109178058F
:1037A0001230E0F58091E800877F8093E800109365
:1037B00075050E948005112311F084E005C08091F9
:1037C000E30087FDFACF81E08093740542E061EC6D
:1037D00081E00E949F0542E261EC82E00E949F0529
:1037E00042E361E883E00E949F0542E361E884E0F0
:1037F0000E949F0513C080917805813079F481E0A3
:10380000933009F080E0809373051092E900809175
:10381000E800877F8093E8000E9480058091E8009F
:1038200083FF0AC08091E800877F8093E800809141
:10383000EB0080628093EB00AA960FB6F894DEBF8F
:103840000FBECDBFDF91CF911F9108958F929F92B0
:10385000AF92BF92CF92DF92EF92FF920F931F939E
:10386000CF93DF9300D000D00F92CDB7DEB77C01AD
:10387000FC0183819481892B39F01081D180812FC3
:103880008D218F3F09F012C70F900F900F900F906E
:103890000F90DF91CF911F910F91FF90EF90DF90EC
:1038A000CF90BF90AF909F908F9008950E948B1102
:1038B000082F682F89819A810E942512E12FF0E05C
:1038C00027E0D29EE00DF11D112434E5039FE00DA9
:1038D000F11D1124EE0FFF1FE455FF4F05911491C8
:1038E0000F3A4CE5140708F0B9C00F395CE515072D
:1038F00008F050C200396CE5160708F057C00338CD
:103900007CE5170708F0F9C101388CE51807B8F510
:1039100007379CE5190708F0CFC10F32ECE51E0709
:1039200008F07FC1043FFCE51F0709F414C308F049
:103930000BC1093D3CE5130709F409C30A3D4CE5F9
:10394000140709F414C3083D5CE5150709F00BC121
:1039500026E241EE61EEC7010F900F900F900F909D
:103960000F90DF91CF911F910F91FF90EF90DF901B
:10397000CF90BF90AF909F908F900C94811301389F
:10398000FCE51F0709F4A7C102382CE5120751F620
:10399000F7018281882309F477CF80916D04982FF5
:1039A0009F70993008F070CF9F5FA1C10D393CE541
:1039B0001307B8F502394CE5140708F0BFC1003908
:1039C0005CE5150709F4A6C101396CE5160709F095
:1039D000A9CFF7018281882309F456CF20916D0485
:1039E000822F859585958595859586300CF04CCFF1
:1039F00091E0980F9295907F9595959595959595D1
:103A0000392F3295307F2F70232B20936D04181699
:103A10000CF03ACF97FF38CF8295807F922F9F701E
:103A200068C10D397CE5170709F49AC10E398CE598
:103A3000180709F077CFF7018281882309F424CF92
:103A400080916E04982F9F779F3709F41DCF93378D
:103A500008F09EC1935F9F77807898C1053B9CE5F5
:103A6000190709F403C2D0F5013BFCE51F0709F46F
:103A7000C5C1E8F40F3A3CE5130709F4A0C1003BC7
:103A80004CE5140709F04ECFF7018281882309F431
:103A9000FBCE20916E04322F331F3327331F9091BA
:103AA0006F04892F8770880F832B8F5F9AC1809155
:103AB0006E0490916F04F7012281033BFCE51F0720
:103AC00009F4CAC108F4BEC140E021114FE7881FC4
:103AD0008827881F9770990F62E4A0C1083B4CE5C6
:103AE000140709F4D5C190F4063B6CE5160709F4F8
:103AF000BDC1073B7CE5170709F014CFF7018281B0
:103B00008111C4C18FEF80932304BECE0A3B8CE5A4
:103B1000180709F4F6C108F4DDC10B3BECE51E07FC
:103B200009F000CF80916E04982F991F9927991F53
:103B300080916F048770880F892BF70192816FEF56
:103B40007FE19111F1C1EEC1063F6CE5160709F462
:103B50000AC208F404C227E245EE66EE073F8CE590
:103B6000180709F4F8CEF7019281992309F4AFC53B
:103B70001092A4060430FDE51F0708F0FBC10B3FBF
:103B80002CE5120738F4980122503C4524313105C8
:103B900008F0F5C10E9477179093B6038093B503A0
:103BA00000314CE5140709F4CDC208F049C20830D1
:103BB0006CE5160709F4B4C208F01BC204308CE5AA
:103BC000180709F49FC208F001C20230ECE51E0795
:103BD00009F492C28091B503826003301C4509F458
:103BE0008EC26091B5031091B60384E090E00E940C
:103BF000AC33612F82E290E00E94AC330F900F90C3
:103C00000F900F900F90DF91CF911F910F91FF9028
:103C1000EF90DF90CF90BF90AF909F908F900C94DB
:103C2000581980916E04982F991F9927991F4091D8
:103C30006F044770440F492B8F7721ED200F30E040
:103C4000F901EB5DFB4F6F012081F7019281992310
:103C500009F12F3F09F018CE10916D04912F9F703C
:103C600015951595159515951F52FCE09F9F100D04
:103C70001124100F212F2F774069E091B505F091A5
:103C8000B605082F63E070E085EB95E00995F60135
:103C90001083FACD2F3F61F02F774068E091B50592
:103CA000F091B605082F63E070E085EB95E009958B
:103CB0008FEFF6018083E8CDF7018281882309F434
:103CC000E3CD0757802F8F7000916D04007F082B84
:103CD00000936D04D9CDF7018281882309F4D4CDF6
:103CE00080916D04982F9F7009F4CECD915F9F70E5
:103CF000807F892B80936D04C7CDF7018281882353
:103D000009F4C2CD0958802F8295807F00916D04FF
:103D10000F70DDCFF7018281882309F4B5CD809142
:103D20006D04982F95959595959595959B3F0CF4D9
:103D3000ABCD915F9295907F8F70DBCFF701828141
:103D4000882309F4A1CD02598CE0089F802D11240D
:103D50008F7700916E040078082B00936E0494CD49
:103D6000F7018281882309F48FCD80916E04982F0A
:103D70009F7709F489CD80789F3721F485678093F8
:103D80006E0482CD9D30D8F39D509F77892BF7CF5D
:103D90008F67F5CFF7018281882309F475CD0F591C
:103DA00080916E0400FB87F980936E04069507707E
:103DB00080916F04887F082B00936F0465CDF70115
:103DC0008281882309F460CD20916E04322F331F45
:103DD0003327331F90916F04892F8770880F832BAF
:103DE000815F382F3F7080FB27F920936E04832F6B
:103DF0008695987F982B90936F0446CDF70182812A
:103E0000882309F441CD90916E04991F9927991F39
:103E100080916F048770880F40E06BE7892B0F90CB
:103E20000F900F900F900F90DF91CF911F910F91F6
:103E3000FF90EF90DF90CF90BF90AF909F908F90CA
:103E40000C94030440E021114FE7881F8827881F46
:103E50009770990F60E4E2CF40E021114FE7881F8F
:103E60008827881F9770990F61E4D8CFF701828166
:103E700040E081114FE790916E04991F9927991F97
:103E800080916F048770880F63E4C8CF81E03BCED8
:103E9000F7018281882309F4F7CC90916F04292FD0
:103EA0002695269526952F7081E0820F8F70880FBA
:103EB000880F880F9778892B80936F04982F9877B5
:103EC00009F0E2CC220F220F220F8778822B8093F9
:103ED0006F04DACCF7018281882309F4D5CC809174
:103EE0006F04982F987709F4CFCC982F96959695D4
:103EF0009695915F9F70990F990F990F8778892BED
:103F0000E6CF80916E04982F991F9927991F809171
:103F10006F048770880F892BF701928160E070EE43
:103F2000911102C070E060E00F900F900F900F9021
:103F30000F90DF91CF911F910F91FF90EF90DF9045
:103F4000CF90BF90AF909F908F900C94EA0327E2A0
:103F500045EE65EE00CD26E241EE60EEFCCC27E2B8
:103F600045EE64EEF8CC26E241EE62EEF4CC28E2B7
:103F700041E0EFCF02363DE5130709F40BCE0631E1
:103F80006CE5160709F0BBC3809183038A7A91E040
:103F900009F490E09093110369E2811165E388E0F0
:103FA00093E00E94E7070F900F900F900F900F90F3
:103FB000DF91CF911F910F91FF90EF90DF90CF9005
:103FC000BF90AF909F908F900C946A118091B50331
:103FD000806106302CE5120709F491C08091B50389
:103FE000886007301C4508F48AC08091B503806260
:103FF00086C08091B5038D7F0C304CE5140709F421
:104000007EC070F48091B5038C600A306CE51607B1
:1040100009F475C008F488C08091B5038E7F6FC025
:104020000E308CE5180709F485C08091B5038B7FAD
:104030000F301C4508F463C08091B5038F7E5FC0CC
:104040000D3FECE51E0709F479C068F504312CE555
:10405000120709F48BC080F402314CE5140709F40F
:1040600075C08091B5038F7B03311C4508F447C0B0
:104070008091B503837F43C00B3F6CE5160709F4BD
:1040800045C008F049C005311C4509F0AACD809112
:10409000B50382FB992790F921E0922790FB82F9E2
:1040A00090FB83F92CC001309DE5190709F454C039
:1040B00088F48091B60383600F3FFCE51F0749F148
:1040C0008091B6038D7F01151D4518F18091B603CF
:1040D0008C7F1FC003303DE5130709F456C008F478
:1040E0004EC002361D4509F07CCD9091B503892F55
:1040F0008F7E94FF806103C08091B50381608093BF
:10410000B5036FCD8091B5038460F9CF8091B6037C
:1041100081608093B60365CD8091B6038260F9CF4C
:104120008091B5038064EBCF0E9458198091B5034C
:104130008068E5CF8091B503877FE1CF8091B6039A
:104140008E7FE7CF8091B5038F7DD9CF0E9458191C
:104150008091B5038F77D3CF8091B603982F909538
:1041600091708E7F892B90FB81F9D3CF0E945819D3
:104170009091B503892F97FB87F98058C0CF61E0F4
:104180008EE090E00E94AC332CCD60E0F9CF85E367
:10419000A8C248EB58E061EC78E00F900F900F90C8
:1041A0000F900F90DF91CF911F910F91FF90EF90A3
:1041B000DF90CF90BF90AF909F908F900C9443086A
:1041C00041EC58E068EB78E0E8CF46EA58E06FEA67
:1041D00078E0E3CF4FEA58E066EA78E0DECF4EE8D9
:1041E00058E06AE978E0D9CF4AE958E06EE878E02B
:1041F000D4CF42E858E066E778E0CFCF4EE558E00C
:104200006AE678E0CACF4AE658E06EE578E0C5CFC6
:1042100081E00F900F900F900F900F90DF91CF9152
:104220001F910F91FF90EF90DF90CF90BF90AF90D4
:104230009F908F900C94C2038CE0EBCF0E94581992
:104240007FEF84E39CE0715080409040E1F700C034
:10425000000087E797E7909301088093000888E1C2
:104260009AE00FB6F894A895809360000FBE9093E3
:104270006000FFCF0F900F900F900F900F90DF9185
:10428000CF911F910F91FF90EF90DF90CF90BF9053
:10429000AF909F908F900C94CB18902F0E94FD119F
:1042A000D82E46C2092F0F70907F11F00295007F23
:1042B000812F2223C9F0002369F090E2910F9830FA
:1042C00010F011110BC080918303082B009383031E
:1042D0000E946A11812F0E942C1317C080918203C3
:1042E000082B00938203F4CF0E94F312002369F09D
:1042F0000095105E183010F0B11030C0809183032B
:104300000823009383030E946A11F8E0CF1AD108B2
:1043100024E0C216D10410F40E941A1585E0F701BA
:10432000DE01119601900D928A95E1F789819A81BB
:104330000E94FD119A81E981F0E037E0939FE00D42
:10434000F11D112444E5849FE00DF11D1124EE0FB1
:10435000FF1FE455FF4F8591949196CA8091820387
:10436000082300938203CFCF892F8F70907F9032E4
:1043700011F08295807FF1E0BF120EC0222331F050
:10438000363008F0C2CF0E94E912BFCF353008F0B6
:10439000BCCF0E94DE12B9CF222341F0332399F320
:1043A00040FF98CF4F70F7014583EDCF332389F35A
:1043B000193369F4FFEF27EE33E0F150204030402D
:1043C000E1F700C00000812F0E94F3129ECF8FE31F
:1043D0009CE90197F1F7F5CF892F86958695837033
:1043E00061F0813009F091CF812F9370211102C0CB
:1043F00090E080E00E94010888CF812F9370211106
:1044000002C090E080E00E9417087FCF892F837060
:1044100009F065C0211179CF812F8295869587702B
:10442000880F880F612F6F70862E912CB12CA12CD4
:10443000082E04C0880C991CAA1CBB1C0A94D2F735
:1044400040E050E0BA0114FF0FC04FE050E060E0E0
:1044500070E004C0440F551F661F771F8A95D2F77E
:10446000409550956095709596959695937092307D
:1044700019F1D8F4009184031091850320918603EB
:1044800030918703913069F0482959296A297B299D
:10449000CB01BA0160237123822393230E94D4129B
:1044A00034CF802A912AA22AB32ACB01BA016829E3
:1044B00079298A299B29F2CF482959296A297B29F8
:1044C0000091840310918503209186033091870326
:1044D000CB01BA016027712782279327DFCF86950A
:1044E000222311F0892F8170882309F40ECF812FA8
:1044F000829586958770880F880F612F6F70862E42
:10450000912CB12CA12C082E04C0880C991CAA1C3B
:10451000BB1C0A94D2F740E050E0BA0114FF0FC070
:104520004FE050E060E070E004C0440F551F661F8C
:10453000771F8A95D2F7409550956095709596951E
:1045400096959370923019F1D8F400910904109166
:104550000A0420910B0430910C04913069F0482931
:1045600059296A297B29CB01BA016023712382234F
:1045700093230E948612C9CE802A912AA22AB32AA6
:10458000CB01BA01682979298A299B29F2CF4829C8
:1045900059296A297B290091090410910A04209164
:1045A0000B0430910C04CB01BA01602771278227DC
:1045B0009327DFCF092F0F70222329F0802F0E942D
:1045C000B312812FE0CE812F0E94DE12802F0E9435
:1045D00090129BCE812FE1EF1E1709F442C0E11724
:1045E00058F0F0EF1F17F1F0222309F44BC03111FE
:1045F00071CE892F8F713AC042EF1417D1F153EF6A
:104600001513F2CF2223D1F1292F2F7161E070E031
:1046100080E090E004C0660F771F881F991F2A95DD
:10462000D2F7A7CF2223C9F0353008F06ECE292F5C
:104630002F7161E070E080E090E004C0660F771FAA
:10464000881F991F2A95D2F70091090410910A0436
:1046500020910B0430910C04A8CF363008F055CED1
:10466000E6CF892F8F71222309F4B1CF0E94B312B4
:104670004CCE892F8F712223C9F3A9CF60E070E05F
:10468000CB0177CF332379F0893341F46FEF77EEA5
:1046900083E0615070408040E1F793CEEFE3FCE9A6
:1046A0003197F1F78ECE892F8F7191CF85E0DE01A2
:1046B000119601900D928A95E1F7F7012281898187
:1046C0009A812111F3C80E94FD11082FF7C8063105
:1046D000FCE51F0709F055C080911103811157CDEA
:1046E00089E2EAE0F3E020E133E09191891303C02D
:1046F000DF0111971C922E173F07B9F754CC011513
:104700002CE5120709F49ACD0F3D1C4509F4B2CDF2
:10471000F70110810181812F992309F4BECD902FDB
:104720000E948B11D82E682F812F902F0E94251266
:10473000E12FF0E027E0029FE00DF11D112434E5A8
:10474000D39EE00DF11D1124EE0FFF1FE455FF4F26
:10475000859194910E940010182FB82EF7012281A4
:104760004581342F32953F70892F82958F70C82EE6
:10477000D12C8C3008F0C9CDF601ED58FB4C0C94CF
:1047800006338091830382720B3C4CE5140709F4D5
:1047900030CD88F5063C6CE5160709F416CDB0F46B
:1047A000043CECE51E0709F4F4CC08F009CD033C09
:1047B0001C4509F0ADCF8091A60691E08927809332
:1047C000A606109255019093A5065EC8083C3CE5EC
:1047D000130709F404CD08F4FDCC093C5CE515078A
:1047E00009F402CD0A3C1C4509F092CF46E758E097
:1047F00062E878E0D2CC003D7CE5170709F41CCDD7
:1048000090F40D3CFCE51F0709F4FDCC08F4F6CC50
:104810000E3C3CE5130709F4FBCC84E00F3C1C453F
:1048200009F4F7CC75CF073D5CE5150730F481E15D
:10483000023D1C4508F4EDCC27C80E351D4511F48A
:104840000C94441C65CF1F93CF93DF9380914E034C
:10485000807FA9F480914B03882389F080918003A5
:10486000D0914F036091490370914A03A0914C038A
:10487000B0914D03C62FC72316E0D81304C0DF91B3
:10488000CF911F91089590E0109711F0CF3F19F448
:1048900001968770F2CF189F9001199F300D112457
:1048A000F901E05BFC4F41814713F2CF4081461391
:1048B000EFCF42814111ECCF438154814A1B5B0B06
:1048C000483C510528F780914E038F70806180939A
:1048D0004E03F901EB5AFC4F80818F708061808319
:1048E00089E493E00E94261CDF91CF911F910C94E4
:1048F0008111AF92BF92CF92DF92EF92FF920F930E
:104900001F93CF93DF93CDB7DEB761970FB6F894BF
:10491000DEBF0FBECDBF8C0185E0F801DE011D9624
:1049200001900D928A95E1F7F801E28089E4A82EC2
:1049300083E0B82E60914C0370914D0361157105B1
:1049400009F432C19091490340914A03892F84238D
:104950008F3F09F429C120813181C380D480F09038
:104960004B03F601E61BF70BFF2009F4E8C080912A
:104970004E03582F507FE83CF10508F0ABC05111B1
:1049800077C0FE2C431321C092131FC0E1101DC03D
:104990008F70806180934E03C5010E94261C809118
:1049A0004E03F80185838F2D61960FB6F894DEBF14
:1049B0000FBECDBFDF91CF911F910F91FF90EF9070
:1049C000DF90CF90BF90AF900895CD2829F0822F2F
:1049D00083238F3F09F003C180E0F82FF170DF2EB1
:1049E00080FF3CC08091800340914F0356E08413C8
:1049F00015C02D873E878D859E850E94E211292F47
:104A000022952F702230F0F0243018F59F70F1F0CD
:104A1000F8019581907FD1F4D12C1EC090E0589F71
:104A2000F001599FF00D1124E05BFC4F61813613BA
:104A300006C06081261303C06281E6120FC0019692
:104A40008770D5CF9F7011F0882331F3805E883056
:104A500018F3C8010E94261CFD2CA5CFEE2009F4F6
:104A6000A2CF80914E03816080934E03F12C9BCFA7
:104A7000431306C0921304C0F801EE2009F479C074
:104A8000C8010E945112882309F1EE20F9F08091AB
:104A90004E03803270F02091490330914A033887E9
:104AA0002F831986DB86CA868C87CE0107960E94E3
:104AB000261C86E0F801A9E4B3E001900D928A95E6
:104AC000E1F70E942324FF24F3946DCFC8010E94D4
:104AD000261CF9CF51110AC089E493E00E94261CDC
:104AE00086E0F50111928A95E9F7C0CF43130FC014
:104AF00092130DC0E1100BC0F8018583C8010E941C
:104B0000261C86E0F50111928A95E9F74CCFC80181
:104B10000E9451128823D1F2EE20C1F280914E03FF
:104B2000803238F22091490330914A033A83298335
:104B30001B82DD82CC828E83CE010196B8CFE83C09
:104B4000F105F8F6FE2CEE2009F243131FC0921374
:104B50001DC080914E0380FD10C0982F907F69F09A
:104B6000F8018583903F31F0982F907F905F8F7090
:104B7000892B8583C8010E94261C86E0F801A9E4E0
:104B8000B3E001900D928A95E1F70DCFC8010E9424
:104B9000511281118ECF80914E03816080934E031C
:104BA000C8010E94261CFFCEEE2009F48FCFC80159
:104BB0000E945112F82E882309F488CF86E0F8016C
:104BC000A9E4B3E001900D928A95E1F78091490341
:104BD00090914A030E94E2110E942324E4CE81E0D6
:104BE0008E25FBCE1F93CF93DF93CDB7DEB76797AC
:104BF0000FB6F894DEBF0FBECDBF4B8B5C8B6D8BB9
:104C00007E8B8F8B6111109282031A8A198A85E03C
:104C1000FE017396DE011D9601900D928A95E1F7D3
:104C200086E0FE013D96DE01179601900D928A9571
:104C3000E1F7CE0107960E947924882389F016E0D7
:104C40008091800390914F03891349C067960FB6F6
:104C5000F894DEBF0FBECDBFDF91CF911F910895B5
:104C600086E0FE013796DE01119601900D928A953D
:104C7000E1F78A859B85892B11F38F81988589239C
:104C80008F3FE9F220914F0330E0C9010196877010
:104C90009927409180034817190671F40E9458190A
:104CA00010924F031092800386E0E9E4F3E0DF0105
:104CB0001D928A95E9F7C3CF96E0929FD001939F0A
:104CC000B00D1124A05BBC4FFE01319601900D92F6
:104CD0009A95E1F780934F030E948111B0CF819F95
:104CE000C0011124805B9C4F0E947924882309F421
:104CF000ADCF8091800390E00196877099278093D3
:104D000080039ECF9F92AF92BF92CF92DF92EF929D
:104D1000FF920F931F93CF93DF93CDB7DEB76797C3
:104D20000FB6F894DEBF0FBECDBF8E010F5F1F4FD1
:104D30008CE0D8011D928A95E9F794E9C92E91E09B
:104D4000D92EF12CE12CAA24A394B12CF601819147
:104D50006F018F3F09F44AC0F894E82FE295EF7095
:104D6000F0E021A18F70A50102C0440F551F8A9564
:104D7000E2F7CA01922F982B91A392A180958923E3
:104D800082A30E94A40F00C0E0EAF1E030E020E03E
:104D9000912C41914F3F09F47DC0A42FA295AF7093
:104DA000B0E090968C9190E04F7002C095958795F9
:104DB0004A95E2F780FD6EC08A2D022E01C0880F51
:104DC0000A94EAF7982A2F5F3F4F2730310509F7F9
:104DD000F601319780818F3F11F00E94A60F50EAB3
:104DE0005A95F1F7F801EE0DFF1D90828FEFE81A4A
:104DF000F80A96E0E916F10409F0A8CF4CE050E07B
:104E0000B80187EB93E00E9468337C01892B41F065
:104E10008CE0F801A7EBB3E001900D928A95E1F7E1
:104E20001091C403E114F104B9F181E080938A0385
:104E30000E94DB0790938903809388038091880305
:104E4000909189030E94C007059770F0A7EBB3E02B
:104E5000E12FF0E0EA53FC4F8D91819323E0AD3BCD
:104E6000B207D1F710928A0381E090E0EF28C1F0F9
:104E700067960FB6F894DEBF0FBECDBFDF91CF911E
:104E80001F910F91FF90EF90DF90CF90BF90AF9068
:104E90009F90089580E096CF80918A038111CECFB4
:104EA0000E94BB14B82EE091C4038E01035F1F4F14
:104EB000882309F4A0C086E0D8011D928A95E9F7FD
:104EC000F0E09F012A533C4F79018091B303AE017A
:104ED0004D5E5F4F6A018A3008F062C04DE858E1CC
:104EE000B801C7010E947714882309F470C044E90F
:104EF00058E2B801C7010E947714882309F467C0FB
:104F000045E857E1B801C7010E947714882309F4E6
:104F10005EC01092B303E091C303F0E0AF014A53C7
:104F20005C4FD80110E0FA019191AF018D91981773
:104F300031F09F0121503109F90180831B2DAC15FF
:104F4000BD0589F78DE8C82E83E0D82EF12CE12C21
:104F5000D6018D916D018823D1F08695F70109F472
:104F600047C0E257FE4F808191819C8B8B8B1D8ABD
:104F70000E94DB078160782F9F8B8E8BF601319723
:104F800010824B895C896D898F890E94F225B2E07D
:104F9000EB0EF11CE4E0EE16F104D1F6812F68CFA0
:104FA00080918B0390918C030E94C007843F9140B5
:104FB00008F094CFE091C303F0E0EA53FC4FD8012E
:104FC00011921D92CA16DB06D9F71B2DBBCF80911B
:104FD000B3038F3F31F08F5F8093B3038A3008F4BF
:104FE0009ACF0E94DB0790938C0380938B03E2CFD0
:104FF000E657FE4FB8CFF0E0EA53FC4FF89486E056
:10500000A3EAB3E001900D928A95E1F766E070E0C3
:1050100083EA93E00E942D088093A2030E94A40FCC
:10502000F894E0911104F0E0E25FFB4F80818D87FE
:105030008093AA0361E070E0C8010E942D0880936C
:10504000A9030E94A40FF894C090AB03D090AC03C6
:10505000E090AD03F090AE0380918F0390919003A8
:10506000A0919103B0919203C816D906EA06FB06F7
:10507000D1F0C0928F03D0929003E0929103F0920E
:1050800092030E94BB1481110EC00E94CF07C61A62
:10509000D70AE80AF90AC0925B05D0925C05E09253
:1050A0005D05F0925E050E94A40F80E0E1CEEF92D4
:1050B000FF920F931F93CF93DF9300D000D00F92F6
:1050C000CDB7DEB7162FE82EF12CC701880F991F38
:1050D000662339F182579E4FFC01808191819A832A
:1050E000898301E00B830E94DB078160782F9D8319
:1050F0008C83F701E357FC4F0127110F102B10830E
:1051000049815A816B818D810F900F900F900F9084
:105110000F90DF91CF911F910F91FF90EF900C9422
:10512000F22586579E4FD8CFCF92DF92EF92FF9213
:105130000F931F93CF93DF930F92CDB7DEB7EE247B
:10514000E394F12C0AEA13E09E012F5F3F4F4EE9F2
:1051500053E063E082E00E94DE17082F882321F1EC
:10516000C090C5038C2D90E09C01225F3B4F7901DC
:105170001981F9018081181BD12E80E00AC0DA94D0
:10518000F70180818F5F808360E08C2D0E9457281B
:10519000802F1D14A4F3912F17FD90E0191B1111FE
:1051A0000EC081110E946811802F0F90DF91CF9166
:1051B0001F910F91FF90EF90DF90CF9008951F5FA8
:1051C000F70180818150808361E08C2D0E945728F7
:1051D000802FE5CF1F920F920FB60F9211242F93BD
:1051E0003F934F935F936F937F938F939F93AF936F
:1051F000BF93CF93DF93EF93FF93D091E900DF70DC
:105200008091EC00C82FC17080FDC0E81092E900C9
:105210008091F000877F8093F00078940E9463195A
:105220001092E9008091F00088608093F000CD2B0F
:10523000CF70C093E900FF91EF91DF91CF91BF91C3
:10524000AF919F918F917F916F915F914F913F911E
:105250002F910F900FBE0F901F9018951F920F92D5
:105260000FB60F9211242F933F934F935F936F9339
:105270007F938F939F93AF93BF93EF93FF9380910F
:10528000E10082FF09C08091E20082FF05C08091A9
:10529000E1008B7F8093E1008091DA0080FF24C0E1
:1052A0008091D80080FF20C08091DA008E7F8093AB
:1052B000DA008091D90080FF9BC080E189BD82E146
:1052C00089BD09B400FEFDCF81E080937405809113
:1052D0006705811109C00E9406050E94D1058091D1
:1052E000E20084608093E2008091E10080FF17C0BB
:1052F0008091E20080FF13C08091E2008E7F809356
:10530000E2008091E20080618093E2008091D80009
:1053100080628093D80019BC85E0809374058091E9
:10532000E10084FF29C08091E20084FF25C080E174
:1053300089BD82E189BD89B5982F917080FFFBCF2F
:105340008091D8008F7D8093D8008091E1008F7E7E
:105350008093E1008091E2008F7E8093E200809153
:10536000E20081608093E20080917505882309F452
:1053700045C084E0809374058091E10083FF27C0DD
:105380008091E20083FF23C08091E100877F8093BA
:10539000E10082E080937405109275058091E10030
:1053A0008E7F8093E1008091E2008E7F8093E20007
:1053B0008091E20080618093E20042E060E080E062
:1053C0000E949F058091F00088608093F000FF911B
:1053D000EF91BF91AF919F918F917F916F915F916D
:1053E0004F913F912F910F900FBE0F901F901895E6
:1053F00019BC109274051092670576CF8091E30076
:1054000087FD93E090937405B7CF78941F921FB6F1
:105410001F9211248F939F93AF93BF938091600548
:1054200090916105A0916205B09163050196A11D5F
:10543000B11D8093600590936105A0936205B093C0
:105440006305BF91AF919F918F911F901FBE1F90D9
:1054500018951F921FB61F9211248F939F93AF939D
:10546000BF9380915F05811113C080916005909179
:105470006105A0916205B09163054196A11DB11D22
:105480008093600590936105A0936205B0936305D6
:10549000BF91AF919F918F911F901FBE1F90189544
:1054A000CDB7DEB72A970FB6F894DEBF0FBECDBFDB
:1054B0000E94850F1092DA051092DC051092DB0530
:1054C00080EC80939F068DED95E09093A1068093EC
:1054D000A00610929E0610929D061092BA05109298
:1054E000B9051092BC051092BB051092BE05109232
:1054F000BD051092C0051092BF051092C205109212
:10550000C1051092C4051092C3051092C6051092F1
:10551000C5051092C8051092C7051092CA051092D1
:10552000C9051092CC051092CB051092CE051092B1
:10553000CD051092D0051092CF051092D40510928F
:10554000D30585E697E09093B6058093B50589EB82
:1055500096E09093D6058093D50585E996E09093E3
:10556000D2058093D10584E996E09093B8058093A5
:10557000B70584B7877F84BF0FB6F894A89580914C
:105580006000886180936000109260000FBE80E828
:1055900090E00FB6F89480936100909361000FBE85
:1055A00085B7806885BF85B7806885BF82EA9FE040
:1055B00090930703809306030E9406050E94D1057D
:1055C0008091E20084608093E20078948091740579
:1055D0008823A1F01091E9001F709091EC00892FB1
:1055E000817090FD80E8182B1092E9008091E8000E
:1055F00083FD0E9463191F701093E90082E084BD4F
:1056000093E095BD9AEF97BD80936E0010925B0575
:1056100010925C0510925D0510925E059091B403A6
:10562000911108C00E94BB1492E0811101C091E069
:105630009093B40381E0913009F080E080933601CB
:105640000E94BB1481110E941D318091360180910E
:10565000360196E0811190E09093C40386E0891BA7
:105660008093C30304E911E09AE9E92E91E0F92E51
:10567000D8018D918D018F3F11F00E94A60FE01689
:10568000F106B1F700EA11E087EAE82E81E0F82E92
:10569000F80181918F018F3F11F00E94A60FE01653
:1056A000F106B1F7E7EBF3E083EC93E0A6ECB3E0AF
:1056B00011921D928E179F07D9F790E080E00E940B
:1056C0009633893E9E4F11F00E94CB1882E090E005
:1056D0000E948E33809314040E9477179093B60330
:1056E0008093B50383E090E00E948E33682F70E0D2
:1056F00090E080E00E94D41210928205E1EAF5E089
:1057000085EB95E02FEF3FEF219331938E179F07A5
:10571000D9F71092D203E1EFF3E085E094E02FEFA8
:105720003FEF219331938E179F07D9F790E080E0E8
:105730000E949633893E9E4F21F00E94CB180E9412
:105740005F1746E050E06CE170E086EA96E00E9468
:105750007E338091A6068C7F11F40E945F170E9411
:10576000BB14811102C00E94203180913601811149
:1057700006C085EF8093420184EF80934101209120
:105780004201A22FA295AF70B0E091963C91919703
:105790002F7081E090E0BC01022E01C0660F0A94D8
:1057A000EAF7462F4095432391964C939197929612
:1057B0003C919297362B92963C939297409141015F
:1057C000E42FE295EF70F0E031A14F70042E01C09C
:1057D000880F0A94EAF7982F9095932391A392A1AA
:1057E000892B82A390968C9190E002C09595879525
:1057F0002A95E2F7817020A130E002C03595279507
:105800004A95E2F792E020FF90E0892B8093120402
:105810009091360181E0982790931104891B809321
:10582000C50380916D04807F826080936D048091B8
:105830006E048078856780936E048EE00E94C203B8
:1058400087E391E09093580580935705B8E12B2E9C
:10585000312CCC24C39480917405853089F4F0E414
:10586000FF2EA3E0EA2E00E112E18091740585305D
:1058700009F4DAC10E9458190E941A1510920D04F9
:105880000E94822681110E94CF07E5E1F4E0A6EC98
:10589000B3E010E000E0A02EBD9081918B1509F4DB
:1058A00029C28B25F12CEE24E394982F9E2109F434
:1058B0001CC20E94BB14BE20882399F0F982AA82E0
:1058C00081E0B11001C080E08B830E94DB07816022
:1058D000782F9D838C8349815A816B818D810E94B1
:1058E000F225F801EB5EFB4F8081E826E0820E9402
:1058F000BB14882309F45FC0BB2089F087E0809F38
:10590000F001819FF00D1124E253FE4FEF0DF11DC8
:105910008081B12C8F3F19F0D82EBB24B3940B2D6E
:1059200010E08091D203800F912F911D0B976CF1A5
:105930008AE090E07C01E01AF10AB8016D527C4FD8
:10594000A70183ED93E00E947533B80163527C4F49
:10595000A7018DED93E00E947533A701440F551FF9
:10596000B801660F771F6F507C4F81EF93E00E9464
:105970007533B80169517C4FA70187EE93E00E940F
:1059800075338AE08B198093D2038091D20390E023
:10599000AD2DB0E09D01220F331F2E5D3D4FAA0FAC
:1059A000BB1FBD016D5D7D4F41E0480F9B1508F4A5
:1059B00087C18093D20360910504709106048091A1
:1059C0000704909108040E94F9144B015C010E94A5
:1059D000DE1460930504709306048093070490938B
:1059E0000804A091D203E2EDF3E02A2F30E0442432
:1059F0004A94542C612C712C481859086A087B0869
:105A0000A3138FC12093D20320910D0410E0211124
:105A100008C02091A606122F137019F0122F1695A8
:105A2000169520915501213009F4A4C1222309F4CF
:105A30008BC1223009F49CC2233009F4A6C2E09144
:105A40001204EE0FEE0F20914201A22FA295AF702B
:105A5000B0E090968C9190E02F7002C0959587955C
:105A60002A95E2F78170992740914101A42FA295D0
:105A7000AF70B0E090962C9130E04F7002C0359539
:105A800027954A95E2F7A9014170552720FF02C0EA
:105A900042E050E0842BE82BE093120410911104B3
:105AA000EF70F0E0E955FE4F808190911004890F6E
:105AB0008093100420E0843064F0E12FF0E0E25F96
:105AC000FB4F80818F5F808360E0812F0E94572889
:105AD00021E0809110048D3F64F4E12FF0E0E25F5B
