:100000000C9406040C9423040C9423040C947D316A
:100010000C9423040C9423040C9423040C942304C4
:100020000C9423040C9423040C947D2A0C94392AF8
:100030000C947A2B0C9423040C9423040C94230426
:100040000C9423040C9423040C9423040C94230494
:100050000C9423040C94562B0C9423040C9423042A
:100060000C9423040C9423040C9423040C94230474
:100070000C9423040C9423040C9423040C94230464
:100080000C9423040C9423040C9423040C94230454
:100090000C9423040C9423040C9423040C94230444
:1000A0000C9423040C9423040C94230400000000FB
:1000B0000000000000000000000000000000000040
:1000C0000000000000000000000000000000000030
:1000D0007E0F00D4FFFFFFC7000000780000000083
:1000E000000000002A2B2800000000000000000093
:1000F0000000000000000029000000002C1E342039
:10010000212224342627252E362D3738271E1F205E
:100110002122232425263333362E37381F040506A3
:100120000708090A0B0C0D0E0F10111213141516E7
:100130001718191A1B1C1D2F3130232D35040506E5
:100140000708090A0B0C0D0E0F10111213141516C7
:100150001718191A1B1C1D2F3130354C62616E6443
:100160006F6D696E65646F6E693A6C65646E6F740D
:1001700067204020302E32302E342D31362D673519
:1001800065616166372D64697274792035656161D6
:100190006637393463612A207C20323032332D3087
:1001A000342D30352D30313A35373A343100507EE8
:1001B000567E587E5B7E5F7E6E7E0000527E577E4E
:1001C000617E5D7E6B7E647E537E5C7E637E667E3A
:1001D0006A7E5A7E557E4D7E5E7E627E657E687E3C
:1001E0006C7E677E547E597E6D7E6F7E697E607EFA
:1001F000517E4E7E00000000000000000000000064
:100200000000237124712671277128714A712271AF
:1002100025712C712B7129714871477121522A71F6
:10022000317134712E7145714671A84538712F7145
:100230002D713D71437144713A7136713271307173
:100240003F7142713E714071397135713371417145
:1002500037713B713C71527E567E587E5D7E697E61
:100260006D7E0000507E5C7E647E667E5B7E5A7E84
:10027000547E557E617E657E687E6B7E607E4D7E9F
:10028000577E5E7E637E677E6A7E627E597E1F71C8
:100290006C7E6E7E717E5F7E4F7E537E000000001E
:1002A000000000000000000000002371247126718E
:1002B000297127714871227125712C712D71287156
:1002C0004671477121522A712B7139712F713D711D
:1002D0004571A845387130712E7131713F7144718B
:1002E00036713771347132713371427140714371BB
:1002F0003B71767E357141713A713C713E71E0001F
:100300001E001F002000210022000000167C2B0090
:1003100014001A0008001500170039000400160028
:10032000070009000A000B00E1001D001B00060089
:100330001900050011003500E300E20091442C0093
:100340002C0046000000000000000000000000003B
:1003500000004A004E000A001C0023002F004B0042
:100360004D0005000B0018002400300024522C0022
:1003700011000D000C002500310001009044100018
:100380000E001200260027004F00E60036000F0086
:1003900013002A00E50052005000370033004C00E3
:1003A00028003800510039001E001F0020002100E5
:1003B00022000000167C2B0014001A000900130014
:1003C0000A00E000040015001600170007002800CE
:1003D000E1001D001B00060019000500100035009B
:1003E000E300E20091442C002C00460000000000D5
:1003F000000000000000000000004A004E0007005E
:100400000D0023002F004B004D0005000B000F00D6
:100410002400300024522C000E001100180025008A
:10042000310001009044100008001C002600270045
:100430004F00E60036000C0033002A00E5005200B1
:100440005000370012004C00280038005100010015
:100450003A003B003C003D003E000000010001006E
:100460000100010001000100010001000100010084
:100470000100010001000100010001000100010074
:100480000100010001000100010001000100010064
:10049000010001000000000000000000000000005A
:1004A000000001000100010001003F000100010007
:1004B00001000100010001004000010001000100F5
:1004C00001000100010041000100010001000100E4
:1004D0000100010042004300010001000100010091
:1004E00001000100010001000100010034000100D1
:1004F0000100010001000000405200000000000067
:100500000000000000004252000000000000000057
:100510000000435200000000000000000000010045
:1005200000000000000000000000000000000000CB
:1005300015701470000000000000000000000000B2
:10054000000000000000000000000000267800000D
:10055000417E0000AA000100000025780000000094
:100560000000A90001000000247800000000000045
:10057000717101000000237800000000000072711A
:10058000207800002A780000000000002778037C13
:10059000227829780000407E000028782178567162
:1005A00055715671557101000100010001000100F3
:1005B00001002178227800010101010101010101FE
:1005C0000202020202020202020303030303030304
:1005D00003040404040404040505050505060606D1
:1005E0000606070707070708080808090909090A8E
:1005F0000A0A0B0B0B0C0C0C0D0D0D0E0E0E0F0F33
:100600000F101011111112121313141415151616C0
:100610001717181819191A1A1B1B1C1D1D1E1E1F2F
:100620002020212222232424252626272829292A7E
:100630002B2C2D2D2E2F30313232333435363738A6
:10064000393A3B3C3D3E3F404142434445464748A2
:10065000494A4C4D4E4F50515354555658595A5B78
:100660005D5E5F616264656668696B6C6D6F707218
:10067000737577787A7B7D7E8082838587888A8C84
:100680008E8F91939596989A9C9EA0A2A3A5A7A9B8
:10069000ABADAFB1B3B5B7BABCBEC0C2C4C6C9CBAF
:1006A000CDCFD1D4D6D8DBDDDFE2E4E7E9EBEEF065
:1006B000F3F5F8FAFDFF05010980A1018503190191
:1006C0002AB700150126B700950175108100C005F5
:1006D0000C0901A101850419012AA002150126A017
:1006E00002950175108100C005010906A1010507E9
:1006F00019E029E71500250195087501810295018A
:10070000750881010507190029FF150026FF0095CE
:1007100006750881000508190129059505750191DF
:1007200002950175039101C009029F00040100A018
:10073000FA0904000001030101000921110100016F
:10074000224000070581030800010904010001039C
:100750000000000921110100012232000705820377
:10076000200001080B020201010000090402000040
:10077000010100000924010001090001030904032B
:1007800000020103000007240100014100062402C9
:1007900001010006240202020009240301030102F0
:1007A00001000924030204010101000905040240BB
:1007B000000500000525010101090583024000052F
:1007C000000005250101031201000200000008EDF0
:1007D000FEB5F40100010200011C03620061006E1D
:1007E0000064006F006D0069006E00650064006FBA
:1007F000006E00690000000E0333006100720061AA
:1008000000680074000000040309040011241FBEE6
:10081000CFEFDAE0DEBFCDBF26E0A2EFB2E001C04D
:100820001D92AF3DB207E1F712E0A0E0B1E0E2E4D3
:10083000F9E602C005900D92A23FB107D9F70E94D8
:10084000A12B0C9425340C9400009091D906937040
:1008500061F081110BC094609093D906109247010A
:100860008091D80681608093D8060895863210F072
:100870009469F2CF880F880F982BEECF9091D9060C
:10088000937071F08093DA066093DB06433308F0CF
:1008900042E34093DC068091D80681608093D806BD
:1008A00008950F931F939B01305E8901000F012F64
:1008B000001F110B11952F77482F406EE091E8052E
:1008C000F091E90563E070E088EE95E009951F91ED
:1008D0000F9108950F93262F042F0F77482F406B09
:1008E000E091E805F091E90563E070E088EE95E0BD
:1008F00009950F910895A3E0B0E0E1E8F4E00C94CD
:10090000A3327C01162FD42EC22E80910D06843086
:1009100071F5E0910206F09103063097C1F1C7012D
:10092000019763E070E00E94D032CB01880F991FDD
:10093000860F971F19834A83CB824E2D481B9E0139
:100940002F5F3F4FBC0188EE95E00995E0910606C8
:10095000F0910706309739F00C2D2D2D412FB7015E
:1009600088EE95E009952396E8E00C94BF3282E08A
:10097000E816F10409F45AC083E0E816F104A9F07E
:1009800081E0E816F10409F484C0F12CE12CE09137
:100990000406F09105063097C9F20C2D2D2D412F3C
:1009A000B70188EE95E00995D1CF862F807F803AF8
:1009B00011F188F48038D1F0E091EC05F091ED056B
:1009C000803929F7309719F3123F49F12C2D4D2D1D
:1009D000612F6F7027C0803E99F0803FB1F0E091A9
:1009E000EA05F091EB05803B91F6ECCFE091EE0546
:1009F000F091EF05E7CFE091F005F091F105E2CF3E
:100A0000E091F205F091F305DDCF623F09F0BFCF31
:100A1000E091F405F091F505309709F4B8CF2C2D4D
:100A20004D2D62EF88EE95E0099590CF862F807F5F
:100A3000803DB9F0803FD1F0E091F605F091F705E7
:100A4000803C09F0A4CF309709F4A1CF812F8D7F8E
:100A50004D2D612F6F70813FC9F088EE95E00995AB
:100A600075CFE091F805F091F905EDCFE091FA0529
:100A7000F091FB05633F39F0613F09F088CFE091C9
:100A8000FC05F091FD05309709F481CF4D2D612FC4
:100A9000E4CFE091FE05F091FF05683F38F4663F32
:100AA00009F075CFE0910006F0910106309709F446
:100AB0006ECF612F88EE95E0099548CFE8EDF0E024
:100AC00080818E7F80831092E2001092DA00109273
:100AD000E100A0EEB0E08C9181608C9380818F77F3
:100AE000808319BCA7EDB0E08C918E7F8C938081C0
:100AF0008F7E808310929A0508952091E4003091B2
:100B0000E50095E6A9012091EC00822F817020FF7D
:100B100006C08091E80080FF06C080E00895209123
:100B2000E80022FD1AC08091A705882389F085304E
:100B300089F08091EB0085FD0FC02091E400309199
:100B4000E50042175307F9F29150E1F684E0089569
:100B500082E0089583E0089581E00895EF92FF9286
:100B60000F931F93CF937C018B010E947D05C82FAB
:100B7000811117C08091E80085FD0BC08091E800CD
:100B80008E778093E8000E947D05882399F3C82F13
:100B900008C0F70181917F018093F1000150110994
:100BA00049F78C2FCF911F910F91FF90EF900895EF
:100BB0008091A90587FF13C08091E80082FF06C0DD
:100BC0008091E8008B778093E80004C08091A705AE
:100BD0008111F2CF08958091A7058823D9F38091E0
:100BE000E80080FFF8CF8091E8008E77ECCF982F57
:100BF0009093E900242F762F50E0891731F07091FF
:100C0000EC002091ED005091F00021FD07C09F5FA6
:100C1000973071F78093E90081E008953091EB00FF
:100C20003E7F3093EB003091ED003D7F3093ED003F
:100C30003091EB0031603093EB007093EC00209327
:100C4000ED005093F0002091EE0027FDE0CF80E012
:100C50000895B0E0A0E0EFE2F6E00C94A332C8ED16
:100C6000D0E088818F7E8883E7EDF0E0808181602D
:100C7000808384E082BF81E080939A0588818E7FA3
:100C8000888302EE10E0F80110821092DA0081EE03
:100C9000C82ED12CF601108288818F7788838881B5
:100CA0008068888388818F7D888319BC1092A7050E
:100CB0001092A8051092A6051092A50590EEE92EB7
:100CC000F12CF70180818B7F80838881816088830C
:100CD00042E060E080E00E94F705F60180818E7FAF
:100CE0008083F80180818160808380818860808337
:100CF000F70180818E7F8083888180618883CDB772
:100D0000DEB7E8E00C94BF32FC018091AF05909112
:100D1000B00586179707A0F06115710529F4909129
:100D2000E8009E779093E80090E06115710551F41A
:100D3000911108C08091E80082FF34C080E00895DE
:100D4000BC01F2CF8091A7058823C1F18530C1F1A4
:100D50008091E80083FD30C08091E80082FDEACFF9
:100D60008091E80080FFE1CF8091F3002091F200B4
:100D7000382F6115710519F02830310558F091E0D0
:100D80002830310509F090E02091E8002E7720937B
:100D9000E800CBCF81918093F100615071092F5F02
:100DA0003F4FE7CF8091A705882341F0853041F080
:100DB0008091E80083FFBECF81E0089582E008952E
:100DC00083E00895089580919C0508959C014FB794
:100DD000F8948091960590919705A0919805B0910F
:100DE00099054FBF821B930B08952FB7F89460911C
:100DF00096057091970580919805909199052FBF60
:100E000008952FB7F8948091960590919705A09139
:100E10009805B09199052FBF08959C01FC01329669
:100E20009FEF80E04191461751F09F3F19F4411127
:100E300001C0982F8F5F8630A9F79F3F09F408956E
:100E4000290F311D97FD3A95F90162830895A3E0BA
:100E5000B0E0EDE2F7E00C94A932209193053091D7
:100E6000940528173907A1F0909394058093930572
:100E7000E0919105F0919205309751F024E029839B
:100E80009B838A830680F781E02DCE010196099528
:100E90002396E2E00C94C532A3E0B0E0E2E5F7E08F
:100EA0000C94A93220918F053091900528173907AD
:100EB000A1F09093900580938F05E0919105F091BA
:100EC0009205309751F023E029839B838A83068023
:100ED000F781E02DCE01019609952396E2E00C946E
:100EE000C532FC01680F791F8FEF91E321918227B2
:100EF00028E030E087FF09C0880F89272150310999
:100F0000C9F7E617F70791F70895880FF7CFFA01A9
:100F1000811101C0FB0109950895EBEAF4E081839A
:100F200060834283339695E0EF38F907C1F708955F
:100F3000FC01EE0FFF1FE80FF91FE555FB4F618322
:100F4000408322830895E9EDF6E0248130E1231BFC
:100F500008F420E024838091D80681608093D8062D
:100F60000895E9EDF6E0248130E1230F08F42FEF36
:100F700024838091D80681608093D8060895E9ED96
:100F8000F6E0438120E1421B08F440E08181628168
:100F900090E00E943E040895E9EDF6E0438120E1EF
:100FA000420F08F44FEF8181628190E00E943E047D
:100FB0000895E9EDF6E0628120E1621B08F460E04B
:100FC0008181438190E00E943E040895E9EDF6E0BE
:100FD000628120E1620F08F46FEF8181438190E02C
:100FE0000E943E040895E9EDF6E08181438162812B
:100FF0008850990B0E943E040895E9EDF6E0818146
:1010000090E04381628108960E943E040895809199
:10101000D90686958695815009F485E20E942504BB
:1010200008958091D906869586958F5F863208F05F
:1010300081E00E9425040895EF92FF920F9397019B
:10104000201B31092F3F310519F010F02FEF30E050
:101050002095382F320F08F43FEF832F0F91FF9028
:10106000EF900895EF92FF920F939701201B3109A3
:101070002F3F310519F010F02FEF30E0322F30956F
:10108000482F430F08F44FEF842F620F0F91FF900A
:10109000EF900895EF92FF920F93972F093438F451
:1010A000B701601B71096F3F710519F010F06FEF08
:1010B00070E0485F5F4F4131510540F0A901485F42
:1010C0005F4F4131510510F06FEF70E06095482F90
:1010D000460F08F44FEF842F37FF02C02D5F3F4FBC
:1010E00035952795359527956091DA06620F792F0A
:1010F0000F91FF90EF900895EF92FF920F931F933F
:101100000E0D1F2D111DF90137FF03C0F195E1955B
:10111000F10924E0EE0FFF1F2A95E1F7EF3FF105FB
:1011200019F014F0EFEFF0E09A0157FF03C031958A
:101130002195310994E0220F331F9A95E1F72E177C
:101140003F070CF4F901E00FF11FEF3FF10519F033
:1011500010F0EFEFF0E0E095282F3E2F230F08F47A
:101160002FEF822F1F910F91FF90EF900895EF9234
:10117000FF920F93970195E0099F200D311D1124D7
:101180002F3F310519F010F02FEF30E02095382F68
:10119000320F08F43FEF832F0F91FF90EF900895E7
:1011A00022E8241B08F420E0620F08954095282FC0
:1011B000429F412D1124842F0895E42FF0E0EE0F7B
:1011C000FF1FE25FFD4F9081921B97FD9195292FA4
:1011D00038E1239F212D1124620F08950F931F934F
:1011E00010E0F801EE0FFF1FE25FFD4F9081905776
:1011F00097FD9195000F111FF801E15FFD4F0081F0
:101200000052110B2003F001219FF00D112408E37F
:1012100010E0091B110997FD139540039001419FB0
:10122000300D1124E20FF31F9F01220F331F2E0FE9
:101230003F1F37FF02C021583F4F220F232F221F8D
:10124000330B620F1F910F9108950F931F93522F2D
:1012500010E0F801EE0FFF1FE15FFD4FA081A052EB
:10126000BB0B9D015203F001539FF00D1124000FA1
:10127000111FD801A25FBD4F0C910057110B400305
:101280009001419F300D11242E0F3F1F37FF02C0E8
:10129000215C3F4F96E0359527959A95E1F7620FCF
:1012A0001F910F9108950F931F93522F10E0F80193
:1012B000EE0FFF1FE15FFD4FA081A052BB0B9D0110
:1012C0005203F001539FF00D1124000F111FD8019C
:1012D000A25FBD4F0C910057110B40039001419F3D
:1012E000300D11242E0F3F1F37FF02C021583F4FF2
:1012F000220F232F221F330B620F1F910F9108958E
:10130000EF920F93972F23E0029FB0011124759560
:1013100067956E0D792F0F91EF900895322F50E061
:10132000FA01EE0FFF1FE15FFD4F9081905297FD94
:101330009195440F551FFA01E25FFD4F2081231B59
:10134000330B290F311D97FD3A95620F0895E42F55
:10135000F0E0EE0FFF1FE15FFD4F6081621B08951B
:10136000E42FF0E0EE0FFF1FE25FFD4F6081621B94
:101370000895622F0895E42FF0E0EE0FFF1FE25F63
:10138000FD4F408134EE439F412D1124E82FF0E0C2
:1013900050E0445E5F4FDA01A21BB1099D01B7FF27
:1013A00003C031952195310993E0220F331F9A959F
:1013B000E1F7AF01421B530B9A0157FD20E0582F74
:1013C000259F212D1124822F0895E42FF0E0EE0FA8
:1013D000FF1FE25FFD4F408134EE439F412D1124FA
:1013E000E72FF0E050E0445E5F4FDA01A21BB10945
:1013F0009D01B7FF03C031952195310993E0220F7C
:10140000331F9A95E1F7AF01421B530B9A0157FD29
:1014100020E0279F212D1124722F08950E948D070F
:1014200008950E9498070895FC019B01009729F4F4
:1014300080E077FF2BC080E80895AC0197FF04C0DF
:1014400044275527481B590BB901640F751F37FDF9
:1014500010C0241B350BC901A5E0880F991FAA9560
:10146000E1F70E94E43280E2861BF7FF0FC081950E
:101470000895CB0165E0880F991F6A95E1F7BA01DD
:10148000621B730B0E94E43280E6EECF0895EF9268
:101490000F93CF93DF93D72FC82FC9010E19BA012D
:1014A0000E94140A602F681B7D2F8C2FDF91CF9133
:1014B0000F91EF9008950F93CF93DF93D72FC82FFD
:1014C000C901BA010E94140A682F600F7D2F8C2F6A
:1014D000DF91CF910F910895EF920F931F93CF93C8
:1014E000DF93D62FC72F182FC9010E19010FBA018C
:1014F0000E94140A081B202F219F212D1124822FC6
:101500006D2F7C2FDF91CF911F910F91EF90089558
:10151000EF920F931F93CF93DF93D62F172FC82FE0
:10152000C9010E19070FBA010E94140A702F781B07
:10153000719F712D11246D2F8C2FDF91CF911F91F1
:101540000F91EF9008950F931F93CF93DF93D62FB2
:10155000C72F182FC901212F201B022FBA010E946B
:10156000140A982F990F990F891B800F282F219FFC
:10157000212D1124822F6D2F7C2FDF91CF911F9170
:101580000F9108950F931F93CF93DF93D62F172FAB
:10159000C82FC901272F201B022FBA010E94140A4D
:1015A000982F990F990F782F791B700F719F712DBC
:1015B00011246D2F8C2FDF91CF911F910F910895E2
:1015C000E82F86FDE0952E2F2F7086FD2F5FE69584
:1015D000E695E695E670F0E0EE54FE4F9181929F1D
:1015E000902D212D112492959F702295207F922B72
:1015F0002081920F87FD919580E8890F08950F93C0
:101600001F93CF93DF938B01D82FC42F822F0E947B
:10161000E00AEC2FF0E0EE0FFF1FE25FFD4F90813C
:101620009058890F87FD8195880F682F2CE0629F65
:10163000612D1124600F712F8D2FDF91CF911F919C
:101640000F910895AC018230910508F408959FEF41
:10165000413E8EE1580740F49A0195E03695279572
:101660009A95E1F798E0920F61E0E62FE90FFF27E6
:10167000FF1F9F0135952795822F229FF001239F01
:10168000F00DF00D11244E175F0738F49FEF920F05
:10169000961758F78FEF860F08952F3FE9F361E013
:1016A000620FF6CF0F93CF93DF93D72FC82F47FD4D
:1016B000419588E390E0841B910947FD9395889FAD
:1016C000B001899F700D700D1124229FC001239FCE
:1016D000900D900D1124860F971F0E94220B982FBA
:1016E000990F890F682F600F7D2F8C2FDF91CF917D
:1016F0000F91089530E020E0869F212D969F200DC8
:10170000311D1124C9010895AF92BF92CF92DF928B
:10171000FF920F931F93CF93DF93362F472FE82F1E
:10172000F0E0EA54FA4F71110FC0E4918E2F2E2F82
:101730006E2F722FDF91CF911F910F91FF90DF904D
:10174000CF90BF90AF900895C72FD0E02491F22E94
:10175000022F10E056E0659FC0011124EFEFF0E08A
:10176000BF010E94D032832F90E0880F991F35E58A
:10177000369FD001379FB00D11248A1B9B0B982FE9
:10178000990F980F6F01CC1ADD0AC09ED001C19E3F
:10179000B00DD09EB00D11248B2F499FA0011124B4
:1017A000452F55276F01C41AD50AC09EA001C19EBE
:1017B000500DD09E500D11245F01A91AB108AC9EA6
:1017C0006001AD9ED00CBC9ED00C1124CD2CDD242C
:1017D000EC19FD09E09FE001E19FD00DF09FD00DD5
:1017E0001124ED2F62307105A1F050F461157105DF
:1017F00009F49ECF6130710581F0EB2F852F98CFD2
:101800006430710569F080F06630710509F490CF9D
:10181000F4CFE22F2B2F8D2F8BCFE22F252F88CFC8
:10182000EB2F822F2D2F84CF2B2F8F2DE52F80CFC5
:101830002F923F925F926F927F928F929F92AF9280
:10184000BF92CF92DF92EF92FF920F931F93CF93AD
:10185000DF93CDB7DEB72A970FB6F894DEBF0FBE81
:10186000CDBF8B837E836D83209144012295207FA1
:101870002F83205F29832A832D3410F03CE43A83A0
:101880008091B5058C83FF81EF2FF0E0FA87E9871F
:10189000CF01880F991F9C01225F3D4F69013B8159
:1018A000832F90E0FC013196F887EF838A81998538
:1018B0009817E8F081E0E981EC3408F080E02A969E
:1018C0000FB6F894DEBF0FBECDBFDF91CF911F9151
:1018D0000F91FF90EF90DF90CF90BF90AF909F90CF
:1018E0008F907F906F905F903F902F900895E98543
:1018F000FA85EA55FD4F8081909145018923F1F0E9
:101900002090DA063090DB062F8138852B543A4F31
:1019100039015B8010E0FC815F16D0F02091DC067D
:10192000129F112D1124B101812F0E94840B462F8B
:10193000282F672F89859A850E94110A29853A8563
:101940002F5F3F4F3A87298732E0C30ED11CAECFBD
:10195000F30181913F01F601A080A81ABB088180A4
:10196000F3018185881A9908AA9C9001AB9C300DDF
:10197000300D1124889CC001899C900D900D11247C
:10198000820F931F0E94220B082F6091DD0621E039
:10199000620F08F46FEFF301EE0FFF1FE55BF540F8
:1019A000838D948D0E947A0B7C019401A501B10175
:1019B000812FED81FE8109951B015394182FABCF28
:1019C000B0E0A0E0E6EEFCE00C94A3328C01C09104
:1019D0004401C295C07F20E1D22EDC0ECD2C2CE438
:1019E0002D1510F49CE4C92E2091DD0631E0230F63
:1019F00008F42FEF30E050E040E06FEF7FEF80E041
:101A000090E00E94C2337901D0E02C2FCC1550F029
:101A100081E0FBE4FD1508F480E0CDB7DEB7E8E037
:101A20000C94BF32FE01EA55FD4F80819091450133
:101A3000892311F14091B5054150042E000C550B3E
:101A400047FF1CC0C7016091DD0621E0620F08F46A
:101A50006FEF0E947A0BAC016091DA067091DB06A1
:101A60008091DC06F80109950E94840B462F282FEF
:101A7000672FCE010E94110A2196C7CFFA01EB54BD
:101A8000FA4F858982130AC0FA01EE0FFF1FEB544B
:101A9000FA4F878D90A18E159F05A8F241505109EC
:101AA000CFCFB0E0A0E0E7E5FDE00C94A4327C01EC
:101AB000C0914401C295C07F10E11C0F012F1D345D
:101AC00008F00CE46091DD066695669521E0620FF2
:101AD00008F46FEF8091B1059091B2050E947A0BE6
:101AE000D82ED0E0C01748F081E01C3408F080E028
:101AF000CDB7DEB7E7E00C94C032FE01EA55FD4FEA
:101B0000808190914501892391F06091DA0670916E
:101B1000DB068091DC062D2D4C2FF70109950E94E4
:101B2000840B462F282F672FCE010E94110A219681
:101B3000D9CFB0E0A0E0EFE9FDE00C94A0326C0159
:101B4000C0914401C295C07F10E11C0FB12E1D341D
:101B500010F03CE4B32E6091DD06669566958091A9
:101B6000B1059091B2050E947A0BF82E80E48F0D9A
:101B70000E94E00A90E8A92EA80E8F2D0E94E00A8C
:101B800020E8922E980ED0E0CB1548F081E01C346E
:101B900008F080E0CDB7DEB7EBE00C94BC32FE017C
:101BA000EA55FD4F8081909145018923A1F0609114
:101BB000DA067091DB068091DC06EF2C0C2F292DC4
:101BC0004A2DF60109950E94840B462F282F672F76
:101BD000CE010E94110A2196D7CFB0E0A0E0E3EF3A
:101BE000FDE00C949E325C01C0914401C295C07F1F
:101BF00010E11C0FF12E1D3410F03CE4F32E609127
:101C0000DD0666958091B1059091B2050E947A0B30
:101C1000782ED0E0CF1548F081E01C3408F080E049
:101C2000CDB7DEB7EDE00C94BA32FE01EA55FD4FB8
:101C30008081909145018923C9F1CE01880F991FB8
:101C400086549E4FFC01EC5AFF4F2081422F405793
:101C5000550B6A018B5A9F4FFC018081282F20521F
:101C6000330B4901449F9001459F300D300D1124E5
:101C7000889CC001899C900D900D1124820F931FA8
:101C80000E94220B082F6091DA067091DB0680918A
:101C9000DC06E72C9401A601F50109950E94840B4E
:101CA000462F282F672FCE010E94110A2196B2CF0E
:101CB000B0E0A0E0EEE5FEE00C94A3327C01C09120
:101CC0004401C295C07F10E11C0FD12E1D3410F0CD
:101CD0003CE4D32E6091DD0666958091B10590912C
:101CE000B2050E947A0BC82ED0E0CD1548F081E0F5
:101CF0001C3408F080E0CDB7DEB7E8E00C94BF32CA
:101D0000FE01EA55FD4F808190914501892311F133
:101D1000CE01880F991F86549E4FFC01EB5AFF4F4E
:101D200020812052330B8C5A9F4FFC014081405739
:101D3000550B6091DA067091DB068091DC060C2D64
:101D4000F70109950E94840B462F282F672FCE019B
:101D50000E94110A2196C9CF84E080936D048FE719
:101D600080936E0480916F048078806480936F0408
:101D7000E5E2F4E08FEF819394E0ED36F907D9F7CF
:101D80001092240410922304109222041092210431
:101D9000089508950895982F907F903BE9F040F4BE
:101DA0009039D1F0903AC1F09038B1F080E00895C8
:101DB000903D19F020F4903CC9F782E00895903EE0
:101DC00059F0903F99F7815F8F3080F7E82FF0E06E
:101DD000ED55FE4F8081089583E00895A7E0B0E0BF
:101DE000E4EFFEE00C94A3328C0108511F4F809168
:101DF000A705843009F087C080913B018F708093E4
:101E0000E9008091E80082FF7EC08091E80085FFB4
:101E10007AC00E947D05811113C084E0E82EF12C68
:101E2000CE0101966C018091E80085FD61C0809132
:101E3000E8008B778093E8000E947D05882399F362
:101E40008091E80085FD05C08091E8008B77809344
:101E5000E800FA808F2D0E94CB0E282FFD828B8107
:101E60008E838C818F8321110BC08981843041F155
:101E7000873031F1863031F121E0853009F0B7CF7C
:101E800030E0E5E0F0E0EC0FFD1FE30FF11DF08026
:101E90004FB7F894D8011196EC911197F0E0CF016B
:101EA000019612966C9170E00E94E432D8015C9128
:101EB0005817190649F44FBF3F5F321710F397CFF9
:101EC00023E0DECF22E0DCCF13968D919C91149716
:101ED000E80FF91FF08211968C91119790E001960E
:101EE00012966C9170E00E94E432F8018183E3CF96
:101EF0008091F100D6018D936D01B1E0EB1AF108EC
:101F000009F091CF9DCF2796E8E00C94BF32A4E072
:101F1000B0E0EDE8FFE00C94A4327B01142FD22E48
:101F20004A832B830C83842F0E94CB0E81113AC0ED
:101F300082E0E816F10489F183E0E816F10441F04B
:101F400081E0E816F10429F5173F29F485E004C083
:101F500087E0073F09F084E089838091A7058430FA
:101F6000C1F4809136018F708093E90050E040E029
:101F700064E070E0CE0101960E94AE05811109C0B7
:101F80008091E80085FD05C08091E8008E77809300
:101F9000E8002496E7E00C94C03287EFD812DBCF3C
:101FA00086E0DACF12951F701983D7CF80E00895AD
:101FB000F894E82FE295EF70F0E031A1282F2F7010
:101FC00081E090E001C0880F2A95EAF7982F90955C
:101FD000932391A392A1892B82A378940895909141
:101FE000FE0392FF06C0282F28712830F9F4877F5E
:101FF000846093FF06C0282F28712831F1F4877E72
:1020000084612091FF0320FF06C0382F38713830DB
:10201000D9F4877F816021FF06C0282F28712831DD
:10202000D1F4877E816194FD877E0895282F2471E5
:102030002430F9F68B7F8860DCCF282F247124317F
:1020400001F78B7E8861DDCF382F3171313019F780
:102050008E7F8860E0CF282F2171213121F78E7E7D
:102060008861E1CF82389105B9F1B0F481339105EF
:1020700009F47DC048F48932910509F46DC08A32B3
:10208000910509F47BC008958533910509F45FC07B
:102090008933910509F10895833E9105D9F138F40A
:1020A000803E910529F1823E910579F10895863EA1
:1020B0009105D9F1873E910509F43EC0843E910512
:1020C00041F52091FF0321FF24C08091FE0384FD90
:1020D00019C087EE90E008952091FE03237009F067
:1020E0005AC02091FF0323FF14C089E290E00895B5
:1020F0002091FE0320FD38C03091FF0330FF09C05E
:1021000024FF43C090E080E008952091FE0322FD6B
:10211000F7CF08952091FE0322FD3AC03091FF03CE
:1021200030FD39C024FFF5CFEDCF2091FE0323FF12
:10213000F0CF24FDE7CFCDCF2091FE0323FD2EC0AD
:102140003091FF0331FFEECF84EE90E008952091AF
:10215000FE0325FFDECFC9CF2091FE0325FD21C060
:102160002091FF0323FFD5CF89E390E0D2CF2091C8
:10217000FE0326FFCECF8AE290E008952091FE0371
:1021800026FFC7CF81E390E0089583EE90E00895A5
:1021900082EE90E0089580EE90E0089586EE90E063
:1021A000089585E390E00895972F7C30B8F4673068
:1021B00078F5863080F570E027E0929F600D711D04
:1021C0001124FB0194E5899FE00DF11D1124EE0F10
:1021D000FF1FE255FE4F8591949108957D3F59F47C
:1021E000611116C08630B8F424E0829FF0011124FA
:1021F000E256FA4FF0CF7C3F59F4611109C08630A6
:1022000050F494E0899FF0011124E056FA4FE3CF97
:1022100080E090E0089581E0FCCF1F93CF93DF939F
:102220000E943210EC01C11580E5D807F0F5C11508
:1022300080E4D80708F0AAC0C03ED10520F5CD3C07
:10224000D10508F090C0C83AD10578F4C53AD10557
:1022500008F081C0C130D10519F1209709F1C430CF
:10226000D105F0F4D0E0C0E01BC0C33CD105D0F7ED
:10227000C85AD0E0CC0FDD1FC25BDE4F0990D88179
:10228000C02DD4640DC0C11580E2D80708F0C9C0C4
:10229000C11581E0D80708F068C0C83ED10510F725
:1022A000CE01DF91CF911F910895C03682E5D80706
:1022B00018F5C03482E5D80708F079C0C03282E54D
:1022C000D80708F06DC0C11582E5D80708F48FC0A3
:1022D0002C2F2695269580E2289F900111248C2F83
:1022E0008370C1E0D0E002C0CC0FDD1F8A95E2F719
:1022F000C22BD32BDD68D4CFC03C82E5D807F8F4DD
:10230000C03A82E5D80708F067C0C03882E5D80730
:1023100008F0A8CF2C2F26952695277080E2289FBD
:10232000900111248C2F8370C1E0D0E002C0CC0F4B
:10233000DD1F8A95E2F7C22BD32BDA68B1CFC03EFE
:1023400082E5D80708F08ECFDC2FCC27CC27DF71B1
:10235000C06FD06AA5CFC55AD0E0C55BDE4FC8813B
:10236000D0E0D0649DCFD0659BCF8D2F0E94EF0F22
:10237000182FCE0199270E943210C12FD0E0DC2FF8
:10238000CC27CC27DF71C82BD92B8ACFCE01992738
:102390000E943210CC27DF70C82BD92BD06A80CF97
:1023A000CF71D0E0DC2FCC27C16FD06A79CF2C2F32
:1023B00026952695277080E2289F900111248C2F66
:1023C0008370C1E0D0E002C0CC0FDD1F8A95E2F738
:1023D000C22BD32BDC6864CF8C2F8F710E94EF0F40
:1023E000C82FD0E0DC2FCC27CC27DF7159CF8C2F22
:1023F0008F710E94EF0F55E0D695C7955A95E1F77A
:10240000CF70D0E0DC2FCC27282F30E084FF05C030
:1024100044E0220F331F4A95E1F7C22BD32BD0693A
:102420003FCF8D2F8F710E94EF0F182FCE0199276C
:102430000E943210C12FD0E0DC2FCC27CC27DF71D7
:10244000C82BD92BD0622CCF0E94F506089520917D
:10245000AF0390917E0356E0291302C080E00895F7
:1024600030E0529FF001539FF00D1124E158FC4FD2
:102470007181761306C07081781303C07281741362
:1024800004C02F5F3F4F2770E7CF81E00895809110
:10249000AF0390917E03981301C008958F5F8770FA
:1024A000FACFB0E0A0E0E7E5F2E10C94A2327C01C3
:1024B0000091A8041091A9048091BA039091BB03E4
:1024C000082B192BCFE0D0E0CC24C394D12CBC2E08
:1024D000C6010C2E02C0880F991F0A94E2F78023D0
:1024E0009123892B49F4219790F7B12C8B2DCDB7EF
:1024F000DEB7E9E00C94BE32B7018C2F0E94D410F5
:102500000E940D11019779F3F1CFCF93DF93EC0186
:102510000E945112BE010E94D4100E940D11DF9141
:10252000CF910895A82FA77023E0969587952A95B7
:10253000E1F7880F991F880F991FFB01E80FF91F1A
:1025400050E040E080E0219130E00A2E02C0369554
:1025500027950A94E2F721703327042E01C0220F39
:102560000A94EAF7822B4F5F5F4F4430510559F7C9
:102570000895292F9C3068F4873090F490E06CE443
:1025800073E037E0239F800D911D11240E94921269
:1025900008952C5F223020F468E473E090E0F6CFD9
:1025A00080E00895262F277091E001C0990F2A95A9
:1025B000EAF723E0769567952A95E1F7660F771F8E
:1025C000660F771FFA01E60FF71F50E040E0682F13
:1025D00070E08191DF0111979B01042E02C03695B6
:1025E00027950A94E2F72170219528272923282787
:1025F0002C934F5F5F4F4430510559F70895282FB2
:10260000862F9C3070F4273058F4622F70E027E05A
:10261000929F600D711D11244CE453E00E94D21270
:1026200008959C5F9230E0F7622F70E048E453E039
:10263000F5CF9093A9048093A804089521E030E099
:1026400002C0220F331F8A95E2F7209530958091C2
:10265000A8049091A904822393230E94191308953A
:1026600021E030E002C0220F331F8A95E2F780910B
:10267000A8049091A904822B932B0E94191308950A
:102680009093BB038093BA030895FC0183819481E6
:10269000892B29F08081918189238F3F51F480E03B
:1026A0000895843FE1F717C0883EA8F0813FB9F74D
:1026B00012C0808191810E94851292959F70963000
:1026C00099F358F4925F9F70923048F7803F19F069
:1026D00040F7883E20F781E008959A5FF4CFECEF51
:1026E000F2E08FEF819393E0E534F907D9F7809119
:1026F0006D04807F826080936D0480916E04807889
:10270000856780936E0408959B01BA019091A70597
:102710009430E1F48093E9009FEF8091E8009150BC
:1027200085FD06C085ED8A95F1F700009111F5CF82
:102730008091E80085FF0AC050E040E0C9010E9496
:10274000AE058091E8008E778093E800089543E01D
:1027500050E0BC0182E00E9484130895CF93DF9380
:10276000EC0148E050E0BC0181E00E94841388E065
:10277000FE01ADE9B5E001900D928A95E1F7DF9198
:10278000CF910895539A3BB1377F2BB128604FB753
:10279000F8948BEA94E0FC015191CF0168E02BB9E9
:1027A000000000C057FF3BB9550F000000C000C03B
:1027B00000C03BB900C06A9591F7F5E08F389F07DC
:1027C00051F74FBF8FE594E00197F1F700C000008B
:1027D0000895B0E0A0E0EFEEF3E10C94A1327C01AB
:1027E0005B016A018091E80301E010E08A3010F497
:1027F0000AE010E0C1E0D0E0B501C701F60109959B
:10280000811104C021960C171D072CF4CDB7DEB73B
:10281000EAE00C94BD32CC9F9001CD9F300D300D7D
:10282000112490E080E045E34A95F1F7000001961D
:1028300082179307C1F7E0CF8091C803811119C0B7
:1028400088EC90E02091E30027FD10C0EFE3FCE965
:102850003197F1F700C000000197A1F782E0809363
:10286000C8030E945E051092A70503C081E0809313
:10287000C80381E09091C803913011F080E0089581
:1028800008950E941C14882359F0E0919105F0915D
:102890009205309729F00190F081E02D0995089577
:1028A00080E008950F931F930E941C14882329F041
:1028B0000E94F5061F910F9108950E94F506009160
:1028C000E9031091EA032091EB033091EC03600FD0
:1028D000711F821F931FEECFCF92DF92EF92FF9274
:1028E0006B017C010E941C148823A1F02FB7F8947F
:1028F0006091960570919705809198059091990542
:102900002FBF6C197D098E099F09FF90EF90DF9012
:10291000CF9008950E945214F4CFE9EDF6E081E3E0
:1029200080838091480190914901A0914A0181835F
:102930009283A3838FE784838FEF858346E050E003
:102940006CE170E0CF010E948E331092D80608959A
:10295000B0E0A0E0EEEAF4E10C94A332182F8091ED
:102960004201811323C09091D906937020914101B7
:1029700030E081E09217130609F480E081708093C3
:1029800046018091DE0690914501981739F08093B9
:10299000450140E060E080E00E940E0A163290F4AB
:1029A000E12FF0E0E95DFB4C0C94F83281E0E6CFDA
:1029B00080914601882309F4F9C040E060E080E09E
:1029C0000E940E0A80E0F2C0C0914401C295C07F0F
:1029D00000E10C0FF02E0D3410F0FCE4FF2E60919E
:1029E000DA067091DB068091DC060E94840BE62EED
:1029F000D72EC82ED0E0CF1528F081E00C3408F493
:102A0000D5C0E0CFFE01EA55FD4F80819091450190
:102A1000892331F02C2D4E2D6D2DCE010E94110AEF
:102A20002196E9CFC0914401C295C07F00E10C0F0F
:102A3000E02E0D3410F0ECE4EE2ED090DB06C090CA
:102A4000DC062091DD0670E4F72E3F2D329F312DFC
:102A50001124F32ED0E0CE1580F6FE01EA55FD4F8D
:102A60008081909145018923B9F0FE01EE0FFF1F8F
:102A7000E15FFD4F808182958F706091DA068F9DB6
:102A8000600D11247D2D8C2D0E94840B462F282F44
:102A9000672FCE010E94110A2196DDCFC09144011B
:102AA000C295C07F00E10C0FE02E0D3410F05CE405
:102AB000E52ED090DB06C090DC062091DD0640E4D8
:102AC000F42E3F2D329F312D1124F32ED0E0CE1560
:102AD00008F093CFFE01EA55FD4F808190914501AA
:102AE0008923D9F0FE01EE0FFF1FE25FFD4F6081E9
:102AF000F69EB001112435E0759567953A95E1F79A
:102B00008091DA06680F7D2D8C2D0E94840B462F54
:102B1000282F672FCE010E94110A2196D8CFC0918D
:102B20004401C295C07F00E10C0FF02E0D3410F06F
:102B30009CE4F92EE090DA06D091DB06D090DC061A
:102B40006091DD066695669566958091B1059091D8
:102B5000B2050E947A0B0E94E00A805887FD819599
:102B6000880F282F3D2D239F212D1124822F6E2D7C
:102B70007D2F0E94840BE62ED72EC82ED0E0CF15D5
:102B800008F03BCFFE01EA55FD4F80819091450151
:102B9000892331F02C2D4E2D6D2DCE010E94110A6E
:102BA0002196EDCF85EE99E00E94510D9091440160
:102BB0009F5F9093440181110CC082E08093470194
:102BC00080914601811105C0111103C083E08093FB
:102BD0004701CDB7DEB7E8E00C94BF328BEB99E04C
:102BE000E3CF82EC9AE00E94580EE0CF83EA9AE0AD
:102BF000FACF88E89AE00E94ED0DD8CF8CE69AE0F3
:102C0000FACF89EB99E0D0CF80EB99E0CDCF87EA7E
:102C100099E0CACF8EE899E0C7CF80E899E0EBCF82
:102C200082E59BE0E0CF8BE59AE0DDCF87E49AE098
:102C3000E2CF83E599E00E94990DB8CF85E299E053
:102C4000FACF8EEE98E0F7CFC0914401C295C07FD5
:102C500000E10C0FF02E0D3410F08CE4F82ED09023
:102C6000DB06E090DC06D091DA066091DD06669521
:102C7000669566958091B1059091B2050E947A0B98
:102C80000E94E00A805887FD8195880F682F2CE00C
:102C9000629F612D11246D0F7D2D8E2D0E94840B5E
:102CA000E62ED72EC82ED0E0CF1508F0A6CEFE0116
:102CB000EA55FD4F808190914501892331F02C2DFB
:102CC0004E2D6D2DCE010E94110A2196EDCF8FEF72
:102CD0009AE06ACF8DED98E067CF86ED98E00E948C
:102CE000E00C64CF80ED98E0FACF8091B50521E04B
:102CF000382F321B08F430E0832F67EB78E00E9416
:102D0000180C54CF67EB78E080E0F9CF8091B505DF
:102D100021E0382F321B08F430E0832F6CE778E095
:102D2000EECF6CE778E0F0CF8091B50521E0382F49
:102D3000321B08F430E0832F6AE478E0E0CF6AE4E5
:102D400078E0E2CF8091B50521E0382F321B08F4FE
:102D500030E0832F62E378E0D2CF62E378E0D4CF33
:102D60008091B50521E0382F321B08F430E0832F25
:102D70006CE178E0C4CF6CE178E0C6CFC09144014B
:102D8000CF5FC295C07F0E944A33D82F0E944A333A
:102D90006D2F782F8091DC060E94840B482F872F9F
:102DA0000E940E0A81E0CC3408F400CF0BCE4F9283
:102DB0005F926F927F928F929F92AF92BF92CF92CB
:102DC000DF92EF92FF92CF936091A4047091A504DB
:102DD0008091A6049091A7040E946C146B017C0161
:102DE0000E9452144B015C018092A4049092A504AD
:102DF000A092A604B092A704A0917104E1E7F4E0C8
:102E00008A2F90E04FEF5FEF60E070E04C195D09B2
:102E10006E097F09A9132AC0809371048091AA04C6
:102E2000C0E0811108C08091D906C82FC37019F085
:102E3000C82FC695C69580914701813009F440C0DE
:102E4000882339F1823009F41AC1833009F422C190
:102E5000CF91FF90EF90DF90CF90BF90AF909F9079
:102E60008F907F906F905F904F900895278D30A145
:102E70002901712C612C441555056605770520F450
:102E800081509F5F3296C6CF2C0D3D1D30A3278FFA
:102E9000F8CF109244018092B1059092B205A092B1
:102EA000B305B092B40583E3E1E7F4E0A5EBB5E048
:102EB00001900D928A95E1F781E080934701C8CF98
:102EC0008C2F0E94A814CC2319F28091D90683700C
:102ED00009F4BECF2091A8043091A904832F99272B
:102EE000009709F4C2C09C0188E0A90174E05695DE
:102EF00047957A95E1F74115510511F08C5F9A01DC
:102F0000A90156954795569547954115510511F0DC
:102F10008E5F9A0136952795232B09F08F5F8130BC
:102F200009F4A5C0853009F093CF20E049E163E3BF
:102F30008EE290E00E94110A23E343E363E380E31F
:102F400090E00E94110A23E343E363E38CE390E003
:102F50000E94110A20E043E363E389E490E00E94C9
:102F6000110A20E043E363E388E490E00E94110A41
:102F700020E043E363E381E090E00E94110A20E057
:102F800043E360E08DE090E00E94110A20E043E31B
:102F900063E38EE090E00E94110A20E043E360E0EA
:102FA00089E190E00E94110A29E143E360E083E0B7
:102FB00090E00E94110A23E340E060E086E090E0A8
:102FC0000E94110A23E340E060E089E090E00E9463
:102FD000110A23E340E060E082E190E00E94110AE0
:102FE00023E340E060E085E190E00E94110A23E3E2
:102FF00040E060E08DE190E00E94110A23E340E0B0
:1030000060E080E290E00E94110A23E340E060E08B
:1030100084E290E00E94110A23E340E060E087E24E
:1030200090E00E94110A23E340E060E08FE190E02D
:103030000E94110A23E340E060E085E290E00E94F4
:10304000110A26E249E163E386E290E00E94110A58
:1030500020E040E063E388E290E00E94110A20E073
:1030600049E163E389E290E007C080E03ECF23E3DB
:1030700043E363E390E080E00E94110AE9CEC0934D
:1030800042018091D9068370809341010E94C2134E
:1030900083E013CF8091D806882351F046E050E0BA
:1030A0006CE170E089ED96E00E948E331092D806B4
:1030B0006091B1057091B2058091B3059091B4050E
:1030C0000E946C14603171058105910508F4C0CE31
:1030D00010924701BDCEA4E0B0E0E1E7F8E10C9426
:1030E000A8324091E4035091E5036091E6037091AA
:1030F000E7032FB7F8948091960590919705A091DA
:103100009805B09199052FBF841B950BA60BB70BA3
:1031100011E084369105A105B10570F10E945214A9
:103120006E5F7F4F8F4F9F4F69837A838B839C8322
:10313000809125019091260189529C4F4091240154
:1031400050E04530510510F044E050E0BE016F5FA3
:103150007F4F0E94673384E090E00E942332182F53
:10316000882351F00E94F5066093E4037093E50311
:103170008093E6039093E703812F2496E3E00C9479
:10318000C4324F925F927F928F929F92AF92BF9282
:10319000CF92DF92EF92FF920F931F93CF93DF9323
:1031A0000F92CDB7DEB7C62E4A015901482E880FBF
:1031B0005508C2010E942332782E882309F480C06A
:1031C000C20133E0880F991F3A95E1F7FC01EC5FEB
:1031D000FE4F438150E04115510511F041E050E0B0
:1031E0008C5F9E4FFC016481758169527C4FCE01DA
:1031F00001960E946733F40140815181628173819D
:103200002FB7F8948091960590919705A091980515
:10321000B09199052FBF841B950BA60BB70B843675
:103220009105A105B10540F4B701C8010E947107DD
:103230009981891709F444C00C2C000CDD08C601E3
:103240000E942332782E811113C0712C872D0F908C
:10325000DF91CF911F910F91FF90EF90DF90CF9072
:10326000BF90AF909F908F907F905F904F90089508
:10327000C60123E0880F991F2A95E1F7FC01EC5F56
:10328000FE4F438150E0E416F50608F4A7018C5F79
:103290009E4FFC016481758169527C4FC5010E947B
:1032A0006733B701C8010E94710799818913CDCF97
:1032B0000E94F506F4016083718382839383C6CFF5
:1032C000A701B801C5010E946733C0CFA6E0B0E0F6
:1032D000ECE6F9E10C94A3326B0186E0E82EF12CC8
:1032E00008ED13E09E012F5F3F4F4FEC53E061E08C
:1032F00080E00E94C118882349F096E0FE013196D3
:10330000A9ECB3E001900D929A95E1F796E0E9EC13
:10331000F3E0D60101900D929A95E1F72696E8E048
:103320000C94BF32A2E1B0E0E8E9F9E10C949E32DE
:103330008E010F5F1F4F8CE0D8011D928A95E9F72F
:1033400086E8C82E81E0D82EF12CE12CAA24A39483
:10335000B12C23E9822E21E0922EF60181916F019A
:103360008F3F09F442C0F894E82FE295EF70F0E047
:1033700021A18F70A50102C0440F551F8A95E2F765
:10338000CA01922F982B91A392A18095892382A3A1
:10339000789400C0ECE8F1E0712C31E021912F3FEE
:1033A00009F46BC0A22FA295AF70B0E090968C91FB
:1033B00090E02F7002C0959587952A95E2F780FDE1
:1033C0005CC0832F782A330F8E169F0639F7F601DB
:1033D000319780818F3F11F00E94D80F50EA5A95A3
:1033E000F1F7F801EE0DFF1D70828FEFE81AF80A71
:1033F00096E0E916F10409F0B0CF4CE050E0B801D6
:1034000080EF93E00E945A33009741F02CE0F801DE
:10341000A0EFB3E001900D922A95E1F70091FD0332
:10342000892B69F181E08093C0030E94010790938A
:10343000BF038093BE038091BE039091BF030E949F
:10344000E606059700F110E000501C4F46E050E002
:1034500060EF73E0C8010E945A33C12C892B51F0F0
:1034600086E0E0EFF3E0D80101900D928A95E1F754
:10347000CC24C3941092C00307C080E0A3CF8091F6
:10348000C0038111D8CFC12C0E941C14D82EE0910A
:10349000FD03DE011D967D01882309F470C086E0DE
:1034A0001D928A95E9F70E2F10E000501C4F809175
:1034B000E8038A3068F546E659E1B701C8010E9481
:1034C000E913882309F44AC048EB59E2B701C8015F
:1034D0000E94E913882309F441C04BE658E1B70183
:1034E000C8010E94E9138823C9F11092E803809172
:1034F000FC0390E046E050E0B70180509C4F0E94F2
:103500005A3321E02093C703892BB1F4D12C20C07A
:103510008091C1039091C2030E94E606843F9140CE
:1035200050F68091C703882389F386E0F701119252
:103530008A95E9F71092C703A091FC03B0E0A05070
:10354000BC4F86E0FE013D9601900D928A95E1F711
:103550008D2D8C296296EDE00C94BA328091E803AF
:103560008F3F31F08F5F8093E8038A3008F4BFCF3C
:103570000E9401079093C2038093C103D2CFF0E071
:10358000E050FC4F86E0A8EDB3E001900D928A95E3
:10359000E1F766E070E088ED93E00E9471078093A8
:1035A000D70340911C0450E060911B0470E0675EFB
:1035B0007B4FC7010E9467338D858093DF0361E0F5
:1035C00070E0C7010E9471078093DE038090E003E2
:1035D0009090E103A090E203B090E3038091C303D5
:1035E0009091C403A091C503B091C60388169906B3
:1035F000AA06BB0609F48ACF8092C3039092C40343
:10360000A092C503B092C6030E941C14D82E81114B
:103610007DCF0E94F506861A970AA80AB90A8092F9
:10362000E9039092EA03A092EB03B092EC0390CFEF
:103630008091B9039091B803892B8093F40248E0FC
:1036400050E060EB73E084EF92E00E945A33892BE4
:10365000A9F088E0E4EFF2E0A0EBB3E001900D9276
:103660008A95E1F7E0919105F0919205309731F05C
:103670000280F381E02D84EF92E009950895109285
:10368000B903E6EFF2E086E0DF011D928A95E9F7E3
:1036900090E080E00E944C0790E080E00E942707C5
:1036A0001092B8030E94181B0895AAE2B0E0EBE55F
:1036B000FBE10C94A83289EA95E02091F100FC012D
:1036C0002193CF01F5E0813B9F07B9F78091AA05CF
:1036D000833009F470C0B8F4813009F447C08230F7
:1036E00009F4B1C08091E80083FF88C28091A905E8
:1036F0009091AA059A3008F081C2E92FF0E0E35BCF
:10370000FB4C0C94F8328A3009F48CC08B3009F4ED
:103710006FC0893039F78091A905813219F78091FE
:10372000AD059091AE050297E8F68091E800877F9D
:103730008093E8008091E80082FF38C09091F30008
:103740008091F200029731F48091F100813011F004
:10375000863021F48091F10080939C058091E800EF
:103760008B778093E8000E94D805BCCF8091A90593
:10377000813A09F0B7CF8091E800877F8093E80015
:103780008091AD059091AE05892B61F468E08DE9DB
:1037900095E070E00E9484068091E8008B7780932A
:1037A000E800A0CF60E090E080E0F3CF8091A70533
:1037B0008111C0CF97CF8091A905813A09F092CFAE
:1037C0008091AD059091AE05892B09F08BCF80914A
:1037D000E800877F8093E8008091E80080FFFCCFBD
:1037E000809143018093F1008091E8008E77B9CFFA
:1037F0008091A905813209F075CF8091AD05909136
:10380000AE05892B09F06ECF8091E800877F809309
:10381000E8000E94D8058091AB05809343010E9487
:103820003F1B60CF8091A905813209F05BCF809169
:10383000E800877F8093E8000E94D8058091AC055E
:1038400080939B054FCF8091A905813A09F04ACF1B
:103850008091E800877F8093E8008091E80080FFF6
:10386000FCCF80919B05BECF803899F0823809F05B
:10387000C5C18091AD058F70873008F0BFC18093BE
:10388000E9008091EB0085FB882780F91092E90020
:1038900006C08091A5059091A60591118260909136
:1038A000E800977F9093E8008093F1001092F10078
:1038B0008091E8008E779EC1882309F48CC1823004
:1038C00009F09CC18091AB0581118FC18091AD053C
:1038D0008F702FEF280F263008F090C18093E900F9
:1038E0002091EB0020FF81C1933031F48091EB00F7
:1038F00080628093EB0079C19091EB00906190938E
:10390000EB0021E030E001C0220F8A95EAF7209316
:10391000EA001092EA008091EB008860EACF811102
:103920006DC11091AB051F778091E3008078812BEA
:103930008093E3008091E800877F8093E8000E94F5
:10394000D8058091E80080FFFCCF8091E30080687B
:103950008093E30082E0111183E08093A7054EC1BC
:103960008058823008F04AC18091AB059091AC0537
:103970008C3D23E09207A1F583E08A838AE2898364
:103980004FB7F894DE01139620E03EE051E2E32FBA
:10399000F0E050935700E49120FF03C0E295EF70F0
:1039A0003F5FEF708E2F90E0EA30C0F0C7968D93A6
:1039B0009D932F5F243159F74FBF8091E800877F97
:1039C0008093E8006AE270E0CE0101960E948406CE
:1039D0008091E8008B778093E80010C1C096E7CF14
:1039E0004091AD055091AE05292F33272330310585
:1039F00009F444C078F52130310509F46FC08FE92E
:103A000090E0E8E2F7E02230310509F0F7C02091BC
:103A1000E800277F2093E8002091AF053091B005A2
:103A20008217930708F49C0140E02115310509F045
:103A300064C0411162C08091E80082FDC9CF8091CD
:103A4000A705882329F2853019F28091E80083FFC9
:103A5000F2CFBECF21323105A9F12232310509F072
:103A6000CDC04115510509F443C04130510509F05D
:103A7000C5C082E390E0E6EBF6E0C9CF992781303C
:103A80009105C1F0009759F0029709F0B7C0E9ED30
:103A9000F7E0E4918E2F90E0E9EDF7E007C0E7E072
:103AA000F8E0E4918E2F90E0E7E0F8E0009709F469
:103AB000A5C0ADCFE7EFF7E0E4918E2F90E0E7EF00
:103AC000F7E0F4CF4115510571F04130510509F08F
:103AD00095C089E090E0E3E5F7E099CF82E190E0DE
:103AE000E7ECF7E094CF89E090E0EAE3F7E08FCFEE
:103AF00080E490E0E8EEF6E08ACF8091A705882385
:103B000009F466CF853009F463CF8091E80083FD26
:103B10005FCF8091E80082FD8ECF8091E80080FF2A
:103B200084CF9091F3008091F2002115310519F0B6
:103B30008830910550F041E0089709F040E080910D
:103B4000E8008E778093E80070CF44914093F100B5
:103B50003196215031090196E8CF803809F04EC0E6
:103B60008091E800877F8093E8008091A80580938A
:103B7000F1009ECE811142C01091AB051230F0F5DC
:103B80008091E800877F8093E8001093A8050E9449
:103B9000D805112311F084E005C08091E30087FD72
:103BA000FACF81E08093A70542E061EC81E00E94BA
:103BB000F70542E261EC82E00E94F70542E361E82A
:103BC00083E00E94F70542E360E884E00E94F70585
:103BD0008091A70513C08091AB05813079F481E015
:103BE000933009F080E08093A6051092E90080915F
:103BF000E800877F8093E8000E94D8058091E80064
:103C000083FF0AC08091E800877F8093E80080915D
:103C1000EB0080628093EB00AA96E3E00C94C43240
:103C20000E943F1B2FEF84E39CE021508040904096
:103C3000E1F700C0000088E19AE00FB6F894A8957B
:103C4000809360000FBE90936000FFCF882341F007
:103C500080959091B90389238093B9030E94181B22
:103C60000895882339F09091B903982B9093B90364
:103C70000E94181B08958823C1F19CEF980F913A78
:103C800078F4E6EFF2E09191891303C0DF01119718
:103C90001C9242E0EC3FF407B1F70E94181B089514
:103CA00090E2980F983088F4877021E030E0A90105
:103CB00002C0440F551F8A95E2F7CA018095909182
:103CC000B90389238093B903E8CF9BE5980F93301C
:103CD00028F490E080E00E944C070895885A8B31C8
:103CE00020F490E080E00E9427070895CF93C82F2A
:103CF0008823B1F08CEF8C0F813A00F5E6EFF2E00B
:103D00008CEF92E0DF012D91C21761F08A179B07BB
:103D1000D1F76C2F84EF92E00E940D070E94181BD0
:103D2000CF9108952191C21303C0DF0111971C9216
:103D30008E179F07B9F70E94181BEBCF80E28C0FFC
:103D4000883068F4C77021E030E001C0220FCA95C6
:103D5000EAF78091B903822B8093B903DFCFEBE5BB
:103D6000EC0FE33040F4F0E0E55BFE4F808190E043
:103D70000E944C07D5CFC85ACB3190F6EC2FF0E01B
:103D8000EE0FFF1FE25BFE4F808191810E942707AB
:103D9000C7CF1F93CF93DF93182FCAE0D0E08933AA
:103DA00011F4C0E5D0E0812F0E94761E8FE99FE0DC
:103DB0000197F1F700C000002197C1F7812F0E9401
:103DC0003B1EDF91CF911F9108950F931F93CF93C7
:103DD000DF93C62FD42F022FFC0182818823A9F004
:103DE0006093D7060E9401079093D6068093D5066C
:103DF000C77081E001C0880FCA95EAF70E94311EA2
:103E0000DF91CF911F910F9108958091D70668138C
:103E100032C08091D5069091D6060E94E606883C75
:103E2000910548F510E21D0FCD17B9F080E28C0F17
:103E3000883040F4C77081E001C0880FCA95EAF766
:103E40000E94261E183048F481E09D2F977001C013
:103E5000880F9A95EAF70E94311E802F0E94C91E92
:103E6000183070F6D77081E001C0880FDA95EAF754
:103E70000E94261EC5CFC77081E001C0880FCA9579
:103E8000EAF7F6CF67EE7EEF90E080E00E94BC3369
:103E900060E082E090E00E949E3360E083E090E08A
:103EA0000E949E331092BB031092BA0360E074E14B
:103EB00084E090E00E94BC3360E086E090E00E94E5
:103EC0009E336FEF87E090E00E949E3340E050E029
:103ED000BA0188E090E00E94B03360E08DE090E0AD
:103EE0000E949E3340E050E0BA0188E190E00E94D9
:103EF000B03360E087E190E00E949E3340E050E004
:103F0000BA018CE190E00E94B03370E060E080E2A2
:103F100090E00E94BC3340E050E0BA0188E190E0BC
:103F20000E94B03340E050E0BA018FE090E00E9480
:103F3000B0330E94AC0E0E946F138091D90683703B
:103F400011F4109247018091D9068C7F8160809393
:103F5000D9068091D80681608093D8068FE7809338
:103F6000DD064FEF6FEF8AEA90E00E943E048AE19F
:103F70000E9425040895A5E0B0E0E1ECFFE10C9477
:103F80009B326C01FC0183819481892B31F080810B
:103F9000918189238F3F09F01CC72596E0E10C949D
:103FA000B7320E945112182F682F89819A810E947E
:103FB000FF1269817A81812F0E94D4107C018134A3
:103FC000FEE79F0709F41CC1C8F580349E4709F439
:103FD0006CC0F3E8EF16F1E7FF0608F0CAC123E76B
:103FE000E21621E7F20608F004C334E6E31631E7EF
:103FF000F30608F062C147E5E41641E7F40608F06D
:10400000A8C255E5E51651E7F50608F03CC18BE47A
:10401000E81681E7F80608F079C293E0E91691E71F
:10402000F90608F02AC2F701E851FC47E730F1052C
:1040300008F0F4C0E95AFB4C0C94F8328B389E47D8
:1040400040F64091450300916E040F778EEB8E0D84
:1040500090E09C0124503D4F5901F9012081F60167
:104060008281882309F4FDC02F3F09F0B2CF10915F
:104070006D04812F8F701595159515951595125412
:10408000FCE08F9F100D11241E0D212F2F774F70F4
:104090004069E091E805F091E90563E070E088EEA1
:1040A00095E00995F501108394CFF601828188236C
:1040B00009F4B4C00CE511E09AE0492EF80124910E
:1040C000222309F4ABC0213009F043C0319684911A
:1040D000813039F40E5F1F4FF80184910E94C91E90
:1040E00008C0823049F40E5F1F4FF80184910E948E
:1040F000761E0F5F1F4FE2CF833039F40E5F1F4FE4
:10410000F80184910E943B1EF4CF843009F076C000
:104110000E5F1F4FF801249190E080E0F801319686
:104120002053330B2A30310548F0019710F3EFE9A3
:10413000FFE03197F1F700C00000F7CF489EA001E3
:10414000499E500D1124C901840F951F24918F01A0
:10415000E5CFE22FF0E0E452FF4F5490822F869596
:104160008695869590E0FC01E453FF4F649027709C
:10417000712C022E02C0759467940A94E2F731E024
:1041800063227724FC01E454FF4F8490912C022E8B
:1041900002C0959487940A94E2F741E0842299241E
:1041A000FC01E455FF4FA490B12C02C0B594A79434
:1041B0002A95E2F751E0A522BB246114710419F09D
:1041C00081EE0E94761E8114910419F086EE0E9401
:1041D000761E852D0E94C91E8114910419F086EE69
:1041E0000E943B1E6114710419F081EE0E943B1E77
:1041F000A114B10409F47DCF8CE270CF8F0179CF87
:10420000F6018281882351F08091460391E089274D
:1042100080934603882311F190934503F601928120
:10422000992309F4FFC51092D7069701305723321E
:10423000310508F0DFC584E090E00E948833909358
:10424000FF038093FE03F701E150F047E232F105EE
:1042500008F0B9C2E25AFB4C0C94F83210924503B4
:10426000DDCF2F3F61F02F774F704068E091E80578
:10427000F091E90563E070E088EE95E009958FEF35
:10428000F5018083A6CEE5E5EE16E1E7FE0609F42A
:104290004EC1F6E5EF16F1E7FF0609F0C4CEF601D0
:1042A0008281882309F479CE80916D04982F9F70C4
:1042B000993008F072CE9F5F46C121E7E216F20600
:1042C000D0F536E6E31631E7F30608F064C144E6BC
:1042D000E41641E7F40609F44AC155E6E51651E74C
:1042E000F50609F0A0CEF6018281882309F455CEA7
:1042F00020916D04822F85958595859585958630CD
:104300000CF04BCE91E0980F9295907F95959595F6
:1043100095959595392F3295307F2F70232B2093CB
:104320006D0418160CF039CE97FF37CE8295807F3A
:10433000922F9F700AC181E7E816F80609F43FC181
:1043400092E7E91691E7F90609F06DCEF601828150
:10435000882309F422CE80916E04982F9F779F378F
:1043600009F41BCE933708F042C1935F9F778078A2
:104370003CC1E9E8EE16E1E7FE0609F497C108F052
:104380003EC025E8E21621E7F20609F467C1F8F419
:1043900043E8E41641E7F40609F441C154E8E516A0
:1043A00051E7F50609F03FCEF6018281882309F432
:1043B000F4CD20916E04322F331F3327331F909199
:1043C0006F04892F8770880F832B8F5F3AC1F601A6
:1043D000228180916E0490916F04F7E8EF16F1E767
:1043E000FF0609F44FC108F057C140E021114FE723
:1043F000881F8827881F9770990F60E43FC14CE899
:10440000E41641E7F40609F473C1A0F48AE8E8165B
:1044100081E7F80609F45AC19BE8E91691E7F90625
:1044200009F001CEF6018281811160C18FEF809386
:104430002304B3CDEEE8EE16E1E7FE0609F491C1E0
:1044400008F478C12FE8E21621E7F20609F0EBCD77
:1044500080916E04982F991F9927991F80916F045E
:104460008770880F892BF60192816FEF7FE1992386
:1044700009F488C10E94510490CD00916E04802FF0
:10448000881F8827881F40916F044770440F482B6E
:104490000F778DEF8E0D90E0FC01EB5DFB4F5F0120
:1044A0002081F6018281882301F12F3F09F075CD2B
:1044B00080916D04982F9F7085958595859585953C
:1044C0008350FCE09F9F800D1124E80E2E2D2F7746
:1044D0004069E091E805F091E90563E070E088EE5D
:1044E00095E00995F501E08258CD2F3F59F02F77DF
:1044F0004068E091E805F091E90563E070E088EE3E
:1045000095E009958FEFF501808347CDF601828113
:10451000882309F442CDF5EBEF0E2E2D2F70E22EFD
:1045200080916D04807FE82AE0926D0436CDF6011B
:104530008281882309F431CD80916D04982F9F707A
:1045400009F42BCD915F9F70807F892B80936D0440
:1045500024CDF6018281882309F41FCDF3EAEF0E02
:10456000E29480EFE82280916D048F70DCCFF60139
:104570008281882309F411CD80916D04982F95953F
:104580009595959595959B3F0CF407CD915F9295E8
:10459000907F8F70DACFF6018281882309F4FDCCF9
:1045A000FAE9EF0E8CE0E89EE02C1124E894E7F89D
:1045B00080916E048078E82AE0926E04EECCF601D9
:1045C0008281882309F4E9CC80916E04982F9F772B
:1045D00009F4E3CC80789F3721F4856780936E04DB
:1045E000DCCC9D30D8F39D509F77892BF7CF8F6718
:1045F000F5CFF6018281882309F4CFCCEDE8EE0DEA
:1046000080916E04E0FB87F980936E04E695E77075
:1046100080916F04887FE82BE0936F04BECCF60195
:104620008281882309F4B9CC20916E04322F331F84
:104630003327331F90916F04892F8770880F832B46
:10464000815F382F3F7080FB27F920936E04832F02
:104650008695987F982B90936F049FCCF60182816A
:10466000882309F49ACC90916E04991F9927991F79
:1046700080916F048770880F40E06BE7892B0E9460
:104680006A048BCC40E021114FE7881F8827881FE0
:104690009770990F61E4F2CF40E021114FE7881F36
:1046A0008827881F9770990F62E4E8CFF60182810E
:1046B00040E081114FE790916E04991F9927991F4F
:1046C00080916F048770880F63E4D8CFF6018281F0
:1046D00040E081114FE790916E04991F9927991F2F
:1046E00080916F048770880F64E4C8CF81E09FCE0B
:1046F000F6018281882309F450CC90916F04292F10
:104700002695269526952F7081E0820F8F70880F51
:10471000880F880F9778892B80936F04982F98774C
:1047200009F03BCC220F220F220F8778822B809337
:104730006F0433CCF6018281882309F42ECC80915A
:104740006F04982F987709F428CC982F9695969512
:104750009695915F9F70990F990F990F8778892B84
:10476000E6CF80916E04982F991F9927991F809109
:104770006F048770880F892BF601928160E070EEDC
:10478000911178CE70E060E075CE26E241EE61EEE8
:10479000C6010E94E51E01CC27E245EE65EEF8CF8A
:1047A00026E241EE60EEF4CF27E245EE64EEF0CF74
:1047B00026E241EE62EEECCF27E245EE66EEE8CF70
:1047C00028E241E0EBCF8091FE0381608093FE03FD
:1047D00095C08091FF0388608093FF038FC0809114
:1047E000FE038260F3CF8091FE038460EFCF80915F
:1047F000FE038860EBCF8091FF038160EDCF809155
:10480000FF038260E9CF8091FE038061DFCF80915A
:10481000FE038062DBCF8091FE038064D7CF0E94CD
:104820003F1B8091FE038068D1CF8091FE038C6096
:10483000CDCF8091FF038360CFCF8091FE038E7F29
:10484000C5CF8091FF03877FC7CF8091FE038D7F07
:10485000BDCF8091FE038B7FB9CF8091FE03877F10
:10486000B5CF8091FF038E7FB7CF8091FF038D7FFF
:10487000B3CF8091FE038F7EA9CF8091FE038F7D01
:10488000A5CF8091FE038F7BA1CF0E943F1B80911B
:10489000FE038F779BCF8091FE03837F97CF80911C
:1048A000FF038C7F99CF8091FE0382FB992790F9BB
:1048B00021E0922790FB82F990FB83F987CF8091CA
:1048C000FF03982F909591708E7F892B90FB81F933
:1048D00083CF9091FE03892F8F7B96FF806476CFE4
:1048E0000E943F1B9091FE03892F97FB87F9805808
:1048F0006DCF61E08EE090E00E949E336091FE03F8
:104900007091FF0384E090E00E94BC330E943F1B43
:1049100044CB60E0EFCF9091FE03892F8F7E94FF10
:10492000806154CF9091FE03892F8E7F90FF81602C
:104930004DCF9091FF03892F877F93FF88604CCFE5
:1049400085E37BC28091B9038272F701E052F84798
:10495000E531F10508F082C0E058FB4C0C94F832C8
:104960008091D90691E089278093D906109247015A
:104970008091D80681608093D8060FCB47E058E03D
:1049800061E178E00E94870708CB41E158E067E0E9
:1049900078E0F8CF43EF57E06DEF77E0F3CF4DEFDE
:1049A00057E063EF77E0EECF49ED57E066EE77E052
:1049B000E9CF46EE57E069ED77E0E4CF4FEB57E003
:1049C0006CEC77E0DFCF4CEC57E06FEB77E0DACFC1
:1049D00043EA57E061EB77E0D5CF41EB57E063EA7C
:1049E00077E0D0CF81E00E942504D7CA84E0FBCFD6
:1049F0008CE0F9CF81E1F7CF31E0E3163CE7F30635
:104A000059F143E0E4164CE7F40601F1E1145CE7E8
:104A1000F50621F50E943F1B8FEF94E3ECE08150F7
:104A20009040E040E1F700C0000087E797E79093EF
:104A300001088093000888E19AE00FB6F894A895E1
:104A4000809360000FBE90936000FFCF6FEF7FEF09
:104A500090E080E00E94BC330E94101EF6010081AD
:104A60001181992311F1C8010E945112F82E682F6B
:104A7000C8010E94FF12B8018F2D0E94D4100E941D
:104A80000D11182FB82EF60122814581342F329551
:104A90003F70892F82958F70E82EF12C8C30E8F5CD
:104AA000F701EB56FB4C0C94F832C8010E94B91286
:104AB000F82EE1CF092F0F70907F11F00295007F43
:104AC000812F2223C9F0002369F090E2910F9830E2
:104AD00010F011110BC08091B903082B0093B9039A
:104AE0000E94181B812F0E94761E17C08091B80368
:104AF000082B0093B803F4CF0E943B1E002369F0FB
:104B00000095105E183010F0B11021C08091B903EB
:104B100008230093B9030E94181B98E0E91AF108D2
:104B2000E4E0EE16F10410F40E94411485E0F60171
:104B3000DE01119601900D928A95E1F709811A81A3
:104B4000C8010E94B912B8010E94D41026CA8091EF
:104B5000B80308230093B803DECF892F8F70907FAE
:104B6000903211F08295807FF1E0BF120CC02223B9
:104B700029F0363090F60E94311ECFCF353068F6DE
:104B80000E94261ECACF222341F03323A1F340FF07
:104B9000A9CF4F70F6014583EECF332389F3193344
:104BA00009F00FC1FFEF27EE33E0F1502040304015
:104BB000E1F700C00000812F0E943B1EAECF892F7D
:104BC00086958695837061F0813009F0A6CF812F9C
:104BD0009370211102C080E090E00E9427079DCFD2
:104BE000812F9370211102C080E090E00E944C0759
:104BF00094CF892F837009F042C021118ECF812F6D
:104C0000829586958770880F880F212F2F7030E04E
:104C1000082E02C0220F331F0A94E2F750E040E052
:104C200014FF09C04FE050E002C0440F551F8A95A1
:104C3000E2F7409550959695969593709230A9F02D
:104C400080F46091BA037091BB03913041F0C901C7
:104C5000842B952B862397230E9440135ECF262B0F
:104C6000372BC901842B952BF7CFC901842B952BAA
:104C70002091BA033091BB0382279327EDCF86950D
:104C8000222311F0892F8170882309F446CF812FC8
:104C9000829586958770880F880F212F2F7030E0BE
:104CA000082E02C0220F331F0A94E2F750E040E0C2
:104CB00014FF09C04FE050E002C0440F551F8A9511
:104CC000E2F7409550959695969593709230A9F09D
:104CD00080F46091A8047091A904913041F0C90159
:104CE000842B952B862397230E94191316CF262BEE
:104CF000372BC901842B952BF7CFC901842B952B1A
:104D00002091A8043091A90482279327EDCF092F81
:104D10000F70222329F0802F0E943013812F2BCF78
:104D2000812F0E94261E802F0E941E13F6CE812FF7
:104D3000E1EF1E1791F1E11750F0F0EF1F17D1F0DE
:104D40002223D1F13111CECE892F8F712AC042EFAB
:104D5000141751F153EF1513F3CF222351F19F7123
:104D600021E030E0F90102C0EE0FFF1F9A95E2F753
:104D7000CF01BACF222369F0353008F0CECE292FEB
:104D80002F7181E090E002C0880F991F2A95E2F709
:104D9000B7CF363008F0C1CEF2CF892F8F712223E2
:104DA00019F20E943013B9CE892F8F712223C9F3D3
:104DB000BBCF90E080E098CF332341F0893309F4F2
:104DC000F1CE8FE39CE90197F1F7F3CE892F8F7134
:104DD000ABCF85E0DE01119601900D928A95E1F747
:104DE000F601228189819A812111DBC80E94B912C2
:104DF000182FDFC8F6E1EF16FCE7FF0609F0FCCD3F
:104E00008091B9038A7A91E009F490E09093470386
:104E100069E2811165E384EF92E00E940D070E9430
:104E2000181BBBC826E1E2162CE7F20609F08ACD72
:104E300080914703811184CD89E2E6EFF2E0919100
:104E4000891303C0DF0111971C9222E0EC3FF207A7
:104E5000B1F7E5CF1F93CF93DF9380917D03807FE0
:104E600009F04BC080917A03882309F446C08091F1
:104E7000AF03C0917E034091780350917903609114
:104E80007B0370917C03D42FD52316E0C817A9F1BA
:104E900090E061157105A9F1DF3F99F1189FF001CC
:104EA000199FF00D1124DF01A158BC4F11962C91D0
:104EB0001197251326C02C91241323C012962C91F0
:104EC000129721111EC013962D913C91261B370B72
:104ED000283C3105B0F480917D038F708061809310
:104EE0007D03EC57FC4F80818F708061808388E761
:104EF00093E00E94BB1F0E944712DF91CF911F9148
:104F0000089501968770C2CFA1E1B0E0EAE8F7E228
:104F10000C949F328C0185E0F801DE011D96019012
:104F20000D928A95E1F7F801E28088E7882E83E008
:104F3000982E40917B0350917C034115510509F453
:104F400030C19091780320917903892F82238F3F7C
:104F500009F427C1D080C180A380B480F0907A0387
:104F6000B501641B750BFF2009F4E7C080917D0338
:104F7000382F307F683C710508F0ABC0311178C024
:104F8000FE2C2C1114C09D1112C0E11010C08F70A6
:104F9000806180937D03C4010E94BB1F80917D03CB
:104FA000F80185838F2D6196ECE00C94BB32A1143F
:104FB000B104C9F18D2D8C218F3FA9F181E08E259F
:104FC00080FF05C04E2D6C2D8D2D0E942712A1143F
:104FD000B10459F18D2D8C218F3F39F181E08E255F
:104FE000F82FF170BF2E80FF39C04E2D6C2D8D2D06
:104FF0000E942712A82E811131C0DD86CE868D85B4
:105000009E850E948512292F22952F70243078F4D6
:105010009F702230A8F09923B9F0F8019581907F14
:1050200099F4FA2CBFCF80E0CBCF80E0D9CF2A5FB4
:105030002F70223068F0C8010E94BB1FAB2CF1CF4B
:10504000992311F0882369F3805E883050F3F3CF01
:10505000803F38F3815F833070F7E3CFEE2009F4AF
:10506000A1CF80917D03816080937D03F12C9ACF45
:105070002C1105C09D1103C0EE2009F477C0C801B2
:105080000E944513882309F1EE20F9F080917D03F9
:10509000803270F0209178033091790338872F8324
:1050A0001986BB86AA868C87CE0107960E94BB1FF5
:1050B00086E0F801A8E7B3E001900D928A95E1F748
:1050C0000E942A27FF24F3946DCFC8010E94BB1FC2
:1050D000F9CF31110AC088E793E00E94BB1F86E038
:1050E000F40111928A95E9F7C1CF2C110EC09D11E0
:1050F0000CC0E1100AC08583C8010E94BB1F86E076
:10510000F40111928A95E9F74DCFC8010E94451329
:105110008823D9F2EE20C9F280917D03803240F2DB
:1051200020917803309179033A8329831B82BD82D1
:10513000AC828E83CE010196B9CF683C7105F8F63A
:10514000FE2CEE2011F22C111EC09D111CC080916E
:105150007D0380FD0FC0982F907F61F08583903F85
:1051600031F0982F907F905F8F70892B8583C801D5
:105170000E94BB1F86E0F801A8E7B3E001900D9202
:105180008A95E1F70FCFC8010E944513811190CF96
:1051900080917D03816080937D03C8010E94BB1FC5
:1051A00001CFEE2009F491CFC8010E944513F82EDB
:1051B000882309F48ACF86E0F801A8E7B3E00190DC
:1051C0000D928A95E1F780917803909179030E947E
:1051D00085120E942A27E6CEA7E1B0E0E2EFF8E2CE
:1051E0000C94A8324B8B5C8B6D8B7E8B8F8B6111FB
:1051F0001092B8031A8A198A85E0FE017396DE01BF
:105200001D9601900D928A95E1F786E0FE013D968C
:10521000DE01179601900D928A95E1F7CE0107966F
:105220000E948427882359F016E08091AF03909163
:105230007E03891343C06796E3E00C94C43286E092
:10524000FE013796DE01119601900D928A95E1F7E5
:105250008A859B85892B41F38F81988589238F3F90
:1052600019F320917E0330E0C901019687709927D8
:105270004091AF034817190671F40E943F1B10922A
:105280007E031092AF0386E0E8E7F3E0DF011D92B2
:105290008A95E9F7C9CF96E0929FD001939FB00D10
:1052A0001124A158BC4FFE01319601900D929A95A0
:1052B000E1F780937E030E944712B6CF819FC00121
:1052C000112481589C4F0E948427882309F4B3CF6E
:1052D0008091AF0390E00196877099278093AF0388
:1052E000A4CFAAE0B0E0E7E7F9E20C94A732182FC8
:1052F000062F662399F10E9401071E832DEF2F834D
:1053000021E0288781609A8789874E815F8168853F
:1053100079858A850E94EC288FE39CE90197F1F753
:1053200000C000000023F9F00E94010719832DEF4F
:105330002A831B8281609D838C8349815A816B8182
:105340007C818D810E94EC288FE39CE90197F1F725
:1053500000C000002A96E4E00C94C3320E940107CA
:105360001E832CEFCCCF0E94010719832CEFE0CFD6
:10537000A1E0B0E0EEEBF9E20C94A232EE24E3946B
:10538000F12C0FED13E09E012F5F3F4F43ED53E0F3
:1053900063E082E00E94C118C82E882339F100E042
:1053A00080E01DC0D090EF03D00E2D2D30E0A9017C
:1053B000475E5B4F7A01E1E0F0E0EC0FFD1FE00F8C
:1053C000F11D1081FA019081191BB12E1B149CF064
:1053D000912F17FD90E0191B111118C00F5F9091CC
:1053E000EE030917F8F281110E9424128C2D2196E8
:1053F000E9E00C94BE32BA94F70180818F5F80831C
:1054000060E08D2D0E9471298C2DE0CF1F5FF70188
:1054100080818150808361E08D2D0E9471298C2DC7
:10542000DBCFA5E0B0E0E7E1FAE20C94A7320E94FE
:1054300001078C018091BC039091BD0380179107F7
:10544000A1F08FEF89838A831B820E94010781600C
:10545000782F9D838C8349815A816B818D810E9435
:10546000EC281093BD030093BC032596E4E00C9454
:10547000C3321F920F920FB60F9211242F933F93B6
:105480004F935F936F937F938F939F93AF93BF934C
:10549000CF93DF93EF93FF93D091E900DF7080917A
:1054A000EC00C82FC17080FDC0E81092E900809127
:1054B000F000877F8093F00078940E94551B109233
:1054C000E9008091F00088608093F000CD2BCF70D0
:1054D000C093E900FF91EF91DF91CF91BF91AF9120
:1054E0009F918F917F916F915F914F913F912F91FC
:1054F0000F900FBE0F901F9018951F920F920FB62E
:105500000F9211242F933F934F935F936F937F9349
:105510008F939F93AF93BF93EF93FF938091E1009D
:1055200082FF09C08091E20082FF05C08091E10006
:105530008B7F8093E1008091DA0080FF24C080910E
:10554000D80080FF20C08091DA008E7F8093DA003F
:105550008091D90080FF9DC080E189BD82E189BD35
:1055600009B400FEFDCF81E08093A70580919A05E4
:10557000811109C00E945E050E9429068091E20007
:1055800084608093E2008091E10080FF17C08091E9
:10559000E20080FF13C08091E2008E7F8093E200E2
:1055A0008091E20080618093E2008091D800806267
:1055B0008093D80019BC85E08093A7058091E10015
:1055C00084FF2BC08091E20084FF27C080E189BD69
:1055D00082E189BD89B5982F917080FFFBCF8091C2
:1055E000D8008F7D8093D8008091E1008F7E8093DA
:1055F000E1008091E2008F7E8093E2008091E200E2
:1056000081608093E2008091A805882309F447C057
:1056100084E08093A7058091A7058091E10083FF36
:1056200027C08091E20083FF23C08091E100877F43
:105630008093E10082E08093A7051092A8058091F5
:10564000E1008E7F8093E1008091E2008E7F809365
:10565000E2008091E20080618093E20042E060E03D
:1056600080E00E94F7058091F00088608093F00050
:10567000FF91EF91BF91AF919F918F917F916F912A
:105680005F914F913F912F910F900FBE0F901F9000
:10569000189519BC1092A70510929A0574CF8091A5
:1056A000E30087FD93E09093A705B5CF78941F9210
:1056B0001FB61F9211248F939F93AF93BF93809136
:1056C000960590919705A0919805B091990501963E
:1056D000A11DB11D8093960590939705A093980501
:1056E000B0939905BF91AF919F918F911F901FBE6D
:1056F0001F9018951F921FB61F9211248F939F938E
:10570000AF93BF9380919505811113C08091960549
:1057100090919705A0919805B09199054196A11D8A
:10572000B11D8093960590939705A0939805B0932B
:105730009905BF91AF919F918F911F901FBE1F90B0
:105740001895CDB7DEB72B970FB6F894DEBF0FBE16
:10575000CDBF85B7806885BF85B7806885BF0E944B
:10576000AC0E10920D0610920F0610920E0680ECF1
:105770008093D20680E196E09093D4068093D3067E
:105780001092D1061092D0061092ED051092EC0501
:105790001092EF051092EE051092F1051092F005AF
:1057A0001092F3051092F2051092F5051092F4058F
:1057B0001092F7051092F6051092F9051092F8056F
:1057C0001092FB051092FA051092FD051092FC054F
:1057D0001092FF051092FE0510920106109200062D
:1057E0001092030610920206109207061092060607
:1057F00087E89FE09093E9058093E8058EEE9EE0B0
:1058000090930906809308068AEC9EE09093050623
:105810008093040689EC9EE09093EB058093EA0563
:1058200084B7877F84BF0FB6F894A89580916000F5
:10583000886180936000109260000FBE80E890E065
:105840000FB6F89480936100909361000FBE86EDCF
:105850009FE09093F3028093F2020E945E050E9403
:1058600029068091E20084608093E2007894809120
:10587000A7058823A1F01091E9001F709091EC001A
:10588000892F817090FD80E8182B1092E90080919B
:10589000E80083FD0E94551B1F701093E90082E011
:1058A00084BD93E095BD9AEF97BD80936E001092F2
:1058B000E9031092EA031092EB031092EC0390912B
:1058C000ED03911108C00E941C1492E0811101C0E7
:1058D00091E09093ED0381E0913009F080E08093B6
:1058E0002C010E941C1481110E94373180912C01DF
:1058F00010921B041092EF0340912C0181E0482785
:1059000040931C0480912C018093EE0380912C0124
:10591000811175C141116DC18FE891E00197F1F7D7
:1059200000C0000010911C046DE174E02FE1E22E34
:1059300024E0F22E4EE154E0FB018E2F861B8117EE
:1059400008F49DC180912C0180912C0196E0811179
:1059500090E09093FD0386E0891B8093FC0306E8AA
:1059600011E0F80181918F018F3F11F00E94D80F53
:10597000F1E00C381F07A9F70CE811E0D8018D9170
:105980008D018F3F11F00E94D80FB1E003391B0742
:10599000A9F78CE0E0E0F4E0DF01282F1D922A95C2
:1059A000E9F7E0EFF3E0DF011D928A95E9F790E077
:1059B00080E00E948833873E9E4F11F00E94421F74
:1059C00082E090E00E94803380930C0484E090E0B9
:1059D0000E9488339093FF038093FE0383E090E05E
:1059E0000E94803390E00E9440131092B505E4EDD0
:1059F000F5E08FEF9FEF8193919325E0E83EF2076A
:105A0000D1F710927104E0E9F4E084EA94E02FEF1A
:105A10003FEF219331938E179F07D9F790E080E0F5
:105A20000E948833873E9E4F21F00E94421F0E94B1
:105A30008D1481E08093D80646E050E06CE170E080
:105A400089ED96E00E9470331092D8068091D906B5
:105A50008C7F11F40E948D140E941C14811102C0CD
:105A60000E943A310E946F138EE00E9425048DE25D
:105A700091E0909392058093910593E0292E312C2B
:105A80008091A705853099F400E4F02EEE24E3948C
:105A900083E0D82E00E112E18091A705853009F45A
:105AA00017C10E943F1B0E9441141092AA040E9439
:105AB0009219ADE0B4E0BF83AE83E0E0F4E0FA8792
:105AC000E987DF01EDE0F4E091918D9124E0E93187
:105AD000F20709F44CC19817B9F30E941C148B8784
