:100000000C9479030C94C0030C94C0030C94D42E6C
:100010000C94C0030C94C0030C94C0030C94C00354
:100020000C94C0030C94C0030C9483260C943F26BC
:100030000C947E270C94C0030C94C0030C94C00352
:100040000C94C0030C94C0030C94C0030C94C00324
:100050000C94C0030C945A270C94C0030C94C00356
:100060000C94C0030C94C0030C94C0030C94C00304
:100070000C94C0030C94C0030C94C0030C94C003F4
:100080000C94C0030C94C0030C94C0030C94C003E4
:100090000C94C0030C94C0030C94C0030C94C003D4
:1000A0000C94C0030C94C0030C94C0033D5C435CEF
:1000B000455C485C4C5C5B5C00003F5C445C4E5CB7
:1000C0004A5C585C515C405C495C505C535C575CDA
:1000D000475C425C01534B5C4F5C525C555C595C25
:1000E000545C415C465C5A5C5C5C565C4D5C3E5CBE
:1000F0003B5C00000000000000000000AA00A90016
:100100004F5C505C525C535C545C765C0153515CB8
:10011000585C575C555C745C735C0151565C5D5C6B
:10012000605C5A5C715C725CA845645C5B5C595CA9
:10013000695C6F5C705C665C625C5E5C5C5C6B5CAA
:100140006E5C6A5C6C5C655C615C5F5C6D5C635C96
:10015000675C685C3F5C435C455C4A5C565C5A5C2F
:1001600000003D5C495C515C535C485C475C415C11
:10017000425C4E5C525C555C585C4D5C0153445C87
:100180004B5C505C545C575C4F5C465C4B5C595C10
:100190005B5C5E5C4C5C3C5C405C00000000000012
:1001A00000000000AA00A9004F5C505C525C555C46
:1001B000535C745C0153515C585C595C545C725CD8
:1001C000735C0151565C575C655C5B5C695C715C9F
:1001D000A845645C5C5C5A5C5D5C6B5C705C625CFA
:1001E000635C605C5E5C5F5C6E5C6C5C6F5C675CFF
:1001F000635C615C6D5C665C685C6A5CE0001E0070
:100200001F002000210022000000165C2B001400BB
:100210001A00080015001700390004001600070036
:1002200009000A000B00E1001D001B000600190078
:10023000050011003500E300E20091442C002C0081
:100240004600000000000000000000000100010066
:100250004A004E000A001C0023002F004B004D00F6
:1002600005000B0018002400300004512C00110080
:100270000D000C00250031000100904410000E001C
:100280001200260027004F00E60036000F00130082
:100290002A00E50052005000370033004C002800CF
:1002A0003800510039001E001F00200021002200EC
:1002B0000000165C2B0014001A00090013000A004D
:1002C000E000040015001600170007002800E100F8
:1002D0001D001B0006001900050010003500E3009A
:1002E000E20091442C002C004600000000000000B9
:1002F00000000000010001004A004E0007000D0050
:1003000023002F004B004D0005000B000F002400C0
:10031000300004512C000E0011001800250031009F
:1003200001009044100008001C00260027004F0028
:10033000E60036000C0033002A00E50052005000B1
:10034000370012004C0028003800510001003A002C
:100350003B003C003D003E000000010001000100A8
:100360000100010001000100010001000100010085
:100370000100010001000100010001000100010075
:100380000100010001000100010001000100010065
:10039000010000000000000000000000010001005A
:1003A00001000100010001003F0001000100010007
:1003B00001000100010040000100010001000100F6
:1003C00001000100410001000100010001000100E5
:1003D0000100420043000100010001000100010092
:1003E00001000100010001000100340001000100D2
:1003F00001000100000000520000000000000000A9
:100400000000000002520000000000000000000098
:100410000352000000000000000000000100000086
:100420000000000000000000000000000000135C5D
:100430000A5C000000000000000000000000000056
:1004400000000000000000000000C95C0000000087
:100450000000815C01000000C85C0000000000009A
:10046000825C01000000C75C0000000000009D5C91
:1004700001000000C65C0000000000009E5CC35C40
:100480000000CD5C000000000000CA5CDF5CC55CC1
:10049000CC5C000000000000CB5CC45C00010101EA
:1004A0000101010101010202020202020202020331
:1004B0000303030303030304040404040404050501
:1004C00005050506060606060707070707080808C4
:1004D00008090909090A0A0A0B0B0B0C0C0C0D0D73
:1004E0000D0E0E0E0F0F0F1010111111121213130B
:1004F0001414151516161717181819191A1A1B1B84
:100500001C1D1D1E1E1F20202122222324242526DF
:1005100026272829292A2B2C2D2D2E2F3031323217
:10052000333435363738393A3B3C3D3E3F40414223
:10053000434445464748494A4C4D4E4F5051535409
:10054000555658595A5B5D5E5F61626465666869BD
:100550006B6C6D6F7072737577787A7B7D7E80823D
:10056000838587888A8C8E8F91939596989A9C9E86
:10057000A0A2A3A5A7A9ABADAFB1B3B5B7BABCBE96
:10058000C0C2C4C6C9CBCDCFD1D4D6D8DBDDDFE263
:10059000E4E7E9EBEEF0F3F5F8FAFDFF0501098079
:1005A000A101850319012AB700150126B70095019D
:1005B00075108100C0050C0901A101850419012AEB
:1005C000A002150126A002950175108100C0050149
:1005D0000906A101050719E029E71500250195087D
:1005E000750181029501750881010507190029FF30
:1005F000150026FF009506750881000508190129D8
:1006000005950575019102950175039101C00902D7
:100610009F00040100A0FA09040000010301010089
:100620000921110100012240000705810308000A89
:100630000904010001030000000921110100012249
:1006400032000705820320000A080B0202010100A4
:100650000009040200000101000009240100010951
:100660000001030904030002010300000724010044
:1006700001410006240201010006240202020009D1
:100680002403010301020100092403020401010102
:1006900000090504024000050000052501010109CB
:1006A0000583024000050000052501010312010039
:1006B0000200000008EDFEB5F40100010200011C7B
:1006C00003620061006E0064006F006D0069006EDF
:1006D00000650064006F006E00690000000E0333C7
:1006E00000610072006100680074000000040309EA
:1006F000040011241FBECFEFDAE0DEBFCDBF04B689
:1007000003FE27C08091AA069091AB06A091AC068B
:10071000B091AD068730904BA740B04BD1F410920A
:10072000AA061092AB061092AC061092AD0614BE4B
:1007300084B7877F84BF0FB6F894A8958091600036
:10074000886180936000109260000FBEE0E0F8E3E3
:10075000099526E0A6E0B3E001C01D92AA3AB207CF
:10076000E1F713E0A0E0B1E0EAEBF3E602C00590A8
:100770000D92A630B107D9F70E94A5270C94A3319A
:100780000C9400000F931F939B01305E8901000FB2
:10079000012F001F110B11952F77482F406EE0910C
:1007A000BD05F091BE0563E070E08DEB95E0099525
:1007B0001F910F9108950F93262F042F0F77482F25
:1007C000406BE091BD05F091BE0563E070E08DEBFC
:1007D00095E009950F9108959091B705937051F0A8
:1007E000811109C094609093B7051092550181E082
:1007F0008093B6050895843110F09C64F4CF880F7F
:10080000880F982BF0CF9091B705937061F080938B
:10081000B8056093B905433308F042E34093BA0545
:1008200081E08093B6050895CF92DF92EF92FF9218
:100830000F931F93CF93DF9300D00F92CDB7DEB706
:100840007C01162FD42EC22E8091E2058430B9F59A
:10085000E091D705F091D805309709F440C0C70161
:10086000019763E070E00E944E30CB01880F991F22
:10087000860F971F19834A83CB824E2D481B9E01FA
:100880002F5F3F4FBC018DEB95E00995E091DB05B3
:10089000F091DC05309739F00C2D2D2D412FB7014B
:1008A0008DEB95E009950F900F900F90DF91CF9110
:1008B0001F910F91FF90EF90DF90CF90089582E00D
:1008C000E816F10409F45AC083E0E816F104A9F02F
:1008D00081E0E816F10409F484C0F12CE12CE091E8
:1008E000D905F091DA05309789F20C2D2D2D412F85
:1008F000B7018DEB95E00995C9CF862F807F803AAF
:1009000011F188F48038D1F0E091C105F091C20571
:10091000803929F7309719F3123F49F12C2D4D2DCD
:10092000612F6F7027C0803E99F0803FB1F0E09159
:10093000BF05F091C005803B91F6ECCFE091C30577
:10094000F091C405E7CFE091C505F091C605E2CF6F
:10095000E091C705F091C805DDCF623F09F0BFCF38
:10096000E091C905F091CA05309709F4B8CF2C2D54
:100970004D2D62EF8DEB95E0099588CF862F807F16
:10098000803DB9F0803FD1F0E091CB05F091CC05EE
:10099000803C09F0A4CF309709F4A1CF812F8D7F3F
:1009A0004D2D612F6F70813FC9F08DEB95E009955A
:1009B0006DCFE091CD05F091CE05EDCFE091CF0563
:1009C000F091D005633F39F0613F09F088CFE091A5
:1009D000D105F091D205309709F481CF4D2D612FCB
:1009E000E4CFE091D305F091D405683F38F4663F39
:1009F00009F075CFE091D505F091D605309709F44F
:100A00006ECF612F8DEB95E0099540CFE8EDF0E0DA
:100A100080818E7F80831092E2001092DA00109223
:100A2000E100A0EEB0E08C9181608C9380818F77A3
:100A3000808319BCA7EDB0E08C918E7F8C93808170
:100A40008F7E80831092650508952091E400309197
:100A5000E50095E6A9012091EC00822F817020FF2E
:100A600006C08091E80080FF06C080E008952091D4
:100A7000E80022FD1AC080917205882389F0853034
:100A800089F08091EB0085FD0FC02091E40030914A
:100A9000E50042175307F9F29150E1F684E008951A
:100AA00082E0089583E0089581E00895EF92FF9237
:100AB0000F931F93CF937C018B010E942505C82FB4
:100AC000811117C08091E80085FD0BC08091E8007E
:100AD0008E778093E8000E942505882399F3C82F1C
:100AE00008C0F70181917F018093F1000150110945
:100AF00049F78C2FCF911F910F91FF90EF900895A0
:100B00008091740587FF13C08091E80082FF06C0C2
:100B10008091E8008B778093E80004C08091720593
:100B20008111F2CF0895809172058823D9F38091C5
:100B3000E80080FFF8CF8091E8008E77ECCF982F07
:100B40009093E900242F762F50E0891731F07091AF
:100B5000EC002091ED005091F00021FD07C09F5F57
:100B6000973071F78093E90081E008953091EB00B0
:100B70003E7F3093EB003091ED003D7F3093ED00F0
:100B80003091EB0031603093EB007093EC002093D8
:100B9000ED005093F0002091EE0027FDE0CF80E0C3
:100BA0000895CF92DF92EF92FF920F931F93CF930E
:100BB000DF93C8EDD0E088818F7E8883E7EDF0E099
:100BC00080818160808384E082BF81E080936505BD
:100BD00088818E7F888302EE10E0F80110821092E7
:100BE000DA0081EEC82ED12CF601108288818F7731
:100BF000888388818068888388818F7D888319BCF9
:100C00001092720510927305109271051092700582
:100C100090EEE92EF12CF70180818B7F8083888113
:100C20008160888342E060E080E00E949F05F601D9
:100C300080818E7F8083F8018081816080838081C4
:100C400088608083F70180818E7F808388818061C6
:100C50008883DF91CF911F910F91FF90EF90DF90EC
:100C6000CF900895FC0180917A0590917B058617BD
:100C70009707A0F06115710529F49091E8009E771F
:100C80009093E80090E06115710551F4911108C04E
:100C90008091E80082FF34C080E00895BC01F2CF6B
:100CA000809172058823C1F18530C1F18091E800FF
:100CB00083FD30C08091E80082FDEACF8091E8009A
:100CC00080FFE1CF8091F3002091F200382F611571
:100CD000710519F02830310558F091E028303105C0
:100CE00009F090E02091E8002E772093E800CBCF28
:100CF00081918093F100615071092F5F3F4FE7CFE1
:100D000080917205882341F0853041F08091E800A0
:100D100083FFBECF81E0089582E0089583E00895C7
:100D2000089580916705089508950895982F907FFC
:100D3000903BE9F040F49039D1F0903AC1F090380E
:100D4000B1F080E00895903D19F020F4903CC9F78F
:100D500082E00895903E59F0903F99F7815F8F307F
:100D600080F7E82FF0E0E154FE4F8081089583E0A2
:100D70000895CF92DF92EF92FF920F931F93CF933C
:100D8000DF9300D000D000D00F92CDB7DEB78C013A
:100D900008511F4F80917205843009F087C08091FF
:100DA0004B018F708093E9008091E80082FF7EC044
:100DB0008091E80085FF7AC00E942505811113C04B
:100DC00084E0E82EF12CCE0101966C018091E800C0
:100DD00085FD61C08091E8008B778093E8000E94D8
:100DE0002505882399F38091E80085FD05C0809151
:100DF000E8008B778093E800FA808F2D0E9496069A
:100E0000282FFD828B818E838C818F8321110BC0D3
:100E10008981843041F1873031F1863031F121E030
:100E2000853009F0B7CF30E0E5E0F0E0EC0FFD1FD2
:100E3000E30FF11DF0804FB7F894D8011196EC91B3
:100E40001197F0E0CF01019612966C9170E00E942C
:100E50006230D8015C915817190649F44FBF3F5FC3
:100E6000321710F397CF23E0DECF22E0DCCF1396CA
:100E70008D919C911497E80FF91FF08211968C9137
:100E8000119790E0019612966C9170E00E9462308A
:100E9000F8018183E3CF8091F100D6018D936D013C
:100EA000B1E0EB1AF10809F091CF9DCF27960FB66C
:100EB000F894DEBF0FBECDBFDF91CF911F910F9190
:100EC000FF90EF90DF90CF900895DF92EF92FF9226
:100ED0000F931F93CF93DF9300D000D0CDB7DEB731
:100EE0007B01142FD22E4A832B830C83842F0E94E4
:100EF0009606811141C082E0E816F104C1F183E059
:100F0000E816F10439F0EA94EF2829F5173F29F49F
:100F100085E004C087E0073F09F084E08983809181
:100F200072058430C1F4809146018F708093E9008E
:100F300050E040E064E070E0CE0101960E9456056A
:100F4000811109C08091E80085FD05C08091E8000D
:100F50008E778093E8000F900F900F900F90DF91A5
:100F6000CF911F910F91FF90EF90DF90089587EF41
:100F7000D812D3CF86E0D2CF12951F701983CFCF6E
:100F80009C014FB7F89480915E0590915F05A09108
:100F90006005B09161054FBF821B930B08952FB779
:100FA000F89460915E0570915F0580916005909165
:100FB00061052FBF08952FB7F89480915E05909139
:100FC0005F05A0916005B09161052FBF08959C0158
:100FD000FC0132969FEF80E04191461751F09F3F10
:100FE00019F4411101C0982F8F5F8630A9F79F3FF8
:100FF00009F40895290F311D97FD3A95F90162838F
:10100000089520915705309158052817390771F038
:101010009093580580935705E0915505F09156053A
:10102000309721F00084F185E02D099408952091F6
:101030005305309154052817390771F090935405E2
:1010400080935305E0915505F0915605309721F0B6
:101050000680F781E02D09940895FC01680F791F3F
:101060008FEF91E32191822728E030E087FF09C0CC
:10107000880F892721503109C9F7E617F70791F73B
:101080000895880FF7CFFA01811101C0FB0109947F
:10109000EFE6F4E0818360834283339695E0E335A5
:1010A000F907C1F70895FC01EE0FFF1FE80FF91FC4
:1010B000E159FB4F6183408322830895E7EBF5E01C
:1010C000248130E1231B08F420E0248381E0809315
:1010D000B6050895E7EBF5E0248130E1230F08F42D
:1010E0002FEF248381E08093B6050895E7EBF5E0C8
:1010F000438120E1421B08F440E08181628190E05D
:101100000C940304E7EBF5E0438120E1420F08F47F
:101110004FEF8181628190E00C940304E7EBF5E0EE
:10112000628120E1621B08F460E08181438190E0EC
:101130000C940304E7EBF5E0628120E1620F08F410
:101140006FEF8181438190E00C940304E7EBF5E0BD
:101150008181438162818850990B0C940304E7EBF1
:10116000F5E0818190E04381628108960C9403044C
:101170008091B70586958695815009F483E10C949A
:10118000EC038091B705869586958F5F843108F0D2
:1011900081E00C94EC03EF92FF920F939701201BD8
:1011A00031092F3F310519F010F02FEF30E0209575
:1011B000382F320F08F43FEF832F0F91FF90EF90FD
:1011C0000895EF92FF920F939701201B31092F3F53
:1011D000310519F010F02FEF30E0322F3095482F05
:1011E000430F08F44FEF842F620F0F91FF90EF90A1
:1011F0000895EF92FF920F93972F093438F4B701B7
:10120000601B71096F3F710519F010F06FEF70E00E
:10121000485F5F4F4131510540F0A901485F5F4F82
:101220004131510510F06FEF70E06095482F460F87
:1012300008F44FEF842F37FF02C02D5F3F4F3595E5
:101240002795359527956091B805620F792F0F91F5
:10125000FF90EF900895EF92FF920F93970195E022
:10126000099F200D311D11242F3F310519F010F079
:101270002FEF30E02095382F320F08F43FEF832F07
:101280000F91FF90EF9008950F931F93522F10E04E
:10129000F801EE0FFF1FED5DFD4FA081A052BB0BCB
:1012A0009D015203F001539FF00D1124000F111FF7
:1012B000D801AE5DBD4F0C910057110B400390015A
:1012C000419F300D11242E0F3F1F37FF02C0215CBC
:1012D0003F4F96E0359527959A95E1F7620F1F915C
:1012E0000F9108950F931F93522F10E0F801EE0F06
:1012F000FF1FED5DFD4FA081A052BB0B9D0152036E
:10130000F001539FF00D1124000F111FD801AE5DA5
:10131000BD4F0C910057110B40039001419F300DC0
:1013200011242E0F3F1F37FF02C021583F4F220FBD
:10133000232F221F330B620F1F910F910895EF92FD
:101340000F93972F23E0029FB001112475956795A5
:101350006E0D792F0F91EF900895322F50E0FA0122
:10136000EE0FFF1FED5DFD4F9081905297FD91951F
:10137000440F551FFA01EE5DFD4F2081231B330BF7
:10138000290F311D97FD3A95620F0895E42FF0E083
:10139000EE0FFF1FED5DFD4F6081621B0895622F10
:1013A0000895E42FF0E0EE0FFF1FEE5DFD4F40814A
:1013B00034EE439F412D1124E82FF0E050E0445ECD
:1013C0005F4FDA01A21BB1099D01B7FF03C0319540
:1013D0002195310993E0220F331F9A95E1F7AF0170
:1013E000421B530B9A0157FD20E0582F259F212DBA
:1013F0001124822F08950C9448080C94530822E875
:10140000241B08F420E0620F0895FC019B01009763
:1014100029F480E077FF2BC080E80895AC0197FFA6
:1014200004C044275527481B590BB901640F751F89
:1014300037FD10C0241B350BC901A5E0880F991F8B
:10144000AA95E1F70E94623080E2861BF7FF0FC089
:1014500081950895CB0165E0880F991F6A95E1F7A2
:10146000BA01621B730B0E94623080E6EECF0895D2
:10147000EF920F93CF93DF93D72FC82FC9010E1987
:10148000BA010E94050A602F681B7D2F8C2FDF9107
:10149000CF910F91EF9008950F93CF93DF93D72FB4
:1014A000C82FC901BA010E94050A682F600F7D2F5D
:1014B0008C2FDF91CF910F910895EF920F931F938F
:1014C000CF93DF93D62FC72F182FC9010E19010F05
:1014D000BA010E94050A081B202F219F212D1124EB
:1014E000822F6D2F7C2FDF91CF911F910F91EF9065
:1014F00008950F931F93CF93DF93D62FC72F182FE5
:10150000C901212F201B022FBA010E94050A982F22
:10151000990F990F891B800F282F219F212D1124AE
:10152000822F6D2F7C2FDF91CF911F910F91089506
:10153000E82F86FDE0952E2F2F7086FD2F5FE69514
:10154000E695E695E670F0E0E954FE4F9181929FB2
:10155000902D212D112492959F702295207F922B02
:101560002081920F87FD919580E8890F0895AC0145
:101570008230910508F408959FEF413E8EE15807AF
:1015800040F49A0195E0369527959A95E1F798E011
:10159000920F61E0E62FE90FFF27FF1F9F013595AE
:1015A0002795822F229FF001239FF00DF00D11242B
:1015B0004E175F0738F49FEF920F961758F78FEF8B
:1015C000860F08952F3FE9F361E0620FF6CF0F9386
:1015D000CF93DF93D72FC82F47FD419588E390E045
:1015E000841B910947FD9395889FB001899F700DD9
:1015F000700D1124229FC001239F900D900D112486
:10160000860F971F0E94B70A982F990F890F682F8E
:10161000600F7D2F8C2FDF91CF910F91089530E0D7
:1016200020E0869F212D969F200D311D1124C90198
:101630000895AF92BF92CF92DF92FF920F931F93C4
:10164000CF93DF93362F472FE82FF0E0E456FB4F80
:1016500071110FC0E4918E2F2E2F6E2F722FDF91FC
:10166000CF911F910F91FF90DF90CF90BF90AF90DF
:101670000895C72FD0E02491F22E022F10E056E0FB
:10168000659FC0011124EFEFF0E0BF010E944E30D2
:10169000832F90E0880F991F35E5369FD001379F43
:1016A000B00D11248A1B9B0B982F990F980F6F0177
:1016B000CC1ADD0AC09ED001C19EB00DD09EB00DE7
:1016C00011248B2F499FA0011124452F55276F010D
:1016D000C41AD50AC09EA001C19E500DD09E500DC7
:1016E00011245F01A91AB108AC9E6001AD9ED00C17
:1016F000BC9ED00C1124CD2CDD24EC19FD09E09FFB
:10170000E001E19FD00DF09FD00D1124ED2F62304C
:101710007105A1F050F46115710509F49ECF613097
:10172000710581F0EB2F852F98CF6430710569F03A
:1017300080F06630710509F490CFF4CFE22F2B2FA3
:101740008D2F8BCFE22F252F88CFEB2F822F2D2FA0
:1017500084CF2B2F8F2DE52F80CF2F923F924F924A
:101760005F926F927F928F929F92AF92BF92CF9231
:10177000DF92EF92FF920F931F93CF93DF93CDB73A
:10178000DEB728970FB6F894DEBF0FBECDBF9D839E
:101790008C83209152012295207F2E83205F298304
:1017A0002A832D3410F03CE43A83809180058B83AA
:1017B000FE81EF2FF0E0F887EF83CF01880F991FAC
:1017C0009C012E5D3D4F6901EA81FF81FE17F0F01B
:1017D00081E029812C3408F080E028960FB6F89437
:1017E000DEBF0FBECDBFDF91CF911F910F91FF9054
:1017F000EF90DF90CF90BF90AF909F908F907F90B1
:101800006F905F904F903F902F900895EF81F885F3
:10181000E654FD4F808190915301892321F120905E
:10182000B8053090B9058FE9482E85E0582E90E82C
:10183000A92E95E0B92E10E08A2D20E835E0821B14
:101840003B818317C8F02091BA05129F112D1124F6
:10185000B101812F0E94190B462F282F672F8F81EE
:1018600098850E94FD098F819885019698878F83BE
:1018700092E0C90ED11CA8CFF6018080F5018181CC
:10188000881A9908F6016180F5018385681A77083E
:10189000889C9001899C300D300D1124669CC001FC
:1018A000679C900D900D1124820F931F0E94B70A20
:1018B000082F6091BB0521E0620F08F46FEFF20181
:1018C000819191912F010E940F0B7C019301A40142
:1018D000B101812FEC81FD8109951B01FFEFAF1A4A
:1018E000BF0A182FA9CF9F92AF92BF92CF92DF92DB
:1018F000EF92FF920F931F93CF93DF936C01C091F0
:101900005201C295C07F10E11C0FB12E1D3410F0A2
:101910003CE4B32E6091BB056695669580917C058D
:1019200090917D050E940F0BF82E80E48F0D0E9490
:10193000980A90E8A92EA80E8F2D0E94980A20E8F8
:10194000922E980ED0E0CB1580F081E01C3408F088
:1019500080E0DF91CF911F910F91FF90EF90DF908A
:10196000CF90BF90AF909F900895FE01E654FD4F39
:101970008081909153018923A1F06091B805709105
:10198000B9058091BA05EF2C0C2F292D4A2DF601AF
:1019900009950E94190B462F282F672FCE010E9410
:1019A000FD092196D0CF7F928F929F92AF92BF92E6
:1019B000CF92DF92EF92FF920F931F93CF93DF931B
:1019C0005C01C0915201C295C07F10E11C0FF12E45
:1019D0001D3410F03CE4F32E6091BB0566958091B8
:1019E0007C0590917D050E940F0B782ED0E0CF15DD
:1019F00090F081E01C3408F080E0DF91CF911F91DE
:101A00000F91FF90EF90DF90CF90BF90AF909F909D
:101A10008F907F900895FE01E654FD4F8081909154
:101A200053018923C9F1CE01880F991F82539E4F1C
:101A3000FC01EC5AFF4F2081422F4057550B6A01A1
:101A40008B5A9F4FFC018081282F2052330B490174
:101A5000449F9001459F300D300D1124889CC0019A
:101A6000899C900D900D1124820F931F0E94B70A3C
:101A7000082F6091B8057091B9058091BA05E72CDF
:101A80009401A601F50109950E94190B462F282FF4
:101A9000672FCE010E94FD092196A9CFCF92DF9238
:101AA000EF92FF920F931F93CF93DF937C01C0912E
:101AB0005201C295C07F10E11C0FD12E1D3410F0D1
:101AC0003CE4D32E6091BB05669580917C05909196
:101AD0007D050E940F0BC82ED0E0CD1568F081E087
:101AE0001C3408F080E0DF91CF911F910F91FF909F
:101AF000EF90DF90CF900895FE01E654FD4F808176
:101B000090915301892311F1CE01880F991F8253BF
:101B10009E4FFC01EB5AFF4F20812052330B8C5A11
:101B20009F4FFC0140814057550B6091B805709163
:101B3000B9058091BA050C2DF70109950E94190B82
:101B4000462F282F672FCE010E94FD092196C5CF71
:101B5000DF92EF92FF920F931F93CF93DF937C015D
:101B6000C0915201C295C07F10E11C0F012F1D349E
:101B700008F00CE46091BB056695669521E0620F64
:101B800008F46FEF80917C0590917D050E940F0B0A
:101B9000D82ED0E0C01760F081E01C3408F080E05F
:101BA000DF91CF911F910F91FF90EF90DF900895FB
:101BB000FE01E654FD4F808190915301892391F0FD
:101BC0006091B8057091B9058091BA052D2D4C2F03
:101BD000F70109950E94190B462F282F672FCE0178
:101BE0000E94FD092196D6CFEF92FF920F93CF93DB
:101BF000FB018F3A2CE5920708F085C08F395CE530
:101C0000950708F0A0C180396CE5960750F5833838
:101C10007CE5970708F052C181382CE5920760F403
:101C200087375CE5950708F02FC18F326CE5960782
:101C300008F0DBC0C1E022C181387CE5970709F4D8
:101C400030C182389C45B1F78281882309F4E7C00E
:101C500080916B04982F9F70993008F0E0C09F5FCF
:101C60002BC18D395CE59507A0F582396CE59607A7
:101C700008F042C180397CE5970709F42BC181390E
:101C80009C45C1F68281882309F4C9C020916B0468
:101C9000822F859585958595859586300CF0BFC0FA
:101CA00091E0980F9295907F95959595959595953E
:101CB000392F3295307F2F70232B20936B04181609
:101CC0000CF0ADC097FFABC08295807F922F9F70C4
:101CD000E4C08D395CE5950709F41CC18E399C453B
:101CE00009F0A8CF8281882309F499C080916C04FF
:101CF000982F9F779F3709F492C0933708F021C13E
:101D0000935F9F7705C1853B7CE5970709F473C115
:101D1000B8F5813B5CE5950709F445C1D8F48F3AE5
:101D20007CE5970709F421C1803B9C4509F082CFEF
:101D30008281882309F473C020916C04322F331FF1
:101D40003327331F90916D04892F8770880F832B61
:101D50008F5F1CC130916C0420916D044281833BE4
:101D60005CE5950709F43DC108F42EC141114FE728
:101D7000832F881F8827881F2770220F62E42DC1B8
:101D8000883B7CE5970709F447C180F4863B5CE516
:101D9000950709F430C1873B9C4509F04BCF828100
:101DA000811138C18FEF8093220439C08A3B7CE5D2
:101DB000970709F467C108F450C18B3B9C4509F0B3
:101DC00039CFC28180916C04982F991F9927991F50
:101DD00080916D048770880F892BCC2309F462C130
:101DE0006FEF7FE10E94C2031AC000916C04202FA4
:101DF000221F2227221F40916D044770440F422B5F
:101E00000F77C28121ED280F30E0B9016D5D7B4F66
:101E10007B01FB012081CC2309F12F3F11F0C0E0B1
:101E20002DC090916B04C92FC595C595C595C595D5
:101E3000CF529F70FCE09F9FC00D1124C80F2C2F24
:101E40002F774069E091BD05F091BE0563E070E039
:101E50008DEB95E00995F701C083E1CF2F3F59F055
:101E60002F774068E091BD05F091BE0563E070E01A
:101E70008DEB95E009958FEFF70180838C2FCF9143
:101E80000F91FF90EF9008952281222341F287570E
:101E9000982F9F7080916B04807F892B80936B04B7
:101EA000BECF8281882309F4BACF80916B04982F2A
:101EB0009F7009F4B4CF915F9F70EECF22812223EF
:101EC00009F4ADCF8958982F9295907F80916B043B
:101ED0008F70E3CF8281882309F4A1CF80916B04B6
:101EE000982F95959595959595959B3F0CF497CF43
:101EF000915F9295907FECCF2281222309F48FCFBE
:101F000082599CE0899F902D11249F7780916C04C9
:101F1000807815C08281882309F481CF80916C0478
:101F2000982F9F7709F47BCF80789F3721F48567BE
:101F300080936C0474CF9D30D8F39D509F77892B8C
:101F4000F7CF8F67F5CF2281222309F468CF8F590D
:101F500090916C0480FB97F990936C048695877040
:101F600090916D04987F892B75C08281882309F434
:101F700056CF20916C04322F331F3327331F90919B
:101F80006D04892F8770880F832B815F382F3F70F6
:101F900080FB27F920936C04832F8695987F982BDC
:101FA00090936D043CCF8281882309F438CF9091BF
:101FB0006C04991F9927991F80916D048770880F71
:101FC00040E06BE7892B0AC041114FE7832F881F40
:101FD0008827881F2770220F60E4822B0E94DB0372
:101FE0001ECF41114FE7832F881F8827881F277036
:101FF000220F61E4F2CF828140E081114FE790919E
:102000006C04991F9927991F80916D048770880F20
:1020100063E4D8CF81E0C7CE8281882309F4FFCE64
:1020200090916D04292F2695269526952F7081E095
:10203000820F8F70880F880F880F9778892B809375
:102040006D04982F987709F0EACE220F220F220F05
:102050008778822B80936D04E2CE8281882309F4F5
:10206000DECE80916D04982F987709F4D8CE982F02
:10207000969596959695915F9F70990F990F990FE8
:10208000877871CFC28180916C04982F991F99270E
:10209000991F80916D048770880F892B60E070EE26
:1020A000C111A0CE70E060E00E94C203E7CE80E0E4
:1020B000089578940895F894E82FE295EF70F0E091
:1020C00031A1282F2F7081E090E001C0880F2A9560
:1020D000EAF7982F9095932391A392A1892B82A33D
:1020E0000C9459109091B30392FF06C0282F2871C9
:1020F0002830F9F4877F846093FF06C0282F287169
:102100002831F1F4877E84612091B40320FF06C05A
:10211000382F38713830D9F4877F816021FF06C0AD
:10212000282F28712831D1F4877E816194FD877E24
:102130000895282F24712430F9F68B7F8860DCCF36
:10214000282F2471243101F78B7E8861DDCF382F51
:102150003171313019F78E7F8860E0CF282F2171DF
:10216000213121F78E7E8861E1CFCF93DF93EC019F
:102170008238910581F1B0F58133910509F491C060
:1021800020F58932910509F485C08A9709F490C039
:10219000C11521E5D20708F0AAC0C11530E5D30763
:1021A00008F0F2C0CF3BD10508F089C0C83AD1058C
:1021B00008F0DFC0C53AD10508F0D3C0C430D1055E
:1021C000F8F4C130D105E1F040C08533910509F440
:1021D0005AC0C997E9F68091B303837089F0C0EEC5
:1021E000D0E00EC0833E910599F170F4803E9105D8
:1021F00001F1823E910561F68091B30382FD21C019
:10220000CE01DF91CF910895863E910561F1873E21
:10221000910571F1843E910509F0BACF8091B40324
:1022200081FFEECF8091B303C7EED0E084FD0DC0F7
:10223000E7CF8091B30380FDF7C09091B40390FF86
:10224000DFCFC3EED0E084FFDBCFD0E0C0E0D8CF5B
:102250008091B30382FDEBC09091B40390FDBFCF9A
:1022600084FFCECFF2CF8091B30383FDDDCFC8CF03
:102270008091B30383FDDEC09091B40391FFF0CF52
:10228000C4EED0E0BDCF8091B30385FFB9CFC9E2E2
:10229000D0E0B6CF8091B30385FFB2CFC5E3D0E0E5
:1022A000AFCF8091B30386FFABCFCAE2D0E0A8CF17
:1022B0008091B30386FFA4CFC1E3D0E0A1CFC115C5
:1022C00040E2D40760F4C11581E0D80708F098CF48
:1022D000CE01805E9109089708F492CFB6CFC11560
:1022E00090E4D90708F4B1CFDF70D06A89CFC11567
:1022F00024E5D20778F4C11533E5D30708F072C09E
:10230000C11542E5D40708F05CC0DC2FCC27C16FB3
:10231000D06A76CFC1158AE5D80778F4C11599E55A
:10232000D90708F073C0C11528E5D20708F48DCF8E
:10233000DC2FCC27C06FD06A63CFCE0190568115B9
:10234000904208F082CF8D2F8F710E94721090E022
:10235000982F882788279F719C012C2BE901D06238
:102360004FCFC55AD0E0CF59DE4FC881D0E0D064FE
:1023700047CFC85AD0E0CC0FDD1FCC59DE4F0990B3
:10238000D881C02DD4643CCFCE0164E0969587956A
:102390006A95E1F783702C2F26952695237040E2ED
:1023A000249F90011124382B8C2F8370C1E0D0E042
:1023B00002C0CC0FDD1F8A95E2F7C22BD32BDC685D
:1023C0001FCFCE018370992721E030E002C0220F99
:1023D000331F8A95E2F7C695C69580E2C89FE00153
:1023E0001124EBCFCE018370992721E030E002C0A9
:1023F000220F331F8A95E2F7C695C69590E2C99FD2
:10240000E0011124C22BD32BDA68FACE8C2F8F7007
:102410000E94721034E0D695C7953A95E1F7CF70D7
:102420009C2FEC01D069ECCEC9E3D0E0E9CEC2EE3E
:10243000D0E0E6CEC6EED0E0E3CE0C94CF0780919C
:10244000830390918203892B90918103892B809340
:102450000803E0915505F0915605309731F0028060
:10246000F381E02D88E093E0099408958091800342
:1024700090914F03981301C008958F5F8770FACF32
:10248000AF92BF92CF92DF92EF92FF920F931F9382
:10249000CF93DF93C0900704D0900804E090090424
:1024A000F0900A0440918403509185036091860363
:1024B00070918703C42AD52AE62AF72ACFE1D0E013
:1024C000082F10E027E0929F000D111D112494E5C4
:1024D000A92EBC2ED701C6010C2E04C0B695A79517
:1024E000979587950A94D2F780FD0FC0219788F7BA
:1024F000B12C8B2DDF91CF911F910F91FF90EF9019
:10250000DF90CF90BF90AF900895AC9EF001AD9E4C
:10251000F00D1124E00FF11FEE0FFF1FE455FF4FE8
:10252000859194910E94B510019701F3E2CFCF936A
:10253000DF93EC010E944012EC2FF0E097E0D99F6E
:10254000E00DF11D112494E5899FE00DF11D11248A
:10255000EE0FFF1FE455FF4F85919491DF91CF91CE
:102560000C94B51027E0929F800D1124982F97703E
:1025700086958695869525E0829FF0011124EE5E72
:10258000FC4F50E040E080E0219130E0092E02C095
:10259000369527950A94E2F721703327042E01C05F
:1025A000220F0A94EAF7822B4F5F5F4F45305105A7
:1025B00059F7089527E0929F800D1124982F977066
:1025C00041E001C0440F9A95EAF786958695869575
:1025D00095E0899FF0011124EE5EFC4F90E080E0D1
:1025E00070E05191DF0111979B01082E02C03695D2
:1025F00027950A94E2F72170219525272423252782
:102600002C9301968530910561F70895FC01808136
:1026100091810E949712292F2F7092959F7092504E
:102620009E3078F4E92FF0E0EB55FE4C0C947630B8
:10263000803F19F020F4883E20F481E00895843F23
:10264000E1F380E00895883EC0F3813FD1F7F5CFF4
:10265000822F869586958695089590E080E00E9469
:10266000170890E080E00E94010810928203109207
:1026700081030C941F1260930704709308048093E5
:10268000090490930A040C942D130F931F9341E0B7
:1026900050E060E070E004C0440F551F661F771FD4
:1026A0008A95D2F7CB01BA01609570958095909587
:1026B00000910704109108042091090430910A0444
:1026C00060237123822393231F910F910C943B135A
:1026D0000F931F9341E050E060E070E004C0440FAE
:1026E000551F661F771F8A95D2F780910704909136
:1026F0000804A0910904B0910A048A019B01082BE7
:10270000192B2A2B3B2BC901B8011F910F910C9457
:102710003B136093840370938503809386039093A7
:1027200087030C942D13882341F0809590918203A8
:102730008923809382030C941F120895882339F013
:1027400090918203982B909382030C941F1208950A
:10275000882341F08095909183038923809383039C
:102760000C941F120895882339F090918303982BBD
:10277000909383030C941F1208958823B1F19CEF6A
:10278000980F913A70F4EAE0F3E09191891303C055
:10279000DF0111971C9243E0E031F407B1F70C948C
:1027A0001F1290E2980F983088F4877021E030E093
:1027B000A90102C0440F551F8A95E2F7CA0180950E
:1027C00090918303892380938303E9CF9BE5980F3E
:1027D000933020F490E080E00C941708885A8731F9
:1027E00020F490E080E00C9401080895CF93C82F66
:1027F000882309F44EC08CEF8C0F813AF8F4EAE09C
:10280000F3E080E193E0DF012D91C21759F08A17C0
:102810009B07D1F76C2F88E093E00E94E707CF91E8
:102820000C941F122191C21303C0DF0111971C9257
:102830008E179F07B9F70E941F12ECCF80E28C0F12
:10284000883068F4C77021E030E001C0220FCA95DB
:10285000EAF780918303822B80938303E0CFEBE53B
:10286000EC0FE33040F4F0E0EF59FE4F808190E050
:10287000CF910C941708C85AC73158F4EC2FF0E0E8
:10288000EE0FFF1FEC59FE4F80819181CF910C9488
:102890000108CF9108959C013A9521153F4150F5CB
:1028A000FC01EE27F170BC0166277270AC01442771
:1028B00054709C012227387094FF0EC080E1EF2BEA
:1028C00009F480E0672B09F08062452B09F08064F1
:1028D000232B89F08068089581E0EF2B09F480E0D4
:1028E000672B09F08260452B09F08460232B19F0D7
:1028F0008860089580E008951F93CF93DF93C62FDB
:10290000D42F122FFC018281882399F06093B505A2
:102910000E94DB079093B4058093B305C77081E0F4
:1029200001C0880FCA95EAF7DF91CF911F910C94EF
:10293000B3138091B505681343C08091B30590919E
:10294000B4050E94C007883C9105D0F5CD17C9F0A9
:1029500080E28C0F883040F4C77081E001C0880F9E
:10296000CA95EAF70E94A81380E28D0F883048F4D8
:1029700081E09D2F977001C0880F9A95EAF70E9419
:10298000B313812F0E94F6138AE090E0EFE9FFE095
:102990003197F1F700C000000197C1F7812F0E9425
:1029A000BD1380E28D0F883090F4D77081E001C0B4
:1029B000880FDA95EAF7DF91CF911F910C94A81355
:1029C000C77081E001C0880FCA95EAF7F4CFDF91A4
:1029D000CF911F91089590917205943031F58093B5
:1029E0006205709364056093630582E08093E9005B
:1029F0008FEF9091E800815095FD06C095ED9A9576
:102A0000F1F700008111F5CF8091E80085FF0DC03E
:102A100050E040E063E070E082E695E00E945605F9
:102A20008091E8008E778093E8000895BC0184E0EF
:102A30000C94EB14BC0183E00C94EB14CF93DF9364
:102A4000EC0181E08093E9008FEF9091E8008150E4
:102A500095FD06C095ED9A95F1F700008111F5CF2F
:102A60008091E80085FF14C050E040E068E070E02D
:102A7000CE010E9456058091E8008E778093E80091
:102A800088E0FE01A8E6B5E001900D928A95E1F795
:102A9000DF91CF910895539A3BB1377F2BB12860D6
:102AA0004FB7F8948FE694E0FC015191CF0168E0B4
:102AB0002BB9000000C057FF3BB9550F000000C004
:102AC00000C000C03BB900C06A9591F7F5E08335BE
:102AD0009F0751F74FBF8FE594E00197F1F700C0D2
:102AE000000008959F92AF92BF92CF92DF92EF9233
:102AF000FF920F931F93CF93DF937C015B016A01D9
:102B00008091B10301E010E08A3010F40AE010E097
:102B1000C1E0D0E0F894B501C701F6010995982EFF
:102B20000E945910911004C021960C171D076CF4D7
:102B3000892DDF91CF911F910F91FF90EF90DF9042
:102B4000CF90BF90AF909F900895CC9F9001CD9F64
:102B5000300D300D112490E080E045E34A95F1F707
:102B60000000019682179307C1F7D4CF809191039B
:102B7000811110C08091D80080618093D8008AE1D3
:102B80008A95F1F700C08091D90080FF0AC081E0EA
:102B90008093910381E090919103913009F080E05E
:102BA000089582E0809391030E94060510927205B9
:102BB000F1CF0F931F930E94B615882321F01F9128
:102BC0000F910C94CF070E94CF07009159051091E7
:102BD0005A0520915B0530915C05600F711F821FC3
:102BE000931F1F910F910895CF92DF92EF92FF9262
:102BF0006B017C010E94B6158823A1F02FB7F894D1
:102C000060915E0570915F0580916005909161050E
:102C10002FBF6C197D098E099F09FF90EF90DF90FF
:102C2000CF9008950E94D915F4CF0E94B61588233D
:102C300051F0E0915505F0915605309721F0019043
:102C4000F081E02D099480E00895CF92DF92EF9219
:102C5000FF920F931F93CF93DF9300D000D000D04B
:102C6000CDB7DEB7082F813009F04DC084E0689FF2
:102C7000F0011124E75AFE4F1081E280F3808E2D7F
:102C8000912F0E944012F701FF2797E0199FE00D56
:102C9000F11D112494E5899FE00DF11D1124EE0F23
:102CA000FF1FE455FF4FC590D490E9821A838CE250
:102CB000C8168CE5D806F0F5760190EEE91AF10811
:102CC000C6010E944B14182F88E0E816F10418F092
:102CD000C114D10441F5812F0E94B3138C2D0E94A1
:102CE000F6138FE39CE90197F1F700C000008C2DEB
:102CF0000E94BD13812F98E0E916F10410F0CD2851
:102D0000B1F40E94A81381E026960FB6F894DEBFB6
:102D10000FBECDBFDF91CF911F910F91FF90EF902C
:102D2000DF90CF900895812F0E949E13D7CF0E94ED
:102D30009313E9CF0B83BE016F5F7F4FC6010E94E3
:102D4000F40D8FE39CE90197F1F700C000001B82AE
:102D5000BE016F5F7F4FC6010E94F40DD4CFCF92AA
:102D6000DF92EF92FF920F931F93CF93DF93182F71
:102D700080914401811323C09091B70593702091F5
:102D8000430130E081E09217130609F480E081707E
:102D9000809354018091BC0590915301981739F0AC
:102DA0008093530140E060E080E00E94FB09143111
:102DB00088F4E12FF0E0ED54FE4C0C94763081E085
:102DC000E6CF809154018823C1F140E060E080E0CB
:102DD0000E94FB0980E031C0C0915201C295C07FC2
:102DE00000E10C0FF02E0D3410F02CE4F22E609167
:102DF000B8057091B9058091BA050E94190BE62EAD
:102E0000D72EC82ED0E0CF1520F081E00C34A8F0EA
:102E1000E1CFFE01E654FD4F80819091530189235B
:102E200031F02C2D4E2D6D2DCE010E94FD092196E5
:102E3000EACF81ED99E00E94A80D909152019F5F29
:102E40009093520181110CC082E0809355018091D2
:102E50005401811105C0111103C083E08093550115
:102E6000DF91CF911F910F91FF90EF90DF90CF9066
:102E7000089589E79AE00E944E0DDFCF8DE59AE034
:102E80000E94D30CDACF8FEC99E0D5CF86EC99E095
:102E9000D2CF8DEA99E0CFCF8FE999E0F1CF87EEDD
:102EA0009AE0E9CF8CE49AE0E6CF88E39AE0E8CFB5
:102EB00082E799E00E94730CC0CF84E499E0FACFD6
:102EC000C0915201C295C07F00E10C0FD02E0D348D
:102ED00010F09CE4D92E2091BB0531E0230F08F4BB
:102EE0002FEF30E050E040E06FEF7FEF80E090E0C8
:102EF0000E9440317901D0E02C2FCD1508F085CF0C
:102F0000FE01E654FD4F808190915301892311F118
:102F1000409180054150042E000C550B47FF1CC00A
:102F2000C7016091BB0521E0620F08F46FEF0E94BA
:102F30000F0BAC016091B8057091B9058091BA058D
:102F40000E94FF090E94190B462F282F672FCE01E0
:102F50000E94FD092196D0CFFA01E058FA4F8589E9
:102F600082130AC0FA01EE0FFF1FE058FA4F878D57
:102F700090A18E159F05A8F241505109CFCF8BE249
:102F800099E00E94AD0B59CF89EF98E0FACF81EE1E
:102F900098E0F7CF8BEC98E0F4CFC0915201CF5F6F
:102FA000C295C07F0E94C830D82F0E94C8306D2FB4
:102FB000782F8091BA050E94190B482F872F0E9405
:102FC000FB0981E0CC3408F438CF04CFE7EBF5E01F
:102FD00085E080838091560190915701A09158011E
:102FE00081839283A3838FE784838FEF858346E079
:102FF00050E06CE170E0CF010C940C31CF9384E091
:1030000090E00E94FE30C82F82E290E00E94FE30E5
:10301000982F8C2FCF910895CF93DF9300D000D0BD
:10302000CDB7DEB74091AD035091AE036091AF03D1
:103030007091B0032FB7F89480915E0590915F0571
:10304000A0916005B09161052FBF841B950BA60B65
:10305000B70B84369105A105B10568F10E94D91519
:103060006E5F7F4F8F4F9F4F69837A838B839C83E3
:1030700080912F019091300180569C4F40912E01FC
:1030800050E04530510510F044E050E0BE016F5F64
:103090007F4F0E94E53084E090E00E949A2F892BB8
:1030A00061F40E94CF076093AD037093AE038093E9
:1030B000AF039093B00381E001C080E00F900F90C8
:1030C0000F900F90DF91CF9108956F927F928F9222
:1030D0009F92AF92BF92CF92DF92EF92FF920F93A7
:1030E0001F93CF93DF930F92CDB7DEB7862E5A0191
:1030F0006901682E880F7708C3010E949A2F892BD7
:1031000009F088C08AE0869DF001879DF00D1124AA
:10311000EC5FFE4F458150E04115510511F041E053
:1031200050E08AE0869DF001879DF00D1124EC5F50
:10313000FE4F6681778160567C4FCE0101960E94DA
:10314000E530F50140815181628173812FB7F89498
:1031500080915E0590915F05A0916005B091610539
:103160002FBF841B950BA60BB70B84369105A105C9
:10317000B10540F4B701C8010E942D089981891753
:1031800009F44FC0082C000C9908C4010E949A2F22
:10319000892B91F0B12C8B2D0F90DF91CF911F9146
:1031A0000F91FF90EF90DF90CF90BF90AF909F90E6
:1031B0008F907F906F9008958AE0889DF001899D9F
:1031C000F00D1124EC5FFE4F458150E0E416F5064A
:1031D00008F4A7018AE0889DF001899DF00D112473
:1031E000EC5FFE4F6681778160567C4FC6010E947E
:1031F000E530B701C8010E942D0899818913CACF13
:103200000E94CF07F5016083718382839383BB247F
:10321000B394C1CFB12CA701B801C6010E94E5301B
:10322000BACFBB24B394F7CFCF92DF92EF92FF9245
:103230000F931F93CF93DF930F92CDB7DEB7EE249A
:10324000E394F12C08EA13E09E012F5F3F4F4CE915
:1032500053E063E082E00E946518082F882321F183
:10326000C090C3038C2D90E09C01245F3B4F7901FB
:103270001981F9018081181BD12E80E00AC0DA94EF
:10328000F70180818F5F808360E08C2D0E9425167E
:10329000802F1D14A4F3912F17FD90E0191B11111D
:1032A0000EC081110E941D12802F0F90DF91CF91CF
:1032B0001F910F91FF90EF90DF90CF9008951F5FC7
:1032C000F70180818150808361E08C2D0E9425165A
:1032D000802FE5CFCF92DF92EF92FF920F931F9353
:1032E000CF93DF9300D000D000D0CDB7DEB76B0115
:1032F00086E0E82EF12C01EA13E09E012F5F3F4F9C
:1033000048E953E061E080E00E946518882349F0B5
:1033100096E0FE013196A2E9B3E001900D929A95F4
:10332000E1F796E0E2E9F3E0D60101900D929A957B
:10333000E1F726960FB6F894DEBF0FBECDBFDF9142
:10334000CF911F910F91FF90EF90DF90CF90089554
:103350009F92AF92BF92CF92DF92EF92FF920F9324
:103360001F93CF93DF93CDB7DEB762970FB6F89474
:10337000DEBF0FBECDBF8E010F5F1F4F8CE0D801A7
:103380001D928A95E9F784E9C82E81E0D82EF12CA8
:10339000E12CAA24A394B12CF60181916F018F3FF7
:1033A00009F44AC0F894E82FE295EF70F0E021A10B
:1033B0008F70A50102C0440F551F8A95E2F7CA011C
:1033C000922F982B91A392A18095892382A30E948A
:1033D000591000C0E0EAF1E030E020E0912C41918A
:1033E0004F3F09F46CC0A42FA295AF70B0E0909647
:1033F0008C9190E04F7002C0959587954A95E2F7C1
:1034000080FD5DC08A2D022E01C0880F0A94EAF764
:10341000982A2F5F3F4F2730310509F7F601319782
:1034200080818F3F11F00E945B1050EA5A95F1F7AE
:10343000F801EE0DFF1D90828FEFE81AF80A96E072
:10344000E916F10409F0A8CF4CE050E0B80185EB93
:1034500093E00E94D8307C01892B41F08CE0F80188
:10346000A5EBB3E001900D928A95E1F71091C203AC
:10347000E114F10431F181E080938A030E94DB07BB
:1034800090938903809388038091880390918903A6
:103490000E94C007059770F0A5EBB3E0E12FF0E0C4
:1034A000EC53FC4F8D91819323E0AB3BB207D1F7F6
:1034B00010928A03EF2849F081E090E057C080E045
:1034C000A7CF80918A038111DFCF0E94B615D82E35
:1034D000E091C203AE01435F5F4F7A01882309F494
:1034E0007FC086E0DA011D928A95E9F70E2F10E081
:1034F0000C531C4F8091B1038A3008F049C04AE652
:1035000059E1B701C8010E947215882309F457C018
:1035100044E159E1B701C8010E947215882309F4FA
:103520004EC04CE058E1B701C8010E9472158823D3
:1035300009F445C01092B103E091C103F0E0BF016E
:103540006C537C4FD7019E012D5E3F4F80E0FB0105
:103550004191BF019D91491731F0AF01415051098F
:10356000FA0190838D2DA217B30789F762960FB6E3
:10357000F894DEBF0FBECDBFDF91CF911F910F91A9
:10358000FF90EF90DF90CF90BF90AF909F90089505
:1035900080918B0390918C030E94C007843F9140DF
:1035A00008F0ADCFE091C103F0E0EC53FC4F90E0A8
:1035B00080E01192019686309105D9F77DCF8091F8
:1035C000B1038F3F31F08F5F8093B1038A3008F4ED
:1035D000B3CF0E94DB0790938C0380938B03E2CFE1
:1035E000F0E0EC53FC4FF89486E0A1EAB3E00190E0
:1035F0000D928A95E1F766E070E081EA93E00E941F
:103600002D088093A0030E945910F894E0910F04B4
:10361000F0E0E45FFB4F80818D878093A80361E039
:1036200070E0C7010E942D088093A7030E945910E3
:10363000F894C090A903D090AA03E090AB03F09057
:10364000AC0380918D0390918E03A0918F03B09174
:103650009003C816D906EA06FB06D1F0C0928D0386
:10366000D0928E03E0928F03F09290030E94B615E1
:1036700081110EC00E94CF07C61AD70AE80AF90ABC
:10368000C0925905D0925A05E0925B05F0925C0514
:103690000E94591080E06ACF69EE7EEF90E080E0F2
:1036A0000E943A3160E082E090E00E941C3160E0CC
:1036B00083E090E00E941C311092840310928503F5
:1036C000109286031092870360E084E090E00E94ED
:1036D0001C3160E082E290E00E941C3160E085E0F5
:1036E00090E00E941C3160E086E090E00E941C3176
:1036F0006FEF87E090E00E941C3140E050E0BA019B
:1037000088E090E00E942E3160E08DE090E00E9421
:103710001C3140E050E0BA0188E190E00E942E3177
:1037200060E087E190E00E941C3140E050E0BA0187
:103730008CE190E00E942E3170E060E080E290E049
:103740000E943A3140E050E0BA0188E190E00E94E6
:103750002E3140E050E0BA018FE090E00E942E311F
:103760008091B705837011F4109255018091B705CF
:103770008C7F81608093B70581E08093B6058FE7E9
:103780008093BB054FEF6FEF8AEA90E00E9403043D
:103790008EE00C94EC0310928303EAE0F3E086E001
:1037A000DF011D928A95E9F70C942D131F93CF9397
:1037B000DF93CDB7DEB7AA970FB6F894DEBF0FBE82
:1037C000CDBF84E795E02091F100FC012193CF016A
:1037D000F5E08C379F07B9F780917505833009F4C0
:1037E0006FC0B8F4813009F446C0823009F4B0C02B
:1037F0008091E80083FF85C28091740590917505E2
:103800009A3008F07EC2E92FF0E0E953FE4C0C94A8
:1038100076308A3009F48BC08B3009F46EC0893061
:1038200039F780917405813219F78091780590916C
:1038300079050297E8F68091E800877F8093E80099
:103840008091E80082FF37C09091F3008091F200F0
:10385000029729F48091F1008B7F813021F48091CF
:10386000F100809367058091E8008B778093E800F2
:103870000E948005BDCF80917405813A09F0B8CFD0
:103880008091E800877F8093E8008091780590918F
:103890007905892B61F468E088E695E070E00E9484
:1038A00032068091E8008B778093E800A1CF60E03A
:1038B00090E080E0F3CF809172058111C1CF98CF65
:1038C00080917405813A09F093CF809178059091A9
:1038D0007905892B09F08CCF8091E800877F809350
:1038E000E8008091E80080FFFCCF80915101809337
:1038F000F1008091E8008E77B9CF80917405813214
:1039000009F076CF8091780590917905892B09F09F
:103910006FCF8091E800877F8093E8000E94800548
:1039200080917605809351010E94CB1B61CF8091DD
:103930007405813209F05CCF8091E800877F809325
:10394000E8000E948005809177058093660550CF3E
:1039500080917405813A09F04BCF8091E800877F10
:103960008093E8008091E80080FFFCCF809166059D
:10397000BECF803899F0823809F0C3C180917805B4
:103980008F70873008F0BDC18093E9008091EB0013
:1039900085FB882780F91092E90006C080917005A8
:1039A00090917105911182609091E800977F9093BA
:1039B000E8008093F1001092F1008091E8008E778A
:1039C0009CC1882309F48AC1823009F09AC1809190
:1039D000760581118DC1809178058F702FEF280FAA
:1039E000263008F08EC18093E9002091EB0020FF83
:1039F0007FC1933031F48091EB0080628093EB00C3
:103A000077C19091EB0090619093EB0021E030E062
:103A100001C0220F8A95EAF72093EA001092EA008B
:103A20008091EB008860EACF81116BC1109176051F
:103A30001F778091E3008078812B8093E300809151
:103A4000E800877F8093E8000E9480058091E8006D
:103A500080FFFCCF8091E30080688093E30082E0E8
:103A6000111183E0809372054CC18058823008F0B8
:103A700048C180917605909177058C3D23E09207AF
:103A8000A1F583E08A838AE289834FB7F894DE0147
:103A9000139620E03EE051E2E32FF0E05093570010
:103AA000E49120FF03C0E295EF703F5FEF708E2F2F
:103AB00090E0EA30C0F0C7968D939D932F5F24313C
:103AC00059F74FBF8091E800877F8093E8006AE252
:103AD00070E0CE0101960E9432068091E8008B775B
:103AE0008093E8000EC1C096E7CF409178055091D1
:103AF0007905292F33272330310509F444C078F59F
:103B00002130310509F46FC08FE990E0EEE0F6E076
:103B10002230310509F0F5C02091E800277F20937D
:103B2000E80020917A0530917B058217930708F40D
:103B30009C0140E02115310509F064C0411162C0CB
:103B40008091E80082FDC9CF80917205882329F217
:103B5000853019F28091E80083FFF2CFBECF213289
:103B60003105A9F12232310509F0CBC041155105CB
:103B700009F443C04130510509F0C3C082E390E02D
:103B8000ECE9F5E0C9CF992781309105C1F00097A4
:103B900059F0029709F0B5C0EFEBF6E0E4918E2FF3
:103BA00090E0EFEBF6E007C0EDEEF6E0E4918E2F4B
:103BB00090E0EDEEF6E0009709F4A3C0ADCFEDED97
:103BC000F6E0E4918E2F90E0EDEDF6E0F4CF4115B4
:103BD000510571F04130510509F093C089E090E042
:103BE000E9E3F6E099CF82E190E0EDEAF6E094CFE8
:103BF00089E090E0E0E2F6E08FCF80E490E0EEEC48
:103C0000F5E08ACF80917205882309F466CF85306C
:103C100009F463CF8091E80083FD5FCF8091E800D5
:103C200082FD8ECF8091E80080FF84CF9091F300D9
:103C30008091F2002115310519F08830910550F07E
:103C400041E0089709F040E08091E8008E7780938A
:103C5000E80070CF44914093F10031962150310932
:103C60000196E8CF803809F04CC08091E800877F4A
:103C70008093E800809173058093F1009ECE8111BE
:103C800040C0109176051230E0F58091E800877F02
:103C90008093E800109373050E948005112311F0B2
:103CA00084E005C08091E30087FDFACF81E0809336
:103CB000720542E061EC81E00E949F0542E261EC06
:103CC00082E00E949F0542E361E883E00E949F0535
:103CD00042E361E884E00E949F0513C0809176056D
:103CE000813079F481E0933009F080E080937105B0
:103CF0001092E9008091E800877F8093E8000E949D
:103D000080058091E80083FF0AC08091E800877FEA
:103D10008093E8008091EB0080628093EB00AA968C
:103D20000FB6F894DEBF0FBECDBFDF91CF911F91CC
:103D300008958F929F92AF92BF92CF92DF92EF92AF
:103D4000FF920F931F93CF93DF9300D000D00F9279
:103D5000CDB7DEB77C01FC0183819481892B39F0DA
:103D60001081D180812F8D218F3F09F04CC40F909D
:103D70000F900F900F900F90DF91CF911F910F91A7
:103D8000FF90EF90DF90CF90BF90AF909F908F907B
:103D900008950E944012082F682F89819A810E94FD
:103DA000DA12E12FF0E027E0D29EE00DF11D1124A0
:103DB00044E5049FE00DF11D1124EE0FFF1FE455B3
:103DC000FF4F05911491B701C8010E94F40D88239B
:103DD00071F2043F5CE5150709F496C028F5093D2A
:103DE0009CE5190709F48CC00A3DECE51E0709F4AF
:103DF00097C0083DFCE51F0729F526E241EE61EE7C
:103E0000C7010F900F900F900F900F90DF91CF91FF
:103E10001F910F91FF90EF90DF90CF90BF90AF90E8
:103E20009F908F900C947C14063F2CE5120709F4A8
:103E300073C008F46DC027E245EE66EE073F5CE50F
:103E40001507F1F2F7019281992309F4EDC310925D
:103E5000B5050230FCE51F0708F43EC106312CE52C
:103E6000120738F098012B5F3C452930310508F0E6
:103E700033C10E94FE179093B4038093B3030031C3
:103E80004CE5140709F4F7C008F085C008308CE54C
:103E9000180709F4E6C008F054C00430ECE51E072A
:103EA00009F4D3C008F03FC002302CE5120709F432
:103EB000C6C08091B303826003301C4509F4C2C0C0
:103EC0006091B3031091B40384E090E00E941C3130
:103ED000612F82E290E00E941C310F900F900F90B2
:103EE0000F900F90DF91CF911F910F91FF90EF9066
:103EF000DF90CF90BF90AF909F908F900C94CB1B92
:103F000027E245EE65EE7CCF26E241EE60EE78CF0B
:103F100027E245EE64EE74CF26E241EE62EE70CF0A
:103F200028E241E0EFCF8091B303806106305CE589
:103F3000150709F487C008F48CC08091B303806230
:103F400081C08091B3038D7F0C309CE5190709F483
:103F500079C070F48091B3038C600A30FCE51F07D0
:103F600009F470C008F481C08091B3038E7F6AC0E9
:103F70008091B303877F0E304CE5140709F462C0CB
:103F80008091B3038B7F0F301C4508F45BC0809198
:103F9000B3038F7E57C00C3F8CE5180709F45DC052
:103FA00030F50331ECE51E0709F46DC078F40131FA
:103FB0002CE5120709F463C002311C4509F080CFDB
:103FC0000E94CB1B8091B3038F773CC005315CE529
:103FD000150709F460C008F474C08091B4038160CF
:103FE0000B3F1C4509F06CCF8093B40369CF0115DA
:103FF000EDE51E0709F44BC088F48091B4038D7F72
:104000000E3F2CE5120781F38091B4038E7F0F3FA2
:104010001C4550F38091B4038360E6CF02305DE528
:10402000150709F457C008F442C060E003301D458D
:1040300009F046CF8EE090E00E941C3141CF809184
:10404000B30381608093B3033BCF8091B30384605B
:10405000F9CF8091B3038860F5CF8091B40382607B
:10406000C3CF8091B3038064EDCF0E94CB1B8091BE
:10407000B3038068E7CF8091B3038F7DE3CF809156
:10408000B3038F7BDFCF8091B303837FDBCF80913E
:10409000B4038C7FA9CF8091B30382FB992790F959
:1040A00021E0922790FB82F990FB83F9CBCF80919E
:1040B000B403982F909591708E7F892B90FB81F996
:1040C00093CF0E94CB1B9091B303892F97FB87F965
:1040D0008058B8CF61E0AECF0631ECE51E0709F09D
:1040E000BBC2809183038A7A91E009F490E09093B7
:1040F000110369E2811165E388E093E00E94E7071C
:104100000F900F900F900F900F90DF91CF911F9114
:104110000F91FF90EF90DF90CF90BF90AF909F9066
:104120008F900C941F1285E389C248EB58E061EC34
:1041300078E00F900F900F900F900F90DF91CF913C
:104140001F910F91FF90EF90DF90CF90BF90AF90B5
:104150009F908F900C94430841EC58E068EB78E016
:10416000E8CF46EA58E06FEA78E0E3CF4FEA58E05C
:1041700066EA78E0DECF4EE858E06AE978E0D9CF29
:104180004AE958E06EE878E0D4CF42E858E066E7C4
:1041900078E0CFCF4AE658E06EE578E0CACF0E94DB
:1041A000CB1BFFEF24E34CE0F15020404040E1F70F
:1041B00000C0000087E797E790930108809300080C
:1041C00088E19AE00FB6F894A895809360000FBE3E
:1041D00090936000FFCF0F900F900F900F900F9073
:1041E000DF91CF911F910F91FF90EF90DF90CF90D3
:1041F000BF90AF909F908F900C944C1B902F0E947B
:10420000B212D82E42C2092F0F70907F11F0029582
:10421000007F812F2223C9F0002369F090E2910FE3
:10422000983010F011110BC080918303082B00937C
:1042300083030E941F12812F0E94F61317C08091E2
:104240008203082B00938203F4CF0E94BD13002346
:1042500069F00095105E183010F0B11030C08091F8
:1042600083030823009383030E941F1298E0C91A56
:10427000D108E4E0CE16D10410F40E94151685E0B2
:10428000F701DE01119601900D928A95E1F789817F
:104290009A810E94B2129A81E981F0E027E0929F10
:1042A000E00DF11D112444E5849FE00DF11D112462
:1042B000EE0FFF1FE455FF4F8591949158CD8091EB
:1042C0008203082300938203CFCF892F8F70907FC2
:1042D000903211F08295807FF1E0BF120EC0222350
:1042E00031F0363008F0C2CF0E94B313BFCF353063
:1042F00008F0BCCF0E94A813B9CF222341F033238A
:1043000099F340FF98CF4F70F7014583EDCF3323EA
:1043100089F3193309F06FC1FFEF27EE43E0F15045
:1043200020404040E1F700C00000812F0E94BD13F3
:104330009DCF892F86958695837061F0813009F035
:1043400095CF812F9370211102C090E080E00E94F0
:1043500001088CCF812F9370211102C090E080E082
:104360000E94170883CF892F837009F065C021113F
:104370007DCF812F829586958770880F880F612F5A
:104380006F70862E912CB12CA12C082E04C0880CA5
:10439000991CAA1CBB1C0A94D2F740E050E0BA0159
:1043A00014FF0FC04FE050E060E070E004C0440F25
:1043B000551F661F771F8A95D2F7409550956095D7
:1043C0007095969596959370923019F1D8F4009166
:1043D00084031091850320918603309187039130E7
:1043E00069F0482959296A297B29CB01BA01602340
:1043F0007123822393230E94891338CF802A912A24
:10440000A22AB32ACB01BA01682979298A299B29D2
:10441000F2CF482959296A297B29009184031091F8
:1044200085032091860330918703CB01BA01602771
:10443000712782279327DFCF8695222311F0892FBA
:104440008170882309F412CF812F82958695877019
:10445000880F880F612F6F70862E912CB12CA12CA4
:10446000082E04C0880C991CAA1CBB1C0A94D2F705
:1044700040E050E0BA0114FF0FC04FE050E060E0B0
:1044800070E004C0440F551F661F771F8A95D2F74E
:10449000409550956095709596959695937092304D
:1044A00019F1D8F40091070410910804209109042F
:1044B00030910A04913069F0482959296A297B29E9
:1044C000CB01BA0160237123822393230E943B1303
:1044D000CDCE802A912AA22AB32ACB01BA0168291B
:1044E00079298A299B29F2CF482959296A297B29C8
:1044F00000910704109108042091090430910A04E6
:10450000CB01BA016027712782279327DFCF092FBC
:104510000F70222329F0802F0E946813812FE4CE90
:10452000812F0E94A813802F0E9445139FCE812FB8
:10453000E1EF1E1709F442C0E11758F0F0EF1F1722
:10454000F1F0222309F44BC0311175CE892F8F7100
:104550003AC042EF1417D1F153EF1513F2CF2223D3
:10456000D1F1292F2F7161E070E080E090E004C06C
:10457000660F771F881F991F2A95D2F7A7CF22238E
:10458000C9F0353008F072CE292F2F7161E070E04C
:1045900080E090E004C0660F771F881F991F2A955E
:1045A000D2F700910704109108042091090430917A
:1045B0000A04A8CF363008F059CEE6CF892F8F7184
:1045C000222309F4B1CF0E94681350CE892F8F7136
:1045D0002223C9F3A9CF60E070E0CB0177CF33236A
:1045E00079F0893341F48FEF97EEE3E0815090400A
:1045F000E040E1F798CE8FE39CE90197F1F793CE85
:10460000892F8F7191CF85E0DE01119601900D9277
:104610008A95E1F7F701228189819A812111B9CB2D
:104620000E94B212082FBDCB0631FCE51F0709F02E
:1046300055C080911103811176CD89E2EAE0F3E063
:1046400020E133E09191891303C0DF0111971C929F
:104650002E173F07B9F754CD01152CE5120709F4C1
:104660009ECD0F3D1C4509F4B6CDF70110810181A7
:10467000812F992309F4C2CD902F0E944012D82E89
:10468000682F812F902F0E94DA12E12FF0E027E0AF
:10469000029FE00DF11D112444E5D49EE00DF11DB3
:1046A0001124EE0FFF1FE455FF4F859194910E9456
:1046B000B510182FB82EF70122814581342F32957D
:1046C0003F70892F82958F70C82ED12C8C3008F0C6
:1046D000CDCDF601EF52FE4C0C94763080918303E1
:1046E00082720B3C5CE5150709F44FCD88F5063C5A
:1046F000FCE51F0709F435CDB0F4043C4CE5140784
:1047000009F413CD08F028CD033C1C4509F0ADCFCA
:104710008091B70591E089278093B70510925501E4
:104720009093B60524CB083CECE51E0709F423CD95
:1047300008F41CCD093C2CE5120709F421CD0A3CF4
:104740001C4509F092CF46E758E062E878E0F1CCEA
:10475000013D5CE5150730F50F3C9CE5190708F0B5
:1047600006CB0D3CECE51E0709F414CD4EE558E0F0
:104770006AE678E00E3C1C4508F4DBCC81E00F9043
:104780000F900F900F900F90DF91CF911F910F918D
:10479000FF90EF90DF90CF90BF90AF909F908F9061
:1047A0000C94EC03073D2CE5120728F48AE0023D47
:1047B0001C4528F3DCCA0E351D4509F4D8CA55CF6F
:1047C0001F93CF93DF9380914E03807FA9F4809154
:1047D0004B03882389F080918003D0914F0360912F
:1047E000490370914A03A0914C03B0914D03C62F29
:1047F000C72316E0D81304C0DF91CF911F9108950D
:1048000090E0109711F0CF3F19F401968770F2CF26
:10481000189F9001199F300D1124F901E05BFC4FA6
:1048200041814713F2CF40814613EFCF42814111BE
:10483000ECCF438154814A1B5B0B483C510528F760
:1048400080914E038F70806180934E03F901EB5A83
:10485000FC4F80818F708061808389E493E00E94A7
:10486000991EDF91CF911F910C943612AF92BF9297
:10487000CF92DF92EF92FF920F931F93CF93DF932C
:10488000CDB7DEB761970FB6F894DEBF0FBECDBFD0
:104890008C0185E0F801DE011D9601900D928A954C
:1048A000E1F7F801E28089E4A82E83E0B82E609158
:1048B0004C0370914D036115710509F432C190915B
:1048C000490340914A03892F84238F3F09F429C16A
:1048D00020813181C380D480F0904B03F601E61B28
:1048E000F70BFF2009F4E8C080914E03582F507F4A
:1048F000E83CF10508F0ABC0511177C0FE2C431322
:1049000021C092131FC0E1101DC08F708061809381
:104910004E03C5010E94991E80914E03F8018583C4
:104920008F2D61960FB6F894DEBF0FBECDBFDF911D
:10493000CF911F910F91FF90EF90DF90CF90BF909C
:10494000AF900895CD2829F0822F83238F3F09F05F
:1049500003C180E0F82FF170DF2E80FF3CC0809112
:10496000800340914F0356E0841315C02D873E8786
:104970008D859E850E949712292F22952F702230B7
:10498000F0F0243018F59F70F1F0F8019581907FD8
:10499000D1F4D12C1EC090E0589FF001599FF00D2A
:1049A0001124E05BFC4F6181361306C06081261341
:1049B00003C06281E6120FC001968770D5CF9F7049
:1049C00011F0882331F3805E883018F3C8010E940B
:1049D000991EFD2CA5CFEE2009F4A2CF80914E03A5
:1049E000816080934E03F12C9BCF431306C092133A
:1049F00004C0F801EE2009F479C0C8010E94061332
:104A0000882309F1EE20F9F080914E03803270F096
:104A10002091490330914A0338872F831986DB861A
:104A2000CA868C87CE0107960E94991E86E0F801FF
:104A3000A9E4B3E001900D928A95E1F70E94E0238A
:104A4000FF24F3946DCFC8010E94991EF9CF511134
:104A50000AC089E493E00E94991E86E0F501119254
:104A60008A95E9F7C0CF43130FC092130DC0E11030
:104A70000BC0F8018583C8010E94991E86E0F501EC
:104A800011928A95E9F74CCFC8010E94061388233A
:104A9000D1F2EE20C1F280914E03803238F22091A3
:104AA000490330914A033A8329831B82DD82CC82F9
:104AB0008E83CE010196B8CFE83CF105F8F6FE2CC6
:104AC000EE2009F243131FC092131DC080914E03C4
:104AD00080FD10C0982F907F69F0F8018583903F8A
:104AE00031F0982F907F905F8F70892B8583C8015C
:104AF0000E94991E86E0F801A9E4B3E001900D92AE
:104B00008A95E1F70DCFC8010E94061381118ECF5F
:104B100080914E03816080934E03C8010E94991ECC
:104B2000FFCEEE2009F48FCFC8010E940613F82EA5
:104B3000882309F488CF86E0F801A9E4B3E0019066
:104B40000D928A95E1F78091490390914A030E9462
:104B500097120E94E023E4CE81E08E25FBCE1F93C6
:104B6000CF93DF93CDB7DEB767970FB6F894DEBF6C
:104B70000FBECDBF4B8B5C8B6D8B7E8B8F8B611192
:104B8000109282031A8A198A85E0FE017396DE016B
:104B90001D9601900D928A95E1F786E0FE013D9603
:104BA000DE01179601900D928A95E1F7CE010796E6
:104BB0000E943624882389F016E08091800390912A
:104BC0004F03891349C067960FB6F894DEBF0FBE36
:104BD000CDBFDF91CF911F91089586E0FE013796FA
:104BE000DE01119601900D928A95E1F78A859B85E9
:104BF000892B11F38F81988589238F3FE9F22091CA
:104C00004F0330E0C90101968770992740918003D6
:104C10004817190671F40E94CB1B10924F03109293
:104C2000800386E0E9E4F3E0DF011D928A95E9F76D
:104C3000C3CF96E0929FD001939FB00D1124A05B4B
:104C4000BC4FFE01319601900D929A95E1F7809349
:104C50004F030E943612B0CF819FC0011124805BA8
:104C60009C4F0E943624882309F4ADCF80918003A5
:104C700090E0019687709927809380039ECF1F92C2
:104C80000F920FB60F9211242F933F934F935F9380
:104C90006F937F938F939F93AF93BF93CF93DF9344
:104CA000EF93FF93D091E900DF708091EC00C82F63
:104CB000C17080FDC0E81092E9008091F000877F0C
:104CC0008093F00078940E94D61B1092E9008091A6
:104CD000F00088608093F000CD2BCF70C093E90086
:104CE000FF91EF91DF91CF91BF91AF919F918F9104
:104CF0007F916F915F914F913F912F910F900FBED8
:104D00000F901F9018951F920F920FB60F921124BB
:104D10002F933F934F935F936F937F938F939F93C3
:104D2000AF93BF93EF93FF938091E10082FF09C09F
:104D30008091E20082FF05C08091E1008B7F80932B
:104D4000E1008091DA0080FF24C08091D80080FFCC
:104D500020C08091DA008E7F8093DA008091D900A4
:104D600080FF9BC080E189BD82E189BD09B400FE5E
:104D7000FDCF81E08093720580916505811109C0A6
:104D80000E9406050E94D1058091E2008460809314
:104D9000E2008091E10080FF17C08091E20080FF77
:104DA00013C08091E2008E7F8093E2008091E20048
:104DB00080618093E2008091D80080628093D80067
:104DC00019BC85E0809372058091E10084FF29C0C1
:104DD0008091E20084FF25C080E189BD82E189BD28
:104DE00089B5982F917080FFFBCF8091D8008F7D7F
:104DF0008093D8008091E1008F7E8093E1008091C4
:104E0000E2008F7E8093E2008091E20081608093D7
:104E1000E20080917305882309F445C084E0809303
:104E200072058091E10083FF27C08091E20083FF3B
:104E300023C08091E100877F8093E10082E080932E
:104E40007205109273058091E1008E7F8093E100DE
:104E50008091E2008E7F8093E2008091E200806189
:104E60008093E20042E060E080E00E949F05809134
:104E7000F00088608093F000FF91EF91BF91AF91B7
:104E80009F918F917F916F915F914F913F912F9162
:104E90000F900FBE0F901F90189519BC10927205BD
:104EA0001092650576CF8091E30087FD93E09093A3
:104EB0007205B7CF78941F921FB61F9211248F935B
:104EC0009F93AF93BF9380915E0590915F05A091F2
:104ED0006005B09161050196A11DB11D80935E052D
:104EE00090935F05A0936005B0936105BF91AF916A
:104EF0009F918F911F901FBE1F9018951F921FB6F4
:104F00001F9211248F939F93AF93BF9380915D0560
:104F1000811113C080915E0590915F05A09160059D
:104F2000B09161054196A11DB11D80935E059093DE
:104F30005F05A0936005B0936105BF91AF919F910C
:104F40008F911F901FBE1F901895CDB7DEB72A977F
:104F50000FB6F894DEBF0FBECDBF84E080936B0424
:104F60008FE780936C0480916D04807880648093D7
:104F70006D04E3E2F4E08BE694E02FEF21938E17CB
:104F80009F07E1F71092110410922204109213046B
:104F9000109212041092E2051092E4051092E305BB
:104FA00080EC8093A70685EE95E09093A906809308
:104FB000A8061092A6061092A5061092C20510929D
:104FC000C1051092C4051092C3051092C605109237
:104FD000C5051092C8051092C7051092CA05109217
:104FE000C9051092CC051092CB051092CE051092F7
:104FF000CD051092D0051092CF051092D2051092D7
:10500000D1051092D4051092D3051092D6051092B6
:10501000D5051092D8051092D7051092DC05109294
:10502000DB0585E697E09093BE058093BD0589EB8F
:1050300096E09093DE058093DD0585E996E09093F8
:10504000DA058093D90584E996E09093C0058093B2
:10505000BF0584B7877F84BF0FB6F894A895809169
:105060006000886180936000109260000FBE80E84D
:1050700090E00FB6F89480936100909361000FBEAA
:1050800085B7806885BF85B7806885BF87E590E173
:1050900090930703809306030E9406050E94D105A2
:1050A0008091E20084608093E200789480917205A0
:1050B0008823A1F01091E9001F709091EC00892FD6
:1050C000817090FD80E8182B1092E9008091E80033
:1050D00083FD0E94D61B1F701093E90082E084BDFF
:1050E00093E095BD9AEF97BD80936E00109259059D
:1050F00010925A0510925B0510925C059091B203D4
:10510000911108C00E94B61592E0811101C091E092
:105110009093B20381E0913009F080E080933601F2
:105120000E94B61581110E948D2E809136018091CA
:10513000360196E0811190E09093C20386E0891BCE
:105140008093C10304E911E09AE9E92E91E0F92E78
:10515000D8018D918D018F3F11F00E945B10E016F8
:10516000F106B1F700EA11E087EAE82E81E0F82EB7
:10517000F80181918F018F3F11F00E945B10E016C2
:10518000F106B1F7E5EBF3E081EC93E0A4ECB3E0DA
:1051900011921D928E179F07D9F790E080E00E9430
:1051A0000631893E9E4F11F00E944C1B82E090E038
:1051B0000E94FE30809315040E94FE179093B40362
:1051C0008093B30383E090E00E94FE30682F70E08C
:1051D00090E080E00E94891310928005EFE9F5E0ED
:1051E00083EB95E02FEF3FEF219331938E179F07CD
:1051F000D9F71092D003EFEEF3E083E094E02FEFC5
:105200003FEF219331938E179F07D9F790E080E00D
:105210000E940631893E9E4F21F00E944C1B0E9445
:10522000E61746E050E06CE170E087EB95E00E9405
:10523000EE308091B7058C7F11F40E94E6170E9432
:10524000B615811102C00E94902E80913601811105
:1052500006C085EF8093420184EF80934101209145
:105260004201A22FA295AF70B0E091963C91919728
:105270002F7081E090E0BC01022E01C0660F0A94FD
:10528000EAF7462F4095432391964C939197929637
:105290003C919297362B92963C9392974091410184
:1052A000E42FE295EF70F0E031A14F70042E01C0C1
:1052B000880F0A94EAF7982F9095932391A392A1CF
:1052C000892B82A390968C9190E002C0959587954A
:1052D0002A95E2F7817020A130E002C0359527952C
:1052E0004A95E2F792E020FF90E0892B809310042A
:1052F0009091360181E0982790930F04891B809349
:10530000C30380916B04807F826080936B048091E3
:105310006C048078856780936C0487E00E94EC03BE
:1053200087E391E09093560580935505B8E12B2EC5
:10533000312CCC24C39480917205853089F4F0E43B
:10534000FF2EA3E0EA2E00E112E180917205853084
:1053500009F4DAC10E94CB1B0E94151610920B04AF
:105360000E94A81981110E94CF07E6E1F4E0A4ECA5
:10537000B3E010E000E0A02EBD9081918B1509F400
:1053800029C28B25F12CEE24E394982F9E2109F459
:105390001CC20E94B615BE20882399F0F982AA8209
:1053A00081E0B11001C080E08B830E94DB07816047
:1053B000782F9D838C8349815A816B818D810E94D6
:1053C000AF25F801EA5EFB4F8081E826E0820E946B
:1053D000B615882309F45FC0BB2089F087E0809F61
:1053E000F001819FF00D1124E253FE4FEF0DF11DEE
:1053F0008081B12C8F3F19F0D82EBB24B3940B2D94
:1054000010E08091D003800F912F911D0B976CF1CC
:105410008AE090E07C01E01AF10AB8016F527C4FFB
:10542000A70181ED93E00E94E530B80165527C4F01
:10543000A7018BED93E00E94E530A701440F551FB3
:10544000B801660F771F61517C4F8FEE93E00E9489
:10545000E530B8016B517C4FA70185EE93E00E94C7
:10546000E5308AE08B198093D0038091D00390E0DF
:10547000AD2DB0E09D01220F331F2E5D3D4FAA0FD1
:10548000BB1FBD016D5D7D4F41E0480F9B1508F4CA
:1054900087C18093D00360910304709104048091CC
:1054A0000504909106040E94F4154B015C010E94D2
:1054B000D9156093030470930404809305049093BA
:1054C0000604A091D003E0EDF3E02A2F30E044245D
:1054D0004A94542C612C712C481859086A087B088E
:1054E000A3138FC12093D00320910B0410E021114E
:1054F00008C02091B705122F137019F0122F1695BE
:10550000169520915501213009F4A4C1222309F4F4
:105510008BC1223009F49CC2233009F4A6C2E09169
:105520001004EE0FEE0F20914201A22FA295AF7052
:10553000B0E090968C9190E02F7002C09595879581
:105540002A95E2F78170992740914101A42FA295F5
:10555000AF70B0E090962C9130E04F7002C035955E
:1055600027954A95E2F7A9014170552720FF02C00F
:1055700042E050E0842BE82BE093100410910F04DC
:10558000EF70F0E0E955FE4F808190910E04890F95
:1055900080930E0420E0843064F0E12FF0E0E45FBB
:1055A000FB4F80818F5F808360E0812F0E942516F2
:1055B00021E080910E048D3F64F4E12FF0E0E45F80
:1055C000FB4F80818150808361E0812F0E942516EE
:1055D00021E080910E04082E000C990B64E070E02D
:1055E0000E94623080930E0421110E941D12E091EE
:1055F000DD05F091DE05309719F08DEB95E009950A
:105600009FB7F8944090A6068091A506481608F426
:105610004DC2481A9FBF10E000E0512C83E0A82E35
:10562000B12CEE24E394F12C24E0722E0415150520
:1056300008F440C280911204909113040E94C007A4
:1056400020916D042695269526952F70281719060A
:1056500009F060F50E94DB07909313048093120415
:1056600080912204882311F190916C04991F99274D
:10567000991F80916D048770880F4091110461E03B
:10568000892B0E94DB03809122049091110487FFF3
:10569000C5C2A82FBB27A1950CF4B0959A171B067D
:1056A0000CF0BCC210921104109222040E94151634
:1056B00090911404891721F00E9415168093140408
:1056C00080917205843009F036CE809146018F704A
:1056D0008093E9009091E80090FF2DCE90917205A3
:1056E000943009F028CE8093E9009091F3008091E6
:1056F000F200892B09F41FCE8091E8008E77809309
:10570000E8000E94250517CE80917205843009F4C7
:1057100035C080910B0481110DC00E94AF1610920C
:1057200044018091B7058370809343010E944B151B
:10573000E092550141E040930B0410925D050FB6D5
:10574000F894A895209260000FBEF092600083B795
:10575000817F846083BF83B7816083BF789488959D
:1057600083B78E7F83BF0FB6F894A89580916000B1
:10577000886180936000109260000FBE8091710577
:10578000882309F4E2CD0E94A819E4ECF3E08191AA
:1057900081114CC280ED93E08E179F07C1F7D5CDE4
:1057A00090E0FC01E053FC4FD9015C915183DB0197
:1057B0005C915387D58A880F991FFC01E053FC4FF9
:1057C00010A2178E91E0842F5FCEF394EE0C27E0A9
:1057D000F212DBCD0F5F1F4F0C30110509F0CBCD5E
:1057E0008FEF8E838F8318860E94DB078160782F6E
:1057F0009A8789874E815F8168858A850E94AF2557
:105800004ACE478D50A17A0110E000E04E145F04AB
:105810006006710620F421503F5F329661CE480D3C
:10582000591D50A3478FF8CF1092520160937C0509
:1058300070937D0580937E0590937F0583E3E0ED73
:10584000F3E0A0E8B5E001900D928A95E1F7C092EF
:10585000550165CE812F0E94AF16112309F45FCE4A
:105860008091B705837009F45ACE40910704509196
:1058700008046091090470910A04CB01AA27BB2790
:105880000097A105B10509F4D9C0AC01BD0180E1C3
:10589000052F162F272F3327011511052105310557
:1058A00019F0885FB901A8018A019B01F4E03695DF
:1058B000279517950795FA95D1F70115110521053B
:1058C000310519F08C5FB901A8018A019B01E2E062
:1058D0003695279517950795EA95D1F70115110586
:1058E0002105310519F08E5FB901A80176956795FC
:1058F00057954795452B462B472B09F08F5F8130F5
:1059000009F49EC0853009F00ACE20E049E163E346
:105910008EE290E00E94FD0923E343E363E380E32A
:1059200090E00E94FD0923E343E363E38CE390E00E
:105930000E94FD0920E043E363E389E490E00E94D4
:10594000FD0920E043E363E388E490E00E94FD0961
:1059500020E043E363E381E090E00E94FD0920E062
:1059600043E360E08DE090E00E94FD0920E043E326
:1059700063E38EE090E00E94FD0920E043E360E0F5
:1059800089E190E00E94FD0923E340E060E086E0C9
:1059900090E00E94FD0923E340E060E089E090E0B0
:1059A0000E94FD0923E340E060E082E190E00E9474
:1059B000FD0923E340E060E085E190E00E94FD09FD
:1059C00023E340E060E08DE190E00E94FD0923E3E5
:1059D00040E060E080E290E00E94FD0923E340E0C7
:1059E00060E084E290E00E94FD0923E340E060E093
:1059F00087E290E00E94FD0923E340E060E08FE150
:105A000090E00E94FD0923E340E060E085E290E041
:105A10000E94FD0926E249E163E386E290E00E94EC
:105A2000FD0920E040E063E388E290E00E94FD0988
:105A300020E049E163E389E290E007C080E028CFFD
:105A400023E343E363E390E080E00E94FD0967CD38
:105A5000109344018091B7058370809343010E94A5
:105A60004B1583E0809355015ACD8091B60588236C
:105A700041F046E050E06CE170E087EB95E00E9479
:105A80000C311092B60560917C0570917D05809176
:105A90007E0590917F050E94F415603171058105A6
:105AA000910508F43CCD1092550139CD2091A706FF
:105AB000420EAFCD8091A50690E06091A70670E000
:105AC0000E9462302091A8063091A906280F391F44
:105AD000D9019C908090E205B7EFB915E0F4C0922F
