:100000000C94F2030C940F040C940F040C9487319D
:100010000C940F040C940F040C940F040C940F0414
:100020000C940F040C940F040C94AF2A0C946B2ABC
:100030000C94AC2B0C940F040C940F040C940F0430
:100040000C940F040C940F040C940F040C940F04E4
:100050000C940F040C94882B0C940F040C940F0434
:100060000C940F040C940F040C940F040C940F04C4
:100070000C940F040C940F040C940F040C940F04B4
:100080000C940F040C940F040C940F040C940F04A4
:100090000C940F040C940F040C940F040C940F0494
:1000A0000C940F040C940F040C940F040000000037
:1000B0000000000000000000000000000000000040
:1000C0000000000000000000000000000000000030
:1000D0007E0F00D4FFFFFFC7000000780000000083
:1000E000000000002A2B2800000000000000000093
:1000F0000000000000000029000000002C1E342039
:10010000212224342627252E362D3738271E1F205E
:100110002122232425263333362E37381F040506A3
:100120000708090A0B0C0D0E0F10111213141516E7
:100130001718191A1B1C1D2F3130232D35040506E5
:100140000708090A0B0C0D0E0F10111213141516C7
:100150001718191A1B1C1D2F3130354C62616E6443
:100160006F6D696E65646F6E693A6C6564204020DE
:10017000302E31372E362D35382D6765646537348E
:10018000362D6469727479207C20323032322D3001
:10019000382D30392D31353A32323A3037003D5C26
:1001A000435C455C485C4C5C5B5C00003F5C445CD1
:1001B0004E5C4A5C585C515C405C495C505C535CF2
:1001C000575C475C425C01534B5C4F5C525C555C36
:1001D000595C545C415C465C5A5C5C5C565C4D5CB2
:1001E0003E5C3B5C00000000000000000000AA0034
:1001F000A9004F5C505C525C535C545C765C0153CC
:10020000515C585C575C555C745C735C0151565C86
:100210005D5C605C5A5C715C725CA845645C5B5CB4
:10022000595C695C6F5C705C665C625C5E5C5C5CCB
:100230006B5C6E5C6A5C6C5C655C615C5F5C6D5C9D
:10024000635C675C685C3F5C435C455C4A5C565C35
:100250005A5C00003D5C495C515C535C485C475C07
:10026000415C425C4E5C525C555C585C4D5C015399
:10027000445C4B5C505C545C575C4F5C465C4B5C34
:10028000595C5B5C5E5C4C5C3C5C405C000000006C
:10029000000000000000AA00A9004F5C505C525C06
:1002A000555C535C745C0153515C585C595C545C04
:1002B000725C735C0151565C575C655C5B5C695CAD
:1002C000715CA845645C5C5C5A5C5D5C6B5C705CFA
:1002D000625C635C605C5E5C5F5C6E5C6C5C6F5C13
:1002E000675C635C615C6D5C665C685C6A5CE000DA
:1002F0001E001F002000210022000000165C2B00C1
:1003000014001A0008001500170039000400160038
:10031000070009000A000B00E1001D001B00060099
:100320001900050011003500E300E20091442C00A3
:100330002C0046000000000000000000000001004A
:1003400001004A004E000A001C0023002F004B0051
:100350004D0005000B0018002400300004512C0053
:1003600011000D000C002500310001009044100028
:100370000E001200260027004F00E60036000F0096
:1003800013002A00E50052005000370033004C00F3
:1003900028003800510039001E001F0020002100F5
:1003A00022000000165C2B0014001A000900130044
:1003B0000A00E000040015001600170007002800DE
:1003C000E1001D001B0006001900050010003500AB
:1003D000E300E20091442C002C00460000000000E5
:1003E000000000000000010001004A004E0007006C
:1003F0000D0023002F004B004D0005000B000F00E7
:100400002400300004512C000E00110018002500BB
:10041000310001009044100008001C002600270055
:100420004F00E60036000C0033002A00E5005200C1
:100430005000370012004C00280038005100010025
:100440003A003B003C003D003E000000010001007E
:100450000100010001000100010001000100010094
:100460000100010001000100010001000100010084
:100470000100010001000100010001000100010074
:100480000100010000000000000000000000010069
:10049000010001000100010001003F000100010016
:1004A0000100010001000100400001000100010005
:1004B00001000100010041000100010001000100F4
:1004C00001000100420043000100010001000100A1
:1004D00001000100010001000100010034000100E1
:1004E00001000100010000000052000000000000B7
:1004F00000000000000002520000000000000000A8
:100500000000035200000000000000000000010095
:1005100000000000000000000000000000000000DB
:10052000135C0A5C000000000000000000000000F6
:10053000000000000000C55CC45C0000C95C000055
:1005400000000000815C01000000C85C00000000A9
:100550000000825C01000000C75C00000000000099
:100560009D5C01000000C65C0000000000009E5C75
:10057000C35C0000CD5C000000000000CA5CDF5CD2
:10058000C55CCC5C0000AE5D0000CB5CC45C0001CF
:100590000101010101010101020202020202020243
:1005A0000203030303030303030404040404040415
:1005B00005050505050606060606070707070708D9
:1005C000080808090909090A0A0A0B0B0B0C0C0C8C
:1005D0000D0D0D0E0E0E0F0F0F1010111111121226
:1005E00013131414151516161717181819191A1AA3
:1005F0001B1B1C1D1D1E1E1F202021222223242404
:10060000252626272829292A2B2C2D2D2E2F30313F
:100610003232333435363738393A3B3C3D3E3F4051
:100620004142434445464748494A4C4D4E4F50513C
:100630005354555658595A5B5D5E5F6162646566F6
:1006400068696B6C6D6F7072737577787A7B7D7E7D
:100650008082838587888A8C8E8F91939596989ACD
:100660009C9EA0A2A3A5A7A9ABADAFB1B3B5B7BAE5
:10067000BCBEC0C2C4C6C9CBCDCFD1D4D6D8DBDDB9
:10068000DFE2E4E7E9EBEEF0F3F5F8FAFDFF050150
:100690000980A101850319012AB700150126B700B9
:1006A000950175108100C0050C0901A1018504198F
:1006B000012AA002150126A002950175108100C033
:1006C00005010906A101050719E029E71500250123
:1006D00095087501810295017508810105071900CA
:1006E00029FF150026FF00950675088100050819E9
:1006F000012905950575019102950175039101C0C8
:1007000009029F00040100A0FA090400000103018E
:1007100001000921110100012240000705810308A1
:10072000000109040100010300000009211101007A
:100730000122320007058203200001080B0202019A
:100740000100000904020000010100000924010069
:10075000010900010309040300020103000007244A
:1007600001000141000624020101000624020202E8
:10077000000924030103010201000924030204010A
:1007800001010009050402400005000005250101E2
:10079000010905830240000500000525010103123F
:1007A00001000200000008EDFEB5F40100010200A6
:1007B000011C03620061006E0064006F006D00693F
:1007C000006E00650064006F006E00690000000E9E
:1007D00003330061007200610068007400000004CF
:1007E0000309040011241FBECFEFDAE0DEBFCDBF46
:1007F00026E0A8EFB2E001C01D92A93AB207E1F7E6
:1008000012E0A0E0B1E0EAEDF8E602C005900D923A
:10081000A83FB107D9F70E94D32B0C942F340C9426
:1008200000009091A306937061F081110BC0946059
:100830009093A30610924D018091A206816080934F
:10084000A2060895863210F09469F2CF880F880FBF
:10085000982BEECF9091A306937071F08093A4062D
:100860006093A506433308F042E34093A6068091C7
:10087000A20681608093A20608950F931F939B01A7
:10088000305E8901000F012F001F110B11952F778A
:10089000482F406EE091B205F091B30563E070E03F
:1008A00082EB95E009951F910F9108950F93262FE4
:1008B000042F0F77482F406BE091B205F091B305FC
:1008C00063E070E082EB95E009950F910895A3E055
:1008D000B0E0EDE6F4E00C94AD327C01162FD42E9E
:1008E000C22E8091D705843071F5E091CC05F0914E
:1008F000CD053097C1F1C701019763E070E00E9418
:10090000DA32CB01880F991F860F971F19834A830C
:10091000CB824E2D481B9E012F5F3F4FBC0182EBC7
:1009200095E00995E091D005F091D105309739F027
:100930000C2D2D2D412FB70182EB95E009952396C3
:10094000E8E00C94C93282E0E816F10409F45AC0D8
:1009500083E0E816F104A9F081E0E816F10409F457
:1009600084C0F12CE12CE091CE05F091CF053097B9
:10097000C9F20C2D2D2D412FB70182EB95E0099581
:10098000D1CF862F807F803A11F188F48038D1F062
:10099000E091B605F091B705803929F7309719F342
:1009A000123F49F12C2D4D2D612F6F7027C0803ED5
:1009B00099F0803FB1F0E091B405F091B505803B2E
:1009C00091F6ECCFE091B805F091B905E7CFE09151
:1009D000BA05F091BB05E2CFE091BC05F091BD05F1
:1009E000DDCF623F09F0BFCFE091BE05F091BF05BA
:1009F000309709F4B8CF2C2D4D2D62EF82EB95E0A6
:100A0000099590CF862F807F803DB9F0803FD1F04F
:100A1000E091C005F091C105803C09F0A4CF30976A
:100A200009F4A1CF812F8D7F4D2D612F6F70813FF4
:100A3000C9F082EB95E0099575CFE091C205F09180
:100A4000C305EDCFE091C405F091C505633F39F0D2
:100A5000613F09F088CFE091C605F091C705309756
:100A600009F481CF4D2D612FE4CFE091C805F091BD
:100A7000C905683F38F4663F09F075CFE091CA05B3
:100A8000F091CB05309709F46ECF612F82EB95E0A2
:100A9000099548CFE8EDF0E080818E7F8083109249
:100AA000E2001092DA001092E100A0EEB0E08C912A
:100AB00081608C9380818F77808319BCA7EDB0E033
:100AC0008C918E7F8C9380818F7E808310926405C1
:100AD00008952091E4003091E50095E6A901209168
:100AE000EC00822F817020FF06C08091E80080FF1B
:100AF00006C080E008952091E80022FD1AC0809190
:100B00007105882389F0853089F08091EB0085FD9F
:100B10000FC02091E4003091E50042175307F9F22D
:100B20009150E1F684E0089582E0089583E008950D
:100B300081E00895EF92FF920F931F93CF937C0172
:100B40008B010E946905C82F811117C08091E800B0
:100B500085FD0BC08091E8008E778093E8000E94AD
:100B60006905882399F3C82F08C0F70181917F0197
:100B70008093F1000150110949F78C2FCF911F91FB
:100B80000F91FF90EF9008958091730587FF13C038
:100B90008091E80082FF06C08091E8008B77809307
:100BA000E80004C0809171058111F2CF0895809111
:100BB00071058823D9F38091E80080FFF8CF8091F8
:100BC000E8008E77ECCF982F9093E900242F762FB2
:100BD00050E0891731F07091EC002091ED005091B8
:100BE000F00021FD07C09F5F973071F78093E90007
:100BF00081E008953091EB003E7F3093EB0030911F
:100C0000ED003D7F3093ED003091EB00316030938B
:100C1000EB007093EC002093ED005093F0002091D6
:100C2000EE0027FDE0CF80E00895B0E0A0E0EBE12A
:100C3000F6E00C94AD32C8EDD0E088818F7E8883D9
:100C4000E7EDF0E080818160808384E082BF81E015
:100C50008093640588818E7F888302EE10E0F8011E
:100C600010821092DA0081EEC82ED12CF60110828B
:100C700088818F77888388818068888388818F7D49
:100C8000888319BC1092710510927205109270053C
:100C900010926F0590EEE92EF12CF70180818B7F89
:100CA000808388818160888342E060E080E00E94E8
:100CB000E305F60180818E7F8083F8018081816069
:100CC0008083808188608083F70180818E7F80832C
:100CD000888180618883CDB7DEB7E8E00C94C932A3
:100CE000FC018091790590917A0586179707A0F00D
:100CF0006115710529F49091E8009E779093E800C2
:100D000090E06115710551F4911108C08091E800DF
:100D100082FF34C080E00895BC01F2CF809171055C
:100D20008823C1F18530C1F18091E80083FD30C096
:100D30008091E80082FDEACF8091E80080FFE1CF5A
:100D40008091F3002091F200382F6115710519F0A0
:100D50002830310558F091E02830310509F090E055
:100D60002091E8002E772093E800CBCF81918093EB
:100D7000F100615071092F5F3F4FE7CF80917105FE
:100D8000882341F0853041F08091E80083FFBECF99
:100D900081E0089582E0089583E00895089508951C
:100DA00080916605089508950895982F907F903B4F
:100DB000E9F040F49039D1F0903AC1F09038B1F0B8
:100DC00080E00895903D19F020F4903CC9F782E04E
:100DD0000895903E59F0903F99F7815F8F3080F7EA
:100DE000E82FF0E0EF54FE4F8081089583E00895EE
:100DF000A7E0B0E0EEEFF6E00C94AD328C010851C4
:100E00001F4F80917105843009F087C080914301A4
:100E10008F708093E9008091E80082FF7EC080910E
:100E2000E80085FF7AC00E946905811113C084E043
:100E3000E82EF12CCE0101966C018091E80085FD31
:100E400061C08091E8008B778093E8000E9469057B
:100E5000882399F38091E80085FD05C08091E80022
:100E60008B778093E800FA808F2D0E94D506282F7B
:100E7000FD828B818E838C818F8321110BC08981B0
:100E8000843041F1873031F1863031F121E0853015
:100E900009F0B7CF30E0E5E0F0E0EC0FFD1FE30F25
:100EA000F11DF0804FB7F894D8011196EC9111978D
:100EB000F0E0CF01019612966C9170E00E94EE3244
:100EC000D8015C915817190649F44FBF3F5F32179C
:100ED00010F397CF23E0DECF22E0DCCF13968D9185
:100EE0009C911497E80FF91FF08211968C9111973D
:100EF00090E0019612966C9170E00E94EE32F8013B
:100F00008183E3CF8091F100D6018D936D01B1E033
:100F1000EB1AF10809F091CF9DCF2796E8E00C94E9
:100F2000C932A4E0B0E0E7E9F7E00C94AE327B010F
:100F3000142FD22E4A832B830C83842F0E94D50634
:100F400081113AC082E0E816F10489F183E0E816E5
:100F5000F10441F081E0E816F10429F5173F29F486
:100F600085E004C087E0073F09F084E08983809131
:100F700071058430C1F480913E018F708093E90047
:100F800050E040E064E070E0CE0101960E949A05D6
:100F9000811109C08091E80085FD05C08091E800BD
:100FA0008E778093E8002496E7E00C94CA3287EFAE
:100FB000D812DBCF86E0DACF12951F701983D7CF16
:100FC0009C014FB7F89480915D0590915E05A091CA
:100FD0005F05B09160054FBF821B930B08952FB73B
:100FE000F89460915D0570915E0580915F05909128
:100FF00060052FBF08952FB7F89480915D059091FB
:101000005E05A0915F05B09160052FBF08959C011A
:10101000FC0132969FEF80E04191461751F09F3FCF
:1010200019F4411101C0982F8F5F8630A9F79F3FB7
:1010300009F40895290F311D97FD3A95F90162834E
:10104000089520915A0530915B052817390771F0F2
:1010500090935B0580935A05E0915805F0915905EE
:10106000309721F00084F185E02D099508952091B5
:101070005605309157052817390771F09093570599
:1010800080935605E0915805F0915905309721F06D
:101090000680F781E02D09950895FC01680F791FFE
:1010A0008FEF91E32191822728E030E087FF09C08C
:1010B000880F892721503109C9F7E617F70791F7FB
:1010C0000895880FF7CFFA01811101C0FB0109953E
:1010D0000895E2E7F4E0818360834283339695E0EC
:1010E000E635F907C1F70895FC01EE0FFF1FE80F81
:1010F000F91FEE58FB4F6183408322830895E3EA92
:10110000F6E0248130E1231B08F420E02483809161
:10111000A20681608093A2060895E3EAF6E02481A6
:1011200030E1230F08F42FEF24838091A206816021
:101130008093A2060895E3EAF6E0438120E1421B92
:1011400008F440E08181628190E00E942A040895C1
:10115000E3EAF6E0438120E1420F08F44FEF81819A
:10116000628190E00E942A040895E3EAF6E0628139
:1011700020E1621B08F460E08181438190E00E94DD
:101180002A040895E3EAF6E0628120E1620F08F4A0
:101190006FEF8181438190E00E942A040895E3EA81
:1011A000F6E08181438162818850990B0E942A0474
:1011B0000895E3EAF6E0818190E043816281089638
:1011C0000E942A0408958091A306869586958150F1
:1011D00009F485E20E94110408958091A306869582
:1011E00086958F5F863208F081E00E941104089591
:1011F000EF92FF920F939701201B31092F3F31058A
:1012000019F010F02FEF30E02095382F320F08F44E
:101210003FEF832F0F91FF90EF900895EF92FF9291
:101220000F939701201B31092F3F310519F010F062
:101230002FEF30E0322F3095482F430F08F44FEF57
:10124000842F620F0F91FF90EF900895EF92FF921D
:101250000F93972F093438F4B701601B71096F3F62
:10126000710519F010F06FEF70E0485F5F4F41318A
:10127000510540F0A901485F5F4F4131510510F021
:101280006FEF70E06095482F460F08F44FEF842F02
:1012900037FF02C02D5F3F4F359527953595279530
:1012A0006091A406620F792F0F91FF90EF9008953F
:1012B000EF92FF920F931F930E0D1F2D111DF90139
:1012C00037FF03C0F195E195F10924E0EE0FFF1F10
:1012D0002A95E1F7EF3FF10519F014F0EFEFF0E098
:1012E0009A0157FF03C031952195310994E0220FEF
:1012F000331F9A95E1F72E173F070CF4F901E00F21
:10130000F11FEF3FF10519F010F0EFEFF0E0E0957D
:10131000282F3E2F230F08F42FEF822F1F910F91BC
:10132000FF90EF900895EF92FF920F93970195E051
:10133000099F200D311D11242F3F310519F010F0A8
:101340002FEF30E02095382F320F08F43FEF832F36
:101350000F91FF90EF90089522E8241B08F420E0FD
:10136000620F08954095282F429F412D1124842F0C
:101370000895E42FF0E0EE0FFF1FEC5EFD4F90812B
:10138000921B97FD9195292F38E1239F212D112440
:10139000620F08950F931F9310E0F801EE0FFF1FE7
:1013A000EC5EFD4F9081905797FD9195000F111FB6
:1013B000F801EB5EFD4F00810052110B2003F0019C
:1013C000219FF00D112408E310E0091B110997FD7E
:1013D000139540039001419F300D1124E20FF31F3C
:1013E0009F01220F331F2E0F3F1F37FF02C02158CE
:1013F0003F4F220F232F221F330B620F1F910F919C
:1014000008950F931F93522F10E0F801EE0FFF1F66
:10141000EB5EFD4FA081A052BB0B9D015203F0017A
:10142000539FF00D1124000F111FD801AC5EBD4F6A
:101430000C910057110B40039001419F300D112476
:101440002E0F3F1F37FF02C0215C3F4F96E03595BE
:1014500027959A95E1F7620F1F910F9108950F93C9
:101460001F93522F10E0F801EE0FFF1FEB5EFD4FB0
:10147000A081A052BB0B9D015203F001539FF00DC0
:101480001124000F111FD801AC5EBD4F0C91005705
:10149000110B40039001419F300D11242E0F3F1F6F
:1014A00037FF02C021583F4F220F232F221F330B3B
:1014B000620F1F910F910895EF920F93972F23E0E2
:1014C000029FB0011124759567956E0D792F0F91CC
:1014D000EF900895322F50E0FA01EE0FFF1FEB5E00
:1014E000FD4F9081905297FD9195440F551FFA0141
:1014F000EC5EFD4F2081231B330B290F311D97FD1F
:101500003A95620F0895E42FF0E0EE0FFF1FEB5EB7
:10151000FD4F6081621B0895E42FF0E0EE0FFF1F86
:10152000EC5EFD4F6081621B0895622F0895E42FE9
:10153000F0E0EE0FFF1FEC5EFD4F408134EE439F65
:10154000412D1124E82FF0E050E0445E5F4FDA01B6
:10155000A21BB1099D01B7FF03C031952195310947
:1015600093E0220F331F9A95E1F7AF01421B530B13
:101570009A0157FD20E0582F259F212D1124822FFD
:101580000895E42FF0E0EE0FFF1FEC5EFD4F408169
:1015900034EE439F412D1124E72FF0E050E0445EEC
:1015A0005F4FDA01A21BB1099D01B7FF03C031955E
:1015B0002195310993E0220F331F9A95E1F7AF018E
:1015C000421B530B9A0157FD20E0279F212D112428
:1015D000722F08950E94690808950E947408089562
:1015E000FC019B01009729F480E077FF2BC080E885
:1015F0000895AC0197FF04C044275527481B590B99
:10160000B901640F751F37FD10C0241B350BC901CC
:10161000A5E0880F991FAA95E1F70E94EE3280E2BB
:10162000861BF7FF0FC081950895CB0165E0880FF9
:10163000991F6A95E1F7BA01621B730B0E94EE32A3
:1016400080E6EECF0895EF920F93CF93DF93D72FDD
:10165000C82FC9010E19BA010E94F00A602F681B39
:101660007D2F8C2FDF91CF910F91EF9008950F93E5
:10167000CF93DF93D72FC82FC901BA010E94F00A78
:10168000682F600F7D2F8C2FDF91CF910F910895E0
:10169000EF920F931F93CF93DF93D62FC72F182F5F
:1016A000C9010E19010FBA010E94F00A081B202F70
:1016B000219F212D1124822F6D2F7C2FDF91CF911F
:1016C0001F910F91EF900895EF920F931F93CF9377
:1016D000DF93D62F172FC82FC9010E19070FBA0194
:1016E0000E94F00A702F781B719F712D11246D2FAD
:1016F0008C2FDF91CF911F910F91EF9008950F9351
:101700001F93CF93DF93D62FC72F182FC901212FF7
:10171000201B022FBA010E94F00A982F990F990FEF
:10172000891B800F282F219F212D1124822F6D2F9F
:101730007C2FDF91CF911F910F9108950F931F93ED
:10174000CF93DF93D62F172FC82FC901272F201B28
:10175000022FBA010E94F00A982F990F990F782F43
:10176000791B700F719F712D11246D2F8C2FDF91BC
:10177000CF911F910F910895E82F86FDE0952E2FB0
:101780002F7086FD2F5FE695E695E695E670F0E012
:10179000E755FE4F9181929F902D212D1124929516
:1017A0009F702295207F922B2081920F87FD91952B
:1017B00080E8890F08950F931F93CF93DF938B01D8
:1017C000D82FC42F822F0E94BC0BEC2FF0E0EE0F1D
:1017D000FF1FEC5EFD4F90819058890F87FD81952A
:1017E000880F682F2CE0629F612D1124600F712FEC
:1017F0008D2FDF91CF911F910F910895AC01823011
:10180000910508F408959FEF413E8EE1580740F49A
:101810009A0195E0369527959A95E1F798E0920F11
:1018200061E0E62FE90FFF27FF1F9F013595279500
:10183000822F229FF001239FF00DF00D11244E17EF
:101840005F0738F49FEF920F961758F78FEF860FC8
:1018500008952F3FE9F361E0620FF6CF0F93CF9326
:10186000DF93D72FC82F47FD419588E390E0841B75
:10187000910947FD9395889FB001899F700D700D68
:101880001124229FC001239F900D900D1124860FDB
:10189000971F0E94FE0B982F990F890F682F600FDA
:1018A0007D2F8C2FDF91CF910F91089530E020E0B4
:1018B000869F212D969F200D311D1124C901089569
:1018C000AF92BF92CF92DF92FF920F931F93CF936D
:1018D000DF93362F472FE82FF0E0E257FA4F7111D0
:1018E0000FC0E4918E2F2E2F6E2F722FDF91CF918C
:1018F0001F910F91FF90DF90CF90BF90AF90089510
:10190000C72FD0E02491F22E022F10E056E0659F01
:10191000C0011124EFEFF0E0BF010E94DA32832F03
:1019200090E0880F991F35E5369FD001379FB00DA5
:1019300011248A1B9B0B982F990F980F6F01CC1ABB
:10194000DD0AC09ED001C19EB00DD09EB00D112405
:101950008B2F499FA0011124452F55276F01C41AD1
:10196000D50AC09EA001C19E500DD09E500D1124DD
:101970005F01A91AB108AC9E6001AD9ED00CBC9E5F
:10198000D00C1124CD2CDD24EC19FD09E09FE001E1
:10199000E19FD00DF09FD00D1124ED2F6230710525
:1019A000A1F050F46115710509F49ECF6130710505
:1019B00081F0EB2F852F98CF6430710569F080F0AE
:1019C0006630710509F490CFF4CFE22F2B2F8D2FC5
:1019D0008BCFE22F252F88CFEB2F822F2D2F84CF77
:1019E0002B2F8F2DE52F80CF2F923F925F926F92FA
:1019F0007F928F929F92AF92BF92CF92DF92EF929F
:101A0000FF920F931F93CF93DF93CDB7DEB72A9743
:101A10000FB6F894DEBF0FBECDBF8B837E836D8380
:101A200020914A012295207F2F83205F29832A83DA
:101A30002D3410F03CE43A8380917F058C83FF8144
:101A4000EF2FF0E0FA87E987CF01880F991F9C01FB
:101A50002C5E3D4F69013B81832F90E0FC01319664
:101A6000F887EF838A8199859817E8F081E0E9810A
:101A7000EC3408F080E02A960FB6F894DEBF0FBE73
:101A8000CDBFDF91CF911F910F91FF90EF90DF902D
:101A9000CF90BF90AF909F908F907F906F905F900E
:101AA0003F902F900895E985FA85E455FD4F808198
:101AB00090914B018923F1F02090A4063090A50667
:101AC0002F81388521583A4F39015B8010E0FC8125
:101AD0005F16D0F02091A606129F112D1124B1019E
:101AE000812F0E94600C462F282F672F89859A85A9
:101AF0000E94ED0A29853A852F5F3F4F3A87298753
:101B000032E0C30ED11CAECFF30181913F01F6014B
:101B1000A080A81ABB088180F3018185881A9908E2
:101B2000AA9C9001AB9C300D300D1124889CC00103
:101B3000899C900D900D1124820F931F0E94FE0B23
:101B4000082F6091A70621E0620F08F46FEFF30100
:101B5000EE0FFF1FEF57F540838D948D0E94560CBA
:101B60007C019401A501B101812FED81FE810995D0
:101B70001B015394182FABCFB0E0A0E0E2ECFDE0E6
:101B80000C94AD328C01C0914A01C295C07F20E116
:101B9000D22EDC0ECD2C2CE42D1510F49CE4C92E95
:101BA0002091A70631E0230F08F42FEF30E050E03A
:101BB00040E06FEF7FEF80E090E00E94CC3379014E
:101BC000D0E02C2FCC1550F081E0FBE4FD1508F49B
:101BD00080E0CDB7DEB7E8E00C94C932FE01E455F1
:101BE000FD4F808190914B01892311F140917F0538
:101BF0004150042E000C550B47FF1CC0C7016091DB
:101C0000A70621E0620F08F46FEF0E94560CAC01AA
:101C10006091A4067091A5068091A606F801099529
:101C20000E94600C462F282F672FCE010E94ED0ADC
:101C30002196C7CFFA01E158FA4F858982130AC06D
:101C4000FA01EE0FFF1FE158FA4F878D90A18E1514
:101C50009F05A8F241505109CFCFB0E0A0E0E3E3E7
:101C6000FEE00C94AE327C01C0914A01C295C07F67
:101C700010E11C0F012F1D3408F00CE46091A70641
:101C80006695669521E0620F08F46FEF80917B0501
:101C900090917C050E94560CD82ED0E0C01748F0D9
:101CA00081E01C3408F080E0CDB7DEB7E7E00C94AB
:101CB000CA32FE01E455FD4F808190914B0189238A
:101CC00091F06091A4067091A5068091A6062D2D35
:101CD0004C2FF70109950E94600C462F282F672F83
:101CE000CE010E94ED0A2196D9CFB0E0A0E0EBE74B
:101CF000FEE00C94AA326C01C0914A01C295C07FEB
:101D000010E11C0FB12E1D3410F03CE4B32E609195
:101D1000A7066695669580917B0590917C050E944B
:101D2000560CF82E80E48F0D0E94BC0B90E8A92E73
:101D3000A80E8F2D0E94BC0B20E8922E980ED0E0AA
:101D4000CB1548F081E01C3408F080E0CDB7DEB759
:101D5000EBE00C94C632FE01E455FD4F808190917A
:101D60004B018923A1F06091A4067091A506809192
:101D7000A606EF2C0C2F292D4A2DF60109950E945D
:101D8000600C462F282F672FCE010E94ED0A219666
:101D9000D7CFB0E0A0E0EFECFEE00C94A8325C01FD
:101DA000C0914A01C295C07F10E11C0FF12E1D3475
:101DB00010F03CE4F32E6091A706669580917B05B8
:101DC00090917C050E94560C782ED0E0CF1548F0FB
:101DD00081E01C3408F080E0CDB7DEB7EDE00C9474
:101DE000C432FE01E455FD4F808190914B0189235F
:101DF000C9F1CE01880F991F80549E4FFC01EC5A07
:101E0000FF4F2081422F4057550B6A018B5A9F4F3D
:101E1000FC018081282F2052330B4901449F9001FF
:101E2000459F300D300D1124889CC001899C900D78
:101E3000900D1124820F931F0E94FE0B082F6091BA
:101E4000A4067091A5068091A606E72C9401A60130
:101E5000F50109950E94600C462F282F672FCE01AF
:101E60000E94ED0A2196B2CFB0E0A0E0EAE3FFE0E5
:101E70000C94AD327C01C0914A01C295C07F10E143
:101E80001C0FD12E1D3410F03CE4D32E6091A70618
:101E9000669580917B0590917C050E94560CC82E1A
:101EA000D0E0CD1548F081E01C3408F080E0CDB7DB
:101EB000DEB7E8E00C94C932FE01E455FD4F8081A5
:101EC00090914B01892311F1CE01880F991F805405
:101ED0009E4FFC01EB5AFF4F20812052330B8C5A4E
:101EE0009F4FFC0140814057550B6091A4067091B3
:101EF000A5068091A6060C2DF70109950E94600C9D
:101F0000462F282F672FCE010E94ED0A2196C9CFB8
:101F100084E0809332048FE780933304809134040B
:101F20008078806480933404EAEEF3E08FEF81934D
:101F300094E0E233F907D9F71092E9031092E8032D
:101F40001092E7031092E603089580E00895F89454
:101F5000E82FE295EF70F0E031A1282F2F7081E09B
:101F600090E001C0880F2A95EAF7982F9095932367
:101F700091A392A1892B82A3789408959091C00394
:101F800092FF06C0282F28712830F9F4877F8460DB
:101F900093FF06C0282F28712831F1F4877E8461D1
:101FA0002091C10320FF06C0382F38713830D9F492
:101FB000877F816021FF06C0282F28712831D1F446
:101FC000877E816194FD877E0895282F24712430B7
:101FD000F9F68B7F8860DCCF282F2471243101F73C
:101FE0008B7E8861DDCF382F3171313019F78E7FCC
:101FF0008860E0CF282F2171213121F78E7E886102
:10200000E1CF972F7C30A8F4673098F470E027E098
:10201000929F600D711D1124FB0194E5899FE00DD5
:10202000F11D1124EE0FFF1FE256FE4F8591949192
:10203000089580E090E00895CF93DF93EC0182381B
:10204000910581F1B0F58133910509F491C020F536
:102050008932910509F485C08A9709F490C0C115A9
:1020600021E5D20708F0AAC0C11530E5D30708F072
:10207000F2C0CF3BD10508F089C0C83AD10508F0BD
:10208000DFC0C53AD10508F0D3C0C430D105F8F49B
:10209000C130D105E1F040C08533910509F45AC043
:1020A000C997E9F68091C003837089F0C0EED0E053
:1020B0000EC0833E910599F170F4803E910501F1C7
:1020C000823E910561F68091C00382FD21C0CE0160
:1020D000DF91CF910895863E910561F1873E91058C
:1020E00071F1843E910509F0BACF8091C10381FF5F
:1020F000EECF8091C003C7EED0E084FD0DC0E7CFE6
:102100008091C00380FDF7C09091C10390FFDFCFA5
:10211000C3EED0E084FFDBCFD0E0C0E0D8CF809129
:10212000C00382FDEBC09091C10390FDBFCF84FF3F
:10213000CECFF2CF8091C00383FDDDCFC8CF809199
:10214000C00383FDDEC09091C10391FFF0CFC4EEC8
:10215000D0E0BDCF8091C00385FFB9CFC9E2D0E008
:10216000B6CF8091C00385FFB2CFC5E3D0E0AFCF3B
:102170008091C00386FFABCFCAE2D0E0A8CF8091A8
:10218000C00386FFA4CFC1E3D0E0A1CFC11540E2D8
:10219000D40760F4C11581E0D80708F098CFCE01CC
:1021A000805E9109089708F492CFB6CFC11590E4EC
:1021B000D90708F4B1CFDF70D06A89CFC11524E503
:1021C000D20778F4C11533E5D30708F072C0C11502
:1021D00042E5D40708F05CC0DC2FCC27C16FD06A81
:1021E00076CFC1158AE5D80778F4C11599E5D907E6
:1021F00008F073C0C11528E5D20708F48DCFDC2F95
:10220000CC27C06FD06A63CFCE0190568115904223
:1022100008F082CF8D2F8F710E94BE0F90E0982F13
:10222000882788279F719C012C2BE901D0624FCF12
:10223000C55AD0E0CF5ADE4FC881D0E0D06447CF36
:10224000C85AD0E0CC0FDD1FCC5ADE4F0990D881A0
:10225000C02DD4643CCFCE0164E0969587956A95F5
:10226000E1F783702C2F26952695237040E2249F5A
:1022700090011124382B8C2F8370C1E0D0E002C074
:10228000CC0FDD1F8A95E2F7C22BD32BDC681FCF62
:10229000CE018370992721E030E002C0220F331F66
:1022A0008A95E2F7C695C69580E2C89FE0011124A1
:1022B000EBCFCE018370992721E030E002C0220FDE
:1022C000331F8A95E2F7C695C69590E2C99FE00153
:1022D0001124C22BD32BDA68FACE8C2F8F700E9478
:1022E000BE0F34E0D695C7953A95E1F7CF709C2F95
:1022F000EC01D069ECCEC9E3D0E0E9CEC2EED0E08B
:10230000E6CEC6EED0E0E3CE0E94EF0708958091BE
:10231000710390914003981301C008958F5F8770F7
:10232000FACFB0E0A0E0E7E9F1E10C94AC328C0127
:10233000C0906D04D0906E04E0906F04F090700433
:1023400080917C0390917D03A0917E03B0917F03E7
:10235000C82AD92AEA2AFB2ACFE1D0E0BC2ED7012D
:10236000C6010C2E04C0B695A795979587950A943B
:10237000D2F780FD09C0219788F7B12C8B2DCDB7FE
:10238000DEB7E9E00C94C832B8018C2F0E9401102E
:102390000E941C10019779F3F1CFCF93DF93EC01EA
:1023A0000E949111BE010E9401100E941C10DF9139
:1023B000CF910895292F9C3080F5873070F590E0FB
:1023C00037E0239F800D911D1124682F677023E053
:1023D000969587952A95E1F725E0289FF001299F9A
:1023E000F00D1124ED5FFC4F50E040E080E02191C2
:1023F00030E0062E02C0369527950A94E2F7217048
:102400003327042E01C0220F0A94EAF7822B4F5F74
:102410005F4F4530510559F7089580E00895292F01
:102420009C30A0F5873090F590E037E0239F800D39
:10243000911D1124282F277041E001C0440F2A95D7
:10244000EAF723E0969587952A95E1F725E0289FFE
:10245000F001299FF00D1124ED5FFC4F30E020E0EA
:1024600070E05191DF011197CB01022E02C09695C9
:1024700087950A94E2F781708195852784238527C3
:102480008C932F5F3F4F2530310559F70895FC019C
:10249000808191810E94CD1192959F70963091F02C
:1024A00058F4925F9F70923058F4803F19F030F4E6
:1024B000883E30F481E008959A5FF4CF843FD1F3F1
:1024C00080E00895883EB0F3813FD1F7F3CF809349
:1024D0006105709363056093620580917105843096
:1024E00001F582E08093E9008FEF9091E800815040
:1024F00095FD06C095ED9A95F1F700008111F5CF95
:102500008091E80085FF0DC050E040E063E070E09E
:1025100081E695E00E949A058091E8008E7780938D
:10252000E8000895BC0184E00E9467120895BC0190
:1025300083E00E9467120895CF93DF93EC0181E05E
:102540008093E9008FEF9091E800815095FD06C0DF
:1025500095ED9A95F1F700008111F5CF8091E80093
:1025600085FF14C050E040E068E070E0CE010E94BA
:102570009A058091E8008E778093E80088E0FE015C
:10258000A7E6B5E001900D928A95E1F7DF91CF9132
:102590000895539A3BB1377F2BB128604FB7F89419
:1025A00082E794E0FC015191CF0168E02BB9000073
:1025B00000C057FF3BB9550F000000C000C000C06D
:1025C0003BB900C06A9591F7F5E086359F0751F752
:1025D0004FBF8FE594E00197F1F700C00000089528
:1025E000B0E0A0E0E6EFF2E10C94AB327C015B01DD
:1025F0006A018091AC0301E010E08A3010F40AE037
:1026000010E0C1E0D0E0B501C701F60109958111E4
:1026100004C021960C171D072CF4CDB7DEB7EAE0F5
:102620000C94C732CC9F9001CD9F300D300D1124FA
:1026300090E080E045E34A95F1F7000001968217AB
:102640009307C1F7E0CF80918C03811118C088EC0B
:102650009091E30097FD10C0EFE3FCE93197F1F7AB
:1026600000C000008150A1F782E080938C030E949B
:102670004A051092710503C081E080938C0381E0CC
:1026800090918C03913011F080E0089508950E949C
:102690002313882359F0E0915805F091590530979C
:1026A00029F00190F081E02D0995089580E00895CA
:1026B0000F931F930E942313882329F00E94EF0792
:1026C0001F910F9108950E94EF070091AD031091A3
:1026D000AE032091AF033091B003600F711F821FD2
:1026E000931FEECFCF92DF92EF92FF926B017C01AE
:1026F0000E9423138823A1F02FB7F89460915D0501
:1027000070915E0580915F05909160052FBF6C19F7
:102710007D098E099F09FF90EF90DF90CF9008957B
:102720000E945813F4CFE3EAF6E081E380838091BE
:102730004E0190914F01A091500181839283A38318
:102740008FE784838FEF858346E050E06CE170E093
:10275000CF010E9498331092A2060895B0E0A0E045
:10276000E4EBF3E10C94AD32182F80913C0181131E
:1027700023C09091A306937020913B0130E081E04B
:102780009217130609F480E0817080934C018091C8
:10279000A80690914B01981739F080934B0140E0C7
:1027A00060E080E00E94EA0A163290F4E12FF0E047
:1027B000EF5CFB4C0C94023381E0E6CF80914C013E
:1027C000882309F4F9C040E060E080E00E94EA0A52
:1027D00080E0F2C0C0914A01C295C07F00E10C0FB9
:1027E000F02E0D3410F0FCE4FF2E6091A4067091E1
:1027F000A5068091A6060E94600CE62ED72EC82E54
:10280000D0E0CF1528F081E00C3408F4D5C0E0CF3B
:10281000FE01E455FD4F808190914B01892331F0F9
:102820002C2D4E2D6D2DCE010E94ED0A2196E9CF63
:10283000C0914A01C295C07F00E10C0FE02E0D341B
:1028400010F0ECE4EE2ED090A506C090A6062091E4
:10285000A70670E4F72E3F2D329F312D1124F32E61
:10286000D0E0CE1580F6FE01E455FD4F80819091B9
:102870004B018923B9F0FE01EE0FFF1FEB5EFD4F08
:10288000808182958F706091A4068F9D600D1124C8
:102890007D2D8C2D0E94600C462F282F672FCE0196
:1028A0000E94ED0A2196DDCFC0914A01C295C07FFA
:1028B00000E10C0FE02E0D3410F05CE4E52ED0901A
:1028C000A506C090A6062091A70640E4F42E3F2D51
:1028D000329F312D1124F32ED0E0CE1508F093CF86
:1028E000FE01E455FD4F808190914B018923D9F081
:1028F000FE01EE0FFF1FEC5EFD4F6081F69EB00102
:10290000112435E0759567953A95E1F78091A40615
:10291000680F7D2D8C2D0E94600C462F282F672F6D
:10292000CE010E94ED0A2196D8CFC0914A01C295EE
:10293000C07F00E10C0FF02E0D3410F09CE4F92E56
:10294000E090A406D091A506D090A6066091A706B7
:1029500066956695669580917B0590917C050E94B1
:10296000560C0E94BC0B805887FD8195880F282F3C
:102970003D2D239F212D1124822F6E2D7D2F0E940E
:10298000600CE62ED72EC82ED0E0CF1508F03BCF36
:10299000FE01E455FD4F808190914B01892331F078
:1029A0002C2D4E2D6D2DCE010E94ED0A2196EDCFDE
:1029B00081EC9AE00E942D0E90914A019F5F9093C6
:1029C0004A0181110CC082E080934D0180914C013D
:1029D000811105C0111103C083E080934D01CDB773
:1029E000DEB7E8E00C94C93287E99AE0E3CF8EE9DC
:1029F0009BE00E94340FE0CF8FE79BE0FACF84E6A4
:102A00009BE00E94C90ED8CF88E49BE0FACF85E90D
:102A10009AE0D0CF8CE89AE0CDCF83E89AE0CACF95
:102A20008AE69AE0C7CF8CE59AE0EBCF8EE29CE095
:102A3000E0CF87E39BE0DDCF83E29BE0E2CF8FE254
:102A40009AE00E94750EB8CF81E09AE0FACF8AEC46
:102A500099E0F7CFC0914A01C295C07F00E10C0F09
:102A6000F02E0D3410F08CE4F82ED090A506E090F6
:102A7000A606D091A4066091A70666956695669510
:102A800080917B0590917C050E94560C0E94BC0BA6
:102A9000805887FD8195880F682F2CE0629F612DFB
:102AA00011246D0F7D2D8E2D0E94600CE62ED72EE9
:102AB000C82ED0E0CF1508F0A6CEFE01E455FD4F9C
:102AC000808190914B01892331F02C2D4E2D6D2D5D
:102AD000CE010E94ED0A2196EDCF8BED9BE06ACFEF
:102AE00089EB99E067CF82EB99E00E94BC0D64CF3F
:102AF0008CEA99E0FACF80917F0521E0382F321BD4
:102B000008F430E0832F63E979E00E94F40C54CF9D
:102B100063E979E080E0F9CF80917F0521E0382FEB
:102B2000321B08F430E0832F68E579E0EECF68E5EA
:102B300079E0F0CF80917F0521E0382F321B08F437
:102B400030E0832F66E279E0E0CF66E279E0E2CF21
:102B500080917F0521E0382F321B08F430E0832F6D
:102B60006EE079E0D2CF6EE079E0D4CF80917F053E
:102B700021E0382F321B08F430E0832F68EF78E033
:102B8000C4CF68EF78E0C6CFC0914A01CF5FC2954D
:102B9000C07F0E945433D82F0E9454336D2F782F5A
:102BA0008091A6060E94600C482F872F0E94EA0A97
:102BB00081E0CC3408F400CF0BCE4F925F926F923D
:102BC0007F928F929F92AF92BF92CF92DF92EF92BD
:102BD000FF92CF936091690470916A0480916B04B5
:102BE00090916C040E9472136B017C010E94581337
:102BF0004B015C018092690490926A04A0926B047C
:102C0000B0926C04A0913604E6E3F4E08A2F90E0E1
:102C10004FEF5FEF60E070E04C195D096E097F09CE
:102C2000A9132AC08093360480917104C0E08111F9
:102C300008C08091A306C82FC37019F0C82FC6958D
:102C4000C69580914D01813009F440C0882339F147
:102C5000823009F438C1833009F440C1CF91FF902C
:102C6000EF90DF90CF90BF90AF909F908F907F902C
:102C70006F905F904F900895278D30A12901712C9E
:102C8000612C441555056605770520F481509F5F3A
:102C90003296C6CF2C0D3D1D30A3278FF8CF109252
:102CA0004A0180927B0590927C05A0927D05B092AE
:102CB0007E0583E3E6E3F4E0AFE7B5E001900D9233
:102CC0008A95E1F781E080934D01C8CF8C2F0E9457
:102CD000AE13CC2319F28091A306837009F4BECF02
:102CE00040916D0450916E0460916F047091700476
:102CF000CB01AA27BB270097A105B10509F4D9C0CC
:102D0000AC01BD0180E1C52ED62EE72EFF24C114F3
:102D1000D104E104F10419F0885FB701A6016A014A
:102D20007B0134E0F694E794D794C7943A95D1F7B1
:102D3000C114D104E104F10419F08C5FB701A601BC
:102D40006A017B0122E0F694E794D794C7942A9510
:102D5000D1F7C114D104E104F10419F08E5FB70179
:102D6000A6017695679557954795452B462B472B9A
:102D700009F08F5F813009F49EC0853009F06ECF75
:102D800020E049E163E38EE290E00E94ED0A23E354
:102D900043E363E380E390E00E94ED0A23E343E32F
:102DA00063E38CE390E00E94ED0A20E043E363E3F9
:102DB00089E490E00E94ED0A20E043E363E388E4C5
:102DC00090E00E94ED0A20E043E363E381E090E0BD
:102DD0000E94ED0A20E043E360E08DE090E00E9475
:102DE000ED0A20E043E363E38EE090E00E94ED0A09
:102DF00020E043E360E089E190E00E94ED0A23E3F4
:102E000040E060E086E090E00E94ED0A23E340E0CD
:102E100060E089E090E00E94ED0A23E340E060E09A
:102E200082E190E00E94ED0A23E340E060E085E16A
:102E300090E00E94ED0A23E340E060E08DE190E045
:102E40000E94ED0A23E340E060E080E290E00E940F
:102E5000ED0A23E340E060E084E290E00E94ED0AA6
:102E600023E340E060E087E290E00E94ED0A23E384
:102E700040E060E08FE190E00E94ED0A23E340E053
:102E800060E085E290E00E94ED0A26E249E163E31A
:102E900086E290E00E94ED0A20E040E063E388E2F1
:102EA00090E00E94ED0A20E049E163E389E290E0CE
:102EB00007C080E028CF23E343E363E390E080E0B2
:102EC0000E94ED0ACBCEC0933C018091A306837093
:102ED00080933B010E94C91283E0F5CE8091A20647
:102EE000882351F046E050E06CE170E083EA96E020
:102EF0000E9498331092A20660917B0570917C0528
:102F000080917D0590917E050E947213603171055C
:102F10008105910508F4A2CE10924D019FCECF936A
:102F200084E090E00E948A33C82F82E290E00E9401
:102F30008A33982F8C2FCF910895A4E0B0E0E3EA74
:102F4000F7E10C94B2324091A8035091A90360912B
:102F5000AA037091AB032FB7F89480915D0590910F
:102F60005E05A0915F05B09160052FBF841B950B96
:102F7000A60BB70B11E084369105A105B10570F1E0
:102F80000E9458136E5F7F4F8F4F9F4F69837A83E4
:102F90008B839C83809125019091260185569C4FBF
:102FA0004091240150E04530510510F044E050E0DC
:102FB000BE016F5F7F4F0E94713384E090E00E94FA
:102FC0002D32182F882351F00E94EF076093A80339
:102FD0007093A9038093AA039093AB03812F249647
:102FE000E3E00C94CE324F925F927F928F929F9249
:102FF000AF92BF92CF92DF92EF92FF920F931F9307
:10300000CF93DF930F92CDB7DEB7C62E4A01590199
:10301000482E880F5508C2010E942D32782E882331
:1030200009F480C0C20133E0880F991F3A95E1F797
:10303000FC01EC5FFE4F438150E04115510511F05A
:1030400041E050E08C5F9E4FFC01648175816556C4
:103050007C4FCE0101960E947133F4014081518171
:10306000628173812FB7F89480915D0590915E0520
:10307000A0915F05B09160052FBF841B950BA60B37
:10308000B70B84369105A105B10540F4B701C8011D
:103090000E944D089981891709F444C00C2C000C3A
:1030A000DD08C6010E942D32782E811113C0712CCB
:1030B000872D0F90DF91CF911F910F91FF90EF908F
:1030C000DF90CF90BF90AF909F908F907F905F9058
:1030D0004F900895C60123E0880F991F2A95E1F7C4
:1030E000FC01EC5FFE4F438150E0E416F50608F466
:1030F000A7018C5F9E4FFC016481758165567C4FF2
:10310000C5010E947133B701C8010E944D08998121
:103110008913CDCF0E94EF07F4016083718382830E
:103120009383C6CFA701B801C5010E947133C0CFF8
:10313000A6E0B0E0EEE9F8E10C94AD326B0186E078
:10314000E82EF12C0CE913E09E012F5F3F4F43E97D
:1031500053E061E080E00E94F317882349F096E095
:10316000FE013196ADE8B3E001900D929A95E1F73A
:1031700096E0EDE8F3E0D60101900D929A95E1F723
:103180002696E8E00C94C93280917B0390917A03F3
:10319000892B8093FA0248E050E062E773E08AEFFF
:1031A00092E00E946433892BA9F088E0EAEFF2E014
:1031B000A2E7B3E001900D928A95E1F7E0915805FE
:1031C000F0915905309731F00280F381E02D8AEFBC
:1031D00092E00995089590E080E00E94370890E021
:1031E00080E00E94210810927A030E94C41808957A
:1031F00060936D0470936E0480936F0490937004D9
:103200000E94EB1808950F931F9341E050E060E097
:1032100070E004C0440F551F661F771F8A95D2F7D0
:10322000CB01BA01609570958095909500916D04E1
:1032300010916E0420916F0430917004602371230B
:10324000822393230E94F8181F910F9108950F93E2
:103250001F9341E050E060E070E004C0440F551F50
:10326000661F771F8A95D2F780916D0490916E0446
:10327000A0916F04B09170048A019B01082B192B57
:103280002A2B3B2BC901B8010E94F8181F910F91FE
:10329000089560937C0370937D0380937E039093E5
:1032A0007F030E94EB18089510927B03ECEFF2E08D
:1032B00086E0DF011D928A95E9F70E94EB180895D8
:1032C000AAE2B0E0E6E6F9E10C94B23283E795E0D9
:1032D0002091F100FC012193CF01F5E08B379F078E
:1032E000B9F780917405833009F470C0B8F4813067
:1032F00009F447C0823009F4B1C08091E80083FF2F
:1033000088C280917305909174059A3008F081C24B
:10331000E92FF0E0E95AFB4C0C9402338A3009F4AF
:103320008CC08B3009F46FC0893039F780917305F8
:10333000813219F780917705909178050297E8F628
:103340008091E800877F8093E8008091E80082FF09
:1033500038C09091F3008091F200029731F480918F
:10336000F100813011F0863021F48091F1008093DA
:1033700066058091E8008B778093E8000E94C40581
:10338000BCCF80917305813A09F0B7CF8091E800F6
:10339000877F8093E8008091770590917805892B4D
:1033A00061F468E087E695E070E00E947006809125
:1033B000E8008B778093E800A0CF60E090E080E0A9
:1033C000F3CF809171058111C0CF97CF80917305A4
:1033D000813A09F092CF8091770590917805892BF9
:1033E00009F08BCF8091E800877F8093E80080917F
:1033F000E80080FFFCCF809149018093F10080912B
:10340000E8008E77B9CF80917305813209F075CFCE
:103410008091770590917805892B09F06ECF809186
:10342000E800877F8093E8000E94C40580917505BD
:10343000809349010E94541960CF809173058132B5
:1034400009F05BCF8091E800877F8093E8000E94BD
:10345000C40580917605809365054FCF80917305F3
:10346000813A09F04ACF8091E800877F8093E80095
:103470008091E80080FFFCCF80916505BECF803849
:1034800099F0823809F0C5C1809177058F70873037
:1034900008F0BFC18093E9008091EB0085FB88278D
:1034A00080F91092E90006C080916F059091700537
:1034B000911182609091E800977F9093E80080934B
:1034C000F1001092F1008091E8008E779EC1882370
:1034D00009F48CC1823009F09CC18091750581117D
:1034E0008FC1809177058F702FEF280F263008F05D
:1034F00090C18093E9002091EB0020FF81C19330BF
:1035000031F48091EB0080628093EB0079C190915F
:10351000EB0090619093EB0021E030E001C0220FBE
:103520008A95EAF72093EA001092EA008091EB0076
:103530008860EACF81116DC1109175051F77809168
:10354000E3008078812B8093E3008091E800877FFF
:103550008093E8000E94C4058091E80080FFFCCFC2
:103560008091E30080688093E30082E0111183E0A2
:10357000809371054EC18058823008F04AC1809115
:103580007505909176058C3D23E09207A1F583E0C7
:103590008A838AE289834FB7F894DE01139620E08C
:1035A0003EE051E2E32FF0E050935700E49120FF1A
:1035B00003C0E295EF703F5FEF708E2F90E0EA302E
:1035C000C0F0C7968D939D932F5F243159F74FBF5D
:1035D0008091E800877F8093E8006AE270E0CE0186
:1035E00001960E9470068091E8008B778093E80036
:1035F00010C1C096E7CF4091770550917805292FEB
:1036000033272330310509F444C078F521303105E2
:1036100009F46FC08FE990E0E0E0F7E02230310577
:1036200009F0F7C02091E800277F2093E80020915F
:10363000790530917A058217930708F49C0140E0E0
:103640002115310509F064C0411162C08091E80084
:1036500082FDC9CF80917105882329F2853019F246
:103660008091E80083FFF2CFBECF21323105A9F16E
:103670002232310509F0CDC04115510509F443C08E
:103680004130510509F0C5C082E390E0EEE8F6E074
:10369000C9CF992781309105C1F0009759F0029761
:1036A00009F0B7C0E1EBF7E0E4918E2F90E0E1EB99
:1036B000F7E007C0EFEDF7E0E4918E2F90E0EFED3B
:1036C000F7E0009709F4A5C0ADCFEFECF7E0E49187
:1036D0008E2F90E0EFECF7E0F4CF4115510571F03B
:1036E0004130510509F095C089E090E0EBE2F7E048
:1036F00099CF82E190E0EFE9F7E094CF89E090E0A4
:10370000E2E1F7E08FCF80E490E0E0ECF6E08ACFF2
:1037100080917105882309F466CF853009F463CF61
:103720008091E80083FD5FCF8091E80082FD8ECF1D
:103730008091E80080FF84CF9091F3008091F200A7
:103740002115310519F08830910550F041E00897B6
:1037500009F040E08091E8008E778093E80070CF18
:1037600044914093F1003196215031090196E8CF00
:10377000803809F04EC08091E800877F8093E80090
:10378000809172058093F1009ECE811142C010910C
:1037900075051230F0F58091E800877F8093E8008E
:1037A000109372050E94C405112311F084E005C036
:1037B0008091E30087FDFACF81E08093710542E0BC
:1037C00061EC81E00E94E30542E261EC82E00E944C
:1037D000E30542E361E883E00E94E30542E361E838
:1037E00084E00E94E3058091710513C08091750506
:1037F000813079F481E0933009F080E080937005A6
:103800001092E9008091E800877F8093E8000E9491
:10381000C4058091E80083FF0AC08091E800877F9B
:103820008093E8008091EB0080628093EB00AA9681
:10383000E3E00C94CE320E9454192FEF84E39CE015
:10384000215080409040E1F700C0000088E19AE0FC
:103850000FB6F894A895809360000FBE9093600017
:10386000FFCF882341F0809590917B03892380933B
:103870007B030E94C4180895882339F090917B033C
:10388000982B90937B030E94C41808958823C1F15C
:103890009CEF980F913A78F4ECEFF2E09191891354
:1038A00003C0DF0111971C9243E0E230F407B1F747
:1038B0000E94C418089590E2980F983088F4877099
:1038C00021E030E0A90102C0440F551F8A95E2F7BC
:1038D000CA01809590917B03892380937B03E8CF75
:1038E0009BE5980F933028F490E080E00E94370821
:1038F0000895885A873120F490E080E00E942108E2
:103900000895CF93C82F8823B1F08CEF8C0F813AA4
:1039100000F5ECEFF2E082E093E0DF012D91C217B9
:1039200061F08A179B07D1F76C2F8AEF92E00E9413
:1039300007080E94C418CF9108952191C21303C0B3
:10394000DF0111971C928E179F07B9F70E94C418C8
:10395000EBCF80E28C0F883068F4C77021E030E054
:1039600001C0220FCA95EAF780917B03822B8093D6
:103970007B03DFCFEBE5EC0FE33040F4F0E0EF5AF0
:10398000FE4F808190E00E943708D5CFC85AC731DA
:1039900090F6EC2FF0E0EE0FFF1FEC5AFE4F808107
:1039A00091810E942108C7CF1F93CF93DF93182FD7
:1039B000CAE0D0E0893311F4C0E5D0E0812F0E9445
:1039C000811C8FE99FE00197F1F700C0000021976B
:1039D000C1F7812F0E94461CDF91CF911F9108955E
:1039E0000F931F93CF93DF93C62FD42F022FFC0189
:1039F00082818823A9F06093A1060E94FB0790931F
:103A0000A00680939F06C77081E001C0880FCA9509
:103A1000EAF70E943C1CDF91CF911F910F9108950E
:103A20008091A106681332C080919F069091A006F4
:103A30000E94E007883C910548F510E21D0FCD1764
:103A4000B9F080E28C0F883040F4C77081E001C08B
:103A5000880FCA95EAF70E94311C183048F481E0BB
:103A60009D2F977001C0880F9A95EAF70E943C1C21
:103A7000802F0E94D41C183070F6D77081E001C0EE
:103A8000880FDA95EAF70E94311CC5CFC77081E034
:103A900001C0880FCA95EAF7F6CF68EE7EEF90E096
:103AA00080E00E94C63360E082E090E00E94A8338C
:103AB00060E083E090E00E94A83310927C031092B3
:103AC0007D0310927E0310927F0360E084E090E01B
:103AD0000E94A83364E082E290E00E94A83360E094
:103AE00085E090E00E94A83360E086E090E00E94CC
:103AF000A8336FEF87E090E00E94A83340E050E0E9
:103B0000BA0188E090E00E94BA3360E08DE090E076
:103B10000E94A83340E050E0BA0188E190E00E94A2
:103B2000BA3360E087E190E00E94A83340E050E0C3
:103B3000BA018CE190E00E94BA3370E060E080E26C
:103B400090E00E94C63340E050E0BA0188E190E086
:103B50000E94BA3340E050E0BA018FE090E00E944A
:103B6000BA330E94880F80913204807F82608093F4
:103B70003204809133048078856780933304809188
:103B8000A306837011F410924D018091A3068C7FDF
:103B900081608093A3068091A20681608093A20633
:103BA0008FE78093A7064FEF6FEF8AEA90E00E94BD
:103BB0002A048AE10E9411040895A5E0B0E0E3EE32
:103BC000FDE10C94A5327C01FC0183819481892B59
:103BD00031F08081918189238F3F09F03EC725967E
:103BE000E0E10C94C1320E949111182F682F898155
:103BF0009A810E940F1269817A81812F0E9401109F
:103C00008C018E3AFDE59F0709F0B2C0F701828171
:103C1000882309F4E6C08CE5C82E81E0D82E9AE00E
:103C2000492EF6012491222309F4DBC0213009F04A
:103C300048C031968491813041F4F2E0CF0ED11C1E
:103C4000F60184910E94D41C09C0823059F4F2E03C
:103C5000CF0ED11CF60184910E94811C6FEFC61A11
:103C6000D60ADFCF833041F4F2E0CF0ED11CF6014B
:103C700084910E94461CF2CF843009F077C0F2E0B4
:103C8000CF0ED11CF601249190E080E0F601319630
:103C90002053330B2A30310548F00197F8F2EFE951
:103CA000FFE03197F1F700C00000F7CF489EA00178
:103CB000499E500D1124C901840F951F24916F0155
:103CC000E5CFE22FF0E0E452FF4F5490822F86952B
:103CD0008695869590E0FC01E453FF4F6490277031
:103CE000712C022E02C0759467940A94E2F731E0B9
:103CF00063227724FC01E454FF4F8490912C022E20
:103D000002C0959487940A94E2F741E084229924B2
:103D1000FC01E455FF4FA490B12C02C0B594A794C8
:103D20002A95E2F751E0A522BB246114710419F031
:103D300081EE0E94811C8114910419F086EE0E948C
:103D4000811C852D0E94D41C8114910419F086EEEB
:103D50000E94461C6114710419F081EE0E94461CF9
:103D6000A114B10409F47ACF8CE26CCF6F0176CF45
:103D70008F3A7CE5970708F0F3C00F398CE51807F8
:103D800008F034C200399CE5190708F096C00338E2
:103D9000ECE51E0708F0DAC10138FCE51F0708F062
:103DA00071C007372CE5120708F0AFC10F323CE5B0
:103DB000130708F05FC1043FFCE51F0709F4D9C2EF
:103DC00008F045C1093D3CE5130709F4CEC20A3DA0
:103DD0004CE5140709F4D9C2083D5CE5150709F460
:103DE000C0C2F7019281992309F448C61092A10636
:103DF0000430FDE51F0708F0CBC20B3F2CE512078E
:103E000038F4980122503C452431310508F0CAC2EB
:103E10000E948F179093C1038093C00301315CE52A
:103E2000150709F49CC308F016C309307CE5170791
:103E300009F483C308F0E1C205309CE5190709F4D1
:103E400074C308F0C6C20330FCE51F0709F463C35E
:103E500008F067C38091C003816002303CE513071E
:103E600009F45CC36091C0031091C10384E090E049
:103E70000E94A833612F82E290E00E94A8330E9442
:103E80005419ADCE01384CE5140709F44DC1023880
:103E90005CE5150709F08FCFF7018281882309F4CB
:103EA0009ECE809132048F70893008F098CE8F5F5B
:103EB0008F7090913204907F45C10D396CE51607E3
:103EC000A0F502397CE5170708F061C100398CE5DF
:103ED000180709F448C101399CE5190709F06BCFAF
:103EE000F7018281882309F47ACE90913204959566
:103EF00095959595959596300CF071CE21E0290F0A
:103F00002295207F2595259525952595322F32954B
:103F1000307F809132048F70832B80933204191686
:103F20000CF05DCE27FF5BCE2EC10D39ECE51E07F0
:103F300009F43FC10E39FCE51F0709F03CCFF7013A
:103F40008281882309F44BCE80913304982F9F7788
:103F50009F3709F444CE933708F046C1935F3EC1C2
:103F6000853B2CE5920709F49DC1C8F5813B4CE5E2
:103F7000940709F46FC1E0F48F3A6CE5960709F4F1
:103F80004AC1803B9C4509F016CFF7018281882306
:103F900009F425CE20913304322F331F3327331FEA
:103FA00090913404892F8770880F832B8F5F45C1D0
:103FB000F70122818091330490913404033BFCE5A6
:103FC0001F0709F45BC108F063C140E021114FE70E
:103FD000881F8827881F9770990F60E44BC1883B22
:103FE0004CE5940709F470C188F4863B6CE59607AC
:103FF00009F458C1873B9C4509F0DDCEF701828169
:10400000811160C18FEF8093E803E9CD0A3B8CE515
:10401000180709F492C108F479C10B3BECE51E07BF
:1040200009F0C9CE80913304982F991F9927991FC1
:10403000809134048770880F892BF70192816FEF8C
:104040007FE1992309F48AC10E943D04C8CD063F4F
:104050006CE5160709F495C108F48FC127E245EE17
:1040600066EE073F8CE5180709F0BBCEC7010E943A
:10407000F01CB5CD80913304982F991F9927991F73
:10408000409134044770440F492B8F7721ED200F66
:1040900030E0F901E651FC4F6F012081F701928178
:1040A000992309F12F3F09F09ACD90913204192FED
:1040B00015951595159515951F529F70FCE09F9FBE
:1040C000100D1124100F212F2F774069E091B205B8
:1040D000F091B305082F63E070E082EB95E009955D
:1040E000F60110837CCD2F3F61F02F774068E0917F
:1040F000B205F091B305082F63E070E082EB95E024
:1041000009958FEFF60180836ACDF70182818823BC
:1041100009F465CD0757802F8F7000913204007F1E
:10412000082B009332045BCDF7018281882309F4C8
:1041300056CD80913204982F9F7009F450CD915F35
:104140009F70807F892B8093320449CDF701828153
:10415000882309F444CD0958802F8295807F0091EF
:1041600032040F70DDCFF7018281882309F437CD47
:1041700080913204982F95959595959595959B3FAF
:104180000CF42DCD915F9295907F8F70DBCFF7016E
:104190008281882309F423CD02598CE0089F802D69
:1041A00011248F77009133040078082B0093330497
:1041B00016CDF7018281882309F411CD8091330453
:1041C000982F9F7709F40BCD9F3729F48078856766
:1041D0008093330404CD9D3028F09D509F778078E4
:1041E000892BF6CF8078F4CF8F67F2CFF7018281E9
:1041F000882309F4F4CC0F598091330400FB87F92C
:10420000809333040695077080913404887F082BCF
:1042100000933404E4CCF7018281882309F4DFCCD5
:1042200020913304322F331F3327331F90913404EE
:10423000892F8770880F832B815F382F3F7080FB19
:1042400027F920933304832F8695987F982B90939A
:104250003404C5CCF7018281882309F4C0CC909145
:104260003304991F9927991F809134048770880F10
:1042700040E06BE7892B0E945604B1CC40E021114D
:104280004FE7881F8827881F9770990F61E4F2CF46
:1042900040E021114FE7881F8827881F9770990FEA
:1042A00062E4E8CFF701828140E081114FE790910D
:1042B0003304991F9927991F809134048770880FC0
:1042C00063E4D8CF81E09FCEF7018281882309F48F
:1042D00086CC90913404292F2695269526952F700B
:1042E00081E0820F8F70880F880F880F9778892B55
:1042F00080933404982F987709F071CC220F220F05
:10430000220F8778822B8093340469CCF701828155
:10431000882309F464CC80913404982F987709F4A9
:104320005ECC982F969596959695915F9F70990F74
:10433000990F990F8778892BE6CF80913304982FB6
:10434000991F9927991F809134048770880F892BB2
:10435000F701928160E070EE911176CE70E060E03E
:1043600073CE26E241EE61EE81CE27E245EE65EEA8
:104370007DCE26E241EE60EE79CE27E245EE64EE98
:1043800075CE26E241EE62EE71CE28E241E0EFCF3B
:1043900002363DE5130709F43BCD063A4DE5140717
:1043A00009F436CD06318CE5180709F0F3C3809186
:1043B0007B038A7A91E009F490E09093020369E22A
:1043C000811165E38AEF92E00E9407080E94C418F9
:1043D00006CC8091C003806207304CE5140709F4D5
:1043E0009DC08091C003806108305CE5150708F42A
:1043F00095C08091C003806491C08091C0038B7F81
:104400000D306CE5160709F489C088F40B308CE593
:10441000180709F498C08091C0038C600C309CE5AB
:10442000190708F47BC08091C0038D7F77C080910D
:10443000C0038F7E0F30ECE51E0709F46FC080913A
:10444000C003877F0031FCE51F0708F467C0809137
:10445000C0038F7D63C00E3F2CE5120709F47BC0BB
:1044600058F505314CE5140709F483C098F48091A0
:10447000C003837F03316CE5160709F44FC008F4CD
:1044800072C00E9454199091C003892F97FB87F93D
:10449000805844C00C3F8CE5180709F44AC008F066
:1044A00056C08091C10381600B3FECE51E0709F007
:1044B000D9CC8093C103D6CC0230FDE51F0709F4A7
:1044C00064C0C0F48091C1038C7F01153DE51307E2
:1044D00081F38091C103836001304DE5140748F3F7
:1044E0008091C103982F909591708E7F892B90FBBE
:1044F00081F9DFCF02365DE5150709F44CC0063AB5
:104500006DE5160709F44EC003307DE5170709F085
:10451000A9CC60E03BC08091C00382608093C0035F
:10452000A1CC8091C0038460F9CF8091C0038860E2
:10453000F5CF8091C1038260BCCF0E945419809155
:10454000C0038068EBCF8091C0038E7FE7CF80915E
:10455000C1038E7FAECF8091C1038D7FAACF8091A2
:10456000C0038F7BDBCF0E9454198091C0038F77EB
:10457000D5CF8091C00382FB992790F921E0922743
:1045800090FB82F990FB83F9C9CF61E08EE090E067
:104590000E94A83367CC9091C003892F8F7E94FF2F
:1045A0008061BCCF9091C003892F8E7F90FF816086
:1045B000B5CF8091020381110FC089E2ECEFF2E0E8
:1045C00022E033E09191891303C0DF0111971C921F
:1045D0002E173F07B9F7FACE85E3F0CF8091A306F7
:1045E00091E089278093A30610924D018091A20645
:1045F00081608093A206F3CA43EE58E06DEE78E046
:104600000E946308ECCA4DEE58E063EE78E0F8CF04
:104610004FEC58E069ED78E0F3CF49ED58E06FECEE
:1046200078E0EECF45EB58E062EC78E0E9CF42EC81
:1046300058E065EB78E0E4CF48EA58E06BE978E0D1
:10464000DFCF4FE758E06DE878E0DACF4DE858E08B
:104650006FE778E0D5CF81E00E941104C0CA8CE0FA
:10466000FBCF0E944D1D0E941B1CC8010E94DA1145
:10467000D82E33C2092F0F70907F11F00295007F62
:10468000812F2223C9F0002369F090E2910F983026
:1046900010F011110BC080917B03082B00937B035A
:1046A0000E94C418812F0E94811C17C080917A0338
:1046B000082B00937A03F4CF0E94461C002369F074
:1046C0000095105E183010F0B11021C080917B036E
:1046D000082300937B030E94C418F8E0CF1AD10886
:1046E00024E0C216D10410F40E94471385E0F701BC
:1046F000DE01119601900D928A95E1F709811A81E8
:10470000C8010E94DA11B8010E94011068CA8091A4
:104710007A03082300937A03DECF892F8F70907F6E
:10472000903211F08295807FF1E0BF120CC02223FD
:1047300029F0363090F60E943C1CCFCF353068F619
:104740000E94311CCACF222341F03323A1F340FF42
:10475000A9CF4F70F7014583EECF332389F3193387
:1047600069F4FFEF27EE33E0F15020403040E1F7ED
:1047700000C00000812F0E94461CAFCF8FE39CE950
:104780000197F1F7F5CF892F86958695837061F0B3
:10479000813009F0A2CF812F9370211102C090E0E7
:1047A00080E00E94210899CF812F9370211102C0CF
:1047B00090E080E00E94370890CF892F837009F045
:1047C00065C021118ACF812F829586958770880FC9
:1047D000880F612F6F70862E912CB12CA12C082E82
:1047E00004C0880C991CAA1CBB1C0A94D2F740E098
:1047F00050E0BA0114FF0FC04FE050E060E070E0FD
:1048000004C0440F551F661F771F8A95D2F7409545
:10481000509560957095969596959370923019F194
:10482000D8F400917C0310917D0320917E03309198
:104830007F03913069F0482959296A297B29CB01E6
:10484000BA0160237123822393230E94491945CF23
:10485000802A912AA22AB32ACB01BA016829792990
:104860008A299B29F2CF482959296A297B29009155
:104870007C0310917D0320917E0330917F03CB0157
:10488000BA016027712782279327DFCF86952223DD
:1048900011F0892F8170882309F41FCF812F829511
:1048A00086958770880F880F612F6F70862E912CE8
:1048B000B12CA12C082E04C0880C991CAA1CBB1C6E
:1048C0000A94D2F740E050E0BA0114FF0FC04FE065
:1048D00050E060E070E004C0440F551F661F771F72
:1048E0008A95D2F7409550956095709596959695D6
:1048F0009370923019F1D8F400916D0410916E0408
:1049000020916F0430917004913069F04829592941
:104910006A297B29CB01BA01602371238223932367
:104920000E94F818DACE802A912AA22AB32ACB0153
:10493000BA01682979298A299B29F2CF482959295E
:104940006A297B2900916D0410916E0420916F04F7
:1049500030917004CB01BA01602771278227932719
:10496000DFCF092F0F70222329F0802F0E942719F3
:10497000812FE1CE812F0E94311C802F0E940319CC
:10498000ACCE812FE1EF1E1709F442C0E11758F0B9
:10499000F0EF1F17F1F0222309F44BC0311182CE42
:1049A000892F8F713AC042EF1417D1F153EF1513CD
:1049B000F2CF2223D1F1292F2F7161E070E080E046
:1049C00090E004C0660F771F881F991F2A95D2F7C1
:1049D000A7CF2223C9F0353008F07FCE292F2F71C1
:1049E00061E070E080E090E004C0660F771F881FF0
:1049F000991F2A95D2F700916D0410916E042091B1
:104A00006F0430917004A8CF363008F066CEE6CF40
:104A1000892F8F71222309F4B1CF0E9427195DCE0F
:104A2000892F8F712223C9F3A9CF60E070E0CB01F9
:104A300077CF332379F0893341F46FEF77EE83E05A
:104A4000615070408040E1F793CEEFE3FCE931978D
:104A5000F1F78ECE892F8F7191CF85E0DE0111960F
:104A600001900D928A95E1F7F701228189819A815F
:104A70002111B9C80E94DA11182FBDC80631FCE512
:104A80001F0709F496CD80917B0382720B3C2CE5C5
:104A9000120709F4D1CD08F051C0063C4CE51407CB
:104AA00009F4B6CDA8F5043C6CE5160709F4A4CDCD
:104AB00008F0A9CD033C8CE5180709F48FCDF70168
:104AC00000811181992309F4D0CDC8010E94911170
:104AD000D82E682FC8010E940F12B8018D2D0E9498
:104AE00001100E941C10182FB82EF7012281458159
:104AF000342F32953F70892F82958F70C82ED12C1C
:104B00008C3008F0EACDF601EF59FB4C0C940233DF
:104B1000083CECE51E0709F485CD08F47ECD093C80
:104B20002CE5120709F483CD4BE958E068EA78E0F8
:104B30000A3C3CE5130709F463CDC1CF003D4CE5C9
:104B4000140709F48CCD98F40D3C6CE5160709F4B4
:104B50007DCD08F476CD0E3C8CE5180709F47BCDAD
:104B600084E00F3CECE51E0709F476CDA8CF073DA5
:104B7000FCE51F0740F481E1023D2CE5120708F433
:104B80006BCD0C94EF1D0E353DE5130711F40C941D
:104B9000EF1D95CF0F3D4CE5140709F462CD083A9F
:104BA0005DE5150709F45FCD01151C4509F087CFB8
:104BB0000E9454199FEFE4E3FCE09150E040F04084
:104BC000E1F700C0000087E797E790930108809322
:104BD000000888E19AE00FB6F894A89580936000E9
:104BE0000FBE90936000FFCF1F93CF93DF93809110
:104BF0003F03807F09F049C080913C03882309F47A
:104C000044C080917103D091400360913A03709148
:104C10003B03A0913D03B0913E03C62FC72316E08E
:104C2000D81799F190E0109711F0CF3F19F4019641
:104C30008770F6CF189F9001199F300D1124F9014C
:104C4000EF5BFC4F41814713F2CF40814613EFCF1A
:104C500042814111ECCF438154814A1B5B0B483C9C
:104C6000510528F780913F038F70806180933F0347
:104C7000F901EA5BFC4F80818F70806180838AE359
:104C800093E00E94DD1D0E948711DF91CF911F915B
:104C90000895A1E1B0E0EFE4F6E20C94AB328C01B0
:104CA00085E0F801DE011D9601900D928A95E1F7ED
:104CB000F801E2808AE3A82E83E0B82E60913D03DC
:104CC00070913E036115710509F426C190913A0374
:104CD00040913B03892F84238F3F09F41DC120811C
:104CE0003181C380D480F0903C03F601E61BF70BC2
:104CF000FF2009F4DCC080913F03582F507FE83C2F
:104D0000F10508F09FC051116BC0FE2C431314C075
:104D1000921312C0E11010C08F70806180933F0326
:104D2000C5010E94DD1D80913F03F80185838F2D11
:104D30006196EAE00C94C732C114D10429F0822FA5
:104D400083238F3F09F003C180E0F82FF170DF2E3D
:104D500080FF3CC0809171034091400356E0841372
:104D600015C02D873E878D859E850E94CD11292FE8
:104D700022952F702230F0F0243018F59F70F1F05A
:104D8000F8019581907FD1F4D12C1EC090E0589FFE
:104D9000F001599FF00D1124EF5BFC4F6181361338
:104DA00006C06081261303C06281E6120FC001961F
:104DB0008770D5CF9F7011F0882331F3805E8830E3
:104DC00018F3C8010E94DD1DFD2CB1CFEE2009F4BF
:104DD000AECF80913F03816080933F03F12CA7CF3A
:104DE000431306C0921304C0F801EE2009F479C001
:104DF000C8010E944712882309F1EE20F9F0809142
:104E00003F03803270F020913A0330913B033887A2
:104E10002F831986DB86CA868C87CE0107960E946F
:104E2000DD1D86E0F801AAE3B3E001900D928A95BA
:104E3000E1F70E94F425FF24F39479CFC8010E9482
:104E4000DD1DF9CF51110AC08AE393E00E94DD1DF8
:104E500086E0F50111928A95E9F7C0CF43130FC0A0
:104E600092130DC0E1100BC0F8018583C8010E94A8
:104E7000DD1D86E0F50111928A95E9F758CFC8014A
:104E80000E9447128823D1F2EE20C1F280913F03A5
:104E9000803238F220913A0330913B033A832983E0
:104EA0001B82DD82CC828E83CE010196B8CFE83C96
:104EB000F105F8F6FE2CEE2009F243131FC0921301
:104EC0001DC080913F0380FD10C0982F907F69F036
:104ED000F8018583903F31F0982F907F905F8F701D
:104EE000892B8583C8010E94DD1D86E0F801AAE3B5
:104EF000B3E001900D928A95E1F719CFC8010E94A5
:104F0000471281118ECF80913F03816080933F03D0
:104F1000C8010E94DD1D0BCFEE2009F48FCFC80120
:104F20000E944712F82E882309F488CF86E0F80102
:104F3000AAE3B3E001900D928A95E1F780913A03DC
:104F400090913B030E94CD110E94F425F0CE81E0A8
:104F50008E25FBCEA7E1B0E0E0EBF7E20C94B23295
:104F60004B8B5C8B6D8B7E8B8F8B611110927A03D8
:104F70001A8A198A85E0FE017396DE011D9601905A
:104F80000D928A95E1F786E0FE013D96DE011796C7
:104F900001900D928A95E1F7CE0107960E9449266D
:104FA000882359F016E08091710390914003891392
:104FB00043C06796E3E00C94CE3286E0FE0137965C
:104FC000DE01119601900D928A95E1F78A859B8505
:104FD000892B41F38F81988589238F3F19F3209185
:104FE000400330E0C9010196877099274091710311
:104FF0004817190671F40E94541910924003109238
:10500000710386E0EAE3F3E0DF011D928A95E9F798
:10501000C9CF96E0929FD001939FB00D1124AF5B52
:10502000BC4FFE01319601900D929A95E1F7809365
:1050300040030E948711B6CF819FC00111248F5B6E
:105040009C4F0E944926882309F4B3CF80917103B5
:1050500090E001968770992780937103A4CFA7E110
:10506000B0E0E5E3F8E20C94A8328E010F5F1F4F29
:105070008CE0D8011D928A95E9F79CE8C92E91E051
:10508000D92EF12CE12CAA24A394B12C39E9832E3A
:1050900031E0932EF60181916F018F3F09F442C0F8
:1050A000F894E82FE295EF70F0E021A18F70A50150
:1050B00002C0440F551F8A95E2F7CA01922F982B20
:1050C00091A392A18095892382A3789400C0E2E9FC
:1050D000F1E0712C31E021912F3F09F46BC0A22F38
:1050E000A295AF70B0E090968C9190E02F7002C0C6
:1050F000959587952A95E2F780FD5CC0832F782AE5
:10510000330F8E169F0639F7F601319780818F3F56
:1051100011F00E94A70F50EA5A95F1F7F801EE0D31
:10512000FF1D70828FEFE81AF80A96E0E916F10485
:1051300009F0B0CF4CE050E0B80182EB93E00E9460
:1051400064337C01892B41F08CE0F801A2EBB3E0E1
:1051500001900D928A95E1F71091BF03E114F104DB
:1051600059F181E0809382030E94FB0790938103B1
:105170008093800380918003909181030E94E007D7
:10518000059778F0A2EBB3E0E12FF0E0EC53FC4F91
:1051900088EB93E02D9121938A179B07D9F7109202
:1051A000820381E090E0E114F10451F06796EDE0B4
:1051B0000C94C43280E0A3CF809182038111DACFB6
:1051C0000E942313D82EE091BF03DE011D967D01BE
:1051D000882309F49DC086E01D928A95E9F70E2F79
:1051E00010E00C531C4F8091AC038A3008F05AC079
:1051F00048E958E1B701C8010E94F012882309F478
:1052000073C042E15AE2B701C8010E94F01288233C
:1052100009F46AC04DE957E1B701C8010E94F012D4
:10522000882309F461C01092AC038091BE0390E022
:1052300046E050E0B7018C539C4F0E94643321E05C
:1052400020938B03892B09F042C0D12C85E8E82EEE
:1052500083E0F82E10E000E0D7018D917D018823D6
:10526000D1F08695F80109F450C0EA57FE4F8081CD
:1052700091819C8B8B8B1D8A0E94FB078160782F0C
:105280009F8B8E8BF701319710824B895C896D89DA
:105290008F890E94AA270E5F1F4F04301105E1F687
:1052A0008D2D84CF80918303909184030E94E00729
:1052B000843F914008F09CCF80918B03882329F292
:1052C00086E0F70111928A95E9F710928B03A0917D
:1052D000BE03B0E0AC53BC4F86E0FE013D960190AA
:1052E0000D928A95E1F7B2CF8091AC038F3F31F0F8
:1052F0008F5F8093AC038A3008F497CF0E94FB073E
:105300009093840380938303D7CFEE57FE4FAFCFA4
:10531000F0E0EC53FC4F86E0ACE9B3E001900D9275
:105320008A95E1F766E070E08CE993E00E944D0811
:1053300080939B034091E20350E06091E10370E0B1
:1053400063527C4FC7010E9471338D858093A30304
:1053500061E070E0C7010E944D088093A203C090F5
:10536000A403D090A503E090A603F090A70380913A
:10537000870390918803A0918903B0918A03C8168E
:10538000D906EA06FB0611F480E010CFC09287032D
:10539000D0928803E0928903F0928A030E9423133B
:1053A0008111F2CF0E94EF07C61AD70AE80AF90A5C
:1053B000C092AD03D092AE03E092AF03F092B0037F
:1053C000E3CFA5E0B0E0E7EEF9E20C94AF32162FA0
:1053D000E82EF12CC701880F991F662301F18A5727
:1053E0009E4FFC01808191819A83898301E00B8328
:1053F0000E94FB078160782F9D838C83F701EB5718
:10540000FC4F0127110F102B108349815A816B81AA
:105410008D810E94AA272596E6E00C94CB328E5708
:105420009E4FDFCFA1E0B0E0E8E1FAE20C94AC32AD
:10543000EE24E394F12C03EA13E09E012F5F3F4F2B
:1054400047E953E063E082E00E94F317C82E882307
:1054500039F100E080E01DC0D090C303D00E2D2DA7
:1054600030E0A90143525C4F7A01E1E0F0E0EC0F3B
:10547000FD1FE00FF11D1081FA019081191BB12E63
:105480001B149CF0912F17FD90E0191B111118C0EF
:105490000F5F9091C2030917F8F281110E948411E5
:1054A0008C2D2196E9E00C94C832BA94F7018081E2
:1054B0008F5F808360E08D2D0E94E1298C2DE0CFED
:1054C0001F5FF70180818150808361E08D2D0E94F4
:1054D000E1298C2DDBCF1F920F920FB60F92112472
:1054E0002F933F934F935F936F937F938F939F93EC
:1054F000AF93BF93CF93DF93EF93FF93D091E900E6
:10550000DF708091EC00C82FC17080FDC0E8109260
:10551000E9008091F000877F8093F00078940E94EA
:1055200060191092E9008091F00088608093F0008B
:10553000CD2BCF70C093E900FF91EF91DF91CF9118
:10554000BF91AF919F918F917F916F915F914F919B
:105550003F912F910F900FBE0F901F9018951F92A3
:105560000F920FB60F9211242F933F934F935F9397
:105570006F937F938F939F93AF93BF93EF93FF931B
:105580008091E10082FF09C08091E20082FF05C0A6
:105590008091E1008B7F8093E1008091DA0080FFB1
:1055A00024C08091D80080FF20C08091DA008E7FD7
:1055B0008093DA008091D90080FF9DC080E189BD91
:1055C00082E189BD09B400FEFDCF81E080937105C1
:1055D00080916405811109C00E944A050E94150648
:1055E0008091E20084608093E2008091E10080FF7E
:1055F00017C08091E20080FF13C08091E2008E7F8F
:105600008093E2008091E20080618093E2008091CB
:10561000D80080628093D80019BC85E08093710522
:105620008091E10084FF2BC08091E20084FF27C0BD
:1056300080E189BD82E189BD89B5982F917080FF95
:10564000FBCF8091D8008F7D8093D8008091E100BE
:105650008F7E8093E1008091E2008F7E8093E20054
:105660008091E20081608093E2008091720588233E
:1056700009F447C084E080937105809171058091A1
:10568000E10083FF27C08091E20083FF23C0809167
:10569000E100877F8093E10082E0809371051092A2
:1056A00072058091E1008E7F8093E1008091E2009D
:1056B0008E7F8093E2008091E20080618093E2001F
:1056C00042E060E080E00E94E3058091F0008860A5
:1056D0008093F000FF91EF91BF91AF919F918F91D7
:1056E0007F916F915F914F913F912F910F900FBEDE
:1056F0000F901F90189519BC1092710510926405B7
:1057000074CF8091E30087FD93E090937105B5CF4E
:1057100078941F921FB61F9211248F939F93AF937B
:10572000BF9380915D0590915E05A0915F05B0915A
:1057300060050196A11DB11D80935D0590935E05E6
:10574000A0935F05B0936005BF91AF919F918F913A
:105750001F901FBE1F9018951F921FB61F921124F5
:105760008F939F93AF93BF9380915C05811113C07A
:1057700080915D0590915E05A0915F05B0916005F7
:105780004196A11DB11D80935D0590935E05A09388
:105790005F05B0936005BF91AF919F918F911F906E
:1057A0001FBE1F901895CDB7DEB72B970FB6F89494
:1057B000DEBF0FBECDBF85B7806885BF85B7806867
:1057C00085BF0E94880F1092D7051092D9051092BC
:1057D000D80580EC80939C068AED95E090939E0618
:1057E00080939D0610929B0610929A061092B70520
:1057F0001092B6051092B9051092B8051092BB052B
:105800001092BA051092BD051092BC051092BF050A
:105810001092BE051092C1051092C0051092C305EA
:105820001092C2051092C5051092C4051092C705CA
:105830001092C6051092C9051092C8051092CB05AA
:105840001092CA051092CD051092CC051092D10588
:105850001092D00581E997E09093B3058093B2054B
:1058600088EF96E09093D3058093D20584ED96E07F
:105870009093CF058093CE0583ED96E09093B50588
:105880008093B40584B7877F84BF0FB6F894A8953A
:1058900080916000886180936000109260000FBE6C
:1058A00080E890E00FB6F8948093610090936100D7
:1058B0000FBE85EA9FE09093F9028093F8020E9460
:1058C0004A050E9415068091E20084608093E20000
:1058D0007894809171058823A1F01091E9001F70E0
:1058E0009091EC00892F817090FD80E8182B109228
:1058F000E9008091E80083FD0E9460191F701093F9
:10590000E90082E084BD93E095BD9AEF97BD809356
:105910006E001092AD031092AE031092AF0310927E
:10592000B0039091B103911108C00E94231392E03B
:10593000811101C091E09093B10381E0913009F0B1
:1059400080E080932C010E94231381110E94413139
:1059500080912C0180912C0196E0811190E0909330
:10596000BF0386E0891B8093BE030CE811E0D801D9
:105970008D918D018F3F11F00E94A70FB1E0023988
:105980001B07A9F702E911E0F80181918F018F3F10
:1059900011F00E94A70FF1E009391F07A9F78CE069
:1059A000E4ECF3E0DF01282F1D922A95E9F7E2EB02
:1059B000F3E0DF011D928A95E9F790E080E00E9414
:1059C0009233883E9E4F11F00E944D1D82E090E080
:1059D0000E948A338093D0030E948F179093C10353
:1059E0008093C00383E090E00E948A33682F70E0C8
:1059F00090E080E00E94491910927F05EEE9F5E001
:105A000082EB95E02FEF3FEF219331938E179F07A5
:105A1000D9F710923604E5E5F4E089E694E02FEF3B
:105A20003FEF219331938E179F07D9F790E080E0E5
:105A30000E949233883E9E4F21F00E944D1D0E948D
:105A4000931346E050E06CE170E083EA96E00E9438
:105A50007A331092A2068091A3068C7F11F40E94E3
:105A6000931390912C0181E098279093E103F82FF4
:105A7000F91BF093C30390912C018093E203909162
:105A80002C018093C20380912C01811106C085EF07
:105A900080933A0184EF8093390120913A01E22FFB
:105AA000E295EF70F0E061A12F7081E090E0AC0131
:105AB00001C0440F2A95EAF7342F3095362331A3DD
:105AC00022A1242B22A320913901E22FE295EF702D
:105AD000F0E031A12F7001C0880F2A95EAF7982FC6
